{
  "_format": "hh-sol-artifact-1",
  "contractName": "SocialRecovery",
  "sourceName": "contracts/innovation/archieved/SocialRecovery.sol",
  "abi": [
    {
      "inputs": [
        {
          "internalType": "address",
          "name": "_owner",
          "type": "address"
        }
      ],
      "stateMutability": "nonpayable",
      "type": "constructor"
    },
    {
      "anonymous": false,
      "inputs": [
        {
          "indexed": true,
          "internalType": "address",
          "name": "guardian",
          "type": "address"
        },
        {
          "indexed": false,
          "internalType": "address",
          "name": "newOwner",
          "type": "address"
        },
        {
          "indexed": false,
          "internalType": "uint256",
          "name": "doneNum",
          "type": "uint256"
        }
      ],
      "name": "Cover",
      "type": "event"
    },
    {
      "anonymous": false,
      "inputs": [
        {
          "indexed": false,
          "internalType": "address",
          "name": "previousOwner",
          "type": "address"
        },
        {
          "indexed": false,
          "internalType": "address",
          "name": "newOwner",
          "type": "address"
        }
      ],
      "name": "OwnershipTransferred",
      "type": "event"
    },
    {
      "anonymous": false,
      "inputs": [
        {
          "indexed": false,
          "internalType": "address[]",
          "name": "guardians",
          "type": "address[]"
        },
        {
          "indexed": false,
          "internalType": "uint256",
          "name": "needGuardiansNum",
          "type": "uint256"
        }
      ],
      "name": "SocialRecoveryUpdated",
      "type": "event"
    },
    {
      "inputs": [
        {
          "internalType": "address",
          "name": "newOwner",
          "type": "address"
        }
      ],
      "name": "coverOwnership",
      "outputs": [],
      "stateMutability": "nonpayable",
      "type": "function"
    },
    {
      "inputs": [
        {
          "internalType": "uint256",
          "name": "",
          "type": "uint256"
        }
      ],
      "name": "doneGuardians",
      "outputs": [
        {
          "internalType": "address",
          "name": "",
          "type": "address"
        }
      ],
      "stateMutability": "view",
      "type": "function"
    },
    {
      "inputs": [],
      "name": "getSocialRecovery",
      "outputs": [
        {
          "internalType": "address[]",
          "name": "",
          "type": "address[]"
        },
        {
          "internalType": "uint256",
          "name": "",
          "type": "uint256"
        },
        {
          "internalType": "address[]",
          "name": "",
          "type": "address[]"
        }
      ],
      "stateMutability": "view",
      "type": "function"
    },
    {
      "inputs": [
        {
          "internalType": "uint256",
          "name": "",
          "type": "uint256"
        }
      ],
      "name": "guardians",
      "outputs": [
        {
          "internalType": "address",
          "name": "",
          "type": "address"
        }
      ],
      "stateMutability": "view",
      "type": "function"
    },
    {
      "inputs": [],
      "name": "needGuardiansNum",
      "outputs": [
        {
          "internalType": "uint256",
          "name": "",
          "type": "uint256"
        }
      ],
      "stateMutability": "view",
      "type": "function"
    },
    {
      "inputs": [],
      "name": "owner",
      "outputs": [
        {
          "internalType": "address",
          "name": "",
          "type": "address"
        }
      ],
      "stateMutability": "view",
      "type": "function"
    },
    {
      "inputs": [],
      "name": "prepareOwner",
      "outputs": [
        {
          "internalType": "address",
          "name": "",
          "type": "address"
        }
      ],
      "stateMutability": "view",
      "type": "function"
    },
    {
      "inputs": [],
      "name": "quitGuardian",
      "outputs": [],
      "stateMutability": "nonpayable",
      "type": "function"
    },
    {
      "inputs": [
        {
          "internalType": "address[]",
          "name": "_guardians",
          "type": "address[]"
        },
        {
          "internalType": "uint256",
          "name": "_needGuardiansNum",
          "type": "uint256"
        }
      ],
      "name": "setSocialRecovery",
      "outputs": [],
      "stateMutability": "nonpayable",
      "type": "function"
    },
    {
      "inputs": [
        {
          "internalType": "bytes4",
          "name": "interfaceId",
          "type": "bytes4"
        }
      ],
      "name": "supportsInterface",
      "outputs": [
        {
          "internalType": "bool",
          "name": "",
          "type": "bool"
        }
      ],
      "stateMutability": "view",
      "type": "function"
    },
    {
      "inputs": [
        {
          "internalType": "address",
          "name": "newOwner",
          "type": "address"
        }
      ],
      "name": "transferOwnership",
      "outputs": [],
      "stateMutability": "nonpayable",
      "type": "function"
    }
  ],
  "bytecode": "0x60a060405234801561001057600080fd5b5060405161105d38038061105d83398101604081905261002f91610058565b600080546001600160a01b0319166001600160a01b039290921691909117905530608052610088565b60006020828403121561006a57600080fd5b81516001600160a01b038116811461008157600080fd5b9392505050565b608051610fb36100aa60003960008181610745015261093c0152610fb36000f3fe608060405234801561001057600080fd5b50600436106100a95760003560e01c8063a9c827b811610071578063a9c827b814610142578063b3153d6314610155578063ef7daa471461016a578063f2fde38b1461017d578063f3103b2e14610190578063f560c7341461019857600080fd5b806301ffc9a7146100ae578063187b4595146100d65780631b5269bb146100ed5780632471f314146101045780638da5cb5b1461012f575b600080fd5b6100c16100bc366004610c64565b6101ab565b60405190151581526020015b60405180910390f35b6100de6101e2565b6040516100cd93929190610cd9565b6100f660025481565b6040519081526020016100cd565b610117610112366004610d0e565b6102b2565b6040516001600160a01b0390911681526020016100cd565b600054610117906001600160a01b031681565b600454610117906001600160a01b031681565b610168610163366004610d43565b6102dc565b005b610168610178366004610d74565b61072f565b61016861018b366004610d43565b610926565b61016861098f565b6101176101a6366004610d0e565b610b80565b60006001600160e01b031982166301ffc9a760e01b14806101dc57506001600160e01b0319821663117f828560e21b145b92915050565b606060006060600160025460038280548060200260200160405190810160405280929190818152602001828054801561024457602002820191906000526020600020905b81546001600160a01b03168152600190910190602001808311610226575b50505050509250808054806020026020016040519081016040528092919081815260200182805480156102a057602002820191906000526020600020905b81546001600160a01b03168152600190910190602001808311610282575b50505050509050925092509250909192565b600381815481106102c257600080fd5b6000918252602090912001546001600160a01b0316905081565b6000805b60015481101561033a57336001600160a01b03166001828154811061030757610307610e3f565b6000918252602090912001546001600160a01b03160361032a576001915061033a565b61033381610e6b565b90506102e0565b508061039d5760405162461bcd60e51b815260206004820152602760248201527f636f7665724f776e6572736869703a20796f75277265206e6f742074686520476044820152663ab0b93234b0b760c91b60648201526084015b60405180910390fd5b6001600160a01b0382166104025760405162461bcd60e51b815260206004820152602660248201527f636f7665724f776e6572736869703a206e65774f776e65722063616e2774206260448201526506520307830360d41b6064820152608401610394565b6004546001600160a01b0380841691160361062757600080805b6003548110156105005781158015610464575060006001600160a01b03166003828154811061044d5761044d610e3f565b6000918252602090912001546001600160a01b0316145b1561047157809250600191505b336001600160a01b03166003828154811061048e5761048e610e3f565b6000918252602090912001546001600160a01b0316036104f05760405162461bcd60e51b815260206004820152601c60248201527f636f7665724f776e6572736869703a20646f6e277420726570656174000000006044820152606401610394565b6104f981610e6b565b905061041c565b5060016002546105109190610e84565b820361058e5761051f84610b90565b60025467ffffffffffffffff81111561053a5761053a610d5e565b604051908082528060200260200182016040528015610563578160200160208202803683370190505b50805161057891600391602090910190610bea565b50600480546001600160a01b03191690556105d1565b33600383815481106105a2576105a2610e3f565b9060005260206000200160006101000a8154816001600160a01b0302191690836001600160a01b031602179055505b337f2ce3360ece46efd8bf19eaf6e38f377526d731e3adc61f96b348cfe38e31a475856105ff856001610e97565b604080516001600160a01b03909316835260208301919091520160405180910390a250505050565b60025460010361063f5761063a82610b90565b6106e7565b60025467ffffffffffffffff81111561065a5761065a610d5e565b604051908082528060200260200182016040528015610683578160200160208202803683370190505b50805161069891600391602090910190610bea565b503360036000815481106106ae576106ae610e3f565b600091825260209091200180546001600160a01b03199081166001600160a01b0393841617909155600480549091169184169190911790555b604080516001600160a01b03841681526001602082015233917f2ce3360ece46efd8bf19eaf6e38f377526d731e3adc61f96b348cfe38e31a475910160405180910390a25050565b6000546001600160a01b031633148061077057507f00000000000000000000000000000000000000000000000000000000000000006001600160a01b031633145b61078c5760405162461bcd60e51b815260040161039490610eaa565b600254156107f45760405162461bcd60e51b815260206004820152602f60248201527f736574536f6369616c5265636f766572793a206c65742074686520677561726460448201526e1a585b9cc81c5d5a5d08199a5c9cdd608a1b6064820152608401610394565b600081118015610805575081518111155b6108645760405162461bcd60e51b815260206004820152602a60248201527f736574536f6369616c5265636f766572793a205f6e656564477561726469616e60448201526939a73ab69032b93937b960b11b6064820152608401610394565b8151610877906001906020850190610bea565b5060028190558067ffffffffffffffff81111561089657610896610d5e565b6040519080825280602002602001820160405280156108bf578160200160208202803683370190505b5080516108d491600391602090910190610bea565b50600480546001600160a01b03191690556002546040517fbd508b341dc78a7a5309c1f3b48d89a6266ed6ddfbc6fc044637b7c3374ae6139161091a9160019190610ef7565b60405180910390a15050565b6000546001600160a01b031633148061096757507f00000000000000000000000000000000000000000000000000000000000000006001600160a01b031633145b6109835760405162461bcd60e51b815260040161039490610eaa565b61098c81610b90565b50565b6000805b600154811015610b2457336001600160a01b0316600182815481106109ba576109ba610e3f565b6000918252602090912001546001600160a01b031603610b14576001805490925082906109e8908290610e84565b815481106109f8576109f8610e3f565b600091825260209091200154600180546001600160a01b039092169183908110610a2457610a24610e3f565b9060005260206000200160006101000a8154816001600160a01b0302191690836001600160a01b031602179055506001805480610a6357610a63610f50565b600082815260209020810160001990810180546001600160a01b03191690550190556002546001541015610aa557600260008154610aa090610f66565b909155505b60025467ffffffffffffffff811115610ac057610ac0610d5e565b604051908082528060200260200182016040528015610ae9578160200160208202803683370190505b508051610afe91600391602090910190610bea565b50600480546001600160a01b0319169055610b24565b610b1d81610e6b565b9050610993565b508061098c5760405162461bcd60e51b815260206004820152602560248201527f71756974477561726469616e3a20796f75277265206e6f742074686520477561604482015264393234b0b760d91b6064820152608401610394565b600181815481106102c257600080fd5b600080546001600160a01b038381166001600160a01b031983168117909355604080519190921680825260208201939093527f8be0079c531659141344cd1fd0a4f28419497f9722a3daafe3b4186f6b6457e0910161091a565b828054828255906000526020600020908101928215610c3f579160200282015b82811115610c3f57825182546001600160a01b0319166001600160a01b03909116178255602090920191600190910190610c0a565b50610c4b929150610c4f565b5090565b5b80821115610c4b5760008155600101610c50565b600060208284031215610c7657600080fd5b81356001600160e01b031981168114610c8e57600080fd5b9392505050565b600081518084526020808501945080840160005b83811015610cce5781516001600160a01b031687529582019590820190600101610ca9565b509495945050505050565b606081526000610cec6060830186610c95565b8460208401528281036040840152610d048185610c95565b9695505050505050565b600060208284031215610d2057600080fd5b5035919050565b80356001600160a01b0381168114610d3e57600080fd5b919050565b600060208284031215610d5557600080fd5b610c8e82610d27565b634e487b7160e01b600052604160045260246000fd5b60008060408385031215610d8757600080fd5b823567ffffffffffffffff80821115610d9f57600080fd5b818501915085601f830112610db357600080fd5b8135602082821115610dc757610dc7610d5e565b8160051b604051601f19603f83011681018181108682111715610dec57610dec610d5e565b604052928352818301935084810182019289841115610e0a57600080fd5b948201945b83861015610e2f57610e2086610d27565b85529482019493820193610e0f565b9997909101359750505050505050565b634e487b7160e01b600052603260045260246000fd5b634e487b7160e01b600052601160045260246000fd5b600060018201610e7d57610e7d610e55565b5060010190565b818103818111156101dc576101dc610e55565b808201808211156101dc576101dc610e55565b6020808252602d908201527f6f6e6c794f776e6572416e644f726967696e616c3a2063616c6c65722069732060408201526c3737ba103a34329037bbb732b960991b606082015260800190565b6000604082016040835280855480835260608501915086600052602092508260002060005b82811015610f415781546001600160a01b031684529284019260019182019101610f1c565b50505092019290925292915050565b634e487b7160e01b600052603160045260246000fd5b600081610f7557610f75610e55565b50600019019056fea26469706673582212200bc401f78b9cc73f7e110f5017977d8fd07f05c6dd4627924bbd1245389a307364736f6c63430008120033",
  "linkReferences": {},
  "deployedLinkReferences": {}
}