{
  "_format": "hh-sol-artifact-1",
  "contractName": "SocialRecovery",
  "sourceName": "contracts/innovation/archieved/SocialRecovery.sol",
  "abi": [
    {
      "inputs": [
        {
          "internalType": "address",
          "name": "_owner",
          "type": "address"
        }
      ],
      "stateMutability": "nonpayable",
      "type": "constructor"
    },
    {
      "anonymous": false,
      "inputs": [
        {
          "indexed": true,
          "internalType": "address",
          "name": "guardian",
          "type": "address"
        },
        {
          "indexed": false,
          "internalType": "address",
          "name": "newOwner",
          "type": "address"
        },
        {
          "indexed": false,
          "internalType": "uint256",
          "name": "doneNum",
          "type": "uint256"
        }
      ],
      "name": "Cover",
      "type": "event"
    },
    {
      "anonymous": false,
      "inputs": [
        {
          "indexed": false,
          "internalType": "address",
          "name": "previousOwner",
          "type": "address"
        },
        {
          "indexed": false,
          "internalType": "address",
          "name": "newOwner",
          "type": "address"
        }
      ],
      "name": "OwnershipTransferred",
      "type": "event"
    },
    {
      "anonymous": false,
      "inputs": [
        {
          "indexed": false,
          "internalType": "address[]",
          "name": "guardians",
          "type": "address[]"
        },
        {
          "indexed": false,
          "internalType": "uint256",
          "name": "needGuardiansNum",
          "type": "uint256"
        }
      ],
      "name": "SocialRecoveryUpdated",
      "type": "event"
    },
    {
      "inputs": [
        {
          "internalType": "address",
          "name": "newOwner",
          "type": "address"
        }
      ],
      "name": "coverOwnership",
      "outputs": [],
      "stateMutability": "nonpayable",
      "type": "function"
    },
    {
      "inputs": [
        {
          "internalType": "uint256",
          "name": "",
          "type": "uint256"
        }
      ],
      "name": "doneGuardians",
      "outputs": [
        {
          "internalType": "address",
          "name": "",
          "type": "address"
        }
      ],
      "stateMutability": "view",
      "type": "function"
    },
    {
      "inputs": [],
      "name": "getSocialRecovery",
      "outputs": [
        {
          "internalType": "address[]",
          "name": "",
          "type": "address[]"
        },
        {
          "internalType": "uint256",
          "name": "",
          "type": "uint256"
        },
        {
          "internalType": "address[]",
          "name": "",
          "type": "address[]"
        }
      ],
      "stateMutability": "view",
      "type": "function"
    },
    {
      "inputs": [
        {
          "internalType": "uint256",
          "name": "",
          "type": "uint256"
        }
      ],
      "name": "guardians",
      "outputs": [
        {
          "internalType": "address",
          "name": "",
          "type": "address"
        }
      ],
      "stateMutability": "view",
      "type": "function"
    },
    {
      "inputs": [],
      "name": "needGuardiansNum",
      "outputs": [
        {
          "internalType": "uint256",
          "name": "",
          "type": "uint256"
        }
      ],
      "stateMutability": "view",
      "type": "function"
    },
    {
      "inputs": [],
      "name": "owner",
      "outputs": [
        {
          "internalType": "address",
          "name": "",
          "type": "address"
        }
      ],
      "stateMutability": "view",
      "type": "function"
    },
    {
      "inputs": [],
      "name": "prepareOwner",
      "outputs": [
        {
          "internalType": "address",
          "name": "",
          "type": "address"
        }
      ],
      "stateMutability": "view",
      "type": "function"
    },
    {
      "inputs": [],
      "name": "quitGuardian",
      "outputs": [],
      "stateMutability": "nonpayable",
      "type": "function"
    },
    {
      "inputs": [
        {
          "internalType": "address[]",
          "name": "_guardians",
          "type": "address[]"
        },
        {
          "internalType": "uint256",
          "name": "_needGuardiansNum",
          "type": "uint256"
        }
      ],
      "name": "setSocialRecovery",
      "outputs": [],
      "stateMutability": "nonpayable",
      "type": "function"
    },
    {
      "inputs": [
        {
          "internalType": "bytes4",
          "name": "interfaceId",
          "type": "bytes4"
        }
      ],
      "name": "supportsInterface",
      "outputs": [
        {
          "internalType": "bool",
          "name": "",
          "type": "bool"
        }
      ],
      "stateMutability": "view",
      "type": "function"
    },
    {
      "inputs": [
        {
          "internalType": "address",
          "name": "newOwner",
          "type": "address"
        }
      ],
      "name": "transferOwnership",
      "outputs": [],
      "stateMutability": "nonpayable",
      "type": "function"
    }
  ],
  "bytecode": "0x60a060405234801561000f575f80fd5b50604051610fe4380380610fe483398101604081905261002e91610056565b5f80546001600160a01b0319166001600160a01b039290921691909117905530608052610083565b5f60208284031215610066575f80fd5b81516001600160a01b038116811461007c575f80fd5b9392505050565b608051610f426100a25f395f818161071c01526109110152610f425ff3fe608060405234801561000f575f80fd5b50600436106100a6575f3560e01c8063a9c827b81161006e578063a9c827b81461013d578063b3153d6314610150578063ef7daa4714610165578063f2fde38b14610178578063f3103b2e1461018b578063f560c73414610193575f80fd5b806301ffc9a7146100aa578063187b4595146100d25780631b5269bb146100e95780632471f314146101005780638da5cb5b1461012b575b5f80fd5b6100bd6100b8366004610c23565b6101a6565b60405190151581526020015b60405180910390f35b6100da6101dc565b6040516100c993929190610c94565b6100f260025481565b6040519081526020016100c9565b61011361010e366004610cc8565b6102a7565b6040516001600160a01b0390911681526020016100c9565b5f54610113906001600160a01b031681565b600454610113906001600160a01b031681565b61016361015e366004610cfa565b6102cf565b005b610163610173366004610d27565b610707565b610163610186366004610cfa565b6108fc565b610163610964565b6101136101a1366004610cc8565b610b44565b5f6001600160e01b031982166301ffc9a760e01b14806101d657506001600160e01b0319821663117f828560e21b145b92915050565b60605f6060600160025460038280548060200260200160405190810160405280929190818152602001828054801561023b57602002820191905f5260205f20905b81546001600160a01b0316815260019091019060200180831161021d575b505050505092508080548060200260200160405190810160405280929190818152602001828054801561029557602002820191905f5260205f20905b81546001600160a01b03168152600190910190602001808311610277575b50505050509050925092509250909192565b600381815481106102b6575f80fd5b5f918252602090912001546001600160a01b0316905081565b5f805b60015481101561032357336001600160a01b0316600182815481106102f9576102f9610ded565b5f918252602090912001546001600160a01b03160361031b5760019150610323565b6001016102d2565b50806103865760405162461bcd60e51b815260206004820152602760248201527f636f7665724f776e6572736869703a20796f75277265206e6f742074686520476044820152663ab0b93234b0b760c91b60648201526084015b60405180910390fd5b6001600160a01b0382166103eb5760405162461bcd60e51b815260206004820152602660248201527f636f7665724f776e6572736869703a206e65774f776e65722063616e2774206260448201526506520307830360d41b606482015260840161037d565b6004546001600160a01b03808416911603610601575f80805b6003548110156104dd578115801561044a57505f6001600160a01b03166003828154811061043457610434610ded565b5f918252602090912001546001600160a01b0316145b1561045757809250600191505b336001600160a01b03166003828154811061047457610474610ded565b5f918252602090912001546001600160a01b0316036104d55760405162461bcd60e51b815260206004820152601c60248201527f636f7665724f776e6572736869703a20646f6e27742072657065617400000000604482015260640161037d565b600101610404565b5060016002546104ed9190610e15565b820361056b576104fc84610b53565b60025467ffffffffffffffff81111561051757610517610d13565b604051908082528060200260200182016040528015610540578160200160208202803683370190505b50805161055591600391602090910190610bac565b50600480546001600160a01b03191690556105ab565b336003838154811061057f5761057f610ded565b905f5260205f20015f6101000a8154816001600160a01b0302191690836001600160a01b031602179055505b337f2ce3360ece46efd8bf19eaf6e38f377526d731e3adc61f96b348cfe38e31a475856105d9856001610e28565b604080516001600160a01b03909316835260208301919091520160405180910390a250505050565b6002546001036106195761061482610b53565b6106bf565b60025467ffffffffffffffff81111561063457610634610d13565b60405190808252806020026020018201604052801561065d578160200160208202803683370190505b50805161067291600391602090910190610bac565b503360035f8154811061068757610687610ded565b5f91825260209091200180546001600160a01b03199081166001600160a01b0393841617909155600480549091169184169190911790555b604080516001600160a01b03841681526001602082015233917f2ce3360ece46efd8bf19eaf6e38f377526d731e3adc61f96b348cfe38e31a475910160405180910390a25050565b5f546001600160a01b031633148061074757507f00000000000000000000000000000000000000000000000000000000000000006001600160a01b031633145b6107635760405162461bcd60e51b815260040161037d90610e3b565b600254156107cb5760405162461bcd60e51b815260206004820152602f60248201527f736574536f6369616c5265636f766572793a206c65742074686520677561726460448201526e1a585b9cc81c5d5a5d08199a5c9cdd608a1b606482015260840161037d565b5f811180156107db575081518111155b61083a5760405162461bcd60e51b815260206004820152602a60248201527f736574536f6369616c5265636f766572793a205f6e656564477561726469616e60448201526939a73ab69032b93937b960b11b606482015260840161037d565b815161084d906001906020850190610bac565b5060028190558067ffffffffffffffff81111561086c5761086c610d13565b604051908082528060200260200182016040528015610895578160200160208202803683370190505b5080516108aa91600391602090910190610bac565b50600480546001600160a01b03191690556002546040517fbd508b341dc78a7a5309c1f3b48d89a6266ed6ddfbc6fc044637b7c3374ae613916108f09160019190610e88565b60405180910390a15050565b5f546001600160a01b031633148061093c57507f00000000000000000000000000000000000000000000000000000000000000006001600160a01b031633145b6109585760405162461bcd60e51b815260040161037d90610e3b565b61096181610b53565b50565b5f805b600154811015610ae857336001600160a01b03166001828154811061098e5761098e610ded565b5f918252602090912001546001600160a01b031603610ae0576001805490925082906109bb908290610e15565b815481106109cb576109cb610ded565b5f91825260209091200154600180546001600160a01b0390921691839081106109f6576109f6610ded565b905f5260205f20015f6101000a8154816001600160a01b0302191690836001600160a01b031602179055506001805480610a3257610a32610ee3565b5f8281526020902081015f1990810180546001600160a01b03191690550190556002546001541015610a715760025f8154610a6c90610ef7565b909155505b60025467ffffffffffffffff811115610a8c57610a8c610d13565b604051908082528060200260200182016040528015610ab5578160200160208202803683370190505b508051610aca91600391602090910190610bac565b50600480546001600160a01b0319169055610ae8565b600101610967565b50806109615760405162461bcd60e51b815260206004820152602560248201527f71756974477561726469616e3a20796f75277265206e6f742074686520477561604482015264393234b0b760d91b606482015260840161037d565b600181815481106102b6575f80fd5b5f80546001600160a01b038381166001600160a01b031983168117909355604080519190921680825260208201939093527f8be0079c531659141344cd1fd0a4f28419497f9722a3daafe3b4186f6b6457e091016108f0565b828054828255905f5260205f20908101928215610bff579160200282015b82811115610bff57825182546001600160a01b0319166001600160a01b03909116178255602090920191600190910190610bca565b50610c0b929150610c0f565b5090565b5b80821115610c0b575f8155600101610c10565b5f60208284031215610c33575f80fd5b81356001600160e01b031981168114610c4a575f80fd5b9392505050565b5f815180845260208085019450602084015f5b83811015610c895781516001600160a01b031687529582019590820190600101610c64565b509495945050505050565b606081525f610ca66060830186610c51565b8460208401528281036040840152610cbe8185610c51565b9695505050505050565b5f60208284031215610cd8575f80fd5b5035919050565b80356001600160a01b0381168114610cf5575f80fd5b919050565b5f60208284031215610d0a575f80fd5b610c4a82610cdf565b634e487b7160e01b5f52604160045260245ffd5b5f8060408385031215610d38575f80fd5b823567ffffffffffffffff80821115610d4f575f80fd5b818501915085601f830112610d62575f80fd5b8135602082821115610d7657610d76610d13565b8160051b604051601f19603f83011681018181108682111715610d9b57610d9b610d13565b604052928352818301935084810182019289841115610db8575f80fd5b948201945b83861015610ddd57610dce86610cdf565b85529482019493820193610dbd565b9997909101359750505050505050565b634e487b7160e01b5f52603260045260245ffd5b634e487b7160e01b5f52601160045260245ffd5b818103818111156101d6576101d6610e01565b808201808211156101d6576101d6610e01565b6020808252602d908201527f6f6e6c794f776e6572416e644f726967696e616c3a2063616c6c65722069732060408201526c3737ba103a34329037bbb732b960991b606082015260800190565b5f6040820160408352808554808352606085019150865f526020925060205f205f5b82811015610ecf5781546001600160a01b031684529284019260019182019101610eaa565b505050602093909301939093525092915050565b634e487b7160e01b5f52603160045260245ffd5b5f81610f0557610f05610e01565b505f19019056fea2646970667358221220e4f3c3614098185d4ff61effda77946fa8e6a59c8403ca224628c7a2482ccad664736f6c63430008180033",
  "linkReferences": {},
  "deployedLinkReferences": {}
}