{
  "_format": "hh-sol-artifact-1",
  "contractName": "ERC20Insc",
  "sourceName": "contracts/erc721insc/ERC20Insc.sol",
  "abi": [
    {
      "inputs": [
        {
          "internalType": "contract IERC721Inscription",
          "name": "insc_",
          "type": "address"
        }
      ],
      "stateMutability": "nonpayable",
      "type": "constructor"
    },
    {
      "anonymous": false,
      "inputs": [
        {
          "indexed": true,
          "internalType": "address",
          "name": "owner",
          "type": "address"
        },
        {
          "indexed": true,
          "internalType": "address",
          "name": "spender",
          "type": "address"
        },
        {
          "indexed": false,
          "internalType": "uint256",
          "name": "value",
          "type": "uint256"
        }
      ],
      "name": "Approval",
      "type": "event"
    },
    {
      "anonymous": false,
      "inputs": [
        {
          "indexed": true,
          "internalType": "address",
          "name": "from",
          "type": "address"
        },
        {
          "indexed": true,
          "internalType": "address",
          "name": "to",
          "type": "address"
        },
        {
          "indexed": false,
          "internalType": "uint256",
          "name": "value",
          "type": "uint256"
        }
      ],
      "name": "Transfer",
      "type": "event"
    },
    {
      "inputs": [
        {
          "internalType": "address",
          "name": "owner",
          "type": "address"
        },
        {
          "internalType": "address",
          "name": "spender",
          "type": "address"
        }
      ],
      "name": "allowance",
      "outputs": [
        {
          "internalType": "uint256",
          "name": "",
          "type": "uint256"
        }
      ],
      "stateMutability": "view",
      "type": "function"
    },
    {
      "inputs": [
        {
          "internalType": "address",
          "name": "spender",
          "type": "address"
        },
        {
          "internalType": "uint256",
          "name": "amount",
          "type": "uint256"
        }
      ],
      "name": "approve",
      "outputs": [
        {
          "internalType": "bool",
          "name": "",
          "type": "bool"
        }
      ],
      "stateMutability": "nonpayable",
      "type": "function"
    },
    {
      "inputs": [
        {
          "internalType": "address",
          "name": "account",
          "type": "address"
        }
      ],
      "name": "balanceOf",
      "outputs": [
        {
          "internalType": "uint256",
          "name": "",
          "type": "uint256"
        }
      ],
      "stateMutability": "view",
      "type": "function"
    },
    {
      "inputs": [
        {
          "internalType": "uint256",
          "name": "amount",
          "type": "uint256"
        }
      ],
      "name": "burn",
      "outputs": [],
      "stateMutability": "nonpayable",
      "type": "function"
    },
    {
      "inputs": [],
      "name": "decimals",
      "outputs": [
        {
          "internalType": "uint8",
          "name": "",
          "type": "uint8"
        }
      ],
      "stateMutability": "pure",
      "type": "function"
    },
    {
      "inputs": [
        {
          "internalType": "address",
          "name": "spender",
          "type": "address"
        },
        {
          "internalType": "uint256",
          "name": "subtractedValue",
          "type": "uint256"
        }
      ],
      "name": "decreaseAllowance",
      "outputs": [
        {
          "internalType": "bool",
          "name": "",
          "type": "bool"
        }
      ],
      "stateMutability": "nonpayable",
      "type": "function"
    },
    {
      "inputs": [
        {
          "internalType": "address",
          "name": "spender",
          "type": "address"
        },
        {
          "internalType": "uint256",
          "name": "addedValue",
          "type": "uint256"
        }
      ],
      "name": "increaseAllowance",
      "outputs": [
        {
          "internalType": "bool",
          "name": "",
          "type": "bool"
        }
      ],
      "stateMutability": "nonpayable",
      "type": "function"
    },
    {
      "inputs": [],
      "name": "insc",
      "outputs": [
        {
          "internalType": "contract IERC721Inscription",
          "name": "",
          "type": "address"
        }
      ],
      "stateMutability": "view",
      "type": "function"
    },
    {
      "inputs": [
        {
          "internalType": "uint256",
          "name": "tokenId",
          "type": "uint256"
        }
      ],
      "name": "mint",
      "outputs": [],
      "stateMutability": "nonpayable",
      "type": "function"
    },
    {
      "inputs": [],
      "name": "name",
      "outputs": [
        {
          "internalType": "string",
          "name": "",
          "type": "string"
        }
      ],
      "stateMutability": "view",
      "type": "function"
    },
    {
      "inputs": [],
      "name": "symbol",
      "outputs": [
        {
          "internalType": "string",
          "name": "",
          "type": "string"
        }
      ],
      "stateMutability": "view",
      "type": "function"
    },
    {
      "inputs": [],
      "name": "totalSupply",
      "outputs": [
        {
          "internalType": "uint256",
          "name": "",
          "type": "uint256"
        }
      ],
      "stateMutability": "view",
      "type": "function"
    },
    {
      "inputs": [
        {
          "internalType": "address",
          "name": "to",
          "type": "address"
        },
        {
          "internalType": "uint256",
          "name": "amount",
          "type": "uint256"
        }
      ],
      "name": "transfer",
      "outputs": [
        {
          "internalType": "bool",
          "name": "",
          "type": "bool"
        }
      ],
      "stateMutability": "nonpayable",
      "type": "function"
    },
    {
      "inputs": [
        {
          "internalType": "address",
          "name": "from",
          "type": "address"
        },
        {
          "internalType": "address",
          "name": "to",
          "type": "address"
        },
        {
          "internalType": "uint256",
          "name": "amount",
          "type": "uint256"
        }
      ],
      "name": "transferFrom",
      "outputs": [
        {
          "internalType": "bool",
          "name": "",
          "type": "bool"
        }
      ],
      "stateMutability": "nonpayable",
      "type": "function"
    }
  ],
  "bytecode": "0x608060405234801562000010575f80fd5b506040516200148d3803806200148d833981016040819052620000339162000144565b806001600160a01b03166306fdde036040518163ffffffff1660e01b81526004015f60405180830381865afa1580156200006f573d5f803e3d5ffd5b505050506040513d5f823e601f3d908101601f1916820160405262000098919081019062000187565b816001600160a01b03166395d89b416040518163ffffffff1660e01b81526004015f60405180830381865afa158015620000d4573d5f803e3d5ffd5b505050506040513d5f823e601f3d908101601f19168201604052620000fd919081019062000187565b60036200010b8382620002df565b5060046200011a8282620002df565b5050600580546001600160a01b0319166001600160a01b03939093169290921790915550620003ab565b5f6020828403121562000155575f80fd5b81516001600160a01b03811681146200016c575f80fd5b9392505050565b634e487b7160e01b5f52604160045260245ffd5b5f602080838503121562000199575f80fd5b82516001600160401b0380821115620001b0575f80fd5b818501915085601f830112620001c4575f80fd5b815181811115620001d957620001d962000173565b604051601f8201601f19908116603f0116810190838211818310171562000204576200020462000173565b8160405282815288868487010111156200021c575f80fd5b5f93505b828410156200023f578484018601518185018701529285019262000220565b5f86848301015280965050505050505092915050565b600181811c908216806200026a57607f821691505b6020821081036200028957634e487b7160e01b5f52602260045260245ffd5b50919050565b601f821115620002da57805f5260205f20601f840160051c81016020851015620002b65750805b601f840160051c820191505b81811015620002d7575f8155600101620002c2565b50505b505050565b81516001600160401b03811115620002fb57620002fb62000173565b62000313816200030c845462000255565b846200028f565b602080601f83116001811462000349575f8415620003315750858301515b5f19600386901b1c1916600185901b178555620003a3565b5f85815260208120601f198616915b82811015620003795788860151825594840194600190910190840162000358565b50858210156200039757878501515f19600388901b60f8161c191681555b505060018460011b0185555b505050505050565b6110d480620003b95f395ff3fe608060405234801561000f575f80fd5b50600436106100e5575f3560e01c806342966c6811610088578063a0712d6811610063578063a0712d68146101e1578063a457c2d7146101f4578063a9059cbb14610207578063dd62ed3e1461021a575f80fd5b806342966c681461019c57806370a08231146101b157806395d89b41146101d9575f80fd5b806318160ddd116100c357806318160ddd1461015557806323b872dd14610167578063313ce5671461017a5780633950935114610189575f80fd5b806306fdde03146100e9578063095ea7b3146101075780630b872d171461012a575b5f80fd5b6100f161022d565b6040516100fe9190610cc2565b60405180910390f35b61011a610115366004610d0f565b6102bd565b60405190151581526020016100fe565b60055461013d906001600160a01b031681565b6040516001600160a01b0390911681526020016100fe565b6002545b6040519081526020016100fe565b61011a610175366004610d37565b6102d6565b604051600281526020016100fe565b61011a610197366004610d0f565b6102f9565b6101af6101aa366004610d70565b61031a565b005b6101596101bf366004610d87565b6001600160a01b03165f9081526020819052604090205490565b6100f1610545565b6101af6101ef366004610d70565b610554565b61011a610202366004610d0f565b61066e565b61011a610215366004610d0f565b6106e8565b610159610228366004610da7565b6106f5565b60606003805461023c90610dd8565b80601f016020809104026020016040519081016040528092919081815260200182805461026890610dd8565b80156102b35780601f1061028a576101008083540402835291602001916102b3565b820191905f5260205f20905b81548152906001019060200180831161029657829003601f168201915b5050505050905090565b5f336102ca81858561071f565b60019150505b92915050565b5f336102e3858285610843565b6102ee8585856108b5565b506001949350505050565b5f336102ca81858561030b83836106f5565b6103159190610e24565b61071f565b5f6103276002600a610f17565b600554604051635a9d026960e11b81526020600482015260036024820152626c696d60e81b60448201526001600160a01b039091169063b53a04d2906064015f60405180830381865afa158015610380573d5f803e3d5ffd5b505050506040513d5f823e601f3d908101601f191682016040526103a79190810190610f36565b6103b090610fde565b6103bd919060c01c611015565b90506103c98183611040565b1580156103d65750808210155b61043a5760405162461bcd60e51b815260206004820152602a60248201527f4552433230496e73633a20616d6f756e74206d75737420626520646976697369604482015269626c65206279206c696d60b01b60648201526084015b60405180910390fd5b6104443383610a81565b5f61044f8284611053565b90505f5b8181101561053f57600554604051632f745c5960e01b81523060048201525f60248201819052916001600160a01b031690632f745c5990604401602060405180830381865afa1580156104a8573d5f803e3d5ffd5b505050506040513d601f19601f820116820180604052508101906104cc9190611066565b6005546040516323b872dd60e01b8152306004820152336024820152604481018390529192506001600160a01b0316906323b872dd906064015f604051808303815f87803b15801561051c575f80fd5b505af115801561052e573d5f803e3d5ffd5b505060019093019250610453915050565b50505050565b60606004805461023c90610dd8565b6005546040516323b872dd60e01b8152336004820152306024820152604481018390526001600160a01b03909116906323b872dd906064015f604051808303815f87803b1580156105a3575f80fd5b505af11580156105b5573d5f803e3d5ffd5b5050505061066b336105c5600290565b6105d090600a61107d565b600554604051635a9d026960e11b81526020600482015260036024820152626c696d60e81b60448201526001600160a01b039091169063b53a04d2906064015f60405180830381865afa158015610629573d5f803e3d5ffd5b505050506040513d5f823e601f3d908101601f191682016040526106509190810190610f36565b61065990610fde565b610666919060c01c611015565b610bc4565b50565b5f338161067b82866106f5565b9050838110156106db5760405162461bcd60e51b815260206004820152602560248201527f45524332303a2064656372656173656420616c6c6f77616e63652062656c6f77604482015264207a65726f60d81b6064820152608401610431565b6102ee828686840361071f565b5f336102ca8185856108b5565b6001600160a01b039182165f90815260016020908152604080832093909416825291909152205490565b6001600160a01b0383166107815760405162461bcd60e51b8152602060048201526024808201527f45524332303a20617070726f76652066726f6d20746865207a65726f206164646044820152637265737360e01b6064820152608401610431565b6001600160a01b0382166107e25760405162461bcd60e51b815260206004820152602260248201527f45524332303a20617070726f766520746f20746865207a65726f206164647265604482015261737360f01b6064820152608401610431565b6001600160a01b038381165f8181526001602090815260408083209487168084529482529182902085905590518481527f8c5be1e5ebec7d5bd14f71427d1e84f3dd0314c0f7b2291e5b200ac8c7c3b92591015b60405180910390a3505050565b5f61084e84846106f5565b90505f19811461053f57818110156108a85760405162461bcd60e51b815260206004820152601d60248201527f45524332303a20696e73756666696369656e7420616c6c6f77616e63650000006044820152606401610431565b61053f848484840361071f565b6001600160a01b0383166109195760405162461bcd60e51b815260206004820152602560248201527f45524332303a207472616e736665722066726f6d20746865207a65726f206164604482015264647265737360d81b6064820152608401610431565b6001600160a01b03821661097b5760405162461bcd60e51b815260206004820152602360248201527f45524332303a207472616e7366657220746f20746865207a65726f206164647260448201526265737360e81b6064820152608401610431565b6001600160a01b0383165f90815260208190526040902054818110156109f25760405162461bcd60e51b815260206004820152602660248201527f45524332303a207472616e7366657220616d6f756e7420657863656564732062604482015265616c616e636560d01b6064820152608401610431565b6001600160a01b038085165f90815260208190526040808220858503905591851681529081208054849290610a28908490610e24565b92505081905550826001600160a01b0316846001600160a01b03167fddf252ad1be2c89b69c2b068fc378daa952ba7f163c4a11628f55a4df523b3ef84604051610a7491815260200190565b60405180910390a361053f565b6001600160a01b038216610ae15760405162461bcd60e51b815260206004820152602160248201527f45524332303a206275726e2066726f6d20746865207a65726f206164647265736044820152607360f81b6064820152608401610431565b6001600160a01b0382165f9081526020819052604090205481811015610b545760405162461bcd60e51b815260206004820152602260248201527f45524332303a206275726e20616d6f756e7420657863656564732062616c616e604482015261636560f01b6064820152608401610431565b6001600160a01b0383165f908152602081905260408120838303905560028054849290610b8290849061108b565b90915550506040518281525f906001600160a01b038516907fddf252ad1be2c89b69c2b068fc378daa952ba7f163c4a11628f55a4df523b3ef90602001610836565b6001600160a01b038216610c1a5760405162461bcd60e51b815260206004820152601f60248201527f45524332303a206d696e7420746f20746865207a65726f2061646472657373006044820152606401610431565b8060025f828254610c2b9190610e24565b90915550506001600160a01b0382165f9081526020819052604081208054839290610c57908490610e24565b90915550506040518181526001600160a01b038316905f907fddf252ad1be2c89b69c2b068fc378daa952ba7f163c4a11628f55a4df523b3ef9060200160405180910390a35050565b5f5b83811015610cba578181015183820152602001610ca2565b50505f910152565b602081525f8251806020840152610ce0816040850160208701610ca0565b601f01601f19169190910160400192915050565b80356001600160a01b0381168114610d0a575f80fd5b919050565b5f8060408385031215610d20575f80fd5b610d2983610cf4565b946020939093013593505050565b5f805f60608486031215610d49575f80fd5b610d5284610cf4565b9250610d6060208501610cf4565b9150604084013590509250925092565b5f60208284031215610d80575f80fd5b5035919050565b5f60208284031215610d97575f80fd5b610da082610cf4565b9392505050565b5f8060408385031215610db8575f80fd5b610dc183610cf4565b9150610dcf60208401610cf4565b90509250929050565b600181811c90821680610dec57607f821691505b602082108103610e0a57634e487b7160e01b5f52602260045260245ffd5b50919050565b634e487b7160e01b5f52601160045260245ffd5b808201808211156102d0576102d0610e10565b600181815b80851115610e7157815f1904821115610e5757610e57610e10565b80851615610e6457918102915b93841c9390800290610e3c565b509250929050565b5f82610e87575060016102d0565b81610e9357505f6102d0565b8160018114610ea95760028114610eb357610ecf565b60019150506102d0565b60ff841115610ec457610ec4610e10565b50506001821b6102d0565b5060208310610133831016604e8410600b8410161715610ef2575081810a6102d0565b610efc8383610e37565b805f1904821115610f0f57610f0f610e10565b029392505050565b5f610da08383610e79565b634e487b7160e01b5f52604160045260245ffd5b5f60208284031215610f46575f80fd5b815167ffffffffffffffff80821115610f5d575f80fd5b818401915084601f830112610f70575f80fd5b815181811115610f8257610f82610f22565b604051601f8201601f19908116603f01168101908382118183101715610faa57610faa610f22565b81604052828152876020848701011115610fc2575f80fd5b610fd3836020830160208801610ca0565b979650505050505050565b805160208201516001600160c01b0319808216929190600883101561100d5780818460080360031b1b83161693505b505050919050565b80820281158282048414176102d0576102d0610e10565b634e487b7160e01b5f52601260045260245ffd5b5f8261104e5761104e61102c565b500690565b5f826110615761106161102c565b500490565b5f60208284031215611076575f80fd5b5051919050565b5f610da060ff841683610e79565b818103818111156102d0576102d0610e1056fea26469706673582212207d9092de125109347053d8661d069864b55781765a03ae2a42754a3fdae0421364736f6c63430008180033",
  "linkReferences": {},
  "deployedLinkReferences": {}
}