{
  "_format": "hh-sol-artifact-1",
  "contractName": "BundlerManager",
  "sourceName": "contracts/wallet/BundlerManager.sol",
  "abi": [
    {
      "inputs": [],
      "stateMutability": "nonpayable",
      "type": "constructor"
    },
    {
      "anonymous": false,
      "inputs": [
        {
          "indexed": false,
          "internalType": "uint8",
          "name": "i",
          "type": "uint8"
        }
      ],
      "name": "Error",
      "type": "event"
    },
    {
      "anonymous": false,
      "inputs": [
        {
          "indexed": false,
          "internalType": "address",
          "name": "oldOwner",
          "type": "address"
        },
        {
          "indexed": false,
          "internalType": "address",
          "name": "newOwner",
          "type": "address"
        }
      ],
      "name": "OwnerChanged",
      "type": "event"
    },
    {
      "inputs": [
        {
          "internalType": "bytes32",
          "name": "proposal",
          "type": "bytes32"
        }
      ],
      "name": "adoptProposal",
      "outputs": [],
      "stateMutability": "nonpayable",
      "type": "function"
    },
    {
      "inputs": [
        {
          "internalType": "bytes[]",
          "name": "dataArr",
          "type": "bytes[]"
        }
      ],
      "name": "bundle",
      "outputs": [
        {
          "internalType": "uint8",
          "name": "doneCount",
          "type": "uint8"
        }
      ],
      "stateMutability": "nonpayable",
      "type": "function"
    },
    {
      "inputs": [],
      "name": "bundler",
      "outputs": [
        {
          "internalType": "address",
          "name": "",
          "type": "address"
        }
      ],
      "stateMutability": "view",
      "type": "function"
    },
    {
      "inputs": [
        {
          "internalType": "address",
          "name": "newOwner",
          "type": "address"
        }
      ],
      "name": "changeOwner",
      "outputs": [],
      "stateMutability": "nonpayable",
      "type": "function"
    },
    {
      "inputs": [
        {
          "internalType": "address",
          "name": "_publicSocialRecovery",
          "type": "address"
        },
        {
          "internalType": "address[]",
          "name": "guardians",
          "type": "address[]"
        },
        {
          "internalType": "uint8",
          "name": "needGuardiansNum",
          "type": "uint8"
        }
      ],
      "name": "initSocialRecovery",
      "outputs": [],
      "stateMutability": "nonpayable",
      "type": "function"
    },
    {
      "inputs": [],
      "name": "owner",
      "outputs": [
        {
          "internalType": "address",
          "name": "",
          "type": "address"
        }
      ],
      "stateMutability": "view",
      "type": "function"
    },
    {
      "inputs": [],
      "name": "publicSocialRecovery",
      "outputs": [
        {
          "internalType": "address",
          "name": "",
          "type": "address"
        }
      ],
      "stateMutability": "view",
      "type": "function"
    }
  ],
  "bytecode": "0x60a060405234801561000f575f80fd5b505f80546001600160a01b0319163317905560405161002d90610058565b604051809103905ff080158015610046573d5f803e3d5ffd5b506001600160a01b0316608052610065565b61144b8061081883390190565b6080516107946100845f395f8181610125015261018a01526107945ff3fe608060405234801561000f575f80fd5b506004361061007a575f3560e01c80633c69640f116100585780633c69640f146100e85780638da5cb5b146100fb578063a6f9dae11461010d578063ad0ffd8b14610120575f80fd5b8063138398971461007e5780631427c292146100ae57806325460f86146100d3575b5f80fd5b600154610091906001600160a01b031681565b6040516001600160a01b0390911681526020015b60405180910390f35b6100c16100bc36600461053d565b610147565b60405160ff90911681526020016100a5565b6100e66100e136600461057c565b610293565b005b6100e66100f63660046105ae565b61035e565b5f54610091906001600160a01b031681565b6100e661011b366004610615565b610460565b6100917f000000000000000000000000000000000000000000000000000000000000000081565b5f80546001600160a01b0316331461017a5760405162461bcd60e51b815260040161017190610635565b60405180910390fd5b5f5b60ff811683111561028c575f7f00000000000000000000000000000000000000000000000000000000000000006001600160a01b03165f86868560ff168181106101c8576101c8610677565b90506020028101906101da919061068b565b6040516101e89291906106ce565b5f6040518083038185875af1925050503d805f8114610222576040519150601f19603f3d011682016040523d82523d5f602084013e610227565b606091505b505090508061026b5760405160ff831681527ff0ba958cc7ac886093917f79596c8c582249d6b1c730fcb84c76a76d0f636e4e9060200160405180910390a1610279565b82610275816106dd565b9350505b5080610284816106dd565b91505061017c565b5092915050565b6001546001600160a01b031633146102fe5760405162461bcd60e51b815260206004820152602860248201527f6f6e6c794f726967696e616c3a2063616c6c6572206973206e6f7420746865206044820152671bdc9a59da5b985b60c21b6064820152608401610171565b60a081901c600403610316576103138161048e565b50565b60405162461bcd60e51b815260206004820152601a60248201527f61646f707450726f706f73616c3a20756e737570706f727465640000000000006044820152606401610171565b5f546001600160a01b031633146103875760405162461bcd60e51b815260040161017190610635565b6001546001600160a01b0316156103ea5760405162461bcd60e51b815260206004820152602160248201527f696e6974536f6369616c5265636f766572793a20616c726561647920657869736044820152601d60fa1b6064820152608401610171565b600180546001600160a01b0319166001600160a01b038616908117909155604051631336ebff60e11b815263266dd7fe9061042d90869086908690600401610707565b5f604051808303815f87803b158015610444575f80fd5b505af1158015610456573d5f803e3d5ffd5b5050505050505050565b5f546001600160a01b031633146104895760405162461bcd60e51b815260040161017190610635565b610313815b5f54604080516001600160a01b03928316815291831660208301527fb532073b38c83145e3e5135377a08bf9aab55bc0fd7c1179cd4fb995d2a5159c910160405180910390a15f80546001600160a01b0319166001600160a01b0392909216919091179055565b5f8083601f840112610505575f80fd5b50813567ffffffffffffffff81111561051c575f80fd5b6020830191508360208260051b8501011115610536575f80fd5b9250929050565b5f806020838503121561054e575f80fd5b823567ffffffffffffffff811115610564575f80fd5b610570858286016104f5565b90969095509350505050565b5f6020828403121561058c575f80fd5b5035919050565b80356001600160a01b03811681146105a9575f80fd5b919050565b5f805f80606085870312156105c1575f80fd5b6105ca85610593565b9350602085013567ffffffffffffffff8111156105e5575f80fd5b6105f1878288016104f5565b909450925050604085013560ff8116811461060a575f80fd5b939692955090935050565b5f60208284031215610625575f80fd5b61062e82610593565b9392505050565b60208082526022908201527f6f6e6c794f776e65723a2063616c6c6572206973206e6f7420746865206f776e60408201526132b960f11b606082015260800190565b634e487b7160e01b5f52603260045260245ffd5b5f808335601e198436030181126106a0575f80fd5b83018035915067ffffffffffffffff8211156106ba575f80fd5b602001915036819003821315610536575f80fd5b818382375f9101908152919050565b5f60ff821660ff81036106fe57634e487b7160e01b5f52601160045260245ffd5b60010192915050565b604080825281018390525f8460608301825b86811015610747576001600160a01b0361073284610593565b16825260209283019290910190600101610719565b50809250505060ff8316602083015294935050505056fea2646970667358221220c07083f0a6c36374ae5cc8faaf1f5993afc6465dbac33ab806b967fc2e78d4f764736f6c6343000818003360c060405234801561000f575f80fd5b503360a0523060805260805160a0516113e161006a5f395f8181610121015281816103530152818161038f015281816107590152818161079501528181610918015261095401525f8181610258015261087001526113e15ff3fe608060405260043610610087575f3560e01c8063a7ca92c111610057578063a7ca92c114610110578063e41e10031461015f578063e4703a9d1461017e578063e9cbafb01461019d578063f31cc894146101bc575f80fd5b806319417f5a14610092578063376d1c75146100b357806356e7b7aa146100d2578063797de9c2146100f1575f80fd5b3661008e57005b5f80fd5b34801561009d575f80fd5b506100b16100ac366004610df9565b6101db565b005b3480156100be575f80fd5b506100b16100cd366004610e51565b61021f565b3480156100dd575f80fd5b506100b16100ec366004610e90565b610256565b3480156100fc575f80fd5b506100b161010b366004610e51565b610351565b34801561011b575f80fd5b506101437f000000000000000000000000000000000000000000000000000000000000000081565b6040516001600160a01b03909116815260200160405180910390f35b34801561016a575f80fd5b506100b1610179366004610ee1565b610434565b348015610189575f80fd5b506100b1610198366004610f88565b610757565b3480156101a8575f80fd5b506100b16101b7366004610fed565b6108e3565b3480156101c7575f80fd5b506100b16101d6366004610e90565b610916565b5f546001600160a01b0316331461020d5760405162461bcd60e51b815260040161020490611024565b60405180910390fd5b61021984848484610a34565b50505050565b5f546001600160a01b031633146102485760405162461bcd60e51b815260040161020490611024565b6102528282610aaa565b5050565b7f00000000000000000000000000000000000000000000000000000000000000006001600160a01b031633146102df5760405162461bcd60e51b815260206004820152602860248201527f6f6e6c794f726967696e616c3a2063616c6c6572206973206e6f7420746865206044820152671bdc9a59da5b985b60c21b6064820152608401610204565b5f80846001600160a01b031684846040516102fb929190611069565b5f60405180830381855af49150503d805f8114610333576040519150601f19603f3d011682016040523d82523d5f602084013e610338565b606091505b50915091508161034a57805160208201fd5b5050505050565b7f00000000000000000000000000000000000000000000000000000000000000006001600160a01b03163314806104185750336001600160a01b03167f00000000000000000000000000000000000000000000000000000000000000006001600160a01b0316638da5cb5b6040518163ffffffff1660e01b8152600401602060405180830381865afa1580156103e9573d5f803e3d5ffd5b505050506040513d601f19601f8201168201806040525081019061040d9190611078565b6001600160a01b0316145b6102485760405162461bcd60e51b815260040161020490611093565b5f5a60408051602081019091525f808252919250905b60ff811684111561059c575f858560ff841681811061046b5761046b6110fa565b9050602002016020810190610480919061110e565b6001600160a01b0316036104c957816104a2896001600160a01b031631610ba1565b6040516020016104b392919061114b565b604051602081830303815290604052915061058a565b8161056786868460ff168181106104e2576104e26110fa565b90506020020160208101906104f7919061110e565b6040516370a0823160e01b81526001600160a01b038c8116600483015291909116906370a08231906024015b602060405180830381865afa15801561053e573d5f803e3d5ffd5b505050506040513d601f19601f820116820180604052508101906105629190611179565b610ba1565b60405160200161057892919061114b565b60405160208183030381529060405291505b80610594816111a4565b91505061044a565b5f5a5f80546001600160a01b0319166001600160a01b038c1690811782559192506105c991908a8a610a34565b5f80546001600160a01b03191681555a6105e390836111c2565b60408051602081019091525f80825294509091505b60ff841687111561070a575f888860ff8716818110610619576106196110fa565b905060200201602081019061062e919061110e565b6001600160a01b03160361067757806106508c6001600160a01b031631610ba1565b60405160200161066192919061114b565b60405160208183030381529060405290506106f8565b806106d589898760ff16818110610690576106906110fa565b90506020020160208101906106a5919061110e565b6040516370a0823160e01b81526001600160a01b038f8116600483015291909116906370a0823190602401610523565b6040516020016106e692919061114b565b60405160208183030381529060405290505b83610702816111a4565b9450506105f8565b848161071588610ba1565b61071e85610ba1565b60405160200161073194939291906111d5565b60408051601f198184030181529082905262461bcd60e51b82526102049160040161124a565b7f00000000000000000000000000000000000000000000000000000000000000006001600160a01b031633148061081e5750336001600160a01b03167f00000000000000000000000000000000000000000000000000000000000000006001600160a01b0316638da5cb5b6040518163ffffffff1660e01b8152600401602060405180830381865afa1580156107ef573d5f803e3d5ffd5b505050506040513d601f19601f820116820180604052508101906108139190611078565b6001600160a01b0316145b61083a5760405162461bcd60e51b815260040161020490611093565b5f80546001600160a01b0319166001600160a01b0387169081179091556040516312439b2f60e21b815263490e6cbc906108a0907f000000000000000000000000000000000000000000000000000000000000000090889088908890889060040161127c565b5f604051808303815f87803b1580156108b7575f80fd5b505af11580156108c9573d5f803e3d5ffd5b50505f80546001600160a01b031916905550505050505050565b5f546001600160a01b0316331461090c5760405162461bcd60e51b815260040161020490611024565b6102198282610aaa565b7f00000000000000000000000000000000000000000000000000000000000000006001600160a01b03163314806109dd5750336001600160a01b03167f00000000000000000000000000000000000000000000000000000000000000006001600160a01b0316638da5cb5b6040518163ffffffff1660e01b8152600401602060405180830381865afa1580156109ae573d5f803e3d5ffd5b505050506040513d601f19601f820116820180604052508101906109d29190611078565b6001600160a01b0316145b6109f95760405162461bcd60e51b815260040161020490611093565b5f80546001600160a01b0319166001600160a01b0385169081178255610a20918484610a34565b50505f80546001600160a01b031916905550565b5f80856001600160a01b0316858585604051610a51929190611069565b5f6040518083038185875af1925050503d805f8114610a8b576040519150601f19603f3d011682016040523d82523d5f602084013e610a90565b606091505b509150915081610aa257805160208201fd5b505050505050565b5f5b81811015610b9c575f838284610ac38260146112c7565b92610ad0939291906112da565b610ad991611301565b60601c90505f8484610aec8560146112c7565b90610af88660346112c7565b92610b05939291906112da565b610b0e91611336565b90505f8585610b1e8660346112c7565b90610b2a8760546112c7565b92610b37939291906112da565b610b4091611336565b9050610b7d83838888610b548960546112c7565b9086610b618b60546112c7565b610b6b91906112c7565b92610b78939291906112da565b610a34565b610b888160546112c7565b610b9290856112c7565b9350505050610aac565b505050565b6060815f03610bca5750506040805180820190915260048152630307830360e41b602082015290565b815f5b8115610bec5780610bdd81611353565b915050600882901c9150610bcd565b610bf68482610bfe565b949350505050565b60605f610c0c83600261136b565b610c179060026112c7565b67ffffffffffffffff811115610c2f57610c2f611382565b6040519080825280601f01601f191660200182016040528015610c59576020820181803683370190505b509050600360fc1b815f81518110610c7357610c736110fa565b60200101906001600160f81b03191690815f1a905350600f60fb1b81600181518110610ca157610ca16110fa565b60200101906001600160f81b03191690815f1a9053505f610cc384600261136b565b610cce9060016112c7565b90505b6001811115610d45576f181899199a1a9b1b9c1cb0b131b232b360811b85600f1660108110610d0257610d026110fa565b1a60f81b828281518110610d1857610d186110fa565b60200101906001600160f81b03191690815f1a90535060049490941c93610d3e81611396565b9050610cd1565b508315610d945760405162461bcd60e51b815260206004820181905260248201527f537472696e67733a20686578206c656e67746820696e73756666696369656e746044820152606401610204565b90505b92915050565b6001600160a01b0381168114610db1575f80fd5b50565b5f8083601f840112610dc4575f80fd5b50813567ffffffffffffffff811115610ddb575f80fd5b602083019150836020828501011115610df2575f80fd5b9250929050565b5f805f8060608587031215610e0c575f80fd5b8435610e1781610d9d565b935060208501359250604085013567ffffffffffffffff811115610e39575f80fd5b610e4587828801610db4565b95989497509550505050565b5f8060208385031215610e62575f80fd5b823567ffffffffffffffff811115610e78575f80fd5b610e8485828601610db4565b90969095509350505050565b5f805f60408486031215610ea2575f80fd5b8335610ead81610d9d565b9250602084013567ffffffffffffffff811115610ec8575f80fd5b610ed486828701610db4565b9497909650939450505050565b5f805f805f60608688031215610ef5575f80fd5b8535610f0081610d9d565b9450602086013567ffffffffffffffff80821115610f1c575f80fd5b610f2889838a01610db4565b90965094506040880135915080821115610f40575f80fd5b818801915088601f830112610f53575f80fd5b813581811115610f61575f80fd5b8960208260051b8501011115610f75575f80fd5b9699959850939650602001949392505050565b5f805f805f60808688031215610f9c575f80fd5b8535610fa781610d9d565b94506020860135935060408601359250606086013567ffffffffffffffff811115610fd0575f80fd5b610fdc88828901610db4565b969995985093965092949392505050565b5f805f8060608587031215611000575f80fd5b8435935060208501359250604085013567ffffffffffffffff811115610e39575f80fd5b60208082526025908201527f6f6e6c7943616c6c546f3a2063616c6c6572206973206e6f7420746865205f63604082015264616c6c546f60d81b606082015260800190565b818382375f9101908152919050565b5f60208284031215611088575f80fd5b8151610d9481610d9d565b60208082526041908201527f6f6e6c7942756e646c65724d616e616765723a2063616c6c6572206973206e6f60408201527f74207468652042756e646c65724d616e61676572206f7220697473206f776e656060820152603960f91b608082015260a00190565b634e487b7160e01b5f52603260045260245ffd5b5f6020828403121561111e575f80fd5b8135610d9481610d9d565b5f5b8381101561114357818101518382015260200161112b565b50505f910152565b5f835161115c818460208801611129565b835190830190611170818360208801611129565b01949350505050565b5f60208284031215611189575f80fd5b5051919050565b634e487b7160e01b5f52601160045260245ffd5b5f60ff821660ff81036111b9576111b9611190565b60010192915050565b81810381811115610d9757610d97611190565b695468654368616e67657360b01b81525f85516111f981600a850160208a01611129565b85519083019061121081600a840160208a01611129565b855191019061122681600a840160208901611129565b845191019061123c81600a840160208801611129565b01600a019695505050505050565b602081525f8251806020840152611268816040850160208701611129565b601f01601f19169190910160400192915050565b60018060a01b038616815284602082015283604082015260806060820152816080820152818360a08301375f81830160a090810191909152601f909201601f19160101949350505050565b80820180821115610d9757610d97611190565b5f80858511156112e8575f80fd5b838611156112f4575f80fd5b5050820193919092039150565b6bffffffffffffffffffffffff19813581811691601485101561132e5780818660140360031b1b83161692505b505092915050565b80356020831015610d97575f19602084900360031b1b1692915050565b5f6001820161136457611364611190565b5060010190565b8082028115828204841417610d9757610d97611190565b634e487b7160e01b5f52604160045260245ffd5b5f816113a4576113a4611190565b505f19019056fea26469706673582212206fa4acf477091da455ccac8f871bb80ae8dd0c3d2fbdda314e80a8e5b30abf8d64736f6c63430008180033",
  "linkReferences": {},
  "deployedLinkReferences": {}
}