{"contracts/wallet/BundlerManager.sol":{"BundlerManager":{"abi":[{"inputs":[],"stateMutability":"nonpayable","type":"constructor"},{"anonymous":false,"inputs":[{"indexed":false,"internalType":"uint8","name":"i","type":"uint8"}],"name":"Error","type":"event"},{"anonymous":false,"inputs":[{"indexed":false,"internalType":"address","name":"oldOwner","type":"address"},{"indexed":false,"internalType":"address","name":"newOwner","type":"address"}],"name":"OwnerChanged","type":"event"},{"inputs":[{"internalType":"bytes32","name":"proposal","type":"bytes32"}],"name":"adoptProposal","outputs":[],"stateMutability":"nonpayable","type":"function"},{"inputs":[{"internalType":"bytes[]","name":"dataArr","type":"bytes[]"}],"name":"bundle","outputs":[{"internalType":"uint8","name":"doneCount","type":"uint8"}],"stateMutability":"nonpayable","type":"function"},{"inputs":[],"name":"bundler","outputs":[{"internalType":"address","name":"","type":"address"}],"stateMutability":"view","type":"function"},{"inputs":[{"internalType":"address","name":"newOwner","type":"address"}],"name":"changeOwner","outputs":[],"stateMutability":"nonpayable","type":"function"},{"inputs":[{"internalType":"address","name":"_publicSocialRecovery","type":"address"},{"internalType":"address[]","name":"guardians","type":"address[]"},{"internalType":"uint8","name":"needGuardiansNum","type":"uint8"}],"name":"initSocialRecovery","outputs":[],"stateMutability":"nonpayable","type":"function"},{"inputs":[],"name":"owner","outputs":[{"internalType":"address","name":"","type":"address"}],"stateMutability":"view","type":"function"},{"inputs":[],"name":"publicSocialRecovery","outputs":[{"internalType":"address","name":"","type":"address"}],"stateMutability":"view","type":"function"}],"evm":{"bytecode":{"linkReferences":{},"object":"60a060405234801561001057600080fd5b50600080546001600160a01b0319163317905560405161002f9061005d565b604051809103906000f08015801561004b573d6000803e3d6000fd5b506001600160a01b031660805261006a565b6114ca8061085183390190565b6080516107c561008c6000396000818161012a015261019201526107c56000f3fe608060405234801561001057600080fd5b506004361061007d5760003560e01c80633c69640f1161005b5780633c69640f146100ec5780638da5cb5b146100ff578063a6f9dae114610112578063ad0ffd8b1461012557600080fd5b806313839897146100825780631427c292146100b257806325460f86146100d7575b600080fd5b600154610095906001600160a01b031681565b6040516001600160a01b0390911681526020015b60405180910390f35b6100c56100c0366004610556565b61014c565b60405160ff90911681526020016100a9565b6100ea6100e5366004610598565b61029f565b005b6100ea6100fa3660046105cd565b61036a565b600054610095906001600160a01b031681565b6100ea610120366004610639565b610472565b6100957f000000000000000000000000000000000000000000000000000000000000000081565b600080546001600160a01b031633146101805760405162461bcd60e51b81526004016101779061065b565b60405180910390fd5b60005b60ff81168311156102985760007f00000000000000000000000000000000000000000000000000000000000000006001600160a01b0316600086868560ff168181106101d1576101d161069d565b90506020028101906101e391906106b3565b6040516101f19291906106fa565b60006040518083038185875af1925050503d806000811461022e576040519150601f19603f3d011682016040523d82523d6000602084013e610233565b606091505b50509050806102775760405160ff831681527ff0ba958cc7ac886093917f79596c8c582249d6b1c730fcb84c76a76d0f636e4e9060200160405180910390a1610285565b826102818161070a565b9350505b50806102908161070a565b915050610183565b5092915050565b6001546001600160a01b0316331461030a5760405162461bcd60e51b815260206004820152602860248201527f6f6e6c794f726967696e616c3a2063616c6c6572206973206e6f7420746865206044820152671bdc9a59da5b985b60c21b6064820152608401610177565b60a081901c6004036103225761031f816104a1565b50565b60405162461bcd60e51b815260206004820152601a60248201527f61646f707450726f706f73616c3a20756e737570706f727465640000000000006044820152606401610177565b6000546001600160a01b031633146103945760405162461bcd60e51b81526004016101779061065b565b6001546001600160a01b0316156103f75760405162461bcd60e51b815260206004820152602160248201527f696e6974536f6369616c5265636f766572793a20616c726561647920657869736044820152601d60fa1b6064820152608401610177565b600180546001600160a01b0319166001600160a01b038616908117909155604051631336ebff60e11b815263266dd7fe9061043a90869086908690600401610737565b600060405180830381600087803b15801561045457600080fd5b505af1158015610468573d6000803e3d6000fd5b5050505050505050565b6000546001600160a01b0316331461049c5760405162461bcd60e51b81526004016101779061065b565b61031f815b600054604080516001600160a01b03928316815291831660208301527fb532073b38c83145e3e5135377a08bf9aab55bc0fd7c1179cd4fb995d2a5159c910160405180910390a1600080546001600160a01b0319166001600160a01b0392909216919091179055565b60008083601f84011261051c57600080fd5b50813567ffffffffffffffff81111561053457600080fd5b6020830191508360208260051b850101111561054f57600080fd5b9250929050565b6000806020838503121561056957600080fd5b823567ffffffffffffffff81111561058057600080fd5b61058c8582860161050a565b90969095509350505050565b6000602082840312156105aa57600080fd5b5035919050565b80356001600160a01b03811681146105c857600080fd5b919050565b600080600080606085870312156105e357600080fd5b6105ec856105b1565b9350602085013567ffffffffffffffff81111561060857600080fd5b6106148782880161050a565b909450925050604085013560ff8116811461062e57600080fd5b939692955090935050565b60006020828403121561064b57600080fd5b610654826105b1565b9392505050565b60208082526022908201527f6f6e6c794f776e65723a2063616c6c6572206973206e6f7420746865206f776e60408201526132b960f11b606082015260800190565b634e487b7160e01b600052603260045260246000fd5b6000808335601e198436030181126106ca57600080fd5b83018035915067ffffffffffffffff8211156106e557600080fd5b60200191503681900382131561054f57600080fd5b8183823760009101908152919050565b600060ff821660ff810361072e57634e487b7160e01b600052601160045260246000fd5b60010192915050565b6040808252810183905260008460608301825b86811015610778576001600160a01b03610763846105b1565b1682526020928301929091019060010161074a565b50809250505060ff8316602083015294935050505056fea26469706673582212204fabdf8d50562291f9290af384c1047d5aca58c590dcefe2c51a636b6c0e6fc664736f6c6343000812003360c060405234801561001057600080fd5b503360a0523060805260805160a05161145b61006f6000396000818161012a01528181610366015281816103a201528181610778015281816107b401528181610941015261097d0152600081816102670152610892015261145b6000f3fe60806040526004361061008a5760003560e01c8063a7ca92c111610059578063a7ca92c114610118578063e41e100314610168578063e4703a9d14610188578063e9cbafb0146101a8578063f31cc894146101c857600080fd5b806319417f5a14610096578063376d1c75146100b857806356e7b7aa146100d8578063797de9c2146100f857600080fd5b3661009157005b600080fd5b3480156100a257600080fd5b506100b66100b1366004610e3b565b6101e8565b005b3480156100c457600080fd5b506100b66100d3366004610e97565b61022d565b3480156100e457600080fd5b506100b66100f3366004610ed9565b610265565b34801561010457600080fd5b506100b6610113366004610e97565b610364565b34801561012457600080fd5b5061014c7f000000000000000000000000000000000000000000000000000000000000000081565b6040516001600160a01b03909116815260200160405180910390f35b34801561017457600080fd5b506100b6610183366004610f2e565b610449565b34801561019457600080fd5b506100b66101a3366004610fde565b610776565b3480156101b457600080fd5b506100b66101c3366004611048565b61090b565b3480156101d457600080fd5b506100b66101e3366004610ed9565b61093f565b6000546001600160a01b0316331461021b5760405162461bcd60e51b815260040161021290611083565b60405180910390fd5b61022784848484610a61565b50505050565b6000546001600160a01b031633146102575760405162461bcd60e51b815260040161021290611083565b6102618282610adb565b5050565b7f00000000000000000000000000000000000000000000000000000000000000006001600160a01b031633146102ee5760405162461bcd60e51b815260206004820152602860248201527f6f6e6c794f726967696e616c3a2063616c6c6572206973206e6f7420746865206044820152671bdc9a59da5b985b60c21b6064820152608401610212565b600080846001600160a01b0316848460405161030b9291906110c8565b600060405180830381855af49150503d8060008114610346576040519150601f19603f3d011682016040523d82523d6000602084013e61034b565b606091505b50915091508161035d57805160208201fd5b5050505050565b7f00000000000000000000000000000000000000000000000000000000000000006001600160a01b031633148061042d5750336001600160a01b03167f00000000000000000000000000000000000000000000000000000000000000006001600160a01b0316638da5cb5b6040518163ffffffff1660e01b8152600401602060405180830381865afa1580156103fe573d6000803e3d6000fd5b505050506040513d601f19601f8201168201806040525081019061042291906110d8565b6001600160a01b0316145b6102575760405162461bcd60e51b8152600401610212906110f5565b60005a60408051602081019091526000808252919250905b60ff81168411156105b6576000858560ff84168181106104835761048361115c565b90506020020160208101906104989190611172565b6001600160a01b0316036104e157816104ba896001600160a01b031631610bd6565b6040516020016104cb9291906111b3565b60405160208183030381529060405291506105a4565b8161058186868460ff168181106104fa576104fa61115c565b905060200201602081019061050f9190611172565b6040516370a0823160e01b81526001600160a01b038c8116600483015291909116906370a08231906024015b602060405180830381865afa158015610558573d6000803e3d6000fd5b505050506040513d601f19601f8201168201806040525081019061057c91906111e2565b610bd6565b6040516020016105929291906111b3565b60405160208183030381529060405291505b806105ae81611211565b915050610461565b60005a600080546001600160a01b0319166001600160a01b038c1690811782559192506105e591908a8a610a61565b600080546001600160a01b03191681555a6106009083611230565b6040805160208101909152600080825294509091505b60ff8416871115610729576000888860ff87168181106106385761063861115c565b905060200201602081019061064d9190611172565b6001600160a01b031603610696578061066f8c6001600160a01b031631610bd6565b6040516020016106809291906111b3565b6040516020818303038152906040529050610717565b806106f489898760ff168181106106af576106af61115c565b90506020020160208101906106c49190611172565b6040516370a0823160e01b81526001600160a01b038f8116600483015291909116906370a082319060240161053b565b6040516020016107059291906111b3565b60405160208183030381529060405290505b8361072181611211565b945050610616565b848161073488610bd6565b61073d85610bd6565b6040516020016107509493929190611243565b60408051601f198184030181529082905262461bcd60e51b8252610212916004016112b9565b7f00000000000000000000000000000000000000000000000000000000000000006001600160a01b031633148061083f5750336001600160a01b03167f00000000000000000000000000000000000000000000000000000000000000006001600160a01b0316638da5cb5b6040518163ffffffff1660e01b8152600401602060405180830381865afa158015610810573d6000803e3d6000fd5b505050506040513d601f19601f8201168201806040525081019061083491906110d8565b6001600160a01b0316145b61085b5760405162461bcd60e51b8152600401610212906110f5565b600080546001600160a01b0319166001600160a01b0387169081179091556040516312439b2f60e21b815263490e6cbc906108c2907f00000000000000000000000000000000000000000000000000000000000000009088908890889088906004016112ec565b600060405180830381600087803b1580156108dc57600080fd5b505af11580156108f0573d6000803e3d6000fd5b5050600080546001600160a01b031916905550505050505050565b6000546001600160a01b031633146109355760405162461bcd60e51b815260040161021290611083565b6102278282610adb565b7f00000000000000000000000000000000000000000000000000000000000000006001600160a01b0316331480610a085750336001600160a01b03167f00000000000000000000000000000000000000000000000000000000000000006001600160a01b0316638da5cb5b6040518163ffffffff1660e01b8152600401602060405180830381865afa1580156109d9573d6000803e3d6000fd5b505050506040513d601f19601f820116820180604052508101906109fd91906110d8565b6001600160a01b0316145b610a245760405162461bcd60e51b8152600401610212906110f5565b600080546001600160a01b0319166001600160a01b0385169081178255610a4c918484610a61565b5050600080546001600160a01b031916905550565b600080856001600160a01b0316858585604051610a7f9291906110c8565b60006040518083038185875af1925050503d8060008114610abc576040519150601f19603f3d011682016040523d82523d6000602084013e610ac1565b606091505b509150915081610ad357805160208201fd5b505050505050565b60005b81811015610bd1576000838284610af6826014611338565b92610b039392919061134b565b610b0c91611375565b60601c905060008484610b20856014611338565b90610b2c866034611338565b92610b399392919061134b565b610b42916113aa565b905060008585610b53866034611338565b90610b5f876054611338565b92610b6c9392919061134b565b610b75916113aa565b9050610bb283838888610b89896054611338565b9086610b968b6054611338565b610ba09190611338565b92610bad9392919061134b565b610a61565b610bbd816054611338565b610bc79085611338565b9350505050610ade565b505050565b606081600003610c005750506040805180820190915260048152630307830360e41b602082015290565b8160005b8115610c235780610c14816113c8565b915050600882901c9150610c04565b610c2d8482610c35565b949350505050565b60606000610c448360026113e1565b610c4f906002611338565b67ffffffffffffffff811115610c6757610c676113f8565b6040519080825280601f01601f191660200182016040528015610c91576020820181803683370190505b509050600360fc1b81600081518110610cac57610cac61115c565b60200101906001600160f81b031916908160001a905350600f60fb1b81600181518110610cdb57610cdb61115c565b60200101906001600160f81b031916908160001a9053506000610cff8460026113e1565b610d0a906001611338565b90505b6001811115610d82576f181899199a1a9b1b9c1cb0b131b232b360811b85600f1660108110610d3e57610d3e61115c565b1a60f81b828281518110610d5457610d5461115c565b60200101906001600160f81b031916908160001a90535060049490941c93610d7b8161140e565b9050610d0d565b508315610dd15760405162461bcd60e51b815260206004820181905260248201527f537472696e67733a20686578206c656e67746820696e73756666696369656e746044820152606401610212565b90505b92915050565b6001600160a01b0381168114610def57600080fd5b50565b60008083601f840112610e0457600080fd5b50813567ffffffffffffffff811115610e1c57600080fd5b602083019150836020828501011115610e3457600080fd5b9250929050565b60008060008060608587031215610e5157600080fd5b8435610e5c81610dda565b935060208501359250604085013567ffffffffffffffff811115610e7f57600080fd5b610e8b87828801610df2565b95989497509550505050565b60008060208385031215610eaa57600080fd5b823567ffffffffffffffff811115610ec157600080fd5b610ecd85828601610df2565b90969095509350505050565b600080600060408486031215610eee57600080fd5b8335610ef981610dda565b9250602084013567ffffffffffffffff811115610f1557600080fd5b610f2186828701610df2565b9497909650939450505050565b600080600080600060608688031215610f4657600080fd5b8535610f5181610dda565b9450602086013567ffffffffffffffff80821115610f6e57600080fd5b610f7a89838a01610df2565b90965094506040880135915080821115610f9357600080fd5b818801915088601f830112610fa757600080fd5b813581811115610fb657600080fd5b8960208260051b8501011115610fcb57600080fd5b9699959850939650602001949392505050565b600080600080600060808688031215610ff657600080fd5b853561100181610dda565b94506020860135935060408601359250606086013567ffffffffffffffff81111561102b57600080fd5b61103788828901610df2565b969995985093965092949392505050565b6000806000806060858703121561105e57600080fd5b8435935060208501359250604085013567ffffffffffffffff811115610e7f57600080fd5b60208082526025908201527f6f6e6c7943616c6c546f3a2063616c6c6572206973206e6f7420746865205f63604082015264616c6c546f60d81b606082015260800190565b8183823760009101908152919050565b6000602082840312156110ea57600080fd5b8151610dd181610dda565b60208082526041908201527f6f6e6c7942756e646c65724d616e616765723a2063616c6c6572206973206e6f60408201527f74207468652042756e646c65724d616e61676572206f7220697473206f776e656060820152603960f91b608082015260a00190565b634e487b7160e01b600052603260045260246000fd5b60006020828403121561118457600080fd5b8135610dd181610dda565b60005b838110156111aa578181015183820152602001611192565b50506000910152565b600083516111c581846020880161118f565b8351908301906111d981836020880161118f565b01949350505050565b6000602082840312156111f457600080fd5b5051919050565b634e487b7160e01b600052601160045260246000fd5b600060ff821660ff8103611227576112276111fb565b60010192915050565b81810381811115610dd457610dd46111fb565b695468654368616e67657360b01b81526000855161126881600a850160208a0161118f565b85519083019061127f81600a840160208a0161118f565b855191019061129581600a84016020890161118f565b84519101906112ab81600a84016020880161118f565b01600a019695505050505050565b60208152600082518060208401526112d881604085016020870161118f565b601f01601f19169190910160400192915050565b60018060a01b038616815284602082015283604082015260806060820152816080820152818360a0830137600081830160a090810191909152601f909201601f19160101949350505050565b80820180821115610dd457610dd46111fb565b6000808585111561135b57600080fd5b8386111561136857600080fd5b5050820193919092039150565b6bffffffffffffffffffffffff1981358181169160148510156113a25780818660140360031b1b83161692505b505092915050565b80356020831015610dd457600019602084900360031b1b1692915050565b6000600182016113da576113da6111fb565b5060010190565b8082028115828204841417610dd457610dd46111fb565b634e487b7160e01b600052604160045260246000fd5b60008161141d5761141d6111fb565b50600019019056fea264697066735822122089de6bfb0bc19ed166af7ccf2ff12f27237be0f8b1da3653443ac75a63857bf464736f6c63430008120033","opcodes":"PUSH1 0xA0 PUSH1 0x40 MSTORE CALLVALUE DUP1 ISZERO PUSH2 0x10 JUMPI PUSH1 0x0 DUP1 REVERT JUMPDEST POP PUSH1 0x0 DUP1 SLOAD PUSH1 0x1 PUSH1 0x1 PUSH1 0xA0 SHL SUB NOT AND CALLER OR SWAP1 SSTORE PUSH1 0x40 MLOAD PUSH2 0x2F SWAP1 PUSH2 0x5D JUMP JUMPDEST PUSH1 0x40 MLOAD DUP1 SWAP2 SUB SWAP1 PUSH1 0x0 CREATE DUP1 ISZERO DUP1 ISZERO PUSH2 0x4B JUMPI RETURNDATASIZE PUSH1 0x0 DUP1 RETURNDATACOPY RETURNDATASIZE PUSH1 0x0 REVERT JUMPDEST POP PUSH1 0x1 PUSH1 0x1 PUSH1 0xA0 SHL SUB AND PUSH1 0x80 MSTORE PUSH2 0x6A JUMP JUMPDEST PUSH2 0x14CA DUP1 PUSH2 0x851 DUP4 CODECOPY ADD SWAP1 JUMP JUMPDEST PUSH1 0x80 MLOAD PUSH2 0x7C5 PUSH2 0x8C PUSH1 0x0 CODECOPY PUSH1 0x0 DUP2 DUP2 PUSH2 0x12A ADD MSTORE PUSH2 0x192 ADD MSTORE PUSH2 0x7C5 PUSH1 0x0 RETURN INVALID PUSH1 0x80 PUSH1 0x40 MSTORE CALLVALUE DUP1 ISZERO PUSH2 0x10 JUMPI PUSH1 0x0 DUP1 REVERT JUMPDEST POP PUSH1 0x4 CALLDATASIZE LT PUSH2 0x7D JUMPI PUSH1 0x0 CALLDATALOAD PUSH1 0xE0 SHR DUP1 PUSH4 0x3C69640F GT PUSH2 0x5B JUMPI DUP1 PUSH4 0x3C69640F EQ PUSH2 0xEC JUMPI DUP1 PUSH4 0x8DA5CB5B EQ PUSH2 0xFF JUMPI DUP1 PUSH4 0xA6F9DAE1 EQ PUSH2 0x112 JUMPI DUP1 PUSH4 0xAD0FFD8B EQ PUSH2 0x125 JUMPI PUSH1 0x0 DUP1 REVERT JUMPDEST DUP1 PUSH4 0x13839897 EQ PUSH2 0x82 JUMPI DUP1 PUSH4 0x1427C292 EQ PUSH2 0xB2 JUMPI DUP1 PUSH4 0x25460F86 EQ PUSH2 0xD7 JUMPI JUMPDEST PUSH1 0x0 DUP1 REVERT JUMPDEST PUSH1 0x1 SLOAD PUSH2 0x95 SWAP1 PUSH1 0x1 PUSH1 0x1 PUSH1 0xA0 SHL SUB AND DUP2 JUMP JUMPDEST PUSH1 0x40 MLOAD PUSH1 0x1 PUSH1 0x1 PUSH1 0xA0 SHL SUB SWAP1 SWAP2 AND DUP2 MSTORE PUSH1 0x20 ADD JUMPDEST PUSH1 0x40 MLOAD DUP1 SWAP2 SUB SWAP1 RETURN JUMPDEST PUSH2 0xC5 PUSH2 0xC0 CALLDATASIZE PUSH1 0x4 PUSH2 0x556 JUMP JUMPDEST PUSH2 0x14C JUMP JUMPDEST PUSH1 0x40 MLOAD PUSH1 0xFF SWAP1 SWAP2 AND DUP2 MSTORE PUSH1 0x20 ADD PUSH2 0xA9 JUMP JUMPDEST PUSH2 0xEA PUSH2 0xE5 CALLDATASIZE PUSH1 0x4 PUSH2 0x598 JUMP JUMPDEST PUSH2 0x29F JUMP JUMPDEST STOP JUMPDEST PUSH2 0xEA PUSH2 0xFA CALLDATASIZE PUSH1 0x4 PUSH2 0x5CD JUMP JUMPDEST PUSH2 0x36A JUMP JUMPDEST PUSH1 0x0 SLOAD PUSH2 0x95 SWAP1 PUSH1 0x1 PUSH1 0x1 PUSH1 0xA0 SHL SUB AND DUP2 JUMP JUMPDEST PUSH2 0xEA PUSH2 0x120 CALLDATASIZE PUSH1 0x4 PUSH2 0x639 JUMP JUMPDEST PUSH2 0x472 JUMP JUMPDEST PUSH2 0x95 PUSH32 0x0 DUP2 JUMP JUMPDEST PUSH1 0x0 DUP1 SLOAD PUSH1 0x1 PUSH1 0x1 PUSH1 0xA0 SHL SUB AND CALLER EQ PUSH2 0x180 JUMPI PUSH1 0x40 MLOAD PUSH3 0x461BCD PUSH1 0xE5 SHL DUP2 MSTORE PUSH1 0x4 ADD PUSH2 0x177 SWAP1 PUSH2 0x65B JUMP JUMPDEST PUSH1 0x40 MLOAD DUP1 SWAP2 SUB SWAP1 REVERT JUMPDEST PUSH1 0x0 JUMPDEST PUSH1 0xFF DUP2 AND DUP4 GT ISZERO PUSH2 0x298 JUMPI PUSH1 0x0 PUSH32 0x0 PUSH1 0x1 PUSH1 0x1 PUSH1 0xA0 SHL SUB AND PUSH1 0x0 DUP7 DUP7 DUP6 PUSH1 0xFF AND DUP2 DUP2 LT PUSH2 0x1D1 JUMPI PUSH2 0x1D1 PUSH2 0x69D JUMP JUMPDEST SWAP1 POP PUSH1 0x20 MUL DUP2 ADD SWAP1 PUSH2 0x1E3 SWAP2 SWAP1 PUSH2 0x6B3 JUMP JUMPDEST PUSH1 0x40 MLOAD PUSH2 0x1F1 SWAP3 SWAP2 SWAP1 PUSH2 0x6FA JUMP JUMPDEST PUSH1 0x0 PUSH1 0x40 MLOAD DUP1 DUP4 SUB DUP2 DUP6 DUP8 GAS CALL SWAP3 POP POP POP RETURNDATASIZE DUP1 PUSH1 0x0 DUP2 EQ PUSH2 0x22E JUMPI PUSH1 0x40 MLOAD SWAP2 POP PUSH1 0x1F NOT PUSH1 0x3F RETURNDATASIZE ADD AND DUP3 ADD PUSH1 0x40 MSTORE RETURNDATASIZE DUP3 MSTORE RETURNDATASIZE PUSH1 0x0 PUSH1 0x20 DUP5 ADD RETURNDATACOPY PUSH2 0x233 JUMP JUMPDEST PUSH1 0x60 SWAP2 POP JUMPDEST POP POP SWAP1 POP DUP1 PUSH2 0x277 JUMPI PUSH1 0x40 MLOAD PUSH1 0xFF DUP4 AND DUP2 MSTORE PUSH32 0xF0BA958CC7AC886093917F79596C8C582249D6B1C730FCB84C76A76D0F636E4E SWAP1 PUSH1 0x20 ADD PUSH1 0x40 MLOAD DUP1 SWAP2 SUB SWAP1 LOG1 PUSH2 0x285 JUMP JUMPDEST DUP3 PUSH2 0x281 DUP2 PUSH2 0x70A JUMP JUMPDEST SWAP4 POP POP JUMPDEST POP DUP1 PUSH2 0x290 DUP2 PUSH2 0x70A JUMP JUMPDEST SWAP2 POP POP PUSH2 0x183 JUMP JUMPDEST POP SWAP3 SWAP2 POP POP JUMP JUMPDEST PUSH1 0x1 SLOAD PUSH1 0x1 PUSH1 0x1 PUSH1 0xA0 SHL SUB AND CALLER EQ PUSH2 0x30A JUMPI PUSH1 0x40 MLOAD PUSH3 0x461BCD PUSH1 0xE5 SHL DUP2 MSTORE PUSH1 0x20 PUSH1 0x4 DUP3 ADD MSTORE PUSH1 0x28 PUSH1 0x24 DUP3 ADD MSTORE PUSH32 0x6F6E6C794F726967696E616C3A2063616C6C6572206973206E6F742074686520 PUSH1 0x44 DUP3 ADD MSTORE PUSH8 0x1BDC9A59DA5B985B PUSH1 0xC2 SHL PUSH1 0x64 DUP3 ADD MSTORE PUSH1 0x84 ADD PUSH2 0x177 JUMP JUMPDEST PUSH1 0xA0 DUP2 SWAP1 SHR PUSH1 0x4 SUB PUSH2 0x322 JUMPI PUSH2 0x31F DUP2 PUSH2 0x4A1 JUMP JUMPDEST POP JUMP JUMPDEST PUSH1 0x40 MLOAD PUSH3 0x461BCD PUSH1 0xE5 SHL DUP2 MSTORE PUSH1 0x20 PUSH1 0x4 DUP3 ADD MSTORE PUSH1 0x1A PUSH1 0x24 DUP3 ADD MSTORE PUSH32 0x61646F707450726F706F73616C3A20756E737570706F72746564000000000000 PUSH1 0x44 DUP3 ADD MSTORE PUSH1 0x64 ADD PUSH2 0x177 JUMP JUMPDEST PUSH1 0x0 SLOAD PUSH1 0x1 PUSH1 0x1 PUSH1 0xA0 SHL SUB AND CALLER EQ PUSH2 0x394 JUMPI PUSH1 0x40 MLOAD PUSH3 0x461BCD PUSH1 0xE5 SHL DUP2 MSTORE PUSH1 0x4 ADD PUSH2 0x177 SWAP1 PUSH2 0x65B JUMP JUMPDEST PUSH1 0x1 SLOAD PUSH1 0x1 PUSH1 0x1 PUSH1 0xA0 SHL SUB AND ISZERO PUSH2 0x3F7 JUMPI PUSH1 0x40 MLOAD PUSH3 0x461BCD PUSH1 0xE5 SHL DUP2 MSTORE PUSH1 0x20 PUSH1 0x4 DUP3 ADD MSTORE PUSH1 0x21 PUSH1 0x24 DUP3 ADD MSTORE PUSH32 0x696E6974536F6369616C5265636F766572793A20616C72656164792065786973 PUSH1 0x44 DUP3 ADD MSTORE PUSH1 0x1D PUSH1 0xFA SHL PUSH1 0x64 DUP3 ADD MSTORE PUSH1 0x84 ADD PUSH2 0x177 JUMP JUMPDEST PUSH1 0x1 DUP1 SLOAD PUSH1 0x1 PUSH1 0x1 PUSH1 0xA0 SHL SUB NOT AND PUSH1 0x1 PUSH1 0x1 PUSH1 0xA0 SHL SUB DUP7 AND SWAP1 DUP2 OR SWAP1 SWAP2 SSTORE PUSH1 0x40 MLOAD PUSH4 0x1336EBFF PUSH1 0xE1 SHL DUP2 MSTORE PUSH4 0x266DD7FE SWAP1 PUSH2 0x43A SWAP1 DUP7 SWAP1 DUP7 SWAP1 DUP7 SWAP1 PUSH1 0x4 ADD PUSH2 0x737 JUMP JUMPDEST PUSH1 0x0 PUSH1 0x40 MLOAD DUP1 DUP4 SUB DUP2 PUSH1 0x0 DUP8 DUP1 EXTCODESIZE ISZERO DUP1 ISZERO PUSH2 0x454 JUMPI PUSH1 0x0 DUP1 REVERT JUMPDEST POP GAS CALL ISZERO DUP1 ISZERO PUSH2 0x468 JUMPI RETURNDATASIZE PUSH1 0x0 DUP1 RETURNDATACOPY RETURNDATASIZE PUSH1 0x0 REVERT JUMPDEST POP POP POP POP POP POP POP POP JUMP JUMPDEST PUSH1 0x0 SLOAD PUSH1 0x1 PUSH1 0x1 PUSH1 0xA0 SHL SUB AND CALLER EQ PUSH2 0x49C JUMPI PUSH1 0x40 MLOAD PUSH3 0x461BCD PUSH1 0xE5 SHL DUP2 MSTORE PUSH1 0x4 ADD PUSH2 0x177 SWAP1 PUSH2 0x65B JUMP JUMPDEST PUSH2 0x31F DUP2 JUMPDEST PUSH1 0x0 SLOAD PUSH1 0x40 DUP1 MLOAD PUSH1 0x1 PUSH1 0x1 PUSH1 0xA0 SHL SUB SWAP3 DUP4 AND DUP2 MSTORE SWAP2 DUP4 AND PUSH1 0x20 DUP4 ADD MSTORE PUSH32 0xB532073B38C83145E3E5135377A08BF9AAB55BC0FD7C1179CD4FB995D2A5159C SWAP2 ADD PUSH1 0x40 MLOAD DUP1 SWAP2 SUB SWAP1 LOG1 PUSH1 0x0 DUP1 SLOAD PUSH1 0x1 PUSH1 0x1 PUSH1 0xA0 SHL SUB NOT AND PUSH1 0x1 PUSH1 0x1 PUSH1 0xA0 SHL SUB SWAP3 SWAP1 SWAP3 AND SWAP2 SWAP1 SWAP2 OR SWAP1 SSTORE JUMP JUMPDEST PUSH1 0x0 DUP1 DUP4 PUSH1 0x1F DUP5 ADD SLT PUSH2 0x51C JUMPI PUSH1 0x0 DUP1 REVERT JUMPDEST POP DUP2 CALLDATALOAD PUSH8 0xFFFFFFFFFFFFFFFF DUP2 GT ISZERO PUSH2 0x534 JUMPI PUSH1 0x0 DUP1 REVERT JUMPDEST PUSH1 0x20 DUP4 ADD SWAP2 POP DUP4 PUSH1 0x20 DUP3 PUSH1 0x5 SHL DUP6 ADD ADD GT ISZERO PUSH2 0x54F JUMPI PUSH1 0x0 DUP1 REVERT JUMPDEST SWAP3 POP SWAP3 SWAP1 POP JUMP JUMPDEST PUSH1 0x0 DUP1 PUSH1 0x20 DUP4 DUP6 SUB SLT ISZERO PUSH2 0x569 JUMPI PUSH1 0x0 DUP1 REVERT JUMPDEST DUP3 CALLDATALOAD PUSH8 0xFFFFFFFFFFFFFFFF DUP2 GT ISZERO PUSH2 0x580 JUMPI PUSH1 0x0 DUP1 REVERT JUMPDEST PUSH2 0x58C DUP6 DUP3 DUP7 ADD PUSH2 0x50A JUMP JUMPDEST SWAP1 SWAP7 SWAP1 SWAP6 POP SWAP4 POP POP POP POP JUMP JUMPDEST PUSH1 0x0 PUSH1 0x20 DUP3 DUP5 SUB SLT ISZERO PUSH2 0x5AA JUMPI PUSH1 0x0 DUP1 REVERT JUMPDEST POP CALLDATALOAD SWAP2 SWAP1 POP JUMP JUMPDEST DUP1 CALLDATALOAD PUSH1 0x1 PUSH1 0x1 PUSH1 0xA0 SHL SUB DUP2 AND DUP2 EQ PUSH2 0x5C8 JUMPI PUSH1 0x0 DUP1 REVERT JUMPDEST SWAP2 SWAP1 POP JUMP JUMPDEST PUSH1 0x0 DUP1 PUSH1 0x0 DUP1 PUSH1 0x60 DUP6 DUP8 SUB SLT ISZERO PUSH2 0x5E3 JUMPI PUSH1 0x0 DUP1 REVERT JUMPDEST PUSH2 0x5EC DUP6 PUSH2 0x5B1 JUMP JUMPDEST SWAP4 POP PUSH1 0x20 DUP6 ADD CALLDATALOAD PUSH8 0xFFFFFFFFFFFFFFFF DUP2 GT ISZERO PUSH2 0x608 JUMPI PUSH1 0x0 DUP1 REVERT JUMPDEST PUSH2 0x614 DUP8 DUP3 DUP9 ADD PUSH2 0x50A JUMP JUMPDEST SWAP1 SWAP5 POP SWAP3 POP POP PUSH1 0x40 DUP6 ADD CALLDATALOAD PUSH1 0xFF DUP2 AND DUP2 EQ PUSH2 0x62E JUMPI PUSH1 0x0 DUP1 REVERT JUMPDEST SWAP4 SWAP7 SWAP3 SWAP6 POP SWAP1 SWAP4 POP POP JUMP JUMPDEST PUSH1 0x0 PUSH1 0x20 DUP3 DUP5 SUB SLT ISZERO PUSH2 0x64B JUMPI PUSH1 0x0 DUP1 REVERT JUMPDEST PUSH2 0x654 DUP3 PUSH2 0x5B1 JUMP JUMPDEST SWAP4 SWAP3 POP POP POP JUMP JUMPDEST PUSH1 0x20 DUP1 DUP3 MSTORE PUSH1 0x22 SWAP1 DUP3 ADD MSTORE PUSH32 0x6F6E6C794F776E65723A2063616C6C6572206973206E6F7420746865206F776E PUSH1 0x40 DUP3 ADD MSTORE PUSH2 0x32B9 PUSH1 0xF1 SHL PUSH1 0x60 DUP3 ADD MSTORE PUSH1 0x80 ADD SWAP1 JUMP JUMPDEST PUSH4 0x4E487B71 PUSH1 0xE0 SHL PUSH1 0x0 MSTORE PUSH1 0x32 PUSH1 0x4 MSTORE PUSH1 0x24 PUSH1 0x0 REVERT JUMPDEST PUSH1 0x0 DUP1 DUP4 CALLDATALOAD PUSH1 0x1E NOT DUP5 CALLDATASIZE SUB ADD DUP2 SLT PUSH2 0x6CA JUMPI PUSH1 0x0 DUP1 REVERT JUMPDEST DUP4 ADD DUP1 CALLDATALOAD SWAP2 POP PUSH8 0xFFFFFFFFFFFFFFFF DUP3 GT ISZERO PUSH2 0x6E5 JUMPI PUSH1 0x0 DUP1 REVERT JUMPDEST PUSH1 0x20 ADD SWAP2 POP CALLDATASIZE DUP2 SWAP1 SUB DUP3 SGT ISZERO PUSH2 0x54F JUMPI PUSH1 0x0 DUP1 REVERT JUMPDEST DUP2 DUP4 DUP3 CALLDATACOPY PUSH1 0x0 SWAP2 ADD SWAP1 DUP2 MSTORE SWAP2 SWAP1 POP JUMP JUMPDEST PUSH1 0x0 PUSH1 0xFF DUP3 AND PUSH1 0xFF DUP2 SUB PUSH2 0x72E JUMPI PUSH4 0x4E487B71 PUSH1 0xE0 SHL PUSH1 0x0 MSTORE PUSH1 0x11 PUSH1 0x4 MSTORE PUSH1 0x24 PUSH1 0x0 REVERT JUMPDEST PUSH1 0x1 ADD SWAP3 SWAP2 POP POP JUMP JUMPDEST PUSH1 0x40 DUP1 DUP3 MSTORE DUP2 ADD DUP4 SWAP1 MSTORE PUSH1 0x0 DUP5 PUSH1 0x60 DUP4 ADD DUP3 JUMPDEST DUP7 DUP2 LT ISZERO PUSH2 0x778 JUMPI PUSH1 0x1 PUSH1 0x1 PUSH1 0xA0 SHL SUB PUSH2 0x763 DUP5 PUSH2 0x5B1 JUMP JUMPDEST AND DUP3 MSTORE PUSH1 0x20 SWAP3 DUP4 ADD SWAP3 SWAP1 SWAP2 ADD SWAP1 PUSH1 0x1 ADD PUSH2 0x74A JUMP JUMPDEST POP DUP1 SWAP3 POP POP POP PUSH1 0xFF DUP4 AND PUSH1 0x20 DUP4 ADD MSTORE SWAP5 SWAP4 POP POP POP POP JUMP INVALID LOG2 PUSH5 0x6970667358 0x22 SLT KECCAK256 0x4F 0xAB 0xDF DUP14 POP JUMP 0x22 SWAP2 0xF9 0x29 EXP RETURN DUP5 0xC1 DIV PUSH30 0x5ACA58C590DCEFE2C51A636B6C0E6FC664736F6C6343000812003360C060 BLOCKHASH MSTORE CALLVALUE DUP1 ISZERO PUSH2 0x10 JUMPI PUSH1 0x0 DUP1 REVERT JUMPDEST POP CALLER PUSH1 0xA0 MSTORE ADDRESS PUSH1 0x80 MSTORE PUSH1 0x80 MLOAD PUSH1 0xA0 MLOAD PUSH2 0x145B PUSH2 0x6F PUSH1 0x0 CODECOPY PUSH1 0x0 DUP2 DUP2 PUSH2 0x12A ADD MSTORE DUP2 DUP2 PUSH2 0x366 ADD MSTORE DUP2 DUP2 PUSH2 0x3A2 ADD MSTORE DUP2 DUP2 PUSH2 0x778 ADD MSTORE DUP2 DUP2 PUSH2 0x7B4 ADD MSTORE DUP2 DUP2 PUSH2 0x941 ADD MSTORE PUSH2 0x97D ADD MSTORE PUSH1 0x0 DUP2 DUP2 PUSH2 0x267 ADD MSTORE PUSH2 0x892 ADD MSTORE PUSH2 0x145B PUSH1 0x0 RETURN INVALID PUSH1 0x80 PUSH1 0x40 MSTORE PUSH1 0x4 CALLDATASIZE LT PUSH2 0x8A JUMPI PUSH1 0x0 CALLDATALOAD PUSH1 0xE0 SHR DUP1 PUSH4 0xA7CA92C1 GT PUSH2 0x59 JUMPI DUP1 PUSH4 0xA7CA92C1 EQ PUSH2 0x118 JUMPI DUP1 PUSH4 0xE41E1003 EQ PUSH2 0x168 JUMPI DUP1 PUSH4 0xE4703A9D EQ PUSH2 0x188 JUMPI DUP1 PUSH4 0xE9CBAFB0 EQ PUSH2 0x1A8 JUMPI DUP1 PUSH4 0xF31CC894 EQ PUSH2 0x1C8 JUMPI PUSH1 0x0 DUP1 REVERT JUMPDEST DUP1 PUSH4 0x19417F5A EQ PUSH2 0x96 JUMPI DUP1 PUSH4 0x376D1C75 EQ PUSH2 0xB8 JUMPI DUP1 PUSH4 0x56E7B7AA EQ PUSH2 0xD8 JUMPI DUP1 PUSH4 0x797DE9C2 EQ PUSH2 0xF8 JUMPI PUSH1 0x0 DUP1 REVERT JUMPDEST CALLDATASIZE PUSH2 0x91 JUMPI STOP JUMPDEST PUSH1 0x0 DUP1 REVERT JUMPDEST CALLVALUE DUP1 ISZERO PUSH2 0xA2 JUMPI PUSH1 0x0 DUP1 REVERT JUMPDEST POP PUSH2 0xB6 PUSH2 0xB1 CALLDATASIZE PUSH1 0x4 PUSH2 0xE3B JUMP JUMPDEST PUSH2 0x1E8 JUMP JUMPDEST STOP JUMPDEST CALLVALUE DUP1 ISZERO PUSH2 0xC4 JUMPI PUSH1 0x0 DUP1 REVERT JUMPDEST POP PUSH2 0xB6 PUSH2 0xD3 CALLDATASIZE PUSH1 0x4 PUSH2 0xE97 JUMP JUMPDEST PUSH2 0x22D JUMP JUMPDEST CALLVALUE DUP1 ISZERO PUSH2 0xE4 JUMPI PUSH1 0x0 DUP1 REVERT JUMPDEST POP PUSH2 0xB6 PUSH2 0xF3 CALLDATASIZE PUSH1 0x4 PUSH2 0xED9 JUMP JUMPDEST PUSH2 0x265 JUMP JUMPDEST CALLVALUE DUP1 ISZERO PUSH2 0x104 JUMPI PUSH1 0x0 DUP1 REVERT JUMPDEST POP PUSH2 0xB6 PUSH2 0x113 CALLDATASIZE PUSH1 0x4 PUSH2 0xE97 JUMP JUMPDEST PUSH2 0x364 JUMP JUMPDEST CALLVALUE DUP1 ISZERO PUSH2 0x124 JUMPI PUSH1 0x0 DUP1 REVERT JUMPDEST POP PUSH2 0x14C PUSH32 0x0 DUP2 JUMP JUMPDEST PUSH1 0x40 MLOAD PUSH1 0x1 PUSH1 0x1 PUSH1 0xA0 SHL SUB SWAP1 SWAP2 AND DUP2 MSTORE PUSH1 0x20 ADD PUSH1 0x40 MLOAD DUP1 SWAP2 SUB SWAP1 RETURN JUMPDEST CALLVALUE DUP1 ISZERO PUSH2 0x174 JUMPI PUSH1 0x0 DUP1 REVERT JUMPDEST POP PUSH2 0xB6 PUSH2 0x183 CALLDATASIZE PUSH1 0x4 PUSH2 0xF2E JUMP JUMPDEST PUSH2 0x449 JUMP JUMPDEST CALLVALUE DUP1 ISZERO PUSH2 0x194 JUMPI PUSH1 0x0 DUP1 REVERT JUMPDEST POP PUSH2 0xB6 PUSH2 0x1A3 CALLDATASIZE PUSH1 0x4 PUSH2 0xFDE JUMP JUMPDEST PUSH2 0x776 JUMP JUMPDEST CALLVALUE DUP1 ISZERO PUSH2 0x1B4 JUMPI PUSH1 0x0 DUP1 REVERT JUMPDEST POP PUSH2 0xB6 PUSH2 0x1C3 CALLDATASIZE PUSH1 0x4 PUSH2 0x1048 JUMP JUMPDEST PUSH2 0x90B JUMP JUMPDEST CALLVALUE DUP1 ISZERO PUSH2 0x1D4 JUMPI PUSH1 0x0 DUP1 REVERT JUMPDEST POP PUSH2 0xB6 PUSH2 0x1E3 CALLDATASIZE PUSH1 0x4 PUSH2 0xED9 JUMP JUMPDEST PUSH2 0x93F JUMP JUMPDEST PUSH1 0x0 SLOAD PUSH1 0x1 PUSH1 0x1 PUSH1 0xA0 SHL SUB AND CALLER EQ PUSH2 0x21B JUMPI PUSH1 0x40 MLOAD PUSH3 0x461BCD PUSH1 0xE5 SHL DUP2 MSTORE PUSH1 0x4 ADD PUSH2 0x212 SWAP1 PUSH2 0x1083 JUMP JUMPDEST PUSH1 0x40 MLOAD DUP1 SWAP2 SUB SWAP1 REVERT JUMPDEST PUSH2 0x227 DUP5 DUP5 DUP5 DUP5 PUSH2 0xA61 JUMP JUMPDEST POP POP POP POP JUMP JUMPDEST PUSH1 0x0 SLOAD PUSH1 0x1 PUSH1 0x1 PUSH1 0xA0 SHL SUB AND CALLER EQ PUSH2 0x257 JUMPI PUSH1 0x40 MLOAD PUSH3 0x461BCD PUSH1 0xE5 SHL DUP2 MSTORE PUSH1 0x4 ADD PUSH2 0x212 SWAP1 PUSH2 0x1083 JUMP JUMPDEST PUSH2 0x261 DUP3 DUP3 PUSH2 0xADB JUMP JUMPDEST POP POP JUMP JUMPDEST PUSH32 0x0 PUSH1 0x1 PUSH1 0x1 PUSH1 0xA0 SHL SUB AND CALLER EQ PUSH2 0x2EE JUMPI PUSH1 0x40 MLOAD PUSH3 0x461BCD PUSH1 0xE5 SHL DUP2 MSTORE PUSH1 0x20 PUSH1 0x4 DUP3 ADD MSTORE PUSH1 0x28 PUSH1 0x24 DUP3 ADD MSTORE PUSH32 0x6F6E6C794F726967696E616C3A2063616C6C6572206973206E6F742074686520 PUSH1 0x44 DUP3 ADD MSTORE PUSH8 0x1BDC9A59DA5B985B PUSH1 0xC2 SHL PUSH1 0x64 DUP3 ADD MSTORE PUSH1 0x84 ADD PUSH2 0x212 JUMP JUMPDEST PUSH1 0x0 DUP1 DUP5 PUSH1 0x1 PUSH1 0x1 PUSH1 0xA0 SHL SUB AND DUP5 DUP5 PUSH1 0x40 MLOAD PUSH2 0x30B SWAP3 SWAP2 SWAP1 PUSH2 0x10C8 JUMP JUMPDEST PUSH1 0x0 PUSH1 0x40 MLOAD DUP1 DUP4 SUB DUP2 DUP6 GAS DELEGATECALL SWAP2 POP POP RETURNDATASIZE DUP1 PUSH1 0x0 DUP2 EQ PUSH2 0x346 JUMPI PUSH1 0x40 MLOAD SWAP2 POP PUSH1 0x1F NOT PUSH1 0x3F RETURNDATASIZE ADD AND DUP3 ADD PUSH1 0x40 MSTORE RETURNDATASIZE DUP3 MSTORE RETURNDATASIZE PUSH1 0x0 PUSH1 0x20 DUP5 ADD RETURNDATACOPY PUSH2 0x34B JUMP JUMPDEST PUSH1 0x60 SWAP2 POP JUMPDEST POP SWAP2 POP SWAP2 POP DUP2 PUSH2 0x35D JUMPI DUP1 MLOAD PUSH1 0x20 DUP3 ADD REVERT JUMPDEST POP POP POP POP POP JUMP JUMPDEST PUSH32 0x0 PUSH1 0x1 PUSH1 0x1 PUSH1 0xA0 SHL SUB AND CALLER EQ DUP1 PUSH2 0x42D JUMPI POP CALLER PUSH1 0x1 PUSH1 0x1 PUSH1 0xA0 SHL SUB AND PUSH32 0x0 PUSH1 0x1 PUSH1 0x1 PUSH1 0xA0 SHL SUB AND PUSH4 0x8DA5CB5B PUSH1 0x40 MLOAD DUP2 PUSH4 0xFFFFFFFF AND PUSH1 0xE0 SHL DUP2 MSTORE PUSH1 0x4 ADD PUSH1 0x20 PUSH1 0x40 MLOAD DUP1 DUP4 SUB DUP2 DUP7 GAS STATICCALL ISZERO DUP1 ISZERO PUSH2 0x3FE JUMPI RETURNDATASIZE PUSH1 0x0 DUP1 RETURNDATACOPY RETURNDATASIZE PUSH1 0x0 REVERT JUMPDEST POP POP POP POP PUSH1 0x40 MLOAD RETURNDATASIZE PUSH1 0x1F NOT PUSH1 0x1F DUP3 ADD AND DUP3 ADD DUP1 PUSH1 0x40 MSTORE POP DUP2 ADD SWAP1 PUSH2 0x422 SWAP2 SWAP1 PUSH2 0x10D8 JUMP JUMPDEST PUSH1 0x1 PUSH1 0x1 PUSH1 0xA0 SHL SUB AND EQ JUMPDEST PUSH2 0x257 JUMPI PUSH1 0x40 MLOAD PUSH3 0x461BCD PUSH1 0xE5 SHL DUP2 MSTORE PUSH1 0x4 ADD PUSH2 0x212 SWAP1 PUSH2 0x10F5 JUMP JUMPDEST PUSH1 0x0 GAS PUSH1 0x40 DUP1 MLOAD PUSH1 0x20 DUP2 ADD SWAP1 SWAP2 MSTORE PUSH1 0x0 DUP1 DUP3 MSTORE SWAP2 SWAP3 POP SWAP1 JUMPDEST PUSH1 0xFF DUP2 AND DUP5 GT ISZERO PUSH2 0x5B6 JUMPI PUSH1 0x0 DUP6 DUP6 PUSH1 0xFF DUP5 AND DUP2 DUP2 LT PUSH2 0x483 JUMPI PUSH2 0x483 PUSH2 0x115C JUMP JUMPDEST SWAP1 POP PUSH1 0x20 MUL ADD PUSH1 0x20 DUP2 ADD SWAP1 PUSH2 0x498 SWAP2 SWAP1 PUSH2 0x1172 JUMP JUMPDEST PUSH1 0x1 PUSH1 0x1 PUSH1 0xA0 SHL SUB AND SUB PUSH2 0x4E1 JUMPI DUP2 PUSH2 0x4BA DUP10 PUSH1 0x1 PUSH1 0x1 PUSH1 0xA0 SHL SUB AND BALANCE PUSH2 0xBD6 JUMP JUMPDEST PUSH1 0x40 MLOAD PUSH1 0x20 ADD PUSH2 0x4CB SWAP3 SWAP2 SWAP1 PUSH2 0x11B3 JUMP JUMPDEST PUSH1 0x40 MLOAD PUSH1 0x20 DUP2 DUP4 SUB SUB DUP2 MSTORE SWAP1 PUSH1 0x40 MSTORE SWAP2 POP PUSH2 0x5A4 JUMP JUMPDEST DUP2 PUSH2 0x581 DUP7 DUP7 DUP5 PUSH1 0xFF AND DUP2 DUP2 LT PUSH2 0x4FA JUMPI PUSH2 0x4FA PUSH2 0x115C JUMP JUMPDEST SWAP1 POP PUSH1 0x20 MUL ADD PUSH1 0x20 DUP2 ADD SWAP1 PUSH2 0x50F SWAP2 SWAP1 PUSH2 0x1172 JUMP JUMPDEST PUSH1 0x40 MLOAD PUSH4 0x70A08231 PUSH1 0xE0 SHL DUP2 MSTORE PUSH1 0x1 PUSH1 0x1 PUSH1 0xA0 SHL SUB DUP13 DUP2 AND PUSH1 0x4 DUP4 ADD MSTORE SWAP2 SWAP1 SWAP2 AND SWAP1 PUSH4 0x70A08231 SWAP1 PUSH1 0x24 ADD JUMPDEST PUSH1 0x20 PUSH1 0x40 MLOAD DUP1 DUP4 SUB DUP2 DUP7 GAS STATICCALL ISZERO DUP1 ISZERO PUSH2 0x558 JUMPI RETURNDATASIZE PUSH1 0x0 DUP1 RETURNDATACOPY RETURNDATASIZE PUSH1 0x0 REVERT JUMPDEST POP POP POP POP PUSH1 0x40 MLOAD RETURNDATASIZE PUSH1 0x1F NOT PUSH1 0x1F DUP3 ADD AND DUP3 ADD DUP1 PUSH1 0x40 MSTORE POP DUP2 ADD SWAP1 PUSH2 0x57C SWAP2 SWAP1 PUSH2 0x11E2 JUMP JUMPDEST PUSH2 0xBD6 JUMP JUMPDEST PUSH1 0x40 MLOAD PUSH1 0x20 ADD PUSH2 0x592 SWAP3 SWAP2 SWAP1 PUSH2 0x11B3 JUMP JUMPDEST PUSH1 0x40 MLOAD PUSH1 0x20 DUP2 DUP4 SUB SUB DUP2 MSTORE SWAP1 PUSH1 0x40 MSTORE SWAP2 POP JUMPDEST DUP1 PUSH2 0x5AE DUP2 PUSH2 0x1211 JUMP JUMPDEST SWAP2 POP POP PUSH2 0x461 JUMP JUMPDEST PUSH1 0x0 GAS PUSH1 0x0 DUP1 SLOAD PUSH1 0x1 PUSH1 0x1 PUSH1 0xA0 SHL SUB NOT AND PUSH1 0x1 PUSH1 0x1 PUSH1 0xA0 SHL SUB DUP13 AND SWAP1 DUP2 OR DUP3 SSTORE SWAP2 SWAP3 POP PUSH2 0x5E5 SWAP2 SWAP1 DUP11 DUP11 PUSH2 0xA61 JUMP JUMPDEST PUSH1 0x0 DUP1 SLOAD PUSH1 0x1 PUSH1 0x1 PUSH1 0xA0 SHL SUB NOT AND DUP2 SSTORE GAS PUSH2 0x600 SWAP1 DUP4 PUSH2 0x1230 JUMP JUMPDEST PUSH1 0x40 DUP1 MLOAD PUSH1 0x20 DUP2 ADD SWAP1 SWAP2 MSTORE PUSH1 0x0 DUP1 DUP3 MSTORE SWAP5 POP SWAP1 SWAP2 POP JUMPDEST PUSH1 0xFF DUP5 AND DUP8 GT ISZERO PUSH2 0x729 JUMPI PUSH1 0x0 DUP9 DUP9 PUSH1 0xFF DUP8 AND DUP2 DUP2 LT PUSH2 0x638 JUMPI PUSH2 0x638 PUSH2 0x115C JUMP JUMPDEST SWAP1 POP PUSH1 0x20 MUL ADD PUSH1 0x20 DUP2 ADD SWAP1 PUSH2 0x64D SWAP2 SWAP1 PUSH2 0x1172 JUMP JUMPDEST PUSH1 0x1 PUSH1 0x1 PUSH1 0xA0 SHL SUB AND SUB PUSH2 0x696 JUMPI DUP1 PUSH2 0x66F DUP13 PUSH1 0x1 PUSH1 0x1 PUSH1 0xA0 SHL SUB AND BALANCE PUSH2 0xBD6 JUMP JUMPDEST PUSH1 0x40 MLOAD PUSH1 0x20 ADD PUSH2 0x680 SWAP3 SWAP2 SWAP1 PUSH2 0x11B3 JUMP JUMPDEST PUSH1 0x40 MLOAD PUSH1 0x20 DUP2 DUP4 SUB SUB DUP2 MSTORE SWAP1 PUSH1 0x40 MSTORE SWAP1 POP PUSH2 0x717 JUMP JUMPDEST DUP1 PUSH2 0x6F4 DUP10 DUP10 DUP8 PUSH1 0xFF AND DUP2 DUP2 LT PUSH2 0x6AF JUMPI PUSH2 0x6AF PUSH2 0x115C JUMP JUMPDEST SWAP1 POP PUSH1 0x20 MUL ADD PUSH1 0x20 DUP2 ADD SWAP1 PUSH2 0x6C4 SWAP2 SWAP1 PUSH2 0x1172 JUMP JUMPDEST PUSH1 0x40 MLOAD PUSH4 0x70A08231 PUSH1 0xE0 SHL DUP2 MSTORE PUSH1 0x1 PUSH1 0x1 PUSH1 0xA0 SHL SUB DUP16 DUP2 AND PUSH1 0x4 DUP4 ADD MSTORE SWAP2 SWAP1 SWAP2 AND SWAP1 PUSH4 0x70A08231 SWAP1 PUSH1 0x24 ADD PUSH2 0x53B JUMP JUMPDEST PUSH1 0x40 MLOAD PUSH1 0x20 ADD PUSH2 0x705 SWAP3 SWAP2 SWAP1 PUSH2 0x11B3 JUMP JUMPDEST PUSH1 0x40 MLOAD PUSH1 0x20 DUP2 DUP4 SUB SUB DUP2 MSTORE SWAP1 PUSH1 0x40 MSTORE SWAP1 POP JUMPDEST DUP4 PUSH2 0x721 DUP2 PUSH2 0x1211 JUMP JUMPDEST SWAP5 POP POP PUSH2 0x616 JUMP JUMPDEST DUP5 DUP2 PUSH2 0x734 DUP9 PUSH2 0xBD6 JUMP JUMPDEST PUSH2 0x73D DUP6 PUSH2 0xBD6 JUMP JUMPDEST PUSH1 0x40 MLOAD PUSH1 0x20 ADD PUSH2 0x750 SWAP5 SWAP4 SWAP3 SWAP2 SWAP1 PUSH2 0x1243 JUMP JUMPDEST PUSH1 0x40 DUP1 MLOAD PUSH1 0x1F NOT DUP2 DUP5 SUB ADD DUP2 MSTORE SWAP1 DUP3 SWAP1 MSTORE PUSH3 0x461BCD PUSH1 0xE5 SHL DUP3 MSTORE PUSH2 0x212 SWAP2 PUSH1 0x4 ADD PUSH2 0x12B9 JUMP JUMPDEST PUSH32 0x0 PUSH1 0x1 PUSH1 0x1 PUSH1 0xA0 SHL SUB AND CALLER EQ DUP1 PUSH2 0x83F JUMPI POP CALLER PUSH1 0x1 PUSH1 0x1 PUSH1 0xA0 SHL SUB AND PUSH32 0x0 PUSH1 0x1 PUSH1 0x1 PUSH1 0xA0 SHL SUB AND PUSH4 0x8DA5CB5B PUSH1 0x40 MLOAD DUP2 PUSH4 0xFFFFFFFF AND PUSH1 0xE0 SHL DUP2 MSTORE PUSH1 0x4 ADD PUSH1 0x20 PUSH1 0x40 MLOAD DUP1 DUP4 SUB DUP2 DUP7 GAS STATICCALL ISZERO DUP1 ISZERO PUSH2 0x810 JUMPI RETURNDATASIZE PUSH1 0x0 DUP1 RETURNDATACOPY RETURNDATASIZE PUSH1 0x0 REVERT JUMPDEST POP POP POP POP PUSH1 0x40 MLOAD RETURNDATASIZE PUSH1 0x1F NOT PUSH1 0x1F DUP3 ADD AND DUP3 ADD DUP1 PUSH1 0x40 MSTORE POP DUP2 ADD SWAP1 PUSH2 0x834 SWAP2 SWAP1 PUSH2 0x10D8 JUMP JUMPDEST PUSH1 0x1 PUSH1 0x1 PUSH1 0xA0 SHL SUB AND EQ JUMPDEST PUSH2 0x85B JUMPI PUSH1 0x40 MLOAD PUSH3 0x461BCD PUSH1 0xE5 SHL DUP2 MSTORE PUSH1 0x4 ADD PUSH2 0x212 SWAP1 PUSH2 0x10F5 JUMP JUMPDEST PUSH1 0x0 DUP1 SLOAD PUSH1 0x1 PUSH1 0x1 PUSH1 0xA0 SHL SUB NOT AND PUSH1 0x1 PUSH1 0x1 PUSH1 0xA0 SHL SUB DUP8 AND SWAP1 DUP2 OR SWAP1 SWAP2 SSTORE PUSH1 0x40 MLOAD PUSH4 0x12439B2F PUSH1 0xE2 SHL DUP2 MSTORE PUSH4 0x490E6CBC SWAP1 PUSH2 0x8C2 SWAP1 PUSH32 0x0 SWAP1 DUP9 SWAP1 DUP9 SWAP1 DUP9 SWAP1 DUP9 SWAP1 PUSH1 0x4 ADD PUSH2 0x12EC JUMP JUMPDEST PUSH1 0x0 PUSH1 0x40 MLOAD DUP1 DUP4 SUB DUP2 PUSH1 0x0 DUP8 DUP1 EXTCODESIZE ISZERO DUP1 ISZERO PUSH2 0x8DC JUMPI PUSH1 0x0 DUP1 REVERT JUMPDEST POP GAS CALL ISZERO DUP1 ISZERO PUSH2 0x8F0 JUMPI RETURNDATASIZE PUSH1 0x0 DUP1 RETURNDATACOPY RETURNDATASIZE PUSH1 0x0 REVERT JUMPDEST POP POP PUSH1 0x0 DUP1 SLOAD PUSH1 0x1 PUSH1 0x1 PUSH1 0xA0 SHL SUB NOT AND SWAP1 SSTORE POP POP POP POP POP POP POP JUMP JUMPDEST PUSH1 0x0 SLOAD PUSH1 0x1 PUSH1 0x1 PUSH1 0xA0 SHL SUB AND CALLER EQ PUSH2 0x935 JUMPI PUSH1 0x40 MLOAD PUSH3 0x461BCD PUSH1 0xE5 SHL DUP2 MSTORE PUSH1 0x4 ADD PUSH2 0x212 SWAP1 PUSH2 0x1083 JUMP JUMPDEST PUSH2 0x227 DUP3 DUP3 PUSH2 0xADB JUMP JUMPDEST PUSH32 0x0 PUSH1 0x1 PUSH1 0x1 PUSH1 0xA0 SHL SUB AND CALLER EQ DUP1 PUSH2 0xA08 JUMPI POP CALLER PUSH1 0x1 PUSH1 0x1 PUSH1 0xA0 SHL SUB AND PUSH32 0x0 PUSH1 0x1 PUSH1 0x1 PUSH1 0xA0 SHL SUB AND PUSH4 0x8DA5CB5B PUSH1 0x40 MLOAD DUP2 PUSH4 0xFFFFFFFF AND PUSH1 0xE0 SHL DUP2 MSTORE PUSH1 0x4 ADD PUSH1 0x20 PUSH1 0x40 MLOAD DUP1 DUP4 SUB DUP2 DUP7 GAS STATICCALL ISZERO DUP1 ISZERO PUSH2 0x9D9 JUMPI RETURNDATASIZE PUSH1 0x0 DUP1 RETURNDATACOPY RETURNDATASIZE PUSH1 0x0 REVERT JUMPDEST POP POP POP POP PUSH1 0x40 MLOAD RETURNDATASIZE PUSH1 0x1F NOT PUSH1 0x1F DUP3 ADD AND DUP3 ADD DUP1 PUSH1 0x40 MSTORE POP DUP2 ADD SWAP1 PUSH2 0x9FD SWAP2 SWAP1 PUSH2 0x10D8 JUMP JUMPDEST PUSH1 0x1 PUSH1 0x1 PUSH1 0xA0 SHL SUB AND EQ JUMPDEST PUSH2 0xA24 JUMPI PUSH1 0x40 MLOAD PUSH3 0x461BCD PUSH1 0xE5 SHL DUP2 MSTORE PUSH1 0x4 ADD PUSH2 0x212 SWAP1 PUSH2 0x10F5 JUMP JUMPDEST PUSH1 0x0 DUP1 SLOAD PUSH1 0x1 PUSH1 0x1 PUSH1 0xA0 SHL SUB NOT AND PUSH1 0x1 PUSH1 0x1 PUSH1 0xA0 SHL SUB DUP6 AND SWAP1 DUP2 OR DUP3 SSTORE PUSH2 0xA4C SWAP2 DUP5 DUP5 PUSH2 0xA61 JUMP JUMPDEST POP POP PUSH1 0x0 DUP1 SLOAD PUSH1 0x1 PUSH1 0x1 PUSH1 0xA0 SHL SUB NOT AND SWAP1 SSTORE POP JUMP JUMPDEST PUSH1 0x0 DUP1 DUP6 PUSH1 0x1 PUSH1 0x1 PUSH1 0xA0 SHL SUB AND DUP6 DUP6 DUP6 PUSH1 0x40 MLOAD PUSH2 0xA7F SWAP3 SWAP2 SWAP1 PUSH2 0x10C8 JUMP JUMPDEST PUSH1 0x0 PUSH1 0x40 MLOAD DUP1 DUP4 SUB DUP2 DUP6 DUP8 GAS CALL SWAP3 POP POP POP RETURNDATASIZE DUP1 PUSH1 0x0 DUP2 EQ PUSH2 0xABC JUMPI PUSH1 0x40 MLOAD SWAP2 POP PUSH1 0x1F NOT PUSH1 0x3F RETURNDATASIZE ADD AND DUP3 ADD PUSH1 0x40 MSTORE RETURNDATASIZE DUP3 MSTORE RETURNDATASIZE PUSH1 0x0 PUSH1 0x20 DUP5 ADD RETURNDATACOPY PUSH2 0xAC1 JUMP JUMPDEST PUSH1 0x60 SWAP2 POP JUMPDEST POP SWAP2 POP SWAP2 POP DUP2 PUSH2 0xAD3 JUMPI DUP1 MLOAD PUSH1 0x20 DUP3 ADD REVERT JUMPDEST POP POP POP POP POP POP JUMP JUMPDEST PUSH1 0x0 JUMPDEST DUP2 DUP2 LT ISZERO PUSH2 0xBD1 JUMPI PUSH1 0x0 DUP4 DUP3 DUP5 PUSH2 0xAF6 DUP3 PUSH1 0x14 PUSH2 0x1338 JUMP JUMPDEST SWAP3 PUSH2 0xB03 SWAP4 SWAP3 SWAP2 SWAP1 PUSH2 0x134B JUMP JUMPDEST PUSH2 0xB0C SWAP2 PUSH2 0x1375 JUMP JUMPDEST PUSH1 0x60 SHR SWAP1 POP PUSH1 0x0 DUP5 DUP5 PUSH2 0xB20 DUP6 PUSH1 0x14 PUSH2 0x1338 JUMP JUMPDEST SWAP1 PUSH2 0xB2C DUP7 PUSH1 0x34 PUSH2 0x1338 JUMP JUMPDEST SWAP3 PUSH2 0xB39 SWAP4 SWAP3 SWAP2 SWAP1 PUSH2 0x134B JUMP JUMPDEST PUSH2 0xB42 SWAP2 PUSH2 0x13AA JUMP JUMPDEST SWAP1 POP PUSH1 0x0 DUP6 DUP6 PUSH2 0xB53 DUP7 PUSH1 0x34 PUSH2 0x1338 JUMP JUMPDEST SWAP1 PUSH2 0xB5F DUP8 PUSH1 0x54 PUSH2 0x1338 JUMP JUMPDEST SWAP3 PUSH2 0xB6C SWAP4 SWAP3 SWAP2 SWAP1 PUSH2 0x134B JUMP JUMPDEST PUSH2 0xB75 SWAP2 PUSH2 0x13AA JUMP JUMPDEST SWAP1 POP PUSH2 0xBB2 DUP4 DUP4 DUP9 DUP9 PUSH2 0xB89 DUP10 PUSH1 0x54 PUSH2 0x1338 JUMP JUMPDEST SWAP1 DUP7 PUSH2 0xB96 DUP12 PUSH1 0x54 PUSH2 0x1338 JUMP JUMPDEST PUSH2 0xBA0 SWAP2 SWAP1 PUSH2 0x1338 JUMP JUMPDEST SWAP3 PUSH2 0xBAD SWAP4 SWAP3 SWAP2 SWAP1 PUSH2 0x134B JUMP JUMPDEST PUSH2 0xA61 JUMP JUMPDEST PUSH2 0xBBD DUP2 PUSH1 0x54 PUSH2 0x1338 JUMP JUMPDEST PUSH2 0xBC7 SWAP1 DUP6 PUSH2 0x1338 JUMP JUMPDEST SWAP4 POP POP POP POP PUSH2 0xADE JUMP JUMPDEST POP POP POP JUMP JUMPDEST PUSH1 0x60 DUP2 PUSH1 0x0 SUB PUSH2 0xC00 JUMPI POP POP PUSH1 0x40 DUP1 MLOAD DUP1 DUP3 ADD SWAP1 SWAP2 MSTORE PUSH1 0x4 DUP2 MSTORE PUSH4 0x3078303 PUSH1 0xE4 SHL PUSH1 0x20 DUP3 ADD MSTORE SWAP1 JUMP JUMPDEST DUP2 PUSH1 0x0 JUMPDEST DUP2 ISZERO PUSH2 0xC23 JUMPI DUP1 PUSH2 0xC14 DUP2 PUSH2 0x13C8 JUMP JUMPDEST SWAP2 POP POP PUSH1 0x8 DUP3 SWAP1 SHR SWAP2 POP PUSH2 0xC04 JUMP JUMPDEST PUSH2 0xC2D DUP5 DUP3 PUSH2 0xC35 JUMP JUMPDEST SWAP5 SWAP4 POP POP POP POP JUMP JUMPDEST PUSH1 0x60 PUSH1 0x0 PUSH2 0xC44 DUP4 PUSH1 0x2 PUSH2 0x13E1 JUMP JUMPDEST PUSH2 0xC4F SWAP1 PUSH1 0x2 PUSH2 0x1338 JUMP JUMPDEST PUSH8 0xFFFFFFFFFFFFFFFF DUP2 GT ISZERO PUSH2 0xC67 JUMPI PUSH2 0xC67 PUSH2 0x13F8 JUMP JUMPDEST PUSH1 0x40 MLOAD SWAP1 DUP1 DUP3 MSTORE DUP1 PUSH1 0x1F ADD PUSH1 0x1F NOT AND PUSH1 0x20 ADD DUP3 ADD PUSH1 0x40 MSTORE DUP1 ISZERO PUSH2 0xC91 JUMPI PUSH1 0x20 DUP3 ADD DUP2 DUP1 CALLDATASIZE DUP4 CALLDATACOPY ADD SWAP1 POP JUMPDEST POP SWAP1 POP PUSH1 0x3 PUSH1 0xFC SHL DUP2 PUSH1 0x0 DUP2 MLOAD DUP2 LT PUSH2 0xCAC JUMPI PUSH2 0xCAC PUSH2 0x115C JUMP JUMPDEST PUSH1 0x20 ADD ADD SWAP1 PUSH1 0x1 PUSH1 0x1 PUSH1 0xF8 SHL SUB NOT AND SWAP1 DUP2 PUSH1 0x0 BYTE SWAP1 MSTORE8 POP PUSH1 0xF PUSH1 0xFB SHL DUP2 PUSH1 0x1 DUP2 MLOAD DUP2 LT PUSH2 0xCDB JUMPI PUSH2 0xCDB PUSH2 0x115C JUMP JUMPDEST PUSH1 0x20 ADD ADD SWAP1 PUSH1 0x1 PUSH1 0x1 PUSH1 0xF8 SHL SUB NOT AND SWAP1 DUP2 PUSH1 0x0 BYTE SWAP1 MSTORE8 POP PUSH1 0x0 PUSH2 0xCFF DUP5 PUSH1 0x2 PUSH2 0x13E1 JUMP JUMPDEST PUSH2 0xD0A SWAP1 PUSH1 0x1 PUSH2 0x1338 JUMP JUMPDEST SWAP1 POP JUMPDEST PUSH1 0x1 DUP2 GT ISZERO PUSH2 0xD82 JUMPI PUSH16 0x181899199A1A9B1B9C1CB0B131B232B3 PUSH1 0x81 SHL DUP6 PUSH1 0xF AND PUSH1 0x10 DUP2 LT PUSH2 0xD3E JUMPI PUSH2 0xD3E PUSH2 0x115C JUMP JUMPDEST BYTE PUSH1 0xF8 SHL DUP3 DUP3 DUP2 MLOAD DUP2 LT PUSH2 0xD54 JUMPI PUSH2 0xD54 PUSH2 0x115C JUMP JUMPDEST PUSH1 0x20 ADD ADD SWAP1 PUSH1 0x1 PUSH1 0x1 PUSH1 0xF8 SHL SUB NOT AND SWAP1 DUP2 PUSH1 0x0 BYTE SWAP1 MSTORE8 POP PUSH1 0x4 SWAP5 SWAP1 SWAP5 SHR SWAP4 PUSH2 0xD7B DUP2 PUSH2 0x140E JUMP JUMPDEST SWAP1 POP PUSH2 0xD0D JUMP JUMPDEST POP DUP4 ISZERO PUSH2 0xDD1 JUMPI PUSH1 0x40 MLOAD PUSH3 0x461BCD PUSH1 0xE5 SHL DUP2 MSTORE PUSH1 0x20 PUSH1 0x4 DUP3 ADD DUP2 SWAP1 MSTORE PUSH1 0x24 DUP3 ADD MSTORE PUSH32 0x537472696E67733A20686578206C656E67746820696E73756666696369656E74 PUSH1 0x44 DUP3 ADD MSTORE PUSH1 0x64 ADD PUSH2 0x212 JUMP JUMPDEST SWAP1 POP JUMPDEST SWAP3 SWAP2 POP POP JUMP JUMPDEST PUSH1 0x1 PUSH1 0x1 PUSH1 0xA0 SHL SUB DUP2 AND DUP2 EQ PUSH2 0xDEF JUMPI PUSH1 0x0 DUP1 REVERT JUMPDEST POP JUMP JUMPDEST PUSH1 0x0 DUP1 DUP4 PUSH1 0x1F DUP5 ADD SLT PUSH2 0xE04 JUMPI PUSH1 0x0 DUP1 REVERT JUMPDEST POP DUP2 CALLDATALOAD PUSH8 0xFFFFFFFFFFFFFFFF DUP2 GT ISZERO PUSH2 0xE1C JUMPI PUSH1 0x0 DUP1 REVERT JUMPDEST PUSH1 0x20 DUP4 ADD SWAP2 POP DUP4 PUSH1 0x20 DUP3 DUP6 ADD ADD GT ISZERO PUSH2 0xE34 JUMPI PUSH1 0x0 DUP1 REVERT JUMPDEST SWAP3 POP SWAP3 SWAP1 POP JUMP JUMPDEST PUSH1 0x0 DUP1 PUSH1 0x0 DUP1 PUSH1 0x60 DUP6 DUP8 SUB SLT ISZERO PUSH2 0xE51 JUMPI PUSH1 0x0 DUP1 REVERT JUMPDEST DUP5 CALLDATALOAD PUSH2 0xE5C DUP2 PUSH2 0xDDA JUMP JUMPDEST SWAP4 POP PUSH1 0x20 DUP6 ADD CALLDATALOAD SWAP3 POP PUSH1 0x40 DUP6 ADD CALLDATALOAD PUSH8 0xFFFFFFFFFFFFFFFF DUP2 GT ISZERO PUSH2 0xE7F JUMPI PUSH1 0x0 DUP1 REVERT JUMPDEST PUSH2 0xE8B DUP8 DUP3 DUP9 ADD PUSH2 0xDF2 JUMP JUMPDEST SWAP6 SWAP9 SWAP5 SWAP8 POP SWAP6 POP POP POP POP JUMP JUMPDEST PUSH1 0x0 DUP1 PUSH1 0x20 DUP4 DUP6 SUB SLT ISZERO PUSH2 0xEAA JUMPI PUSH1 0x0 DUP1 REVERT JUMPDEST DUP3 CALLDATALOAD PUSH8 0xFFFFFFFFFFFFFFFF DUP2 GT ISZERO PUSH2 0xEC1 JUMPI PUSH1 0x0 DUP1 REVERT JUMPDEST PUSH2 0xECD DUP6 DUP3 DUP7 ADD PUSH2 0xDF2 JUMP JUMPDEST SWAP1 SWAP7 SWAP1 SWAP6 POP SWAP4 POP POP POP POP JUMP JUMPDEST PUSH1 0x0 DUP1 PUSH1 0x0 PUSH1 0x40 DUP5 DUP7 SUB SLT ISZERO PUSH2 0xEEE JUMPI PUSH1 0x0 DUP1 REVERT JUMPDEST DUP4 CALLDATALOAD PUSH2 0xEF9 DUP2 PUSH2 0xDDA JUMP JUMPDEST SWAP3 POP PUSH1 0x20 DUP5 ADD CALLDATALOAD PUSH8 0xFFFFFFFFFFFFFFFF DUP2 GT ISZERO PUSH2 0xF15 JUMPI PUSH1 0x0 DUP1 REVERT JUMPDEST PUSH2 0xF21 DUP7 DUP3 DUP8 ADD PUSH2 0xDF2 JUMP JUMPDEST SWAP5 SWAP8 SWAP1 SWAP7 POP SWAP4 SWAP5 POP POP POP POP JUMP JUMPDEST PUSH1 0x0 DUP1 PUSH1 0x0 DUP1 PUSH1 0x0 PUSH1 0x60 DUP7 DUP9 SUB SLT ISZERO PUSH2 0xF46 JUMPI PUSH1 0x0 DUP1 REVERT JUMPDEST DUP6 CALLDATALOAD PUSH2 0xF51 DUP2 PUSH2 0xDDA JUMP JUMPDEST SWAP5 POP PUSH1 0x20 DUP7 ADD CALLDATALOAD PUSH8 0xFFFFFFFFFFFFFFFF DUP1 DUP3 GT ISZERO PUSH2 0xF6E JUMPI PUSH1 0x0 DUP1 REVERT JUMPDEST PUSH2 0xF7A DUP10 DUP4 DUP11 ADD PUSH2 0xDF2 JUMP JUMPDEST SWAP1 SWAP7 POP SWAP5 POP PUSH1 0x40 DUP9 ADD CALLDATALOAD SWAP2 POP DUP1 DUP3 GT ISZERO PUSH2 0xF93 JUMPI PUSH1 0x0 DUP1 REVERT JUMPDEST DUP2 DUP9 ADD SWAP2 POP DUP9 PUSH1 0x1F DUP4 ADD SLT PUSH2 0xFA7 JUMPI PUSH1 0x0 DUP1 REVERT JUMPDEST DUP2 CALLDATALOAD DUP2 DUP2 GT ISZERO PUSH2 0xFB6 JUMPI PUSH1 0x0 DUP1 REVERT JUMPDEST DUP10 PUSH1 0x20 DUP3 PUSH1 0x5 SHL DUP6 ADD ADD GT ISZERO PUSH2 0xFCB JUMPI PUSH1 0x0 DUP1 REVERT JUMPDEST SWAP7 SWAP10 SWAP6 SWAP9 POP SWAP4 SWAP7 POP PUSH1 0x20 ADD SWAP5 SWAP4 SWAP3 POP POP POP JUMP JUMPDEST PUSH1 0x0 DUP1 PUSH1 0x0 DUP1 PUSH1 0x0 PUSH1 0x80 DUP7 DUP9 SUB SLT ISZERO PUSH2 0xFF6 JUMPI PUSH1 0x0 DUP1 REVERT JUMPDEST DUP6 CALLDATALOAD PUSH2 0x1001 DUP2 PUSH2 0xDDA JUMP JUMPDEST SWAP5 POP PUSH1 0x20 DUP7 ADD CALLDATALOAD SWAP4 POP PUSH1 0x40 DUP7 ADD CALLDATALOAD SWAP3 POP PUSH1 0x60 DUP7 ADD CALLDATALOAD PUSH8 0xFFFFFFFFFFFFFFFF DUP2 GT ISZERO PUSH2 0x102B JUMPI PUSH1 0x0 DUP1 REVERT JUMPDEST PUSH2 0x1037 DUP9 DUP3 DUP10 ADD PUSH2 0xDF2 JUMP JUMPDEST SWAP7 SWAP10 SWAP6 SWAP9 POP SWAP4 SWAP7 POP SWAP3 SWAP5 SWAP4 SWAP3 POP POP POP JUMP JUMPDEST PUSH1 0x0 DUP1 PUSH1 0x0 DUP1 PUSH1 0x60 DUP6 DUP8 SUB SLT ISZERO PUSH2 0x105E JUMPI PUSH1 0x0 DUP1 REVERT JUMPDEST DUP5 CALLDATALOAD SWAP4 POP PUSH1 0x20 DUP6 ADD CALLDATALOAD SWAP3 POP PUSH1 0x40 DUP6 ADD CALLDATALOAD PUSH8 0xFFFFFFFFFFFFFFFF DUP2 GT ISZERO PUSH2 0xE7F JUMPI PUSH1 0x0 DUP1 REVERT JUMPDEST PUSH1 0x20 DUP1 DUP3 MSTORE PUSH1 0x25 SWAP1 DUP3 ADD MSTORE PUSH32 0x6F6E6C7943616C6C546F3A2063616C6C6572206973206E6F7420746865205F63 PUSH1 0x40 DUP3 ADD MSTORE PUSH5 0x616C6C546F PUSH1 0xD8 SHL PUSH1 0x60 DUP3 ADD MSTORE PUSH1 0x80 ADD SWAP1 JUMP JUMPDEST DUP2 DUP4 DUP3 CALLDATACOPY PUSH1 0x0 SWAP2 ADD SWAP1 DUP2 MSTORE SWAP2 SWAP1 POP JUMP JUMPDEST PUSH1 0x0 PUSH1 0x20 DUP3 DUP5 SUB SLT ISZERO PUSH2 0x10EA JUMPI PUSH1 0x0 DUP1 REVERT JUMPDEST DUP2 MLOAD PUSH2 0xDD1 DUP2 PUSH2 0xDDA JUMP JUMPDEST PUSH1 0x20 DUP1 DUP3 MSTORE PUSH1 0x41 SWAP1 DUP3 ADD MSTORE PUSH32 0x6F6E6C7942756E646C65724D616E616765723A2063616C6C6572206973206E6F PUSH1 0x40 DUP3 ADD MSTORE PUSH32 0x74207468652042756E646C65724D616E61676572206F7220697473206F776E65 PUSH1 0x60 DUP3 ADD MSTORE PUSH1 0x39 PUSH1 0xF9 SHL PUSH1 0x80 DUP3 ADD MSTORE PUSH1 0xA0 ADD SWAP1 JUMP JUMPDEST PUSH4 0x4E487B71 PUSH1 0xE0 SHL PUSH1 0x0 MSTORE PUSH1 0x32 PUSH1 0x4 MSTORE PUSH1 0x24 PUSH1 0x0 REVERT JUMPDEST PUSH1 0x0 PUSH1 0x20 DUP3 DUP5 SUB SLT ISZERO PUSH2 0x1184 JUMPI PUSH1 0x0 DUP1 REVERT JUMPDEST DUP2 CALLDATALOAD PUSH2 0xDD1 DUP2 PUSH2 0xDDA JUMP JUMPDEST PUSH1 0x0 JUMPDEST DUP4 DUP2 LT ISZERO PUSH2 0x11AA JUMPI DUP2 DUP2 ADD MLOAD DUP4 DUP3 ADD MSTORE PUSH1 0x20 ADD PUSH2 0x1192 JUMP JUMPDEST POP POP PUSH1 0x0 SWAP2 ADD MSTORE JUMP JUMPDEST PUSH1 0x0 DUP4 MLOAD PUSH2 0x11C5 DUP2 DUP5 PUSH1 0x20 DUP9 ADD PUSH2 0x118F JUMP JUMPDEST DUP4 MLOAD SWAP1 DUP4 ADD SWAP1 PUSH2 0x11D9 DUP2 DUP4 PUSH1 0x20 DUP9 ADD PUSH2 0x118F JUMP JUMPDEST ADD SWAP5 SWAP4 POP POP POP POP JUMP JUMPDEST PUSH1 0x0 PUSH1 0x20 DUP3 DUP5 SUB SLT ISZERO PUSH2 0x11F4 JUMPI PUSH1 0x0 DUP1 REVERT JUMPDEST POP MLOAD SWAP2 SWAP1 POP JUMP JUMPDEST PUSH4 0x4E487B71 PUSH1 0xE0 SHL PUSH1 0x0 MSTORE PUSH1 0x11 PUSH1 0x4 MSTORE PUSH1 0x24 PUSH1 0x0 REVERT JUMPDEST PUSH1 0x0 PUSH1 0xFF DUP3 AND PUSH1 0xFF DUP2 SUB PUSH2 0x1227 JUMPI PUSH2 0x1227 PUSH2 0x11FB JUMP JUMPDEST PUSH1 0x1 ADD SWAP3 SWAP2 POP POP JUMP JUMPDEST DUP2 DUP2 SUB DUP2 DUP2 GT ISZERO PUSH2 0xDD4 JUMPI PUSH2 0xDD4 PUSH2 0x11FB JUMP JUMPDEST PUSH10 0x5468654368616E676573 PUSH1 0xB0 SHL DUP2 MSTORE PUSH1 0x0 DUP6 MLOAD PUSH2 0x1268 DUP2 PUSH1 0xA DUP6 ADD PUSH1 0x20 DUP11 ADD PUSH2 0x118F JUMP JUMPDEST DUP6 MLOAD SWAP1 DUP4 ADD SWAP1 PUSH2 0x127F DUP2 PUSH1 0xA DUP5 ADD PUSH1 0x20 DUP11 ADD PUSH2 0x118F JUMP JUMPDEST DUP6 MLOAD SWAP2 ADD SWAP1 PUSH2 0x1295 DUP2 PUSH1 0xA DUP5 ADD PUSH1 0x20 DUP10 ADD PUSH2 0x118F JUMP JUMPDEST DUP5 MLOAD SWAP2 ADD SWAP1 PUSH2 0x12AB DUP2 PUSH1 0xA DUP5 ADD PUSH1 0x20 DUP9 ADD PUSH2 0x118F JUMP JUMPDEST ADD PUSH1 0xA ADD SWAP7 SWAP6 POP POP POP POP POP POP JUMP JUMPDEST PUSH1 0x20 DUP2 MSTORE PUSH1 0x0 DUP3 MLOAD DUP1 PUSH1 0x20 DUP5 ADD MSTORE PUSH2 0x12D8 DUP2 PUSH1 0x40 DUP6 ADD PUSH1 0x20 DUP8 ADD PUSH2 0x118F JUMP JUMPDEST PUSH1 0x1F ADD PUSH1 0x1F NOT AND SWAP2 SWAP1 SWAP2 ADD PUSH1 0x40 ADD SWAP3 SWAP2 POP POP JUMP JUMPDEST PUSH1 0x1 DUP1 PUSH1 0xA0 SHL SUB DUP7 AND DUP2 MSTORE DUP5 PUSH1 0x20 DUP3 ADD MSTORE DUP4 PUSH1 0x40 DUP3 ADD MSTORE PUSH1 0x80 PUSH1 0x60 DUP3 ADD MSTORE DUP2 PUSH1 0x80 DUP3 ADD MSTORE DUP2 DUP4 PUSH1 0xA0 DUP4 ADD CALLDATACOPY PUSH1 0x0 DUP2 DUP4 ADD PUSH1 0xA0 SWAP1 DUP2 ADD SWAP2 SWAP1 SWAP2 MSTORE PUSH1 0x1F SWAP1 SWAP3 ADD PUSH1 0x1F NOT AND ADD ADD SWAP5 SWAP4 POP POP POP POP JUMP JUMPDEST DUP1 DUP3 ADD DUP1 DUP3 GT ISZERO PUSH2 0xDD4 JUMPI PUSH2 0xDD4 PUSH2 0x11FB JUMP JUMPDEST PUSH1 0x0 DUP1 DUP6 DUP6 GT ISZERO PUSH2 0x135B JUMPI PUSH1 0x0 DUP1 REVERT JUMPDEST DUP4 DUP7 GT ISZERO PUSH2 0x1368 JUMPI PUSH1 0x0 DUP1 REVERT JUMPDEST POP POP DUP3 ADD SWAP4 SWAP2 SWAP1 SWAP3 SUB SWAP2 POP JUMP JUMPDEST PUSH12 0xFFFFFFFFFFFFFFFFFFFFFFFF NOT DUP2 CALLDATALOAD DUP2 DUP2 AND SWAP2 PUSH1 0x14 DUP6 LT ISZERO PUSH2 0x13A2 JUMPI DUP1 DUP2 DUP7 PUSH1 0x14 SUB PUSH1 0x3 SHL SHL DUP4 AND AND SWAP3 POP JUMPDEST POP POP SWAP3 SWAP2 POP POP JUMP JUMPDEST DUP1 CALLDATALOAD PUSH1 0x20 DUP4 LT ISZERO PUSH2 0xDD4 JUMPI PUSH1 0x0 NOT PUSH1 0x20 DUP5 SWAP1 SUB PUSH1 0x3 SHL SHL AND SWAP3 SWAP2 POP POP JUMP JUMPDEST PUSH1 0x0 PUSH1 0x1 DUP3 ADD PUSH2 0x13DA JUMPI PUSH2 0x13DA PUSH2 0x11FB JUMP JUMPDEST POP PUSH1 0x1 ADD SWAP1 JUMP JUMPDEST DUP1 DUP3 MUL DUP2 ISZERO DUP3 DUP3 DIV DUP5 EQ OR PUSH2 0xDD4 JUMPI PUSH2 0xDD4 PUSH2 0x11FB JUMP JUMPDEST PUSH4 0x4E487B71 PUSH1 0xE0 SHL PUSH1 0x0 MSTORE PUSH1 0x41 PUSH1 0x4 MSTORE PUSH1 0x24 PUSH1 0x0 REVERT JUMPDEST PUSH1 0x0 DUP2 PUSH2 0x141D JUMPI PUSH2 0x141D PUSH2 0x11FB JUMP JUMPDEST POP PUSH1 0x0 NOT ADD SWAP1 JUMP INVALID LOG2 PUSH5 0x6970667358 0x22 SLT KECCAK256 DUP10 0xDE PUSH12 0xFB0BC19ED166AF7CCF2FF12F 0x27 0x23 PUSH28 0xE0F8B1DA3653443AC75A63857BF464736F6C63430008120033000000 "},"methodIdentifiers":{"adoptProposal(bytes32)":"25460f86","bundle(bytes[])":"1427c292","bundler()":"ad0ffd8b","changeOwner(address)":"a6f9dae1","initSocialRecovery(address,address[],uint8)":"3c69640f","owner()":"8da5cb5b","publicSocialRecovery()":"13839897"}}}}}