{"contracts/wallet/help/Multicall.sol":{"Multicall":{"abi":[{"inputs":[{"components":[{"internalType":"address","name":"target","type":"address"},{"internalType":"bytes","name":"callData","type":"bytes"}],"internalType":"struct Multicall.Call[]","name":"calls","type":"tuple[]"}],"name":"aggregate","outputs":[{"internalType":"uint256","name":"blockNumber","type":"uint256"},{"internalType":"bytes[]","name":"returnData","type":"bytes[]"}],"stateMutability":"view","type":"function"},{"inputs":[],"name":"getBasefee","outputs":[{"internalType":"uint256","name":"basefee","type":"uint256"}],"stateMutability":"view","type":"function"},{"inputs":[{"internalType":"uint256","name":"blockNumber","type":"uint256"}],"name":"getBlockHash","outputs":[{"internalType":"bytes32","name":"blockHash","type":"bytes32"}],"stateMutability":"view","type":"function"},{"inputs":[],"name":"getChainId","outputs":[{"internalType":"uint256","name":"chainid","type":"uint256"}],"stateMutability":"view","type":"function"},{"inputs":[],"name":"getCurrentBlockCoinbase","outputs":[{"internalType":"address","name":"coinbase","type":"address"}],"stateMutability":"view","type":"function"},{"inputs":[],"name":"getCurrentBlockGasLimit","outputs":[{"internalType":"uint256","name":"gaslimit","type":"uint256"}],"stateMutability":"view","type":"function"},{"inputs":[],"name":"getCurrentBlockTimestamp","outputs":[{"internalType":"uint256","name":"timestamp","type":"uint256"}],"stateMutability":"view","type":"function"},{"inputs":[{"internalType":"address","name":"addr","type":"address"}],"name":"getEthBalance","outputs":[{"internalType":"uint256","name":"balance","type":"uint256"}],"stateMutability":"view","type":"function"},{"inputs":[],"name":"getLastBlockHash","outputs":[{"internalType":"bytes32","name":"blockHash","type":"bytes32"}],"stateMutability":"view","type":"function"}],"evm":{"bytecode":{"linkReferences":{},"object":"608060405234801561001057600080fd5b506105ef806100206000396000f3fe608060405234801561001057600080fd5b50600436106100935760003560e01c80633e64a696116100665780633e64a696146100dc5780634d2301cc146100e257806386d516e8146100fd578063a8b0574e14610103578063ee82ac5e1461011157600080fd5b80630f28c97d14610098578063252dba42146100ad57806327e86d6e146100ce5780633408e470146100d6575b600080fd5b425b6040519081526020015b60405180910390f35b6100c06100bb366004610300565b610123565b6040516100a4929190610482565b61009a610261565b4661009a565b4861009a565b61009a6100f0366004610504565b6001600160a01b03163190565b4561009a565b6040514181526020016100a4565b61009a61011f366004610526565b4090565b8051439060609067ffffffffffffffff81111561014257610142610274565b60405190808252806020026020018201604052801561017557816020015b60608152602001906001900390816101605790505b50905060005b835181101561025b576000808583815181106101995761019961053f565b6020026020010151600001516001600160a01b03168684815181106101c0576101c061053f565b6020026020010151602001516040516101d99190610555565b600060405180830381855afa9150503d8060008114610214576040519150601f19603f3d011682016040523d82523d6000602084013e610219565b606091505b50915091508161022857600080fd5b8084848151811061023b5761023b61053f565b60200260200101819052505050808061025390610587565b91505061017b565b50915091565b600061026e6001436105a0565b40905090565b634e487b7160e01b600052604160045260246000fd5b6040805190810167ffffffffffffffff811182821017156102ad576102ad610274565b60405290565b604051601f8201601f1916810167ffffffffffffffff811182821017156102dc576102dc610274565b604052919050565b80356001600160a01b03811681146102fb57600080fd5b919050565b6000602080838503121561031357600080fd5b823567ffffffffffffffff8082111561032b57600080fd5b818501915085601f83011261033f57600080fd5b81358181111561035157610351610274565b8060051b6103608582016102b3565b918252838101850191858101908984111561037a57600080fd5b86860192505b83831015610451578235858111156103985760008081fd5b86016040601f19828d0381018213156103b15760008081fd5b6103b961028a565b6103c48b85016102e4565b815282840135898111156103d85760008081fd5b8085019450508d603f8501126103ee5760008081fd5b8a8401358981111561040257610402610274565b6104128c84601f840116016102b3565b92508083528e848287010111156104295760008081fd5b808486018d85013760009083018c0152808b0191909152845250509186019190860190610380565b9998505050505050505050565b60005b83811015610479578181015183820152602001610461565b50506000910152565b600060408201848352602060408185015281855180845260608601915060608160051b870101935082870160005b828110156104f657878603605f19018452815180518088526104d781888a0189850161045e565b601f01601f1916969096018501955092840192908401906001016104b0565b509398975050505050505050565b60006020828403121561051657600080fd5b61051f826102e4565b9392505050565b60006020828403121561053857600080fd5b5035919050565b634e487b7160e01b600052603260045260246000fd5b6000825161056781846020870161045e565b9190910192915050565b634e487b7160e01b600052601160045260246000fd5b60006001820161059957610599610571565b5060010190565b818103818111156105b3576105b3610571565b9291505056fea26469706673582212202af40484009538c0b7a470985d7f81b0e324ffe2f7e84dba8e34c9dca4214c4864736f6c63430008120033","opcodes":"PUSH1 0x80 PUSH1 0x40 MSTORE CALLVALUE DUP1 ISZERO PUSH2 0x10 JUMPI PUSH1 0x0 DUP1 REVERT JUMPDEST POP PUSH2 0x5EF DUP1 PUSH2 0x20 PUSH1 0x0 CODECOPY PUSH1 0x0 RETURN INVALID PUSH1 0x80 PUSH1 0x40 MSTORE CALLVALUE DUP1 ISZERO PUSH2 0x10 JUMPI PUSH1 0x0 DUP1 REVERT JUMPDEST POP PUSH1 0x4 CALLDATASIZE LT PUSH2 0x93 JUMPI PUSH1 0x0 CALLDATALOAD PUSH1 0xE0 SHR DUP1 PUSH4 0x3E64A696 GT PUSH2 0x66 JUMPI DUP1 PUSH4 0x3E64A696 EQ PUSH2 0xDC JUMPI DUP1 PUSH4 0x4D2301CC EQ PUSH2 0xE2 JUMPI DUP1 PUSH4 0x86D516E8 EQ PUSH2 0xFD JUMPI DUP1 PUSH4 0xA8B0574E EQ PUSH2 0x103 JUMPI DUP1 PUSH4 0xEE82AC5E EQ PUSH2 0x111 JUMPI PUSH1 0x0 DUP1 REVERT JUMPDEST DUP1 PUSH4 0xF28C97D EQ PUSH2 0x98 JUMPI DUP1 PUSH4 0x252DBA42 EQ PUSH2 0xAD JUMPI DUP1 PUSH4 0x27E86D6E EQ PUSH2 0xCE JUMPI DUP1 PUSH4 0x3408E470 EQ PUSH2 0xD6 JUMPI JUMPDEST PUSH1 0x0 DUP1 REVERT JUMPDEST TIMESTAMP JUMPDEST PUSH1 0x40 MLOAD SWAP1 DUP2 MSTORE PUSH1 0x20 ADD JUMPDEST PUSH1 0x40 MLOAD DUP1 SWAP2 SUB SWAP1 RETURN JUMPDEST PUSH2 0xC0 PUSH2 0xBB CALLDATASIZE PUSH1 0x4 PUSH2 0x300 JUMP JUMPDEST PUSH2 0x123 JUMP JUMPDEST PUSH1 0x40 MLOAD PUSH2 0xA4 SWAP3 SWAP2 SWAP1 PUSH2 0x482 JUMP JUMPDEST PUSH2 0x9A PUSH2 0x261 JUMP JUMPDEST CHAINID PUSH2 0x9A JUMP JUMPDEST BASEFEE PUSH2 0x9A JUMP JUMPDEST PUSH2 0x9A PUSH2 0xF0 CALLDATASIZE PUSH1 0x4 PUSH2 0x504 JUMP JUMPDEST PUSH1 0x1 PUSH1 0x1 PUSH1 0xA0 SHL SUB AND BALANCE SWAP1 JUMP JUMPDEST GASLIMIT PUSH2 0x9A JUMP JUMPDEST PUSH1 0x40 MLOAD COINBASE DUP2 MSTORE PUSH1 0x20 ADD PUSH2 0xA4 JUMP JUMPDEST PUSH2 0x9A PUSH2 0x11F CALLDATASIZE PUSH1 0x4 PUSH2 0x526 JUMP JUMPDEST BLOCKHASH SWAP1 JUMP JUMPDEST DUP1 MLOAD NUMBER SWAP1 PUSH1 0x60 SWAP1 PUSH8 0xFFFFFFFFFFFFFFFF DUP2 GT ISZERO PUSH2 0x142 JUMPI PUSH2 0x142 PUSH2 0x274 JUMP JUMPDEST PUSH1 0x40 MLOAD SWAP1 DUP1 DUP3 MSTORE DUP1 PUSH1 0x20 MUL PUSH1 0x20 ADD DUP3 ADD PUSH1 0x40 MSTORE DUP1 ISZERO PUSH2 0x175 JUMPI DUP2 PUSH1 0x20 ADD JUMPDEST PUSH1 0x60 DUP2 MSTORE PUSH1 0x20 ADD SWAP1 PUSH1 0x1 SWAP1 SUB SWAP1 DUP2 PUSH2 0x160 JUMPI SWAP1 POP JUMPDEST POP SWAP1 POP PUSH1 0x0 JUMPDEST DUP4 MLOAD DUP2 LT ISZERO PUSH2 0x25B JUMPI PUSH1 0x0 DUP1 DUP6 DUP4 DUP2 MLOAD DUP2 LT PUSH2 0x199 JUMPI PUSH2 0x199 PUSH2 0x53F JUMP JUMPDEST PUSH1 0x20 MUL PUSH1 0x20 ADD ADD MLOAD PUSH1 0x0 ADD MLOAD PUSH1 0x1 PUSH1 0x1 PUSH1 0xA0 SHL SUB AND DUP7 DUP5 DUP2 MLOAD DUP2 LT PUSH2 0x1C0 JUMPI PUSH2 0x1C0 PUSH2 0x53F JUMP JUMPDEST PUSH1 0x20 MUL PUSH1 0x20 ADD ADD MLOAD PUSH1 0x20 ADD MLOAD PUSH1 0x40 MLOAD PUSH2 0x1D9 SWAP2 SWAP1 PUSH2 0x555 JUMP JUMPDEST PUSH1 0x0 PUSH1 0x40 MLOAD DUP1 DUP4 SUB DUP2 DUP6 GAS STATICCALL SWAP2 POP POP RETURNDATASIZE DUP1 PUSH1 0x0 DUP2 EQ PUSH2 0x214 JUMPI PUSH1 0x40 MLOAD SWAP2 POP PUSH1 0x1F NOT PUSH1 0x3F RETURNDATASIZE ADD AND DUP3 ADD PUSH1 0x40 MSTORE RETURNDATASIZE DUP3 MSTORE RETURNDATASIZE PUSH1 0x0 PUSH1 0x20 DUP5 ADD RETURNDATACOPY PUSH2 0x219 JUMP JUMPDEST PUSH1 0x60 SWAP2 POP JUMPDEST POP SWAP2 POP SWAP2 POP DUP2 PUSH2 0x228 JUMPI PUSH1 0x0 DUP1 REVERT JUMPDEST DUP1 DUP5 DUP5 DUP2 MLOAD DUP2 LT PUSH2 0x23B JUMPI PUSH2 0x23B PUSH2 0x53F JUMP JUMPDEST PUSH1 0x20 MUL PUSH1 0x20 ADD ADD DUP2 SWAP1 MSTORE POP POP POP DUP1 DUP1 PUSH2 0x253 SWAP1 PUSH2 0x587 JUMP JUMPDEST SWAP2 POP POP PUSH2 0x17B JUMP JUMPDEST POP SWAP2 POP SWAP2 JUMP JUMPDEST PUSH1 0x0 PUSH2 0x26E PUSH1 0x1 NUMBER PUSH2 0x5A0 JUMP JUMPDEST BLOCKHASH SWAP1 POP SWAP1 JUMP JUMPDEST PUSH4 0x4E487B71 PUSH1 0xE0 SHL PUSH1 0x0 MSTORE PUSH1 0x41 PUSH1 0x4 MSTORE PUSH1 0x24 PUSH1 0x0 REVERT JUMPDEST PUSH1 0x40 DUP1 MLOAD SWAP1 DUP2 ADD PUSH8 0xFFFFFFFFFFFFFFFF DUP2 GT DUP3 DUP3 LT OR ISZERO PUSH2 0x2AD JUMPI PUSH2 0x2AD PUSH2 0x274 JUMP JUMPDEST PUSH1 0x40 MSTORE SWAP1 JUMP JUMPDEST PUSH1 0x40 MLOAD PUSH1 0x1F DUP3 ADD PUSH1 0x1F NOT AND DUP2 ADD PUSH8 0xFFFFFFFFFFFFFFFF DUP2 GT DUP3 DUP3 LT OR ISZERO PUSH2 0x2DC JUMPI PUSH2 0x2DC PUSH2 0x274 JUMP JUMPDEST PUSH1 0x40 MSTORE SWAP2 SWAP1 POP JUMP JUMPDEST DUP1 CALLDATALOAD PUSH1 0x1 PUSH1 0x1 PUSH1 0xA0 SHL SUB DUP2 AND DUP2 EQ PUSH2 0x2FB JUMPI PUSH1 0x0 DUP1 REVERT JUMPDEST SWAP2 SWAP1 POP JUMP JUMPDEST PUSH1 0x0 PUSH1 0x20 DUP1 DUP4 DUP6 SUB SLT ISZERO PUSH2 0x313 JUMPI PUSH1 0x0 DUP1 REVERT JUMPDEST DUP3 CALLDATALOAD PUSH8 0xFFFFFFFFFFFFFFFF DUP1 DUP3 GT ISZERO PUSH2 0x32B JUMPI PUSH1 0x0 DUP1 REVERT JUMPDEST DUP2 DUP6 ADD SWAP2 POP DUP6 PUSH1 0x1F DUP4 ADD SLT PUSH2 0x33F JUMPI PUSH1 0x0 DUP1 REVERT JUMPDEST DUP2 CALLDATALOAD DUP2 DUP2 GT ISZERO PUSH2 0x351 JUMPI PUSH2 0x351 PUSH2 0x274 JUMP JUMPDEST DUP1 PUSH1 0x5 SHL PUSH2 0x360 DUP6 DUP3 ADD PUSH2 0x2B3 JUMP JUMPDEST SWAP2 DUP3 MSTORE DUP4 DUP2 ADD DUP6 ADD SWAP2 DUP6 DUP2 ADD SWAP1 DUP10 DUP5 GT ISZERO PUSH2 0x37A JUMPI PUSH1 0x0 DUP1 REVERT JUMPDEST DUP7 DUP7 ADD SWAP3 POP JUMPDEST DUP4 DUP4 LT ISZERO PUSH2 0x451 JUMPI DUP3 CALLDATALOAD DUP6 DUP2 GT ISZERO PUSH2 0x398 JUMPI PUSH1 0x0 DUP1 DUP2 REVERT JUMPDEST DUP7 ADD PUSH1 0x40 PUSH1 0x1F NOT DUP3 DUP14 SUB DUP2 ADD DUP3 SGT ISZERO PUSH2 0x3B1 JUMPI PUSH1 0x0 DUP1 DUP2 REVERT JUMPDEST PUSH2 0x3B9 PUSH2 0x28A JUMP JUMPDEST PUSH2 0x3C4 DUP12 DUP6 ADD PUSH2 0x2E4 JUMP JUMPDEST DUP2 MSTORE DUP3 DUP5 ADD CALLDATALOAD DUP10 DUP2 GT ISZERO PUSH2 0x3D8 JUMPI PUSH1 0x0 DUP1 DUP2 REVERT JUMPDEST DUP1 DUP6 ADD SWAP5 POP POP DUP14 PUSH1 0x3F DUP6 ADD SLT PUSH2 0x3EE JUMPI PUSH1 0x0 DUP1 DUP2 REVERT JUMPDEST DUP11 DUP5 ADD CALLDATALOAD DUP10 DUP2 GT ISZERO PUSH2 0x402 JUMPI PUSH2 0x402 PUSH2 0x274 JUMP JUMPDEST PUSH2 0x412 DUP13 DUP5 PUSH1 0x1F DUP5 ADD AND ADD PUSH2 0x2B3 JUMP JUMPDEST SWAP3 POP DUP1 DUP4 MSTORE DUP15 DUP5 DUP3 DUP8 ADD ADD GT ISZERO PUSH2 0x429 JUMPI PUSH1 0x0 DUP1 DUP2 REVERT JUMPDEST DUP1 DUP5 DUP7 ADD DUP14 DUP6 ADD CALLDATACOPY PUSH1 0x0 SWAP1 DUP4 ADD DUP13 ADD MSTORE DUP1 DUP12 ADD SWAP2 SWAP1 SWAP2 MSTORE DUP5 MSTORE POP POP SWAP2 DUP7 ADD SWAP2 SWAP1 DUP7 ADD SWAP1 PUSH2 0x380 JUMP JUMPDEST SWAP10 SWAP9 POP POP POP POP POP POP POP POP POP JUMP JUMPDEST PUSH1 0x0 JUMPDEST DUP4 DUP2 LT ISZERO PUSH2 0x479 JUMPI DUP2 DUP2 ADD MLOAD DUP4 DUP3 ADD MSTORE PUSH1 0x20 ADD PUSH2 0x461 JUMP JUMPDEST POP POP PUSH1 0x0 SWAP2 ADD MSTORE JUMP JUMPDEST PUSH1 0x0 PUSH1 0x40 DUP3 ADD DUP5 DUP4 MSTORE PUSH1 0x20 PUSH1 0x40 DUP2 DUP6 ADD MSTORE DUP2 DUP6 MLOAD DUP1 DUP5 MSTORE PUSH1 0x60 DUP7 ADD SWAP2 POP PUSH1 0x60 DUP2 PUSH1 0x5 SHL DUP8 ADD ADD SWAP4 POP DUP3 DUP8 ADD PUSH1 0x0 JUMPDEST DUP3 DUP2 LT ISZERO PUSH2 0x4F6 JUMPI DUP8 DUP7 SUB PUSH1 0x5F NOT ADD DUP5 MSTORE DUP2 MLOAD DUP1 MLOAD DUP1 DUP9 MSTORE PUSH2 0x4D7 DUP2 DUP9 DUP11 ADD DUP10 DUP6 ADD PUSH2 0x45E JUMP JUMPDEST PUSH1 0x1F ADD PUSH1 0x1F NOT AND SWAP7 SWAP1 SWAP7 ADD DUP6 ADD SWAP6 POP SWAP3 DUP5 ADD SWAP3 SWAP1 DUP5 ADD SWAP1 PUSH1 0x1 ADD PUSH2 0x4B0 JUMP JUMPDEST POP SWAP4 SWAP9 SWAP8 POP POP POP POP POP POP POP POP JUMP JUMPDEST PUSH1 0x0 PUSH1 0x20 DUP3 DUP5 SUB SLT ISZERO PUSH2 0x516 JUMPI PUSH1 0x0 DUP1 REVERT JUMPDEST PUSH2 0x51F DUP3 PUSH2 0x2E4 JUMP JUMPDEST SWAP4 SWAP3 POP POP POP JUMP JUMPDEST PUSH1 0x0 PUSH1 0x20 DUP3 DUP5 SUB SLT ISZERO PUSH2 0x538 JUMPI PUSH1 0x0 DUP1 REVERT JUMPDEST POP CALLDATALOAD SWAP2 SWAP1 POP JUMP JUMPDEST PUSH4 0x4E487B71 PUSH1 0xE0 SHL PUSH1 0x0 MSTORE PUSH1 0x32 PUSH1 0x4 MSTORE PUSH1 0x24 PUSH1 0x0 REVERT JUMPDEST PUSH1 0x0 DUP3 MLOAD PUSH2 0x567 DUP2 DUP5 PUSH1 0x20 DUP8 ADD PUSH2 0x45E JUMP JUMPDEST SWAP2 SWAP1 SWAP2 ADD SWAP3 SWAP2 POP POP JUMP JUMPDEST PUSH4 0x4E487B71 PUSH1 0xE0 SHL PUSH1 0x0 MSTORE PUSH1 0x11 PUSH1 0x4 MSTORE PUSH1 0x24 PUSH1 0x0 REVERT JUMPDEST PUSH1 0x0 PUSH1 0x1 DUP3 ADD PUSH2 0x599 JUMPI PUSH2 0x599 PUSH2 0x571 JUMP JUMPDEST POP PUSH1 0x1 ADD SWAP1 JUMP JUMPDEST DUP2 DUP2 SUB DUP2 DUP2 GT ISZERO PUSH2 0x5B3 JUMPI PUSH2 0x5B3 PUSH2 0x571 JUMP JUMPDEST SWAP3 SWAP2 POP POP JUMP INVALID LOG2 PUSH5 0x6970667358 0x22 SLT KECCAK256 0x2A DELEGATECALL DIV DUP5 STOP SWAP6 CODESIZE 0xC0 0xB7 LOG4 PUSH17 0x985D7F81B0E324FFE2F7E84DBA8E34C9DC LOG4 0x21 0x4C BASEFEE PUSH5 0x736F6C6343 STOP ADDMOD SLT STOP CALLER "},"methodIdentifiers":{"aggregate((address,bytes)[])":"252dba42","getBasefee()":"3e64a696","getBlockHash(uint256)":"ee82ac5e","getChainId()":"3408e470","getCurrentBlockCoinbase()":"a8b0574e","getCurrentBlockGasLimit()":"86d516e8","getCurrentBlockTimestamp()":"0f28c97d","getEthBalance(address)":"4d2301cc","getLastBlockHash()":"27e86d6e"}}}}}