{"contracts/wallet/WalletFactory.sol":{"WalletFactory":{"abi":[{"inputs":[{"internalType":"address","name":"_owner","type":"address"}],"stateMutability":"nonpayable","type":"constructor"},{"anonymous":false,"inputs":[{"indexed":true,"internalType":"address","name":"wallet","type":"address"},{"indexed":false,"internalType":"address","name":"walletOwner","type":"address"},{"indexed":false,"internalType":"address","name":"bundler","type":"address"}],"name":"WalletCreated","type":"event"},{"inputs":[{"internalType":"bytes32","name":"salt","type":"bytes32"}],"name":"computeWalletAddr","outputs":[{"internalType":"address","name":"","type":"address"}],"stateMutability":"view","type":"function"},{"inputs":[{"internalType":"bytes32","name":"salt","type":"bytes32"},{"internalType":"address","name":"walletOwner","type":"address"},{"internalType":"address","name":"bundler","type":"address"}],"name":"createWallet","outputs":[{"internalType":"address","name":"","type":"address"}],"stateMutability":"nonpayable","type":"function"},{"inputs":[],"name":"owner","outputs":[{"internalType":"address","name":"","type":"address"}],"stateMutability":"view","type":"function"},{"inputs":[{"internalType":"address","name":"","type":"address"}],"name":"wallets","outputs":[{"internalType":"bool","name":"","type":"bool"}],"stateMutability":"view","type":"function"}],"evm":{"bytecode":{"linkReferences":{},"object":"60a060405234801561001057600080fd5b50604051611c43380380611c4383398101604081905261002f91610040565b6001600160a01b0316608052610070565b60006020828403121561005257600080fd5b81516001600160a01b038116811461006957600080fd5b9392505050565b608051611bb361009060003960008181608e015260f20152611bb36000f3fe608060405234801561001057600080fd5b506004361061004c5760003560e01c806389b08f11146100515780638da5cb5b14610089578063ac35b1d4146100c8578063ef32a249146100db575b600080fd5b61007461005f36600461033b565b60006020819052908152604090205460ff1681565b60405190151581526020015b60405180910390f35b6100b07f000000000000000000000000000000000000000000000000000000000000000081565b6040516001600160a01b039091168152602001610080565b6100b06100d636600461035d565b6100ee565b6100b06100e9366004610399565b610277565b60007f00000000000000000000000000000000000000000000000000000000000000006001600160a01b031633146101775760405162461bcd60e51b815260206004820152602260248201527f6f6e6c794f776e65723a2063616c6c6572206973206e6f7420746865206f776e60448201526132b960f11b606482015260840160405180910390fd5b60008460405161018690610312565b8190604051809103906000f59050801580156101a6573d6000803e3d6000fd5b5060405163784d200b60e11b81526001600160a01b03868116600483015285811660248301529192509082169063f09a401690604401600060405180830381600087803b1580156101f657600080fd5b505af115801561020a573d6000803e3d6000fd5b505050506001600160a01b0381811660008181526020818152604091829020805460ff19166001179055815188851681529387169084015290917fca0b7dde26052d34217ef1a0cee48085a07ca32da0a918609937a307d496bbf5910160405180910390a2949350505050565b60008060ff60f81b30846040518060200161029190610312565b6020820181038252601f19601f82011660405250805190602001206040516020016102f394939291906001600160f81b031994909416845260609290921b6bffffffffffffffffffffffff191660018401526015830152603582015260550190565b60408051601f1981840301815291905280516020909101209392505050565b6117cb806103b383390190565b80356001600160a01b038116811461033657600080fd5b919050565b60006020828403121561034d57600080fd5b6103568261031f565b9392505050565b60008060006060848603121561037257600080fd5b833592506103826020850161031f565b91506103906040850161031f565b90509250925092565b6000602082840312156103ab57600080fd5b503591905056fe60a06040526000805464ffffffff00191661010017905534801561002257600080fd5b5030608052608051611766610065600039600081816106ac015281816107d3015281816108ed01528181610ad501528181610b420152610c6a01526117666000f3fe6080604052600436106101025760003560e01c80638da5cb5b11610095578063b75814e511610064578063b75814e5146102ad578063c1991219146102ed578063e52903b414610324578063ebaf3eb514610344578063f09a40161461035957600080fd5b80638da5cb5b14610222578063a6f9dae114610249578063ad0ffd8b14610269578063afd2d31a1461028957600080fd5b806356e7b7aa116100d157806356e7b7aa146101ad578063797de9c2146101cd5780637e4a1196146101ed578063801013721461020d57600080fd5b8063138398971461010e578063142d328d1461014b57806325460f861461016d5780633c69640f1461018d57600080fd5b3661010957005b600080fd5b34801561011a57600080fd5b5060035461012e906001600160a01b031681565b6040516001600160a01b0390911681526020015b60405180910390f35b34801561015757600080fd5b5061016b6101663660046112e2565b610379565b005b34801561017957600080fd5b5061016b610188366004611370565b6105a1565b34801561019957600080fd5b5061016b6101a83660046113a5565b61068f565b3480156101b957600080fd5b5061016b6101c8366004611444565b6107d1565b3480156101d957600080fd5b5061016b6101e8366004611497565b6108d0565b3480156101f957600080fd5b5060025461012e906001600160a01b031681565b34801561021957600080fd5b5061016b61096c565b34801561022e57600080fd5b5060005461012e90600160281b90046001600160a01b031681565b34801561025557600080fd5b5061016b6102643660046114d9565b610ab8565b34801561027557600080fd5b5060015461012e906001600160a01b031681565b34801561029557600080fd5b5061029f60045481565b604051908152602001610142565b3480156102b957600080fd5b506102dd6102c8366004611370565b60056020526000908152604090205460ff1681565b6040519015158152602001610142565b3480156102f957600080fd5b5060005461030f90610100900463ffffffff1681565b60405163ffffffff9091168152602001610142565b34801561033057600080fd5b5061016b61033f3660046114d9565b610b25565b34801561035057600080fd5b5061016b610c4d565b34801561036557600080fd5b5061016b6103743660046114fb565b610cce565b6001546001600160a01b031633146103ac5760405162461bcd60e51b81526004016103a39061152e565b60405180910390fd5b428363ffffffff1610156103fa5760405162461bcd60e51b8152602060048201526015602482015274185d1bdb54da59db90d85b1b0e88115e1c1a5c9959605a1b60448201526064016103a3565b6000808036602061040b868361158a565b610415919061158a565b926104229392919061159d565b60005460405161045093929146913060601b91610100900460e01b6001600160e01b031916906020016115c7565b60408051601f1981840301815291815281516020928301206000818152600590935291205490915060ff16156104c85760405162461bcd60e51b815260206004820152601a60248201527f61746f6d5369676e43616c6c3a2055736564206d73674861736800000000000060448201526064016103a3565b61051383838080601f01602080910402602001604051908101604052809392919081815260200183838082843760009201919091525061050d9250859150610d609050565b90610db3565b600054600160281b90046001600160a01b039081169116146105775760405162461bcd60e51b815260206004820152601f60248201527f61746f6d5369676e43616c6c3a20496e76616c6964205369676e61747572650060448201526064016103a3565b6105818686610dd9565b6000908152600560205260409020805460ff191660011790555050505050565b6003546001600160a01b0316331461062f5760405162461bcd60e51b8152602060048201526044602482018190527f6f6e6c795075626c6963536f6369616c5265636f766572793a2063616c6c6572908201527f206973206e6f7420746865206f6e6c795075626c6963536f6369616c5265636f6064820152637665727960e01b608482015260a4016103a3565b60a081901c6004036106475761064481610f3c565b50565b60405162461bcd60e51b815260206004820152601a60248201527f61646f707450726f706f73616c3a20756e737570706f7274656400000000000060448201526064016103a3565b600054600160281b90046001600160a01b03163314806106d757507f00000000000000000000000000000000000000000000000000000000000000006001600160a01b031633145b6106f35760405162461bcd60e51b81526004016103a3906115ff565b6003546001600160a01b0316156107565760405162461bcd60e51b815260206004820152602160248201527f696e6974536f6369616c5265636f766572793a20616c726561647920657869736044820152601d60fa1b60648201526084016103a3565b600380546001600160a01b0319166001600160a01b038616908117909155604051631336ebff60e11b815263266dd7fe906107999086908690869060040161164c565b600060405180830381600087803b1580156107b357600080fd5b505af11580156107c7573d6000803e3d6000fd5b5050505050505050565b7f00000000000000000000000000000000000000000000000000000000000000006001600160a01b0316331461085a5760405162461bcd60e51b815260206004820152602860248201527f6f6e6c794f726967696e616c3a2063616c6c6572206973206e6f7420746865206044820152671bdc9a59da5b985b60c21b60648201526084016103a3565b600080846001600160a01b031684846040516108779291906116a4565b600060405180830381855af49150503d80600081146108b2576040519150601f19603f3d011682016040523d82523d6000602084013e6108b7565b606091505b5091509150816108c957805160208201fd5b5050505050565b600054600160281b90046001600160a01b031633148061091857507f00000000000000000000000000000000000000000000000000000000000000006001600160a01b031633145b6109345760405162461bcd60e51b81526004016103a3906115ff565b6001546001600160a01b0316331461095e5760405162461bcd60e51b81526004016103a39061152e565b6109688282610dd9565b5050565b6002546001600160a01b031633146109e35760405162461bcd60e51b815260206004820152603460248201527f6f6e6c7950656e64696e6742756e646c65723a2063616c6c6572206973206e6f6044820152733a103a3432903832b73234b733a13ab7323632b960611b60648201526084016103a3565b6004546109f39062093a806116b4565b4211610a4c5760405162461bcd60e51b815260206004820152602260248201527f726573657442756e646c65723a206e65656473203720646179732070656e64696044820152616e6760f01b60648201526084016103a3565b60028054600180546001600160a01b0383166001600160a01b03199182168117909255909116909155600060048190556040805192835260208301919091527f81932e26d3d6b8d613dd60331202ebefe49c5008c05597954a66138b6c505b25910160405180910390a1565b600054600160281b90046001600160a01b0316331480610b0057507f00000000000000000000000000000000000000000000000000000000000000006001600160a01b031633145b610b1c5760405162461bcd60e51b81526004016103a3906115ff565b61064481610f3c565b600054600160281b90046001600160a01b0316331480610b6d57507f00000000000000000000000000000000000000000000000000000000000000006001600160a01b031633145b610b895760405162461bcd60e51b81526004016103a3906115ff565b610b91610c4d565b600280546001600160a01b0319166001600160a01b038316908117909155610c01576000600455600154604080516001600160a01b0390921680835260208301527f81932e26d3d6b8d613dd60331202ebefe49c5008c05597954a66138b6c505b2591015b60405180910390a150565b42600455600154600254604080516001600160a01b0393841681529290911660208301527fbd265fea90ed2756df9ac57b162d7d95b2bbd80e1720fca48d685e4a5a7e4c6c9101610bf6565b600054600160281b90046001600160a01b0316331480610c9557507f00000000000000000000000000000000000000000000000000000000000000006001600160a01b031633145b610cb15760405162461bcd60e51b81526004016103a3906115ff565b6000805464ffffffff001916610100434063ffffffff1602179055565b60005460ff1615610d195760405162461bcd60e51b8152602060048201526015602482015274696e697428292072756e73206f6e6c79206f6e636560581b60448201526064016103a3565b60008054600180546001600160a01b039485166001600160a01b031990911617815593909216600160281b0264ffffffff01600160c81b0319909216919091179091179055565b6040517f19457468657265756d205369676e6564204d6573736167653a0a3332000000006020820152603c8101829052600090605c01604051602081830303815290604052805190602001209050919050565b6000806000610dc28585610fb8565b91509150610dcf81610ffd565b5090505b92915050565b60005b81811015610f37576000838284610df48260146116b4565b92610e019392919061159d565b610e0a916116c7565b60601c905060008484610e1e8560146116b4565b90610e2a8660346116b4565b92610e379392919061159d565b610e40916116fc565b905060008585610e518660346116b4565b90610e5d8760546116b4565b92610e6a9392919061159d565b610e73916116fc565b90506000806001600160a01b038516848989610e908a60546116b4565b9087610e9d8c60546116b4565b610ea791906116b4565b92610eb49392919061159d565b604051610ec29291906116a4565b60006040518083038185875af1925050503d8060008114610eff576040519150601f19603f3d011682016040523d82523d6000602084013e610f04565b606091505b509150915081610f1657805160208201fd5b610f218360546116b4565b610f2b90876116b4565b95505050505050610ddc565b505050565b600054604080516001600160a01b03600160281b9093048316815291831660208301527fb532073b38c83145e3e5135377a08bf9aab55bc0fd7c1179cd4fb995d2a5159c910160405180910390a1600080546001600160a01b03909216600160281b0265010000000000600160c81b0319909216919091179055565b6000808251604103610fee5760208301516040840151606085015160001a610fe2878285856111b3565b94509450505050610ff6565b506000905060025b9250929050565b60008160048111156110115761101161171a565b036110195750565b600181600481111561102d5761102d61171a565b0361107a5760405162461bcd60e51b815260206004820152601860248201527f45434453413a20696e76616c6964207369676e6174757265000000000000000060448201526064016103a3565b600281600481111561108e5761108e61171a565b036110db5760405162461bcd60e51b815260206004820152601f60248201527f45434453413a20696e76616c6964207369676e6174757265206c656e6774680060448201526064016103a3565b60038160048111156110ef576110ef61171a565b036111475760405162461bcd60e51b815260206004820152602260248201527f45434453413a20696e76616c6964207369676e6174757265202773272076616c604482015261756560f01b60648201526084016103a3565b600481600481111561115b5761115b61171a565b036106445760405162461bcd60e51b815260206004820152602260248201527f45434453413a20696e76616c6964207369676e6174757265202776272076616c604482015261756560f01b60648201526084016103a3565b6000807f7fffffffffffffffffffffffffffffff5d576e7357a4501ddfe92f46681b20a08311156111ea5750600090506003611297565b8460ff16601b1415801561120257508460ff16601c14155b156112135750600090506004611297565b6040805160008082526020820180845289905260ff881692820192909252606081018690526080810185905260019060a0016020604051602081039080840390855afa158015611267573d6000803e3d6000fd5b5050604051601f1901519150506001600160a01b03811661129057600060019250925050611297565b9150600090505b94509492505050565b60008083601f8401126112b257600080fd5b50813567ffffffffffffffff8111156112ca57600080fd5b602083019150836020828501011115610ff657600080fd5b6000806000806000606086880312156112fa57600080fd5b853567ffffffffffffffff8082111561131257600080fd5b61131e89838a016112a0565b90975095506020880135915063ffffffff8216821461133c57600080fd5b9093506040870135908082111561135257600080fd5b5061135f888289016112a0565b969995985093965092949392505050565b60006020828403121561138257600080fd5b5035919050565b80356001600160a01b03811681146113a057600080fd5b919050565b600080600080606085870312156113bb57600080fd5b6113c485611389565b9350602085013567ffffffffffffffff808211156113e157600080fd5b818701915087601f8301126113f557600080fd5b81358181111561140457600080fd5b8860208260051b850101111561141957600080fd5b602083019550809450505050604085013560ff8116811461143957600080fd5b939692955090935050565b60008060006040848603121561145957600080fd5b61146284611389565b9250602084013567ffffffffffffffff81111561147e57600080fd5b61148a868287016112a0565b9497909650939450505050565b600080602083850312156114aa57600080fd5b823567ffffffffffffffff8111156114c157600080fd5b6114cd858286016112a0565b90969095509350505050565b6000602082840312156114eb57600080fd5b6114f482611389565b9392505050565b6000806040838503121561150e57600080fd5b61151783611389565b915061152560208401611389565b90509250929050565b60208082526026908201527f6f6e6c7942756e646c65723a2063616c6c6572206973206e6f742074686520626040820152653ab7323632b960d11b606082015260800190565b634e487b7160e01b600052601160045260246000fd5b81810381811115610dd357610dd3611574565b600080858511156115ad57600080fd5b838611156115ba57600080fd5b5050820193919092039150565b848682379093019182526bffffffffffffffffffffffff191660208201526001600160e01b0319919091166034820152603801919050565b6020808252602d908201527f6f6e6c794f776e6572416e644f726967696e616c3a2063616c6c65722069732060408201526c3737ba103a34329037bbb732b960991b606082015260800190565b6040808252810183905260008460608301825b8681101561168d576001600160a01b0361167884611389565b1682526020928301929091019060010161165f565b50809250505060ff83166020830152949350505050565b8183823760009101908152919050565b80820180821115610dd357610dd3611574565b6bffffffffffffffffffffffff1981358181169160148510156116f45780818660140360031b1b83161692505b505092915050565b80356020831015610dd357600019602084900360031b1b1692915050565b634e487b7160e01b600052602160045260246000fdfea26469706673582212207422aa84f16d1be2373d235fe3f2a3c365b0ef975fff4ec750a00e6b7b594ba064736f6c63430008120033a2646970667358221220f5ed3e8773ae93377566fe2ed757b45dd2028fb95320c1190b00b80ba529a77064736f6c63430008120033","opcodes":"PUSH1 0xA0 PUSH1 0x40 MSTORE CALLVALUE DUP1 ISZERO PUSH2 0x10 JUMPI PUSH1 0x0 DUP1 REVERT JUMPDEST POP PUSH1 0x40 MLOAD PUSH2 0x1C43 CODESIZE SUB DUP1 PUSH2 0x1C43 DUP4 CODECOPY DUP2 ADD PUSH1 0x40 DUP2 SWAP1 MSTORE PUSH2 0x2F SWAP2 PUSH2 0x40 JUMP JUMPDEST PUSH1 0x1 PUSH1 0x1 PUSH1 0xA0 SHL SUB AND PUSH1 0x80 MSTORE PUSH2 0x70 JUMP JUMPDEST PUSH1 0x0 PUSH1 0x20 DUP3 DUP5 SUB SLT ISZERO PUSH2 0x52 JUMPI PUSH1 0x0 DUP1 REVERT JUMPDEST DUP2 MLOAD PUSH1 0x1 PUSH1 0x1 PUSH1 0xA0 SHL SUB DUP2 AND DUP2 EQ PUSH2 0x69 JUMPI PUSH1 0x0 DUP1 REVERT JUMPDEST SWAP4 SWAP3 POP POP POP JUMP JUMPDEST PUSH1 0x80 MLOAD PUSH2 0x1BB3 PUSH2 0x90 PUSH1 0x0 CODECOPY PUSH1 0x0 DUP2 DUP2 PUSH1 0x8E ADD MSTORE PUSH1 0xF2 ADD MSTORE PUSH2 0x1BB3 PUSH1 0x0 RETURN INVALID PUSH1 0x80 PUSH1 0x40 MSTORE CALLVALUE DUP1 ISZERO PUSH2 0x10 JUMPI PUSH1 0x0 DUP1 REVERT JUMPDEST POP PUSH1 0x4 CALLDATASIZE LT PUSH2 0x4C JUMPI PUSH1 0x0 CALLDATALOAD PUSH1 0xE0 SHR DUP1 PUSH4 0x89B08F11 EQ PUSH2 0x51 JUMPI DUP1 PUSH4 0x8DA5CB5B EQ PUSH2 0x89 JUMPI DUP1 PUSH4 0xAC35B1D4 EQ PUSH2 0xC8 JUMPI DUP1 PUSH4 0xEF32A249 EQ PUSH2 0xDB JUMPI JUMPDEST PUSH1 0x0 DUP1 REVERT JUMPDEST PUSH2 0x74 PUSH2 0x5F CALLDATASIZE PUSH1 0x4 PUSH2 0x33B JUMP JUMPDEST PUSH1 0x0 PUSH1 0x20 DUP2 SWAP1 MSTORE SWAP1 DUP2 MSTORE PUSH1 0x40 SWAP1 KECCAK256 SLOAD PUSH1 0xFF AND DUP2 JUMP JUMPDEST PUSH1 0x40 MLOAD SWAP1 ISZERO ISZERO DUP2 MSTORE PUSH1 0x20 ADD JUMPDEST PUSH1 0x40 MLOAD DUP1 SWAP2 SUB SWAP1 RETURN JUMPDEST PUSH2 0xB0 PUSH32 0x0 DUP2 JUMP JUMPDEST PUSH1 0x40 MLOAD PUSH1 0x1 PUSH1 0x1 PUSH1 0xA0 SHL SUB SWAP1 SWAP2 AND DUP2 MSTORE PUSH1 0x20 ADD PUSH2 0x80 JUMP JUMPDEST PUSH2 0xB0 PUSH2 0xD6 CALLDATASIZE PUSH1 0x4 PUSH2 0x35D JUMP JUMPDEST PUSH2 0xEE JUMP JUMPDEST PUSH2 0xB0 PUSH2 0xE9 CALLDATASIZE PUSH1 0x4 PUSH2 0x399 JUMP JUMPDEST PUSH2 0x277 JUMP JUMPDEST PUSH1 0x0 PUSH32 0x0 PUSH1 0x1 PUSH1 0x1 PUSH1 0xA0 SHL SUB AND CALLER EQ PUSH2 0x177 JUMPI PUSH1 0x40 MLOAD PUSH3 0x461BCD PUSH1 0xE5 SHL DUP2 MSTORE PUSH1 0x20 PUSH1 0x4 DUP3 ADD MSTORE PUSH1 0x22 PUSH1 0x24 DUP3 ADD MSTORE PUSH32 0x6F6E6C794F776E65723A2063616C6C6572206973206E6F7420746865206F776E PUSH1 0x44 DUP3 ADD MSTORE PUSH2 0x32B9 PUSH1 0xF1 SHL PUSH1 0x64 DUP3 ADD MSTORE PUSH1 0x84 ADD PUSH1 0x40 MLOAD DUP1 SWAP2 SUB SWAP1 REVERT JUMPDEST PUSH1 0x0 DUP5 PUSH1 0x40 MLOAD PUSH2 0x186 SWAP1 PUSH2 0x312 JUMP JUMPDEST DUP2 SWAP1 PUSH1 0x40 MLOAD DUP1 SWAP2 SUB SWAP1 PUSH1 0x0 CREATE2 SWAP1 POP DUP1 ISZERO DUP1 ISZERO PUSH2 0x1A6 JUMPI RETURNDATASIZE PUSH1 0x0 DUP1 RETURNDATACOPY RETURNDATASIZE PUSH1 0x0 REVERT JUMPDEST POP PUSH1 0x40 MLOAD PUSH4 0x784D200B PUSH1 0xE1 SHL DUP2 MSTORE PUSH1 0x1 PUSH1 0x1 PUSH1 0xA0 SHL SUB DUP7 DUP2 AND PUSH1 0x4 DUP4 ADD MSTORE DUP6 DUP2 AND PUSH1 0x24 DUP4 ADD MSTORE SWAP2 SWAP3 POP SWAP1 DUP3 AND SWAP1 PUSH4 0xF09A4016 SWAP1 PUSH1 0x44 ADD PUSH1 0x0 PUSH1 0x40 MLOAD DUP1 DUP4 SUB DUP2 PUSH1 0x0 DUP8 DUP1 EXTCODESIZE ISZERO DUP1 ISZERO PUSH2 0x1F6 JUMPI PUSH1 0x0 DUP1 REVERT JUMPDEST POP GAS CALL ISZERO DUP1 ISZERO PUSH2 0x20A JUMPI RETURNDATASIZE PUSH1 0x0 DUP1 RETURNDATACOPY RETURNDATASIZE PUSH1 0x0 REVERT JUMPDEST POP POP POP POP PUSH1 0x1 PUSH1 0x1 PUSH1 0xA0 SHL SUB DUP2 DUP2 AND PUSH1 0x0 DUP2 DUP2 MSTORE PUSH1 0x20 DUP2 DUP2 MSTORE PUSH1 0x40 SWAP2 DUP3 SWAP1 KECCAK256 DUP1 SLOAD PUSH1 0xFF NOT AND PUSH1 0x1 OR SWAP1 SSTORE DUP2 MLOAD DUP9 DUP6 AND DUP2 MSTORE SWAP4 DUP8 AND SWAP1 DUP5 ADD MSTORE SWAP1 SWAP2 PUSH32 0xCA0B7DDE26052D34217EF1A0CEE48085A07CA32DA0A918609937A307D496BBF5 SWAP2 ADD PUSH1 0x40 MLOAD DUP1 SWAP2 SUB SWAP1 LOG2 SWAP5 SWAP4 POP POP POP POP JUMP JUMPDEST PUSH1 0x0 DUP1 PUSH1 0xFF PUSH1 0xF8 SHL ADDRESS DUP5 PUSH1 0x40 MLOAD DUP1 PUSH1 0x20 ADD PUSH2 0x291 SWAP1 PUSH2 0x312 JUMP JUMPDEST PUSH1 0x20 DUP3 ADD DUP2 SUB DUP3 MSTORE PUSH1 0x1F NOT PUSH1 0x1F DUP3 ADD AND PUSH1 0x40 MSTORE POP DUP1 MLOAD SWAP1 PUSH1 0x20 ADD KECCAK256 PUSH1 0x40 MLOAD PUSH1 0x20 ADD PUSH2 0x2F3 SWAP5 SWAP4 SWAP3 SWAP2 SWAP1 PUSH1 0x1 PUSH1 0x1 PUSH1 0xF8 SHL SUB NOT SWAP5 SWAP1 SWAP5 AND DUP5 MSTORE PUSH1 0x60 SWAP3 SWAP1 SWAP3 SHL PUSH12 0xFFFFFFFFFFFFFFFFFFFFFFFF NOT AND PUSH1 0x1 DUP5 ADD MSTORE PUSH1 0x15 DUP4 ADD MSTORE PUSH1 0x35 DUP3 ADD MSTORE PUSH1 0x55 ADD SWAP1 JUMP JUMPDEST PUSH1 0x40 DUP1 MLOAD PUSH1 0x1F NOT DUP2 DUP5 SUB ADD DUP2 MSTORE SWAP2 SWAP1 MSTORE DUP1 MLOAD PUSH1 0x20 SWAP1 SWAP2 ADD KECCAK256 SWAP4 SWAP3 POP POP POP JUMP JUMPDEST PUSH2 0x17CB DUP1 PUSH2 0x3B3 DUP4 CODECOPY ADD SWAP1 JUMP JUMPDEST DUP1 CALLDATALOAD PUSH1 0x1 PUSH1 0x1 PUSH1 0xA0 SHL SUB DUP2 AND DUP2 EQ PUSH2 0x336 JUMPI PUSH1 0x0 DUP1 REVERT JUMPDEST SWAP2 SWAP1 POP JUMP JUMPDEST PUSH1 0x0 PUSH1 0x20 DUP3 DUP5 SUB SLT ISZERO PUSH2 0x34D JUMPI PUSH1 0x0 DUP1 REVERT JUMPDEST PUSH2 0x356 DUP3 PUSH2 0x31F JUMP JUMPDEST SWAP4 SWAP3 POP POP POP JUMP JUMPDEST PUSH1 0x0 DUP1 PUSH1 0x0 PUSH1 0x60 DUP5 DUP7 SUB SLT ISZERO PUSH2 0x372 JUMPI PUSH1 0x0 DUP1 REVERT JUMPDEST DUP4 CALLDATALOAD SWAP3 POP PUSH2 0x382 PUSH1 0x20 DUP6 ADD PUSH2 0x31F JUMP JUMPDEST SWAP2 POP PUSH2 0x390 PUSH1 0x40 DUP6 ADD PUSH2 0x31F JUMP JUMPDEST SWAP1 POP SWAP3 POP SWAP3 POP SWAP3 JUMP JUMPDEST PUSH1 0x0 PUSH1 0x20 DUP3 DUP5 SUB SLT ISZERO PUSH2 0x3AB JUMPI PUSH1 0x0 DUP1 REVERT JUMPDEST POP CALLDATALOAD SWAP2 SWAP1 POP JUMP INVALID PUSH1 0xA0 PUSH1 0x40 MSTORE PUSH1 0x0 DUP1 SLOAD PUSH5 0xFFFFFFFF00 NOT AND PUSH2 0x100 OR SWAP1 SSTORE CALLVALUE DUP1 ISZERO PUSH2 0x22 JUMPI PUSH1 0x0 DUP1 REVERT JUMPDEST POP ADDRESS PUSH1 0x80 MSTORE PUSH1 0x80 MLOAD PUSH2 0x1766 PUSH2 0x65 PUSH1 0x0 CODECOPY PUSH1 0x0 DUP2 DUP2 PUSH2 0x6AC ADD MSTORE DUP2 DUP2 PUSH2 0x7D3 ADD MSTORE DUP2 DUP2 PUSH2 0x8ED ADD MSTORE DUP2 DUP2 PUSH2 0xAD5 ADD MSTORE DUP2 DUP2 PUSH2 0xB42 ADD MSTORE PUSH2 0xC6A ADD MSTORE PUSH2 0x1766 PUSH1 0x0 RETURN INVALID PUSH1 0x80 PUSH1 0x40 MSTORE PUSH1 0x4 CALLDATASIZE LT PUSH2 0x102 JUMPI PUSH1 0x0 CALLDATALOAD PUSH1 0xE0 SHR DUP1 PUSH4 0x8DA5CB5B GT PUSH2 0x95 JUMPI DUP1 PUSH4 0xB75814E5 GT PUSH2 0x64 JUMPI DUP1 PUSH4 0xB75814E5 EQ PUSH2 0x2AD JUMPI DUP1 PUSH4 0xC1991219 EQ PUSH2 0x2ED JUMPI DUP1 PUSH4 0xE52903B4 EQ PUSH2 0x324 JUMPI DUP1 PUSH4 0xEBAF3EB5 EQ PUSH2 0x344 JUMPI DUP1 PUSH4 0xF09A4016 EQ PUSH2 0x359 JUMPI PUSH1 0x0 DUP1 REVERT JUMPDEST DUP1 PUSH4 0x8DA5CB5B EQ PUSH2 0x222 JUMPI DUP1 PUSH4 0xA6F9DAE1 EQ PUSH2 0x249 JUMPI DUP1 PUSH4 0xAD0FFD8B EQ PUSH2 0x269 JUMPI DUP1 PUSH4 0xAFD2D31A EQ PUSH2 0x289 JUMPI PUSH1 0x0 DUP1 REVERT JUMPDEST DUP1 PUSH4 0x56E7B7AA GT PUSH2 0xD1 JUMPI DUP1 PUSH4 0x56E7B7AA EQ PUSH2 0x1AD JUMPI DUP1 PUSH4 0x797DE9C2 EQ PUSH2 0x1CD JUMPI DUP1 PUSH4 0x7E4A1196 EQ PUSH2 0x1ED JUMPI DUP1 PUSH4 0x80101372 EQ PUSH2 0x20D JUMPI PUSH1 0x0 DUP1 REVERT JUMPDEST DUP1 PUSH4 0x13839897 EQ PUSH2 0x10E JUMPI DUP1 PUSH4 0x142D328D EQ PUSH2 0x14B JUMPI DUP1 PUSH4 0x25460F86 EQ PUSH2 0x16D JUMPI DUP1 PUSH4 0x3C69640F EQ PUSH2 0x18D JUMPI PUSH1 0x0 DUP1 REVERT JUMPDEST CALLDATASIZE PUSH2 0x109 JUMPI STOP JUMPDEST PUSH1 0x0 DUP1 REVERT JUMPDEST CALLVALUE DUP1 ISZERO PUSH2 0x11A JUMPI PUSH1 0x0 DUP1 REVERT JUMPDEST POP PUSH1 0x3 SLOAD PUSH2 0x12E SWAP1 PUSH1 0x1 PUSH1 0x1 PUSH1 0xA0 SHL SUB AND DUP2 JUMP JUMPDEST PUSH1 0x40 MLOAD PUSH1 0x1 PUSH1 0x1 PUSH1 0xA0 SHL SUB SWAP1 SWAP2 AND DUP2 MSTORE PUSH1 0x20 ADD JUMPDEST PUSH1 0x40 MLOAD DUP1 SWAP2 SUB SWAP1 RETURN JUMPDEST CALLVALUE DUP1 ISZERO PUSH2 0x157 JUMPI PUSH1 0x0 DUP1 REVERT JUMPDEST POP PUSH2 0x16B PUSH2 0x166 CALLDATASIZE PUSH1 0x4 PUSH2 0x12E2 JUMP JUMPDEST PUSH2 0x379 JUMP JUMPDEST STOP JUMPDEST CALLVALUE DUP1 ISZERO PUSH2 0x179 JUMPI PUSH1 0x0 DUP1 REVERT JUMPDEST POP PUSH2 0x16B PUSH2 0x188 CALLDATASIZE PUSH1 0x4 PUSH2 0x1370 JUMP JUMPDEST PUSH2 0x5A1 JUMP JUMPDEST CALLVALUE DUP1 ISZERO PUSH2 0x199 JUMPI PUSH1 0x0 DUP1 REVERT JUMPDEST POP PUSH2 0x16B PUSH2 0x1A8 CALLDATASIZE PUSH1 0x4 PUSH2 0x13A5 JUMP JUMPDEST PUSH2 0x68F JUMP JUMPDEST CALLVALUE DUP1 ISZERO PUSH2 0x1B9 JUMPI PUSH1 0x0 DUP1 REVERT JUMPDEST POP PUSH2 0x16B PUSH2 0x1C8 CALLDATASIZE PUSH1 0x4 PUSH2 0x1444 JUMP JUMPDEST PUSH2 0x7D1 JUMP JUMPDEST CALLVALUE DUP1 ISZERO PUSH2 0x1D9 JUMPI PUSH1 0x0 DUP1 REVERT JUMPDEST POP PUSH2 0x16B PUSH2 0x1E8 CALLDATASIZE PUSH1 0x4 PUSH2 0x1497 JUMP JUMPDEST PUSH2 0x8D0 JUMP JUMPDEST CALLVALUE DUP1 ISZERO PUSH2 0x1F9 JUMPI PUSH1 0x0 DUP1 REVERT JUMPDEST POP PUSH1 0x2 SLOAD PUSH2 0x12E SWAP1 PUSH1 0x1 PUSH1 0x1 PUSH1 0xA0 SHL SUB AND DUP2 JUMP JUMPDEST CALLVALUE DUP1 ISZERO PUSH2 0x219 JUMPI PUSH1 0x0 DUP1 REVERT JUMPDEST POP PUSH2 0x16B PUSH2 0x96C JUMP JUMPDEST CALLVALUE DUP1 ISZERO PUSH2 0x22E JUMPI PUSH1 0x0 DUP1 REVERT JUMPDEST POP PUSH1 0x0 SLOAD PUSH2 0x12E SWAP1 PUSH1 0x1 PUSH1 0x28 SHL SWAP1 DIV PUSH1 0x1 PUSH1 0x1 PUSH1 0xA0 SHL SUB AND DUP2 JUMP JUMPDEST CALLVALUE DUP1 ISZERO PUSH2 0x255 JUMPI PUSH1 0x0 DUP1 REVERT JUMPDEST POP PUSH2 0x16B PUSH2 0x264 CALLDATASIZE PUSH1 0x4 PUSH2 0x14D9 JUMP JUMPDEST PUSH2 0xAB8 JUMP JUMPDEST CALLVALUE DUP1 ISZERO PUSH2 0x275 JUMPI PUSH1 0x0 DUP1 REVERT JUMPDEST POP PUSH1 0x1 SLOAD PUSH2 0x12E SWAP1 PUSH1 0x1 PUSH1 0x1 PUSH1 0xA0 SHL SUB AND DUP2 JUMP JUMPDEST CALLVALUE DUP1 ISZERO PUSH2 0x295 JUMPI PUSH1 0x0 DUP1 REVERT JUMPDEST POP PUSH2 0x29F PUSH1 0x4 SLOAD DUP2 JUMP JUMPDEST PUSH1 0x40 MLOAD SWAP1 DUP2 MSTORE PUSH1 0x20 ADD PUSH2 0x142 JUMP JUMPDEST CALLVALUE DUP1 ISZERO PUSH2 0x2B9 JUMPI PUSH1 0x0 DUP1 REVERT JUMPDEST POP PUSH2 0x2DD PUSH2 0x2C8 CALLDATASIZE PUSH1 0x4 PUSH2 0x1370 JUMP JUMPDEST PUSH1 0x5 PUSH1 0x20 MSTORE PUSH1 0x0 SWAP1 DUP2 MSTORE PUSH1 0x40 SWAP1 KECCAK256 SLOAD PUSH1 0xFF AND DUP2 JUMP JUMPDEST PUSH1 0x40 MLOAD SWAP1 ISZERO ISZERO DUP2 MSTORE PUSH1 0x20 ADD PUSH2 0x142 JUMP JUMPDEST CALLVALUE DUP1 ISZERO PUSH2 0x2F9 JUMPI PUSH1 0x0 DUP1 REVERT JUMPDEST POP PUSH1 0x0 SLOAD PUSH2 0x30F SWAP1 PUSH2 0x100 SWAP1 DIV PUSH4 0xFFFFFFFF AND DUP2 JUMP JUMPDEST PUSH1 0x40 MLOAD PUSH4 0xFFFFFFFF SWAP1 SWAP2 AND DUP2 MSTORE PUSH1 0x20 ADD PUSH2 0x142 JUMP JUMPDEST CALLVALUE DUP1 ISZERO PUSH2 0x330 JUMPI PUSH1 0x0 DUP1 REVERT JUMPDEST POP PUSH2 0x16B PUSH2 0x33F CALLDATASIZE PUSH1 0x4 PUSH2 0x14D9 JUMP JUMPDEST PUSH2 0xB25 JUMP JUMPDEST CALLVALUE DUP1 ISZERO PUSH2 0x350 JUMPI PUSH1 0x0 DUP1 REVERT JUMPDEST POP PUSH2 0x16B PUSH2 0xC4D JUMP JUMPDEST CALLVALUE DUP1 ISZERO PUSH2 0x365 JUMPI PUSH1 0x0 DUP1 REVERT JUMPDEST POP PUSH2 0x16B PUSH2 0x374 CALLDATASIZE PUSH1 0x4 PUSH2 0x14FB JUMP JUMPDEST PUSH2 0xCCE JUMP JUMPDEST PUSH1 0x1 SLOAD PUSH1 0x1 PUSH1 0x1 PUSH1 0xA0 SHL SUB AND CALLER EQ PUSH2 0x3AC JUMPI PUSH1 0x40 MLOAD PUSH3 0x461BCD PUSH1 0xE5 SHL DUP2 MSTORE PUSH1 0x4 ADD PUSH2 0x3A3 SWAP1 PUSH2 0x152E JUMP JUMPDEST PUSH1 0x40 MLOAD DUP1 SWAP2 SUB SWAP1 REVERT JUMPDEST TIMESTAMP DUP4 PUSH4 0xFFFFFFFF AND LT ISZERO PUSH2 0x3FA JUMPI PUSH1 0x40 MLOAD PUSH3 0x461BCD PUSH1 0xE5 SHL DUP2 MSTORE PUSH1 0x20 PUSH1 0x4 DUP3 ADD MSTORE PUSH1 0x15 PUSH1 0x24 DUP3 ADD MSTORE PUSH21 0x185D1BDB54DA59DB90D85B1B0E88115E1C1A5C9959 PUSH1 0x5A SHL PUSH1 0x44 DUP3 ADD MSTORE PUSH1 0x64 ADD PUSH2 0x3A3 JUMP JUMPDEST PUSH1 0x0 DUP1 DUP1 CALLDATASIZE PUSH1 0x20 PUSH2 0x40B DUP7 DUP4 PUSH2 0x158A JUMP JUMPDEST PUSH2 0x415 SWAP2 SWAP1 PUSH2 0x158A JUMP JUMPDEST SWAP3 PUSH2 0x422 SWAP4 SWAP3 SWAP2 SWAP1 PUSH2 0x159D JUMP JUMPDEST PUSH1 0x0 SLOAD PUSH1 0x40 MLOAD PUSH2 0x450 SWAP4 SWAP3 SWAP2 CHAINID SWAP2 ADDRESS PUSH1 0x60 SHL SWAP2 PUSH2 0x100 SWAP1 DIV PUSH1 0xE0 SHL PUSH1 0x1 PUSH1 0x1 PUSH1 0xE0 SHL SUB NOT AND SWAP1 PUSH1 0x20 ADD PUSH2 0x15C7 JUMP JUMPDEST PUSH1 0x40 DUP1 MLOAD PUSH1 0x1F NOT DUP2 DUP5 SUB ADD DUP2 MSTORE SWAP2 DUP2 MSTORE DUP2 MLOAD PUSH1 0x20 SWAP3 DUP4 ADD KECCAK256 PUSH1 0x0 DUP2 DUP2 MSTORE PUSH1 0x5 SWAP1 SWAP4 MSTORE SWAP2 KECCAK256 SLOAD SWAP1 SWAP2 POP PUSH1 0xFF AND ISZERO PUSH2 0x4C8 JUMPI PUSH1 0x40 MLOAD PUSH3 0x461BCD PUSH1 0xE5 SHL DUP2 MSTORE PUSH1 0x20 PUSH1 0x4 DUP3 ADD MSTORE PUSH1 0x1A PUSH1 0x24 DUP3 ADD MSTORE PUSH32 0x61746F6D5369676E43616C6C3A2055736564206D736748617368000000000000 PUSH1 0x44 DUP3 ADD MSTORE PUSH1 0x64 ADD PUSH2 0x3A3 JUMP JUMPDEST PUSH2 0x513 DUP4 DUP4 DUP1 DUP1 PUSH1 0x1F ADD PUSH1 0x20 DUP1 SWAP2 DIV MUL PUSH1 0x20 ADD PUSH1 0x40 MLOAD SWAP1 DUP2 ADD PUSH1 0x40 MSTORE DUP1 SWAP4 SWAP3 SWAP2 SWAP1 DUP2 DUP2 MSTORE PUSH1 0x20 ADD DUP4 DUP4 DUP1 DUP3 DUP5 CALLDATACOPY PUSH1 0x0 SWAP3 ADD SWAP2 SWAP1 SWAP2 MSTORE POP PUSH2 0x50D SWAP3 POP DUP6 SWAP2 POP PUSH2 0xD60 SWAP1 POP JUMP JUMPDEST SWAP1 PUSH2 0xDB3 JUMP JUMPDEST PUSH1 0x0 SLOAD PUSH1 0x1 PUSH1 0x28 SHL SWAP1 DIV PUSH1 0x1 PUSH1 0x1 PUSH1 0xA0 SHL SUB SWAP1 DUP2 AND SWAP2 AND EQ PUSH2 0x577 JUMPI PUSH1 0x40 MLOAD PUSH3 0x461BCD PUSH1 0xE5 SHL DUP2 MSTORE PUSH1 0x20 PUSH1 0x4 DUP3 ADD MSTORE PUSH1 0x1F PUSH1 0x24 DUP3 ADD MSTORE PUSH32 0x61746F6D5369676E43616C6C3A20496E76616C6964205369676E617475726500 PUSH1 0x44 DUP3 ADD MSTORE PUSH1 0x64 ADD PUSH2 0x3A3 JUMP JUMPDEST PUSH2 0x581 DUP7 DUP7 PUSH2 0xDD9 JUMP JUMPDEST PUSH1 0x0 SWAP1 DUP2 MSTORE PUSH1 0x5 PUSH1 0x20 MSTORE PUSH1 0x40 SWAP1 KECCAK256 DUP1 SLOAD PUSH1 0xFF NOT AND PUSH1 0x1 OR SWAP1 SSTORE POP POP POP POP POP JUMP JUMPDEST PUSH1 0x3 SLOAD PUSH1 0x1 PUSH1 0x1 PUSH1 0xA0 SHL SUB AND CALLER EQ PUSH2 0x62F JUMPI PUSH1 0x40 MLOAD PUSH3 0x461BCD PUSH1 0xE5 SHL DUP2 MSTORE PUSH1 0x20 PUSH1 0x4 DUP3 ADD MSTORE PUSH1 0x44 PUSH1 0x24 DUP3 ADD DUP2 SWAP1 MSTORE PUSH32 0x6F6E6C795075626C6963536F6369616C5265636F766572793A2063616C6C6572 SWAP1 DUP3 ADD MSTORE PUSH32 0x206973206E6F7420746865206F6E6C795075626C6963536F6369616C5265636F PUSH1 0x64 DUP3 ADD MSTORE PUSH4 0x76657279 PUSH1 0xE0 SHL PUSH1 0x84 DUP3 ADD MSTORE PUSH1 0xA4 ADD PUSH2 0x3A3 JUMP JUMPDEST PUSH1 0xA0 DUP2 SWAP1 SHR PUSH1 0x4 SUB PUSH2 0x647 JUMPI PUSH2 0x644 DUP2 PUSH2 0xF3C JUMP JUMPDEST POP JUMP JUMPDEST PUSH1 0x40 MLOAD PUSH3 0x461BCD PUSH1 0xE5 SHL DUP2 MSTORE PUSH1 0x20 PUSH1 0x4 DUP3 ADD MSTORE PUSH1 0x1A PUSH1 0x24 DUP3 ADD MSTORE PUSH32 0x61646F707450726F706F73616C3A20756E737570706F72746564000000000000 PUSH1 0x44 DUP3 ADD MSTORE PUSH1 0x64 ADD PUSH2 0x3A3 JUMP JUMPDEST PUSH1 0x0 SLOAD PUSH1 0x1 PUSH1 0x28 SHL SWAP1 DIV PUSH1 0x1 PUSH1 0x1 PUSH1 0xA0 SHL SUB AND CALLER EQ DUP1 PUSH2 0x6D7 JUMPI POP PUSH32 0x0 PUSH1 0x1 PUSH1 0x1 PUSH1 0xA0 SHL SUB AND CALLER EQ JUMPDEST PUSH2 0x6F3 JUMPI PUSH1 0x40 MLOAD PUSH3 0x461BCD PUSH1 0xE5 SHL DUP2 MSTORE PUSH1 0x4 ADD PUSH2 0x3A3 SWAP1 PUSH2 0x15FF JUMP JUMPDEST PUSH1 0x3 SLOAD PUSH1 0x1 PUSH1 0x1 PUSH1 0xA0 SHL SUB AND ISZERO PUSH2 0x756 JUMPI PUSH1 0x40 MLOAD PUSH3 0x461BCD PUSH1 0xE5 SHL DUP2 MSTORE PUSH1 0x20 PUSH1 0x4 DUP3 ADD MSTORE PUSH1 0x21 PUSH1 0x24 DUP3 ADD MSTORE PUSH32 0x696E6974536F6369616C5265636F766572793A20616C72656164792065786973 PUSH1 0x44 DUP3 ADD MSTORE PUSH1 0x1D PUSH1 0xFA SHL PUSH1 0x64 DUP3 ADD MSTORE PUSH1 0x84 ADD PUSH2 0x3A3 JUMP JUMPDEST PUSH1 0x3 DUP1 SLOAD PUSH1 0x1 PUSH1 0x1 PUSH1 0xA0 SHL SUB NOT AND PUSH1 0x1 PUSH1 0x1 PUSH1 0xA0 SHL SUB DUP7 AND SWAP1 DUP2 OR SWAP1 SWAP2 SSTORE PUSH1 0x40 MLOAD PUSH4 0x1336EBFF PUSH1 0xE1 SHL DUP2 MSTORE PUSH4 0x266DD7FE SWAP1 PUSH2 0x799 SWAP1 DUP7 SWAP1 DUP7 SWAP1 DUP7 SWAP1 PUSH1 0x4 ADD PUSH2 0x164C JUMP JUMPDEST PUSH1 0x0 PUSH1 0x40 MLOAD DUP1 DUP4 SUB DUP2 PUSH1 0x0 DUP8 DUP1 EXTCODESIZE ISZERO DUP1 ISZERO PUSH2 0x7B3 JUMPI PUSH1 0x0 DUP1 REVERT JUMPDEST POP GAS CALL ISZERO DUP1 ISZERO PUSH2 0x7C7 JUMPI RETURNDATASIZE PUSH1 0x0 DUP1 RETURNDATACOPY RETURNDATASIZE PUSH1 0x0 REVERT JUMPDEST POP POP POP POP POP POP POP POP JUMP JUMPDEST PUSH32 0x0 PUSH1 0x1 PUSH1 0x1 PUSH1 0xA0 SHL SUB AND CALLER EQ PUSH2 0x85A JUMPI PUSH1 0x40 MLOAD PUSH3 0x461BCD PUSH1 0xE5 SHL DUP2 MSTORE PUSH1 0x20 PUSH1 0x4 DUP3 ADD MSTORE PUSH1 0x28 PUSH1 0x24 DUP3 ADD MSTORE PUSH32 0x6F6E6C794F726967696E616C3A2063616C6C6572206973206E6F742074686520 PUSH1 0x44 DUP3 ADD MSTORE PUSH8 0x1BDC9A59DA5B985B PUSH1 0xC2 SHL PUSH1 0x64 DUP3 ADD MSTORE PUSH1 0x84 ADD PUSH2 0x3A3 JUMP JUMPDEST PUSH1 0x0 DUP1 DUP5 PUSH1 0x1 PUSH1 0x1 PUSH1 0xA0 SHL SUB AND DUP5 DUP5 PUSH1 0x40 MLOAD PUSH2 0x877 SWAP3 SWAP2 SWAP1 PUSH2 0x16A4 JUMP JUMPDEST PUSH1 0x0 PUSH1 0x40 MLOAD DUP1 DUP4 SUB DUP2 DUP6 GAS DELEGATECALL SWAP2 POP POP RETURNDATASIZE DUP1 PUSH1 0x0 DUP2 EQ PUSH2 0x8B2 JUMPI PUSH1 0x40 MLOAD SWAP2 POP PUSH1 0x1F NOT PUSH1 0x3F RETURNDATASIZE ADD AND DUP3 ADD PUSH1 0x40 MSTORE RETURNDATASIZE DUP3 MSTORE RETURNDATASIZE PUSH1 0x0 PUSH1 0x20 DUP5 ADD RETURNDATACOPY PUSH2 0x8B7 JUMP JUMPDEST PUSH1 0x60 SWAP2 POP JUMPDEST POP SWAP2 POP SWAP2 POP DUP2 PUSH2 0x8C9 JUMPI DUP1 MLOAD PUSH1 0x20 DUP3 ADD REVERT JUMPDEST POP POP POP POP POP JUMP JUMPDEST PUSH1 0x0 SLOAD PUSH1 0x1 PUSH1 0x28 SHL SWAP1 DIV PUSH1 0x1 PUSH1 0x1 PUSH1 0xA0 SHL SUB AND CALLER EQ DUP1 PUSH2 0x918 JUMPI POP PUSH32 0x0 PUSH1 0x1 PUSH1 0x1 PUSH1 0xA0 SHL SUB AND CALLER EQ JUMPDEST PUSH2 0x934 JUMPI PUSH1 0x40 MLOAD PUSH3 0x461BCD PUSH1 0xE5 SHL DUP2 MSTORE PUSH1 0x4 ADD PUSH2 0x3A3 SWAP1 PUSH2 0x15FF JUMP JUMPDEST PUSH1 0x1 SLOAD PUSH1 0x1 PUSH1 0x1 PUSH1 0xA0 SHL SUB AND CALLER EQ PUSH2 0x95E JUMPI PUSH1 0x40 MLOAD PUSH3 0x461BCD PUSH1 0xE5 SHL DUP2 MSTORE PUSH1 0x4 ADD PUSH2 0x3A3 SWAP1 PUSH2 0x152E JUMP JUMPDEST PUSH2 0x968 DUP3 DUP3 PUSH2 0xDD9 JUMP JUMPDEST POP POP JUMP JUMPDEST PUSH1 0x2 SLOAD PUSH1 0x1 PUSH1 0x1 PUSH1 0xA0 SHL SUB AND CALLER EQ PUSH2 0x9E3 JUMPI PUSH1 0x40 MLOAD PUSH3 0x461BCD PUSH1 0xE5 SHL DUP2 MSTORE PUSH1 0x20 PUSH1 0x4 DUP3 ADD MSTORE PUSH1 0x34 PUSH1 0x24 DUP3 ADD MSTORE PUSH32 0x6F6E6C7950656E64696E6742756E646C65723A2063616C6C6572206973206E6F PUSH1 0x44 DUP3 ADD MSTORE PUSH20 0x3A103A3432903832B73234B733A13AB7323632B9 PUSH1 0x61 SHL PUSH1 0x64 DUP3 ADD MSTORE PUSH1 0x84 ADD PUSH2 0x3A3 JUMP JUMPDEST PUSH1 0x4 SLOAD PUSH2 0x9F3 SWAP1 PUSH3 0x93A80 PUSH2 0x16B4 JUMP JUMPDEST TIMESTAMP GT PUSH2 0xA4C JUMPI PUSH1 0x40 MLOAD PUSH3 0x461BCD PUSH1 0xE5 SHL DUP2 MSTORE PUSH1 0x20 PUSH1 0x4 DUP3 ADD MSTORE PUSH1 0x22 PUSH1 0x24 DUP3 ADD MSTORE PUSH32 0x726573657442756E646C65723A206E65656473203720646179732070656E6469 PUSH1 0x44 DUP3 ADD MSTORE PUSH2 0x6E67 PUSH1 0xF0 SHL PUSH1 0x64 DUP3 ADD MSTORE PUSH1 0x84 ADD PUSH2 0x3A3 JUMP JUMPDEST PUSH1 0x2 DUP1 SLOAD PUSH1 0x1 DUP1 SLOAD PUSH1 0x1 PUSH1 0x1 PUSH1 0xA0 SHL SUB DUP4 AND PUSH1 0x1 PUSH1 0x1 PUSH1 0xA0 SHL SUB NOT SWAP2 DUP3 AND DUP2 OR SWAP1 SWAP3 SSTORE SWAP1 SWAP2 AND SWAP1 SWAP2 SSTORE PUSH1 0x0 PUSH1 0x4 DUP2 SWAP1 SSTORE PUSH1 0x40 DUP1 MLOAD SWAP3 DUP4 MSTORE PUSH1 0x20 DUP4 ADD SWAP2 SWAP1 SWAP2 MSTORE PUSH32 0x81932E26D3D6B8D613DD60331202EBEFE49C5008C05597954A66138B6C505B25 SWAP2 ADD PUSH1 0x40 MLOAD DUP1 SWAP2 SUB SWAP1 LOG1 JUMP JUMPDEST PUSH1 0x0 SLOAD PUSH1 0x1 PUSH1 0x28 SHL SWAP1 DIV PUSH1 0x1 PUSH1 0x1 PUSH1 0xA0 SHL SUB AND CALLER EQ DUP1 PUSH2 0xB00 JUMPI POP PUSH32 0x0 PUSH1 0x1 PUSH1 0x1 PUSH1 0xA0 SHL SUB AND CALLER EQ JUMPDEST PUSH2 0xB1C JUMPI PUSH1 0x40 MLOAD PUSH3 0x461BCD PUSH1 0xE5 SHL DUP2 MSTORE PUSH1 0x4 ADD PUSH2 0x3A3 SWAP1 PUSH2 0x15FF JUMP JUMPDEST PUSH2 0x644 DUP2 PUSH2 0xF3C JUMP JUMPDEST PUSH1 0x0 SLOAD PUSH1 0x1 PUSH1 0x28 SHL SWAP1 DIV PUSH1 0x1 PUSH1 0x1 PUSH1 0xA0 SHL SUB AND CALLER EQ DUP1 PUSH2 0xB6D JUMPI POP PUSH32 0x0 PUSH1 0x1 PUSH1 0x1 PUSH1 0xA0 SHL SUB AND CALLER EQ JUMPDEST PUSH2 0xB89 JUMPI PUSH1 0x40 MLOAD PUSH3 0x461BCD PUSH1 0xE5 SHL DUP2 MSTORE PUSH1 0x4 ADD PUSH2 0x3A3 SWAP1 PUSH2 0x15FF JUMP JUMPDEST PUSH2 0xB91 PUSH2 0xC4D JUMP JUMPDEST PUSH1 0x2 DUP1 SLOAD PUSH1 0x1 PUSH1 0x1 PUSH1 0xA0 SHL SUB NOT AND PUSH1 0x1 PUSH1 0x1 PUSH1 0xA0 SHL SUB DUP4 AND SWAP1 DUP2 OR SWAP1 SWAP2 SSTORE PUSH2 0xC01 JUMPI PUSH1 0x0 PUSH1 0x4 SSTORE PUSH1 0x1 SLOAD PUSH1 0x40 DUP1 MLOAD PUSH1 0x1 PUSH1 0x1 PUSH1 0xA0 SHL SUB SWAP1 SWAP3 AND DUP1 DUP4 MSTORE PUSH1 0x20 DUP4 ADD MSTORE PUSH32 0x81932E26D3D6B8D613DD60331202EBEFE49C5008C05597954A66138B6C505B25 SWAP2 ADD JUMPDEST PUSH1 0x40 MLOAD DUP1 SWAP2 SUB SWAP1 LOG1 POP JUMP JUMPDEST TIMESTAMP PUSH1 0x4 SSTORE PUSH1 0x1 SLOAD PUSH1 0x2 SLOAD PUSH1 0x40 DUP1 MLOAD PUSH1 0x1 PUSH1 0x1 PUSH1 0xA0 SHL SUB SWAP4 DUP5 AND DUP2 MSTORE SWAP3 SWAP1 SWAP2 AND PUSH1 0x20 DUP4 ADD MSTORE PUSH32 0xBD265FEA90ED2756DF9AC57B162D7D95B2BBD80E1720FCA48D685E4A5A7E4C6C SWAP2 ADD PUSH2 0xBF6 JUMP JUMPDEST PUSH1 0x0 SLOAD PUSH1 0x1 PUSH1 0x28 SHL SWAP1 DIV PUSH1 0x1 PUSH1 0x1 PUSH1 0xA0 SHL SUB AND CALLER EQ DUP1 PUSH2 0xC95 JUMPI POP PUSH32 0x0 PUSH1 0x1 PUSH1 0x1 PUSH1 0xA0 SHL SUB AND CALLER EQ JUMPDEST PUSH2 0xCB1 JUMPI PUSH1 0x40 MLOAD PUSH3 0x461BCD PUSH1 0xE5 SHL DUP2 MSTORE PUSH1 0x4 ADD PUSH2 0x3A3 SWAP1 PUSH2 0x15FF JUMP JUMPDEST PUSH1 0x0 DUP1 SLOAD PUSH5 0xFFFFFFFF00 NOT AND PUSH2 0x100 NUMBER BLOCKHASH PUSH4 0xFFFFFFFF AND MUL OR SWAP1 SSTORE JUMP JUMPDEST PUSH1 0x0 SLOAD PUSH1 0xFF AND ISZERO PUSH2 0xD19 JUMPI PUSH1 0x40 MLOAD PUSH3 0x461BCD PUSH1 0xE5 SHL DUP2 MSTORE PUSH1 0x20 PUSH1 0x4 DUP3 ADD MSTORE PUSH1 0x15 PUSH1 0x24 DUP3 ADD MSTORE PUSH21 0x696E697428292072756E73206F6E6C79206F6E6365 PUSH1 0x58 SHL PUSH1 0x44 DUP3 ADD MSTORE PUSH1 0x64 ADD PUSH2 0x3A3 JUMP JUMPDEST PUSH1 0x0 DUP1 SLOAD PUSH1 0x1 DUP1 SLOAD PUSH1 0x1 PUSH1 0x1 PUSH1 0xA0 SHL SUB SWAP5 DUP6 AND PUSH1 0x1 PUSH1 0x1 PUSH1 0xA0 SHL SUB NOT SWAP1 SWAP2 AND OR DUP2 SSTORE SWAP4 SWAP1 SWAP3 AND PUSH1 0x1 PUSH1 0x28 SHL MUL PUSH5 0xFFFFFFFF01 PUSH1 0x1 PUSH1 0xC8 SHL SUB NOT SWAP1 SWAP3 AND SWAP2 SWAP1 SWAP2 OR SWAP1 SWAP2 OR SWAP1 SSTORE JUMP JUMPDEST PUSH1 0x40 MLOAD PUSH32 0x19457468657265756D205369676E6564204D6573736167653A0A333200000000 PUSH1 0x20 DUP3 ADD MSTORE PUSH1 0x3C DUP2 ADD DUP3 SWAP1 MSTORE PUSH1 0x0 SWAP1 PUSH1 0x5C ADD PUSH1 0x40 MLOAD PUSH1 0x20 DUP2 DUP4 SUB SUB DUP2 MSTORE SWAP1 PUSH1 0x40 MSTORE DUP1 MLOAD SWAP1 PUSH1 0x20 ADD KECCAK256 SWAP1 POP SWAP2 SWAP1 POP JUMP JUMPDEST PUSH1 0x0 DUP1 PUSH1 0x0 PUSH2 0xDC2 DUP6 DUP6 PUSH2 0xFB8 JUMP JUMPDEST SWAP2 POP SWAP2 POP PUSH2 0xDCF DUP2 PUSH2 0xFFD JUMP JUMPDEST POP SWAP1 POP JUMPDEST SWAP3 SWAP2 POP POP JUMP JUMPDEST PUSH1 0x0 JUMPDEST DUP2 DUP2 LT ISZERO PUSH2 0xF37 JUMPI PUSH1 0x0 DUP4 DUP3 DUP5 PUSH2 0xDF4 DUP3 PUSH1 0x14 PUSH2 0x16B4 JUMP JUMPDEST SWAP3 PUSH2 0xE01 SWAP4 SWAP3 SWAP2 SWAP1 PUSH2 0x159D JUMP JUMPDEST PUSH2 0xE0A SWAP2 PUSH2 0x16C7 JUMP JUMPDEST PUSH1 0x60 SHR SWAP1 POP PUSH1 0x0 DUP5 DUP5 PUSH2 0xE1E DUP6 PUSH1 0x14 PUSH2 0x16B4 JUMP JUMPDEST SWAP1 PUSH2 0xE2A DUP7 PUSH1 0x34 PUSH2 0x16B4 JUMP JUMPDEST SWAP3 PUSH2 0xE37 SWAP4 SWAP3 SWAP2 SWAP1 PUSH2 0x159D JUMP JUMPDEST PUSH2 0xE40 SWAP2 PUSH2 0x16FC JUMP JUMPDEST SWAP1 POP PUSH1 0x0 DUP6 DUP6 PUSH2 0xE51 DUP7 PUSH1 0x34 PUSH2 0x16B4 JUMP JUMPDEST SWAP1 PUSH2 0xE5D DUP8 PUSH1 0x54 PUSH2 0x16B4 JUMP JUMPDEST SWAP3 PUSH2 0xE6A SWAP4 SWAP3 SWAP2 SWAP1 PUSH2 0x159D JUMP JUMPDEST PUSH2 0xE73 SWAP2 PUSH2 0x16FC JUMP JUMPDEST SWAP1 POP PUSH1 0x0 DUP1 PUSH1 0x1 PUSH1 0x1 PUSH1 0xA0 SHL SUB DUP6 AND DUP5 DUP10 DUP10 PUSH2 0xE90 DUP11 PUSH1 0x54 PUSH2 0x16B4 JUMP JUMPDEST SWAP1 DUP8 PUSH2 0xE9D DUP13 PUSH1 0x54 PUSH2 0x16B4 JUMP JUMPDEST PUSH2 0xEA7 SWAP2 SWAP1 PUSH2 0x16B4 JUMP JUMPDEST SWAP3 PUSH2 0xEB4 SWAP4 SWAP3 SWAP2 SWAP1 PUSH2 0x159D JUMP JUMPDEST PUSH1 0x40 MLOAD PUSH2 0xEC2 SWAP3 SWAP2 SWAP1 PUSH2 0x16A4 JUMP JUMPDEST PUSH1 0x0 PUSH1 0x40 MLOAD DUP1 DUP4 SUB DUP2 DUP6 DUP8 GAS CALL SWAP3 POP POP POP RETURNDATASIZE DUP1 PUSH1 0x0 DUP2 EQ PUSH2 0xEFF JUMPI PUSH1 0x40 MLOAD SWAP2 POP PUSH1 0x1F NOT PUSH1 0x3F RETURNDATASIZE ADD AND DUP3 ADD PUSH1 0x40 MSTORE RETURNDATASIZE DUP3 MSTORE RETURNDATASIZE PUSH1 0x0 PUSH1 0x20 DUP5 ADD RETURNDATACOPY PUSH2 0xF04 JUMP JUMPDEST PUSH1 0x60 SWAP2 POP JUMPDEST POP SWAP2 POP SWAP2 POP DUP2 PUSH2 0xF16 JUMPI DUP1 MLOAD PUSH1 0x20 DUP3 ADD REVERT JUMPDEST PUSH2 0xF21 DUP4 PUSH1 0x54 PUSH2 0x16B4 JUMP JUMPDEST PUSH2 0xF2B SWAP1 DUP8 PUSH2 0x16B4 JUMP JUMPDEST SWAP6 POP POP POP POP POP POP PUSH2 0xDDC JUMP JUMPDEST POP POP POP JUMP JUMPDEST PUSH1 0x0 SLOAD PUSH1 0x40 DUP1 MLOAD PUSH1 0x1 PUSH1 0x1 PUSH1 0xA0 SHL SUB PUSH1 0x1 PUSH1 0x28 SHL SWAP1 SWAP4 DIV DUP4 AND DUP2 MSTORE SWAP2 DUP4 AND PUSH1 0x20 DUP4 ADD MSTORE PUSH32 0xB532073B38C83145E3E5135377A08BF9AAB55BC0FD7C1179CD4FB995D2A5159C SWAP2 ADD PUSH1 0x40 MLOAD DUP1 SWAP2 SUB SWAP1 LOG1 PUSH1 0x0 DUP1 SLOAD PUSH1 0x1 PUSH1 0x1 PUSH1 0xA0 SHL SUB SWAP1 SWAP3 AND PUSH1 0x1 PUSH1 0x28 SHL MUL PUSH6 0x10000000000 PUSH1 0x1 PUSH1 0xC8 SHL SUB NOT SWAP1 SWAP3 AND SWAP2 SWAP1 SWAP2 OR SWAP1 SSTORE JUMP JUMPDEST PUSH1 0x0 DUP1 DUP3 MLOAD PUSH1 0x41 SUB PUSH2 0xFEE JUMPI PUSH1 0x20 DUP4 ADD MLOAD PUSH1 0x40 DUP5 ADD MLOAD PUSH1 0x60 DUP6 ADD MLOAD PUSH1 0x0 BYTE PUSH2 0xFE2 DUP8 DUP3 DUP6 DUP6 PUSH2 0x11B3 JUMP JUMPDEST SWAP5 POP SWAP5 POP POP POP POP PUSH2 0xFF6 JUMP JUMPDEST POP PUSH1 0x0 SWAP1 POP PUSH1 0x2 JUMPDEST SWAP3 POP SWAP3 SWAP1 POP JUMP JUMPDEST PUSH1 0x0 DUP2 PUSH1 0x4 DUP2 GT ISZERO PUSH2 0x1011 JUMPI PUSH2 0x1011 PUSH2 0x171A JUMP JUMPDEST SUB PUSH2 0x1019 JUMPI POP JUMP JUMPDEST PUSH1 0x1 DUP2 PUSH1 0x4 DUP2 GT ISZERO PUSH2 0x102D JUMPI PUSH2 0x102D PUSH2 0x171A JUMP JUMPDEST SUB PUSH2 0x107A JUMPI PUSH1 0x40 MLOAD PUSH3 0x461BCD PUSH1 0xE5 SHL DUP2 MSTORE PUSH1 0x20 PUSH1 0x4 DUP3 ADD MSTORE PUSH1 0x18 PUSH1 0x24 DUP3 ADD MSTORE PUSH32 0x45434453413A20696E76616C6964207369676E61747572650000000000000000 PUSH1 0x44 DUP3 ADD MSTORE PUSH1 0x64 ADD PUSH2 0x3A3 JUMP JUMPDEST PUSH1 0x2 DUP2 PUSH1 0x4 DUP2 GT ISZERO PUSH2 0x108E JUMPI PUSH2 0x108E PUSH2 0x171A JUMP JUMPDEST SUB PUSH2 0x10DB JUMPI PUSH1 0x40 MLOAD PUSH3 0x461BCD PUSH1 0xE5 SHL DUP2 MSTORE PUSH1 0x20 PUSH1 0x4 DUP3 ADD MSTORE PUSH1 0x1F PUSH1 0x24 DUP3 ADD MSTORE PUSH32 0x45434453413A20696E76616C6964207369676E6174757265206C656E67746800 PUSH1 0x44 DUP3 ADD MSTORE PUSH1 0x64 ADD PUSH2 0x3A3 JUMP JUMPDEST PUSH1 0x3 DUP2 PUSH1 0x4 DUP2 GT ISZERO PUSH2 0x10EF JUMPI PUSH2 0x10EF PUSH2 0x171A JUMP JUMPDEST SUB PUSH2 0x1147 JUMPI PUSH1 0x40 MLOAD PUSH3 0x461BCD PUSH1 0xE5 SHL DUP2 MSTORE PUSH1 0x20 PUSH1 0x4 DUP3 ADD MSTORE PUSH1 0x22 PUSH1 0x24 DUP3 ADD MSTORE PUSH32 0x45434453413A20696E76616C6964207369676E6174757265202773272076616C PUSH1 0x44 DUP3 ADD MSTORE PUSH2 0x7565 PUSH1 0xF0 SHL PUSH1 0x64 DUP3 ADD MSTORE PUSH1 0x84 ADD PUSH2 0x3A3 JUMP JUMPDEST PUSH1 0x4 DUP2 PUSH1 0x4 DUP2 GT ISZERO PUSH2 0x115B JUMPI PUSH2 0x115B PUSH2 0x171A JUMP JUMPDEST SUB PUSH2 0x644 JUMPI PUSH1 0x40 MLOAD PUSH3 0x461BCD PUSH1 0xE5 SHL DUP2 MSTORE PUSH1 0x20 PUSH1 0x4 DUP3 ADD MSTORE PUSH1 0x22 PUSH1 0x24 DUP3 ADD MSTORE PUSH32 0x45434453413A20696E76616C6964207369676E6174757265202776272076616C PUSH1 0x44 DUP3 ADD MSTORE PUSH2 0x7565 PUSH1 0xF0 SHL PUSH1 0x64 DUP3 ADD MSTORE PUSH1 0x84 ADD PUSH2 0x3A3 JUMP JUMPDEST PUSH1 0x0 DUP1 PUSH32 0x7FFFFFFFFFFFFFFFFFFFFFFFFFFFFFFF5D576E7357A4501DDFE92F46681B20A0 DUP4 GT ISZERO PUSH2 0x11EA JUMPI POP PUSH1 0x0 SWAP1 POP PUSH1 0x3 PUSH2 0x1297 JUMP JUMPDEST DUP5 PUSH1 0xFF AND PUSH1 0x1B EQ ISZERO DUP1 ISZERO PUSH2 0x1202 JUMPI POP DUP5 PUSH1 0xFF AND PUSH1 0x1C EQ ISZERO JUMPDEST ISZERO PUSH2 0x1213 JUMPI POP PUSH1 0x0 SWAP1 POP PUSH1 0x4 PUSH2 0x1297 JUMP JUMPDEST PUSH1 0x40 DUP1 MLOAD PUSH1 0x0 DUP1 DUP3 MSTORE PUSH1 0x20 DUP3 ADD DUP1 DUP5 MSTORE DUP10 SWAP1 MSTORE PUSH1 0xFF DUP9 AND SWAP3 DUP3 ADD SWAP3 SWAP1 SWAP3 MSTORE PUSH1 0x60 DUP2 ADD DUP7 SWAP1 MSTORE PUSH1 0x80 DUP2 ADD DUP6 SWAP1 MSTORE PUSH1 0x1 SWAP1 PUSH1 0xA0 ADD PUSH1 0x20 PUSH1 0x40 MLOAD PUSH1 0x20 DUP2 SUB SWAP1 DUP1 DUP5 SUB SWAP1 DUP6 GAS STATICCALL ISZERO DUP1 ISZERO PUSH2 0x1267 JUMPI RETURNDATASIZE PUSH1 0x0 DUP1 RETURNDATACOPY RETURNDATASIZE PUSH1 0x0 REVERT JUMPDEST POP POP PUSH1 0x40 MLOAD PUSH1 0x1F NOT ADD MLOAD SWAP2 POP POP PUSH1 0x1 PUSH1 0x1 PUSH1 0xA0 SHL SUB DUP2 AND PUSH2 0x1290 JUMPI PUSH1 0x0 PUSH1 0x1 SWAP3 POP SWAP3 POP POP PUSH2 0x1297 JUMP JUMPDEST SWAP2 POP PUSH1 0x0 SWAP1 POP JUMPDEST SWAP5 POP SWAP5 SWAP3 POP POP POP JUMP JUMPDEST PUSH1 0x0 DUP1 DUP4 PUSH1 0x1F DUP5 ADD SLT PUSH2 0x12B2 JUMPI PUSH1 0x0 DUP1 REVERT JUMPDEST POP DUP2 CALLDATALOAD PUSH8 0xFFFFFFFFFFFFFFFF DUP2 GT ISZERO PUSH2 0x12CA JUMPI PUSH1 0x0 DUP1 REVERT JUMPDEST PUSH1 0x20 DUP4 ADD SWAP2 POP DUP4 PUSH1 0x20 DUP3 DUP6 ADD ADD GT ISZERO PUSH2 0xFF6 JUMPI PUSH1 0x0 DUP1 REVERT JUMPDEST PUSH1 0x0 DUP1 PUSH1 0x0 DUP1 PUSH1 0x0 PUSH1 0x60 DUP7 DUP9 SUB SLT ISZERO PUSH2 0x12FA JUMPI PUSH1 0x0 DUP1 REVERT JUMPDEST DUP6 CALLDATALOAD PUSH8 0xFFFFFFFFFFFFFFFF DUP1 DUP3 GT ISZERO PUSH2 0x1312 JUMPI PUSH1 0x0 DUP1 REVERT JUMPDEST PUSH2 0x131E DUP10 DUP4 DUP11 ADD PUSH2 0x12A0 JUMP JUMPDEST SWAP1 SWAP8 POP SWAP6 POP PUSH1 0x20 DUP9 ADD CALLDATALOAD SWAP2 POP PUSH4 0xFFFFFFFF DUP3 AND DUP3 EQ PUSH2 0x133C JUMPI PUSH1 0x0 DUP1 REVERT JUMPDEST SWAP1 SWAP4 POP PUSH1 0x40 DUP8 ADD CALLDATALOAD SWAP1 DUP1 DUP3 GT ISZERO PUSH2 0x1352 JUMPI PUSH1 0x0 DUP1 REVERT JUMPDEST POP PUSH2 0x135F DUP9 DUP3 DUP10 ADD PUSH2 0x12A0 JUMP JUMPDEST SWAP7 SWAP10 SWAP6 SWAP9 POP SWAP4 SWAP7 POP SWAP3 SWAP5 SWAP4 SWAP3 POP POP POP JUMP JUMPDEST PUSH1 0x0 PUSH1 0x20 DUP3 DUP5 SUB SLT ISZERO PUSH2 0x1382 JUMPI PUSH1 0x0 DUP1 REVERT JUMPDEST POP CALLDATALOAD SWAP2 SWAP1 POP JUMP JUMPDEST DUP1 CALLDATALOAD PUSH1 0x1 PUSH1 0x1 PUSH1 0xA0 SHL SUB DUP2 AND DUP2 EQ PUSH2 0x13A0 JUMPI PUSH1 0x0 DUP1 REVERT JUMPDEST SWAP2 SWAP1 POP JUMP JUMPDEST PUSH1 0x0 DUP1 PUSH1 0x0 DUP1 PUSH1 0x60 DUP6 DUP8 SUB SLT ISZERO PUSH2 0x13BB JUMPI PUSH1 0x0 DUP1 REVERT JUMPDEST PUSH2 0x13C4 DUP6 PUSH2 0x1389 JUMP JUMPDEST SWAP4 POP PUSH1 0x20 DUP6 ADD CALLDATALOAD PUSH8 0xFFFFFFFFFFFFFFFF DUP1 DUP3 GT ISZERO PUSH2 0x13E1 JUMPI PUSH1 0x0 DUP1 REVERT JUMPDEST DUP2 DUP8 ADD SWAP2 POP DUP8 PUSH1 0x1F DUP4 ADD SLT PUSH2 0x13F5 JUMPI PUSH1 0x0 DUP1 REVERT JUMPDEST DUP2 CALLDATALOAD DUP2 DUP2 GT ISZERO PUSH2 0x1404 JUMPI PUSH1 0x0 DUP1 REVERT JUMPDEST DUP9 PUSH1 0x20 DUP3 PUSH1 0x5 SHL DUP6 ADD ADD GT ISZERO PUSH2 0x1419 JUMPI PUSH1 0x0 DUP1 REVERT JUMPDEST PUSH1 0x20 DUP4 ADD SWAP6 POP DUP1 SWAP5 POP POP POP POP PUSH1 0x40 DUP6 ADD CALLDATALOAD PUSH1 0xFF DUP2 AND DUP2 EQ PUSH2 0x1439 JUMPI PUSH1 0x0 DUP1 REVERT JUMPDEST SWAP4 SWAP7 SWAP3 SWAP6 POP SWAP1 SWAP4 POP POP JUMP JUMPDEST PUSH1 0x0 DUP1 PUSH1 0x0 PUSH1 0x40 DUP5 DUP7 SUB SLT ISZERO PUSH2 0x1459 JUMPI PUSH1 0x0 DUP1 REVERT JUMPDEST PUSH2 0x1462 DUP5 PUSH2 0x1389 JUMP JUMPDEST SWAP3 POP PUSH1 0x20 DUP5 ADD CALLDATALOAD PUSH8 0xFFFFFFFFFFFFFFFF DUP2 GT ISZERO PUSH2 0x147E JUMPI PUSH1 0x0 DUP1 REVERT JUMPDEST PUSH2 0x148A DUP7 DUP3 DUP8 ADD PUSH2 0x12A0 JUMP JUMPDEST SWAP5 SWAP8 SWAP1 SWAP7 POP SWAP4 SWAP5 POP POP POP POP JUMP JUMPDEST PUSH1 0x0 DUP1 PUSH1 0x20 DUP4 DUP6 SUB SLT ISZERO PUSH2 0x14AA JUMPI PUSH1 0x0 DUP1 REVERT JUMPDEST DUP3 CALLDATALOAD PUSH8 0xFFFFFFFFFFFFFFFF DUP2 GT ISZERO PUSH2 0x14C1 JUMPI PUSH1 0x0 DUP1 REVERT JUMPDEST PUSH2 0x14CD DUP6 DUP3 DUP7 ADD PUSH2 0x12A0 JUMP JUMPDEST SWAP1 SWAP7 SWAP1 SWAP6 POP SWAP4 POP POP POP POP JUMP JUMPDEST PUSH1 0x0 PUSH1 0x20 DUP3 DUP5 SUB SLT ISZERO PUSH2 0x14EB JUMPI PUSH1 0x0 DUP1 REVERT JUMPDEST PUSH2 0x14F4 DUP3 PUSH2 0x1389 JUMP JUMPDEST SWAP4 SWAP3 POP POP POP JUMP JUMPDEST PUSH1 0x0 DUP1 PUSH1 0x40 DUP4 DUP6 SUB SLT ISZERO PUSH2 0x150E JUMPI PUSH1 0x0 DUP1 REVERT JUMPDEST PUSH2 0x1517 DUP4 PUSH2 0x1389 JUMP JUMPDEST SWAP2 POP PUSH2 0x1525 PUSH1 0x20 DUP5 ADD PUSH2 0x1389 JUMP JUMPDEST SWAP1 POP SWAP3 POP SWAP3 SWAP1 POP JUMP JUMPDEST PUSH1 0x20 DUP1 DUP3 MSTORE PUSH1 0x26 SWAP1 DUP3 ADD MSTORE PUSH32 0x6F6E6C7942756E646C65723A2063616C6C6572206973206E6F74207468652062 PUSH1 0x40 DUP3 ADD MSTORE PUSH6 0x3AB7323632B9 PUSH1 0xD1 SHL PUSH1 0x60 DUP3 ADD MSTORE PUSH1 0x80 ADD SWAP1 JUMP JUMPDEST PUSH4 0x4E487B71 PUSH1 0xE0 SHL PUSH1 0x0 MSTORE PUSH1 0x11 PUSH1 0x4 MSTORE PUSH1 0x24 PUSH1 0x0 REVERT JUMPDEST DUP2 DUP2 SUB DUP2 DUP2 GT ISZERO PUSH2 0xDD3 JUMPI PUSH2 0xDD3 PUSH2 0x1574 JUMP JUMPDEST PUSH1 0x0 DUP1 DUP6 DUP6 GT ISZERO PUSH2 0x15AD JUMPI PUSH1 0x0 DUP1 REVERT JUMPDEST DUP4 DUP7 GT ISZERO PUSH2 0x15BA JUMPI PUSH1 0x0 DUP1 REVERT JUMPDEST POP POP DUP3 ADD SWAP4 SWAP2 SWAP1 SWAP3 SUB SWAP2 POP JUMP JUMPDEST DUP5 DUP7 DUP3 CALLDATACOPY SWAP1 SWAP4 ADD SWAP2 DUP3 MSTORE PUSH12 0xFFFFFFFFFFFFFFFFFFFFFFFF NOT AND PUSH1 0x20 DUP3 ADD MSTORE PUSH1 0x1 PUSH1 0x1 PUSH1 0xE0 SHL SUB NOT SWAP2 SWAP1 SWAP2 AND PUSH1 0x34 DUP3 ADD MSTORE PUSH1 0x38 ADD SWAP2 SWAP1 POP JUMP JUMPDEST PUSH1 0x20 DUP1 DUP3 MSTORE PUSH1 0x2D SWAP1 DUP3 ADD MSTORE PUSH32 0x6F6E6C794F776E6572416E644F726967696E616C3A2063616C6C657220697320 PUSH1 0x40 DUP3 ADD MSTORE PUSH13 0x3737BA103A34329037BBB732B9 PUSH1 0x99 SHL PUSH1 0x60 DUP3 ADD MSTORE PUSH1 0x80 ADD SWAP1 JUMP JUMPDEST PUSH1 0x40 DUP1 DUP3 MSTORE DUP2 ADD DUP4 SWAP1 MSTORE PUSH1 0x0 DUP5 PUSH1 0x60 DUP4 ADD DUP3 JUMPDEST DUP7 DUP2 LT ISZERO PUSH2 0x168D JUMPI PUSH1 0x1 PUSH1 0x1 PUSH1 0xA0 SHL SUB PUSH2 0x1678 DUP5 PUSH2 0x1389 JUMP JUMPDEST AND DUP3 MSTORE PUSH1 0x20 SWAP3 DUP4 ADD SWAP3 SWAP1 SWAP2 ADD SWAP1 PUSH1 0x1 ADD PUSH2 0x165F JUMP JUMPDEST POP DUP1 SWAP3 POP POP POP PUSH1 0xFF DUP4 AND PUSH1 0x20 DUP4 ADD MSTORE SWAP5 SWAP4 POP POP POP POP JUMP JUMPDEST DUP2 DUP4 DUP3 CALLDATACOPY PUSH1 0x0 SWAP2 ADD SWAP1 DUP2 MSTORE SWAP2 SWAP1 POP JUMP JUMPDEST DUP1 DUP3 ADD DUP1 DUP3 GT ISZERO PUSH2 0xDD3 JUMPI PUSH2 0xDD3 PUSH2 0x1574 JUMP JUMPDEST PUSH12 0xFFFFFFFFFFFFFFFFFFFFFFFF NOT DUP2 CALLDATALOAD DUP2 DUP2 AND SWAP2 PUSH1 0x14 DUP6 LT ISZERO PUSH2 0x16F4 JUMPI DUP1 DUP2 DUP7 PUSH1 0x14 SUB PUSH1 0x3 SHL SHL DUP4 AND AND SWAP3 POP JUMPDEST POP POP SWAP3 SWAP2 POP POP JUMP JUMPDEST DUP1 CALLDATALOAD PUSH1 0x20 DUP4 LT ISZERO PUSH2 0xDD3 JUMPI PUSH1 0x0 NOT PUSH1 0x20 DUP5 SWAP1 SUB PUSH1 0x3 SHL SHL AND SWAP3 SWAP2 POP POP JUMP JUMPDEST PUSH4 0x4E487B71 PUSH1 0xE0 SHL PUSH1 0x0 MSTORE PUSH1 0x21 PUSH1 0x4 MSTORE PUSH1 0x24 PUSH1 0x0 REVERT INVALID LOG2 PUSH5 0x6970667358 0x22 SLT KECCAK256 PUSH21 0x22AA84F16D1BE2373D235FE3F2A3C365B0EF975FFF 0x4E 0xC7 POP LOG0 0xE PUSH12 0x7B594BA064736F6C63430008 SLT STOP CALLER LOG2 PUSH5 0x6970667358 0x22 SLT KECCAK256 CREATE2 0xED RETURNDATACOPY DUP8 PUSH20 0xAE93377566FE2ED757B45DD2028FB95320C1190B STOP 0xB8 SIGNEXTEND 0xA5 0x29 0xA7 PUSH17 0x64736F6C63430008120033000000000000 "},"methodIdentifiers":{"computeWalletAddr(bytes32)":"ef32a249","createWallet(bytes32,address,address)":"ac35b1d4","owner()":"8da5cb5b","wallets(address)":"89b08f11"}}}}}