{"contracts/wallet/PublicSocialRecovery.sol":{"PublicSocialRecovery":{"abi":[{"inputs":[],"stateMutability":"nonpayable","type":"constructor"},{"anonymous":false,"inputs":[{"indexed":true,"internalType":"address","name":"smartWallet","type":"address"},{"indexed":false,"internalType":"address","name":"approver","type":"address"},{"indexed":false,"internalType":"bytes32","name":"proposal","type":"bytes32"}],"name":"AddApprove","type":"event"},{"anonymous":false,"inputs":[{"indexed":true,"internalType":"address","name":"smartWallet","type":"address"},{"indexed":false,"internalType":"address","name":"guardian","type":"address"},{"indexed":false,"internalType":"bytes32","name":"proposal","type":"bytes32"}],"name":"AddGuardian","type":"event"},{"anonymous":false,"inputs":[{"indexed":true,"internalType":"address","name":"smartWallet","type":"address"},{"indexed":false,"internalType":"address","name":"rejecter","type":"address"},{"indexed":false,"internalType":"bytes32","name":"proposal","type":"bytes32"}],"name":"AddReject","type":"event"},{"anonymous":false,"inputs":[{"indexed":true,"internalType":"address","name":"smartWallet","type":"address"},{"indexed":false,"internalType":"address","name":"executor","type":"address"},{"indexed":false,"internalType":"bytes32","name":"proposal","type":"bytes32"}],"name":"AdoptProposal","type":"event"},{"anonymous":false,"inputs":[{"indexed":true,"internalType":"address","name":"smartWallet","type":"address"},{"indexed":false,"internalType":"address","name":"proposer","type":"address"},{"indexed":false,"internalType":"bytes32","name":"proposal","type":"bytes32"}],"name":"NewProposal","type":"event"},{"anonymous":false,"inputs":[{"indexed":true,"internalType":"address","name":"smartWallet","type":"address"},{"indexed":false,"internalType":"address","name":"executor","type":"address"},{"indexed":false,"internalType":"bytes32","name":"proposal","type":"bytes32"}],"name":"RejectProposal","type":"event"},{"anonymous":false,"inputs":[{"indexed":true,"internalType":"address","name":"smartWallet","type":"address"},{"indexed":false,"internalType":"address","name":"guardian","type":"address"},{"indexed":false,"internalType":"bytes32","name":"proposal","type":"bytes32"}],"name":"RemoveGuardian","type":"event"},{"anonymous":false,"inputs":[{"indexed":true,"internalType":"address","name":"smartWallet","type":"address"},{"indexed":false,"internalType":"uint8","name":"num","type":"uint8"},{"indexed":false,"internalType":"bytes32","name":"proposal","type":"bytes32"}],"name":"UpdateNeedGuardiansNum","type":"event"},{"inputs":[{"internalType":"address","name":"smartWallet","type":"address"}],"name":"getGroup","outputs":[{"components":[{"internalType":"address","name":"smartWallet","type":"address"},{"internalType":"address[]","name":"guardians","type":"address[]"},{"internalType":"uint8","name":"needGuardiansNum","type":"uint8"},{"internalType":"address[]","name":"approvedGuardians","type":"address[]"},{"internalType":"address[]","name":"rejectedGuardians","type":"address[]"},{"internalType":"bytes32","name":"proposal","type":"bytes32"},{"internalType":"bool","name":"exist","type":"bool"}],"internalType":"struct PublicSocialRecovery.Group","name":"","type":"tuple"}],"stateMutability":"view","type":"function"},{"inputs":[{"internalType":"address","name":"","type":"address"}],"name":"groups","outputs":[{"internalType":"address","name":"smartWallet","type":"address"},{"internalType":"uint8","name":"needGuardiansNum","type":"uint8"},{"internalType":"bytes32","name":"proposal","type":"bytes32"},{"internalType":"bool","name":"exist","type":"bool"}],"stateMutability":"view","type":"function"},{"inputs":[{"internalType":"address","name":"smartWallet","type":"address"},{"internalType":"bytes32","name":"proposal","type":"bytes32"}],"name":"propose","outputs":[],"stateMutability":"nonpayable","type":"function"},{"inputs":[{"internalType":"address[]","name":"guardians","type":"address[]"},{"internalType":"uint8","name":"needGuardiansNum","type":"uint8"}],"name":"setGroup","outputs":[],"stateMutability":"nonpayable","type":"function"}],"evm":{"bytecode":{"linkReferences":{},"object":"608060405234801561001057600080fd5b5061130a806100206000396000f3fe608060405234801561001057600080fd5b506004361061004c5760003560e01c8063266dd7fe1461005157806353adce211461006657806363d5e44d1461008f57806369576c3d14610103575b600080fd5b61006461005f36600461106f565b610116565b005b610079610074366004611117565b610325565b604051610086919061117d565b60405180910390f35b6100d561009d366004611117565b60006020819052908152604090208054600282015460058301546006909301546001600160a01b039092169260ff9182169290911684565b604080516001600160a01b03909516855260ff90931660208501529183015215156060820152608001610086565b61006461011136600461121d565b6104d8565b3360009081526020819052604090206006015460ff161561017e5760405162461bcd60e51b815260206004820152601d60248201527f73657447726f75703a2067726f757020616c726561647920657869737400000060448201526064015b60405180910390fd5b60008160ff16118015610194575060ff81168210155b6101e05760405162461bcd60e51b815260206004820181905260248201527f73657447726f75703a206e656564477561726469616e734e756d206572726f726044820152606401610175565b6040518060e00160405280336001600160a01b03168152602001848480806020026020016040519081016040528093929190818152602001838360200280828437600092018290525093855250505060ff84166020808401919091526040805183815280830182528185015280518381528083018252606085015260808401839052600160a0909401849052338352828252909120835181546001600160a01b0319166001600160a01b0390911617815583820151805191936102a99390850192910190610ff5565b50604082015160028201805460ff191660ff909216919091179055606082015180516102df916003840191602090910190610ff5565b50608082015180516102fb916004840191602090910190610ff5565b5060a0820151600582015560c0909101516006909101805460ff1916911515919091179055505050565b6040805160e0810182526000808252606060208301819052928201819052828201839052608082019290925260a0810182905260c08101919091526001600160a01b0380831660009081526020818152604091829020825160e081018452815490941684526001810180548451818502810185019095528085529193858401939092908301828280156103e157602002820191906000526020600020905b81546001600160a01b031681526001909101906020018083116103c3575b5050509183525050600282015460ff16602080830191909152600383018054604080518285028101850182528281529401939283018282801561044d57602002820191906000526020600020905b81546001600160a01b0316815260019091019060200180831161042f575b50505050508152602001600482018054806020026020016040519081016040528092919081815260200182805480156104af57602002820191906000526020600020905b81546001600160a01b03168152600190910190602001808311610491575b50505091835250506005820154602082015260069091015460ff16151560409091015292915050565b6001600160a01b038216600090815260208190526040812090805b600183015460ff8216101561055757336001600160a01b0316836001018260ff168154811061052457610524611247565b6000918252602090912001546001600160a01b0316036105475760019150610557565b61055081611273565b90506104f3565b50806105a55760405162461bcd60e51b815260206004820181905260248201527f70726f706f73653a20796f75277265206e6f742074686520477561726469616e6044820152606401610175565b60005b600383015460ff8216101561064357336001600160a01b0316836003018260ff16815481106105d9576105d9611247565b6000918252602090912001546001600160a01b0316036106335760405162461bcd60e51b81526020600482015260156024820152741c1c9bdc1bdcd94e88191bdb89dd081c995c19585d605a1b6044820152606401610175565b61063c81611273565b90506105a8565b5060005b600483015460ff821610156106e257336001600160a01b0316836004018260ff168154811061067857610678611247565b6000918252602090912001546001600160a01b0316036106d25760405162461bcd60e51b81526020600482015260156024820152741c1c9bdc1bdcd94e88191bdb89dd081c995c19585d605a1b6044820152606401610175565b6106db81611273565b9050610647565b831580156106f257506005830154155b1561074d5760405162461bcd60e51b815260206004820152602560248201527f70726f706f73653a206e65772070726f706f73616c2063616e6e6f7420626520604482015264656d70747960d81b6064820152608401610175565b600283015460ff166001036107b6576005830184905561076c83610a97565b60408051338152602081018690526001600160a01b038716917f584def074676d98fcd7c6e1558d732527eed8f7277baf503f32971f9ab00075991015b60405180910390a2610a90565b60058301541580156107c757508315155b1561083e5760038301805460018101825560009182526020918290200180546001600160a01b0319163390811790915560058501869055604080519182529181018690526001600160a01b038716917f584def074676d98fcd7c6e1558d732527eed8f7277baf503f32971f9ab00075991016107a9565b83836005015414801561086957506002830154600384015460ff90911690610867906001611292565b105b156108d95760038301805460018101825560009182526020918290200180546001600160a01b03191633908117909155604080519182529181018690526001600160a01b038716917f9789ee15c281b0de031a41f8bf94352fb97a0e6ba93f31f98fbc917ce80f680a91016107a9565b83836005015414801561090557506002830154600384015460ff90911690610902906001611292565b10155b156109185761091383610a97565b610a90565b8383600501541415801561095157506002830154600184015461093e9160ff16906112ab565b600484015461094e906001611292565b11155b156109c15760048301805460018101825560009182526020918290200180546001600160a01b03191633908117909155604080519182529181018690526001600160a01b038716917fbb16c373393394a9be1d5d21d52448c97c88c59de0fed7ba8056715e385e9b7491016107a9565b838360050154141580156109f95750600283015460018401546109e79160ff16906112ab565b60048401546109f7906001611292565b115b15610a4857610a0783610c85565b60408051338152602081018690526001600160a01b038716917fd02b3861b428925478f8964763ebd50f1cf1fe0f9bc3b50ce2dbb617a3a14f3991016107a9565b60405162461bcd60e51b815260206004820152601860248201527f70726f706f73653a20736f6d657468696e672077726f6e6700000000000000006044820152606401610175565b5050505050565b6005810154610aa582610c85565b60a081901c600103610b1257610abb8282610ce5565b610ac482610c85565b8154604080516001600160a01b03848116825260208201859052909216917ff95a23a6c3d745c5e9a253c4f1694de843f6127147eb80cb0475515529beb1af91015b60405180910390a25050565b60a081901c600203610b7757610b288282610dcf565b610b3182610c85565b8154604080516001600160a01b03848116825260208201859052909216917fed8c99bcb8759623f908a16a9134f2cc1210313c51aa874c636ef8085c6b7c399101610b06565b60a081901c600303610bdd57610b8d8282610f6f565b610b9682610c85565b81546040805160ff84168152602081018490526001600160a01b03909216917f4a411c5aff76472e2f2fd71f0db7fc0bc59ae8f79d1bf2f1b46daa2b83e071ff9101610b06565b81546040516312a307c360e11b8152600481018390526001600160a01b03909116906325460f8690602401600060405180830381600087803b158015610c2257600080fd5b505af1158015610c36573d6000803e3d6000fd5b5050835460408051338152602081018690526001600160a01b0390921693507f545c32afa46184ca6e9763de43f75fe97ff16e785175f3e7259795f9a66614a692500160405180910390a25050565b600381015415610cb0576040805160008152602081019182905251610cae916003840191610ff5565b505b600481015415610cdb576040805160008152602081019182905251610cd9916004840191610ff5565b505b6000600590910155565b60005b600183015460ff82161015610d4357816001600160a01b0316836001018260ff1681548110610d1957610d19611247565b6000918252602090912001546001600160a01b031614610d4357610d3c81611273565b9050610ce8565b600183015460ff821603610d87576001808401805491820181556000908152602090200180546001600160a01b0384166001600160a01b0319909116179055505050565b60405162461bcd60e51b815260206004820152601a60248201527f616464477561726469616e3a20616c72656164792065786973740000000000006044820152606401610175565b60005b600183015460ff82161015610e2d57816001600160a01b0316836001018260ff1681548110610e0357610e03611247565b6000918252602090912001546001600160a01b031614610e2d57610e2681611273565b9050610dd2565b600183015460ff82161015610f2757600180840180549091610e4e916112ab565b81548110610e5e57610e5e611247565b6000918252602090912001546001840180546001600160a01b039092169160ff8416908110610e8f57610e8f611247565b9060005260206000200160006101000a8154816001600160a01b0302191690836001600160a01b0316021790555082600101805480610ed057610ed06112be565b600082815260209020810160001990810180546001600160a01b03191690550190556002830154600184015460ff9091161115610f2257600183015460028401805460ff191660ff9092169190911790555b505050565b60405162461bcd60e51b815260206004820152601960248201527f72656d6f7665477561726469616e3a206e6f74206578697374000000000000006044820152606401610175565b60008160ff16118015610f895750600182015460ff821611155b15610fa35760028201805460ff191660ff83161790555050565b60405162461bcd60e51b815260206004820152602160248201527f7570646174654e656564477561726469616e734e756d3a206e756d206572726f6044820152603960f91b6064820152608401610175565b82805482825590600052602060002090810192821561104a579160200282015b8281111561104a57825182546001600160a01b0319166001600160a01b03909116178255602090920191600190910190611015565b5061105692915061105a565b5090565b5b80821115611056576000815560010161105b565b60008060006040848603121561108457600080fd5b833567ffffffffffffffff8082111561109c57600080fd5b818601915086601f8301126110b057600080fd5b8135818111156110bf57600080fd5b8760208260051b85010111156110d457600080fd5b6020928301955093505084013560ff811681146110f057600080fd5b809150509250925092565b80356001600160a01b038116811461111257600080fd5b919050565b60006020828403121561112957600080fd5b611132826110fb565b9392505050565b600081518084526020808501945080840160005b838110156111725781516001600160a01b03168752958201959082019060010161114d565b509495945050505050565b602080825282516001600160a01b03168282015282015160e060408301526000906111ac610100840182611139565b905060ff60408501511660608401526060840151601f19808584030160808601526111d78383611139565b925060808601519150808584030160a0860152506111f58282611139565b91505060a084015160c084015260c084015161121560e085018215159052565b509392505050565b6000806040838503121561123057600080fd5b611239836110fb565b946020939093013593505050565b634e487b7160e01b600052603260045260246000fd5b634e487b7160e01b600052601160045260246000fd5b600060ff821660ff81036112895761128961125d565b60010192915050565b808201808211156112a5576112a561125d565b92915050565b818103818111156112a5576112a561125d565b634e487b7160e01b600052603160045260246000fdfea26469706673582212206b317b33ef5dd2fc9d5fd8f6f21ff3b93dafcb7d846abf567217de6535fe97ea64736f6c63430008120033","opcodes":"PUSH1 0x80 PUSH1 0x40 MSTORE CALLVALUE DUP1 ISZERO PUSH2 0x10 JUMPI PUSH1 0x0 DUP1 REVERT JUMPDEST POP PUSH2 0x130A DUP1 PUSH2 0x20 PUSH1 0x0 CODECOPY PUSH1 0x0 RETURN INVALID PUSH1 0x80 PUSH1 0x40 MSTORE CALLVALUE DUP1 ISZERO PUSH2 0x10 JUMPI PUSH1 0x0 DUP1 REVERT JUMPDEST POP PUSH1 0x4 CALLDATASIZE LT PUSH2 0x4C JUMPI PUSH1 0x0 CALLDATALOAD PUSH1 0xE0 SHR DUP1 PUSH4 0x266DD7FE EQ PUSH2 0x51 JUMPI DUP1 PUSH4 0x53ADCE21 EQ PUSH2 0x66 JUMPI DUP1 PUSH4 0x63D5E44D EQ PUSH2 0x8F JUMPI DUP1 PUSH4 0x69576C3D EQ PUSH2 0x103 JUMPI JUMPDEST PUSH1 0x0 DUP1 REVERT JUMPDEST PUSH2 0x64 PUSH2 0x5F CALLDATASIZE PUSH1 0x4 PUSH2 0x106F JUMP JUMPDEST PUSH2 0x116 JUMP JUMPDEST STOP JUMPDEST PUSH2 0x79 PUSH2 0x74 CALLDATASIZE PUSH1 0x4 PUSH2 0x1117 JUMP JUMPDEST PUSH2 0x325 JUMP JUMPDEST PUSH1 0x40 MLOAD PUSH2 0x86 SWAP2 SWAP1 PUSH2 0x117D JUMP JUMPDEST PUSH1 0x40 MLOAD DUP1 SWAP2 SUB SWAP1 RETURN JUMPDEST PUSH2 0xD5 PUSH2 0x9D CALLDATASIZE PUSH1 0x4 PUSH2 0x1117 JUMP JUMPDEST PUSH1 0x0 PUSH1 0x20 DUP2 SWAP1 MSTORE SWAP1 DUP2 MSTORE PUSH1 0x40 SWAP1 KECCAK256 DUP1 SLOAD PUSH1 0x2 DUP3 ADD SLOAD PUSH1 0x5 DUP4 ADD SLOAD PUSH1 0x6 SWAP1 SWAP4 ADD SLOAD PUSH1 0x1 PUSH1 0x1 PUSH1 0xA0 SHL SUB SWAP1 SWAP3 AND SWAP3 PUSH1 0xFF SWAP2 DUP3 AND SWAP3 SWAP1 SWAP2 AND DUP5 JUMP JUMPDEST PUSH1 0x40 DUP1 MLOAD PUSH1 0x1 PUSH1 0x1 PUSH1 0xA0 SHL SUB SWAP1 SWAP6 AND DUP6 MSTORE PUSH1 0xFF SWAP1 SWAP4 AND PUSH1 0x20 DUP6 ADD MSTORE SWAP2 DUP4 ADD MSTORE ISZERO ISZERO PUSH1 0x60 DUP3 ADD MSTORE PUSH1 0x80 ADD PUSH2 0x86 JUMP JUMPDEST PUSH2 0x64 PUSH2 0x111 CALLDATASIZE PUSH1 0x4 PUSH2 0x121D JUMP JUMPDEST PUSH2 0x4D8 JUMP JUMPDEST CALLER PUSH1 0x0 SWAP1 DUP2 MSTORE PUSH1 0x20 DUP2 SWAP1 MSTORE PUSH1 0x40 SWAP1 KECCAK256 PUSH1 0x6 ADD SLOAD PUSH1 0xFF AND ISZERO PUSH2 0x17E JUMPI PUSH1 0x40 MLOAD PUSH3 0x461BCD PUSH1 0xE5 SHL DUP2 MSTORE PUSH1 0x20 PUSH1 0x4 DUP3 ADD MSTORE PUSH1 0x1D PUSH1 0x24 DUP3 ADD MSTORE PUSH32 0x73657447726F75703A2067726F757020616C7265616479206578697374000000 PUSH1 0x44 DUP3 ADD MSTORE PUSH1 0x64 ADD JUMPDEST PUSH1 0x40 MLOAD DUP1 SWAP2 SUB SWAP1 REVERT JUMPDEST PUSH1 0x0 DUP2 PUSH1 0xFF AND GT DUP1 ISZERO PUSH2 0x194 JUMPI POP PUSH1 0xFF DUP2 AND DUP3 LT ISZERO JUMPDEST PUSH2 0x1E0 JUMPI PUSH1 0x40 MLOAD PUSH3 0x461BCD PUSH1 0xE5 SHL DUP2 MSTORE PUSH1 0x20 PUSH1 0x4 DUP3 ADD DUP2 SWAP1 MSTORE PUSH1 0x24 DUP3 ADD MSTORE PUSH32 0x73657447726F75703A206E656564477561726469616E734E756D206572726F72 PUSH1 0x44 DUP3 ADD MSTORE PUSH1 0x64 ADD PUSH2 0x175 JUMP JUMPDEST PUSH1 0x40 MLOAD DUP1 PUSH1 0xE0 ADD PUSH1 0x40 MSTORE DUP1 CALLER PUSH1 0x1 PUSH1 0x1 PUSH1 0xA0 SHL SUB AND DUP2 MSTORE PUSH1 0x20 ADD DUP5 DUP5 DUP1 DUP1 PUSH1 0x20 MUL PUSH1 0x20 ADD PUSH1 0x40 MLOAD SWAP1 DUP2 ADD PUSH1 0x40 MSTORE DUP1 SWAP4 SWAP3 SWAP2 SWAP1 DUP2 DUP2 MSTORE PUSH1 0x20 ADD DUP4 DUP4 PUSH1 0x20 MUL DUP1 DUP3 DUP5 CALLDATACOPY PUSH1 0x0 SWAP3 ADD DUP3 SWAP1 MSTORE POP SWAP4 DUP6 MSTORE POP POP POP PUSH1 0xFF DUP5 AND PUSH1 0x20 DUP1 DUP5 ADD SWAP2 SWAP1 SWAP2 MSTORE PUSH1 0x40 DUP1 MLOAD DUP4 DUP2 MSTORE DUP1 DUP4 ADD DUP3 MSTORE DUP2 DUP6 ADD MSTORE DUP1 MLOAD DUP4 DUP2 MSTORE DUP1 DUP4 ADD DUP3 MSTORE PUSH1 0x60 DUP6 ADD MSTORE PUSH1 0x80 DUP5 ADD DUP4 SWAP1 MSTORE PUSH1 0x1 PUSH1 0xA0 SWAP1 SWAP5 ADD DUP5 SWAP1 MSTORE CALLER DUP4 MSTORE DUP3 DUP3 MSTORE SWAP1 SWAP2 KECCAK256 DUP4 MLOAD DUP2 SLOAD PUSH1 0x1 PUSH1 0x1 PUSH1 0xA0 SHL SUB NOT AND PUSH1 0x1 PUSH1 0x1 PUSH1 0xA0 SHL SUB SWAP1 SWAP2 AND OR DUP2 SSTORE DUP4 DUP3 ADD MLOAD DUP1 MLOAD SWAP2 SWAP4 PUSH2 0x2A9 SWAP4 SWAP1 DUP6 ADD SWAP3 SWAP2 ADD SWAP1 PUSH2 0xFF5 JUMP JUMPDEST POP PUSH1 0x40 DUP3 ADD MLOAD PUSH1 0x2 DUP3 ADD DUP1 SLOAD PUSH1 0xFF NOT AND PUSH1 0xFF SWAP1 SWAP3 AND SWAP2 SWAP1 SWAP2 OR SWAP1 SSTORE PUSH1 0x60 DUP3 ADD MLOAD DUP1 MLOAD PUSH2 0x2DF SWAP2 PUSH1 0x3 DUP5 ADD SWAP2 PUSH1 0x20 SWAP1 SWAP2 ADD SWAP1 PUSH2 0xFF5 JUMP JUMPDEST POP PUSH1 0x80 DUP3 ADD MLOAD DUP1 MLOAD PUSH2 0x2FB SWAP2 PUSH1 0x4 DUP5 ADD SWAP2 PUSH1 0x20 SWAP1 SWAP2 ADD SWAP1 PUSH2 0xFF5 JUMP JUMPDEST POP PUSH1 0xA0 DUP3 ADD MLOAD PUSH1 0x5 DUP3 ADD SSTORE PUSH1 0xC0 SWAP1 SWAP2 ADD MLOAD PUSH1 0x6 SWAP1 SWAP2 ADD DUP1 SLOAD PUSH1 0xFF NOT AND SWAP2 ISZERO ISZERO SWAP2 SWAP1 SWAP2 OR SWAP1 SSTORE POP POP POP JUMP JUMPDEST PUSH1 0x40 DUP1 MLOAD PUSH1 0xE0 DUP2 ADD DUP3 MSTORE PUSH1 0x0 DUP1 DUP3 MSTORE PUSH1 0x60 PUSH1 0x20 DUP4 ADD DUP2 SWAP1 MSTORE SWAP3 DUP3 ADD DUP2 SWAP1 MSTORE DUP3 DUP3 ADD DUP4 SWAP1 MSTORE PUSH1 0x80 DUP3 ADD SWAP3 SWAP1 SWAP3 MSTORE PUSH1 0xA0 DUP2 ADD DUP3 SWAP1 MSTORE PUSH1 0xC0 DUP2 ADD SWAP2 SWAP1 SWAP2 MSTORE PUSH1 0x1 PUSH1 0x1 PUSH1 0xA0 SHL SUB DUP1 DUP4 AND PUSH1 0x0 SWAP1 DUP2 MSTORE PUSH1 0x20 DUP2 DUP2 MSTORE PUSH1 0x40 SWAP2 DUP3 SWAP1 KECCAK256 DUP3 MLOAD PUSH1 0xE0 DUP2 ADD DUP5 MSTORE DUP2 SLOAD SWAP1 SWAP5 AND DUP5 MSTORE PUSH1 0x1 DUP2 ADD DUP1 SLOAD DUP5 MLOAD DUP2 DUP6 MUL DUP2 ADD DUP6 ADD SWAP1 SWAP6 MSTORE DUP1 DUP6 MSTORE SWAP2 SWAP4 DUP6 DUP5 ADD SWAP4 SWAP1 SWAP3 SWAP1 DUP4 ADD DUP3 DUP3 DUP1 ISZERO PUSH2 0x3E1 JUMPI PUSH1 0x20 MUL DUP3 ADD SWAP2 SWAP1 PUSH1 0x0 MSTORE PUSH1 0x20 PUSH1 0x0 KECCAK256 SWAP1 JUMPDEST DUP2 SLOAD PUSH1 0x1 PUSH1 0x1 PUSH1 0xA0 SHL SUB AND DUP2 MSTORE PUSH1 0x1 SWAP1 SWAP2 ADD SWAP1 PUSH1 0x20 ADD DUP1 DUP4 GT PUSH2 0x3C3 JUMPI JUMPDEST POP POP POP SWAP2 DUP4 MSTORE POP POP PUSH1 0x2 DUP3 ADD SLOAD PUSH1 0xFF AND PUSH1 0x20 DUP1 DUP4 ADD SWAP2 SWAP1 SWAP2 MSTORE PUSH1 0x3 DUP4 ADD DUP1 SLOAD PUSH1 0x40 DUP1 MLOAD DUP3 DUP6 MUL DUP2 ADD DUP6 ADD DUP3 MSTORE DUP3 DUP2 MSTORE SWAP5 ADD SWAP4 SWAP3 DUP4 ADD DUP3 DUP3 DUP1 ISZERO PUSH2 0x44D JUMPI PUSH1 0x20 MUL DUP3 ADD SWAP2 SWAP1 PUSH1 0x0 MSTORE PUSH1 0x20 PUSH1 0x0 KECCAK256 SWAP1 JUMPDEST DUP2 SLOAD PUSH1 0x1 PUSH1 0x1 PUSH1 0xA0 SHL SUB AND DUP2 MSTORE PUSH1 0x1 SWAP1 SWAP2 ADD SWAP1 PUSH1 0x20 ADD DUP1 DUP4 GT PUSH2 0x42F JUMPI JUMPDEST POP POP POP POP POP DUP2 MSTORE PUSH1 0x20 ADD PUSH1 0x4 DUP3 ADD DUP1 SLOAD DUP1 PUSH1 0x20 MUL PUSH1 0x20 ADD PUSH1 0x40 MLOAD SWAP1 DUP2 ADD PUSH1 0x40 MSTORE DUP1 SWAP3 SWAP2 SWAP1 DUP2 DUP2 MSTORE PUSH1 0x20 ADD DUP3 DUP1 SLOAD DUP1 ISZERO PUSH2 0x4AF JUMPI PUSH1 0x20 MUL DUP3 ADD SWAP2 SWAP1 PUSH1 0x0 MSTORE PUSH1 0x20 PUSH1 0x0 KECCAK256 SWAP1 JUMPDEST DUP2 SLOAD PUSH1 0x1 PUSH1 0x1 PUSH1 0xA0 SHL SUB AND DUP2 MSTORE PUSH1 0x1 SWAP1 SWAP2 ADD SWAP1 PUSH1 0x20 ADD DUP1 DUP4 GT PUSH2 0x491 JUMPI JUMPDEST POP POP POP SWAP2 DUP4 MSTORE POP POP PUSH1 0x5 DUP3 ADD SLOAD PUSH1 0x20 DUP3 ADD MSTORE PUSH1 0x6 SWAP1 SWAP2 ADD SLOAD PUSH1 0xFF AND ISZERO ISZERO PUSH1 0x40 SWAP1 SWAP2 ADD MSTORE SWAP3 SWAP2 POP POP JUMP JUMPDEST PUSH1 0x1 PUSH1 0x1 PUSH1 0xA0 SHL SUB DUP3 AND PUSH1 0x0 SWAP1 DUP2 MSTORE PUSH1 0x20 DUP2 SWAP1 MSTORE PUSH1 0x40 DUP2 KECCAK256 SWAP1 DUP1 JUMPDEST PUSH1 0x1 DUP4 ADD SLOAD PUSH1 0xFF DUP3 AND LT ISZERO PUSH2 0x557 JUMPI CALLER PUSH1 0x1 PUSH1 0x1 PUSH1 0xA0 SHL SUB AND DUP4 PUSH1 0x1 ADD DUP3 PUSH1 0xFF AND DUP2 SLOAD DUP2 LT PUSH2 0x524 JUMPI PUSH2 0x524 PUSH2 0x1247 JUMP JUMPDEST PUSH1 0x0 SWAP2 DUP3 MSTORE PUSH1 0x20 SWAP1 SWAP2 KECCAK256 ADD SLOAD PUSH1 0x1 PUSH1 0x1 PUSH1 0xA0 SHL SUB AND SUB PUSH2 0x547 JUMPI PUSH1 0x1 SWAP2 POP PUSH2 0x557 JUMP JUMPDEST PUSH2 0x550 DUP2 PUSH2 0x1273 JUMP JUMPDEST SWAP1 POP PUSH2 0x4F3 JUMP JUMPDEST POP DUP1 PUSH2 0x5A5 JUMPI PUSH1 0x40 MLOAD PUSH3 0x461BCD PUSH1 0xE5 SHL DUP2 MSTORE PUSH1 0x20 PUSH1 0x4 DUP3 ADD DUP2 SWAP1 MSTORE PUSH1 0x24 DUP3 ADD MSTORE PUSH32 0x70726F706F73653A20796F75277265206E6F742074686520477561726469616E PUSH1 0x44 DUP3 ADD MSTORE PUSH1 0x64 ADD PUSH2 0x175 JUMP JUMPDEST PUSH1 0x0 JUMPDEST PUSH1 0x3 DUP4 ADD SLOAD PUSH1 0xFF DUP3 AND LT ISZERO PUSH2 0x643 JUMPI CALLER PUSH1 0x1 PUSH1 0x1 PUSH1 0xA0 SHL SUB AND DUP4 PUSH1 0x3 ADD DUP3 PUSH1 0xFF AND DUP2 SLOAD DUP2 LT PUSH2 0x5D9 JUMPI PUSH2 0x5D9 PUSH2 0x1247 JUMP JUMPDEST PUSH1 0x0 SWAP2 DUP3 MSTORE PUSH1 0x20 SWAP1 SWAP2 KECCAK256 ADD SLOAD PUSH1 0x1 PUSH1 0x1 PUSH1 0xA0 SHL SUB AND SUB PUSH2 0x633 JUMPI PUSH1 0x40 MLOAD PUSH3 0x461BCD PUSH1 0xE5 SHL DUP2 MSTORE PUSH1 0x20 PUSH1 0x4 DUP3 ADD MSTORE PUSH1 0x15 PUSH1 0x24 DUP3 ADD MSTORE PUSH21 0x1C1C9BDC1BDCD94E88191BDB89DD081C995C19585D PUSH1 0x5A SHL PUSH1 0x44 DUP3 ADD MSTORE PUSH1 0x64 ADD PUSH2 0x175 JUMP JUMPDEST PUSH2 0x63C DUP2 PUSH2 0x1273 JUMP JUMPDEST SWAP1 POP PUSH2 0x5A8 JUMP JUMPDEST POP PUSH1 0x0 JUMPDEST PUSH1 0x4 DUP4 ADD SLOAD PUSH1 0xFF DUP3 AND LT ISZERO PUSH2 0x6E2 JUMPI CALLER PUSH1 0x1 PUSH1 0x1 PUSH1 0xA0 SHL SUB AND DUP4 PUSH1 0x4 ADD DUP3 PUSH1 0xFF AND DUP2 SLOAD DUP2 LT PUSH2 0x678 JUMPI PUSH2 0x678 PUSH2 0x1247 JUMP JUMPDEST PUSH1 0x0 SWAP2 DUP3 MSTORE PUSH1 0x20 SWAP1 SWAP2 KECCAK256 ADD SLOAD PUSH1 0x1 PUSH1 0x1 PUSH1 0xA0 SHL SUB AND SUB PUSH2 0x6D2 JUMPI PUSH1 0x40 MLOAD PUSH3 0x461BCD PUSH1 0xE5 SHL DUP2 MSTORE PUSH1 0x20 PUSH1 0x4 DUP3 ADD MSTORE PUSH1 0x15 PUSH1 0x24 DUP3 ADD MSTORE PUSH21 0x1C1C9BDC1BDCD94E88191BDB89DD081C995C19585D PUSH1 0x5A SHL PUSH1 0x44 DUP3 ADD MSTORE PUSH1 0x64 ADD PUSH2 0x175 JUMP JUMPDEST PUSH2 0x6DB DUP2 PUSH2 0x1273 JUMP JUMPDEST SWAP1 POP PUSH2 0x647 JUMP JUMPDEST DUP4 ISZERO DUP1 ISZERO PUSH2 0x6F2 JUMPI POP PUSH1 0x5 DUP4 ADD SLOAD ISZERO JUMPDEST ISZERO PUSH2 0x74D JUMPI PUSH1 0x40 MLOAD PUSH3 0x461BCD PUSH1 0xE5 SHL DUP2 MSTORE PUSH1 0x20 PUSH1 0x4 DUP3 ADD MSTORE PUSH1 0x25 PUSH1 0x24 DUP3 ADD MSTORE PUSH32 0x70726F706F73653A206E65772070726F706F73616C2063616E6E6F7420626520 PUSH1 0x44 DUP3 ADD MSTORE PUSH5 0x656D707479 PUSH1 0xD8 SHL PUSH1 0x64 DUP3 ADD MSTORE PUSH1 0x84 ADD PUSH2 0x175 JUMP JUMPDEST PUSH1 0x2 DUP4 ADD SLOAD PUSH1 0xFF AND PUSH1 0x1 SUB PUSH2 0x7B6 JUMPI PUSH1 0x5 DUP4 ADD DUP5 SWAP1 SSTORE PUSH2 0x76C DUP4 PUSH2 0xA97 JUMP JUMPDEST PUSH1 0x40 DUP1 MLOAD CALLER DUP2 MSTORE PUSH1 0x20 DUP2 ADD DUP7 SWAP1 MSTORE PUSH1 0x1 PUSH1 0x1 PUSH1 0xA0 SHL SUB DUP8 AND SWAP2 PUSH32 0x584DEF074676D98FCD7C6E1558D732527EED8F7277BAF503F32971F9AB000759 SWAP2 ADD JUMPDEST PUSH1 0x40 MLOAD DUP1 SWAP2 SUB SWAP1 LOG2 PUSH2 0xA90 JUMP JUMPDEST PUSH1 0x5 DUP4 ADD SLOAD ISZERO DUP1 ISZERO PUSH2 0x7C7 JUMPI POP DUP4 ISZERO ISZERO JUMPDEST ISZERO PUSH2 0x83E JUMPI PUSH1 0x3 DUP4 ADD DUP1 SLOAD PUSH1 0x1 DUP2 ADD DUP3 SSTORE PUSH1 0x0 SWAP2 DUP3 MSTORE PUSH1 0x20 SWAP2 DUP3 SWAP1 KECCAK256 ADD DUP1 SLOAD PUSH1 0x1 PUSH1 0x1 PUSH1 0xA0 SHL SUB NOT AND CALLER SWAP1 DUP2 OR SWAP1 SWAP2 SSTORE PUSH1 0x5 DUP6 ADD DUP7 SWAP1 SSTORE PUSH1 0x40 DUP1 MLOAD SWAP2 DUP3 MSTORE SWAP2 DUP2 ADD DUP7 SWAP1 MSTORE PUSH1 0x1 PUSH1 0x1 PUSH1 0xA0 SHL SUB DUP8 AND SWAP2 PUSH32 0x584DEF074676D98FCD7C6E1558D732527EED8F7277BAF503F32971F9AB000759 SWAP2 ADD PUSH2 0x7A9 JUMP JUMPDEST DUP4 DUP4 PUSH1 0x5 ADD SLOAD EQ DUP1 ISZERO PUSH2 0x869 JUMPI POP PUSH1 0x2 DUP4 ADD SLOAD PUSH1 0x3 DUP5 ADD SLOAD PUSH1 0xFF SWAP1 SWAP2 AND SWAP1 PUSH2 0x867 SWAP1 PUSH1 0x1 PUSH2 0x1292 JUMP JUMPDEST LT JUMPDEST ISZERO PUSH2 0x8D9 JUMPI PUSH1 0x3 DUP4 ADD DUP1 SLOAD PUSH1 0x1 DUP2 ADD DUP3 SSTORE PUSH1 0x0 SWAP2 DUP3 MSTORE PUSH1 0x20 SWAP2 DUP3 SWAP1 KECCAK256 ADD DUP1 SLOAD PUSH1 0x1 PUSH1 0x1 PUSH1 0xA0 SHL SUB NOT AND CALLER SWAP1 DUP2 OR SWAP1 SWAP2 SSTORE PUSH1 0x40 DUP1 MLOAD SWAP2 DUP3 MSTORE SWAP2 DUP2 ADD DUP7 SWAP1 MSTORE PUSH1 0x1 PUSH1 0x1 PUSH1 0xA0 SHL SUB DUP8 AND SWAP2 PUSH32 0x9789EE15C281B0DE031A41F8BF94352FB97A0E6BA93F31F98FBC917CE80F680A SWAP2 ADD PUSH2 0x7A9 JUMP JUMPDEST DUP4 DUP4 PUSH1 0x5 ADD SLOAD EQ DUP1 ISZERO PUSH2 0x905 JUMPI POP PUSH1 0x2 DUP4 ADD SLOAD PUSH1 0x3 DUP5 ADD SLOAD PUSH1 0xFF SWAP1 SWAP2 AND SWAP1 PUSH2 0x902 SWAP1 PUSH1 0x1 PUSH2 0x1292 JUMP JUMPDEST LT ISZERO JUMPDEST ISZERO PUSH2 0x918 JUMPI PUSH2 0x913 DUP4 PUSH2 0xA97 JUMP JUMPDEST PUSH2 0xA90 JUMP JUMPDEST DUP4 DUP4 PUSH1 0x5 ADD SLOAD EQ ISZERO DUP1 ISZERO PUSH2 0x951 JUMPI POP PUSH1 0x2 DUP4 ADD SLOAD PUSH1 0x1 DUP5 ADD SLOAD PUSH2 0x93E SWAP2 PUSH1 0xFF AND SWAP1 PUSH2 0x12AB JUMP JUMPDEST PUSH1 0x4 DUP5 ADD SLOAD PUSH2 0x94E SWAP1 PUSH1 0x1 PUSH2 0x1292 JUMP JUMPDEST GT ISZERO JUMPDEST ISZERO PUSH2 0x9C1 JUMPI PUSH1 0x4 DUP4 ADD DUP1 SLOAD PUSH1 0x1 DUP2 ADD DUP3 SSTORE PUSH1 0x0 SWAP2 DUP3 MSTORE PUSH1 0x20 SWAP2 DUP3 SWAP1 KECCAK256 ADD DUP1 SLOAD PUSH1 0x1 PUSH1 0x1 PUSH1 0xA0 SHL SUB NOT AND CALLER SWAP1 DUP2 OR SWAP1 SWAP2 SSTORE PUSH1 0x40 DUP1 MLOAD SWAP2 DUP3 MSTORE SWAP2 DUP2 ADD DUP7 SWAP1 MSTORE PUSH1 0x1 PUSH1 0x1 PUSH1 0xA0 SHL SUB DUP8 AND SWAP2 PUSH32 0xBB16C373393394A9BE1D5D21D52448C97C88C59DE0FED7BA8056715E385E9B74 SWAP2 ADD PUSH2 0x7A9 JUMP JUMPDEST DUP4 DUP4 PUSH1 0x5 ADD SLOAD EQ ISZERO DUP1 ISZERO PUSH2 0x9F9 JUMPI POP PUSH1 0x2 DUP4 ADD SLOAD PUSH1 0x1 DUP5 ADD SLOAD PUSH2 0x9E7 SWAP2 PUSH1 0xFF AND SWAP1 PUSH2 0x12AB JUMP JUMPDEST PUSH1 0x4 DUP5 ADD SLOAD PUSH2 0x9F7 SWAP1 PUSH1 0x1 PUSH2 0x1292 JUMP JUMPDEST GT JUMPDEST ISZERO PUSH2 0xA48 JUMPI PUSH2 0xA07 DUP4 PUSH2 0xC85 JUMP JUMPDEST PUSH1 0x40 DUP1 MLOAD CALLER DUP2 MSTORE PUSH1 0x20 DUP2 ADD DUP7 SWAP1 MSTORE PUSH1 0x1 PUSH1 0x1 PUSH1 0xA0 SHL SUB DUP8 AND SWAP2 PUSH32 0xD02B3861B428925478F8964763EBD50F1CF1FE0F9BC3B50CE2DBB617A3A14F39 SWAP2 ADD PUSH2 0x7A9 JUMP JUMPDEST PUSH1 0x40 MLOAD PUSH3 0x461BCD PUSH1 0xE5 SHL DUP2 MSTORE PUSH1 0x20 PUSH1 0x4 DUP3 ADD MSTORE PUSH1 0x18 PUSH1 0x24 DUP3 ADD MSTORE PUSH32 0x70726F706F73653A20736F6D657468696E672077726F6E670000000000000000 PUSH1 0x44 DUP3 ADD MSTORE PUSH1 0x64 ADD PUSH2 0x175 JUMP JUMPDEST POP POP POP POP POP JUMP JUMPDEST PUSH1 0x5 DUP2 ADD SLOAD PUSH2 0xAA5 DUP3 PUSH2 0xC85 JUMP JUMPDEST PUSH1 0xA0 DUP2 SWAP1 SHR PUSH1 0x1 SUB PUSH2 0xB12 JUMPI PUSH2 0xABB DUP3 DUP3 PUSH2 0xCE5 JUMP JUMPDEST PUSH2 0xAC4 DUP3 PUSH2 0xC85 JUMP JUMPDEST DUP2 SLOAD PUSH1 0x40 DUP1 MLOAD PUSH1 0x1 PUSH1 0x1 PUSH1 0xA0 SHL SUB DUP5 DUP2 AND DUP3 MSTORE PUSH1 0x20 DUP3 ADD DUP6 SWAP1 MSTORE SWAP1 SWAP3 AND SWAP2 PUSH32 0xF95A23A6C3D745C5E9A253C4F1694DE843F6127147EB80CB0475515529BEB1AF SWAP2 ADD JUMPDEST PUSH1 0x40 MLOAD DUP1 SWAP2 SUB SWAP1 LOG2 POP POP JUMP JUMPDEST PUSH1 0xA0 DUP2 SWAP1 SHR PUSH1 0x2 SUB PUSH2 0xB77 JUMPI PUSH2 0xB28 DUP3 DUP3 PUSH2 0xDCF JUMP JUMPDEST PUSH2 0xB31 DUP3 PUSH2 0xC85 JUMP JUMPDEST DUP2 SLOAD PUSH1 0x40 DUP1 MLOAD PUSH1 0x1 PUSH1 0x1 PUSH1 0xA0 SHL SUB DUP5 DUP2 AND DUP3 MSTORE PUSH1 0x20 DUP3 ADD DUP6 SWAP1 MSTORE SWAP1 SWAP3 AND SWAP2 PUSH32 0xED8C99BCB8759623F908A16A9134F2CC1210313C51AA874C636EF8085C6B7C39 SWAP2 ADD PUSH2 0xB06 JUMP JUMPDEST PUSH1 0xA0 DUP2 SWAP1 SHR PUSH1 0x3 SUB PUSH2 0xBDD JUMPI PUSH2 0xB8D DUP3 DUP3 PUSH2 0xF6F JUMP JUMPDEST PUSH2 0xB96 DUP3 PUSH2 0xC85 JUMP JUMPDEST DUP2 SLOAD PUSH1 0x40 DUP1 MLOAD PUSH1 0xFF DUP5 AND DUP2 MSTORE PUSH1 0x20 DUP2 ADD DUP5 SWAP1 MSTORE PUSH1 0x1 PUSH1 0x1 PUSH1 0xA0 SHL SUB SWAP1 SWAP3 AND SWAP2 PUSH32 0x4A411C5AFF76472E2F2FD71F0DB7FC0BC59AE8F79D1BF2F1B46DAA2B83E071FF SWAP2 ADD PUSH2 0xB06 JUMP JUMPDEST DUP2 SLOAD PUSH1 0x40 MLOAD PUSH4 0x12A307C3 PUSH1 0xE1 SHL DUP2 MSTORE PUSH1 0x4 DUP2 ADD DUP4 SWAP1 MSTORE PUSH1 0x1 PUSH1 0x1 PUSH1 0xA0 SHL SUB SWAP1 SWAP2 AND SWAP1 PUSH4 0x25460F86 SWAP1 PUSH1 0x24 ADD PUSH1 0x0 PUSH1 0x40 MLOAD DUP1 DUP4 SUB DUP2 PUSH1 0x0 DUP8 DUP1 EXTCODESIZE ISZERO DUP1 ISZERO PUSH2 0xC22 JUMPI PUSH1 0x0 DUP1 REVERT JUMPDEST POP GAS CALL ISZERO DUP1 ISZERO PUSH2 0xC36 JUMPI RETURNDATASIZE PUSH1 0x0 DUP1 RETURNDATACOPY RETURNDATASIZE PUSH1 0x0 REVERT JUMPDEST POP POP DUP4 SLOAD PUSH1 0x40 DUP1 MLOAD CALLER DUP2 MSTORE PUSH1 0x20 DUP2 ADD DUP7 SWAP1 MSTORE PUSH1 0x1 PUSH1 0x1 PUSH1 0xA0 SHL SUB SWAP1 SWAP3 AND SWAP4 POP PUSH32 0x545C32AFA46184CA6E9763DE43F75FE97FF16E785175F3E7259795F9A66614A6 SWAP3 POP ADD PUSH1 0x40 MLOAD DUP1 SWAP2 SUB SWAP1 LOG2 POP POP JUMP JUMPDEST PUSH1 0x3 DUP2 ADD SLOAD ISZERO PUSH2 0xCB0 JUMPI PUSH1 0x40 DUP1 MLOAD PUSH1 0x0 DUP2 MSTORE PUSH1 0x20 DUP2 ADD SWAP2 DUP3 SWAP1 MSTORE MLOAD PUSH2 0xCAE SWAP2 PUSH1 0x3 DUP5 ADD SWAP2 PUSH2 0xFF5 JUMP JUMPDEST POP JUMPDEST PUSH1 0x4 DUP2 ADD SLOAD ISZERO PUSH2 0xCDB JUMPI PUSH1 0x40 DUP1 MLOAD PUSH1 0x0 DUP2 MSTORE PUSH1 0x20 DUP2 ADD SWAP2 DUP3 SWAP1 MSTORE MLOAD PUSH2 0xCD9 SWAP2 PUSH1 0x4 DUP5 ADD SWAP2 PUSH2 0xFF5 JUMP JUMPDEST POP JUMPDEST PUSH1 0x0 PUSH1 0x5 SWAP1 SWAP2 ADD SSTORE JUMP JUMPDEST PUSH1 0x0 JUMPDEST PUSH1 0x1 DUP4 ADD SLOAD PUSH1 0xFF DUP3 AND LT ISZERO PUSH2 0xD43 JUMPI DUP2 PUSH1 0x1 PUSH1 0x1 PUSH1 0xA0 SHL SUB AND DUP4 PUSH1 0x1 ADD DUP3 PUSH1 0xFF AND DUP2 SLOAD DUP2 LT PUSH2 0xD19 JUMPI PUSH2 0xD19 PUSH2 0x1247 JUMP JUMPDEST PUSH1 0x0 SWAP2 DUP3 MSTORE PUSH1 0x20 SWAP1 SWAP2 KECCAK256 ADD SLOAD PUSH1 0x1 PUSH1 0x1 PUSH1 0xA0 SHL SUB AND EQ PUSH2 0xD43 JUMPI PUSH2 0xD3C DUP2 PUSH2 0x1273 JUMP JUMPDEST SWAP1 POP PUSH2 0xCE8 JUMP JUMPDEST PUSH1 0x1 DUP4 ADD SLOAD PUSH1 0xFF DUP3 AND SUB PUSH2 0xD87 JUMPI PUSH1 0x1 DUP1 DUP5 ADD DUP1 SLOAD SWAP2 DUP3 ADD DUP2 SSTORE PUSH1 0x0 SWAP1 DUP2 MSTORE PUSH1 0x20 SWAP1 KECCAK256 ADD DUP1 SLOAD PUSH1 0x1 PUSH1 0x1 PUSH1 0xA0 SHL SUB DUP5 AND PUSH1 0x1 PUSH1 0x1 PUSH1 0xA0 SHL SUB NOT SWAP1 SWAP2 AND OR SWAP1 SSTORE POP POP POP JUMP JUMPDEST PUSH1 0x40 MLOAD PUSH3 0x461BCD PUSH1 0xE5 SHL DUP2 MSTORE PUSH1 0x20 PUSH1 0x4 DUP3 ADD MSTORE PUSH1 0x1A PUSH1 0x24 DUP3 ADD MSTORE PUSH32 0x616464477561726469616E3A20616C7265616479206578697374000000000000 PUSH1 0x44 DUP3 ADD MSTORE PUSH1 0x64 ADD PUSH2 0x175 JUMP JUMPDEST PUSH1 0x0 JUMPDEST PUSH1 0x1 DUP4 ADD SLOAD PUSH1 0xFF DUP3 AND LT ISZERO PUSH2 0xE2D JUMPI DUP2 PUSH1 0x1 PUSH1 0x1 PUSH1 0xA0 SHL SUB AND DUP4 PUSH1 0x1 ADD DUP3 PUSH1 0xFF AND DUP2 SLOAD DUP2 LT PUSH2 0xE03 JUMPI PUSH2 0xE03 PUSH2 0x1247 JUMP JUMPDEST PUSH1 0x0 SWAP2 DUP3 MSTORE PUSH1 0x20 SWAP1 SWAP2 KECCAK256 ADD SLOAD PUSH1 0x1 PUSH1 0x1 PUSH1 0xA0 SHL SUB AND EQ PUSH2 0xE2D JUMPI PUSH2 0xE26 DUP2 PUSH2 0x1273 JUMP JUMPDEST SWAP1 POP PUSH2 0xDD2 JUMP JUMPDEST PUSH1 0x1 DUP4 ADD SLOAD PUSH1 0xFF DUP3 AND LT ISZERO PUSH2 0xF27 JUMPI PUSH1 0x1 DUP1 DUP5 ADD DUP1 SLOAD SWAP1 SWAP2 PUSH2 0xE4E SWAP2 PUSH2 0x12AB JUMP JUMPDEST DUP2 SLOAD DUP2 LT PUSH2 0xE5E JUMPI PUSH2 0xE5E PUSH2 0x1247 JUMP JUMPDEST PUSH1 0x0 SWAP2 DUP3 MSTORE PUSH1 0x20 SWAP1 SWAP2 KECCAK256 ADD SLOAD PUSH1 0x1 DUP5 ADD DUP1 SLOAD PUSH1 0x1 PUSH1 0x1 PUSH1 0xA0 SHL SUB SWAP1 SWAP3 AND SWAP2 PUSH1 0xFF DUP5 AND SWAP1 DUP2 LT PUSH2 0xE8F JUMPI PUSH2 0xE8F PUSH2 0x1247 JUMP JUMPDEST SWAP1 PUSH1 0x0 MSTORE PUSH1 0x20 PUSH1 0x0 KECCAK256 ADD PUSH1 0x0 PUSH2 0x100 EXP DUP2 SLOAD DUP2 PUSH1 0x1 PUSH1 0x1 PUSH1 0xA0 SHL SUB MUL NOT AND SWAP1 DUP4 PUSH1 0x1 PUSH1 0x1 PUSH1 0xA0 SHL SUB AND MUL OR SWAP1 SSTORE POP DUP3 PUSH1 0x1 ADD DUP1 SLOAD DUP1 PUSH2 0xED0 JUMPI PUSH2 0xED0 PUSH2 0x12BE JUMP JUMPDEST PUSH1 0x0 DUP3 DUP2 MSTORE PUSH1 0x20 SWAP1 KECCAK256 DUP2 ADD PUSH1 0x0 NOT SWAP1 DUP2 ADD DUP1 SLOAD PUSH1 0x1 PUSH1 0x1 PUSH1 0xA0 SHL SUB NOT AND SWAP1 SSTORE ADD SWAP1 SSTORE PUSH1 0x2 DUP4 ADD SLOAD PUSH1 0x1 DUP5 ADD SLOAD PUSH1 0xFF SWAP1 SWAP2 AND GT ISZERO PUSH2 0xF22 JUMPI PUSH1 0x1 DUP4 ADD SLOAD PUSH1 0x2 DUP5 ADD DUP1 SLOAD PUSH1 0xFF NOT AND PUSH1 0xFF SWAP1 SWAP3 AND SWAP2 SWAP1 SWAP2 OR SWAP1 SSTORE JUMPDEST POP POP POP JUMP JUMPDEST PUSH1 0x40 MLOAD PUSH3 0x461BCD PUSH1 0xE5 SHL DUP2 MSTORE PUSH1 0x20 PUSH1 0x4 DUP3 ADD MSTORE PUSH1 0x19 PUSH1 0x24 DUP3 ADD MSTORE PUSH32 0x72656D6F7665477561726469616E3A206E6F7420657869737400000000000000 PUSH1 0x44 DUP3 ADD MSTORE PUSH1 0x64 ADD PUSH2 0x175 JUMP JUMPDEST PUSH1 0x0 DUP2 PUSH1 0xFF AND GT DUP1 ISZERO PUSH2 0xF89 JUMPI POP PUSH1 0x1 DUP3 ADD SLOAD PUSH1 0xFF DUP3 AND GT ISZERO JUMPDEST ISZERO PUSH2 0xFA3 JUMPI PUSH1 0x2 DUP3 ADD DUP1 SLOAD PUSH1 0xFF NOT AND PUSH1 0xFF DUP4 AND OR SWAP1 SSTORE POP POP JUMP JUMPDEST PUSH1 0x40 MLOAD PUSH3 0x461BCD PUSH1 0xE5 SHL DUP2 MSTORE PUSH1 0x20 PUSH1 0x4 DUP3 ADD MSTORE PUSH1 0x21 PUSH1 0x24 DUP3 ADD MSTORE PUSH32 0x7570646174654E656564477561726469616E734E756D3A206E756D206572726F PUSH1 0x44 DUP3 ADD MSTORE PUSH1 0x39 PUSH1 0xF9 SHL PUSH1 0x64 DUP3 ADD MSTORE PUSH1 0x84 ADD PUSH2 0x175 JUMP JUMPDEST DUP3 DUP1 SLOAD DUP3 DUP3 SSTORE SWAP1 PUSH1 0x0 MSTORE PUSH1 0x20 PUSH1 0x0 KECCAK256 SWAP1 DUP2 ADD SWAP3 DUP3 ISZERO PUSH2 0x104A JUMPI SWAP2 PUSH1 0x20 MUL DUP3 ADD JUMPDEST DUP3 DUP2 GT ISZERO PUSH2 0x104A JUMPI DUP3 MLOAD DUP3 SLOAD PUSH1 0x1 PUSH1 0x1 PUSH1 0xA0 SHL SUB NOT AND PUSH1 0x1 PUSH1 0x1 PUSH1 0xA0 SHL SUB SWAP1 SWAP2 AND OR DUP3 SSTORE PUSH1 0x20 SWAP1 SWAP3 ADD SWAP2 PUSH1 0x1 SWAP1 SWAP2 ADD SWAP1 PUSH2 0x1015 JUMP JUMPDEST POP PUSH2 0x1056 SWAP3 SWAP2 POP PUSH2 0x105A JUMP JUMPDEST POP SWAP1 JUMP JUMPDEST JUMPDEST DUP1 DUP3 GT ISZERO PUSH2 0x1056 JUMPI PUSH1 0x0 DUP2 SSTORE PUSH1 0x1 ADD PUSH2 0x105B JUMP JUMPDEST PUSH1 0x0 DUP1 PUSH1 0x0 PUSH1 0x40 DUP5 DUP7 SUB SLT ISZERO PUSH2 0x1084 JUMPI PUSH1 0x0 DUP1 REVERT JUMPDEST DUP4 CALLDATALOAD PUSH8 0xFFFFFFFFFFFFFFFF DUP1 DUP3 GT ISZERO PUSH2 0x109C JUMPI PUSH1 0x0 DUP1 REVERT JUMPDEST DUP2 DUP7 ADD SWAP2 POP DUP7 PUSH1 0x1F DUP4 ADD SLT PUSH2 0x10B0 JUMPI PUSH1 0x0 DUP1 REVERT JUMPDEST DUP2 CALLDATALOAD DUP2 DUP2 GT ISZERO PUSH2 0x10BF JUMPI PUSH1 0x0 DUP1 REVERT JUMPDEST DUP8 PUSH1 0x20 DUP3 PUSH1 0x5 SHL DUP6 ADD ADD GT ISZERO PUSH2 0x10D4 JUMPI PUSH1 0x0 DUP1 REVERT JUMPDEST PUSH1 0x20 SWAP3 DUP4 ADD SWAP6 POP SWAP4 POP POP DUP5 ADD CALLDATALOAD PUSH1 0xFF DUP2 AND DUP2 EQ PUSH2 0x10F0 JUMPI PUSH1 0x0 DUP1 REVERT JUMPDEST DUP1 SWAP2 POP POP SWAP3 POP SWAP3 POP SWAP3 JUMP JUMPDEST DUP1 CALLDATALOAD PUSH1 0x1 PUSH1 0x1 PUSH1 0xA0 SHL SUB DUP2 AND DUP2 EQ PUSH2 0x1112 JUMPI PUSH1 0x0 DUP1 REVERT JUMPDEST SWAP2 SWAP1 POP JUMP JUMPDEST PUSH1 0x0 PUSH1 0x20 DUP3 DUP5 SUB SLT ISZERO PUSH2 0x1129 JUMPI PUSH1 0x0 DUP1 REVERT JUMPDEST PUSH2 0x1132 DUP3 PUSH2 0x10FB JUMP JUMPDEST SWAP4 SWAP3 POP POP POP JUMP JUMPDEST PUSH1 0x0 DUP2 MLOAD DUP1 DUP5 MSTORE PUSH1 0x20 DUP1 DUP6 ADD SWAP5 POP DUP1 DUP5 ADD PUSH1 0x0 JUMPDEST DUP4 DUP2 LT ISZERO PUSH2 0x1172 JUMPI DUP2 MLOAD PUSH1 0x1 PUSH1 0x1 PUSH1 0xA0 SHL SUB AND DUP8 MSTORE SWAP6 DUP3 ADD SWAP6 SWAP1 DUP3 ADD SWAP1 PUSH1 0x1 ADD PUSH2 0x114D JUMP JUMPDEST POP SWAP5 SWAP6 SWAP5 POP POP POP POP POP JUMP JUMPDEST PUSH1 0x20 DUP1 DUP3 MSTORE DUP3 MLOAD PUSH1 0x1 PUSH1 0x1 PUSH1 0xA0 SHL SUB AND DUP3 DUP3 ADD MSTORE DUP3 ADD MLOAD PUSH1 0xE0 PUSH1 0x40 DUP4 ADD MSTORE PUSH1 0x0 SWAP1 PUSH2 0x11AC PUSH2 0x100 DUP5 ADD DUP3 PUSH2 0x1139 JUMP JUMPDEST SWAP1 POP PUSH1 0xFF PUSH1 0x40 DUP6 ADD MLOAD AND PUSH1 0x60 DUP5 ADD MSTORE PUSH1 0x60 DUP5 ADD MLOAD PUSH1 0x1F NOT DUP1 DUP6 DUP5 SUB ADD PUSH1 0x80 DUP7 ADD MSTORE PUSH2 0x11D7 DUP4 DUP4 PUSH2 0x1139 JUMP JUMPDEST SWAP3 POP PUSH1 0x80 DUP7 ADD MLOAD SWAP2 POP DUP1 DUP6 DUP5 SUB ADD PUSH1 0xA0 DUP7 ADD MSTORE POP PUSH2 0x11F5 DUP3 DUP3 PUSH2 0x1139 JUMP JUMPDEST SWAP2 POP POP PUSH1 0xA0 DUP5 ADD MLOAD PUSH1 0xC0 DUP5 ADD MSTORE PUSH1 0xC0 DUP5 ADD MLOAD PUSH2 0x1215 PUSH1 0xE0 DUP6 ADD DUP3 ISZERO ISZERO SWAP1 MSTORE JUMP JUMPDEST POP SWAP4 SWAP3 POP POP POP JUMP JUMPDEST PUSH1 0x0 DUP1 PUSH1 0x40 DUP4 DUP6 SUB SLT ISZERO PUSH2 0x1230 JUMPI PUSH1 0x0 DUP1 REVERT JUMPDEST PUSH2 0x1239 DUP4 PUSH2 0x10FB JUMP JUMPDEST SWAP5 PUSH1 0x20 SWAP4 SWAP1 SWAP4 ADD CALLDATALOAD SWAP4 POP POP POP JUMP JUMPDEST PUSH4 0x4E487B71 PUSH1 0xE0 SHL PUSH1 0x0 MSTORE PUSH1 0x32 PUSH1 0x4 MSTORE PUSH1 0x24 PUSH1 0x0 REVERT JUMPDEST PUSH4 0x4E487B71 PUSH1 0xE0 SHL PUSH1 0x0 MSTORE PUSH1 0x11 PUSH1 0x4 MSTORE PUSH1 0x24 PUSH1 0x0 REVERT JUMPDEST PUSH1 0x0 PUSH1 0xFF DUP3 AND PUSH1 0xFF DUP2 SUB PUSH2 0x1289 JUMPI PUSH2 0x1289 PUSH2 0x125D JUMP JUMPDEST PUSH1 0x1 ADD SWAP3 SWAP2 POP POP JUMP JUMPDEST DUP1 DUP3 ADD DUP1 DUP3 GT ISZERO PUSH2 0x12A5 JUMPI PUSH2 0x12A5 PUSH2 0x125D JUMP JUMPDEST SWAP3 SWAP2 POP POP JUMP JUMPDEST DUP2 DUP2 SUB DUP2 DUP2 GT ISZERO PUSH2 0x12A5 JUMPI PUSH2 0x12A5 PUSH2 0x125D JUMP JUMPDEST PUSH4 0x4E487B71 PUSH1 0xE0 SHL PUSH1 0x0 MSTORE PUSH1 0x31 PUSH1 0x4 MSTORE PUSH1 0x24 PUSH1 0x0 REVERT INVALID LOG2 PUSH5 0x6970667358 0x22 SLT KECCAK256 PUSH12 0x317B33EF5DD2FC9D5FD8F6F2 0x1F RETURN 0xB9 RETURNDATASIZE 0xAF 0xCB PUSH30 0x846ABF567217DE6535FE97EA64736F6C6343000812003300000000000000 "},"methodIdentifiers":{"getGroup(address)":"53adce21","groups(address)":"63d5e44d","propose(address,bytes32)":"69576c3d","setGroup(address[],uint8)":"266dd7fe"}}}}}