{"contracts/help/Time.sol":{"Time":{"abi":[{"inputs":[],"stateMutability":"nonpayable","type":"constructor"},{"inputs":[],"name":"currBlockNum","outputs":[{"internalType":"uint256","name":"","type":"uint256"}],"stateMutability":"view","type":"function"},{"inputs":[],"name":"nextBlock","outputs":[],"stateMutability":"nonpayable","type":"function"}],"evm":{"bytecode":{"linkReferences":{},"object":"6080604052348015600e575f80fd5b5060868061001b5f395ff3fe6080604052348015600e575f80fd5b50600436106030575f3560e01c8063347866c914603457806383788fce146047575b5f80fd5b4360405190815260200160405180910390f35b604e435f55565b00fea26469706673582212204ed93b1e4bf3250bf49b50fc44f1c8f9443149235b5163fb9aadd635cf62b93264736f6c63430008180033","opcodes":"PUSH1 0x80 PUSH1 0x40 MSTORE CALLVALUE DUP1 ISZERO PUSH1 0xE JUMPI PUSH0 DUP1 REVERT JUMPDEST POP PUSH1 0x86 DUP1 PUSH2 0x1B PUSH0 CODECOPY PUSH0 RETURN INVALID PUSH1 0x80 PUSH1 0x40 MSTORE CALLVALUE DUP1 ISZERO PUSH1 0xE JUMPI PUSH0 DUP1 REVERT JUMPDEST POP PUSH1 0x4 CALLDATASIZE LT PUSH1 0x30 JUMPI PUSH0 CALLDATALOAD PUSH1 0xE0 SHR DUP1 PUSH4 0x347866C9 EQ PUSH1 0x34 JUMPI DUP1 PUSH4 0x83788FCE EQ PUSH1 0x47 JUMPI JUMPDEST PUSH0 DUP1 REVERT JUMPDEST NUMBER PUSH1 0x40 MLOAD SWAP1 DUP2 MSTORE PUSH1 0x20 ADD PUSH1 0x40 MLOAD DUP1 SWAP2 SUB SWAP1 RETURN JUMPDEST PUSH1 0x4E NUMBER PUSH0 SSTORE JUMP JUMPDEST STOP INVALID LOG2 PUSH5 0x6970667358 0x22 SLT KECCAK256 0x4E 0xD9 EXTCODESIZE 0x1E 0x4B RETURN 0x25 SIGNEXTEND DELEGATECALL SWAP12 POP 0xFC PREVRANDAO CALL 0xC8 0xF9 PREVRANDAO BALANCE BLOBHASH 0x23 JUMPDEST MLOAD PUSH4 0xFB9AADD6 CALLDATALOAD 0xCF PUSH3 0xB93264 PUSH20 0x6F6C634300081800330000000000000000000000 "},"methodIdentifiers":{"currBlockNum()":"347866c9","nextBlock()":"83788fce"}}}}}