{
  "_format": "hh-sol-artifact-1",
  "contractName": "MintHelp",
  "sourceName": "contracts/aa20/MintHelp.sol",
  "abi": [
    {
      "inputs": [],
      "stateMutability": "nonpayable",
      "type": "constructor"
    },
    {
      "inputs": [
        {
          "internalType": "address",
          "name": "inscribeContract",
          "type": "address"
        },
        {
          "internalType": "bytes",
          "name": "data",
          "type": "bytes"
        },
        {
          "internalType": "address",
          "name": "to",
          "type": "address"
        }
      ],
      "name": "inscribeThenTransfer",
      "outputs": [],
      "stateMutability": "nonpayable",
      "type": "function"
    }
  ],
  "bytecode": "0x608060405234801561000f575f80fd5b506102ad8061001d5f395ff3fe608060405234801561000f575f80fd5b5060043610610029575f3560e01c8063c875a7291461002d575b5f80fd5b61004061003b36600461018f565b610042565b005b5f846001600160a01b03166389da5a996040518163ffffffff1660e01b81526004016020604051808303815f875af1158015610080573d5f803e3d5ffd5b505050506040513d601f19601f820116820180604052508101906100a4919061021c565b60405163224d967b60e11b81529091506001600160a01b0386169063449b2cf6906100d59087908790600401610249565b5f604051808303815f87803b1580156100ec575f80fd5b505af11580156100fe573d5f803e3d5ffd5b50506040516323b872dd60e01b81523060048201526001600160a01b0385811660248301526001600160801b0385166044830152881692506323b872dd91506064015f604051808303815f87803b158015610157575f80fd5b505af1158015610169573d5f803e3d5ffd5b505050505050505050565b80356001600160a01b038116811461018a575f80fd5b919050565b5f805f80606085870312156101a2575f80fd5b6101ab85610174565b9350602085013567ffffffffffffffff808211156101c7575f80fd5b818701915087601f8301126101da575f80fd5b8135818111156101e8575f80fd5b8860208285010111156101f9575f80fd5b60208301955080945050505061021160408601610174565b905092959194509250565b5f6020828403121561022c575f80fd5b81516001600160801b0381168114610242575f80fd5b9392505050565b60208152816020820152818360408301375f818301604090810191909152601f909201601f1916010191905056fea264697066735822122001585978eba6e72bec031bb4dbfd108c7ececacd47138ba15cb324bb315d6f5264736f6c63430008180033",
  "linkReferences": {},
  "deployedLinkReferences": {}
}