{
  "_format": "hh-sol-artifact-1",
  "contractName": "SmartWalletV2",
  "sourceName": "contracts/wallet/SmartWalletV2.sol",
  "abi": [
    {
      "inputs": [],
      "stateMutability": "nonpayable",
      "type": "constructor"
    },
    {
      "anonymous": false,
      "inputs": [
        {
          "indexed": false,
          "internalType": "address",
          "name": "oldBundler",
          "type": "address"
        },
        {
          "indexed": false,
          "internalType": "address",
          "name": "newBundler",
          "type": "address"
        }
      ],
      "name": "BundlerReset",
      "type": "event"
    },
    {
      "anonymous": false,
      "inputs": [
        {
          "indexed": false,
          "internalType": "address",
          "name": "oldOwner",
          "type": "address"
        },
        {
          "indexed": false,
          "internalType": "address",
          "name": "newOwner",
          "type": "address"
        }
      ],
      "name": "OwnerChanged",
      "type": "event"
    },
    {
      "anonymous": false,
      "inputs": [
        {
          "indexed": false,
          "internalType": "address",
          "name": "oldBundler",
          "type": "address"
        },
        {
          "indexed": false,
          "internalType": "address",
          "name": "pendingBundler",
          "type": "address"
        }
      ],
      "name": "PendingBundler",
      "type": "event"
    },
    {
      "inputs": [
        {
          "internalType": "bytes32",
          "name": "proposal",
          "type": "bytes32"
        }
      ],
      "name": "adoptProposal",
      "outputs": [],
      "stateMutability": "nonpayable",
      "type": "function"
    },
    {
      "inputs": [
        {
          "internalType": "bytes",
          "name": "atomCallBytes",
          "type": "bytes"
        }
      ],
      "name": "atomCall",
      "outputs": [],
      "stateMutability": "nonpayable",
      "type": "function"
    },
    {
      "inputs": [
        {
          "internalType": "bytes",
          "name": "atomCallBytes",
          "type": "bytes"
        },
        {
          "internalType": "uint32",
          "name": "deadline",
          "type": "uint32"
        },
        {
          "internalType": "bytes",
          "name": "signature",
          "type": "bytes"
        }
      ],
      "name": "atomSignCall",
      "outputs": [],
      "stateMutability": "nonpayable",
      "type": "function"
    },
    {
      "inputs": [],
      "name": "bundler",
      "outputs": [
        {
          "internalType": "address",
          "name": "",
          "type": "address"
        }
      ],
      "stateMutability": "view",
      "type": "function"
    },
    {
      "inputs": [
        {
          "internalType": "address",
          "name": "newBundler",
          "type": "address"
        }
      ],
      "name": "changeBundler",
      "outputs": [],
      "stateMutability": "nonpayable",
      "type": "function"
    },
    {
      "inputs": [
        {
          "internalType": "address",
          "name": "newOwner",
          "type": "address"
        }
      ],
      "name": "changeOwner",
      "outputs": [],
      "stateMutability": "nonpayable",
      "type": "function"
    },
    {
      "inputs": [
        {
          "internalType": "address",
          "name": "to",
          "type": "address"
        },
        {
          "internalType": "bytes",
          "name": "data",
          "type": "bytes"
        }
      ],
      "name": "delegateCall",
      "outputs": [],
      "stateMutability": "nonpayable",
      "type": "function"
    },
    {
      "inputs": [
        {
          "internalType": "address",
          "name": "_owner",
          "type": "address"
        },
        {
          "internalType": "address",
          "name": "_bundler",
          "type": "address"
        }
      ],
      "name": "init",
      "outputs": [],
      "stateMutability": "nonpayable",
      "type": "function"
    },
    {
      "inputs": [
        {
          "internalType": "address",
          "name": "_publicSocialRecovery",
          "type": "address"
        },
        {
          "internalType": "address[]",
          "name": "guardians",
          "type": "address[]"
        },
        {
          "internalType": "uint8",
          "name": "needGuardiansNum",
          "type": "uint8"
        }
      ],
      "name": "initSocialRecovery",
      "outputs": [],
      "stateMutability": "nonpayable",
      "type": "function"
    },
    {
      "inputs": [],
      "name": "makeAtomSignInvalid",
      "outputs": [],
      "stateMutability": "nonpayable",
      "type": "function"
    },
    {
      "inputs": [],
      "name": "owner",
      "outputs": [
        {
          "internalType": "address",
          "name": "",
          "type": "address"
        }
      ],
      "stateMutability": "view",
      "type": "function"
    },
    {
      "inputs": [],
      "name": "pendingBundler",
      "outputs": [
        {
          "internalType": "address",
          "name": "",
          "type": "address"
        }
      ],
      "stateMutability": "view",
      "type": "function"
    },
    {
      "inputs": [],
      "name": "pendingBundlerStartTime",
      "outputs": [
        {
          "internalType": "uint256",
          "name": "",
          "type": "uint256"
        }
      ],
      "stateMutability": "view",
      "type": "function"
    },
    {
      "inputs": [],
      "name": "publicSocialRecovery",
      "outputs": [
        {
          "internalType": "address",
          "name": "",
          "type": "address"
        }
      ],
      "stateMutability": "view",
      "type": "function"
    },
    {
      "inputs": [],
      "name": "resetBundler",
      "outputs": [],
      "stateMutability": "nonpayable",
      "type": "function"
    },
    {
      "inputs": [
        {
          "internalType": "bytes32",
          "name": "",
          "type": "bytes32"
        }
      ],
      "name": "usedMsgHashes",
      "outputs": [
        {
          "internalType": "bool",
          "name": "",
          "type": "bool"
        }
      ],
      "stateMutability": "view",
      "type": "function"
    },
    {
      "inputs": [],
      "name": "valid",
      "outputs": [
        {
          "internalType": "uint32",
          "name": "",
          "type": "uint32"
        }
      ],
      "stateMutability": "view",
      "type": "function"
    },
    {
      "stateMutability": "payable",
      "type": "receive"
    }
  ],
  "bytecode": "0x60a06040525f805464ffffffff001916610100179055348015610020575f80fd5b50306080526080516116ef6100605f395f818161068b015281816107ad015281816108c201528181610aa801528181610b140152610c3a01526116ef5ff3fe6080604052600436106100fd575f3560e01c80638da5cb5b11610092578063b75814e511610062578063b75814e51461029a578063c1991219146102d8578063e52903b41461030d578063ebaf3eb51461032c578063f09a401614610340575f80fd5b80638da5cb5b14610214578063a6f9dae114610239578063ad0ffd8b14610258578063afd2d31a14610277575f80fd5b806356e7b7aa116100cd57806356e7b7aa146101a3578063797de9c2146101c25780637e4a1196146101e15780638010137214610200575f80fd5b80631383989714610108578063142d328d1461014457806325460f86146101655780633c69640f14610184575f80fd5b3661010457005b5f80fd5b348015610113575f80fd5b50600354610127906001600160a01b031681565b6040516001600160a01b0390911681526020015b60405180910390f35b34801561014f575f80fd5b5061016361015e366004611292565b61035f565b005b348015610170575f80fd5b5061016361017f366004611319565b610581565b34801561018f575f80fd5b5061016361019e36600461134b565b61066f565b3480156101ae575f80fd5b506101636101bd3660046113e2565b6107ab565b3480156101cd575f80fd5b506101636101dc366004611431565b6108a6565b3480156101ec575f80fd5b50600254610127906001600160a01b031681565b34801561020b575f80fd5b50610163610941565b34801561021f575f80fd5b505f5461012790600160281b90046001600160a01b031681565b348015610244575f80fd5b50610163610253366004611470565b610a8c565b348015610263575f80fd5b50600154610127906001600160a01b031681565b348015610282575f80fd5b5061028c60045481565b60405190815260200161013b565b3480156102a5575f80fd5b506102c86102b4366004611319565b60056020525f908152604090205460ff1681565b604051901515815260200161013b565b3480156102e3575f80fd5b505f546102f890610100900463ffffffff1681565b60405163ffffffff909116815260200161013b565b348015610318575f80fd5b50610163610327366004611470565b610af8565b348015610337575f80fd5b50610163610c1e565b34801561034b575f80fd5b5061016361035a366004611490565b610c9d565b6001546001600160a01b031633146103925760405162461bcd60e51b8152600401610389906114c1565b60405180910390fd5b428363ffffffff1610156103e05760405162461bcd60e51b8152602060048201526015602482015274185d1bdb54da59db90d85b1b0e88115e1c1a5c9959605a1b6044820152606401610389565b5f80803660206103f0868361151b565b6103fa919061151b565b926104079392919061152e565b5f5460405161043493929146913060601b91610100900460e01b6001600160e01b03191690602001611555565b60408051601f1981840301815291815281516020928301205f818152600590935291205490915060ff16156104ab5760405162461bcd60e51b815260206004820152601a60248201527f61746f6d5369676e43616c6c3a2055736564206d7367486173680000000000006044820152606401610389565b6104f583838080601f0160208091040260200160405190810160405280939291908181526020018383808284375f920191909152506104ef9250859150610d2d9050565b90610d7f565b5f54600160281b90046001600160a01b039081169116146105585760405162461bcd60e51b815260206004820152601f60248201527f61746f6d5369676e43616c6c3a20496e76616c6964205369676e6174757265006044820152606401610389565b6105628686610da3565b5f908152600560205260409020805460ff191660011790555050505050565b6003546001600160a01b0316331461060f5760405162461bcd60e51b8152602060048201526044602482018190527f6f6e6c795075626c6963536f6369616c5265636f766572793a2063616c6c6572908201527f206973206e6f7420746865206f6e6c795075626c6963536f6369616c5265636f6064820152637665727960e01b608482015260a401610389565b60a081901c6004036106275761062481610efe565b50565b60405162461bcd60e51b815260206004820152601a60248201527f61646f707450726f706f73616c3a20756e737570706f727465640000000000006044820152606401610389565b5f54600160281b90046001600160a01b03163314806106b657507f00000000000000000000000000000000000000000000000000000000000000006001600160a01b031633145b6106d25760405162461bcd60e51b81526004016103899061158d565b6003546001600160a01b0316156107355760405162461bcd60e51b815260206004820152602160248201527f696e6974536f6369616c5265636f766572793a20616c726561647920657869736044820152601d60fa1b6064820152608401610389565b600380546001600160a01b0319166001600160a01b038616908117909155604051631336ebff60e11b815263266dd7fe90610778908690869086906004016115da565b5f604051808303815f87803b15801561078f575f80fd5b505af11580156107a1573d5f803e3d5ffd5b5050505050505050565b7f00000000000000000000000000000000000000000000000000000000000000006001600160a01b031633146108345760405162461bcd60e51b815260206004820152602860248201527f6f6e6c794f726967696e616c3a2063616c6c6572206973206e6f7420746865206044820152671bdc9a59da5b985b60c21b6064820152608401610389565b5f80846001600160a01b03168484604051610850929190611631565b5f60405180830381855af49150503d805f8114610888576040519150601f19603f3d011682016040523d82523d5f602084013e61088d565b606091505b50915091508161089f57805160208201fd5b5050505050565b5f54600160281b90046001600160a01b03163314806108ed57507f00000000000000000000000000000000000000000000000000000000000000006001600160a01b031633145b6109095760405162461bcd60e51b81526004016103899061158d565b6001546001600160a01b031633146109335760405162461bcd60e51b8152600401610389906114c1565b61093d8282610da3565b5050565b6002546001600160a01b031633146109b85760405162461bcd60e51b815260206004820152603460248201527f6f6e6c7950656e64696e6742756e646c65723a2063616c6c6572206973206e6f6044820152733a103a3432903832b73234b733a13ab7323632b960611b6064820152608401610389565b6004546109c89062093a80611640565b4211610a215760405162461bcd60e51b815260206004820152602260248201527f726573657442756e646c65723a206e65656473203720646179732070656e64696044820152616e6760f01b6064820152608401610389565b60028054600180546001600160a01b0383166001600160a01b031991821681179092559091169091555f60048190556040805192835260208301919091527f81932e26d3d6b8d613dd60331202ebefe49c5008c05597954a66138b6c505b25910160405180910390a1565b5f54600160281b90046001600160a01b0316331480610ad357507f00000000000000000000000000000000000000000000000000000000000000006001600160a01b031633145b610aef5760405162461bcd60e51b81526004016103899061158d565b61062481610efe565b5f54600160281b90046001600160a01b0316331480610b3f57507f00000000000000000000000000000000000000000000000000000000000000006001600160a01b031633145b610b5b5760405162461bcd60e51b81526004016103899061158d565b610b63610c1e565b600280546001600160a01b0319166001600160a01b038316908117909155610bd2575f600455600154604080516001600160a01b0390921680835260208301527f81932e26d3d6b8d613dd60331202ebefe49c5008c05597954a66138b6c505b2591015b60405180910390a150565b42600455600154600254604080516001600160a01b0393841681529290911660208301527fbd265fea90ed2756df9ac57b162d7d95b2bbd80e1720fca48d685e4a5a7e4c6c9101610bc7565b5f54600160281b90046001600160a01b0316331480610c6557507f00000000000000000000000000000000000000000000000000000000000000006001600160a01b031633145b610c815760405162461bcd60e51b81526004016103899061158d565b5f805464ffffffff001916610100434063ffffffff1602179055565b5f5460ff1615610ce75760405162461bcd60e51b8152602060048201526015602482015274696e697428292072756e73206f6e6c79206f6e636560581b6044820152606401610389565b5f8054600180546001600160a01b039485166001600160a01b031990911617815593909216600160281b0264ffffffff01600160c81b0319909216919091179091179055565b6040517f19457468657265756d205369676e6564204d6573736167653a0a3332000000006020820152603c81018290525f90605c01604051602081830303815290604052805190602001209050919050565b5f805f610d8c8585610f78565b91509150610d9981610fba565b5090505b92915050565b5f5b81811015610ef9575f838284610dbc826014611640565b92610dc99392919061152e565b610dd291611653565b60601c90505f8484610de5856014611640565b90610df1866034611640565b92610dfe9392919061152e565b610e0791611688565b90505f8585610e17866034611640565b90610e23876054611640565b92610e309392919061152e565b610e3991611688565b90505f806001600160a01b038516848989610e558a6054611640565b9087610e628c6054611640565b610e6c9190611640565b92610e799392919061152e565b604051610e87929190611631565b5f6040518083038185875af1925050503d805f8114610ec1576040519150601f19603f3d011682016040523d82523d5f602084013e610ec6565b606091505b509150915081610ed857805160208201fd5b610ee3836054611640565b610eed9087611640565b95505050505050610da5565b505050565b5f54604080516001600160a01b03600160281b9093048316815291831660208301527fb532073b38c83145e3e5135377a08bf9aab55bc0fd7c1179cd4fb995d2a5159c910160405180910390a15f80546001600160a01b03909216600160281b0265010000000000600160c81b0319909216919091179055565b5f808251604103610fac576020830151604084015160608501515f1a610fa08782858561116f565b94509450505050610fb3565b505f905060025b9250929050565b5f816004811115610fcd57610fcd6116a5565b03610fd55750565b6001816004811115610fe957610fe96116a5565b036110365760405162461bcd60e51b815260206004820152601860248201527f45434453413a20696e76616c6964207369676e617475726500000000000000006044820152606401610389565b600281600481111561104a5761104a6116a5565b036110975760405162461bcd60e51b815260206004820152601f60248201527f45434453413a20696e76616c6964207369676e6174757265206c656e677468006044820152606401610389565b60038160048111156110ab576110ab6116a5565b036111035760405162461bcd60e51b815260206004820152602260248201527f45434453413a20696e76616c6964207369676e6174757265202773272076616c604482015261756560f01b6064820152608401610389565b6004816004811115611117576111176116a5565b036106245760405162461bcd60e51b815260206004820152602260248201527f45434453413a20696e76616c6964207369676e6174757265202776272076616c604482015261756560f01b6064820152608401610389565b5f807f7fffffffffffffffffffffffffffffff5d576e7357a4501ddfe92f46681b20a08311156111a457505f9050600361124b565b8460ff16601b141580156111bc57508460ff16601c14155b156111cc57505f9050600461124b565b604080515f8082526020820180845289905260ff881692820192909252606081018690526080810185905260019060a0016020604051602081039080840390855afa15801561121d573d5f803e3d5ffd5b5050604051601f1901519150506001600160a01b038116611245575f6001925092505061124b565b91505f90505b94509492505050565b5f8083601f840112611264575f80fd5b50813567ffffffffffffffff81111561127b575f80fd5b602083019150836020828501011115610fb3575f80fd5b5f805f805f606086880312156112a6575f80fd5b853567ffffffffffffffff808211156112bd575f80fd5b6112c989838a01611254565b90975095506020880135915063ffffffff821682146112e6575f80fd5b909350604087013590808211156112fb575f80fd5b5061130888828901611254565b969995985093965092949392505050565b5f60208284031215611329575f80fd5b5035919050565b80356001600160a01b0381168114611346575f80fd5b919050565b5f805f806060858703121561135e575f80fd5b61136785611330565b9350602085013567ffffffffffffffff80821115611383575f80fd5b818701915087601f830112611396575f80fd5b8135818111156113a4575f80fd5b8860208260051b85010111156113b8575f80fd5b602083019550809450505050604085013560ff811681146113d7575f80fd5b939692955090935050565b5f805f604084860312156113f4575f80fd5b6113fd84611330565b9250602084013567ffffffffffffffff811115611418575f80fd5b61142486828701611254565b9497909650939450505050565b5f8060208385031215611442575f80fd5b823567ffffffffffffffff811115611458575f80fd5b61146485828601611254565b90969095509350505050565b5f60208284031215611480575f80fd5b61148982611330565b9392505050565b5f80604083850312156114a1575f80fd5b6114aa83611330565b91506114b860208401611330565b90509250929050565b60208082526026908201527f6f6e6c7942756e646c65723a2063616c6c6572206973206e6f742074686520626040820152653ab7323632b960d11b606082015260800190565b634e487b7160e01b5f52601160045260245ffd5b81810381811115610d9d57610d9d611507565b5f808585111561153c575f80fd5b83861115611548575f80fd5b5050820193919092039150565b848682379093019182526bffffffffffffffffffffffff191660208201526001600160e01b0319919091166034820152603801919050565b6020808252602d908201527f6f6e6c794f776e6572416e644f726967696e616c3a2063616c6c65722069732060408201526c3737ba103a34329037bbb732b960991b606082015260800190565b604080825281018390525f8460608301825b8681101561161a576001600160a01b0361160584611330565b168252602092830192909101906001016115ec565b50809250505060ff83166020830152949350505050565b818382375f9101908152919050565b80820180821115610d9d57610d9d611507565b6bffffffffffffffffffffffff1981358181169160148510156116805780818660140360031b1b83161692505b505092915050565b80356020831015610d9d575f19602084900360031b1b1692915050565b634e487b7160e01b5f52602160045260245ffdfea2646970667358221220fc7a76d98287d9417b521be1cbc4046522d0330170fdc3cd2d24a779c45b20a664736f6c63430008180033",
  "linkReferences": {},
  "deployedLinkReferences": {}
}