{
  "_format": "hh-sol-artifact-1",
  "contractName": "Multicall",
  "sourceName": "contracts/wallet/help/Multicall.sol",
  "abi": [
    {
      "inputs": [
        {
          "components": [
            {
              "internalType": "address",
              "name": "target",
              "type": "address"
            },
            {
              "internalType": "bytes",
              "name": "callData",
              "type": "bytes"
            }
          ],
          "internalType": "struct Multicall.Call[]",
          "name": "calls",
          "type": "tuple[]"
        }
      ],
      "name": "aggregate",
      "outputs": [
        {
          "internalType": "uint256",
          "name": "blockNumber",
          "type": "uint256"
        },
        {
          "internalType": "bytes[]",
          "name": "returnData",
          "type": "bytes[]"
        }
      ],
      "stateMutability": "view",
      "type": "function"
    },
    {
      "inputs": [],
      "name": "getBasefee",
      "outputs": [
        {
          "internalType": "uint256",
          "name": "basefee",
          "type": "uint256"
        }
      ],
      "stateMutability": "view",
      "type": "function"
    },
    {
      "inputs": [
        {
          "internalType": "uint256",
          "name": "blockNumber",
          "type": "uint256"
        }
      ],
      "name": "getBlockHash",
      "outputs": [
        {
          "internalType": "bytes32",
          "name": "blockHash",
          "type": "bytes32"
        }
      ],
      "stateMutability": "view",
      "type": "function"
    },
    {
      "inputs": [],
      "name": "getChainId",
      "outputs": [
        {
          "internalType": "uint256",
          "name": "chainid",
          "type": "uint256"
        }
      ],
      "stateMutability": "view",
      "type": "function"
    },
    {
      "inputs": [],
      "name": "getCurrentBlockCoinbase",
      "outputs": [
        {
          "internalType": "address",
          "name": "coinbase",
          "type": "address"
        }
      ],
      "stateMutability": "view",
      "type": "function"
    },
    {
      "inputs": [],
      "name": "getCurrentBlockGasLimit",
      "outputs": [
        {
          "internalType": "uint256",
          "name": "gaslimit",
          "type": "uint256"
        }
      ],
      "stateMutability": "view",
      "type": "function"
    },
    {
      "inputs": [],
      "name": "getCurrentBlockTimestamp",
      "outputs": [
        {
          "internalType": "uint256",
          "name": "timestamp",
          "type": "uint256"
        }
      ],
      "stateMutability": "view",
      "type": "function"
    },
    {
      "inputs": [
        {
          "internalType": "address",
          "name": "addr",
          "type": "address"
        }
      ],
      "name": "getEthBalance",
      "outputs": [
        {
          "internalType": "uint256",
          "name": "balance",
          "type": "uint256"
        }
      ],
      "stateMutability": "view",
      "type": "function"
    },
    {
      "inputs": [],
      "name": "getLastBlockHash",
      "outputs": [
        {
          "internalType": "bytes32",
          "name": "blockHash",
          "type": "bytes32"
        }
      ],
      "stateMutability": "view",
      "type": "function"
    }
  ],
  "bytecode": "0x608060405234801561000f575f80fd5b506105978061001d5f395ff3fe608060405234801561000f575f80fd5b5060043610610090575f3560e01c80633e64a696116100635780633e64a696146100d85780634d2301cc146100de57806386d516e8146100f9578063a8b0574e146100ff578063ee82ac5e1461010d575f80fd5b80630f28c97d14610094578063252dba42146100a957806327e86d6e146100ca5780633408e470146100d2575b5f80fd5b425b6040519081526020015b60405180910390f35b6100bc6100b73660046102e6565b61011f565b6040516100a0929190610456565b61009661024b565b46610096565b48610096565b6100966100ec3660046104d6565b6001600160a01b03163190565b45610096565b6040514181526020016100a0565b61009661011b3660046104f6565b4090565b8051439060609067ffffffffffffffff81111561013e5761013e61025d565b60405190808252806020026020018201604052801561017157816020015b606081526020019060019003908161015c5790505b5090505f5b8351811015610245575f808583815181106101935761019361050d565b60200260200101515f01516001600160a01b03168684815181106101b9576101b961050d565b6020026020010151602001516040516101d29190610521565b5f60405180830381855afa9150503d805f811461020a576040519150601f19603f3d011682016040523d82523d5f602084013e61020f565b606091505b50915091508161021d575f80fd5b808484815181106102305761023061050d565b60209081029190910101525050600101610176565b50915091565b5f61025760014361053c565b40905090565b634e487b7160e01b5f52604160045260245ffd5b6040805190810167ffffffffffffffff811182821017156102945761029461025d565b60405290565b604051601f8201601f1916810167ffffffffffffffff811182821017156102c3576102c361025d565b604052919050565b80356001600160a01b03811681146102e1575f80fd5b919050565b5f60208083850312156102f7575f80fd5b823567ffffffffffffffff8082111561030e575f80fd5b818501915085601f830112610321575f80fd5b8135818111156103335761033361025d565b8060051b61034285820161029a565b918252838101850191858101908984111561035b575f80fd5b86860192505b8383101561042757823585811115610377575f80fd5b86016040601f19828d03810182131561038e575f80fd5b610396610271565b6103a18b85016102cb565b815282840135898111156103b3575f80fd5b8085019450508d603f8501126103c7575f80fd5b8a840135898111156103db576103db61025d565b6103eb8c84601f8401160161029a565b92508083528e84828701011115610400575f80fd5b808486018d8501375f9083018c0152808b0191909152845250509186019190860190610361565b9998505050505050505050565b5f5b8381101561044e578181015183820152602001610436565b50505f910152565b5f60408201848352602060408185015281855180845260608601915060608160051b87010193508287015f5b828110156104c857878603605f19018452815180518088526104a981888a01898501610434565b601f01601f191696909601850195509284019290840190600101610482565b509398975050505050505050565b5f602082840312156104e6575f80fd5b6104ef826102cb565b9392505050565b5f60208284031215610506575f80fd5b5035919050565b634e487b7160e01b5f52603260045260245ffd5b5f8251610532818460208701610434565b9190910192915050565b8181038181111561055b57634e487b7160e01b5f52601160045260245ffd5b9291505056fea2646970667358221220101c177cc720aff252fbf0e3ff37ed2c1e4db318cb16e2242d36ce271a3e6f6564736f6c63430008180033",
  "linkReferences": {},
  "deployedLinkReferences": {}
}