{
  "_format": "hh-sol-artifact-1",
  "contractName": "Multicall",
  "sourceName": "contracts/wallet/help/Multicall.sol",
  "abi": [
    {
      "inputs": [
        {
          "components": [
            {
              "internalType": "address",
              "name": "target",
              "type": "address"
            },
            {
              "internalType": "bytes",
              "name": "callData",
              "type": "bytes"
            }
          ],
          "internalType": "struct Multicall.Call[]",
          "name": "calls",
          "type": "tuple[]"
        }
      ],
      "name": "aggregate",
      "outputs": [
        {
          "internalType": "uint256",
          "name": "blockNumber",
          "type": "uint256"
        },
        {
          "internalType": "bytes[]",
          "name": "returnData",
          "type": "bytes[]"
        }
      ],
      "stateMutability": "view",
      "type": "function"
    },
    {
      "inputs": [],
      "name": "getBasefee",
      "outputs": [
        {
          "internalType": "uint256",
          "name": "basefee",
          "type": "uint256"
        }
      ],
      "stateMutability": "view",
      "type": "function"
    },
    {
      "inputs": [
        {
          "internalType": "uint256",
          "name": "blockNumber",
          "type": "uint256"
        }
      ],
      "name": "getBlockHash",
      "outputs": [
        {
          "internalType": "bytes32",
          "name": "blockHash",
          "type": "bytes32"
        }
      ],
      "stateMutability": "view",
      "type": "function"
    },
    {
      "inputs": [],
      "name": "getChainId",
      "outputs": [
        {
          "internalType": "uint256",
          "name": "chainid",
          "type": "uint256"
        }
      ],
      "stateMutability": "view",
      "type": "function"
    },
    {
      "inputs": [],
      "name": "getCurrentBlockCoinbase",
      "outputs": [
        {
          "internalType": "address",
          "name": "coinbase",
          "type": "address"
        }
      ],
      "stateMutability": "view",
      "type": "function"
    },
    {
      "inputs": [],
      "name": "getCurrentBlockGasLimit",
      "outputs": [
        {
          "internalType": "uint256",
          "name": "gaslimit",
          "type": "uint256"
        }
      ],
      "stateMutability": "view",
      "type": "function"
    },
    {
      "inputs": [],
      "name": "getCurrentBlockTimestamp",
      "outputs": [
        {
          "internalType": "uint256",
          "name": "timestamp",
          "type": "uint256"
        }
      ],
      "stateMutability": "view",
      "type": "function"
    },
    {
      "inputs": [
        {
          "internalType": "address",
          "name": "addr",
          "type": "address"
        }
      ],
      "name": "getEthBalance",
      "outputs": [
        {
          "internalType": "uint256",
          "name": "balance",
          "type": "uint256"
        }
      ],
      "stateMutability": "view",
      "type": "function"
    },
    {
      "inputs": [],
      "name": "getLastBlockHash",
      "outputs": [
        {
          "internalType": "bytes32",
          "name": "blockHash",
          "type": "bytes32"
        }
      ],
      "stateMutability": "view",
      "type": "function"
    }
  ],
  "bytecode": "0x608060405234801561001057600080fd5b506105ef806100206000396000f3fe608060405234801561001057600080fd5b50600436106100935760003560e01c80633e64a696116100665780633e64a696146100dc5780634d2301cc146100e257806386d516e8146100fd578063a8b0574e14610103578063ee82ac5e1461011157600080fd5b80630f28c97d14610098578063252dba42146100ad57806327e86d6e146100ce5780633408e470146100d6575b600080fd5b425b6040519081526020015b60405180910390f35b6100c06100bb366004610300565b610123565b6040516100a4929190610482565b61009a610261565b4661009a565b4861009a565b61009a6100f0366004610504565b6001600160a01b03163190565b4561009a565b6040514181526020016100a4565b61009a61011f366004610526565b4090565b8051439060609067ffffffffffffffff81111561014257610142610274565b60405190808252806020026020018201604052801561017557816020015b60608152602001906001900390816101605790505b50905060005b835181101561025b576000808583815181106101995761019961053f565b6020026020010151600001516001600160a01b03168684815181106101c0576101c061053f565b6020026020010151602001516040516101d99190610555565b600060405180830381855afa9150503d8060008114610214576040519150601f19603f3d011682016040523d82523d6000602084013e610219565b606091505b50915091508161022857600080fd5b8084848151811061023b5761023b61053f565b60200260200101819052505050808061025390610587565b91505061017b565b50915091565b600061026e6001436105a0565b40905090565b634e487b7160e01b600052604160045260246000fd5b6040805190810167ffffffffffffffff811182821017156102ad576102ad610274565b60405290565b604051601f8201601f1916810167ffffffffffffffff811182821017156102dc576102dc610274565b604052919050565b80356001600160a01b03811681146102fb57600080fd5b919050565b6000602080838503121561031357600080fd5b823567ffffffffffffffff8082111561032b57600080fd5b818501915085601f83011261033f57600080fd5b81358181111561035157610351610274565b8060051b6103608582016102b3565b918252838101850191858101908984111561037a57600080fd5b86860192505b83831015610451578235858111156103985760008081fd5b86016040601f19828d0381018213156103b15760008081fd5b6103b961028a565b6103c48b85016102e4565b815282840135898111156103d85760008081fd5b8085019450508d603f8501126103ee5760008081fd5b8a8401358981111561040257610402610274565b6104128c84601f840116016102b3565b92508083528e848287010111156104295760008081fd5b808486018d85013760009083018c0152808b0191909152845250509186019190860190610380565b9998505050505050505050565b60005b83811015610479578181015183820152602001610461565b50506000910152565b600060408201848352602060408185015281855180845260608601915060608160051b870101935082870160005b828110156104f657878603605f19018452815180518088526104d781888a0189850161045e565b601f01601f1916969096018501955092840192908401906001016104b0565b509398975050505050505050565b60006020828403121561051657600080fd5b61051f826102e4565b9392505050565b60006020828403121561053857600080fd5b5035919050565b634e487b7160e01b600052603260045260246000fd5b6000825161056781846020870161045e565b9190910192915050565b634e487b7160e01b600052601160045260246000fd5b60006001820161059957610599610571565b5060010190565b818103818111156105b3576105b3610571565b9291505056fea26469706673582212202af40484009538c0b7a470985d7f81b0e324ffe2f7e84dba8e34c9dca4214c4864736f6c63430008120033",
  "linkReferences": {},
  "deployedLinkReferences": {}
}