{
  "_format": "hh-sol-artifact-1",
  "contractName": "SmartWallet",
  "sourceName": "contracts/innovation/archieved/SmartWallet.sol",
  "abi": [
    {
      "inputs": [],
      "stateMutability": "nonpayable",
      "type": "constructor"
    },
    {
      "anonymous": false,
      "inputs": [
        {
          "indexed": true,
          "internalType": "address",
          "name": "previousBundler",
          "type": "address"
        },
        {
          "indexed": true,
          "internalType": "address",
          "name": "newBundler",
          "type": "address"
        }
      ],
      "name": "BundlerChanged",
      "type": "event"
    },
    {
      "anonymous": false,
      "inputs": [
        {
          "indexed": true,
          "internalType": "address",
          "name": "guardian",
          "type": "address"
        },
        {
          "indexed": false,
          "internalType": "address",
          "name": "newOwner",
          "type": "address"
        },
        {
          "indexed": false,
          "internalType": "uint256",
          "name": "doneNum",
          "type": "uint256"
        }
      ],
      "name": "Cover",
      "type": "event"
    },
    {
      "anonymous": false,
      "inputs": [
        {
          "indexed": false,
          "internalType": "address",
          "name": "previousOwner",
          "type": "address"
        },
        {
          "indexed": false,
          "internalType": "address",
          "name": "newOwner",
          "type": "address"
        }
      ],
      "name": "OwnershipTransferred",
      "type": "event"
    },
    {
      "anonymous": false,
      "inputs": [
        {
          "indexed": false,
          "internalType": "address[]",
          "name": "guardians",
          "type": "address[]"
        },
        {
          "indexed": false,
          "internalType": "uint256",
          "name": "needGuardiansNum",
          "type": "uint256"
        }
      ],
      "name": "SocialRecoveryUpdated",
      "type": "event"
    },
    {
      "inputs": [
        {
          "internalType": "bytes",
          "name": "atomCallBytes",
          "type": "bytes"
        }
      ],
      "name": "atomCall",
      "outputs": [],
      "stateMutability": "nonpayable",
      "type": "function"
    },
    {
      "inputs": [
        {
          "internalType": "bytes",
          "name": "atomCallBytes",
          "type": "bytes"
        },
        {
          "internalType": "uint32",
          "name": "deadline",
          "type": "uint32"
        },
        {
          "internalType": "bytes",
          "name": "signature",
          "type": "bytes"
        }
      ],
      "name": "atomSignCall",
      "outputs": [],
      "stateMutability": "nonpayable",
      "type": "function"
    },
    {
      "inputs": [],
      "name": "bundler",
      "outputs": [
        {
          "internalType": "address",
          "name": "",
          "type": "address"
        }
      ],
      "stateMutability": "view",
      "type": "function"
    },
    {
      "inputs": [
        {
          "internalType": "address",
          "name": "newBundler",
          "type": "address"
        }
      ],
      "name": "changeBundler",
      "outputs": [],
      "stateMutability": "nonpayable",
      "type": "function"
    },
    {
      "inputs": [
        {
          "internalType": "address",
          "name": "newOwner",
          "type": "address"
        }
      ],
      "name": "coverOwnership",
      "outputs": [],
      "stateMutability": "nonpayable",
      "type": "function"
    },
    {
      "inputs": [
        {
          "internalType": "address",
          "name": "to",
          "type": "address"
        },
        {
          "internalType": "bytes",
          "name": "data",
          "type": "bytes"
        }
      ],
      "name": "delegateCall",
      "outputs": [],
      "stateMutability": "nonpayable",
      "type": "function"
    },
    {
      "inputs": [
        {
          "internalType": "address",
          "name": "to",
          "type": "address"
        },
        {
          "internalType": "bytes",
          "name": "data",
          "type": "bytes"
        },
        {
          "internalType": "uint32",
          "name": "deadline",
          "type": "uint32"
        },
        {
          "internalType": "bytes",
          "name": "signature",
          "type": "bytes"
        },
        {
          "internalType": "bytes",
          "name": "unsignedData",
          "type": "bytes"
        }
      ],
      "name": "delegateCallWithUnsignedData",
      "outputs": [],
      "stateMutability": "nonpayable",
      "type": "function"
    },
    {
      "inputs": [
        {
          "internalType": "uint256",
          "name": "",
          "type": "uint256"
        }
      ],
      "name": "doneGuardians",
      "outputs": [
        {
          "internalType": "address",
          "name": "",
          "type": "address"
        }
      ],
      "stateMutability": "view",
      "type": "function"
    },
    {
      "inputs": [],
      "name": "getSocialRecovery",
      "outputs": [
        {
          "internalType": "address[]",
          "name": "",
          "type": "address[]"
        },
        {
          "internalType": "uint256",
          "name": "",
          "type": "uint256"
        },
        {
          "internalType": "address[]",
          "name": "",
          "type": "address[]"
        }
      ],
      "stateMutability": "view",
      "type": "function"
    },
    {
      "inputs": [
        {
          "internalType": "uint256",
          "name": "",
          "type": "uint256"
        }
      ],
      "name": "guardians",
      "outputs": [
        {
          "internalType": "address",
          "name": "",
          "type": "address"
        }
      ],
      "stateMutability": "view",
      "type": "function"
    },
    {
      "inputs": [
        {
          "internalType": "address",
          "name": "_owner",
          "type": "address"
        },
        {
          "internalType": "address",
          "name": "_bundler",
          "type": "address"
        },
        {
          "internalType": "address",
          "name": "to",
          "type": "address"
        },
        {
          "internalType": "uint256",
          "name": "value",
          "type": "uint256"
        },
        {
          "internalType": "bytes",
          "name": "data",
          "type": "bytes"
        }
      ],
      "name": "init",
      "outputs": [],
      "stateMutability": "nonpayable",
      "type": "function"
    },
    {
      "inputs": [
        {
          "internalType": "bytes32",
          "name": "_hash",
          "type": "bytes32"
        },
        {
          "internalType": "bytes",
          "name": "_signature",
          "type": "bytes"
        }
      ],
      "name": "isValidSignature",
      "outputs": [
        {
          "internalType": "bytes4",
          "name": "",
          "type": "bytes4"
        }
      ],
      "stateMutability": "view",
      "type": "function"
    },
    {
      "inputs": [],
      "name": "makeAtomSignInvalid",
      "outputs": [],
      "stateMutability": "nonpayable",
      "type": "function"
    },
    {
      "inputs": [],
      "name": "needGuardiansNum",
      "outputs": [
        {
          "internalType": "uint256",
          "name": "",
          "type": "uint256"
        }
      ],
      "stateMutability": "view",
      "type": "function"
    },
    {
      "inputs": [],
      "name": "owner",
      "outputs": [
        {
          "internalType": "address",
          "name": "",
          "type": "address"
        }
      ],
      "stateMutability": "view",
      "type": "function"
    },
    {
      "inputs": [],
      "name": "prepareOwner",
      "outputs": [
        {
          "internalType": "address",
          "name": "",
          "type": "address"
        }
      ],
      "stateMutability": "view",
      "type": "function"
    },
    {
      "inputs": [],
      "name": "quitGuardian",
      "outputs": [],
      "stateMutability": "nonpayable",
      "type": "function"
    },
    {
      "inputs": [
        {
          "internalType": "address[]",
          "name": "_guardians",
          "type": "address[]"
        },
        {
          "internalType": "uint256",
          "name": "_needGuardiansNum",
          "type": "uint256"
        }
      ],
      "name": "setSocialRecovery",
      "outputs": [],
      "stateMutability": "nonpayable",
      "type": "function"
    },
    {
      "inputs": [
        {
          "internalType": "bytes4",
          "name": "interfaceId",
          "type": "bytes4"
        }
      ],
      "name": "supportsInterface",
      "outputs": [
        {
          "internalType": "bool",
          "name": "",
          "type": "bool"
        }
      ],
      "stateMutability": "view",
      "type": "function"
    },
    {
      "inputs": [
        {
          "internalType": "address",
          "name": "newOwner",
          "type": "address"
        }
      ],
      "name": "transferOwnership",
      "outputs": [],
      "stateMutability": "nonpayable",
      "type": "function"
    },
    {
      "inputs": [
        {
          "internalType": "bytes32",
          "name": "",
          "type": "bytes32"
        }
      ],
      "name": "usedMsgHashes",
      "outputs": [
        {
          "internalType": "bool",
          "name": "",
          "type": "bool"
        }
      ],
      "stateMutability": "view",
      "type": "function"
    },
    {
      "inputs": [],
      "name": "valid",
      "outputs": [
        {
          "internalType": "uint32",
          "name": "",
          "type": "uint32"
        }
      ],
      "stateMutability": "view",
      "type": "function"
    },
    {
      "stateMutability": "payable",
      "type": "receive"
    }
  ],
  "bytecode": "0x60a06040526005805463ffffffff60a81b1916600160a81b179055348015610025575f80fd5b5060015f81905580546001600160a01b0319169055306080526080516125186100725f395f8181610c15015281816111f4015281816113200152818161139e015261159401526125185ff3fe608060405260043610610134575f3560e01c8063a9c827b8116100a8578063e52903b41161006d578063e52903b4146103a7578063ebaf3eb5146103c6578063ef7daa47146103da578063f2fde38b146103f9578063f3103b2e14610418578063f560c7341461042c575f80fd5b8063a9c827b8146102e4578063ad0ffd8b14610303578063b3153d6314610322578063b75814e514610341578063c19912191461036f575f80fd5b80632471f314116100f95780632471f3141461021257806333ccba94146102495780635632cae11461026857806356e7b7aa14610287578063797de9c2146102a65780638da5cb5b146102c5575f80fd5b806301ffc9a71461013f578063142d328d146101735780631626ba7e14610194578063187b4595146101cc5780631b5269bb146101ef575f80fd5b3661013b57005b5f80fd5b34801561014a575f80fd5b5061015e610159366004611d86565b61044b565b60405190151581526020015b60405180910390f35b34801561017e575f80fd5b5061019261018d366004611e03565b610476565b005b34801561019f575f80fd5b506101b36101ae366004611e81565b610695565b6040516001600160e01b0319909116815260200161016a565b3480156101d7575f80fd5b506101e0610715565b60405161016a93929190611f0c565b3480156101fa575f80fd5b5061020460035481565b60405190815260200161016a565b34801561021d575f80fd5b5061023161022c366004611f40565b6107e0565b6040516001600160a01b03909116815260200161016a565b348015610254575f80fd5b50610192610263366004611f6d565b610808565b348015610273575f80fd5b50610192610282366004612023565b610ae2565b348015610292575f80fd5b506101926102a136600461209d565b610c13565b3480156102b1575f80fd5b506101926102c03660046120d3565b610d0e565b3480156102d0575f80fd5b50600154610231906001600160a01b031681565b3480156102ef575f80fd5b50600554610231906001600160a01b031681565b34801561030e575f80fd5b50600654610231906001600160a01b031681565b34801561032d575f80fd5b5061019261033c366004612112565b610dab565b34801561034c575f80fd5b5061015e61035b366004611f40565b60076020525f908152604090205460ff1681565b34801561037a575f80fd5b5060055461039290600160a81b900463ffffffff1681565b60405163ffffffff909116815260200161016a565b3480156103b2575f80fd5b506101926103c1366004612112565b6111de565b3480156103d1575f80fd5b5061019261130a565b3480156103e5575f80fd5b506101926103f436600461213f565b611388565b348015610404575f80fd5b50610192610413366004612112565b61157e565b348015610423575f80fd5b506101926115e7565b348015610437575f80fd5b50610231610446366004611f40565b6117c6565b5f610455826117d5565b8061047057506001600160e01b0319821663437ff2fd60e11b145b92915050565b6006546001600160a01b031633146104a95760405162461bcd60e51b81526004016104a090612205565b60405180910390fd5b428363ffffffff1610156104f75760405162461bcd60e51b8152602060048201526015602482015274185d1bdb54da59db90d85b1b0e88115e1c1a5c9959605a1b60448201526064016104a0565b5f8080366020610507868361225f565b610511919061225f565b9261051e93929190612272565b60055460405161054e93929146913060601b91600160a81b900460e01b6001600160e01b03191690602001612299565b60408051601f1981840301815291815281516020928301205f818152600790935291205490915060ff16156105c55760405162461bcd60e51b815260206004820152601a60248201527f61746f6d5369676e43616c6c3a2055736564206d73674861736800000000000060448201526064016104a0565b61060f83838080601f0160208091040260200160405190810160405280939291908181526020018383808284375f92019190915250610609925085915061180a9050565b9061185c565b6001546001600160a01b0390811691161461066c5760405162461bcd60e51b815260206004820152601f60248201527f61746f6d5369676e43616c6c3a20496e76616c6964205369676e61747572650060448201526064016104a0565b610676868661187e565b5f908152600760205260409020805460ff191660011790555050505050565b600154604080516020601f85018190048102820181019092528381525f926001600160a01b0316916106e7919086908690819084018382808284375f92019190915250610609925089915061180a9050565b6001600160a01b0316036107035750630b135d3f60e11b61070e565b506001600160e01b03195b9392505050565b60605f6060600260035460048280548060200260200160405190810160405280929190818152602001828054801561077457602002820191905f5260205f20905b81546001600160a01b03168152600190910190602001808311610756575b50505050509250808054806020026020016040519081016040528092919081815260200182805480156107ce57602002820191905f5260205f20905b81546001600160a01b031681526001909101906020018083116107b0575b50505050509050925092509250909192565b600481815481106107ef575f80fd5b5f918252602090912001546001600160a01b0316905081565b6006546001600160a01b031633146108325760405162461bcd60e51b81526004016104a090612205565b428563ffffffff1610156108965760405162461bcd60e51b815260206004820152602560248201527f64656c656761746543616c6c57697468556e7369676e6564446174613a2045786044820152641c1a5c995960da1b60648201526084016104a0565b5f8860601b88888860e01b465f1b3060601b600560159054906101000a900463ffffffff1660e01b6040516020016108d497969594939291906122d1565b60408051601f1981840301815291815281516020928301205f818152600790935291205490915060ff161561095e5760405162461bcd60e51b815260206004820152602a60248201527f64656c656761746543616c6c57697468556e7369676e6564446174613a2055736044820152690cac840dae6ce90c2e6d60b31b60648201526084016104a0565b6109a285858080601f0160208091040260200160405190810160405280939291908181526020018383808284375f92019190915250610609925085915061180a9050565b6001546001600160a01b03908116911614610a175760405162461bcd60e51b815260206004820152602f60248201527f64656c656761746543616c6c57697468556e7369676e6564446174613a20496e60448201526e76616c6964205369676e617475726560881b60648201526084016104a0565b5f806001600160a01b038b168a828b610a3160208261225f565b92610a3e93929190612272565b604051610a5592919088908a908290602001612323565b60408051601f1981840301815290829052610a6f91612349565b5f60405180830381855af49150503d805f8114610aa7576040519150601f19603f3d011682016040523d82523d5f602084013e610aac565b606091505b509150915081610abe57805160208201fd5b50505f908152600760205260409020805460ff191660011790555050505050505050565b600554600160a01b900460ff1615610b345760405162461bcd60e51b8152602060048201526015602482015274696e697428292072756e73206f6e6c79206f6e636560581b60448201526064016104a0565b6005805460ff60a01b1916600160a01b179055600680546001600160a01b0387166001600160a01b0319909116179055610b8b86600180546001600160a01b039092166001600160a01b0319909216919091179055565b6001600160a01b03841615610c0b575f80856001600160a01b0316858585604051610bb7929190612375565b5f6040518083038185875af1925050503d805f8114610bf1576040519150601f19603f3d011682016040523d82523d5f602084013e610bf6565b606091505b509150915081610c0857805160208201fd5b50505b505050505050565b7f00000000000000000000000000000000000000000000000000000000000000006001600160a01b03163314610c9c5760405162461bcd60e51b815260206004820152602860248201527f6f6e6c794f726967696e616c3a2063616c6c6572206973206e6f7420746865206044820152671bdc9a59da5b985b60c21b60648201526084016104a0565b5f80846001600160a01b03168484604051610cb8929190612375565b5f60405180830381855af49150503d805f8114610cf0576040519150601f19603f3d011682016040523d82523d5f602084013e610cf5565b606091505b509150915081610d0757805160208201fd5b5050505050565b6001546001600160a01b03163314610d735760405162461bcd60e51b815260206004820152602260248201527f6f6e6c794f776e65723a2063616c6c6572206973206e6f7420746865206f776e60448201526132b960f11b60648201526084016104a0565b6006546001600160a01b03163314610d9d5760405162461bcd60e51b81526004016104a090612205565b610da7828261187e565b5050565b5f805b600254811015610dff57336001600160a01b031660028281548110610dd557610dd5612384565b5f918252602090912001546001600160a01b031603610df75760019150610dff565b600101610dae565b5080610e5d5760405162461bcd60e51b815260206004820152602760248201527f636f7665724f776e6572736869703a20796f75277265206e6f742074686520476044820152663ab0b93234b0b760c91b60648201526084016104a0565b6001600160a01b038216610ec25760405162461bcd60e51b815260206004820152602660248201527f636f7665724f776e6572736869703a206e65774f776e65722063616e2774206260448201526506520307830360d41b60648201526084016104a0565b6005546001600160a01b038084169116036110d8575f80805b600454811015610fb45781158015610f2157505f6001600160a01b031660048281548110610f0b57610f0b612384565b5f918252602090912001546001600160a01b0316145b15610f2e57809250600191505b336001600160a01b031660048281548110610f4b57610f4b612384565b5f918252602090912001546001600160a01b031603610fac5760405162461bcd60e51b815260206004820152601c60248201527f636f7665724f776e6572736869703a20646f6e2774207265706561740000000060448201526064016104a0565b600101610edb565b506001600354610fc4919061225f565b820361104257610fd3846119d9565b60035467ffffffffffffffff811115610fee57610fee61212b565b604051908082528060200260200182016040528015611017578160200160208202803683370190505b50805161102c91600491602090910190611d0f565b50600580546001600160a01b0319169055611082565b336004838154811061105657611056612384565b905f5260205f20015f6101000a8154816001600160a01b0302191690836001600160a01b031602179055505b337f2ce3360ece46efd8bf19eaf6e38f377526d731e3adc61f96b348cfe38e31a475856110b0856001612398565b604080516001600160a01b03909316835260208301919091520160405180910390a250505050565b6003546001036110f0576110eb826119d9565b611196565b60035467ffffffffffffffff81111561110b5761110b61212b565b604051908082528060200260200182016040528015611134578160200160208202803683370190505b50805161114991600491602090910190611d0f565b503360045f8154811061115e5761115e612384565b5f91825260209091200180546001600160a01b03199081166001600160a01b0393841617909155600580549091169184169190911790555b604080516001600160a01b03841681526001602082015233917f2ce3360ece46efd8bf19eaf6e38f377526d731e3adc61f96b348cfe38e31a475910160405180910390a25050565b6001546001600160a01b031633148061121f57507f00000000000000000000000000000000000000000000000000000000000000006001600160a01b031633145b61123b5760405162461bcd60e51b81526004016104a0906123ab565b6003541561129f5760405162461bcd60e51b815260206004820152602b60248201527f6368616e676542756e646c65723a206c65742074686520677561726469616e7360448201526a081c5d5a5d08199a5c9cdd60aa1b60648201526084016104a0565b600680546001600160a01b038381166001600160a01b0319831617909255166112c661130a565b816001600160a01b0316816001600160a01b03167f5aa6e07403f44ac4bf75a5ea0169a27bb20abbf0a332ed3dde34ad0009831ceb60405160405180910390a35050565b6001546001600160a01b031633148061134b57507f00000000000000000000000000000000000000000000000000000000000000006001600160a01b031633145b6113675760405162461bcd60e51b81526004016104a0906123ab565b6005805463ffffffff60a81b1916600160a81b434063ffffffff1602179055565b6001546001600160a01b03163314806113c957507f00000000000000000000000000000000000000000000000000000000000000006001600160a01b031633145b6113e55760405162461bcd60e51b81526004016104a0906123ab565b6003541561144d5760405162461bcd60e51b815260206004820152602f60248201527f736574536f6369616c5265636f766572793a206c65742074686520677561726460448201526e1a585b9cc81c5d5a5d08199a5c9cdd608a1b60648201526084016104a0565b5f8111801561145d575081518111155b6114bc5760405162461bcd60e51b815260206004820152602a60248201527f736574536f6369616c5265636f766572793a205f6e656564477561726469616e60448201526939a73ab69032b93937b960b11b60648201526084016104a0565b81516114cf906002906020850190611d0f565b5060038190558067ffffffffffffffff8111156114ee576114ee61212b565b604051908082528060200260200182016040528015611517578160200160208202803683370190505b50805161152c91600491602090910190611d0f565b50600580546001600160a01b03191690556003546040517fbd508b341dc78a7a5309c1f3b48d89a6266ed6ddfbc6fc044637b7c3374ae6139161157291600291906123f8565b60405180910390a15050565b6001546001600160a01b03163314806115bf57507f00000000000000000000000000000000000000000000000000000000000000006001600160a01b031633145b6115db5760405162461bcd60e51b81526004016104a0906123ab565b6115e4816119d9565b50565b5f805b60025481101561176a57336001600160a01b03166002828154811061161157611611612384565b5f918252602090912001546001600160a01b03160361176257600280546001935061163d90849061225f565b8154811061164d5761164d612384565b5f91825260209091200154600280546001600160a01b03909216918390811061167857611678612384565b905f5260205f20015f6101000a8154816001600160a01b0302191690836001600160a01b0316021790555060028054806116b4576116b4612453565b5f8281526020902081015f1990810180546001600160a01b031916905501905560035460025410156116f35760035f81546116ee90612467565b909155505b60035467ffffffffffffffff81111561170e5761170e61212b565b604051908082528060200260200182016040528015611737578160200160208202803683370190505b50805161174c91600491602090910190611d0f565b50600580546001600160a01b031916905561176a565b6001016115ea565b50806115e45760405162461bcd60e51b815260206004820152602560248201527f71756974477561726469616e3a20796f75277265206e6f742074686520477561604482015264393234b0b760d91b60648201526084016104a0565b600281815481106107ef575f80fd5b5f6001600160e01b031982166301ffc9a760e01b148061047057506001600160e01b0319821663117f828560e21b1492915050565b6040517f19457468657265756d205369676e6564204d6573736167653a0a3332000000006020820152603c81018290525f90605c01604051602081830303815290604052805190602001209050919050565b5f805f6118698585611a33565b9150915061187681611a75565b509392505050565b5f5b818110156119d4575f838284611897826014612398565b926118a493929190612272565b6118ad9161247c565b60601c90505f84846118c0856014612398565b906118cc866034612398565b926118d993929190612272565b6118e2916124b1565b90505f85856118f2866034612398565b906118fe876054612398565b9261190b93929190612272565b611914916124b1565b90505f806001600160a01b0385168489896119308a6054612398565b908761193d8c6054612398565b6119479190612398565b9261195493929190612272565b604051611962929190612375565b5f6040518083038185875af1925050503d805f811461199c576040519150601f19603f3d011682016040523d82523d5f602084013e6119a1565b606091505b5091509150816119b357805160208201fd5b6119be836054612398565b6119c89087612398565b95505050505050611880565b505050565b600180546001600160a01b038381166001600160a01b031983168117909355604080519190921680825260208201939093527f8be0079c531659141344cd1fd0a4f28419497f9722a3daafe3b4186f6b6457e09101611572565b5f808251604103611a67576020830151604084015160608501515f1a611a5b87828585611c2a565b94509450505050611a6e565b505f905060025b9250929050565b5f816004811115611a8857611a886124ce565b03611a905750565b6001816004811115611aa457611aa46124ce565b03611af15760405162461bcd60e51b815260206004820152601860248201527f45434453413a20696e76616c6964207369676e6174757265000000000000000060448201526064016104a0565b6002816004811115611b0557611b056124ce565b03611b525760405162461bcd60e51b815260206004820152601f60248201527f45434453413a20696e76616c6964207369676e6174757265206c656e6774680060448201526064016104a0565b6003816004811115611b6657611b666124ce565b03611bbe5760405162461bcd60e51b815260206004820152602260248201527f45434453413a20696e76616c6964207369676e6174757265202773272076616c604482015261756560f01b60648201526084016104a0565b6004816004811115611bd257611bd26124ce565b036115e45760405162461bcd60e51b815260206004820152602260248201527f45434453413a20696e76616c6964207369676e6174757265202776272076616c604482015261756560f01b60648201526084016104a0565b5f807f7fffffffffffffffffffffffffffffff5d576e7357a4501ddfe92f46681b20a0831115611c5f57505f90506003611d06565b8460ff16601b14158015611c7757508460ff16601c14155b15611c8757505f90506004611d06565b604080515f8082526020820180845289905260ff881692820192909252606081018690526080810185905260019060a0016020604051602081039080840390855afa158015611cd8573d5f803e3d5ffd5b5050604051601f1901519150506001600160a01b038116611d00575f60019250925050611d06565b91505f90505b94509492505050565b828054828255905f5260205f20908101928215611d62579160200282015b82811115611d6257825182546001600160a01b0319166001600160a01b03909116178255602090920191600190910190611d2d565b50611d6e929150611d72565b5090565b5b80821115611d6e575f8155600101611d73565b5f60208284031215611d96575f80fd5b81356001600160e01b03198116811461070e575f80fd5b5f8083601f840112611dbd575f80fd5b50813567ffffffffffffffff811115611dd4575f80fd5b602083019150836020828501011115611a6e575f80fd5b803563ffffffff81168114611dfe575f80fd5b919050565b5f805f805f60608688031215611e17575f80fd5b853567ffffffffffffffff80821115611e2e575f80fd5b611e3a89838a01611dad565b9097509550859150611e4e60208901611deb565b94506040880135915080821115611e63575f80fd5b50611e7088828901611dad565b969995985093965092949392505050565b5f805f60408486031215611e93575f80fd5b83359250602084013567ffffffffffffffff811115611eb0575f80fd5b611ebc86828701611dad565b9497909650939450505050565b5f815180845260208085019450602084015f5b83811015611f015781516001600160a01b031687529582019590820190600101611edc565b509495945050505050565b606081525f611f1e6060830186611ec9565b8460208401528281036040840152611f368185611ec9565b9695505050505050565b5f60208284031215611f50575f80fd5b5035919050565b80356001600160a01b0381168114611dfe575f80fd5b5f805f805f805f8060a0898b031215611f84575f80fd5b611f8d89611f57565b9750602089013567ffffffffffffffff80821115611fa9575f80fd5b611fb58c838d01611dad565b9099509750879150611fc960408c01611deb565b965060608b0135915080821115611fde575f80fd5b611fea8c838d01611dad565b909650945060808b0135915080821115612002575f80fd5b5061200f8b828c01611dad565b999c989b5096995094979396929594505050565b5f805f805f8060a08789031215612038575f80fd5b61204187611f57565b955061204f60208801611f57565b945061205d60408801611f57565b935060608701359250608087013567ffffffffffffffff81111561207f575f80fd5b61208b89828a01611dad565b979a9699509497509295939492505050565b5f805f604084860312156120af575f80fd5b6120b884611f57565b9250602084013567ffffffffffffffff811115611eb0575f80fd5b5f80602083850312156120e4575f80fd5b823567ffffffffffffffff8111156120fa575f80fd5b61210685828601611dad565b90969095509350505050565b5f60208284031215612122575f80fd5b61070e82611f57565b634e487b7160e01b5f52604160045260245ffd5b5f8060408385031215612150575f80fd5b823567ffffffffffffffff80821115612167575f80fd5b818501915085601f83011261217a575f80fd5b813560208282111561218e5761218e61212b565b8160051b604051601f19603f830116810181811086821117156121b3576121b361212b565b6040529283528183019350848101820192898411156121d0575f80fd5b948201945b838610156121f5576121e686611f57565b855294820194938201936121d5565b9997909101359750505050505050565b60208082526026908201527f6f6e6c7942756e646c65723a2063616c6c6572206973206e6f742074686520626040820152653ab7323632b960d11b606082015260800190565b634e487b7160e01b5f52601160045260245ffd5b818103818111156104705761047061224b565b5f8085851115612280575f80fd5b8386111561228c575f80fd5b5050820193919092039150565b848682379093019182526bffffffffffffffffffffffff191660208201526001600160e01b0319919091166034820152603801919050565b5f6bffffffffffffffffffffffff19808a168352878960148501376001600160e01b03199687169790920160148101979097525060188601939093529116603884015216604c82015260500192915050565b848682375f858201858152838560208301375f9301602001928352509095945050505050565b5f82515f5b81811015612368576020818601810151858301520161234e565b505f920191825250919050565b818382375f9101908152919050565b634e487b7160e01b5f52603260045260245ffd5b808201808211156104705761047061224b565b6020808252602d908201527f6f6e6c794f776e6572416e644f726967696e616c3a2063616c6c65722069732060408201526c3737ba103a34329037bbb732b960991b606082015260800190565b5f6040820160408352808554808352606085019150865f526020925060205f205f5b8281101561243f5781546001600160a01b03168452928401926001918201910161241a565b505050602093909301939093525092915050565b634e487b7160e01b5f52603160045260245ffd5b5f816124755761247561224b565b505f190190565b6bffffffffffffffffffffffff1981358181169160148510156124a95780818660140360031b1b83161692505b505092915050565b80356020831015610470575f19602084900360031b1b1692915050565b634e487b7160e01b5f52602160045260245ffdfea264697066735822122032bda9f9c98072ad985fa8f78a46254cffafd3b623f61d9c096a8bbfeece73cc64736f6c63430008180033",
  "linkReferences": {},
  "deployedLinkReferences": {}
}