{
  "_format": "hh-sol-artifact-1",
  "contractName": "SmartWallet",
  "sourceName": "contracts/innovation/archieved/SmartWallet.sol",
  "abi": [
    {
      "inputs": [],
      "stateMutability": "nonpayable",
      "type": "constructor"
    },
    {
      "anonymous": false,
      "inputs": [
        {
          "indexed": true,
          "internalType": "address",
          "name": "previousBundler",
          "type": "address"
        },
        {
          "indexed": true,
          "internalType": "address",
          "name": "newBundler",
          "type": "address"
        }
      ],
      "name": "BundlerChanged",
      "type": "event"
    },
    {
      "anonymous": false,
      "inputs": [
        {
          "indexed": true,
          "internalType": "address",
          "name": "guardian",
          "type": "address"
        },
        {
          "indexed": false,
          "internalType": "address",
          "name": "newOwner",
          "type": "address"
        },
        {
          "indexed": false,
          "internalType": "uint256",
          "name": "doneNum",
          "type": "uint256"
        }
      ],
      "name": "Cover",
      "type": "event"
    },
    {
      "anonymous": false,
      "inputs": [
        {
          "indexed": false,
          "internalType": "address",
          "name": "previousOwner",
          "type": "address"
        },
        {
          "indexed": false,
          "internalType": "address",
          "name": "newOwner",
          "type": "address"
        }
      ],
      "name": "OwnershipTransferred",
      "type": "event"
    },
    {
      "anonymous": false,
      "inputs": [
        {
          "indexed": false,
          "internalType": "address[]",
          "name": "guardians",
          "type": "address[]"
        },
        {
          "indexed": false,
          "internalType": "uint256",
          "name": "needGuardiansNum",
          "type": "uint256"
        }
      ],
      "name": "SocialRecoveryUpdated",
      "type": "event"
    },
    {
      "inputs": [
        {
          "internalType": "bytes",
          "name": "atomCallBytes",
          "type": "bytes"
        }
      ],
      "name": "atomCall",
      "outputs": [],
      "stateMutability": "nonpayable",
      "type": "function"
    },
    {
      "inputs": [
        {
          "internalType": "bytes",
          "name": "atomCallBytes",
          "type": "bytes"
        },
        {
          "internalType": "uint32",
          "name": "deadline",
          "type": "uint32"
        },
        {
          "internalType": "bytes",
          "name": "signature",
          "type": "bytes"
        }
      ],
      "name": "atomSignCall",
      "outputs": [],
      "stateMutability": "nonpayable",
      "type": "function"
    },
    {
      "inputs": [],
      "name": "bundler",
      "outputs": [
        {
          "internalType": "address",
          "name": "",
          "type": "address"
        }
      ],
      "stateMutability": "view",
      "type": "function"
    },
    {
      "inputs": [
        {
          "internalType": "address",
          "name": "newBundler",
          "type": "address"
        }
      ],
      "name": "changeBundler",
      "outputs": [],
      "stateMutability": "nonpayable",
      "type": "function"
    },
    {
      "inputs": [
        {
          "internalType": "address",
          "name": "newOwner",
          "type": "address"
        }
      ],
      "name": "coverOwnership",
      "outputs": [],
      "stateMutability": "nonpayable",
      "type": "function"
    },
    {
      "inputs": [
        {
          "internalType": "address",
          "name": "to",
          "type": "address"
        },
        {
          "internalType": "bytes",
          "name": "data",
          "type": "bytes"
        }
      ],
      "name": "delegateCall",
      "outputs": [],
      "stateMutability": "nonpayable",
      "type": "function"
    },
    {
      "inputs": [
        {
          "internalType": "address",
          "name": "to",
          "type": "address"
        },
        {
          "internalType": "bytes",
          "name": "data",
          "type": "bytes"
        },
        {
          "internalType": "uint32",
          "name": "deadline",
          "type": "uint32"
        },
        {
          "internalType": "bytes",
          "name": "signature",
          "type": "bytes"
        },
        {
          "internalType": "bytes",
          "name": "unsignedData",
          "type": "bytes"
        }
      ],
      "name": "delegateCallWithUnsignedData",
      "outputs": [],
      "stateMutability": "nonpayable",
      "type": "function"
    },
    {
      "inputs": [
        {
          "internalType": "uint256",
          "name": "",
          "type": "uint256"
        }
      ],
      "name": "doneGuardians",
      "outputs": [
        {
          "internalType": "address",
          "name": "",
          "type": "address"
        }
      ],
      "stateMutability": "view",
      "type": "function"
    },
    {
      "inputs": [],
      "name": "getSocialRecovery",
      "outputs": [
        {
          "internalType": "address[]",
          "name": "",
          "type": "address[]"
        },
        {
          "internalType": "uint256",
          "name": "",
          "type": "uint256"
        },
        {
          "internalType": "address[]",
          "name": "",
          "type": "address[]"
        }
      ],
      "stateMutability": "view",
      "type": "function"
    },
    {
      "inputs": [
        {
          "internalType": "uint256",
          "name": "",
          "type": "uint256"
        }
      ],
      "name": "guardians",
      "outputs": [
        {
          "internalType": "address",
          "name": "",
          "type": "address"
        }
      ],
      "stateMutability": "view",
      "type": "function"
    },
    {
      "inputs": [
        {
          "internalType": "address",
          "name": "_owner",
          "type": "address"
        },
        {
          "internalType": "address",
          "name": "_bundler",
          "type": "address"
        },
        {
          "internalType": "address",
          "name": "to",
          "type": "address"
        },
        {
          "internalType": "uint256",
          "name": "value",
          "type": "uint256"
        },
        {
          "internalType": "bytes",
          "name": "data",
          "type": "bytes"
        }
      ],
      "name": "init",
      "outputs": [],
      "stateMutability": "nonpayable",
      "type": "function"
    },
    {
      "inputs": [
        {
          "internalType": "bytes32",
          "name": "_hash",
          "type": "bytes32"
        },
        {
          "internalType": "bytes",
          "name": "_signature",
          "type": "bytes"
        }
      ],
      "name": "isValidSignature",
      "outputs": [
        {
          "internalType": "bytes4",
          "name": "",
          "type": "bytes4"
        }
      ],
      "stateMutability": "view",
      "type": "function"
    },
    {
      "inputs": [],
      "name": "makeAtomSignInvalid",
      "outputs": [],
      "stateMutability": "nonpayable",
      "type": "function"
    },
    {
      "inputs": [],
      "name": "needGuardiansNum",
      "outputs": [
        {
          "internalType": "uint256",
          "name": "",
          "type": "uint256"
        }
      ],
      "stateMutability": "view",
      "type": "function"
    },
    {
      "inputs": [],
      "name": "owner",
      "outputs": [
        {
          "internalType": "address",
          "name": "",
          "type": "address"
        }
      ],
      "stateMutability": "view",
      "type": "function"
    },
    {
      "inputs": [],
      "name": "prepareOwner",
      "outputs": [
        {
          "internalType": "address",
          "name": "",
          "type": "address"
        }
      ],
      "stateMutability": "view",
      "type": "function"
    },
    {
      "inputs": [],
      "name": "quitGuardian",
      "outputs": [],
      "stateMutability": "nonpayable",
      "type": "function"
    },
    {
      "inputs": [
        {
          "internalType": "address[]",
          "name": "_guardians",
          "type": "address[]"
        },
        {
          "internalType": "uint256",
          "name": "_needGuardiansNum",
          "type": "uint256"
        }
      ],
      "name": "setSocialRecovery",
      "outputs": [],
      "stateMutability": "nonpayable",
      "type": "function"
    },
    {
      "inputs": [
        {
          "internalType": "bytes4",
          "name": "interfaceId",
          "type": "bytes4"
        }
      ],
      "name": "supportsInterface",
      "outputs": [
        {
          "internalType": "bool",
          "name": "",
          "type": "bool"
        }
      ],
      "stateMutability": "view",
      "type": "function"
    },
    {
      "inputs": [
        {
          "internalType": "address",
          "name": "newOwner",
          "type": "address"
        }
      ],
      "name": "transferOwnership",
      "outputs": [],
      "stateMutability": "nonpayable",
      "type": "function"
    },
    {
      "inputs": [
        {
          "internalType": "bytes32",
          "name": "",
          "type": "bytes32"
        }
      ],
      "name": "usedMsgHashes",
      "outputs": [
        {
          "internalType": "bool",
          "name": "",
          "type": "bool"
        }
      ],
      "stateMutability": "view",
      "type": "function"
    },
    {
      "inputs": [],
      "name": "valid",
      "outputs": [
        {
          "internalType": "uint32",
          "name": "",
          "type": "uint32"
        }
      ],
      "stateMutability": "view",
      "type": "function"
    },
    {
      "stateMutability": "payable",
      "type": "receive"
    }
  ],
  "bytecode": "0x60a06040526005805463ffffffff60a81b1916600160a81b17905534801561002657600080fd5b506001600081905580546001600160a01b0319169055306080526080516125fd61007760003960008181610c4d0152818161124b01528181611377015281816113f501526115ec01526125fd6000f3fe6080604052600436106101395760003560e01c8063a9c827b8116100ab578063e52903b41161006f578063e52903b4146103be578063ebaf3eb5146103de578063ef7daa47146103f3578063f2fde38b14610413578063f3103b2e14610433578063f560c7341461044857600080fd5b8063a9c827b8146102f5578063ad0ffd8b14610315578063b3153d6314610335578063b75814e514610355578063c19912191461038557600080fd5b80632471f314116100fd5780632471f3141461021d57806333ccba94146102555780635632cae11461027557806356e7b7aa14610295578063797de9c2146102b55780638da5cb5b146102d557600080fd5b806301ffc9a714610145578063142d328d1461017a5780631626ba7e1461019c578063187b4595146101d55780631b5269bb146101f957600080fd5b3661014057005b600080fd5b34801561015157600080fd5b50610165610160366004611e0b565b610468565b60405190151581526020015b60405180910390f35b34801561018657600080fd5b5061019a610195366004611e90565b610494565b005b3480156101a857600080fd5b506101bc6101b7366004611f14565b6106b7565b6040516001600160e01b03199091168152602001610171565b3480156101e157600080fd5b506101ea610739565b60405161017193929190611fa4565b34801561020557600080fd5b5061020f60035481565b604051908152602001610171565b34801561022957600080fd5b5061023d610238366004611fd9565b610809565b6040516001600160a01b039091168152602001610171565b34801561026157600080fd5b5061019a610270366004612009565b610833565b34801561028157600080fd5b5061019a6102903660046120c7565b610b16565b3480156102a157600080fd5b5061019a6102b0366004612146565b610c4b565b3480156102c157600080fd5b5061019a6102d0366004612180565b610d4a565b3480156102e157600080fd5b5060015461023d906001600160a01b031681565b34801561030157600080fd5b5060055461023d906001600160a01b031681565b34801561032157600080fd5b5060065461023d906001600160a01b031681565b34801561034157600080fd5b5061019a6103503660046121c2565b610de7565b34801561036157600080fd5b50610165610370366004611fd9565b60076020526000908152604090205460ff1681565b34801561039157600080fd5b506005546103a990600160a81b900463ffffffff1681565b60405163ffffffff9091168152602001610171565b3480156103ca57600080fd5b5061019a6103d93660046121c2565b611235565b3480156103ea57600080fd5b5061019a611361565b3480156103ff57600080fd5b5061019a61040e3660046121f3565b6113df565b34801561041f57600080fd5b5061019a61042e3660046121c2565b6115d6565b34801561043f57600080fd5b5061019a61163f565b34801561045457600080fd5b5061023d610463366004611fd9565b61182f565b60006104738261183f565b8061048e57506001600160e01b0319821663437ff2fd60e11b145b92915050565b6006546001600160a01b031633146104c75760405162461bcd60e51b81526004016104be906122be565b60405180910390fd5b428363ffffffff1610156105155760405162461bcd60e51b8152602060048201526015602482015274185d1bdb54da59db90d85b1b0e88115e1c1a5c9959605a1b60448201526064016104be565b60008080366020610526868361231a565b610530919061231a565b9261053d9392919061232d565b60055460405161056d93929146913060601b91600160a81b900460e01b6001600160e01b03191690602001612357565b60408051601f1981840301815291815281516020928301206000818152600790935291205490915060ff16156105e55760405162461bcd60e51b815260206004820152601a60248201527f61746f6d5369676e43616c6c3a2055736564206d73674861736800000000000060448201526064016104be565b61063083838080601f01602080910402602001604051908101604052809392919081815260200183838082843760009201919091525061062a92508591506118759050565b906118c8565b6001546001600160a01b0390811691161461068d5760405162461bcd60e51b815260206004820152601f60248201527f61746f6d5369676e43616c6c3a20496e76616c6964205369676e61747572650060448201526064016104be565b61069786866118ec565b6000908152600760205260409020805460ff191660011790555050505050565b600154604080516020601f85018190048102820181019092528381526000926001600160a01b03169161070b9190869086908190840183828082843760009201919091525061062a92508991506118759050565b6001600160a01b0316036107275750630b135d3f60e11b610732565b506001600160e01b03195b9392505050565b606060006060600260035460048280548060200260200160405190810160405280929190818152602001828054801561079b57602002820191906000526020600020905b81546001600160a01b0316815260019091019060200180831161077d575b50505050509250808054806020026020016040519081016040528092919081815260200182805480156107f757602002820191906000526020600020905b81546001600160a01b031681526001909101906020018083116107d9575b50505050509050925092509250909192565b6004818154811061081957600080fd5b6000918252602090912001546001600160a01b0316905081565b6006546001600160a01b0316331461085d5760405162461bcd60e51b81526004016104be906122be565b428563ffffffff1610156108c15760405162461bcd60e51b815260206004820152602560248201527f64656c656761746543616c6c57697468556e7369676e6564446174613a2045786044820152641c1a5c995960da1b60648201526084016104be565b60008860601b88888860e01b4660001b3060601b600560159054906101000a900463ffffffff1660e01b604051602001610901979695949392919061238f565b60408051601f1981840301815291815281516020928301206000818152600790935291205490915060ff161561098c5760405162461bcd60e51b815260206004820152602a60248201527f64656c656761746543616c6c57697468556e7369676e6564446174613a2055736044820152690cac840dae6ce90c2e6d60b31b60648201526084016104be565b6109d185858080601f01602080910402602001604051908101604052809392919081815260200183838082843760009201919091525061062a92508591506118759050565b6001546001600160a01b03908116911614610a465760405162461bcd60e51b815260206004820152602f60248201527f64656c656761746543616c6c57697468556e7369676e6564446174613a20496e60448201526e76616c6964205369676e617475726560881b60648201526084016104be565b6000806001600160a01b038b168a828b610a6160208261231a565b92610a6e9392919061232d565b604051610a8592919088908a9082906020016123e2565b60408051601f1981840301815290829052610a9f9161240a565b600060405180830381855af49150503d8060008114610ada576040519150601f19603f3d011682016040523d82523d6000602084013e610adf565b606091505b509150915081610af157805160208201fd5b50506000908152600760205260409020805460ff191660011790555050505050505050565b600554600160a01b900460ff1615610b685760405162461bcd60e51b8152602060048201526015602482015274696e697428292072756e73206f6e6c79206f6e636560581b60448201526064016104be565b6005805460ff60a01b1916600160a01b179055600680546001600160a01b0387166001600160a01b0319909116179055610bbf86600180546001600160a01b039092166001600160a01b0319909216919091179055565b6001600160a01b03841615610c4357600080856001600160a01b0316858585604051610bec929190612439565b60006040518083038185875af1925050503d8060008114610c29576040519150601f19603f3d011682016040523d82523d6000602084013e610c2e565b606091505b509150915081610c4057805160208201fd5b50505b505050505050565b7f00000000000000000000000000000000000000000000000000000000000000006001600160a01b03163314610cd45760405162461bcd60e51b815260206004820152602860248201527f6f6e6c794f726967696e616c3a2063616c6c6572206973206e6f7420746865206044820152671bdc9a59da5b985b60c21b60648201526084016104be565b600080846001600160a01b03168484604051610cf1929190612439565b600060405180830381855af49150503d8060008114610d2c576040519150601f19603f3d011682016040523d82523d6000602084013e610d31565b606091505b509150915081610d4357805160208201fd5b5050505050565b6001546001600160a01b03163314610daf5760405162461bcd60e51b815260206004820152602260248201527f6f6e6c794f776e65723a2063616c6c6572206973206e6f7420746865206f776e60448201526132b960f11b60648201526084016104be565b6006546001600160a01b03163314610dd95760405162461bcd60e51b81526004016104be906122be565b610de382826118ec565b5050565b6000805b600254811015610e4557336001600160a01b031660028281548110610e1257610e12612449565b6000918252602090912001546001600160a01b031603610e355760019150610e45565b610e3e8161245f565b9050610deb565b5080610ea35760405162461bcd60e51b815260206004820152602760248201527f636f7665724f776e6572736869703a20796f75277265206e6f742074686520476044820152663ab0b93234b0b760c91b60648201526084016104be565b6001600160a01b038216610f085760405162461bcd60e51b815260206004820152602660248201527f636f7665724f776e6572736869703a206e65774f776e65722063616e2774206260448201526506520307830360d41b60648201526084016104be565b6005546001600160a01b0380841691160361112d57600080805b6004548110156110065781158015610f6a575060006001600160a01b031660048281548110610f5357610f53612449565b6000918252602090912001546001600160a01b0316145b15610f7757809250600191505b336001600160a01b031660048281548110610f9457610f94612449565b6000918252602090912001546001600160a01b031603610ff65760405162461bcd60e51b815260206004820152601c60248201527f636f7665724f776e6572736869703a20646f6e2774207265706561740000000060448201526064016104be565b610fff8161245f565b9050610f22565b506001600354611016919061231a565b82036110945761102584611a4f565b60035467ffffffffffffffff811115611040576110406121dd565b604051908082528060200260200182016040528015611069578160200160208202803683370190505b50805161107e91600491602090910190611d91565b50600580546001600160a01b03191690556110d7565b33600483815481106110a8576110a8612449565b9060005260206000200160006101000a8154816001600160a01b0302191690836001600160a01b031602179055505b337f2ce3360ece46efd8bf19eaf6e38f377526d731e3adc61f96b348cfe38e31a47585611105856001612478565b604080516001600160a01b03909316835260208301919091520160405180910390a250505050565b6003546001036111455761114082611a4f565b6111ed565b60035467ffffffffffffffff811115611160576111606121dd565b604051908082528060200260200182016040528015611189578160200160208202803683370190505b50805161119e91600491602090910190611d91565b503360046000815481106111b4576111b4612449565b600091825260209091200180546001600160a01b03199081166001600160a01b0393841617909155600580549091169184169190911790555b604080516001600160a01b03841681526001602082015233917f2ce3360ece46efd8bf19eaf6e38f377526d731e3adc61f96b348cfe38e31a475910160405180910390a25050565b6001546001600160a01b031633148061127657507f00000000000000000000000000000000000000000000000000000000000000006001600160a01b031633145b6112925760405162461bcd60e51b81526004016104be9061248b565b600354156112f65760405162461bcd60e51b815260206004820152602b60248201527f6368616e676542756e646c65723a206c65742074686520677561726469616e7360448201526a081c5d5a5d08199a5c9cdd60aa1b60648201526084016104be565b600680546001600160a01b038381166001600160a01b03198316179092551661131d611361565b816001600160a01b0316816001600160a01b03167f5aa6e07403f44ac4bf75a5ea0169a27bb20abbf0a332ed3dde34ad0009831ceb60405160405180910390a35050565b6001546001600160a01b03163314806113a257507f00000000000000000000000000000000000000000000000000000000000000006001600160a01b031633145b6113be5760405162461bcd60e51b81526004016104be9061248b565b6005805463ffffffff60a81b1916600160a81b434063ffffffff1602179055565b6001546001600160a01b031633148061142057507f00000000000000000000000000000000000000000000000000000000000000006001600160a01b031633145b61143c5760405162461bcd60e51b81526004016104be9061248b565b600354156114a45760405162461bcd60e51b815260206004820152602f60248201527f736574536f6369616c5265636f766572793a206c65742074686520677561726460448201526e1a585b9cc81c5d5a5d08199a5c9cdd608a1b60648201526084016104be565b6000811180156114b5575081518111155b6115145760405162461bcd60e51b815260206004820152602a60248201527f736574536f6369616c5265636f766572793a205f6e656564477561726469616e60448201526939a73ab69032b93937b960b11b60648201526084016104be565b8151611527906002906020850190611d91565b5060038190558067ffffffffffffffff811115611546576115466121dd565b60405190808252806020026020018201604052801561156f578160200160208202803683370190505b50805161158491600491602090910190611d91565b50600580546001600160a01b03191690556003546040517fbd508b341dc78a7a5309c1f3b48d89a6266ed6ddfbc6fc044637b7c3374ae613916115ca91600291906124d8565b60405180910390a15050565b6001546001600160a01b031633148061161757507f00000000000000000000000000000000000000000000000000000000000000006001600160a01b031633145b6116335760405162461bcd60e51b81526004016104be9061248b565b61163c81611a4f565b50565b6000805b6002548110156117d357336001600160a01b03166002828154811061166a5761166a612449565b6000918252602090912001546001600160a01b0316036117c357600280546001935061169790849061231a565b815481106116a7576116a7612449565b600091825260209091200154600280546001600160a01b0390921691839081106116d3576116d3612449565b9060005260206000200160006101000a8154816001600160a01b0302191690836001600160a01b03160217905550600280548061171257611712612531565b600082815260209020810160001990810180546001600160a01b031916905501905560035460025410156117545760036000815461174f90612547565b909155505b60035467ffffffffffffffff81111561176f5761176f6121dd565b604051908082528060200260200182016040528015611798578160200160208202803683370190505b5080516117ad91600491602090910190611d91565b50600580546001600160a01b03191690556117d3565b6117cc8161245f565b9050611643565b508061163c5760405162461bcd60e51b815260206004820152602560248201527f71756974477561726469616e3a20796f75277265206e6f742074686520477561604482015264393234b0b760d91b60648201526084016104be565b6002818154811061081957600080fd5b60006001600160e01b031982166301ffc9a760e01b148061048e57506001600160e01b0319821663117f828560e21b1492915050565b6040517f19457468657265756d205369676e6564204d6573736167653a0a3332000000006020820152603c8101829052600090605c01604051602081830303815290604052805190602001209050919050565b60008060006118d78585611aa9565b915091506118e481611aee565b509392505050565b60005b81811015611a4a576000838284611907826014612478565b926119149392919061232d565b61191d9161255e565b60601c905060008484611931856014612478565b9061193d866034612478565b9261194a9392919061232d565b61195391612593565b905060008585611964866034612478565b90611970876054612478565b9261197d9392919061232d565b61198691612593565b90506000806001600160a01b0385168489896119a38a6054612478565b90876119b08c6054612478565b6119ba9190612478565b926119c79392919061232d565b6040516119d5929190612439565b60006040518083038185875af1925050503d8060008114611a12576040519150601f19603f3d011682016040523d82523d6000602084013e611a17565b606091505b509150915081611a2957805160208201fd5b611a34836054612478565b611a3e9087612478565b955050505050506118ef565b505050565b600180546001600160a01b038381166001600160a01b031983168117909355604080519190921680825260208201939093527f8be0079c531659141344cd1fd0a4f28419497f9722a3daafe3b4186f6b6457e091016115ca565b6000808251604103611adf5760208301516040840151606085015160001a611ad387828585611ca4565b94509450505050611ae7565b506000905060025b9250929050565b6000816004811115611b0257611b026125b1565b03611b0a5750565b6001816004811115611b1e57611b1e6125b1565b03611b6b5760405162461bcd60e51b815260206004820152601860248201527f45434453413a20696e76616c6964207369676e6174757265000000000000000060448201526064016104be565b6002816004811115611b7f57611b7f6125b1565b03611bcc5760405162461bcd60e51b815260206004820152601f60248201527f45434453413a20696e76616c6964207369676e6174757265206c656e6774680060448201526064016104be565b6003816004811115611be057611be06125b1565b03611c385760405162461bcd60e51b815260206004820152602260248201527f45434453413a20696e76616c6964207369676e6174757265202773272076616c604482015261756560f01b60648201526084016104be565b6004816004811115611c4c57611c4c6125b1565b0361163c5760405162461bcd60e51b815260206004820152602260248201527f45434453413a20696e76616c6964207369676e6174757265202776272076616c604482015261756560f01b60648201526084016104be565b6000807f7fffffffffffffffffffffffffffffff5d576e7357a4501ddfe92f46681b20a0831115611cdb5750600090506003611d88565b8460ff16601b14158015611cf357508460ff16601c14155b15611d045750600090506004611d88565b6040805160008082526020820180845289905260ff881692820192909252606081018690526080810185905260019060a0016020604051602081039080840390855afa158015611d58573d6000803e3d6000fd5b5050604051601f1901519150506001600160a01b038116611d8157600060019250925050611d88565b9150600090505b94509492505050565b828054828255906000526020600020908101928215611de6579160200282015b82811115611de657825182546001600160a01b0319166001600160a01b03909116178255602090920191600190910190611db1565b50611df2929150611df6565b5090565b5b80821115611df25760008155600101611df7565b600060208284031215611e1d57600080fd5b81356001600160e01b03198116811461073257600080fd5b60008083601f840112611e4757600080fd5b50813567ffffffffffffffff811115611e5f57600080fd5b602083019150836020828501011115611ae757600080fd5b803563ffffffff81168114611e8b57600080fd5b919050565b600080600080600060608688031215611ea857600080fd5b853567ffffffffffffffff80821115611ec057600080fd5b611ecc89838a01611e35565b9097509550859150611ee060208901611e77565b94506040880135915080821115611ef657600080fd5b50611f0388828901611e35565b969995985093965092949392505050565b600080600060408486031215611f2957600080fd5b83359250602084013567ffffffffffffffff811115611f4757600080fd5b611f5386828701611e35565b9497909650939450505050565b600081518084526020808501945080840160005b83811015611f995781516001600160a01b031687529582019590820190600101611f74565b509495945050505050565b606081526000611fb76060830186611f60565b8460208401528281036040840152611fcf8185611f60565b9695505050505050565b600060208284031215611feb57600080fd5b5035919050565b80356001600160a01b0381168114611e8b57600080fd5b60008060008060008060008060a0898b03121561202557600080fd5b61202e89611ff2565b9750602089013567ffffffffffffffff8082111561204b57600080fd5b6120578c838d01611e35565b909950975087915061206b60408c01611e77565b965060608b013591508082111561208157600080fd5b61208d8c838d01611e35565b909650945060808b01359150808211156120a657600080fd5b506120b38b828c01611e35565b999c989b5096995094979396929594505050565b60008060008060008060a087890312156120e057600080fd5b6120e987611ff2565b95506120f760208801611ff2565b945061210560408801611ff2565b935060608701359250608087013567ffffffffffffffff81111561212857600080fd5b61213489828a01611e35565b979a9699509497509295939492505050565b60008060006040848603121561215b57600080fd5b61216484611ff2565b9250602084013567ffffffffffffffff811115611f4757600080fd5b6000806020838503121561219357600080fd5b823567ffffffffffffffff8111156121aa57600080fd5b6121b685828601611e35565b90969095509350505050565b6000602082840312156121d457600080fd5b61073282611ff2565b634e487b7160e01b600052604160045260246000fd5b6000806040838503121561220657600080fd5b823567ffffffffffffffff8082111561221e57600080fd5b818501915085601f83011261223257600080fd5b8135602082821115612246576122466121dd565b8160051b604051601f19603f8301168101818110868211171561226b5761226b6121dd565b60405292835281830193508481018201928984111561228957600080fd5b948201945b838610156122ae5761229f86611ff2565b8552948201949382019361228e565b9997909101359750505050505050565b60208082526026908201527f6f6e6c7942756e646c65723a2063616c6c6572206973206e6f742074686520626040820152653ab7323632b960d11b606082015260800190565b634e487b7160e01b600052601160045260246000fd5b8181038181111561048e5761048e612304565b6000808585111561233d57600080fd5b8386111561234a57600080fd5b5050820193919092039150565b848682379093019182526bffffffffffffffffffffffff191660208201526001600160e01b0319919091166034820152603801919050565b60006bffffffffffffffffffffffff19808a168352878960148501376001600160e01b03199687169790920160148101979097525060188601939093529116603884015216604c82015260500192915050565b8486823760008582018581528385602083013760009301602001928352509095945050505050565b6000825160005b8181101561242b5760208186018101518583015201612411565b506000920191825250919050565b8183823760009101908152919050565b634e487b7160e01b600052603260045260246000fd5b60006001820161247157612471612304565b5060010190565b8082018082111561048e5761048e612304565b6020808252602d908201527f6f6e6c794f776e6572416e644f726967696e616c3a2063616c6c65722069732060408201526c3737ba103a34329037bbb732b960991b606082015260800190565b6000604082016040835280855480835260608501915086600052602092508260002060005b828110156125225781546001600160a01b0316845292840192600191820191016124fd565b50505092019290925292915050565b634e487b7160e01b600052603160045260246000fd5b60008161255657612556612304565b506000190190565b6bffffffffffffffffffffffff19813581811691601485101561258b5780818660140360031b1b83161692505b505092915050565b8035602083101561048e57600019602084900360031b1b1692915050565b634e487b7160e01b600052602160045260246000fdfea2646970667358221220cd266435f6d78e3a59d327ee29cbaff5a9177247924f4a8842d9985bf307c36e64736f6c63430008120033",
  "linkReferences": {},
  "deployedLinkReferences": {}
}