{
  "_format": "hh-sol-artifact-1",
  "contractName": "AutoGasHelp",
  "sourceName": "contracts/wallet/help/AutoGasHelp.sol",
  "abi": [
    {
      "inputs": [],
      "stateMutability": "nonpayable",
      "type": "constructor"
    },
    {
      "inputs": [
        {
          "internalType": "address payable",
          "name": "to",
          "type": "address"
        },
        {
          "internalType": "uint256",
          "name": "amount",
          "type": "uint256"
        }
      ],
      "name": "transferETH",
      "outputs": [],
      "stateMutability": "nonpayable",
      "type": "function"
    }
  ],
  "bytecode": "0x608060405234801561000f575f80fd5b506101128061001d5f395ff3fe6080604052348015600e575f80fd5b50600436106026575f3560e01c80637b1a490914602a575b5f80fd5b6039603536600460a9565b603b565b005b8047106078576040516001600160a01b0383169082156108fc029083905f818181858888f193505050501580156073573d5f803e3d5ffd5b505050565b6040516001600160a01b038316904780156108fc02915f818181858888f193505050501580156073573d5f803e3d5ffd5b5f806040838503121560b9575f80fd5b82356001600160a01b038116811460ce575f80fd5b94602093909301359350505056fea2646970667358221220c495af742e0aecb6438067f50535f76dfd256ab2b37c7bff6fe92e93e862f1c364736f6c63430008180033",
  "linkReferences": {},
  "deployedLinkReferences": {}
}