{
  "_format": "hh-sol-artifact-1",
  "contractName": "AutoGasHelp",
  "sourceName": "contracts/wallet/help/AutoGasHelp.sol",
  "abi": [
    {
      "inputs": [],
      "stateMutability": "nonpayable",
      "type": "constructor"
    },
    {
      "inputs": [
        {
          "internalType": "address payable",
          "name": "to",
          "type": "address"
        },
        {
          "internalType": "uint256",
          "name": "amount",
          "type": "uint256"
        }
      ],
      "name": "transferETH",
      "outputs": [],
      "stateMutability": "nonpayable",
      "type": "function"
    }
  ],
  "bytecode": "0x608060405234801561001057600080fd5b5061011e806100206000396000f3fe6080604052348015600f57600080fd5b506004361060285760003560e01c80637b1a490914602d575b600080fd5b603c603836600460b2565b603e565b005b804710607e576040516001600160a01b0383169082156108fc029083906000818181858888f193505050501580156079573d6000803e3d6000fd5b505050565b6040516001600160a01b038316904780156108fc02916000818181858888f193505050501580156079573d6000803e3d6000fd5b6000806040838503121560c457600080fd5b82356001600160a01b038116811460da57600080fd5b94602093909301359350505056fea2646970667358221220d14f68dda05fd9e32969e6e3a03f84f3841f4655320f2f3cd5b529291a9298bd64736f6c63430008120033",
  "linkReferences": {},
  "deployedLinkReferences": {}
}