{
  "_format": "hh-sol-artifact-1",
  "contractName": "MockERC20",
  "sourceName": "contracts/mock/MockERC20.sol",
  "abi": [
    {
      "inputs": [
        {
          "internalType": "string",
          "name": "name_",
          "type": "string"
        },
        {
          "internalType": "string",
          "name": "symbol_",
          "type": "string"
        }
      ],
      "stateMutability": "nonpayable",
      "type": "constructor"
    },
    {
      "anonymous": false,
      "inputs": [
        {
          "indexed": true,
          "internalType": "address",
          "name": "owner",
          "type": "address"
        },
        {
          "indexed": true,
          "internalType": "address",
          "name": "spender",
          "type": "address"
        },
        {
          "indexed": false,
          "internalType": "uint256",
          "name": "value",
          "type": "uint256"
        }
      ],
      "name": "Approval",
      "type": "event"
    },
    {
      "anonymous": false,
      "inputs": [
        {
          "indexed": true,
          "internalType": "address",
          "name": "from",
          "type": "address"
        },
        {
          "indexed": true,
          "internalType": "address",
          "name": "to",
          "type": "address"
        },
        {
          "indexed": false,
          "internalType": "uint256",
          "name": "value",
          "type": "uint256"
        }
      ],
      "name": "Transfer",
      "type": "event"
    },
    {
      "inputs": [
        {
          "internalType": "address",
          "name": "owner",
          "type": "address"
        },
        {
          "internalType": "address",
          "name": "spender",
          "type": "address"
        }
      ],
      "name": "allowance",
      "outputs": [
        {
          "internalType": "uint256",
          "name": "",
          "type": "uint256"
        }
      ],
      "stateMutability": "view",
      "type": "function"
    },
    {
      "inputs": [
        {
          "internalType": "address",
          "name": "spender",
          "type": "address"
        },
        {
          "internalType": "uint256",
          "name": "amount",
          "type": "uint256"
        }
      ],
      "name": "approve",
      "outputs": [
        {
          "internalType": "bool",
          "name": "",
          "type": "bool"
        }
      ],
      "stateMutability": "nonpayable",
      "type": "function"
    },
    {
      "inputs": [
        {
          "internalType": "address",
          "name": "account",
          "type": "address"
        }
      ],
      "name": "balanceOf",
      "outputs": [
        {
          "internalType": "uint256",
          "name": "",
          "type": "uint256"
        }
      ],
      "stateMutability": "view",
      "type": "function"
    },
    {
      "inputs": [],
      "name": "decimals",
      "outputs": [
        {
          "internalType": "uint8",
          "name": "",
          "type": "uint8"
        }
      ],
      "stateMutability": "view",
      "type": "function"
    },
    {
      "inputs": [
        {
          "internalType": "address",
          "name": "spender",
          "type": "address"
        },
        {
          "internalType": "uint256",
          "name": "subtractedValue",
          "type": "uint256"
        }
      ],
      "name": "decreaseAllowance",
      "outputs": [
        {
          "internalType": "bool",
          "name": "",
          "type": "bool"
        }
      ],
      "stateMutability": "nonpayable",
      "type": "function"
    },
    {
      "inputs": [
        {
          "internalType": "address",
          "name": "spender",
          "type": "address"
        },
        {
          "internalType": "uint256",
          "name": "addedValue",
          "type": "uint256"
        }
      ],
      "name": "increaseAllowance",
      "outputs": [
        {
          "internalType": "bool",
          "name": "",
          "type": "bool"
        }
      ],
      "stateMutability": "nonpayable",
      "type": "function"
    },
    {
      "inputs": [
        {
          "internalType": "address",
          "name": "to",
          "type": "address"
        },
        {
          "internalType": "uint256",
          "name": "amount",
          "type": "uint256"
        }
      ],
      "name": "mint",
      "outputs": [],
      "stateMutability": "nonpayable",
      "type": "function"
    },
    {
      "inputs": [],
      "name": "name",
      "outputs": [
        {
          "internalType": "string",
          "name": "",
          "type": "string"
        }
      ],
      "stateMutability": "view",
      "type": "function"
    },
    {
      "inputs": [
        {
          "internalType": "uint8",
          "name": "value",
          "type": "uint8"
        }
      ],
      "name": "setDecimals",
      "outputs": [],
      "stateMutability": "nonpayable",
      "type": "function"
    },
    {
      "inputs": [],
      "name": "symbol",
      "outputs": [
        {
          "internalType": "string",
          "name": "",
          "type": "string"
        }
      ],
      "stateMutability": "view",
      "type": "function"
    },
    {
      "inputs": [],
      "name": "totalSupply",
      "outputs": [
        {
          "internalType": "uint256",
          "name": "",
          "type": "uint256"
        }
      ],
      "stateMutability": "view",
      "type": "function"
    },
    {
      "inputs": [
        {
          "internalType": "address",
          "name": "to",
          "type": "address"
        },
        {
          "internalType": "uint256",
          "name": "amount",
          "type": "uint256"
        }
      ],
      "name": "transfer",
      "outputs": [
        {
          "internalType": "bool",
          "name": "",
          "type": "bool"
        }
      ],
      "stateMutability": "nonpayable",
      "type": "function"
    },
    {
      "inputs": [
        {
          "internalType": "address",
          "name": "from",
          "type": "address"
        },
        {
          "internalType": "address",
          "name": "to",
          "type": "address"
        },
        {
          "internalType": "uint256",
          "name": "amount",
          "type": "uint256"
        }
      ],
      "name": "transferFrom",
      "outputs": [
        {
          "internalType": "bool",
          "name": "",
          "type": "bool"
        }
      ],
      "stateMutability": "nonpayable",
      "type": "function"
    }
  ],
  "bytecode": "0x60806040526005805460ff191660121790553480156200001d575f80fd5b5060405162000cbd38038062000cbd83398101604081905262000040916200012b565b818160036200005083826200021b565b5060046200005f82826200021b565b5050505050620002e7565b634e487b7160e01b5f52604160045260245ffd5b5f82601f8301126200008e575f80fd5b81516001600160401b0380821115620000ab57620000ab6200006a565b604051601f8301601f19908116603f01168101908282118183101715620000d657620000d66200006a565b8160405283815260209250866020858801011115620000f3575f80fd5b5f91505b83821015620001165785820183015181830184015290820190620000f7565b5f602085830101528094505050505092915050565b5f80604083850312156200013d575f80fd5b82516001600160401b038082111562000154575f80fd5b62000162868387016200007e565b9350602085015191508082111562000178575f80fd5b5062000187858286016200007e565b9150509250929050565b600181811c90821680620001a657607f821691505b602082108103620001c557634e487b7160e01b5f52602260045260245ffd5b50919050565b601f8211156200021657805f5260205f20601f840160051c81016020851015620001f25750805b601f840160051c820191505b8181101562000213575f8155600101620001fe565b50505b505050565b81516001600160401b038111156200023757620002376200006a565b6200024f8162000248845462000191565b84620001cb565b602080601f83116001811462000285575f84156200026d5750858301515b5f19600386901b1c1916600185901b178555620002df565b5f85815260208120601f198616915b82811015620002b55788860151825594840194600190910190840162000294565b5085821015620002d357878501515f19600388901b60f8161c191681555b505060018460011b0185555b505050505050565b6109c880620002f55f395ff3fe608060405234801561000f575f80fd5b50600436106100cb575f3560e01c806340c10f191161008857806395d89b411161006357806395d89b41146101be578063a457c2d7146101c6578063a9059cbb146101d9578063dd62ed3e146101ec575f80fd5b806340c10f191461015d57806370a08231146101725780637a1395aa1461019a575f80fd5b806306fdde03146100cf578063095ea7b3146100ed57806318160ddd1461011057806323b872dd14610122578063313ce56714610135578063395093511461014a575b5f80fd5b6100d76101ff565b6040516100e49190610802565b60405180910390f35b6101006100fb366004610869565b61028f565b60405190151581526020016100e4565b6002545b6040519081526020016100e4565b610100610130366004610891565b6102a8565b60055460405160ff90911681526020016100e4565b610100610158366004610869565b6102cb565b61017061016b366004610869565b6102ec565b005b6101146101803660046108ca565b6001600160a01b03165f9081526020819052604090205490565b6101706101a83660046108ea565b6005805460ff191660ff92909216919091179055565b6100d76102fa565b6101006101d4366004610869565b610309565b6101006101e7366004610869565b610388565b6101146101fa36600461090a565b610395565b60606003805461020e9061093b565b80601f016020809104026020016040519081016040528092919081815260200182805461023a9061093b565b80156102855780601f1061025c57610100808354040283529160200191610285565b820191905f5260205f20905b81548152906001019060200180831161026857829003601f168201915b5050505050905090565b5f3361029c8185856103bf565b60019150505b92915050565b5f336102b58582856104e2565b6102c085858561055a565b506001949350505050565b5f3361029c8185856102dd8383610395565b6102e79190610973565b6103bf565b6102f68282610726565b5050565b60606004805461020e9061093b565b5f33816103168286610395565b90508381101561037b5760405162461bcd60e51b815260206004820152602560248201527f45524332303a2064656372656173656420616c6c6f77616e63652062656c6f77604482015264207a65726f60d81b60648201526084015b60405180910390fd5b6102c082868684036103bf565b5f3361029c81858561055a565b6001600160a01b039182165f90815260016020908152604080832093909416825291909152205490565b6001600160a01b0383166104215760405162461bcd60e51b8152602060048201526024808201527f45524332303a20617070726f76652066726f6d20746865207a65726f206164646044820152637265737360e01b6064820152608401610372565b6001600160a01b0382166104825760405162461bcd60e51b815260206004820152602260248201527f45524332303a20617070726f766520746f20746865207a65726f206164647265604482015261737360f01b6064820152608401610372565b6001600160a01b038381165f8181526001602090815260408083209487168084529482529182902085905590518481527f8c5be1e5ebec7d5bd14f71427d1e84f3dd0314c0f7b2291e5b200ac8c7c3b925910160405180910390a3505050565b5f6104ed8484610395565b90505f19811461055457818110156105475760405162461bcd60e51b815260206004820152601d60248201527f45524332303a20696e73756666696369656e7420616c6c6f77616e63650000006044820152606401610372565b61055484848484036103bf565b50505050565b6001600160a01b0383166105be5760405162461bcd60e51b815260206004820152602560248201527f45524332303a207472616e736665722066726f6d20746865207a65726f206164604482015264647265737360d81b6064820152608401610372565b6001600160a01b0382166106205760405162461bcd60e51b815260206004820152602360248201527f45524332303a207472616e7366657220746f20746865207a65726f206164647260448201526265737360e81b6064820152608401610372565b6001600160a01b0383165f90815260208190526040902054818110156106975760405162461bcd60e51b815260206004820152602660248201527f45524332303a207472616e7366657220616d6f756e7420657863656564732062604482015265616c616e636560d01b6064820152608401610372565b6001600160a01b038085165f908152602081905260408082208585039055918516815290812080548492906106cd908490610973565b92505081905550826001600160a01b0316846001600160a01b03167fddf252ad1be2c89b69c2b068fc378daa952ba7f163c4a11628f55a4df523b3ef8460405161071991815260200190565b60405180910390a3610554565b6001600160a01b03821661077c5760405162461bcd60e51b815260206004820152601f60248201527f45524332303a206d696e7420746f20746865207a65726f2061646472657373006044820152606401610372565b8060025f82825461078d9190610973565b90915550506001600160a01b0382165f90815260208190526040812080548392906107b9908490610973565b90915550506040518181526001600160a01b038316905f907fddf252ad1be2c89b69c2b068fc378daa952ba7f163c4a11628f55a4df523b3ef9060200160405180910390a35050565b5f602080835283518060208501525f5b8181101561082e57858101830151858201604001528201610812565b505f604082860101526040601f19601f8301168501019250505092915050565b80356001600160a01b0381168114610864575f80fd5b919050565b5f806040838503121561087a575f80fd5b6108838361084e565b946020939093013593505050565b5f805f606084860312156108a3575f80fd5b6108ac8461084e565b92506108ba6020850161084e565b9150604084013590509250925092565b5f602082840312156108da575f80fd5b6108e38261084e565b9392505050565b5f602082840312156108fa575f80fd5b813560ff811681146108e3575f80fd5b5f806040838503121561091b575f80fd5b6109248361084e565b91506109326020840161084e565b90509250929050565b600181811c9082168061094f57607f821691505b60208210810361096d57634e487b7160e01b5f52602260045260245ffd5b50919050565b808201808211156102a257634e487b7160e01b5f52601160045260245ffdfea2646970667358221220ef9410778aad852727cb9d448dab575cf7e2e3a4267585bc5c5bb497b13d439864736f6c63430008180033",
  "linkReferences": {},
  "deployedLinkReferences": {}
}