{
  "_format": "hh-sol-artifact-1",
  "contractName": "WalletHelperV1",
  "sourceName": "contracts/innovation/WalletHelperV1.sol",
  "abi": [
    {
      "inputs": [
        {
          "internalType": "contract ISwapRouter",
          "name": "_swapRouter",
          "type": "address"
        }
      ],
      "stateMutability": "nonpayable",
      "type": "constructor"
    },
    {
      "inputs": [],
      "name": "poolFee",
      "outputs": [
        {
          "internalType": "uint24",
          "name": "",
          "type": "uint24"
        }
      ],
      "stateMutability": "view",
      "type": "function"
    },
    {
      "inputs": [],
      "name": "swapRouter",
      "outputs": [
        {
          "internalType": "contract ISwapRouter",
          "name": "",
          "type": "address"
        }
      ],
      "stateMutability": "view",
      "type": "function"
    },
    {
      "inputs": [
        {
          "internalType": "address[]",
          "name": "tokenAddrs",
          "type": "address[]"
        },
        {
          "internalType": "uint256",
          "name": "decimals6Total",
          "type": "uint256"
        },
        {
          "internalType": "address",
          "name": "outTokenAddr",
          "type": "address"
        }
      ],
      "name": "swapStableCoins",
      "outputs": [
        {
          "internalType": "uint256",
          "name": "amountOut",
          "type": "uint256"
        }
      ],
      "stateMutability": "nonpayable",
      "type": "function"
    },
    {
      "inputs": [
        {
          "internalType": "address[]",
          "name": "tokenAddrs",
          "type": "address[]"
        },
        {
          "internalType": "uint256",
          "name": "decimals6Total",
          "type": "uint256"
        },
        {
          "internalType": "address",
          "name": "to",
          "type": "address"
        }
      ],
      "name": "transferStableCoins",
      "outputs": [],
      "stateMutability": "nonpayable",
      "type": "function"
    }
  ],
  "bytecode": "0x60a060405234801561001057600080fd5b50604051610dd9380380610dd983398101604081905261002f91610040565b6001600160a01b0316608052610070565b60006020828403121561005257600080fd5b81516001600160a01b038116811461006957600080fd5b9392505050565b608051610d416100986000396000818160ad015281816107db01526108a80152610d416000f3fe608060405234801561001057600080fd5b506004361061004c5760003560e01c8063089fe6aa146100515780631fa5afae1461007257806385009f8d14610093578063c31c9c07146100a8575b600080fd5b610059606481565b60405162ffffff90911681526020015b60405180910390f35b610085610080366004610a36565b6100e7565b604051908152602001610069565b6100a66100a1366004610a36565b610419565b005b6100cf7f000000000000000000000000000000000000000000000000000000000000000081565b6040516001600160a01b039091168152602001610069565b60008060005b858110156103b457600087878381811061010957610109610ac2565b905060200201602081019061011e9190610ad8565b90506000816001600160a01b031663313ce5676040518163ffffffff1660e01b8152600401602060405180830381865afa158015610160573d6000803e3d6000fd5b505050506040513d601f19601f820116820180604052508101906101849190610afa565b60ff1690506006811015801561019b575060128111155b6102125760405162461bcd60e51b815260206004820152603860248201527f73776170537461626c65436f696e733a20746f6b656e20646563696d616c732060448201527f6d75737420626520696e2072616e6765205b362c2031385d000000000000000060648201526084015b60405180910390fd5b600061021f600683610b33565b61022a90600a610c30565b6040516370a0823160e01b81523060048201526001600160a01b038516906370a0823190602401602060405180830381865afa15801561026e573d6000803e3d6000fd5b505050506040513d601f19601f820116820180604052508101906102929190610c3c565b61029c9190610c55565b9050806000036102ae575050506103a2565b60006102ba868a610b33565b9050876001600160a01b0316846001600160a01b03160361031b57808210156102fa576102e78287610c77565b95506102f38288610c77565b965061039d565b6103048187610c77565b95506103108188610c77565b9650505050506103b4565b808210156103635761032d8287610c77565b95506103598461033e600686610b33565b61034990600a610c30565b6103539085610c8a565b8a6107d3565b6102f39088610c77565b61036d8187610c77565b95506103938461037e600686610b33565b61038990600a610c30565b6103539084610c8a565b6103109088610c77565b505050505b806103ac81610ca1565b9150506100ed565b508381146104105760405162461bcd60e51b815260206004820152602360248201527f73776170537461626c65436f696e733a206e6f7420656e6f7567682062616c616044820152626e636560e81b6064820152608401610209565b50949350505050565b6000805b8481101561076c57600086868381811061043957610439610ac2565b905060200201602081019061044e9190610ad8565b90506000816001600160a01b031663313ce5676040518163ffffffff1660e01b8152600401602060405180830381865afa158015610490573d6000803e3d6000fd5b505050506040513d601f19601f820116820180604052508101906104b49190610afa565b60ff169050600681101580156104cb575060128111155b61053d5760405162461bcd60e51b815260206004820152603c60248201527f7472616e73666572537461626c65436f696e733a20746f6b656e20646563696d60448201527f616c73206d75737420626520696e2072616e6765205b362c2031385d000000006064820152608401610209565b600061054a600683610b33565b61055590600a610c30565b6040516370a0823160e01b81523060048201526001600160a01b038516906370a0823190602401602060405180830381865afa158015610599573d6000803e3d6000fd5b505050506040513d601f19601f820116820180604052508101906105bd9190610c3c565b6105c79190610c55565b9050806000036105d95750505061075a565b60006105e58689610b33565b9050808210156106a0576001600160a01b03841663a9059cbb8861060a600687610b33565b61061590600a610c30565b61061f9086610c8a565b6040516001600160e01b031960e085901b1681526001600160a01b03909216600483015260248201526044016020604051808303816000875af115801561066a573d6000803e3d6000fd5b505050506040513d601f19601f8201168201806040525081019061068e9190610cba565b506106998287610c77565b9550610755565b6001600160a01b03841663a9059cbb886106bb600687610b33565b6106c690600a610c30565b6106d09085610c8a565b6040516001600160e01b031960e085901b1681526001600160a01b03909216600483015260248201526044016020604051808303816000875af115801561071b573d6000803e3d6000fd5b505050506040513d601f19601f8201168201806040525081019061073f9190610cba565b5061074a8187610c77565b95505050505061076c565b505050505b8061076481610ca1565b91505061041d565b508281146107cc5760405162461bcd60e51b815260206004820152602760248201527f7472616e73666572537461626c65436f696e733a206e6f7420656e6f7567682060448201526662616c616e636560c81b6064820152608401610209565b5050505050565b6000610800847f000000000000000000000000000000000000000000000000000000000000000085610921565b60408051610100810182526001600160a01b0386811682528481166020830190815260648385018181523360608601908152426080870190815260a087018b8152600060c0890181815260e08a01918252995163414bf38960e01b8152895189166004820152965188166024880152935162ffffff166044870152915186169385019390935291516084840152905160a4830152935160c48201529251811660e484015290917f00000000000000000000000000000000000000000000000000000000000000009091169063414bf38990610104016020604051808303816000875af11580156108f4573d6000803e3d6000fd5b505050506040513d601f19601f820116820180604052508101906109189190610c3c565b95945050505050565b604080516001600160a01b038481166024830152604480830185905283518084039091018152606490920183526020820180516001600160e01b031663095ea7b360e01b179052915160009283929087169161097d9190610cdc565b6000604051808303816000865af19150503d80600081146109ba576040519150601f19603f3d011682016040523d82523d6000602084013e6109bf565b606091505b50915091508180156109e95750805115806109e95750808060200190518101906109e99190610cba565b6107cc5760405162461bcd60e51b8152602060048201526002602482015261534160f01b6044820152606401610209565b80356001600160a01b0381168114610a3157600080fd5b919050565b60008060008060608587031215610a4c57600080fd5b843567ffffffffffffffff80821115610a6457600080fd5b818701915087601f830112610a7857600080fd5b813581811115610a8757600080fd5b8860208260051b8501011115610a9c57600080fd5b602092830196509450508501359150610ab760408601610a1a565b905092959194509250565b634e487b7160e01b600052603260045260246000fd5b600060208284031215610aea57600080fd5b610af382610a1a565b9392505050565b600060208284031215610b0c57600080fd5b815160ff81168114610af357600080fd5b634e487b7160e01b600052601160045260246000fd5b81810381811115610b4657610b46610b1d565b92915050565b600181815b80851115610b87578160001904821115610b6d57610b6d610b1d565b80851615610b7a57918102915b93841c9390800290610b51565b509250929050565b600082610b9e57506001610b46565b81610bab57506000610b46565b8160018114610bc15760028114610bcb57610be7565b6001915050610b46565b60ff841115610bdc57610bdc610b1d565b50506001821b610b46565b5060208310610133831016604e8410600b8410161715610c0a575081810a610b46565b610c148383610b4c565b8060001904821115610c2857610c28610b1d565b029392505050565b6000610af38383610b8f565b600060208284031215610c4e57600080fd5b5051919050565b600082610c7257634e487b7160e01b600052601260045260246000fd5b500490565b80820180821115610b4657610b46610b1d565b8082028115828204841417610b4657610b46610b1d565b600060018201610cb357610cb3610b1d565b5060010190565b600060208284031215610ccc57600080fd5b81518015158114610af357600080fd5b6000825160005b81811015610cfd5760208186018101518583015201610ce3565b50600092019182525091905056fea2646970667358221220dba1a13106e0179e1daadb477f188a93c6850d4131f4e615086c29cb4db9f43264736f6c63430008120033",
  "linkReferences": {},
  "deployedLinkReferences": {}
}