{
  "_format": "hh-sol-artifact-1",
  "contractName": "WalletHelperV1",
  "sourceName": "contracts/innovation/WalletHelperV1.sol",
  "abi": [
    {
      "inputs": [
        {
          "internalType": "contract ISwapRouter",
          "name": "_swapRouter",
          "type": "address"
        }
      ],
      "stateMutability": "nonpayable",
      "type": "constructor"
    },
    {
      "inputs": [],
      "name": "poolFee",
      "outputs": [
        {
          "internalType": "uint24",
          "name": "",
          "type": "uint24"
        }
      ],
      "stateMutability": "view",
      "type": "function"
    },
    {
      "inputs": [],
      "name": "swapRouter",
      "outputs": [
        {
          "internalType": "contract ISwapRouter",
          "name": "",
          "type": "address"
        }
      ],
      "stateMutability": "view",
      "type": "function"
    },
    {
      "inputs": [
        {
          "internalType": "address[]",
          "name": "tokenAddrs",
          "type": "address[]"
        },
        {
          "internalType": "uint256",
          "name": "decimals6Total",
          "type": "uint256"
        },
        {
          "internalType": "address",
          "name": "outTokenAddr",
          "type": "address"
        }
      ],
      "name": "swapStableCoins",
      "outputs": [
        {
          "internalType": "uint256",
          "name": "amountOut",
          "type": "uint256"
        }
      ],
      "stateMutability": "nonpayable",
      "type": "function"
    },
    {
      "inputs": [
        {
          "internalType": "address[]",
          "name": "tokenAddrs",
          "type": "address[]"
        },
        {
          "internalType": "uint256",
          "name": "decimals6Total",
          "type": "uint256"
        },
        {
          "internalType": "address",
          "name": "to",
          "type": "address"
        }
      ],
      "name": "transferStableCoins",
      "outputs": [],
      "stateMutability": "nonpayable",
      "type": "function"
    }
  ],
  "bytecode": "0x60a060405234801561000f575f80fd5b50604051610d5c380380610d5c83398101604081905261002e9161003f565b6001600160a01b031660805261006c565b5f6020828403121561004f575f80fd5b81516001600160a01b0381168114610065575f80fd5b9392505050565b608051610ccb6100915f395f818160aa015281816107a801526108740152610ccb5ff3fe608060405234801561000f575f80fd5b506004361061004a575f3560e01c8063089fe6aa1461004e5780631fa5afae1461006f57806385009f8d14610090578063c31c9c07146100a5575b5f80fd5b610056606481565b60405162ffffff90911681526020015b60405180910390f35b61008261007d3660046109f9565b6100e4565b604051908152602001610066565b6100a361009e3660046109f9565b610401565b005b6100cc7f000000000000000000000000000000000000000000000000000000000000000081565b6040516001600160a01b039091168152602001610066565b5f805f5b8581101561039c575f87878381811061010357610103610a7e565b90506020020160208101906101189190610a92565b90505f816001600160a01b031663313ce5676040518163ffffffff1660e01b8152600401602060405180830381865afa158015610157573d5f803e3d5ffd5b505050506040513d601f19601f8201168201806040525081019061017b9190610ab2565b60ff16905060068110158015610192575060128111155b6102095760405162461bcd60e51b815260206004820152603860248201527f73776170537461626c65436f696e733a20746f6b656e20646563696d616c732060448201527f6d75737420626520696e2072616e6765205b362c2031385d000000000000000060648201526084015b60405180910390fd5b5f610215600683610ae6565b61022090600a610bdf565b6040516370a0823160e01b81523060048201526001600160a01b038516906370a0823190602401602060405180830381865afa158015610262573d5f803e3d5ffd5b505050506040513d601f19601f820116820180604052508101906102869190610bea565b6102909190610c01565b9050805f036102a157505050610394565b5f6102ac868a610ae6565b9050876001600160a01b0316846001600160a01b03160361030d57808210156102ec576102d98287610c20565b95506102e58288610c20565b965061038f565b6102f68187610c20565b95506103028188610c20565b96505050505061039c565b808210156103555761031f8287610c20565b955061034b84610330600686610ae6565b61033b90600a610bdf565b6103459085610c33565b8a6107a1565b6102e59088610c20565b61035f8187610c20565b955061038584610370600686610ae6565b61037b90600a610bdf565b6103459084610c33565b6103029088610c20565b505050505b6001016100e8565b508381146103f85760405162461bcd60e51b815260206004820152602360248201527f73776170537461626c65436f696e733a206e6f7420656e6f7567682062616c616044820152626e636560e81b6064820152608401610200565b50949350505050565b5f805b8481101561073a575f86868381811061041f5761041f610a7e565b90506020020160208101906104349190610a92565b90505f816001600160a01b031663313ce5676040518163ffffffff1660e01b8152600401602060405180830381865afa158015610473573d5f803e3d5ffd5b505050506040513d601f19601f820116820180604052508101906104979190610ab2565b60ff169050600681101580156104ae575060128111155b6105205760405162461bcd60e51b815260206004820152603c60248201527f7472616e73666572537461626c65436f696e733a20746f6b656e20646563696d60448201527f616c73206d75737420626520696e2072616e6765205b362c2031385d000000006064820152608401610200565b5f61052c600683610ae6565b61053790600a610bdf565b6040516370a0823160e01b81523060048201526001600160a01b038516906370a0823190602401602060405180830381865afa158015610579573d5f803e3d5ffd5b505050506040513d601f19601f8201168201806040525081019061059d9190610bea565b6105a79190610c01565b9050805f036105b857505050610732565b5f6105c38689610ae6565b90508082101561067b576001600160a01b03841663a9059cbb886105e8600687610ae6565b6105f390600a610bdf565b6105fd9086610c33565b6040516001600160e01b031960e085901b1681526001600160a01b03909216600483015260248201526044016020604051808303815f875af1158015610645573d5f803e3d5ffd5b505050506040513d601f19601f820116820180604052508101906106699190610c4a565b506106748287610c20565b955061072d565b6001600160a01b03841663a9059cbb88610696600687610ae6565b6106a190600a610bdf565b6106ab9085610c33565b6040516001600160e01b031960e085901b1681526001600160a01b03909216600483015260248201526044016020604051808303815f875af11580156106f3573d5f803e3d5ffd5b505050506040513d601f19601f820116820180604052508101906107179190610c4a565b506107228187610c20565b95505050505061073a565b505050505b600101610404565b5082811461079a5760405162461bcd60e51b815260206004820152602760248201527f7472616e73666572537461626c65436f696e733a206e6f7420656e6f7567682060448201526662616c616e636560c81b6064820152608401610200565b5050505050565b5f6107cd847f0000000000000000000000000000000000000000000000000000000000000000856108ea565b60408051610100810182526001600160a01b0386811682528481166020830190815260648385018181523360608601908152426080870190815260a087018b81525f60c0890181815260e08a01918252995163414bf38960e01b8152895189166004820152965188166024880152935162ffffff166044870152915186169385019390935291516084840152905160a4830152935160c48201529251811660e484015290917f00000000000000000000000000000000000000000000000000000000000000009091169063414bf38990610104016020604051808303815f875af11580156108bd573d5f803e3d5ffd5b505050506040513d601f19601f820116820180604052508101906108e19190610bea565b95945050505050565b604080516001600160a01b038481166024830152604480830185905283518084039091018152606490920183526020820180516001600160e01b031663095ea7b360e01b17905291515f928392908716916109459190610c69565b5f604051808303815f865af19150503d805f811461097e576040519150601f19603f3d011682016040523d82523d5f602084013e610983565b606091505b50915091508180156109ad5750805115806109ad5750808060200190518101906109ad9190610c4a565b61079a5760405162461bcd60e51b8152602060048201526002602482015261534160f01b6044820152606401610200565b80356001600160a01b03811681146109f4575f80fd5b919050565b5f805f8060608587031215610a0c575f80fd5b843567ffffffffffffffff80821115610a23575f80fd5b818701915087601f830112610a36575f80fd5b813581811115610a44575f80fd5b8860208260051b8501011115610a58575f80fd5b602092830196509450508501359150610a73604086016109de565b905092959194509250565b634e487b7160e01b5f52603260045260245ffd5b5f60208284031215610aa2575f80fd5b610aab826109de565b9392505050565b5f60208284031215610ac2575f80fd5b815160ff81168114610aab575f80fd5b634e487b7160e01b5f52601160045260245ffd5b81810381811115610af957610af9610ad2565b92915050565b600181815b80851115610b3957815f1904821115610b1f57610b1f610ad2565b80851615610b2c57918102915b93841c9390800290610b04565b509250929050565b5f82610b4f57506001610af9565b81610b5b57505f610af9565b8160018114610b715760028114610b7b57610b97565b6001915050610af9565b60ff841115610b8c57610b8c610ad2565b50506001821b610af9565b5060208310610133831016604e8410600b8410161715610bba575081810a610af9565b610bc48383610aff565b805f1904821115610bd757610bd7610ad2565b029392505050565b5f610aab8383610b41565b5f60208284031215610bfa575f80fd5b5051919050565b5f82610c1b57634e487b7160e01b5f52601260045260245ffd5b500490565b80820180821115610af957610af9610ad2565b8082028115828204841417610af957610af9610ad2565b5f60208284031215610c5a575f80fd5b81518015158114610aab575f80fd5b5f82515f5b81811015610c885760208186018101518583015201610c6e565b505f92019182525091905056fea264697066735822122019cb1e7909038b9eed4ef73653bdf19b6050648677b1d33171228da730ca168164736f6c63430008180033",
  "linkReferences": {},
  "deployedLinkReferences": {}
}