{
  "_format": "hh-sol-artifact-1",
  "contractName": "GridBuyPrototype",
  "sourceName": "contracts/newswap/GridBuyPrototype.sol",
  "abi": [
    {
      "inputs": [
        {
          "internalType": "address",
          "name": "token0Addr",
          "type": "address"
        },
        {
          "internalType": "address",
          "name": "token1Addr",
          "type": "address"
        },
        {
          "internalType": "uint256",
          "name": "_startPrice",
          "type": "uint256"
        },
        {
          "internalType": "uint256",
          "name": "_endPrice",
          "type": "uint256"
        }
      ],
      "stateMutability": "nonpayable",
      "type": "constructor"
    },
    {
      "inputs": [
        {
          "internalType": "uint256",
          "name": "token1Amount",
          "type": "uint256"
        }
      ],
      "name": "addLiquidity",
      "outputs": [],
      "stateMutability": "nonpayable",
      "type": "function"
    },
    {
      "inputs": [],
      "name": "claimToken0",
      "outputs": [
        {
          "internalType": "uint256",
          "name": "",
          "type": "uint256"
        }
      ],
      "stateMutability": "nonpayable",
      "type": "function"
    },
    {
      "inputs": [],
      "name": "currPrice",
      "outputs": [
        {
          "internalType": "uint256",
          "name": "",
          "type": "uint256"
        }
      ],
      "stateMutability": "view",
      "type": "function"
    },
    {
      "inputs": [],
      "name": "endPrice",
      "outputs": [
        {
          "internalType": "uint256",
          "name": "",
          "type": "uint256"
        }
      ],
      "stateMutability": "view",
      "type": "function"
    },
    {
      "inputs": [],
      "name": "k",
      "outputs": [
        {
          "internalType": "uint256",
          "name": "",
          "type": "uint256"
        }
      ],
      "stateMutability": "view",
      "type": "function"
    },
    {
      "inputs": [
        {
          "internalType": "address",
          "name": "",
          "type": "address"
        }
      ],
      "name": "liquidities",
      "outputs": [
        {
          "internalType": "uint256",
          "name": "value",
          "type": "uint256"
        },
        {
          "internalType": "uint256",
          "name": "borrowToken0Amount",
          "type": "uint256"
        }
      ],
      "stateMutability": "view",
      "type": "function"
    },
    {
      "inputs": [],
      "name": "removeLiquidity",
      "outputs": [
        {
          "internalType": "uint256",
          "name": "token0Amount",
          "type": "uint256"
        },
        {
          "internalType": "uint256",
          "name": "token1Amount",
          "type": "uint256"
        }
      ],
      "stateMutability": "nonpayable",
      "type": "function"
    },
    {
      "inputs": [],
      "name": "startPrice",
      "outputs": [
        {
          "internalType": "uint256",
          "name": "",
          "type": "uint256"
        }
      ],
      "stateMutability": "view",
      "type": "function"
    },
    {
      "inputs": [
        {
          "internalType": "uint256",
          "name": "token0AmountIn",
          "type": "uint256"
        }
      ],
      "name": "swap",
      "outputs": [
        {
          "internalType": "uint256",
          "name": "token1AmountOut",
          "type": "uint256"
        }
      ],
      "stateMutability": "nonpayable",
      "type": "function"
    },
    {
      "inputs": [],
      "name": "token0",
      "outputs": [
        {
          "internalType": "contract IERC20",
          "name": "",
          "type": "address"
        }
      ],
      "stateMutability": "view",
      "type": "function"
    },
    {
      "inputs": [],
      "name": "token0Balance",
      "outputs": [
        {
          "internalType": "uint256",
          "name": "",
          "type": "uint256"
        }
      ],
      "stateMutability": "view",
      "type": "function"
    },
    {
      "inputs": [],
      "name": "token1",
      "outputs": [
        {
          "internalType": "contract IERC20",
          "name": "",
          "type": "address"
        }
      ],
      "stateMutability": "view",
      "type": "function"
    },
    {
      "inputs": [],
      "name": "token1Balance",
      "outputs": [
        {
          "internalType": "uint256",
          "name": "",
          "type": "uint256"
        }
      ],
      "stateMutability": "view",
      "type": "function"
    },
    {
      "inputs": [],
      "name": "vToken0Balance",
      "outputs": [
        {
          "internalType": "uint256",
          "name": "",
          "type": "uint256"
        }
      ],
      "stateMutability": "view",
      "type": "function"
    }
  ],
  "bytecode": "0x610100604052348015610010575f80fd5b50604051610b58380380610b5883398101604081905261002f9161006d565b6001600160a01b039384166080529190921660a05260c09190915260e0526100ad565b80516001600160a01b0381168114610068575f80fd5b919050565b5f805f8060808587031215610080575f80fd5b61008985610052565b935061009760208601610052565b6040860151606090960151949790965092505050565b60805160a05160c05160e051610a476101115f395f81816101d6015261029801525f818161022d015261025e01525f81816102060152818161038f01528181610649015261080101525f8181610109015281816105ba01526107720152610a475ff3fe608060405234801561000f575f80fd5b50600436106100e5575f3560e01c80636e6c904111610088578063b868723e11610063578063b868723e146101d1578063b9ffa6a8146101f8578063d21220a714610201578063f1a9af8914610228575f80fd5b80636e6c9041146101ad57806394b918de146101b5578063b4f40c61146101c8575f80fd5b806351c6590a116100c357806351c6590a1461014c57806353d2d99e1461016157806363fcefda1461019c57806367b9a286146101a5575f80fd5b80630dd90303146100e95780630dfe16811461010457806329f0f67014610143575b5f80fd5b6100f15f5481565b6040519081526020015b60405180910390f35b61012b7f000000000000000000000000000000000000000000000000000000000000000081565b6040516001600160a01b0390911681526020016100fb565b6100f160025481565b61015f61015a3660046108df565b61024f565b005b61018761016f3660046108f6565b60056020525f90815260409020805460019091015482565b604080519283526020830191909152016100fb565b6100f160035481565b610187610408565b6100f16106c1565b6100f16101c33660046108df565b6106df565b6100f160015481565b6100f17f000000000000000000000000000000000000000000000000000000000000000081565b6100f160045481565b61012b7f000000000000000000000000000000000000000000000000000000000000000081565b6100f17f000000000000000000000000000000000000000000000000000000000000000081565b5f6002545f0361028a576102837f000000000000000000000000000000000000000000000000000000000000000083610937565b90506102da565b6004545f036102bd576102837f000000000000000000000000000000000000000000000000000000000000000083610937565b6004546002546102cd9084610956565b6102d79190610937565b90505b8160045f8282546102eb9190610973565b925050819055508060025f8282546103039190610973565b90915550506002546004545f9161031991610956565b335f908152600560205260409020600154919250906103389083610986565b815f015f8282546103499190610973565b9250508190555082816001015f8282546103639190610973565b909155505060018290556040516323b872dd60e01b8152336004820152306024820152604481018590527f00000000000000000000000000000000000000000000000000000000000000006001600160a01b0316906323b872dd906064016020604051808303815f875af11580156103dd573d5f803e3d5ffd5b505050506040513d601f19601f820116820180604052508101906104019190610999565b5050505050565b335f90815260056020526040812060015481546002548493929161042b91610956565b6104359190610937565b9250610468604051806040016040528060098152602001686c697175696469747960b81b815250825f0154600154610873565b61049b6040518060400160405280600c81526020016b1d1bdad95b8c105b5bdd5b9d60a21b815250848360010154610873565b80600101548310156105055760405162461bcd60e51b815260206004820152602960248201527f72656d6f76654c69717569646974793a20626f72726f77546f6b656e30416d6f6044820152683ab73a1032b93937b960b91b606482015260840160405180910390fd5b60018101546105149084610986565b9250600154815f015460045461052a9190610956565b6105349190610937565b5f80835560018301819055600380549294508592909190610556908490610986565b925050819055508160045f82825461056e9190610986565b925050819055508260025f8282546105869190610986565b909155505060025460045461059b9190610956565b60015560405163a9059cbb60e01b8152336004820152602481018490527f00000000000000000000000000000000000000000000000000000000000000006001600160a01b03169063a9059cbb906044016020604051808303815f875af1158015610608573d5f803e3d5ffd5b505050506040513d601f19601f8201168201806040525081019061062c9190610999565b5060405163a9059cbb60e01b8152336004820152602481018390527f00000000000000000000000000000000000000000000000000000000000000006001600160a01b03169063a9059cbb906044016020604051808303815f875af1158015610697573d5f803e3d5ffd5b505050506040513d601f19601f820116820180604052508101906106bb9190610999565b50509091565b5f805f6106cc610408565b915091506106d98161024f565b50919050565b5f816002546106ee9190610973565b6001546106fb9190610937565b6004546107089190610986565b90508160035f82825461071b9190610973565b925050819055508060045f8282546107339190610986565b925050819055508160025f82825461074b9190610973565b90915550506040516323b872dd60e01b8152336004820152306024820152604481018390527f00000000000000000000000000000000000000000000000000000000000000006001600160a01b0316906323b872dd906064016020604051808303815f875af11580156107c0573d5f803e3d5ffd5b505050506040513d601f19601f820116820180604052508101906107e49190610999565b5060405163a9059cbb60e01b8152336004820152602481018290527f00000000000000000000000000000000000000000000000000000000000000006001600160a01b03169063a9059cbb906044016020604051808303815f875af115801561084f573d5f803e3d5ffd5b505050506040513d601f19601f820116820180604052508101906106d99190610999565b6108ba83838360405160240161088b939291906109b8565b60408051601f198184030181529190526020810180516001600160e01b031663ca47c4eb60e01b1790526108bf565b505050565b80516a636f6e736f6c652e6c6f67602083015f808483855afa5050505050565b5f602082840312156108ef575f80fd5b5035919050565b5f60208284031215610906575f80fd5b81356001600160a01b038116811461091c575f80fd5b9392505050565b634e487b7160e01b5f52601160045260245ffd5b5f8261095157634e487b7160e01b5f52601260045260245ffd5b500490565b808202811582820484141761096d5761096d610923565b92915050565b8082018082111561096d5761096d610923565b8181038181111561096d5761096d610923565b5f602082840312156109a9575f80fd5b8151801515811461091c575f80fd5b606081525f84518060608401525f5b818110156109e457602081880181015160808684010152016109c7565b505f608082850101526080601f19601f83011684010191505083602083015282604083015294935050505056fea26469706673582212204c9ca5339ecf78e8f27d36638b04d76d943665be24065cd651db70ccc1c9fb5864736f6c63430008180033",
  "linkReferences": {},
  "deployedLinkReferences": {}
}