{
  "_format": "hh-sol-artifact-1",
  "contractName": "LBPT",
  "sourceName": "contracts/erc314/LBP20.sol",
  "abi": [
    {
      "inputs": [],
      "stateMutability": "nonpayable",
      "type": "constructor"
    },
    {
      "anonymous": false,
      "inputs": [
        {
          "indexed": true,
          "internalType": "address",
          "name": "sender",
          "type": "address"
        },
        {
          "indexed": false,
          "internalType": "uint256",
          "name": "ethAmount",
          "type": "uint256"
        },
        {
          "indexed": false,
          "internalType": "uint256",
          "name": "tokenAmount",
          "type": "uint256"
        }
      ],
      "name": "AddLiquidity",
      "type": "event"
    },
    {
      "anonymous": false,
      "inputs": [
        {
          "indexed": true,
          "internalType": "address",
          "name": "sender",
          "type": "address"
        },
        {
          "indexed": false,
          "internalType": "uint256",
          "name": "amount0In",
          "type": "uint256"
        },
        {
          "indexed": false,
          "internalType": "uint256",
          "name": "amount1In",
          "type": "uint256"
        },
        {
          "indexed": false,
          "internalType": "uint256",
          "name": "amount0Out",
          "type": "uint256"
        },
        {
          "indexed": false,
          "internalType": "uint256",
          "name": "amount1Out",
          "type": "uint256"
        }
      ],
      "name": "Swap",
      "type": "event"
    },
    {
      "anonymous": false,
      "inputs": [
        {
          "indexed": true,
          "internalType": "address",
          "name": "from",
          "type": "address"
        },
        {
          "indexed": true,
          "internalType": "address",
          "name": "to",
          "type": "address"
        },
        {
          "indexed": false,
          "internalType": "uint256",
          "name": "amount",
          "type": "uint256"
        }
      ],
      "name": "Transfer",
      "type": "event"
    },
    {
      "inputs": [
        {
          "internalType": "uint256",
          "name": "_totalAmount",
          "type": "uint256"
        },
        {
          "internalType": "uint256",
          "name": "_startAmount",
          "type": "uint256"
        },
        {
          "internalType": "uint256",
          "name": "_timeTotal",
          "type": "uint256"
        }
      ],
      "name": "addLiquidity",
      "outputs": [],
      "stateMutability": "payable",
      "type": "function"
    },
    {
      "inputs": [
        {
          "internalType": "address",
          "name": "account",
          "type": "address"
        }
      ],
      "name": "balanceOf",
      "outputs": [
        {
          "internalType": "uint256",
          "name": "",
          "type": "uint256"
        }
      ],
      "stateMutability": "view",
      "type": "function"
    },
    {
      "inputs": [],
      "name": "currTime",
      "outputs": [
        {
          "internalType": "uint256",
          "name": "",
          "type": "uint256"
        }
      ],
      "stateMutability": "view",
      "type": "function"
    },
    {
      "inputs": [],
      "name": "decimals",
      "outputs": [
        {
          "internalType": "uint8",
          "name": "",
          "type": "uint8"
        }
      ],
      "stateMutability": "view",
      "type": "function"
    },
    {
      "inputs": [
        {
          "internalType": "uint256",
          "name": "value",
          "type": "uint256"
        },
        {
          "internalType": "bool",
          "name": "_buy",
          "type": "bool"
        }
      ],
      "name": "getAmountOut",
      "outputs": [
        {
          "internalType": "uint256",
          "name": "",
          "type": "uint256"
        }
      ],
      "stateMutability": "view",
      "type": "function"
    },
    {
      "inputs": [],
      "name": "getReserves",
      "outputs": [
        {
          "internalType": "uint256",
          "name": "",
          "type": "uint256"
        },
        {
          "internalType": "uint256",
          "name": "",
          "type": "uint256"
        }
      ],
      "stateMutability": "view",
      "type": "function"
    },
    {
      "inputs": [],
      "name": "name",
      "outputs": [
        {
          "internalType": "string",
          "name": "",
          "type": "string"
        }
      ],
      "stateMutability": "view",
      "type": "function"
    },
    {
      "inputs": [],
      "name": "pendingAmount",
      "outputs": [
        {
          "internalType": "uint256",
          "name": "",
          "type": "uint256"
        }
      ],
      "stateMutability": "view",
      "type": "function"
    },
    {
      "inputs": [],
      "name": "startAmount",
      "outputs": [
        {
          "internalType": "uint256",
          "name": "",
          "type": "uint256"
        }
      ],
      "stateMutability": "view",
      "type": "function"
    },
    {
      "inputs": [],
      "name": "startTime",
      "outputs": [
        {
          "internalType": "uint256",
          "name": "",
          "type": "uint256"
        }
      ],
      "stateMutability": "view",
      "type": "function"
    },
    {
      "inputs": [],
      "name": "symbol",
      "outputs": [
        {
          "internalType": "string",
          "name": "",
          "type": "string"
        }
      ],
      "stateMutability": "view",
      "type": "function"
    },
    {
      "inputs": [
        {
          "internalType": "uint256",
          "name": "value",
          "type": "uint256"
        }
      ],
      "name": "timeElapse",
      "outputs": [],
      "stateMutability": "nonpayable",
      "type": "function"
    },
    {
      "inputs": [],
      "name": "timeTotal",
      "outputs": [
        {
          "internalType": "uint256",
          "name": "",
          "type": "uint256"
        }
      ],
      "stateMutability": "view",
      "type": "function"
    },
    {
      "inputs": [],
      "name": "totalAmount",
      "outputs": [
        {
          "internalType": "uint256",
          "name": "",
          "type": "uint256"
        }
      ],
      "stateMutability": "view",
      "type": "function"
    },
    {
      "inputs": [],
      "name": "totalSupply",
      "outputs": [
        {
          "internalType": "uint256",
          "name": "",
          "type": "uint256"
        }
      ],
      "stateMutability": "view",
      "type": "function"
    },
    {
      "inputs": [
        {
          "internalType": "address",
          "name": "to",
          "type": "address"
        },
        {
          "internalType": "uint256",
          "name": "value",
          "type": "uint256"
        }
      ],
      "name": "transfer",
      "outputs": [
        {
          "internalType": "bool",
          "name": "",
          "type": "bool"
        }
      ],
      "stateMutability": "nonpayable",
      "type": "function"
    },
    {
      "stateMutability": "payable",
      "type": "receive"
    }
  ],
  "bytecode": "0x60806040526509184e72a0005f5534801562000019575f80fd5b5060405180606001604052806022815260200162000cb7602291396040805180820190915260048152631310941560e21b602082015260016200005d838262000198565b5060026200006c828262000198565b5062000080335f546200008860201b60201c565b50506200028a565b6001600160a01b0382165f9081526003602052604081208054839290620000b190849062000264565b90915550506040518181526001600160a01b038316905f907fddf252ad1be2c89b69c2b068fc378daa952ba7f163c4a11628f55a4df523b3ef9060200160405180910390a35050565b634e487b7160e01b5f52604160045260245ffd5b600181811c908216806200012357607f821691505b6020821081036200014257634e487b7160e01b5f52602260045260245ffd5b50919050565b601f8211156200019357805f5260205f20601f840160051c810160208510156200016f5750805b601f840160051c820191505b8181101562000190575f81556001016200017b565b50505b505050565b81516001600160401b03811115620001b457620001b4620000fa565b620001cc81620001c584546200010e565b8462000148565b602080601f83116001811462000202575f8415620001ea5750858301515b5f19600386901b1c1916600185901b1785556200025c565b5f85815260208120601f198616915b82811015620002325788860151825594840194600190910190840162000211565b50858210156200025057878501515f19600388901b60f8161c191681555b505060018460011b0185555b505050505050565b808201808211156200028457634e487b7160e01b5f52601160045260245ffd5b92915050565b610a1f80620002985f395ff3fe6080604052600436106100f2575f3560e01c8063422f10431161008757806395d89b411161005757806395d89b4114610263578063a9059cbb14610277578063ba1066ed146102a6578063bbc36b05146102bb575f80fd5b8063422f1043146101f2578063688f3f1f1461020557806370a082311461021a57806378e979251461024e575f80fd5b806318160ddd116100c257806318160ddd1461019a5780631a39d8ef146101ad5780631a6af7b7146101c2578063313ce567146101d7575f80fd5b806306fdde03146101055780630902f1ac1461012f5780630f7678721461015857806311106ee21461017b575f80fd5b36610101576100ff6102da565b005b5f80fd5b348015610110575f80fd5b50610119610360565b6040516101269190610820565b60405180910390f35b34801561013a575f80fd5b506101436103f0565b60408051928352602083019190915201610126565b348015610163575f80fd5b5061016d60065481565b604051908152602001610126565b348015610186575f80fd5b5061016d61019536600461086c565b610453565b3480156101a5575f80fd5b505f5461016d565b3480156101b8575f80fd5b5061016d60075481565b3480156101cd575f80fd5b5061016d60095481565b3480156101e2575f80fd5b5060405160098152602001610126565b6100ff61020036600461089e565b6104c0565b348015610210575f80fd5b5061016d60055481565b348015610225575f80fd5b5061016d6102343660046108e2565b6001600160a01b03165f9081526003602052604090205490565b348015610259575f80fd5b5061016d60045481565b34801561026e575f80fd5b506101196105d0565b348015610282575f80fd5b50610296610291366004610902565b6105df565b6040519015158152602001610126565b3480156102b1575f80fd5b5061016d60085481565b3480156102c6575f80fd5b506100ff6102d536600461092a565b610612565b345f806102e56103f0565b90925090505f826102f68386610955565b610300919061096c565b905061030d30338361062b565b604080518581525f60208201819052918101919091526060810182905233907f49926bbebe8474393f434dfa4f78694c0923efa07d19f2284518bfabd06eb737906080015b60405180910390a250505050565b60606001805461036f9061098b565b80601f016020809104026020016040519081016040528092919081815260200182805461039b9061098b565b80156103e65780601f106103bd576101008083540402835291602001916103e6565b820191905f5260205f20905b8154815290600101906020018083116103c957829003601f168201915b5050505050905090565b5f805f60055460045460095461040691906109c3565b6008546104139190610955565b61041d919061096c565b600854305f9081526003602052604081205492935091839161043e916109c3565b61044891906109d6565b479590945092505050565b5f811561049557825f806104656103f0565b90925090505f61047584846109d6565b61047f8386610955565b610489919061096c565b94506104ba9350505050565b825f806104a06103f0565b90925090505f6104b084836109d6565b61047f8486610955565b92915050565b5f34116105025760405162461bcd60e51b815260206004820152600b60248201526a139bc8115512081cd95b9d60aa1b60448201526064015b60405180910390fd5b600454156105525760405162461bcd60e51b815260206004820152601e60248201527f6164644c69717569646974792063616e2072756e206f6e6c79206f6e6365000060448201526064016104f9565b42600481905560095560078390556006829055600581905561057482846109c3565b600881905550610587333060075461062b565b60075460405133917f06239653922ac7bea6aa2b19dc486b9361821d37712eb796adfd38d81de278ca916105c391348252602082015260400190565b60405180910390a2505050565b60606002805461036f9061098b565b5f306001600160a01b038416036105fe576105f9826106dc565b610609565b61060933848461062b565b50600192915050565b8060095f82825461062391906109d6565b909155505050565b6001600160a01b0383165f9081526003602052604090205461064e9082906109c3565b6001600160a01b038085165f9081526003602052604080822093909355908416815290812080548392906106839084906109d6565b92505081905550816001600160a01b0316836001600160a01b03167fddf252ad1be2c89b69c2b068fc378daa952ba7f163c4a11628f55a4df523b3ef836040516106cf91815260200190565b60405180910390a3505050565b5f806106e66103f0565b90925090505f6106f684836109d6565b6107008486610955565b61070a919061096c565b90505f81116107515760405162461bcd60e51b815260206004820152601360248201527253656c6c20616d6f756e7420746f6f206c6f7760681b60448201526064016104f9565b808310156107a15760405162461bcd60e51b815260206004820152601c60248201527f496e73756666696369656e742045544820696e2072657365727665730000000060448201526064016104f9565b6107ac33308661062b565b604051339082156108fc029083905f818181858888f193505050501580156107d6573d5f803e3d5ffd5b50604080515f80825260208201879052918101839052606081019190915233907f49926bbebe8474393f434dfa4f78694c0923efa07d19f2284518bfabd06eb73790608001610352565b5f602080835283518060208501525f5b8181101561084c57858101830151858201604001528201610830565b505f604082860101526040601f19601f8301168501019250505092915050565b5f806040838503121561087d575f80fd5b8235915060208301358015158114610893575f80fd5b809150509250929050565b5f805f606084860312156108b0575f80fd5b505081359360208301359350604090920135919050565b80356001600160a01b03811681146108dd575f80fd5b919050565b5f602082840312156108f2575f80fd5b6108fb826108c7565b9392505050565b5f8060408385031215610913575f80fd5b61091c836108c7565b946020939093013593505050565b5f6020828403121561093a575f80fd5b5035919050565b634e487b7160e01b5f52601160045260245ffd5b80820281158282048414176104ba576104ba610941565b5f8261098657634e487b7160e01b5f52601260045260245ffd5b500490565b600181811c9082168061099f57607f821691505b6020821081036109bd57634e487b7160e01b5f52602260045260245ffd5b50919050565b818103818111156104ba576104ba610941565b808201808211156104ba576104ba61094156fea26469706673582212208ece667f26b615d4fc8a239063fbcd6e46d5e563924b2448f9d7038e6591968c64736f6c634300081800334c697175696469747920426f6f74737472617070696e6720506f6f6c20546f6b656e",
  "linkReferences": {},
  "deployedLinkReferences": {}
}