{
  "_format": "hh-sol-artifact-1",
  "contractName": "Easy_414",
  "sourceName": "contracts/erc314/ERC414.sol",
  "abi": [
    {
      "inputs": [],
      "stateMutability": "nonpayable",
      "type": "constructor"
    },
    {
      "anonymous": false,
      "inputs": [
        {
          "indexed": true,
          "internalType": "address",
          "name": "sender",
          "type": "address"
        },
        {
          "indexed": false,
          "internalType": "uint256",
          "name": "ethAmount",
          "type": "uint256"
        },
        {
          "indexed": false,
          "internalType": "uint256",
          "name": "tokenAmount",
          "type": "uint256"
        }
      ],
      "name": "AddLiquidity",
      "type": "event"
    },
    {
      "anonymous": false,
      "inputs": [
        {
          "indexed": true,
          "internalType": "address",
          "name": "sender",
          "type": "address"
        },
        {
          "indexed": false,
          "internalType": "uint256",
          "name": "amount0In",
          "type": "uint256"
        },
        {
          "indexed": false,
          "internalType": "uint256",
          "name": "amount1In",
          "type": "uint256"
        },
        {
          "indexed": false,
          "internalType": "uint256",
          "name": "amount0Out",
          "type": "uint256"
        },
        {
          "indexed": false,
          "internalType": "uint256",
          "name": "amount1Out",
          "type": "uint256"
        }
      ],
      "name": "Swap",
      "type": "event"
    },
    {
      "anonymous": false,
      "inputs": [
        {
          "indexed": true,
          "internalType": "address",
          "name": "from",
          "type": "address"
        },
        {
          "indexed": true,
          "internalType": "address",
          "name": "to",
          "type": "address"
        },
        {
          "indexed": false,
          "internalType": "uint256",
          "name": "amount",
          "type": "uint256"
        }
      ],
      "name": "Transfer",
      "type": "event"
    },
    {
      "inputs": [
        {
          "internalType": "address",
          "name": "account",
          "type": "address"
        }
      ],
      "name": "balanceOf",
      "outputs": [
        {
          "internalType": "uint256",
          "name": "",
          "type": "uint256"
        }
      ],
      "stateMutability": "view",
      "type": "function"
    },
    {
      "inputs": [
        {
          "internalType": "uint256",
          "name": "tokenAmount",
          "type": "uint256"
        }
      ],
      "name": "burn",
      "outputs": [],
      "stateMutability": "nonpayable",
      "type": "function"
    },
    {
      "inputs": [],
      "name": "decimals",
      "outputs": [
        {
          "internalType": "uint8",
          "name": "",
          "type": "uint8"
        }
      ],
      "stateMutability": "view",
      "type": "function"
    },
    {
      "inputs": [],
      "name": "dev",
      "outputs": [
        {
          "internalType": "address",
          "name": "",
          "type": "address"
        }
      ],
      "stateMutability": "view",
      "type": "function"
    },
    {
      "inputs": [
        {
          "internalType": "uint256",
          "name": "value",
          "type": "uint256"
        },
        {
          "internalType": "bool",
          "name": "_buy",
          "type": "bool"
        }
      ],
      "name": "getAmountOut",
      "outputs": [
        {
          "internalType": "uint256",
          "name": "",
          "type": "uint256"
        }
      ],
      "stateMutability": "view",
      "type": "function"
    },
    {
      "inputs": [],
      "name": "getReserves",
      "outputs": [
        {
          "internalType": "uint256",
          "name": "",
          "type": "uint256"
        },
        {
          "internalType": "uint256",
          "name": "",
          "type": "uint256"
        }
      ],
      "stateMutability": "view",
      "type": "function"
    },
    {
      "inputs": [],
      "name": "isPresale",
      "outputs": [
        {
          "internalType": "bool",
          "name": "",
          "type": "bool"
        }
      ],
      "stateMutability": "view",
      "type": "function"
    },
    {
      "inputs": [],
      "name": "minPoolEthNeed",
      "outputs": [
        {
          "internalType": "uint256",
          "name": "",
          "type": "uint256"
        }
      ],
      "stateMutability": "view",
      "type": "function"
    },
    {
      "inputs": [],
      "name": "name",
      "outputs": [
        {
          "internalType": "string",
          "name": "",
          "type": "string"
        }
      ],
      "stateMutability": "view",
      "type": "function"
    },
    {
      "inputs": [],
      "name": "presaleNumPerETH",
      "outputs": [
        {
          "internalType": "uint256",
          "name": "",
          "type": "uint256"
        }
      ],
      "stateMutability": "view",
      "type": "function"
    },
    {
      "inputs": [],
      "name": "symbol",
      "outputs": [
        {
          "internalType": "string",
          "name": "",
          "type": "string"
        }
      ],
      "stateMutability": "view",
      "type": "function"
    },
    {
      "inputs": [],
      "name": "totalSupply",
      "outputs": [
        {
          "internalType": "uint256",
          "name": "",
          "type": "uint256"
        }
      ],
      "stateMutability": "view",
      "type": "function"
    },
    {
      "inputs": [
        {
          "internalType": "address",
          "name": "to",
          "type": "address"
        },
        {
          "internalType": "uint256",
          "name": "value",
          "type": "uint256"
        }
      ],
      "name": "transfer",
      "outputs": [
        {
          "internalType": "bool",
          "name": "",
          "type": "bool"
        }
      ],
      "stateMutability": "nonpayable",
      "type": "function"
    },
    {
      "stateMutability": "payable",
      "type": "receive"
    }
  ],
  "bytecode": "0x608060405268056bc75e2d631000005f556002805460ff1916600117905534801562000029575f80fd5b506040518060400160405280600881526020016711585cde480d0c4d60c21b815250604051806040016040528060048152602001634541535960e01b81525081600390816200007991906200012f565b5060046200008882826200012f565b505050620001fb565b634e487b7160e01b5f52604160045260245ffd5b600181811c90821680620000ba57607f821691505b602082108103620000d957634e487b7160e01b5f52602260045260245ffd5b50919050565b601f8211156200012a57805f5260205f20601f840160051c81016020851015620001065750805b601f840160051c820191505b8181101562000127575f815560010162000112565b50505b505050565b81516001600160401b038111156200014b576200014b62000091565b62000163816200015c8454620000a5565b84620000df565b602080601f83116001811462000199575f8415620001815750858301515b5f19600386901b1c1916600185901b178555620001f3565b5f85815260208120601f198616915b82811015620001c957888601518255948401946001909101908401620001a8565b5085821015620001e757878501515f19600388901b60f8161c191681555b505060018460011b0185555b505050505050565b610cf580620002095f395ff3fe6080604052600436106100c2575f3560e01c806361899cad1161007c57806395364a841161005757806395364a84146102d657806395d89b41146102ff578063a9059cbb14610313578063cc3ee44d14610332575f80fd5b806361899cad1461024f57806370a082311461026357806391cca3db14610297575f80fd5b806306fdde03146101735780630902f1ac1461019d57806311106ee2146101d457806318160ddd14610201578063313ce5671461021557806342966c6814610230575f80fd5b3661016f5760025460ff1615610167575f54471015610153575f670de0b6b3a76400006100f6660178a8b731220034610b13565b6101009190610b2a565b905061010c338261034c565b610116308261034c565b604080513481526020810183905233917f06239653922ac7bea6aa2b19dc486b9361821d37712eb796adfd38d81de278ca910160405180910390a2005b6002805460ff191690556101656103a9565b005b6101656103a9565b5f80fd5b34801561017e575f80fd5b5061018761042b565b6040516101949190610b49565b60405180910390f35b3480156101a8575f80fd5b506101bf305f908152600560205260409020544791565b60408051928352602083019190915201610194565b3480156101df575f80fd5b506101f36101ee366004610b95565b6104bb565b604051908152602001610194565b34801561020c575f80fd5b506001546101f3565b348015610220575f80fd5b5060405160098152602001610194565b34801561023b575f80fd5b5061016561024a366004610bc7565b61058b565b34801561025a575f80fd5b506101f35f5481565b34801561026e575f80fd5b506101f361027d366004610bf9565b6001600160a01b03165f9081526005602052604090205490565b3480156102a2575f80fd5b506102be7339e311102765e7b2576cd1000b952808e9951eac81565b6040516001600160a01b039091168152602001610194565b3480156102e1575f80fd5b506002546102ef9060ff1681565b6040519015158152602001610194565b34801561030a575f80fd5b50610187610738565b34801561031e575f80fd5b506102ef61032d366004610c19565b610747565b34801561033d575f80fd5b506101f3660178a8b731220081565b6001600160a01b0382165f9081526005602052604081208054839290610373908490610c41565b90915550506040518181526001600160a01b038316905f905f80516020610ca08339815191529060200160405180910390a35050565b305f9081526005602052604081205434919047906103c79084610b13565b6103d19190610b2a565b90506103de30338361077a565b604080518381525f602082018190528183015260608101839052905133917f49926bbebe8474393f434dfa4f78694c0923efa07d19f2284518bfabd06eb737919081900360800190a25050565b60606003805461043a90610c54565b80601f016020809104026020016040519081016040528092919081815260200182805461046690610c54565b80156104b15780601f10610488576101008083540402835291602001916104b1565b820191905f5260205f20905b81548152906001019060200180831161049457829003601f168201915b5050505050905090565b6002545f9060ff16156105005781156104f957670de0b6b3a76400006104e8660178a8b731220085610b13565b6104f29190610b2a565b9050610585565b505f610585565b5f80610518305f908152600560205260409020544791565b9150915083156105495761052c8583610c41565b6105368287610b13565b6105409190610b2a565b92505050610585565b5f6105548683610c41565b61055e8488610b13565b6105689190610b2a565b9050610575601482610b2a565b61057f9082610c8c565b93505050505b92915050565b60025460ff166105e25760405162461bcd60e51b815260206004820152601860248201527f77697468647261773a206973206e6f742070726573616c65000000000000000060448201526064015b60405180910390fd5b335f908152600560205260409020548111156106535760405162461bcd60e51b815260206004820152602a60248201527f77697468647261773a20796f757220546f6b656e2062616c616e6365206973206044820152690dcdee840cadcdeeaced60b31b60648201526084016105d9565b335f9081526005602052604081208054839290610671908490610c8c565b90915550506040518181525f9033905f80516020610ca08339815191529060200160405180910390a3305f90815260056020526040812080548392906106b8908490610c8c565b90915550506040518181525f9030905f80516020610ca08339815191529060200160405180910390a35f660178a8b73122006106fc83670de0b6b3a7640000610b13565b6107069190610b2a565b604051909150339082156108fc029083905f818181858888f19350505050158015610733573d5f803e3d5ffd5b505050565b60606004805461043a90610c54565b5f306001600160a01b03841603610766576107618261095c565b610771565b61077133848461077a565b50600192915050565b335f908152600660205260409020544363ffffffff909116036107f95760405162461bcd60e51b815260206004820152603160248201527f596f752063616e2774206d616b652074776f207472616e73616374696f6e7320604482015270696e207468652073616d6520626c6f636b60781b60648201526084016105d9565b335f908152600660209081526040808320805463ffffffff19164363ffffffff161790556001600160a01b0386168352600590915290205481111561088f5760405162461bcd60e51b815260206004820152602660248201527f45524332303a207472616e7366657220616d6f756e7420657863656564732062604482015265616c616e636560d01b60648201526084016105d9565b6001600160a01b0383165f908152600560205260409020546108b2908290610c8c565b6001600160a01b038085165f9081526005602052604090209190915582166108f0578060015f8282546108e59190610c8c565b9091555061091d9050565b6001600160a01b0382165f9081526005602052604081208054839290610917908490610c41565b90915550505b816001600160a01b0316836001600160a01b03165f80516020610ca08339815191528360405161094f91815260200190565b60405180910390a3505050565b305f90815260056020526040812054610976908390610c41565b6109804784610b13565b61098a9190610b2a565b90505f81116109d15760405162461bcd60e51b815260206004820152601360248201527253656c6c20616d6f756e7420746f6f206c6f7760681b60448201526064016105d9565b80471015610a215760405162461bcd60e51b815260206004820152601c60248201527f496e73756666696369656e742045544820696e2072657365727665730000000060448201526064016105d9565b5f610a2d606483610b2a565b9050610a398183610c8c565b6040519092507339e311102765e7b2576cd1000b952808e9951eac9082156108fc029083905f818181858888f19350505050158015610a7a573d5f803e3d5ffd5b50610a8633308561077a565b604051339083156108fc029084905f818181858888f19350505050158015610ab0573d5f803e3d5ffd5b50604080515f808252602082018690528183018590526060820152905133917f49926bbebe8474393f434dfa4f78694c0923efa07d19f2284518bfabd06eb737919081900360800190a2505050565b634e487b7160e01b5f52601160045260245ffd5b808202811582820484141761058557610585610aff565b5f82610b4457634e487b7160e01b5f52601260045260245ffd5b500490565b5f602080835283518060208501525f5b81811015610b7557858101830151858201604001528201610b59565b505f604082860101526040601f19601f8301168501019250505092915050565b5f8060408385031215610ba6575f80fd5b8235915060208301358015158114610bbc575f80fd5b809150509250929050565b5f60208284031215610bd7575f80fd5b5035919050565b80356001600160a01b0381168114610bf4575f80fd5b919050565b5f60208284031215610c09575f80fd5b610c1282610bde565b9392505050565b5f8060408385031215610c2a575f80fd5b610c3383610bde565b946020939093013593505050565b8082018082111561058557610585610aff565b600181811c90821680610c6857607f821691505b602082108103610c8657634e487b7160e01b5f52602260045260245ffd5b50919050565b8181038181111561058557610585610aff56feddf252ad1be2c89b69c2b068fc378daa952ba7f163c4a11628f55a4df523b3efa2646970667358221220d85a7234d6b95932e4caab7fdbdf4774a334b2939bbb3940f6e3a846494c8d7864736f6c63430008180033",
  "linkReferences": {},
  "deployedLinkReferences": {}
}