{
  "_format": "hh-sol-artifact-1",
  "contractName": "SendPort",
  "sourceName": "contracts/innovation/cross/SendPort.sol",
  "abi": [
    {
      "inputs": [],
      "stateMutability": "nonpayable",
      "type": "constructor"
    },
    {
      "anonymous": false,
      "inputs": [
        {
          "indexed": true,
          "internalType": "uint256",
          "name": "packageIndex",
          "type": "uint256"
        },
        {
          "indexed": false,
          "internalType": "address",
          "name": "sender",
          "type": "address"
        },
        {
          "indexed": false,
          "internalType": "bytes32",
          "name": "msgHash",
          "type": "bytes32"
        },
        {
          "indexed": false,
          "internalType": "uint256",
          "name": "toChainId",
          "type": "uint256"
        },
        {
          "indexed": false,
          "internalType": "bytes32",
          "name": "leaf",
          "type": "bytes32"
        }
      ],
      "name": "MsgHashAdded",
      "type": "event"
    },
    {
      "anonymous": false,
      "inputs": [
        {
          "indexed": true,
          "internalType": "uint256",
          "name": "packageIndex",
          "type": "uint256"
        },
        {
          "indexed": true,
          "internalType": "uint256",
          "name": "packTime",
          "type": "uint256"
        },
        {
          "indexed": false,
          "internalType": "bytes32",
          "name": "root",
          "type": "bytes32"
        }
      ],
      "name": "Packed",
      "type": "event"
    },
    {
      "inputs": [],
      "name": "MAX_PACKAGE_MESSAGES",
      "outputs": [
        {
          "internalType": "uint256",
          "name": "",
          "type": "uint256"
        }
      ],
      "stateMutability": "view",
      "type": "function"
    },
    {
      "inputs": [],
      "name": "PACK_INTERVAL",
      "outputs": [
        {
          "internalType": "uint256",
          "name": "",
          "type": "uint256"
        }
      ],
      "stateMutability": "view",
      "type": "function"
    },
    {
      "inputs": [
        {
          "internalType": "bytes32",
          "name": "msgHash",
          "type": "bytes32"
        },
        {
          "internalType": "uint256",
          "name": "toChainId",
          "type": "uint256"
        }
      ],
      "name": "addMsgHash",
      "outputs": [],
      "stateMutability": "nonpayable",
      "type": "function"
    },
    {
      "inputs": [
        {
          "internalType": "uint256",
          "name": "packageIndex",
          "type": "uint256"
        }
      ],
      "name": "getPackage",
      "outputs": [
        {
          "components": [
            {
              "internalType": "uint256",
              "name": "packageIndex",
              "type": "uint256"
            },
            {
              "internalType": "bytes32",
              "name": "root",
              "type": "bytes32"
            },
            {
              "internalType": "bytes32[]",
              "name": "leaves",
              "type": "bytes32[]"
            },
            {
              "internalType": "uint256",
              "name": "createTime",
              "type": "uint256"
            },
            {
              "internalType": "uint256",
              "name": "packTime",
              "type": "uint256"
            }
          ],
          "internalType": "struct ISendPort.Package",
          "name": "",
          "type": "tuple"
        }
      ],
      "stateMutability": "view",
      "type": "function"
    },
    {
      "inputs": [],
      "name": "getPendingPackage",
      "outputs": [
        {
          "components": [
            {
              "internalType": "uint256",
              "name": "packageIndex",
              "type": "uint256"
            },
            {
              "internalType": "bytes32",
              "name": "root",
              "type": "bytes32"
            },
            {
              "internalType": "bytes32[]",
              "name": "leaves",
              "type": "bytes32[]"
            },
            {
              "internalType": "uint256",
              "name": "createTime",
              "type": "uint256"
            },
            {
              "internalType": "uint256",
              "name": "packTime",
              "type": "uint256"
            }
          ],
          "internalType": "struct ISendPort.Package",
          "name": "",
          "type": "tuple"
        }
      ],
      "stateMutability": "view",
      "type": "function"
    },
    {
      "inputs": [],
      "name": "pack",
      "outputs": [],
      "stateMutability": "nonpayable",
      "type": "function"
    },
    {
      "inputs": [
        {
          "internalType": "uint256",
          "name": "",
          "type": "uint256"
        }
      ],
      "name": "packages",
      "outputs": [
        {
          "internalType": "uint256",
          "name": "packageIndex",
          "type": "uint256"
        },
        {
          "internalType": "bytes32",
          "name": "root",
          "type": "bytes32"
        },
        {
          "internalType": "uint256",
          "name": "createTime",
          "type": "uint256"
        },
        {
          "internalType": "uint256",
          "name": "packTime",
          "type": "uint256"
        }
      ],
      "stateMutability": "view",
      "type": "function"
    },
    {
      "inputs": [],
      "name": "pendingIndex",
      "outputs": [
        {
          "internalType": "uint256",
          "name": "",
          "type": "uint256"
        }
      ],
      "stateMutability": "view",
      "type": "function"
    }
  ],
  "bytecode": "0x60806040525f8055348015610012575f80fd5b506040805160a0810182525f808252602080830182815284518381528083018652948401948552426060850152608084018390529180526001815282517fa6eef7e35abe7026729641147f7915573c7e97b47efa546f5f6e3230263bcb4990815591517fa6eef7e35abe7026729641147f7915573c7e97b47efa546f5f6e3230263bcb4a5592518051929391926100cc927fa6eef7e35abe7026729641147f7915573c7e97b47efa546f5f6e3230263bcb4b9201906100e8565b5060608201516003820155608090910151600490910155610145565b828054828255905f5260205f20908101928215610121579160200282015b82811115610121578251825591602001919060010190610106565b5061012d929150610131565b5090565b5b8082111561012d575f8155600101610132565b610b31806101525f395ff3fe608060405234801561000f575f80fd5b5060043610610085575f3560e01c8063ba70042711610058578063ba700427146100e2578063c216212a146100ea578063ea52c1721461013f578063ef08283814610147575f80fd5b806308dcb1e81461008957806321f886601461009e57806374a48c53146100b9578063b99dfe18146100c2575b5f80fd5b61009c610097366004610924565b61014f565b005b6100a6606481565b6040519081526020015b60405180910390f35b6100a661177081565b6100d56100d0366004610944565b6102a3565b6040516100b0919061095b565b6100a65f5481565b61011f6100f8366004610944565b600160208190525f9182526040909120805491810154600382015460049092015490919084565b6040805194855260208501939093529183015260608201526080016100b0565b6100d5610366565b61009c610428565b60408051602081018490526bffffffffffffffffffffffff193360601b1691810191909152605481018290525f9060740160408051808303601f1901815282825280516020918201205f805481526001808452848220600281018054928301815583529184902001829055805433865292850188905292840186905260608401819052935090917f3e752351ec3a272835923b8d38d8b8d93428cab355e4c52fbbe10a59c10835b39060800160405180910390a26002810154606411610257576040805180820190915260148152734d41585f5041434b4147455f4d4553534147455360601b602082015260028201546102499190610432565b61025161047b565b50505050565b42611770826003015461026a91906109eb565b11610251576102496040518060400160405280600d81526020016c141050d2d7d253951154959053609a1b8152508260030154426105e9565b6102d46040518060a001604052805f81526020015f8019168152602001606081526020015f81526020015f81525090565b5f82815260016020818152604092839020835160a0810185528154815292810154838301526002810180548551818502810185018752818152949592949286019383018282801561034257602002820191905f5260205f20905b81548152602001906001019080831161032e575b50505050508152602001600382015481526020016004820154815250509050919050565b6103976040518060a001604052805f81526020015f8019168152602001606081526020015f81526020015f81525090565b5f8054815260016020818152604092839020835160a0810185528154815292810154838301526002810180548551818502810185018752818152949592949286019383018282801561040657602002820191905f5260205f20905b8154815260200190600101908083116103f2575b5050505050815260200160038201548152602001600482015481525050905090565b61043061047b565b565b6104778282604051602401610448929190610a41565b60408051601f198184030181529190526020810180516001600160e01b0316632d839cb360e21b179052610635565b5050565b5f805481526001602090815260408083206002810180548351818602810186019094528084529194939091908301828280156104d457602002820191905f5260205f20905b8154815260200190600101908083116104c0575b505050505090505b6001815111156104f6576104ef81610655565b90506104dc565b805f8151811061050857610508610a62565b6020908102919091018101516001840181905542600485018190558454604051928352909290917f0454fb13a2b0d5948a0309d264eef7dfa76a2c8e8052a808e6a8b0e4dbc16400910160405180910390a381546105679060016109eb565b5f8181556040805160a081018252838152602080820184815283518581528083018552838501908152600489015460608501526080840186905295855260018083529390942082518155935192840192909255925180516105ce92600285019201906108c7565b50606082015160038201556080909101516004909101555050565b61063083838360405160240161060193929190610a8a565b60408051601f198184030181529190526020810180516001600160e01b031663ca47c4eb60e01b179052610635565b505050565b80516a636f6e736f6c652e6c6f67602083015f808483855afa5050505050565b6060600282516106659190610ac2565b5f0361075e57600282516106799190610ad5565b67ffffffffffffffff81111561069157610691610a76565b6040519080825280602002602001820160405280156106ba578160200160208202803683370190505b5090505f805b83516106cd8260016109eb565b10156107575761071b8482815181106106e8576106e8610a62565b6020026020010151858360016106fe91906109eb565b8151811061070e5761070e610a62565b6020026020010151610896565b9150818361072a600284610ad5565b8151811061073a5761073a610a62565b60209081029190910101526107506002826109eb565b90506106c0565b5050919050565b5f826001845161076e9190610ae8565b8151811061077e5761077e610a62565b60200260200101519050600283516107969190610ad5565b6107a19060016109eb565b67ffffffffffffffff8111156107b9576107b9610a76565b6040519080825280602002602001820160405280156107e2578160200160208202803683370190505b5091505f805b84516107f58260016109eb565b10156108625761082685828151811061081057610810610a62565b6020026020010151868360016106fe91906109eb565b91508184610835600284610ad5565b8151811061084557610845610a62565b602090810291909101015261085b6002826109eb565b90506107e8565b508183600185516108739190610ae8565b8151811061088357610883610a62565b6020026020010181815250505050919050565b5f8183106108b0575f8281526020849052604090206108be565b5f8381526020839052604090205b90505b92915050565b828054828255905f5260205f20908101928215610900579160200282015b828111156109005782518255916020019190600101906108e5565b5061090c929150610910565b5090565b5b8082111561090c575f8155600101610911565b5f8060408385031215610935575f80fd5b50508035926020909101359150565b5f60208284031215610954575f80fd5b5035919050565b5f602080835260c08301845182850152818501516040850152604085015160a0606086015281815180845260e08701915084830193505f92505b808310156109b55783518252928401926001929092019190840190610995565b5060608701516080870152608087015160a08701528094505050505092915050565b634e487b7160e01b5f52601160045260245ffd5b808201808211156108c1576108c16109d7565b5f81518084525f5b81811015610a2257602081850181015186830182015201610a06565b505f602082860101526020601f19601f83011685010191505092915050565b604081525f610a5360408301856109fe565b90508260208301529392505050565b634e487b7160e01b5f52603260045260245ffd5b634e487b7160e01b5f52604160045260245ffd5b606081525f610a9c60608301866109fe565b60208301949094525060400152919050565b634e487b7160e01b5f52601260045260245ffd5b5f82610ad057610ad0610aae565b500690565b5f82610ae357610ae3610aae565b500490565b818103818111156108c1576108c16109d756fea26469706673582212202a4630ac26c41c9cd64d91c3f63a731d21714a73218b53fca3424c0780cc532064736f6c63430008180033",
  "linkReferences": {},
  "deployedLinkReferences": {}
}