{
  "_format": "hh-sol-artifact-1",
  "contractName": "SendPort",
  "sourceName": "contracts/innovation/cross/SendPort.sol",
  "abi": [
    {
      "inputs": [],
      "stateMutability": "nonpayable",
      "type": "constructor"
    },
    {
      "anonymous": false,
      "inputs": [
        {
          "indexed": true,
          "internalType": "uint256",
          "name": "packageIndex",
          "type": "uint256"
        },
        {
          "indexed": false,
          "internalType": "address",
          "name": "sender",
          "type": "address"
        },
        {
          "indexed": false,
          "internalType": "bytes32",
          "name": "msgHash",
          "type": "bytes32"
        },
        {
          "indexed": false,
          "internalType": "uint256",
          "name": "toChainId",
          "type": "uint256"
        },
        {
          "indexed": false,
          "internalType": "bytes32",
          "name": "leaf",
          "type": "bytes32"
        }
      ],
      "name": "MsgHashAdded",
      "type": "event"
    },
    {
      "anonymous": false,
      "inputs": [
        {
          "indexed": true,
          "internalType": "uint256",
          "name": "packageIndex",
          "type": "uint256"
        },
        {
          "indexed": true,
          "internalType": "uint256",
          "name": "packTime",
          "type": "uint256"
        },
        {
          "indexed": false,
          "internalType": "bytes32",
          "name": "root",
          "type": "bytes32"
        }
      ],
      "name": "Packed",
      "type": "event"
    },
    {
      "inputs": [],
      "name": "MAX_PACKAGE_MESSAGES",
      "outputs": [
        {
          "internalType": "uint256",
          "name": "",
          "type": "uint256"
        }
      ],
      "stateMutability": "view",
      "type": "function"
    },
    {
      "inputs": [],
      "name": "PACK_INTERVAL",
      "outputs": [
        {
          "internalType": "uint256",
          "name": "",
          "type": "uint256"
        }
      ],
      "stateMutability": "view",
      "type": "function"
    },
    {
      "inputs": [
        {
          "internalType": "bytes32",
          "name": "msgHash",
          "type": "bytes32"
        },
        {
          "internalType": "uint256",
          "name": "toChainId",
          "type": "uint256"
        }
      ],
      "name": "addMsgHash",
      "outputs": [],
      "stateMutability": "nonpayable",
      "type": "function"
    },
    {
      "inputs": [
        {
          "internalType": "uint256",
          "name": "packageIndex",
          "type": "uint256"
        }
      ],
      "name": "getPackage",
      "outputs": [
        {
          "components": [
            {
              "internalType": "uint256",
              "name": "packageIndex",
              "type": "uint256"
            },
            {
              "internalType": "bytes32",
              "name": "root",
              "type": "bytes32"
            },
            {
              "internalType": "bytes32[]",
              "name": "leaves",
              "type": "bytes32[]"
            },
            {
              "internalType": "uint256",
              "name": "createTime",
              "type": "uint256"
            },
            {
              "internalType": "uint256",
              "name": "packTime",
              "type": "uint256"
            }
          ],
          "internalType": "struct ISendPort.Package",
          "name": "",
          "type": "tuple"
        }
      ],
      "stateMutability": "view",
      "type": "function"
    },
    {
      "inputs": [],
      "name": "getPendingPackage",
      "outputs": [
        {
          "components": [
            {
              "internalType": "uint256",
              "name": "packageIndex",
              "type": "uint256"
            },
            {
              "internalType": "bytes32",
              "name": "root",
              "type": "bytes32"
            },
            {
              "internalType": "bytes32[]",
              "name": "leaves",
              "type": "bytes32[]"
            },
            {
              "internalType": "uint256",
              "name": "createTime",
              "type": "uint256"
            },
            {
              "internalType": "uint256",
              "name": "packTime",
              "type": "uint256"
            }
          ],
          "internalType": "struct ISendPort.Package",
          "name": "",
          "type": "tuple"
        }
      ],
      "stateMutability": "view",
      "type": "function"
    },
    {
      "inputs": [],
      "name": "pack",
      "outputs": [],
      "stateMutability": "nonpayable",
      "type": "function"
    },
    {
      "inputs": [
        {
          "internalType": "uint256",
          "name": "",
          "type": "uint256"
        }
      ],
      "name": "packages",
      "outputs": [
        {
          "internalType": "uint256",
          "name": "packageIndex",
          "type": "uint256"
        },
        {
          "internalType": "bytes32",
          "name": "root",
          "type": "bytes32"
        },
        {
          "internalType": "uint256",
          "name": "createTime",
          "type": "uint256"
        },
        {
          "internalType": "uint256",
          "name": "packTime",
          "type": "uint256"
        }
      ],
      "stateMutability": "view",
      "type": "function"
    },
    {
      "inputs": [],
      "name": "pendingIndex",
      "outputs": [
        {
          "internalType": "uint256",
          "name": "",
          "type": "uint256"
        }
      ],
      "stateMutability": "view",
      "type": "function"
    }
  ],
  "bytecode": "0x60806040526000805534801561001457600080fd5b506040805160a0810182526000808252602080830182815284518381528083018652948401948552426060850152608084018390529180526001815282517fa6eef7e35abe7026729641147f7915573c7e97b47efa546f5f6e3230263bcb4990815591517fa6eef7e35abe7026729641147f7915573c7e97b47efa546f5f6e3230263bcb4a5592518051929391926100cf927fa6eef7e35abe7026729641147f7915573c7e97b47efa546f5f6e3230263bcb4b9201906100eb565b506060820151600382015560809091015160049091015561014b565b828054828255906000526020600020908101928215610126579160200282015b8281111561012657825182559160200191906001019061010b565b50610132929150610136565b5090565b5b808211156101325760008155600101610137565b610b6c8061015a6000396000f3fe608060405234801561001057600080fd5b50600436106100885760003560e01c8063ba7004271161005b578063ba700427146100e6578063c216212a146100ef578063ea52c17214610145578063ef0828381461014d57600080fd5b806308dcb1e81461008d57806321f88660146100a257806374a48c53146100bd578063b99dfe18146100c6575b600080fd5b6100a061009b36600461094a565b610155565b005b6100aa606481565b6040519081526020015b60405180910390f35b6100aa61177081565b6100d96100d436600461096c565b6102ab565b6040516100b49190610985565b6100aa60005481565b6101256100fd36600461096c565b6001602081905260009182526040909120805491810154600382015460049092015490919084565b6040805194855260208501939093529183015260608201526080016100b4565b6100d9610375565b6100a061043e565b60408051602081018490526bffffffffffffffffffffffff193360601b16918101919091526054810182905260009060740160408051808303601f1901815282825280516020918201206000805481526001808452848220600281018054928301815583529184902001829055805433865292850188905292840186905260608401819052935090917f3e752351ec3a272835923b8d38d8b8d93428cab355e4c52fbbe10a59c10835b39060800160405180910390a2600281015460641161025f576040805180820190915260148152734d41585f5041434b4147455f4d4553534147455360601b602082015260028201546102519190610448565b610259610491565b50505050565b4261177082600301546102729190610a19565b11610259576102516040518060400160405280600d81526020016c141050d2d7d253951154959053609a1b815250826003015442610604565b6102e06040518060a0016040528060008152602001600080191681526020016060815260200160008152602001600081525090565b600082815260016020818152604092839020835160a0810185528154815292810154838301526002810180548551818502810185018752818152949592949286019383018282801561035157602002820191906000526020600020905b81548152602001906001019080831161033d575b50505050508152602001600382015481526020016004820154815250509050919050565b6103aa6040518060a0016040528060008152602001600080191681526020016060815260200160008152602001600081525090565b60008054815260016020818152604092839020835160a0810185528154815292810154838301526002810180548551818502810185018752818152949592949286019383018282801561041c57602002820191906000526020600020905b815481526020019060010190808311610408575b5050505050815260200160038201548152602001600482015481525050905090565b610446610491565b565b61048d828260405160240161045e929190610a72565b60408051601f198184030181529190526020810180516001600160e01b0316632d839cb360e21b179052610650565b5050565b6000805481526001602090815260408083206002810180548351818602810186019094528084529194939091908301828280156104ed57602002820191906000526020600020905b8154815260200190600101908083116104d9575b505050505090505b60018151111561050f5761050881610671565b90506104f5565b8060008151811061052257610522610a94565b6020908102919091018101516001840181905542600485018190558454604051928352909290917f0454fb13a2b0d5948a0309d264eef7dfa76a2c8e8052a808e6a8b0e4dbc16400910160405180910390a38154610581906001610a19565b60008181556040805160a081018252838152602080820184815283518581528083018552838501908152600489015460608501526080840186905295855260018083529390942082518155935192840192909255925180516105e992600285019201906108ea565b50606082015160038201556080909101516004909101555050565b61064b83838360405160240161061c93929190610ac0565b60408051601f198184030181529190526020810180516001600160e01b031663ca47c4eb60e01b179052610650565b505050565b80516a636f6e736f6c652e6c6f67602083016000808483855afa5050505050565b6060600282516106819190610afb565b60000361077c57600282516106969190610b0f565b67ffffffffffffffff8111156106ae576106ae610aaa565b6040519080825280602002602001820160405280156106d7578160200160208202803683370190505b5090506000805b83516106eb826001610a19565b10156107755761073984828151811061070657610706610a94565b60200260200101518583600161071c9190610a19565b8151811061072c5761072c610a94565b60200260200101516108b6565b91508183610748600284610b0f565b8151811061075857610758610a94565b602090810291909101015261076e600282610a19565b90506106de565b5050919050565b6000826001845161078d9190610b23565b8151811061079d5761079d610a94565b60200260200101519050600283516107b59190610b0f565b6107c0906001610a19565b67ffffffffffffffff8111156107d8576107d8610aaa565b604051908082528060200260200182016040528015610801578160200160208202803683370190505b5091506000805b8451610815826001610a19565b10156108825761084685828151811061083057610830610a94565b60200260200101518683600161071c9190610a19565b91508184610855600284610b0f565b8151811061086557610865610a94565b602090810291909101015261087b600282610a19565b9050610808565b508183600185516108939190610b23565b815181106108a3576108a3610a94565b6020026020010181815250505050919050565b60008183106108d25760008281526020849052604090206108e1565b60008381526020839052604090205b90505b92915050565b828054828255906000526020600020908101928215610925579160200282015b8281111561092557825182559160200191906001019061090a565b50610931929150610935565b5090565b5b808211156109315760008155600101610936565b6000806040838503121561095d57600080fd5b50508035926020909101359150565b60006020828403121561097e57600080fd5b5035919050565b6000602080835260c08301845182850152818501516040850152604085015160a0606086015281815180845260e0870191508483019350600092505b808310156109e157835182529284019260019290920191908401906109c1565b5060608701516080870152608087015160a08701528094505050505092915050565b634e487b7160e01b600052601160045260246000fd5b808201808211156108e4576108e4610a03565b6000815180845260005b81811015610a5257602081850181015186830182015201610a36565b506000602082860101526020601f19601f83011685010191505092915050565b604081526000610a856040830185610a2c565b90508260208301529392505050565b634e487b7160e01b600052603260045260246000fd5b634e487b7160e01b600052604160045260246000fd5b606081526000610ad36060830186610a2c565b60208301949094525060400152919050565b634e487b7160e01b600052601260045260246000fd5b600082610b0a57610b0a610ae5565b500690565b600082610b1e57610b1e610ae5565b500490565b818103818111156108e4576108e4610a0356fea2646970667358221220c168ced56e86db1d0669294b606e3dd723e2c42c503bde8b8b8f4ce5b83c1f0464736f6c63430008120033",
  "linkReferences": {},
  "deployedLinkReferences": {}
}