{
  "_format": "hh-sol-artifact-1",
  "contractName": "MockZKID",
  "sourceName": "contracts/mock/MockZKID.sol",
  "abi": [
    {
      "inputs": [],
      "stateMutability": "nonpayable",
      "type": "constructor"
    },
    {
      "anonymous": false,
      "inputs": [
        {
          "indexed": true,
          "internalType": "address",
          "name": "owner",
          "type": "address"
        },
        {
          "indexed": true,
          "internalType": "address",
          "name": "approved",
          "type": "address"
        },
        {
          "indexed": true,
          "internalType": "uint256",
          "name": "tokenId",
          "type": "uint256"
        }
      ],
      "name": "Approval",
      "type": "event"
    },
    {
      "anonymous": false,
      "inputs": [
        {
          "indexed": true,
          "internalType": "address",
          "name": "owner",
          "type": "address"
        },
        {
          "indexed": true,
          "internalType": "address",
          "name": "operator",
          "type": "address"
        },
        {
          "indexed": false,
          "internalType": "bool",
          "name": "approved",
          "type": "bool"
        }
      ],
      "name": "ApprovalForAll",
      "type": "event"
    },
    {
      "anonymous": false,
      "inputs": [
        {
          "indexed": true,
          "internalType": "address",
          "name": "from",
          "type": "address"
        },
        {
          "indexed": true,
          "internalType": "address",
          "name": "to",
          "type": "address"
        },
        {
          "indexed": true,
          "internalType": "uint256",
          "name": "tokenId",
          "type": "uint256"
        }
      ],
      "name": "Transfer",
      "type": "event"
    },
    {
      "inputs": [
        {
          "internalType": "uint256",
          "name": "",
          "type": "uint256"
        }
      ],
      "name": "addressOf",
      "outputs": [
        {
          "internalType": "address",
          "name": "",
          "type": "address"
        }
      ],
      "stateMutability": "view",
      "type": "function"
    },
    {
      "inputs": [
        {
          "internalType": "address",
          "name": "to",
          "type": "address"
        },
        {
          "internalType": "uint256",
          "name": "tokenId",
          "type": "uint256"
        }
      ],
      "name": "approve",
      "outputs": [],
      "stateMutability": "nonpayable",
      "type": "function"
    },
    {
      "inputs": [
        {
          "internalType": "address",
          "name": "owner",
          "type": "address"
        }
      ],
      "name": "balanceOf",
      "outputs": [
        {
          "internalType": "uint256",
          "name": "",
          "type": "uint256"
        }
      ],
      "stateMutability": "view",
      "type": "function"
    },
    {
      "inputs": [
        {
          "internalType": "uint256",
          "name": "tokenId",
          "type": "uint256"
        }
      ],
      "name": "getApproved",
      "outputs": [
        {
          "internalType": "address",
          "name": "",
          "type": "address"
        }
      ],
      "stateMutability": "view",
      "type": "function"
    },
    {
      "inputs": [
        {
          "internalType": "address",
          "name": "owner",
          "type": "address"
        },
        {
          "internalType": "address",
          "name": "operator",
          "type": "address"
        }
      ],
      "name": "isApprovedForAll",
      "outputs": [
        {
          "internalType": "bool",
          "name": "",
          "type": "bool"
        }
      ],
      "stateMutability": "view",
      "type": "function"
    },
    {
      "inputs": [
        {
          "internalType": "address",
          "name": "to",
          "type": "address"
        }
      ],
      "name": "mint",
      "outputs": [],
      "stateMutability": "nonpayable",
      "type": "function"
    },
    {
      "inputs": [],
      "name": "name",
      "outputs": [
        {
          "internalType": "string",
          "name": "",
          "type": "string"
        }
      ],
      "stateMutability": "view",
      "type": "function"
    },
    {
      "inputs": [],
      "name": "onSaleID",
      "outputs": [
        {
          "internalType": "uint256",
          "name": "",
          "type": "uint256"
        }
      ],
      "stateMutability": "view",
      "type": "function"
    },
    {
      "inputs": [
        {
          "internalType": "uint256",
          "name": "tokenId",
          "type": "uint256"
        }
      ],
      "name": "ownerOf",
      "outputs": [
        {
          "internalType": "address",
          "name": "",
          "type": "address"
        }
      ],
      "stateMutability": "view",
      "type": "function"
    },
    {
      "inputs": [
        {
          "internalType": "address",
          "name": "from",
          "type": "address"
        },
        {
          "internalType": "address",
          "name": "to",
          "type": "address"
        },
        {
          "internalType": "uint256",
          "name": "tokenId",
          "type": "uint256"
        }
      ],
      "name": "safeTransferFrom",
      "outputs": [],
      "stateMutability": "nonpayable",
      "type": "function"
    },
    {
      "inputs": [
        {
          "internalType": "address",
          "name": "from",
          "type": "address"
        },
        {
          "internalType": "address",
          "name": "to",
          "type": "address"
        },
        {
          "internalType": "uint256",
          "name": "tokenId",
          "type": "uint256"
        },
        {
          "internalType": "bytes",
          "name": "data",
          "type": "bytes"
        }
      ],
      "name": "safeTransferFrom",
      "outputs": [],
      "stateMutability": "nonpayable",
      "type": "function"
    },
    {
      "inputs": [
        {
          "internalType": "address",
          "name": "operator",
          "type": "address"
        },
        {
          "internalType": "bool",
          "name": "approved",
          "type": "bool"
        }
      ],
      "name": "setApprovalForAll",
      "outputs": [],
      "stateMutability": "nonpayable",
      "type": "function"
    },
    {
      "inputs": [
        {
          "internalType": "bytes4",
          "name": "interfaceId",
          "type": "bytes4"
        }
      ],
      "name": "supportsInterface",
      "outputs": [
        {
          "internalType": "bool",
          "name": "",
          "type": "bool"
        }
      ],
      "stateMutability": "view",
      "type": "function"
    },
    {
      "inputs": [],
      "name": "symbol",
      "outputs": [
        {
          "internalType": "string",
          "name": "",
          "type": "string"
        }
      ],
      "stateMutability": "view",
      "type": "function"
    },
    {
      "inputs": [
        {
          "internalType": "uint256",
          "name": "tokenId",
          "type": "uint256"
        }
      ],
      "name": "tokenURI",
      "outputs": [
        {
          "internalType": "string",
          "name": "",
          "type": "string"
        }
      ],
      "stateMutability": "view",
      "type": "function"
    },
    {
      "inputs": [
        {
          "internalType": "address",
          "name": "from",
          "type": "address"
        },
        {
          "internalType": "address",
          "name": "to",
          "type": "address"
        },
        {
          "internalType": "uint256",
          "name": "tokenId",
          "type": "uint256"
        }
      ],
      "name": "transferFrom",
      "outputs": [],
      "stateMutability": "nonpayable",
      "type": "function"
    }
  ],
  "bytecode": "0x60806040526201876960065534801562000017575f80fd5b50604051806040016040528060098152602001681692d4d0519148125160ba1b815250604051806040016040528060048152602001631692d25160e21b815250815f90816200006791906200011d565b5060016200007682826200011d565b505050620001e9565b634e487b7160e01b5f52604160045260245ffd5b600181811c90821680620000a857607f821691505b602082108103620000c757634e487b7160e01b5f52602260045260245ffd5b50919050565b601f8211156200011857805f5260205f20601f840160051c81016020851015620000f45750805b601f840160051c820191505b8181101562000115575f815560010162000100565b50505b505050565b81516001600160401b038111156200013957620001396200007f565b62000151816200014a845462000093565b84620000cd565b602080601f83116001811462000187575f84156200016f5750858301515b5f19600386901b1c1916600185901b178555620001e1565b5f85815260208120601f198616915b82811015620001b75788860151825594840194600190910190840162000196565b5085821015620001d557878501515f19600388901b60f8161c191681555b505060018460011b0185555b505050505050565b6112b680620001f75f395ff3fe608060405234801561000f575f80fd5b50600436106100fb575f3560e01c80636a62784211610093578063a22cb46511610063578063a22cb46514610222578063b88d4fde14610235578063c87b56dd14610248578063e985e9c51461025b575f80fd5b80636a627842146101dd57806370a08231146101f057806393e4d6c71461021157806395d89b411461021a575f80fd5b806311a800bc116100ce57806311a800bc1461017c57806323b872dd146101a457806342842e0e146101b75780636352211e146101ca575f80fd5b806301ffc9a7146100ff57806306fdde0314610127578063081812fc1461013c578063095ea7b314610167575b5f80fd5b61011261010d366004610e0a565b61026e565b60405190151581526020015b60405180910390f35b61012f6102bf565b60405161011e9190610e72565b61014f61014a366004610e84565b61034e565b6040516001600160a01b03909116815260200161011e565b61017a610175366004610eb6565b610373565b005b61014f61018a366004610e84565b60076020525f90815260409020546001600160a01b031681565b61017a6101b2366004610ede565b61048c565b61017a6101c5366004610ede565b6104bd565b61014f6101d8366004610e84565b6104d7565b61017a6101eb366004610f17565b610536565b6102036101fe366004610f17565b610581565b60405190815260200161011e565b61020360065481565b61012f610605565b61017a610230366004610f30565b610614565b61017a610243366004610f7d565b610623565b61012f610256366004610e84565b61065b565b610112610269366004611052565b6106cb565b5f6001600160e01b031982166380ac58cd60e01b148061029e57506001600160e01b03198216635b5e139f60e01b145b806102b957506301ffc9a760e01b6001600160e01b03198316145b92915050565b60605f80546102cd90611083565b80601f01602080910402602001604051908101604052809291908181526020018280546102f990611083565b80156103445780601f1061031b57610100808354040283529160200191610344565b820191905f5260205f20905b81548152906001019060200180831161032757829003601f168201915b5050505050905090565b5f610358826106f8565b505f908152600460205260409020546001600160a01b031690565b5f61037d826104d7565b9050806001600160a01b0316836001600160a01b0316036103ef5760405162461bcd60e51b815260206004820152602160248201527f4552433732313a20617070726f76616c20746f2063757272656e74206f776e656044820152603960f91b60648201526084015b60405180910390fd5b336001600160a01b038216148061040b575061040b81336106cb565b61047d5760405162461bcd60e51b815260206004820152603e60248201527f4552433732313a20617070726f76652063616c6c6572206973206e6f7420746f60448201527f6b656e206f776e6572206e6f7220617070726f76656420666f7220616c6c000060648201526084016103e6565b6104878383610759565b505050565b61049633826107c6565b6104b25760405162461bcd60e51b81526004016103e6906110bb565b610487838383610824565b61048783838360405180602001604052805f815250610623565b5f818152600260205260408120546001600160a01b0316806102b95760405162461bcd60e51b8152602060048201526018602482015277115490cdcc8c4e881a5b9d985b1a59081d1bdad95b88125160421b60448201526064016103e6565b610542816006546109bc565b600680545f90815260076020526040812080546001600160a01b0319166001600160a01b038516179055815491906105798361111d565b919050555050565b5f6001600160a01b0382166105ea5760405162461bcd60e51b815260206004820152602960248201527f4552433732313a2061646472657373207a65726f206973206e6f7420612076616044820152683634b21037bbb732b960b91b60648201526084016103e6565b506001600160a01b03165f9081526003602052604090205490565b6060600180546102cd90611083565b61061f338383610afb565b5050565b61062d33836107c6565b6106495760405162461bcd60e51b81526004016103e6906110bb565b61065584848484610bc8565b50505050565b6060610666826106f8565b5f61067b60408051602081019091525f815290565b90505f8151116106995760405180602001604052805f8152506106c4565b806106a384610bfb565b6040516020016106b4929190611135565b6040516020818303038152906040525b9392505050565b6001600160a01b039182165f90815260056020908152604080832093909416825291909152205460ff1690565b5f818152600260205260409020546001600160a01b03166107565760405162461bcd60e51b8152602060048201526018602482015277115490cdcc8c4e881a5b9d985b1a59081d1bdad95b88125160421b60448201526064016103e6565b50565b5f81815260046020526040902080546001600160a01b0319166001600160a01b038416908117909155819061078d826104d7565b6001600160a01b03167f8c5be1e5ebec7d5bd14f71427d1e84f3dd0314c0f7b2291e5b200ac8c7c3b92560405160405180910390a45050565b5f806107d1836104d7565b9050806001600160a01b0316846001600160a01b031614806107f857506107f881856106cb565b8061081c5750836001600160a01b03166108118461034e565b6001600160a01b0316145b949350505050565b826001600160a01b0316610837826104d7565b6001600160a01b03161461089b5760405162461bcd60e51b815260206004820152602560248201527f4552433732313a207472616e736665722066726f6d20696e636f72726563742060448201526437bbb732b960d91b60648201526084016103e6565b6001600160a01b0382166108fd5760405162461bcd60e51b8152602060048201526024808201527f4552433732313a207472616e7366657220746f20746865207a65726f206164646044820152637265737360e01b60648201526084016103e6565b6109075f82610759565b6001600160a01b0383165f90815260036020526040812080546001929061092f908490611163565b90915550506001600160a01b0382165f90815260036020526040812080546001929061095c908490611176565b90915550505f8181526002602052604080822080546001600160a01b0319166001600160a01b0386811691821790925591518493918716917fddf252ad1be2c89b69c2b068fc378daa952ba7f163c4a11628f55a4df523b3ef91a4505050565b6001600160a01b038216610a125760405162461bcd60e51b815260206004820181905260248201527f4552433732313a206d696e7420746f20746865207a65726f206164647265737360448201526064016103e6565b5f818152600260205260409020546001600160a01b031615610a765760405162461bcd60e51b815260206004820152601c60248201527f4552433732313a20746f6b656e20616c7265616479206d696e7465640000000060448201526064016103e6565b6001600160a01b0382165f908152600360205260408120805460019290610a9e908490611176565b90915550505f8181526002602052604080822080546001600160a01b0319166001600160a01b03861690811790915590518392907fddf252ad1be2c89b69c2b068fc378daa952ba7f163c4a11628f55a4df523b3ef908290a45050565b816001600160a01b0316836001600160a01b031603610b5c5760405162461bcd60e51b815260206004820152601960248201527f4552433732313a20617070726f766520746f2063616c6c65720000000000000060448201526064016103e6565b6001600160a01b038381165f81815260056020908152604080832094871680845294825291829020805460ff191686151590811790915591519182527f17307eab39ab6107e8899845ad3d59bd9653f200f220920489ca2b5937696c31910160405180910390a3505050565b610bd3848484610824565b610bdf84848484610cf8565b6106555760405162461bcd60e51b81526004016103e690611189565b6060815f03610c215750506040805180820190915260018152600360fc1b602082015290565b815f5b8115610c4a5780610c348161111d565b9150610c439050600a836111ef565b9150610c24565b5f8167ffffffffffffffff811115610c6457610c64610f69565b6040519080825280601f01601f191660200182016040528015610c8e576020820181803683370190505b5090505b841561081c57610ca3600183611163565b9150610cb0600a86611202565b610cbb906030611176565b60f81b818381518110610cd057610cd0611215565b60200101906001600160f81b03191690815f1a905350610cf1600a866111ef565b9450610c92565b5f6001600160a01b0384163b15610dea57604051630a85bd0160e11b81526001600160a01b0385169063150b7a0290610d3b903390899088908890600401611229565b6020604051808303815f875af1925050508015610d75575060408051601f3d908101601f19168201909252610d7291810190611265565b60015b610dd0573d808015610da2576040519150601f19603f3d011682016040523d82523d5f602084013e610da7565b606091505b5080515f03610dc85760405162461bcd60e51b81526004016103e690611189565b805181602001fd5b6001600160e01b031916630a85bd0160e11b14905061081c565b506001949350505050565b6001600160e01b031981168114610756575f80fd5b5f60208284031215610e1a575f80fd5b81356106c481610df5565b5f5b83811015610e3f578181015183820152602001610e27565b50505f910152565b5f8151808452610e5e816020860160208601610e25565b601f01601f19169290920160200192915050565b602081525f6106c46020830184610e47565b5f60208284031215610e94575f80fd5b5035919050565b80356001600160a01b0381168114610eb1575f80fd5b919050565b5f8060408385031215610ec7575f80fd5b610ed083610e9b565b946020939093013593505050565b5f805f60608486031215610ef0575f80fd5b610ef984610e9b565b9250610f0760208501610e9b565b9150604084013590509250925092565b5f60208284031215610f27575f80fd5b6106c482610e9b565b5f8060408385031215610f41575f80fd5b610f4a83610e9b565b915060208301358015158114610f5e575f80fd5b809150509250929050565b634e487b7160e01b5f52604160045260245ffd5b5f805f8060808587031215610f90575f80fd5b610f9985610e9b565b9350610fa760208601610e9b565b925060408501359150606085013567ffffffffffffffff80821115610fca575f80fd5b818701915087601f830112610fdd575f80fd5b813581811115610fef57610fef610f69565b604051601f8201601f19908116603f0116810190838211818310171561101757611017610f69565b816040528281528a602084870101111561102f575f80fd5b826020860160208301375f60208483010152809550505050505092959194509250565b5f8060408385031215611063575f80fd5b61106c83610e9b565b915061107a60208401610e9b565b90509250929050565b600181811c9082168061109757607f821691505b6020821081036110b557634e487b7160e01b5f52602260045260245ffd5b50919050565b6020808252602e908201527f4552433732313a2063616c6c6572206973206e6f7420746f6b656e206f776e6560408201526d1c881b9bdc88185c1c1c9bdd995960921b606082015260800190565b634e487b7160e01b5f52601160045260245ffd5b5f6001820161112e5761112e611109565b5060010190565b5f8351611146818460208801610e25565b83519083019061115a818360208801610e25565b01949350505050565b818103818111156102b9576102b9611109565b808201808211156102b9576102b9611109565b60208082526032908201527f4552433732313a207472616e7366657220746f206e6f6e20455243373231526560408201527131b2b4bb32b91034b6b83632b6b2b73a32b960711b606082015260800190565b634e487b7160e01b5f52601260045260245ffd5b5f826111fd576111fd6111db565b500490565b5f82611210576112106111db565b500690565b634e487b7160e01b5f52603260045260245ffd5b6001600160a01b03858116825284166020820152604081018390526080606082018190525f9061125b90830184610e47565b9695505050505050565b5f60208284031215611275575f80fd5b81516106c481610df556fea2646970667358221220d25f1dc3adef85e1d1db4fd1918741b7e76afe05dac7dd698d590470d2f51fff64736f6c63430008180033",
  "linkReferences": {},
  "deployedLinkReferences": {}
}