{
  "_format": "hh-sol-artifact-1",
  "contractName": "MockZKID",
  "sourceName": "contracts/mock/MockZKID.sol",
  "abi": [
    {
      "inputs": [],
      "stateMutability": "nonpayable",
      "type": "constructor"
    },
    {
      "anonymous": false,
      "inputs": [
        {
          "indexed": true,
          "internalType": "address",
          "name": "owner",
          "type": "address"
        },
        {
          "indexed": true,
          "internalType": "address",
          "name": "approved",
          "type": "address"
        },
        {
          "indexed": true,
          "internalType": "uint256",
          "name": "tokenId",
          "type": "uint256"
        }
      ],
      "name": "Approval",
      "type": "event"
    },
    {
      "anonymous": false,
      "inputs": [
        {
          "indexed": true,
          "internalType": "address",
          "name": "owner",
          "type": "address"
        },
        {
          "indexed": true,
          "internalType": "address",
          "name": "operator",
          "type": "address"
        },
        {
          "indexed": false,
          "internalType": "bool",
          "name": "approved",
          "type": "bool"
        }
      ],
      "name": "ApprovalForAll",
      "type": "event"
    },
    {
      "anonymous": false,
      "inputs": [
        {
          "indexed": true,
          "internalType": "address",
          "name": "from",
          "type": "address"
        },
        {
          "indexed": true,
          "internalType": "address",
          "name": "to",
          "type": "address"
        },
        {
          "indexed": true,
          "internalType": "uint256",
          "name": "tokenId",
          "type": "uint256"
        }
      ],
      "name": "Transfer",
      "type": "event"
    },
    {
      "inputs": [
        {
          "internalType": "uint256",
          "name": "",
          "type": "uint256"
        }
      ],
      "name": "addressOf",
      "outputs": [
        {
          "internalType": "address",
          "name": "",
          "type": "address"
        }
      ],
      "stateMutability": "view",
      "type": "function"
    },
    {
      "inputs": [
        {
          "internalType": "address",
          "name": "to",
          "type": "address"
        },
        {
          "internalType": "uint256",
          "name": "tokenId",
          "type": "uint256"
        }
      ],
      "name": "approve",
      "outputs": [],
      "stateMutability": "nonpayable",
      "type": "function"
    },
    {
      "inputs": [
        {
          "internalType": "address",
          "name": "owner",
          "type": "address"
        }
      ],
      "name": "balanceOf",
      "outputs": [
        {
          "internalType": "uint256",
          "name": "",
          "type": "uint256"
        }
      ],
      "stateMutability": "view",
      "type": "function"
    },
    {
      "inputs": [
        {
          "internalType": "uint256",
          "name": "tokenId",
          "type": "uint256"
        }
      ],
      "name": "getApproved",
      "outputs": [
        {
          "internalType": "address",
          "name": "",
          "type": "address"
        }
      ],
      "stateMutability": "view",
      "type": "function"
    },
    {
      "inputs": [
        {
          "internalType": "address",
          "name": "owner",
          "type": "address"
        },
        {
          "internalType": "address",
          "name": "operator",
          "type": "address"
        }
      ],
      "name": "isApprovedForAll",
      "outputs": [
        {
          "internalType": "bool",
          "name": "",
          "type": "bool"
        }
      ],
      "stateMutability": "view",
      "type": "function"
    },
    {
      "inputs": [
        {
          "internalType": "address",
          "name": "to",
          "type": "address"
        }
      ],
      "name": "mint",
      "outputs": [],
      "stateMutability": "nonpayable",
      "type": "function"
    },
    {
      "inputs": [],
      "name": "name",
      "outputs": [
        {
          "internalType": "string",
          "name": "",
          "type": "string"
        }
      ],
      "stateMutability": "view",
      "type": "function"
    },
    {
      "inputs": [],
      "name": "onSaleID",
      "outputs": [
        {
          "internalType": "uint256",
          "name": "",
          "type": "uint256"
        }
      ],
      "stateMutability": "view",
      "type": "function"
    },
    {
      "inputs": [
        {
          "internalType": "uint256",
          "name": "tokenId",
          "type": "uint256"
        }
      ],
      "name": "ownerOf",
      "outputs": [
        {
          "internalType": "address",
          "name": "",
          "type": "address"
        }
      ],
      "stateMutability": "view",
      "type": "function"
    },
    {
      "inputs": [
        {
          "internalType": "address",
          "name": "from",
          "type": "address"
        },
        {
          "internalType": "address",
          "name": "to",
          "type": "address"
        },
        {
          "internalType": "uint256",
          "name": "tokenId",
          "type": "uint256"
        }
      ],
      "name": "safeTransferFrom",
      "outputs": [],
      "stateMutability": "nonpayable",
      "type": "function"
    },
    {
      "inputs": [
        {
          "internalType": "address",
          "name": "from",
          "type": "address"
        },
        {
          "internalType": "address",
          "name": "to",
          "type": "address"
        },
        {
          "internalType": "uint256",
          "name": "tokenId",
          "type": "uint256"
        },
        {
          "internalType": "bytes",
          "name": "data",
          "type": "bytes"
        }
      ],
      "name": "safeTransferFrom",
      "outputs": [],
      "stateMutability": "nonpayable",
      "type": "function"
    },
    {
      "inputs": [
        {
          "internalType": "address",
          "name": "operator",
          "type": "address"
        },
        {
          "internalType": "bool",
          "name": "approved",
          "type": "bool"
        }
      ],
      "name": "setApprovalForAll",
      "outputs": [],
      "stateMutability": "nonpayable",
      "type": "function"
    },
    {
      "inputs": [
        {
          "internalType": "bytes4",
          "name": "interfaceId",
          "type": "bytes4"
        }
      ],
      "name": "supportsInterface",
      "outputs": [
        {
          "internalType": "bool",
          "name": "",
          "type": "bool"
        }
      ],
      "stateMutability": "view",
      "type": "function"
    },
    {
      "inputs": [],
      "name": "symbol",
      "outputs": [
        {
          "internalType": "string",
          "name": "",
          "type": "string"
        }
      ],
      "stateMutability": "view",
      "type": "function"
    },
    {
      "inputs": [
        {
          "internalType": "uint256",
          "name": "tokenId",
          "type": "uint256"
        }
      ],
      "name": "tokenURI",
      "outputs": [
        {
          "internalType": "string",
          "name": "",
          "type": "string"
        }
      ],
      "stateMutability": "view",
      "type": "function"
    },
    {
      "inputs": [
        {
          "internalType": "address",
          "name": "from",
          "type": "address"
        },
        {
          "internalType": "address",
          "name": "to",
          "type": "address"
        },
        {
          "internalType": "uint256",
          "name": "tokenId",
          "type": "uint256"
        }
      ],
      "name": "transferFrom",
      "outputs": [],
      "stateMutability": "nonpayable",
      "type": "function"
    }
  ],
  "bytecode": "0x6080604052620187696006553480156200001857600080fd5b50604051806040016040528060098152602001681692d4d0519148125160ba1b815250604051806040016040528060048152602001631692d25160e21b815250816000908162000069919062000126565b50600162000078828262000126565b505050620001f2565b634e487b7160e01b600052604160045260246000fd5b600181811c90821680620000ac57607f821691505b602082108103620000cd57634e487b7160e01b600052602260045260246000fd5b50919050565b601f8211156200012157600081815260208120601f850160051c81016020861015620000fc5750805b601f850160051c820191505b818110156200011d5782815560010162000108565b5050505b505050565b81516001600160401b0381111562000142576200014262000081565b6200015a8162000153845462000097565b84620000d3565b602080601f831160018114620001925760008415620001795750858301515b600019600386901b1c1916600185901b1785556200011d565b600085815260208120601f198616915b82811015620001c357888601518255948401946001909101908401620001a2565b5085821015620001e25787850151600019600388901b60f8161c191681555b5050505050600190811b01905550565b61130f80620002026000396000f3fe608060405234801561001057600080fd5b50600436106101005760003560e01c80636a62784211610097578063a22cb46511610066578063a22cb46514610229578063b88d4fde1461023c578063c87b56dd1461024f578063e985e9c51461026257600080fd5b80636a627842146101e457806370a08231146101f757806393e4d6c71461021857806395d89b411461022157600080fd5b806311a800bc116100d357806311a800bc1461018257806323b872dd146101ab57806342842e0e146101be5780636352211e146101d157600080fd5b806301ffc9a71461010557806306fdde031461012d578063081812fc14610142578063095ea7b31461016d575b600080fd5b610118610113366004610e36565b610275565b60405190151581526020015b60405180910390f35b6101356102c7565b6040516101249190610ea3565b610155610150366004610eb6565b610359565b6040516001600160a01b039091168152602001610124565b61018061017b366004610eeb565b610380565b005b610155610190366004610eb6565b6007602052600090815260409020546001600160a01b031681565b6101806101b9366004610f15565b61049a565b6101806101cc366004610f15565b6104cb565b6101556101df366004610eb6565b6104e6565b6101806101f2366004610f51565b610546565b61020a610205366004610f51565b610592565b604051908152602001610124565b61020a60065481565b610135610618565b610180610237366004610f6c565b610627565b61018061024a366004610fbe565b610636565b61013561025d366004610eb6565b61066e565b61011861027036600461109a565b6106e2565b60006001600160e01b031982166380ac58cd60e01b14806102a657506001600160e01b03198216635b5e139f60e01b145b806102c157506301ffc9a760e01b6001600160e01b03198316145b92915050565b6060600080546102d6906110cd565b80601f0160208091040260200160405190810160405280929190818152602001828054610302906110cd565b801561034f5780601f106103245761010080835404028352916020019161034f565b820191906000526020600020905b81548152906001019060200180831161033257829003601f168201915b5050505050905090565b600061036482610710565b506000908152600460205260409020546001600160a01b031690565b600061038b826104e6565b9050806001600160a01b0316836001600160a01b0316036103fd5760405162461bcd60e51b815260206004820152602160248201527f4552433732313a20617070726f76616c20746f2063757272656e74206f776e656044820152603960f91b60648201526084015b60405180910390fd5b336001600160a01b0382161480610419575061041981336106e2565b61048b5760405162461bcd60e51b815260206004820152603e60248201527f4552433732313a20617070726f76652063616c6c6572206973206e6f7420746f60448201527f6b656e206f776e6572206e6f7220617070726f76656420666f7220616c6c000060648201526084016103f4565b6104958383610772565b505050565b6104a433826107e0565b6104c05760405162461bcd60e51b81526004016103f490611107565b61049583838361083f565b61049583838360405180602001604052806000815250610636565b6000818152600260205260408120546001600160a01b0316806102c15760405162461bcd60e51b8152602060048201526018602482015277115490cdcc8c4e881a5b9d985b1a59081d1bdad95b88125160421b60448201526064016103f4565b610552816006546109db565b60068054600090815260076020526040812080546001600160a01b0319166001600160a01b0385161790558154919061058a8361116b565b919050555050565b60006001600160a01b0382166105fc5760405162461bcd60e51b815260206004820152602960248201527f4552433732313a2061646472657373207a65726f206973206e6f7420612076616044820152683634b21037bbb732b960b91b60648201526084016103f4565b506001600160a01b031660009081526003602052604090205490565b6060600180546102d6906110cd565b610632338383610b1d565b5050565b61064033836107e0565b61065c5760405162461bcd60e51b81526004016103f490611107565b61066884848484610beb565b50505050565b606061067982610710565b600061069060408051602081019091526000815290565b905060008151116106b057604051806020016040528060008152506106db565b806106ba84610c1e565b6040516020016106cb929190611184565b6040516020818303038152906040525b9392505050565b6001600160a01b03918216600090815260056020908152604080832093909416825291909152205460ff1690565b6000818152600260205260409020546001600160a01b031661076f5760405162461bcd60e51b8152602060048201526018602482015277115490cdcc8c4e881a5b9d985b1a59081d1bdad95b88125160421b60448201526064016103f4565b50565b600081815260046020526040902080546001600160a01b0319166001600160a01b03841690811790915581906107a7826104e6565b6001600160a01b03167f8c5be1e5ebec7d5bd14f71427d1e84f3dd0314c0f7b2291e5b200ac8c7c3b92560405160405180910390a45050565b6000806107ec836104e6565b9050806001600160a01b0316846001600160a01b03161480610813575061081381856106e2565b806108375750836001600160a01b031661082c84610359565b6001600160a01b0316145b949350505050565b826001600160a01b0316610852826104e6565b6001600160a01b0316146108b65760405162461bcd60e51b815260206004820152602560248201527f4552433732313a207472616e736665722066726f6d20696e636f72726563742060448201526437bbb732b960d91b60648201526084016103f4565b6001600160a01b0382166109185760405162461bcd60e51b8152602060048201526024808201527f4552433732313a207472616e7366657220746f20746865207a65726f206164646044820152637265737360e01b60648201526084016103f4565b610923600082610772565b6001600160a01b038316600090815260036020526040812080546001929061094c9084906111b3565b90915550506001600160a01b038216600090815260036020526040812080546001929061097a9084906111c6565b909155505060008181526002602052604080822080546001600160a01b0319166001600160a01b0386811691821790925591518493918716917fddf252ad1be2c89b69c2b068fc378daa952ba7f163c4a11628f55a4df523b3ef91a4505050565b6001600160a01b038216610a315760405162461bcd60e51b815260206004820181905260248201527f4552433732313a206d696e7420746f20746865207a65726f206164647265737360448201526064016103f4565b6000818152600260205260409020546001600160a01b031615610a965760405162461bcd60e51b815260206004820152601c60248201527f4552433732313a20746f6b656e20616c7265616479206d696e7465640000000060448201526064016103f4565b6001600160a01b0382166000908152600360205260408120805460019290610abf9084906111c6565b909155505060008181526002602052604080822080546001600160a01b0319166001600160a01b03861690811790915590518392907fddf252ad1be2c89b69c2b068fc378daa952ba7f163c4a11628f55a4df523b3ef908290a45050565b816001600160a01b0316836001600160a01b031603610b7e5760405162461bcd60e51b815260206004820152601960248201527f4552433732313a20617070726f766520746f2063616c6c65720000000000000060448201526064016103f4565b6001600160a01b03838116600081815260056020908152604080832094871680845294825291829020805460ff191686151590811790915591519182527f17307eab39ab6107e8899845ad3d59bd9653f200f220920489ca2b5937696c31910160405180910390a3505050565b610bf684848461083f565b610c0284848484610d1f565b6106685760405162461bcd60e51b81526004016103f4906111d9565b606081600003610c455750506040805180820190915260018152600360fc1b602082015290565b8160005b8115610c6f5780610c598161116b565b9150610c689050600a83611241565b9150610c49565b60008167ffffffffffffffff811115610c8a57610c8a610fa8565b6040519080825280601f01601f191660200182016040528015610cb4576020820181803683370190505b5090505b841561083757610cc96001836111b3565b9150610cd6600a86611255565b610ce19060306111c6565b60f81b818381518110610cf657610cf6611269565b60200101906001600160f81b031916908160001a905350610d18600a86611241565b9450610cb8565b60006001600160a01b0384163b15610e1557604051630a85bd0160e11b81526001600160a01b0385169063150b7a0290610d6390339089908890889060040161127f565b6020604051808303816000875af1925050508015610d9e575060408051601f3d908101601f19168201909252610d9b918101906112bc565b60015b610dfb573d808015610dcc576040519150601f19603f3d011682016040523d82523d6000602084013e610dd1565b606091505b508051600003610df35760405162461bcd60e51b81526004016103f4906111d9565b805181602001fd5b6001600160e01b031916630a85bd0160e11b149050610837565b506001949350505050565b6001600160e01b03198116811461076f57600080fd5b600060208284031215610e4857600080fd5b81356106db81610e20565b60005b83811015610e6e578181015183820152602001610e56565b50506000910152565b60008151808452610e8f816020860160208601610e53565b601f01601f19169290920160200192915050565b6020815260006106db6020830184610e77565b600060208284031215610ec857600080fd5b5035919050565b80356001600160a01b0381168114610ee657600080fd5b919050565b60008060408385031215610efe57600080fd5b610f0783610ecf565b946020939093013593505050565b600080600060608486031215610f2a57600080fd5b610f3384610ecf565b9250610f4160208501610ecf565b9150604084013590509250925092565b600060208284031215610f6357600080fd5b6106db82610ecf565b60008060408385031215610f7f57600080fd5b610f8883610ecf565b915060208301358015158114610f9d57600080fd5b809150509250929050565b634e487b7160e01b600052604160045260246000fd5b60008060008060808587031215610fd457600080fd5b610fdd85610ecf565b9350610feb60208601610ecf565b925060408501359150606085013567ffffffffffffffff8082111561100f57600080fd5b818701915087601f83011261102357600080fd5b81358181111561103557611035610fa8565b604051601f8201601f19908116603f0116810190838211818310171561105d5761105d610fa8565b816040528281528a602084870101111561107657600080fd5b82602086016020830137600060208483010152809550505050505092959194509250565b600080604083850312156110ad57600080fd5b6110b683610ecf565b91506110c460208401610ecf565b90509250929050565b600181811c908216806110e157607f821691505b60208210810361110157634e487b7160e01b600052602260045260246000fd5b50919050565b6020808252602e908201527f4552433732313a2063616c6c6572206973206e6f7420746f6b656e206f776e6560408201526d1c881b9bdc88185c1c1c9bdd995960921b606082015260800190565b634e487b7160e01b600052601160045260246000fd5b60006001820161117d5761117d611155565b5060010190565b60008351611196818460208801610e53565b8351908301906111aa818360208801610e53565b01949350505050565b818103818111156102c1576102c1611155565b808201808211156102c1576102c1611155565b60208082526032908201527f4552433732313a207472616e7366657220746f206e6f6e20455243373231526560408201527131b2b4bb32b91034b6b83632b6b2b73a32b960711b606082015260800190565b634e487b7160e01b600052601260045260246000fd5b6000826112505761125061122b565b500490565b6000826112645761126461122b565b500690565b634e487b7160e01b600052603260045260246000fd5b6001600160a01b03858116825284166020820152604081018390526080606082018190526000906112b290830184610e77565b9695505050505050565b6000602082840312156112ce57600080fd5b81516106db81610e2056fea264697066735822122087f50bc36b9c80288d8ddb9cbb5c4409460adf6aab101219db3ff305984c1e3d64736f6c63430008120033",
  "linkReferences": {},
  "deployedLinkReferences": {}
}