{
  "_format": "hh-sol-artifact-1",
  "contractName": "UnsignedHelper",
  "sourceName": "contracts/innovation/archieved/UnsignedHelp.sol",
  "abi": [
    {
      "inputs": [],
      "stateMutability": "nonpayable",
      "type": "constructor"
    },
    {
      "inputs": [
        {
          "internalType": "bytes",
          "name": "atomCallBytes",
          "type": "bytes"
        },
        {
          "internalType": "bytes",
          "name": "unsignedData",
          "type": "bytes"
        }
      ],
      "name": "atomSignCallWithUnsignedData",
      "outputs": [],
      "stateMutability": "nonpayable",
      "type": "function"
    }
  ],
  "bytecode": "0x608060405234801561001057600080fd5b50610495806100206000396000f3fe608060405234801561001057600080fd5b506004361061002b5760003560e01c80633e7e4bc414610030575b600080fd5b61004361003e3660046102e1565b610045565b005b60005b8381101561029157600085828661006082601461034d565b9261006d93929190610374565b6100769161039e565b60601c90506000868661008a85601461034d565b9061009686603461034d565b926100a393929190610374565b6100ac916103d3565b9050600087876100bd86603461034d565b906100c987605461034d565b926100d693929190610374565b6100df916103d3565b90506000606036828b8b6100f48a605461034d565b90876101018c605461034d565b61010b919061034d565b9261011893929190610374565b915091507f3040d74aefb16bffade2625c6a7587044f8f4537c95cf5b0dd3dea04013898fb60001b82826040516101509291906103f1565b6040518091039020036101fd57866001600160a01b0316868b8b60405160240161017b929190610401565b60408051601f198184030181529181526020820180516001600160e01b031663376d1c7560e01b179052516101b09190610430565b60006040518083038185875af1925050503d80600081146101ed576040519150601f19603f3d011682016040523d82523d6000602084013e6101f2565b606091505b509094509250610261565b866001600160a01b03168683836040516102189291906103f1565b60006040518083038185875af1925050503d8060008114610255576040519150601f19603f3d011682016040523d82523d6000602084013e61025a565b606091505b5090945092505b8361026e57825160208401fd5b61027985605461034d565b610283908961034d565b975050505050505050610048565b5050505050565b60008083601f8401126102aa57600080fd5b50813567ffffffffffffffff8111156102c257600080fd5b6020830191508360208285010111156102da57600080fd5b9250929050565b600080600080604085870312156102f757600080fd5b843567ffffffffffffffff8082111561030f57600080fd5b61031b88838901610298565b9096509450602087013591508082111561033457600080fd5b5061034187828801610298565b95989497509550505050565b8082018082111561036e57634e487b7160e01b600052601160045260246000fd5b92915050565b6000808585111561038457600080fd5b8386111561039157600080fd5b5050820193919092039150565b6bffffffffffffffffffffffff1981358181169160148510156103cb5780818660140360031b1b83161692505b505092915050565b8035602083101561036e57600019602084900360031b1b1692915050565b8183823760009101908152919050565b60208152816020820152818360408301376000818301604090810191909152601f909201601f19160101919050565b6000825160005b818110156104515760208186018101518583015201610437565b50600092019182525091905056fea2646970667358221220a5ed1e1d595b0246473511a4366a5f4678e285a5ac9f59422ce9b34f79b53b4664736f6c63430008120033",
  "linkReferences": {},
  "deployedLinkReferences": {}
}