{
  "_format": "hh-sol-artifact-1",
  "contractName": "UnsignedHelper",
  "sourceName": "contracts/innovation/archieved/UnsignedHelp.sol",
  "abi": [
    {
      "inputs": [],
      "stateMutability": "nonpayable",
      "type": "constructor"
    },
    {
      "inputs": [
        {
          "internalType": "bytes",
          "name": "atomCallBytes",
          "type": "bytes"
        },
        {
          "internalType": "bytes",
          "name": "unsignedData",
          "type": "bytes"
        }
      ],
      "name": "atomSignCallWithUnsignedData",
      "outputs": [],
      "stateMutability": "nonpayable",
      "type": "function"
    }
  ],
  "bytecode": "0x608060405234801561000f575f80fd5b506104728061001d5f395ff3fe608060405234801561000f575f80fd5b5060043610610029575f3560e01c80633e7e4bc41461002d575b5f80fd5b61004061003b3660046102ce565b610042565b005b5f5b83811015610282575f85828661005b826014610335565b926100689392919061035a565b61007191610381565b60601c90505f8686610084856014610335565b90610090866034610335565b9261009d9392919061035a565b6100a6916103b6565b90505f87876100b6866034610335565b906100c2876054610335565b926100cf9392919061035a565b6100d8916103b6565b90505f606036828b8b6100ec8a6054610335565b90876100f98c6054610335565b6101039190610335565b926101109392919061035a565b915091507f3040d74aefb16bffade2625c6a7587044f8f4537c95cf5b0dd3dea04013898fb5f1b82826040516101479291906103d3565b6040518091039020036101f157866001600160a01b0316868b8b6040516024016101729291906103e2565b60408051601f198184030181529181526020820180516001600160e01b031663376d1c7560e01b179052516101a79190610410565b5f6040518083038185875af1925050503d805f81146101e1576040519150601f19603f3d011682016040523d82523d5f602084013e6101e6565b606091505b509094509250610252565b866001600160a01b031686838360405161020c9291906103d3565b5f6040518083038185875af1925050503d805f8114610246576040519150601f19603f3d011682016040523d82523d5f602084013e61024b565b606091505b5090945092505b8361025f57825160208401fd5b61026a856054610335565b6102749089610335565b975050505050505050610044565b5050505050565b5f8083601f840112610299575f80fd5b50813567ffffffffffffffff8111156102b0575f80fd5b6020830191508360208285010111156102c7575f80fd5b9250929050565b5f805f80604085870312156102e1575f80fd5b843567ffffffffffffffff808211156102f8575f80fd5b61030488838901610289565b9096509450602087013591508082111561031c575f80fd5b5061032987828801610289565b95989497509550505050565b8082018082111561035457634e487b7160e01b5f52601160045260245ffd5b92915050565b5f8085851115610368575f80fd5b83861115610374575f80fd5b5050820193919092039150565b6bffffffffffffffffffffffff1981358181169160148510156103ae5780818660140360031b1b83161692505b505092915050565b80356020831015610354575f19602084900360031b1b1692915050565b818382375f9101908152919050565b60208152816020820152818360408301375f818301604090810191909152601f909201601f19160101919050565b5f82515f5b8181101561042f5760208186018101518583015201610415565b505f92019182525091905056fea2646970667358221220cf43d8ee2824490c5270971ed03e08d3fda84ccd8edfc7859c890077faba07d264736f6c63430008180033",
  "linkReferences": {},
  "deployedLinkReferences": {}
}