{
  "_format": "hh-sol-artifact-1",
  "contractName": "PoolFactory",
  "sourceName": "contracts/innovation/trade/PoolFactory.sol",
  "abi": [
    {
      "inputs": [],
      "stateMutability": "nonpayable",
      "type": "constructor"
    },
    {
      "anonymous": false,
      "inputs": [
        {
          "indexed": false,
          "internalType": "address",
          "name": "pool",
          "type": "address"
        },
        {
          "indexed": false,
          "internalType": "address",
          "name": "v3PoolAddr",
          "type": "address"
        }
      ],
      "name": "PoolCreated",
      "type": "event"
    },
    {
      "inputs": [
        {
          "internalType": "address",
          "name": "v3PoolAddr",
          "type": "address"
        },
        {
          "internalType": "address",
          "name": "stableTokenAddr",
          "type": "address"
        }
      ],
      "name": "createPool",
      "outputs": [
        {
          "internalType": "address",
          "name": "",
          "type": "address"
        }
      ],
      "stateMutability": "nonpayable",
      "type": "function"
    },
    {
      "inputs": [
        {
          "internalType": "address",
          "name": "",
          "type": "address"
        }
      ],
      "name": "pools",
      "outputs": [
        {
          "internalType": "bool",
          "name": "",
          "type": "bool"
        }
      ],
      "stateMutability": "view",
      "type": "function"
    }
  ],
  "bytecode": "0x608060405234801561001057600080fd5b506110e6806100206000396000f3fe608060405234801561001057600080fd5b50600436106100365760003560e01c8063a4063dbc1461003b578063e343361514610073575b600080fd5b61005e610049366004610176565b60006020819052908152604090205460ff1681565b60405190151581526020015b60405180910390f35b610086610081366004610198565b61009e565b6040516001600160a01b03909116815260200161006a565b60008083836040516100af9061014d565b6001600160a01b03928316815291166020820152604001604051809103906000f0801580156100e2573d6000803e3d6000fd5b506001600160a01b0381811660008181526020818152604091829020805460ff191660011790558151928352928816928201929092529192507f4f2ce4e40f623ca765fc0167a25cb7842ceaafb8d82d3dec26ca0d0e0d2d4896910160405180910390a19392505050565b610ee5806101cc83390190565b80356001600160a01b038116811461017157600080fd5b919050565b60006020828403121561018857600080fd5b6101918261015a565b9392505050565b600080604083850312156101ab57600080fd5b6101b48361015a565b91506101c26020840161015a565b9050925092905056fe60806040523480156200001157600080fd5b5060405162000ee538038062000ee58339810160408190526200003491620001e7565b600480546001600160a01b03199081166001600160a01b0384811691821784556006805490931690861690811790925560408051630dfe168160e01b815290519193630dfe16819282820192602092908290030181865afa1580156200009e573d6000803e3d6000fd5b505050506040513d601f19601f82011682018060405250810190620000c491906200021f565b6001600160a01b031614806200015257506006546040805163d21220a760e01b815290516001600160a01b0380851693169163d21220a79160048083019260209291908290030181865afa15801562000121573d6000803e3d6000fd5b505050506040513d601f19601f820116820180604052508101906200014791906200021f565b6001600160a01b0316145b620001a35760405162461bcd60e51b815260206004820152601560248201527f737461626c65546f6b656e41646472206572726f720000000000000000000000604482015260640160405180910390fd5b600780546001600160a01b0319166001600160a01b03929092169190911790555062000244565b80516001600160a01b0381168114620001e257600080fd5b919050565b60008060408385031215620001fb57600080fd5b6200020683620001ca565b91506200021660208401620001ca565b90509250929050565b6000602082840312156200023257600080fd5b6200023d82620001ca565b9392505050565b610c9180620002546000396000f3fe608060405234801561001057600080fd5b50600436106100935760003560e01c80633a924d5b116100665780633a924d5b14610118578063a9d75b2b14610143578063b6b55f2514610156578063f40f0f5214610169578063f7c618c11461017c57600080fd5b8063026c4207146100985780630e5c011e146100b45780631959a002146100c95780632e1a7d4d14610105575b600080fd5b6100a160015481565b6040519081526020015b60405180910390f35b6100c76100c2366004610af0565b61018f565b005b6100f06100d7366004610af0565b6000602081905290815260409020805460019091015482565b604080519283526020830191909152016100ab565b6100c7610113366004610b19565b61019c565b60065461012b906001600160a01b031681565b6040516001600160a01b0390911681526020016100ab565b60075461012b906001600160a01b031681565b6100c7610164366004610b19565b6102f0565b6100a1610177366004610af0565b61032b565b60045461012b906001600160a01b031681565b6101993382610453565b50565b336000908152602081905260409020600101548111156101f75760405162461bcd60e51b81526020600482015260116024820152700eed2e8d0c8e4c2ee40e8dede40daeac6d607b1b60448201526064015b60405180910390fd5b6007546040516370a0823160e01b815230600482015282916001600160a01b0316906370a0823190602401602060405180830381865afa15801561023f573d6000803e3d6000fd5b505050506040513d601f19601f820116820180604052508101906102639190610b32565b10156102b15760405162461bcd60e51b815260206004820152601d60248201527f77616974696e6720706f6f6c20676f7420656e6f75676820746f6b656e00000060448201526064016101ee565b6007546102c8906001600160a01b03163383610537565b3360008181526020819052604090206001015461019991906102eb908490610b61565b61059f565b600754610308906001600160a01b0316333084610782565b3360008181526020819052604090206001015461019991906102eb908490610b7a565b6001600160a01b038181166000908152602081815260408083208151808301835281548152600190910154928101929092526004805491516370a0823160e01b8152309181019190915292939192849291909116906370a0823190602401602060405180830381865afa1580156103a6573d6000803e3d6000fd5b505050506040513d601f19601f820116820180604052508101906103ca9190610b32565b90506000600354826002546103df9190610b7a565b6103e99190610b61565b905060006001548264e8d4a510006104019190610b8d565b61040b9190610ba4565b6005546104189190610b7a565b9050836000015164e8d4a510008286602001516104359190610b8d565b61043f9190610ba4565b6104499190610b61565b9695505050505050565b6001600160a01b0382166000908152602081905260408120600181015490910361047c57505050565b6104846107ba565b600061048f8461032b565b905080156105315764e8d4a5100060055483600101546104af9190610b8d565b6104b99190610ba4565b82556002546104c9908290610b7a565b6002556004546104e3906001600160a01b03168483610537565b826001600160a01b0316846001600160a01b03167f49e6aa9a971bb7d18b2ede509ae7267a8861aae4e7c444a27af1d3037d7391178360405161052891815260200190565b60405180910390a35b50505050565b6040516001600160a01b03831660248201526044810182905261059a90849063a9059cbb60e01b906064015b60408051601f198184030181529190526020810180516001600160e01b03166001600160e01b03199093169290921790915261089b565b505050565b6001600160a01b03821660009081526020819052604081209082900361063e576105c98384610453565b80600101546001546105db9190610b61565b60019081556001600160a01b0384166000818152602081905260408082208281559093015590517f43e834d13414d47036ba1acadf69f7135b912cfd4d053ca9fdfc8b0f0839bfe4906106319085815260200190565b60405180910390a2505050565b80600101546000036106f6576106526107ba565b816001546106609190610b7a565b60015560055460009064e8d4a510009061067a9085610b8d565b6106849190610ba4565b60408051808201825282815260208082018781526001600160a01b03891660008181528084528590209351845590516001909301929092559151868152929350917f43e834d13414d47036ba1acadf69f7135b912cfd4d053ca9fdfc8b0f0839bfe4910160405180910390a250505050565b6107008384610453565b8060010154826001546107139190610b7a565b61071d9190610b61565b6001908155810182905560055464e8d4a510009061073b9084610b8d565b6107459190610ba4565b81556040518281526001600160a01b038416907f43e834d13414d47036ba1acadf69f7135b912cfd4d053ca9fdfc8b0f0839bfe490602001610631565b6040516001600160a01b03808516602483015283166044820152606481018290526105319085906323b872dd60e01b90608401610563565b6001546000036107c657565b600480546040516370a0823160e01b815230928101929092526000916001600160a01b03909116906370a0823190602401602060405180830381865afa158015610814573d6000803e3d6000fd5b505050506040513d601f19601f820116820180604052508101906108389190610b32565b905060006003548260025461084d9190610b7a565b6108579190610b61565b60015490915061086c8264e8d4a51000610b8d565b6108769190610ba4565b6005546108839190610b7a565b600555600254610894908390610b7a565b6003555050565b60006108f0826040518060400160405280602081526020017f5361666545524332303a206c6f772d6c6576656c2063616c6c206661696c6564815250856001600160a01b031661096d9092919063ffffffff16565b80519091501561059a578080602001905181019061090e9190610bc6565b61059a5760405162461bcd60e51b815260206004820152602a60248201527f5361666545524332303a204552433230206f7065726174696f6e20646964206e6044820152691bdd081cdd58d8d9595960b21b60648201526084016101ee565b606061097c8484600085610986565b90505b9392505050565b6060824710156109e75760405162461bcd60e51b815260206004820152602660248201527f416464726573733a20696e73756666696369656e742062616c616e636520666f6044820152651c8818d85b1b60d21b60648201526084016101ee565b6001600160a01b0385163b610a3e5760405162461bcd60e51b815260206004820152601d60248201527f416464726573733a2063616c6c20746f206e6f6e2d636f6e747261637400000060448201526064016101ee565b600080866001600160a01b03168587604051610a5a9190610c0c565b60006040518083038185875af1925050503d8060008114610a97576040519150601f19603f3d011682016040523d82523d6000602084013e610a9c565b606091505b5091509150610aac828286610ab7565b979650505050505050565b60608315610ac657508161097f565b825115610ad65782518084602001fd5b8160405162461bcd60e51b81526004016101ee9190610c28565b600060208284031215610b0257600080fd5b81356001600160a01b038116811461097f57600080fd5b600060208284031215610b2b57600080fd5b5035919050565b600060208284031215610b4457600080fd5b5051919050565b634e487b7160e01b600052601160045260246000fd5b81810381811115610b7457610b74610b4b565b92915050565b80820180821115610b7457610b74610b4b565b8082028115828204841417610b7457610b74610b4b565b600082610bc157634e487b7160e01b600052601260045260246000fd5b500490565b600060208284031215610bd857600080fd5b8151801515811461097f57600080fd5b60005b83811015610c03578181015183820152602001610beb565b50506000910152565b60008251610c1e818460208701610be8565b9190910192915050565b6020815260008251806020840152610c47816040850160208701610be8565b601f01601f1916919091016040019291505056fea264697066735822122057cc2f36b0d064d7914734473db1c2cafab4dff760ef5d651740353412c3047264736f6c63430008120033a2646970667358221220858a79b367916b2fcae5f9c3c3970840561c88e90979594a03a9db7e0a3ddd2264736f6c63430008120033",
  "linkReferences": {},
  "deployedLinkReferences": {}
}