{
  "_format": "hh-sol-artifact-1",
  "contractName": "WalletFactory",
  "sourceName": "contracts/wallet/WalletFactory.sol",
  "abi": [
    {
      "inputs": [
        {
          "internalType": "address",
          "name": "_owner",
          "type": "address"
        }
      ],
      "stateMutability": "nonpayable",
      "type": "constructor"
    },
    {
      "anonymous": false,
      "inputs": [
        {
          "indexed": true,
          "internalType": "address",
          "name": "wallet",
          "type": "address"
        },
        {
          "indexed": false,
          "internalType": "address",
          "name": "walletOwner",
          "type": "address"
        },
        {
          "indexed": false,
          "internalType": "address",
          "name": "bundler",
          "type": "address"
        }
      ],
      "name": "WalletCreated",
      "type": "event"
    },
    {
      "inputs": [
        {
          "internalType": "bytes32",
          "name": "salt",
          "type": "bytes32"
        }
      ],
      "name": "computeWalletAddr",
      "outputs": [
        {
          "internalType": "address",
          "name": "",
          "type": "address"
        }
      ],
      "stateMutability": "view",
      "type": "function"
    },
    {
      "inputs": [
        {
          "internalType": "bytes32",
          "name": "salt",
          "type": "bytes32"
        },
        {
          "internalType": "address",
          "name": "walletOwner",
          "type": "address"
        },
        {
          "internalType": "address",
          "name": "bundler",
          "type": "address"
        }
      ],
      "name": "createWallet",
      "outputs": [
        {
          "internalType": "address",
          "name": "",
          "type": "address"
        }
      ],
      "stateMutability": "nonpayable",
      "type": "function"
    },
    {
      "inputs": [],
      "name": "owner",
      "outputs": [
        {
          "internalType": "address",
          "name": "",
          "type": "address"
        }
      ],
      "stateMutability": "view",
      "type": "function"
    },
    {
      "inputs": [
        {
          "internalType": "address",
          "name": "",
          "type": "address"
        }
      ],
      "name": "wallets",
      "outputs": [
        {
          "internalType": "bool",
          "name": "",
          "type": "bool"
        }
      ],
      "stateMutability": "view",
      "type": "function"
    }
  ],
  "bytecode": "0x60a060405234801561000f575f80fd5b50604051611d09380380611d0983398101604081905261002e9161003f565b6001600160a01b031660805261006c565b5f6020828403121561004f575f80fd5b81516001600160a01b0381168114610065575f80fd5b9392505050565b608051611c806100895f395f8181608a015260ed0152611c805ff3fe608060405234801561000f575f80fd5b506004361061004a575f3560e01c806389b08f111461004e5780638da5cb5b14610085578063ac35b1d4146100c4578063ef32a249146100d7575b5f80fd5b61007061005c36600461032a565b5f6020819052908152604090205460ff1681565b60405190151581526020015b60405180910390f35b6100ac7f000000000000000000000000000000000000000000000000000000000000000081565b6040516001600160a01b03909116815260200161007c565b6100ac6100d236600461034a565b6100ea565b6100ac6100e5366004610383565b610268565b5f7f00000000000000000000000000000000000000000000000000000000000000006001600160a01b031633146101725760405162461bcd60e51b815260206004820152602260248201527f6f6e6c794f776e65723a2063616c6c6572206973206e6f7420746865206f776e60448201526132b960f11b606482015260840160405180910390fd5b5f8460405161018090610302565b8190604051809103905ff590508015801561019d573d5f803e3d5ffd5b5060405163784d200b60e11b81526001600160a01b03868116600483015285811660248301529192509082169063f09a4016906044015f604051808303815f87803b1580156101ea575f80fd5b505af11580156101fc573d5f803e3d5ffd5b505050506001600160a01b038181165f8181526020818152604091829020805460ff19166001179055815188851681529387169084015290917fca0b7dde26052d34217ef1a0cee48085a07ca32da0a918609937a307d496bbf5910160405180910390a2949350505050565b5f8060ff60f81b30846040518060200161028190610302565b6020820181038252601f19601f82011660405250805190602001206040516020016102e394939291906001600160f81b031994909416845260609290921b6bffffffffffffffffffffffff191660018401526015830152603582015260550190565b60408051601f1981840301815291905280516020909101209392505050565b6118b08061039b83390190565b80356001600160a01b0381168114610325575f80fd5b919050565b5f6020828403121561033a575f80fd5b6103438261030f565b9392505050565b5f805f6060848603121561035c575f80fd5b8335925061036c6020850161030f565b915061037a6040850161030f565b90509250925092565b5f60208284031215610393575f80fd5b503591905056fe60a06040525f805464ffffffff001916610100179055348015610020575f80fd5b50306080526080516118506100605f395f818161068b015281816107ad015281816108c201528181610aa801528181610b140152610c3a01526118505ff3fe6080604052600436106100fd575f3560e01c80638da5cb5b11610092578063b75814e511610062578063b75814e51461029a578063c1991219146102d8578063e52903b41461030d578063ebaf3eb51461032c578063f09a401614610340575f80fd5b80638da5cb5b14610214578063a6f9dae114610239578063ad0ffd8b14610258578063afd2d31a14610277575f80fd5b806356e7b7aa116100cd57806356e7b7aa146101a3578063797de9c2146101c25780637e4a1196146101e15780638010137214610200575f80fd5b80631383989714610108578063142d328d1461014457806325460f86146101655780633c69640f14610184575f80fd5b3661010457005b5f80fd5b348015610113575f80fd5b50600354610127906001600160a01b031681565b6040516001600160a01b0390911681526020015b60405180910390f35b34801561014f575f80fd5b5061016361015e3660046113c5565b61035f565b005b348015610170575f80fd5b5061016361017f36600461144c565b610581565b34801561018f575f80fd5b5061016361019e36600461147e565b61066f565b3480156101ae575f80fd5b506101636101bd366004611515565b6107ab565b3480156101cd575f80fd5b506101636101dc366004611564565b6108a6565b3480156101ec575f80fd5b50600254610127906001600160a01b031681565b34801561020b575f80fd5b50610163610941565b34801561021f575f80fd5b505f5461012790600160281b90046001600160a01b031681565b348015610244575f80fd5b506101636102533660046115a3565b610a8c565b348015610263575f80fd5b50600154610127906001600160a01b031681565b348015610282575f80fd5b5061028c60045481565b60405190815260200161013b565b3480156102a5575f80fd5b506102c86102b436600461144c565b60056020525f908152604090205460ff1681565b604051901515815260200161013b565b3480156102e3575f80fd5b505f546102f890610100900463ffffffff1681565b60405163ffffffff909116815260200161013b565b348015610318575f80fd5b506101636103273660046115a3565b610af8565b348015610337575f80fd5b50610163610c1e565b34801561034b575f80fd5b5061016361035a3660046115c3565b610c9d565b6001546001600160a01b031633146103925760405162461bcd60e51b8152600401610389906115f4565b60405180910390fd5b428363ffffffff1610156103e05760405162461bcd60e51b8152602060048201526015602482015274185d1bdb54da59db90d85b1b0e88115e1c1a5c9959605a1b6044820152606401610389565b5f80803660206103f0868361164e565b6103fa919061164e565b9261040793929190611661565b5f5460405161043493929146913060601b91610100900460e01b6001600160e01b03191690602001611688565b60408051601f1981840301815291815281516020928301205f818152600590935291205490915060ff16156104ab5760405162461bcd60e51b815260206004820152601a60248201527f61746f6d5369676e43616c6c3a2055736564206d7367486173680000000000006044820152606401610389565b6104f583838080601f0160208091040260200160405190810160405280939291908181526020018383808284375f920191909152506104ef9250859150610d2d9050565b90610d7f565b5f54600160281b90046001600160a01b039081169116146105585760405162461bcd60e51b815260206004820152601f60248201527f61746f6d5369676e43616c6c3a20496e76616c6964205369676e6174757265006044820152606401610389565b6105628686610da3565b5f908152600560205260409020805460ff191660011790555050505050565b6003546001600160a01b0316331461060f5760405162461bcd60e51b8152602060048201526044602482018190527f6f6e6c795075626c6963536f6369616c5265636f766572793a2063616c6c6572908201527f206973206e6f7420746865206f6e6c795075626c6963536f6369616c5265636f6064820152637665727960e01b608482015260a401610389565b60a081901c6004036106275761062481611031565b50565b60405162461bcd60e51b815260206004820152601a60248201527f61646f707450726f706f73616c3a20756e737570706f727465640000000000006044820152606401610389565b5f54600160281b90046001600160a01b03163314806106b657507f00000000000000000000000000000000000000000000000000000000000000006001600160a01b031633145b6106d25760405162461bcd60e51b8152600401610389906116c0565b6003546001600160a01b0316156107355760405162461bcd60e51b815260206004820152602160248201527f696e6974536f6369616c5265636f766572793a20616c726561647920657869736044820152601d60fa1b6064820152608401610389565b600380546001600160a01b0319166001600160a01b038616908117909155604051631336ebff60e11b815263266dd7fe906107789086908690869060040161170d565b5f604051808303815f87803b15801561078f575f80fd5b505af11580156107a1573d5f803e3d5ffd5b5050505050505050565b7f00000000000000000000000000000000000000000000000000000000000000006001600160a01b031633146108345760405162461bcd60e51b815260206004820152602860248201527f6f6e6c794f726967696e616c3a2063616c6c6572206973206e6f7420746865206044820152671bdc9a59da5b985b60c21b6064820152608401610389565b5f80846001600160a01b03168484604051610850929190611764565b5f60405180830381855af49150503d805f8114610888576040519150601f19603f3d011682016040523d82523d5f602084013e61088d565b606091505b50915091508161089f57805160208201fd5b5050505050565b5f54600160281b90046001600160a01b03163314806108ed57507f00000000000000000000000000000000000000000000000000000000000000006001600160a01b031633145b6109095760405162461bcd60e51b8152600401610389906116c0565b6001546001600160a01b031633146109335760405162461bcd60e51b8152600401610389906115f4565b61093d8282610da3565b5050565b6002546001600160a01b031633146109b85760405162461bcd60e51b815260206004820152603460248201527f6f6e6c7950656e64696e6742756e646c65723a2063616c6c6572206973206e6f6044820152733a103a3432903832b73234b733a13ab7323632b960611b6064820152608401610389565b6004546109c89062093a80611773565b4211610a215760405162461bcd60e51b815260206004820152602260248201527f726573657442756e646c65723a206e65656473203720646179732070656e64696044820152616e6760f01b6064820152608401610389565b60028054600180546001600160a01b0383166001600160a01b031991821681179092559091169091555f60048190556040805192835260208301919091527f81932e26d3d6b8d613dd60331202ebefe49c5008c05597954a66138b6c505b25910160405180910390a1565b5f54600160281b90046001600160a01b0316331480610ad357507f00000000000000000000000000000000000000000000000000000000000000006001600160a01b031633145b610aef5760405162461bcd60e51b8152600401610389906116c0565b61062481611031565b5f54600160281b90046001600160a01b0316331480610b3f57507f00000000000000000000000000000000000000000000000000000000000000006001600160a01b031633145b610b5b5760405162461bcd60e51b8152600401610389906116c0565b610b63610c1e565b600280546001600160a01b0319166001600160a01b038316908117909155610bd2575f600455600154604080516001600160a01b0390921680835260208301527f81932e26d3d6b8d613dd60331202ebefe49c5008c05597954a66138b6c505b2591015b60405180910390a150565b42600455600154600254604080516001600160a01b0393841681529290911660208301527fbd265fea90ed2756df9ac57b162d7d95b2bbd80e1720fca48d685e4a5a7e4c6c9101610bc7565b5f54600160281b90046001600160a01b0316331480610c6557507f00000000000000000000000000000000000000000000000000000000000000006001600160a01b031633145b610c815760405162461bcd60e51b8152600401610389906116c0565b5f805464ffffffff001916610100434063ffffffff1602179055565b5f5460ff1615610ce75760405162461bcd60e51b8152602060048201526015602482015274696e697428292072756e73206f6e6c79206f6e636560581b6044820152606401610389565b5f8054600180546001600160a01b039485166001600160a01b031990911617815593909216600160281b0264ffffffff01600160c81b0319909216919091179091179055565b6040517f19457468657265756d205369676e6564204d6573736167653a0a3332000000006020820152603c81018290525f90605c01604051602081830303815290604052805190602001209050919050565b5f805f610d8c85856110ab565b91509150610d99816110ed565b5090505b92915050565b5f5b8181101561102c575f838284610dbc826014611773565b92610dc993929190611661565b610dd291611786565b60601c90505f8484610de5856014611773565b90610df1866015611773565b92610dfe93929190611661565b610e07916117bb565b6001600160f81b0319161580159150610f3b575f8585610e28866015611773565b90610e34876035611773565b92610e4193929190611661565b610e4a916117e9565b90505f8686610e5a876035611773565b90610e66886055611773565b92610e7393929190611661565b610e7c916117e9565b90505f806001600160a01b038616848a8a610e988b6055611773565b9087610ea58d6055611773565b610eaf9190611773565b92610ebc93929190611661565b604051610eca929190611764565b5f6040518083038185875af1925050503d805f8114610f04576040519150601f19603f3d011682016040523d82523d5f602084013e610f09565b606091505b509150915081610f1b57805160208201fd5b610f26836055611773565b610f309088611773565b965050505050611025565b5f8585610f49866015611773565b90610f55876035611773565b92610f6293929190611661565b610f6b916117e9565b90505f806001600160a01b038516818989610f878a6035611773565b9087610f948c6035611773565b610f9e9190611773565b92610fab93929190611661565b604051610fb9929190611764565b5f6040518083038185875af1925050503d805f8114610ff3576040519150601f19603f3d011682016040523d82523d5f602084013e610ff8565b606091505b50915091508161100a57805160208201fd5b611015836035611773565b61101f9087611773565b95505050505b5050610da5565b505050565b5f54604080516001600160a01b03600160281b9093048316815291831660208301527fb532073b38c83145e3e5135377a08bf9aab55bc0fd7c1179cd4fb995d2a5159c910160405180910390a15f80546001600160a01b03909216600160281b0265010000000000600160c81b0319909216919091179055565b5f8082516041036110df576020830151604084015160608501515f1a6110d3878285856112a2565b945094505050506110e6565b505f905060025b9250929050565b5f81600481111561110057611100611806565b036111085750565b600181600481111561111c5761111c611806565b036111695760405162461bcd60e51b815260206004820152601860248201527f45434453413a20696e76616c6964207369676e617475726500000000000000006044820152606401610389565b600281600481111561117d5761117d611806565b036111ca5760405162461bcd60e51b815260206004820152601f60248201527f45434453413a20696e76616c6964207369676e6174757265206c656e677468006044820152606401610389565b60038160048111156111de576111de611806565b036112365760405162461bcd60e51b815260206004820152602260248201527f45434453413a20696e76616c6964207369676e6174757265202773272076616c604482015261756560f01b6064820152608401610389565b600481600481111561124a5761124a611806565b036106245760405162461bcd60e51b815260206004820152602260248201527f45434453413a20696e76616c6964207369676e6174757265202776272076616c604482015261756560f01b6064820152608401610389565b5f807f7fffffffffffffffffffffffffffffff5d576e7357a4501ddfe92f46681b20a08311156112d757505f9050600361137e565b8460ff16601b141580156112ef57508460ff16601c14155b156112ff57505f9050600461137e565b604080515f8082526020820180845289905260ff881692820192909252606081018690526080810185905260019060a0016020604051602081039080840390855afa158015611350573d5f803e3d5ffd5b5050604051601f1901519150506001600160a01b038116611378575f6001925092505061137e565b91505f90505b94509492505050565b5f8083601f840112611397575f80fd5b50813567ffffffffffffffff8111156113ae575f80fd5b6020830191508360208285010111156110e6575f80fd5b5f805f805f606086880312156113d9575f80fd5b853567ffffffffffffffff808211156113f0575f80fd5b6113fc89838a01611387565b90975095506020880135915063ffffffff82168214611419575f80fd5b9093506040870135908082111561142e575f80fd5b5061143b88828901611387565b969995985093965092949392505050565b5f6020828403121561145c575f80fd5b5035919050565b80356001600160a01b0381168114611479575f80fd5b919050565b5f805f8060608587031215611491575f80fd5b61149a85611463565b9350602085013567ffffffffffffffff808211156114b6575f80fd5b818701915087601f8301126114c9575f80fd5b8135818111156114d7575f80fd5b8860208260051b85010111156114eb575f80fd5b602083019550809450505050604085013560ff8116811461150a575f80fd5b939692955090935050565b5f805f60408486031215611527575f80fd5b61153084611463565b9250602084013567ffffffffffffffff81111561154b575f80fd5b61155786828701611387565b9497909650939450505050565b5f8060208385031215611575575f80fd5b823567ffffffffffffffff81111561158b575f80fd5b61159785828601611387565b90969095509350505050565b5f602082840312156115b3575f80fd5b6115bc82611463565b9392505050565b5f80604083850312156115d4575f80fd5b6115dd83611463565b91506115eb60208401611463565b90509250929050565b60208082526026908201527f6f6e6c7942756e646c65723a2063616c6c6572206973206e6f742074686520626040820152653ab7323632b960d11b606082015260800190565b634e487b7160e01b5f52601160045260245ffd5b81810381811115610d9d57610d9d61163a565b5f808585111561166f575f80fd5b8386111561167b575f80fd5b5050820193919092039150565b848682379093019182526bffffffffffffffffffffffff191660208201526001600160e01b0319919091166034820152603801919050565b6020808252602d908201527f6f6e6c794f776e6572416e644f726967696e616c3a2063616c6c65722069732060408201526c3737ba103a34329037bbb732b960991b606082015260800190565b604080825281018390525f8460608301825b8681101561174d576001600160a01b0361173884611463565b1682526020928301929091019060010161171f565b50809250505060ff83166020830152949350505050565b818382375f9101908152919050565b80820180821115610d9d57610d9d61163a565b6bffffffffffffffffffffffff1981358181169160148510156117b35780818660140360031b1b83161692505b505092915050565b6001600160f81b031981358181169160018510156117b35760019490940360031b84901b1690921692915050565b80356020831015610d9d575f19602084900360031b1b1692915050565b634e487b7160e01b5f52602160045260245ffdfea2646970667358221220004f8b2c4312771e732b51479c7e1ecc19bd32d4427e02b8f00a79cd5078ca2f64736f6c63430008180033a264697066735822122069c66c27d82afb5299019c2de0fe4fd7245da1ae36807a51b6ec7da99720faf364736f6c63430008180033",
  "linkReferences": {},
  "deployedLinkReferences": {}
}