{
  "_format": "hh-sol-artifact-1",
  "contractName": "WalletFactory",
  "sourceName": "contracts/wallet/WalletFactory.sol",
  "abi": [
    {
      "inputs": [
        {
          "internalType": "address",
          "name": "_owner",
          "type": "address"
        }
      ],
      "stateMutability": "nonpayable",
      "type": "constructor"
    },
    {
      "anonymous": false,
      "inputs": [
        {
          "indexed": true,
          "internalType": "address",
          "name": "wallet",
          "type": "address"
        },
        {
          "indexed": false,
          "internalType": "address",
          "name": "walletOwner",
          "type": "address"
        },
        {
          "indexed": false,
          "internalType": "address",
          "name": "bundler",
          "type": "address"
        }
      ],
      "name": "WalletCreated",
      "type": "event"
    },
    {
      "inputs": [
        {
          "internalType": "bytes32",
          "name": "salt",
          "type": "bytes32"
        }
      ],
      "name": "computeWalletAddr",
      "outputs": [
        {
          "internalType": "address",
          "name": "",
          "type": "address"
        }
      ],
      "stateMutability": "view",
      "type": "function"
    },
    {
      "inputs": [
        {
          "internalType": "bytes32",
          "name": "salt",
          "type": "bytes32"
        },
        {
          "internalType": "address",
          "name": "walletOwner",
          "type": "address"
        },
        {
          "internalType": "address",
          "name": "bundler",
          "type": "address"
        }
      ],
      "name": "createWallet",
      "outputs": [
        {
          "internalType": "address",
          "name": "",
          "type": "address"
        }
      ],
      "stateMutability": "nonpayable",
      "type": "function"
    },
    {
      "inputs": [],
      "name": "owner",
      "outputs": [
        {
          "internalType": "address",
          "name": "",
          "type": "address"
        }
      ],
      "stateMutability": "view",
      "type": "function"
    },
    {
      "inputs": [
        {
          "internalType": "address",
          "name": "",
          "type": "address"
        }
      ],
      "name": "wallets",
      "outputs": [
        {
          "internalType": "bool",
          "name": "",
          "type": "bool"
        }
      ],
      "stateMutability": "view",
      "type": "function"
    }
  ],
  "bytecode": "0x60a060405234801561001057600080fd5b50604051611c43380380611c4383398101604081905261002f91610040565b6001600160a01b0316608052610070565b60006020828403121561005257600080fd5b81516001600160a01b038116811461006957600080fd5b9392505050565b608051611bb361009060003960008181608e015260f20152611bb36000f3fe608060405234801561001057600080fd5b506004361061004c5760003560e01c806389b08f11146100515780638da5cb5b14610089578063ac35b1d4146100c8578063ef32a249146100db575b600080fd5b61007461005f36600461033b565b60006020819052908152604090205460ff1681565b60405190151581526020015b60405180910390f35b6100b07f000000000000000000000000000000000000000000000000000000000000000081565b6040516001600160a01b039091168152602001610080565b6100b06100d636600461035d565b6100ee565b6100b06100e9366004610399565b610277565b60007f00000000000000000000000000000000000000000000000000000000000000006001600160a01b031633146101775760405162461bcd60e51b815260206004820152602260248201527f6f6e6c794f776e65723a2063616c6c6572206973206e6f7420746865206f776e60448201526132b960f11b606482015260840160405180910390fd5b60008460405161018690610312565b8190604051809103906000f59050801580156101a6573d6000803e3d6000fd5b5060405163784d200b60e11b81526001600160a01b03868116600483015285811660248301529192509082169063f09a401690604401600060405180830381600087803b1580156101f657600080fd5b505af115801561020a573d6000803e3d6000fd5b505050506001600160a01b0381811660008181526020818152604091829020805460ff19166001179055815188851681529387169084015290917fca0b7dde26052d34217ef1a0cee48085a07ca32da0a918609937a307d496bbf5910160405180910390a2949350505050565b60008060ff60f81b30846040518060200161029190610312565b6020820181038252601f19601f82011660405250805190602001206040516020016102f394939291906001600160f81b031994909416845260609290921b6bffffffffffffffffffffffff191660018401526015830152603582015260550190565b60408051601f1981840301815291905280516020909101209392505050565b6117cb806103b383390190565b80356001600160a01b038116811461033657600080fd5b919050565b60006020828403121561034d57600080fd5b6103568261031f565b9392505050565b60008060006060848603121561037257600080fd5b833592506103826020850161031f565b91506103906040850161031f565b90509250925092565b6000602082840312156103ab57600080fd5b503591905056fe60a06040526000805464ffffffff00191661010017905534801561002257600080fd5b5030608052608051611766610065600039600081816106ac015281816107d3015281816108ed01528181610ad501528181610b420152610c6a01526117666000f3fe6080604052600436106101025760003560e01c80638da5cb5b11610095578063b75814e511610064578063b75814e5146102ad578063c1991219146102ed578063e52903b414610324578063ebaf3eb514610344578063f09a40161461035957600080fd5b80638da5cb5b14610222578063a6f9dae114610249578063ad0ffd8b14610269578063afd2d31a1461028957600080fd5b806356e7b7aa116100d157806356e7b7aa146101ad578063797de9c2146101cd5780637e4a1196146101ed578063801013721461020d57600080fd5b8063138398971461010e578063142d328d1461014b57806325460f861461016d5780633c69640f1461018d57600080fd5b3661010957005b600080fd5b34801561011a57600080fd5b5060035461012e906001600160a01b031681565b6040516001600160a01b0390911681526020015b60405180910390f35b34801561015757600080fd5b5061016b6101663660046112e2565b610379565b005b34801561017957600080fd5b5061016b610188366004611370565b6105a1565b34801561019957600080fd5b5061016b6101a83660046113a5565b61068f565b3480156101b957600080fd5b5061016b6101c8366004611444565b6107d1565b3480156101d957600080fd5b5061016b6101e8366004611497565b6108d0565b3480156101f957600080fd5b5060025461012e906001600160a01b031681565b34801561021957600080fd5b5061016b61096c565b34801561022e57600080fd5b5060005461012e90600160281b90046001600160a01b031681565b34801561025557600080fd5b5061016b6102643660046114d9565b610ab8565b34801561027557600080fd5b5060015461012e906001600160a01b031681565b34801561029557600080fd5b5061029f60045481565b604051908152602001610142565b3480156102b957600080fd5b506102dd6102c8366004611370565b60056020526000908152604090205460ff1681565b6040519015158152602001610142565b3480156102f957600080fd5b5060005461030f90610100900463ffffffff1681565b60405163ffffffff9091168152602001610142565b34801561033057600080fd5b5061016b61033f3660046114d9565b610b25565b34801561035057600080fd5b5061016b610c4d565b34801561036557600080fd5b5061016b6103743660046114fb565b610cce565b6001546001600160a01b031633146103ac5760405162461bcd60e51b81526004016103a39061152e565b60405180910390fd5b428363ffffffff1610156103fa5760405162461bcd60e51b8152602060048201526015602482015274185d1bdb54da59db90d85b1b0e88115e1c1a5c9959605a1b60448201526064016103a3565b6000808036602061040b868361158a565b610415919061158a565b926104229392919061159d565b60005460405161045093929146913060601b91610100900460e01b6001600160e01b031916906020016115c7565b60408051601f1981840301815291815281516020928301206000818152600590935291205490915060ff16156104c85760405162461bcd60e51b815260206004820152601a60248201527f61746f6d5369676e43616c6c3a2055736564206d73674861736800000000000060448201526064016103a3565b61051383838080601f01602080910402602001604051908101604052809392919081815260200183838082843760009201919091525061050d9250859150610d609050565b90610db3565b600054600160281b90046001600160a01b039081169116146105775760405162461bcd60e51b815260206004820152601f60248201527f61746f6d5369676e43616c6c3a20496e76616c6964205369676e61747572650060448201526064016103a3565b6105818686610dd9565b6000908152600560205260409020805460ff191660011790555050505050565b6003546001600160a01b0316331461062f5760405162461bcd60e51b8152602060048201526044602482018190527f6f6e6c795075626c6963536f6369616c5265636f766572793a2063616c6c6572908201527f206973206e6f7420746865206f6e6c795075626c6963536f6369616c5265636f6064820152637665727960e01b608482015260a4016103a3565b60a081901c6004036106475761064481610f3c565b50565b60405162461bcd60e51b815260206004820152601a60248201527f61646f707450726f706f73616c3a20756e737570706f7274656400000000000060448201526064016103a3565b600054600160281b90046001600160a01b03163314806106d757507f00000000000000000000000000000000000000000000000000000000000000006001600160a01b031633145b6106f35760405162461bcd60e51b81526004016103a3906115ff565b6003546001600160a01b0316156107565760405162461bcd60e51b815260206004820152602160248201527f696e6974536f6369616c5265636f766572793a20616c726561647920657869736044820152601d60fa1b60648201526084016103a3565b600380546001600160a01b0319166001600160a01b038616908117909155604051631336ebff60e11b815263266dd7fe906107999086908690869060040161164c565b600060405180830381600087803b1580156107b357600080fd5b505af11580156107c7573d6000803e3d6000fd5b5050505050505050565b7f00000000000000000000000000000000000000000000000000000000000000006001600160a01b0316331461085a5760405162461bcd60e51b815260206004820152602860248201527f6f6e6c794f726967696e616c3a2063616c6c6572206973206e6f7420746865206044820152671bdc9a59da5b985b60c21b60648201526084016103a3565b600080846001600160a01b031684846040516108779291906116a4565b600060405180830381855af49150503d80600081146108b2576040519150601f19603f3d011682016040523d82523d6000602084013e6108b7565b606091505b5091509150816108c957805160208201fd5b5050505050565b600054600160281b90046001600160a01b031633148061091857507f00000000000000000000000000000000000000000000000000000000000000006001600160a01b031633145b6109345760405162461bcd60e51b81526004016103a3906115ff565b6001546001600160a01b0316331461095e5760405162461bcd60e51b81526004016103a39061152e565b6109688282610dd9565b5050565b6002546001600160a01b031633146109e35760405162461bcd60e51b815260206004820152603460248201527f6f6e6c7950656e64696e6742756e646c65723a2063616c6c6572206973206e6f6044820152733a103a3432903832b73234b733a13ab7323632b960611b60648201526084016103a3565b6004546109f39062093a806116b4565b4211610a4c5760405162461bcd60e51b815260206004820152602260248201527f726573657442756e646c65723a206e65656473203720646179732070656e64696044820152616e6760f01b60648201526084016103a3565b60028054600180546001600160a01b0383166001600160a01b03199182168117909255909116909155600060048190556040805192835260208301919091527f81932e26d3d6b8d613dd60331202ebefe49c5008c05597954a66138b6c505b25910160405180910390a1565b600054600160281b90046001600160a01b0316331480610b0057507f00000000000000000000000000000000000000000000000000000000000000006001600160a01b031633145b610b1c5760405162461bcd60e51b81526004016103a3906115ff565b61064481610f3c565b600054600160281b90046001600160a01b0316331480610b6d57507f00000000000000000000000000000000000000000000000000000000000000006001600160a01b031633145b610b895760405162461bcd60e51b81526004016103a3906115ff565b610b91610c4d565b600280546001600160a01b0319166001600160a01b038316908117909155610c01576000600455600154604080516001600160a01b0390921680835260208301527f81932e26d3d6b8d613dd60331202ebefe49c5008c05597954a66138b6c505b2591015b60405180910390a150565b42600455600154600254604080516001600160a01b0393841681529290911660208301527fbd265fea90ed2756df9ac57b162d7d95b2bbd80e1720fca48d685e4a5a7e4c6c9101610bf6565b600054600160281b90046001600160a01b0316331480610c9557507f00000000000000000000000000000000000000000000000000000000000000006001600160a01b031633145b610cb15760405162461bcd60e51b81526004016103a3906115ff565b6000805464ffffffff001916610100434063ffffffff1602179055565b60005460ff1615610d195760405162461bcd60e51b8152602060048201526015602482015274696e697428292072756e73206f6e6c79206f6e636560581b60448201526064016103a3565b60008054600180546001600160a01b039485166001600160a01b031990911617815593909216600160281b0264ffffffff01600160c81b0319909216919091179091179055565b6040517f19457468657265756d205369676e6564204d6573736167653a0a3332000000006020820152603c8101829052600090605c01604051602081830303815290604052805190602001209050919050565b6000806000610dc28585610fb8565b91509150610dcf81610ffd565b5090505b92915050565b60005b81811015610f37576000838284610df48260146116b4565b92610e019392919061159d565b610e0a916116c7565b60601c905060008484610e1e8560146116b4565b90610e2a8660346116b4565b92610e379392919061159d565b610e40916116fc565b905060008585610e518660346116b4565b90610e5d8760546116b4565b92610e6a9392919061159d565b610e73916116fc565b90506000806001600160a01b038516848989610e908a60546116b4565b9087610e9d8c60546116b4565b610ea791906116b4565b92610eb49392919061159d565b604051610ec29291906116a4565b60006040518083038185875af1925050503d8060008114610eff576040519150601f19603f3d011682016040523d82523d6000602084013e610f04565b606091505b509150915081610f1657805160208201fd5b610f218360546116b4565b610f2b90876116b4565b95505050505050610ddc565b505050565b600054604080516001600160a01b03600160281b9093048316815291831660208301527fb532073b38c83145e3e5135377a08bf9aab55bc0fd7c1179cd4fb995d2a5159c910160405180910390a1600080546001600160a01b03909216600160281b0265010000000000600160c81b0319909216919091179055565b6000808251604103610fee5760208301516040840151606085015160001a610fe2878285856111b3565b94509450505050610ff6565b506000905060025b9250929050565b60008160048111156110115761101161171a565b036110195750565b600181600481111561102d5761102d61171a565b0361107a5760405162461bcd60e51b815260206004820152601860248201527f45434453413a20696e76616c6964207369676e6174757265000000000000000060448201526064016103a3565b600281600481111561108e5761108e61171a565b036110db5760405162461bcd60e51b815260206004820152601f60248201527f45434453413a20696e76616c6964207369676e6174757265206c656e6774680060448201526064016103a3565b60038160048111156110ef576110ef61171a565b036111475760405162461bcd60e51b815260206004820152602260248201527f45434453413a20696e76616c6964207369676e6174757265202773272076616c604482015261756560f01b60648201526084016103a3565b600481600481111561115b5761115b61171a565b036106445760405162461bcd60e51b815260206004820152602260248201527f45434453413a20696e76616c6964207369676e6174757265202776272076616c604482015261756560f01b60648201526084016103a3565b6000807f7fffffffffffffffffffffffffffffff5d576e7357a4501ddfe92f46681b20a08311156111ea5750600090506003611297565b8460ff16601b1415801561120257508460ff16601c14155b156112135750600090506004611297565b6040805160008082526020820180845289905260ff881692820192909252606081018690526080810185905260019060a0016020604051602081039080840390855afa158015611267573d6000803e3d6000fd5b5050604051601f1901519150506001600160a01b03811661129057600060019250925050611297565b9150600090505b94509492505050565b60008083601f8401126112b257600080fd5b50813567ffffffffffffffff8111156112ca57600080fd5b602083019150836020828501011115610ff657600080fd5b6000806000806000606086880312156112fa57600080fd5b853567ffffffffffffffff8082111561131257600080fd5b61131e89838a016112a0565b90975095506020880135915063ffffffff8216821461133c57600080fd5b9093506040870135908082111561135257600080fd5b5061135f888289016112a0565b969995985093965092949392505050565b60006020828403121561138257600080fd5b5035919050565b80356001600160a01b03811681146113a057600080fd5b919050565b600080600080606085870312156113bb57600080fd5b6113c485611389565b9350602085013567ffffffffffffffff808211156113e157600080fd5b818701915087601f8301126113f557600080fd5b81358181111561140457600080fd5b8860208260051b850101111561141957600080fd5b602083019550809450505050604085013560ff8116811461143957600080fd5b939692955090935050565b60008060006040848603121561145957600080fd5b61146284611389565b9250602084013567ffffffffffffffff81111561147e57600080fd5b61148a868287016112a0565b9497909650939450505050565b600080602083850312156114aa57600080fd5b823567ffffffffffffffff8111156114c157600080fd5b6114cd858286016112a0565b90969095509350505050565b6000602082840312156114eb57600080fd5b6114f482611389565b9392505050565b6000806040838503121561150e57600080fd5b61151783611389565b915061152560208401611389565b90509250929050565b60208082526026908201527f6f6e6c7942756e646c65723a2063616c6c6572206973206e6f742074686520626040820152653ab7323632b960d11b606082015260800190565b634e487b7160e01b600052601160045260246000fd5b81810381811115610dd357610dd3611574565b600080858511156115ad57600080fd5b838611156115ba57600080fd5b5050820193919092039150565b848682379093019182526bffffffffffffffffffffffff191660208201526001600160e01b0319919091166034820152603801919050565b6020808252602d908201527f6f6e6c794f776e6572416e644f726967696e616c3a2063616c6c65722069732060408201526c3737ba103a34329037bbb732b960991b606082015260800190565b6040808252810183905260008460608301825b8681101561168d576001600160a01b0361167884611389565b1682526020928301929091019060010161165f565b50809250505060ff83166020830152949350505050565b8183823760009101908152919050565b80820180821115610dd357610dd3611574565b6bffffffffffffffffffffffff1981358181169160148510156116f45780818660140360031b1b83161692505b505092915050565b80356020831015610dd357600019602084900360031b1b1692915050565b634e487b7160e01b600052602160045260246000fdfea26469706673582212207422aa84f16d1be2373d235fe3f2a3c365b0ef975fff4ec750a00e6b7b594ba064736f6c63430008120033a2646970667358221220f5ed3e8773ae93377566fe2ed757b45dd2028fb95320c1190b00b80ba529a77064736f6c63430008120033",
  "linkReferences": {},
  "deployedLinkReferences": {}
}