{
  "_format": "hh-sol-artifact-1",
  "contractName": "GridPool",
  "sourceName": "contracts/newswap/GridPool.sol",
  "abi": [
    {
      "inputs": [
        {
          "internalType": "address",
          "name": "addr",
          "type": "address"
        }
      ],
      "stateMutability": "nonpayable",
      "type": "constructor"
    },
    {
      "inputs": [],
      "name": "creator",
      "outputs": [
        {
          "internalType": "address",
          "name": "",
          "type": "address"
        }
      ],
      "stateMutability": "view",
      "type": "function"
    },
    {
      "inputs": [
        {
          "internalType": "address",
          "name": "tokenIn",
          "type": "address"
        },
        {
          "internalType": "uint256",
          "name": "amountIn",
          "type": "uint256"
        },
        {
          "internalType": "address",
          "name": "tokenOut",
          "type": "address"
        },
        {
          "internalType": "uint256",
          "name": "minAmountOut",
          "type": "uint256"
        },
        {
          "internalType": "uint256",
          "name": "maxAmountOut",
          "type": "uint256"
        }
      ],
      "name": "gridBid",
      "outputs": [],
      "stateMutability": "nonpayable",
      "type": "function"
    },
    {
      "inputs": [],
      "name": "weth",
      "outputs": [
        {
          "internalType": "contract IWETH",
          "name": "",
          "type": "address"
        }
      ],
      "stateMutability": "view",
      "type": "function"
    }
  ],
  "bytecode": "0x608060405234801561000f575f80fd5b5060405161033138038061033183398101604081905261002e91610052565b5f80546001600160a01b0319166001600160a01b039290921691909117905561007f565b5f60208284031215610062575f80fd5b81516001600160a01b0381168114610078575f80fd5b9392505050565b6102a58061008c5f395ff3fe608060405234801561000f575f80fd5b506004361061003f575f3560e01c806302d05d3f146100435780633fc8cef314610072578063d67bba5a14610084575b5f80fd5b600154610056906001600160a01b031681565b6040516001600160a01b03909116815260200160405180910390f35b5f54610056906001600160a01b031681565b6100976100923660046101ff565b610099565b005b6040516bffffffffffffffffffffffff19606087811b821660208401526034830187905285901b16605482015260688101839052608881018290525f9060a80160408051601f1981840301815291815281516020928301205f818152600290935291208054919250906001600160a01b03166101515780546001600160a01b038089166001600160a01b0319928316178355600183018890556002830180549188169190921617905560038101849055600481018390555b335f81815260058301602052604090819020889055516323b872dd60e01b81526004810191909152306024820152604481018790526001600160a01b038816906323b872dd906064016020604051808303815f875af11580156101b6573d5f803e3d5ffd5b505050506040513d601f19601f820116820180604052508101906101da9190610249565b5050505050505050565b80356001600160a01b03811681146101fa575f80fd5b919050565b5f805f805f60a08688031215610213575f80fd5b61021c866101e4565b945060208601359350610231604087016101e4565b94979396509394606081013594506080013592915050565b5f60208284031215610259575f80fd5b81518015158114610268575f80fd5b939250505056fea2646970667358221220c11c190aee35a0029cf409f486c445471100bfa3ca9453c394c2a9b1f2b66c5764736f6c63430008180033",
  "linkReferences": {},
  "deployedLinkReferences": {}
}