{
  "_format": "hh-sol-artifact-1",
  "contractName": "MockERC721",
  "sourceName": "contracts/mock/MockERC721.sol",
  "abi": [
    {
      "inputs": [
        {
          "internalType": "string",
          "name": "name_",
          "type": "string"
        },
        {
          "internalType": "string",
          "name": "symbol_",
          "type": "string"
        }
      ],
      "stateMutability": "nonpayable",
      "type": "constructor"
    },
    {
      "anonymous": false,
      "inputs": [
        {
          "indexed": true,
          "internalType": "address",
          "name": "owner",
          "type": "address"
        },
        {
          "indexed": true,
          "internalType": "address",
          "name": "approved",
          "type": "address"
        },
        {
          "indexed": true,
          "internalType": "uint256",
          "name": "tokenId",
          "type": "uint256"
        }
      ],
      "name": "Approval",
      "type": "event"
    },
    {
      "anonymous": false,
      "inputs": [
        {
          "indexed": true,
          "internalType": "address",
          "name": "owner",
          "type": "address"
        },
        {
          "indexed": true,
          "internalType": "address",
          "name": "operator",
          "type": "address"
        },
        {
          "indexed": false,
          "internalType": "bool",
          "name": "approved",
          "type": "bool"
        }
      ],
      "name": "ApprovalForAll",
      "type": "event"
    },
    {
      "anonymous": false,
      "inputs": [
        {
          "indexed": true,
          "internalType": "address",
          "name": "from",
          "type": "address"
        },
        {
          "indexed": true,
          "internalType": "address",
          "name": "to",
          "type": "address"
        },
        {
          "indexed": true,
          "internalType": "uint256",
          "name": "tokenId",
          "type": "uint256"
        }
      ],
      "name": "Transfer",
      "type": "event"
    },
    {
      "inputs": [
        {
          "internalType": "address",
          "name": "to",
          "type": "address"
        },
        {
          "internalType": "uint256",
          "name": "tokenId",
          "type": "uint256"
        }
      ],
      "name": "approve",
      "outputs": [],
      "stateMutability": "nonpayable",
      "type": "function"
    },
    {
      "inputs": [
        {
          "internalType": "address",
          "name": "owner",
          "type": "address"
        }
      ],
      "name": "balanceOf",
      "outputs": [
        {
          "internalType": "uint256",
          "name": "",
          "type": "uint256"
        }
      ],
      "stateMutability": "view",
      "type": "function"
    },
    {
      "inputs": [
        {
          "internalType": "uint256",
          "name": "tokenId",
          "type": "uint256"
        }
      ],
      "name": "getApproved",
      "outputs": [
        {
          "internalType": "address",
          "name": "",
          "type": "address"
        }
      ],
      "stateMutability": "view",
      "type": "function"
    },
    {
      "inputs": [
        {
          "internalType": "address",
          "name": "owner",
          "type": "address"
        },
        {
          "internalType": "address",
          "name": "operator",
          "type": "address"
        }
      ],
      "name": "isApprovedForAll",
      "outputs": [
        {
          "internalType": "bool",
          "name": "",
          "type": "bool"
        }
      ],
      "stateMutability": "view",
      "type": "function"
    },
    {
      "inputs": [
        {
          "internalType": "address",
          "name": "to",
          "type": "address"
        },
        {
          "internalType": "uint256",
          "name": "tokenId",
          "type": "uint256"
        }
      ],
      "name": "mint",
      "outputs": [],
      "stateMutability": "nonpayable",
      "type": "function"
    },
    {
      "inputs": [
        {
          "internalType": "address",
          "name": "to",
          "type": "address"
        },
        {
          "internalType": "uint256",
          "name": "tokenId",
          "type": "uint256"
        },
        {
          "internalType": "string",
          "name": "_tokenURI",
          "type": "string"
        }
      ],
      "name": "mintURI",
      "outputs": [],
      "stateMutability": "nonpayable",
      "type": "function"
    },
    {
      "inputs": [],
      "name": "name",
      "outputs": [
        {
          "internalType": "string",
          "name": "",
          "type": "string"
        }
      ],
      "stateMutability": "view",
      "type": "function"
    },
    {
      "inputs": [
        {
          "internalType": "uint256",
          "name": "tokenId",
          "type": "uint256"
        }
      ],
      "name": "ownerOf",
      "outputs": [
        {
          "internalType": "address",
          "name": "",
          "type": "address"
        }
      ],
      "stateMutability": "view",
      "type": "function"
    },
    {
      "inputs": [
        {
          "internalType": "address",
          "name": "from",
          "type": "address"
        },
        {
          "internalType": "address",
          "name": "to",
          "type": "address"
        },
        {
          "internalType": "uint256",
          "name": "tokenId",
          "type": "uint256"
        }
      ],
      "name": "safeTransferFrom",
      "outputs": [],
      "stateMutability": "nonpayable",
      "type": "function"
    },
    {
      "inputs": [
        {
          "internalType": "address",
          "name": "from",
          "type": "address"
        },
        {
          "internalType": "address",
          "name": "to",
          "type": "address"
        },
        {
          "internalType": "uint256",
          "name": "tokenId",
          "type": "uint256"
        },
        {
          "internalType": "bytes",
          "name": "data",
          "type": "bytes"
        }
      ],
      "name": "safeTransferFrom",
      "outputs": [],
      "stateMutability": "nonpayable",
      "type": "function"
    },
    {
      "inputs": [
        {
          "internalType": "address",
          "name": "operator",
          "type": "address"
        },
        {
          "internalType": "bool",
          "name": "approved",
          "type": "bool"
        }
      ],
      "name": "setApprovalForAll",
      "outputs": [],
      "stateMutability": "nonpayable",
      "type": "function"
    },
    {
      "inputs": [
        {
          "internalType": "bytes4",
          "name": "interfaceId",
          "type": "bytes4"
        }
      ],
      "name": "supportsInterface",
      "outputs": [
        {
          "internalType": "bool",
          "name": "",
          "type": "bool"
        }
      ],
      "stateMutability": "view",
      "type": "function"
    },
    {
      "inputs": [],
      "name": "symbol",
      "outputs": [
        {
          "internalType": "string",
          "name": "",
          "type": "string"
        }
      ],
      "stateMutability": "view",
      "type": "function"
    },
    {
      "inputs": [
        {
          "internalType": "uint256",
          "name": "tokenId",
          "type": "uint256"
        }
      ],
      "name": "tokenURI",
      "outputs": [
        {
          "internalType": "string",
          "name": "",
          "type": "string"
        }
      ],
      "stateMutability": "view",
      "type": "function"
    },
    {
      "inputs": [
        {
          "internalType": "uint256",
          "name": "",
          "type": "uint256"
        }
      ],
      "name": "tokenURIs",
      "outputs": [
        {
          "internalType": "string",
          "name": "",
          "type": "string"
        }
      ],
      "stateMutability": "view",
      "type": "function"
    },
    {
      "inputs": [
        {
          "internalType": "address",
          "name": "from",
          "type": "address"
        },
        {
          "internalType": "address",
          "name": "to",
          "type": "address"
        },
        {
          "internalType": "uint256",
          "name": "tokenId",
          "type": "uint256"
        }
      ],
      "name": "transferFrom",
      "outputs": [],
      "stateMutability": "nonpayable",
      "type": "function"
    }
  ],
  "bytecode": "0x60806040523480156200001157600080fd5b506040516200169238038062001692833981016040819052620000349162000123565b818160006200004483826200021c565b5060016200005382826200021c565b5050505050620002e8565b634e487b7160e01b600052604160045260246000fd5b600082601f8301126200008657600080fd5b81516001600160401b0380821115620000a357620000a36200005e565b604051601f8301601f19908116603f01168101908282118183101715620000ce57620000ce6200005e565b81604052838152602092508683858801011115620000eb57600080fd5b600091505b838210156200010f5785820183015181830184015290820190620000f0565b600093810190920192909252949350505050565b600080604083850312156200013757600080fd5b82516001600160401b03808211156200014f57600080fd5b6200015d8683870162000074565b935060208501519150808211156200017457600080fd5b50620001838582860162000074565b9150509250929050565b600181811c90821680620001a257607f821691505b602082108103620001c357634e487b7160e01b600052602260045260246000fd5b50919050565b601f8211156200021757600081815260208120601f850160051c81016020861015620001f25750805b601f850160051c820191505b818110156200021357828155600101620001fe565b5050505b505050565b81516001600160401b038111156200023857620002386200005e565b62000250816200024984546200018d565b84620001c9565b602080601f8311600181146200028857600084156200026f5750858301515b600019600386901b1c1916600185901b17855562000213565b600085815260208120601f198616915b82811015620002b95788860151825594840194600190910190840162000298565b5085821015620002d85787850151600019600388901b60f8161c191681555b5050505050600190811b01905550565b61139a80620002f86000396000f3fe608060405234801561001057600080fd5b50600436106101005760003560e01c80636c8b703f11610097578063a22cb46511610066578063a22cb4651461021d578063b88d4fde14610230578063c87b56dd14610243578063e985e9c51461025657600080fd5b80636c8b703f146101ce57806370a08231146101e15780637d59e4fd1461020257806395d89b411461021557600080fd5b806323b872dd116100d357806323b872dd1461018257806340c10f191461019557806342842e0e146101a85780636352211e146101bb57600080fd5b806301ffc9a71461010557806306fdde031461012d578063081812fc14610142578063095ea7b31461016d575b600080fd5b610118610113366004610dd1565b610269565b60405190151581526020015b60405180910390f35b6101356102bb565b6040516101249190610e3b565b610155610150366004610e4e565b61034d565b6040516001600160a01b039091168152602001610124565b61018061017b366004610e83565b610374565b005b610180610190366004610ead565b61048e565b6101806101a3366004610e83565b6104bf565b6101806101b6366004610ead565b6104cd565b6101556101c9366004610e4e565b6104e8565b6101356101dc366004610e4e565b610548565b6101f46101ef366004610ee9565b6105e2565b604051908152602001610124565b610180610210366004610f90565b610668565b610135610690565b61018061022b366004610ffb565b61069f565b61018061023e366004611037565b6106aa565b610135610251366004610e4e565b6106dc565b6101186102643660046110b3565b61077e565b60006001600160e01b031982166380ac58cd60e01b148061029a57506001600160e01b03198216635b5e139f60e01b145b806102b557506301ffc9a760e01b6001600160e01b03198316145b92915050565b6060600080546102ca906110e6565b80601f01602080910402602001604051908101604052809291908181526020018280546102f6906110e6565b80156103435780601f1061031857610100808354040283529160200191610343565b820191906000526020600020905b81548152906001019060200180831161032657829003601f168201915b5050505050905090565b6000610358826107ac565b506000908152600460205260409020546001600160a01b031690565b600061037f826104e8565b9050806001600160a01b0316836001600160a01b0316036103f15760405162461bcd60e51b815260206004820152602160248201527f4552433732313a20617070726f76616c20746f2063757272656e74206f776e656044820152603960f91b60648201526084015b60405180910390fd5b336001600160a01b038216148061040d575061040d813361077e565b61047f5760405162461bcd60e51b815260206004820152603e60248201527f4552433732313a20617070726f76652063616c6c6572206973206e6f7420746f60448201527f6b656e206f776e6572206e6f7220617070726f76656420666f7220616c6c000060648201526084016103e8565b610489838361080e565b505050565b610498338261087c565b6104b45760405162461bcd60e51b81526004016103e890611120565b6104898383836108db565b6104c98282610a77565b5050565b610489838383604051806020016040528060008152506106aa565b6000818152600260205260408120546001600160a01b0316806102b55760405162461bcd60e51b8152602060048201526018602482015277115490cdcc8c4e881a5b9d985b1a59081d1bdad95b88125160421b60448201526064016103e8565b60066020526000908152604090208054610561906110e6565b80601f016020809104026020016040519081016040528092919081815260200182805461058d906110e6565b80156105da5780601f106105af576101008083540402835291602001916105da565b820191906000526020600020905b8154815290600101906020018083116105bd57829003601f168201915b505050505081565b60006001600160a01b03821661064c5760405162461bcd60e51b815260206004820152602960248201527f4552433732313a2061646472657373207a65726f206973206e6f7420612076616044820152683634b21037bbb732b960b91b60648201526084016103e8565b506001600160a01b031660009081526003602052604090205490565b6106728383610a77565b600082815260066020526040902061068a82826111bc565b50505050565b6060600180546102ca906110e6565b6104c9338383610bb9565b6106b4338361087c565b6106d05760405162461bcd60e51b81526004016103e890611120565b61068a84848484610c87565b60008181526006602052604090208054606091906106f9906110e6565b80601f0160208091040260200160405190810160405280929190818152602001828054610725906110e6565b80156107725780601f1061074757610100808354040283529160200191610772565b820191906000526020600020905b81548152906001019060200180831161075557829003601f168201915b50505050509050919050565b6001600160a01b03918216600090815260056020908152604080832093909416825291909152205460ff1690565b6000818152600260205260409020546001600160a01b031661080b5760405162461bcd60e51b8152602060048201526018602482015277115490cdcc8c4e881a5b9d985b1a59081d1bdad95b88125160421b60448201526064016103e8565b50565b600081815260046020526040902080546001600160a01b0319166001600160a01b0384169081179091558190610843826104e8565b6001600160a01b03167f8c5be1e5ebec7d5bd14f71427d1e84f3dd0314c0f7b2291e5b200ac8c7c3b92560405160405180910390a45050565b600080610888836104e8565b9050806001600160a01b0316846001600160a01b031614806108af57506108af818561077e565b806108d35750836001600160a01b03166108c88461034d565b6001600160a01b0316145b949350505050565b826001600160a01b03166108ee826104e8565b6001600160a01b0316146109525760405162461bcd60e51b815260206004820152602560248201527f4552433732313a207472616e736665722066726f6d20696e636f72726563742060448201526437bbb732b960d91b60648201526084016103e8565b6001600160a01b0382166109b45760405162461bcd60e51b8152602060048201526024808201527f4552433732313a207472616e7366657220746f20746865207a65726f206164646044820152637265737360e01b60648201526084016103e8565b6109bf60008261080e565b6001600160a01b03831660009081526003602052604081208054600192906109e8908490611292565b90915550506001600160a01b0382166000908152600360205260408120805460019290610a169084906112a5565b909155505060008181526002602052604080822080546001600160a01b0319166001600160a01b0386811691821790925591518493918716917fddf252ad1be2c89b69c2b068fc378daa952ba7f163c4a11628f55a4df523b3ef91a4505050565b6001600160a01b038216610acd5760405162461bcd60e51b815260206004820181905260248201527f4552433732313a206d696e7420746f20746865207a65726f206164647265737360448201526064016103e8565b6000818152600260205260409020546001600160a01b031615610b325760405162461bcd60e51b815260206004820152601c60248201527f4552433732313a20746f6b656e20616c7265616479206d696e7465640000000060448201526064016103e8565b6001600160a01b0382166000908152600360205260408120805460019290610b5b9084906112a5565b909155505060008181526002602052604080822080546001600160a01b0319166001600160a01b03861690811790915590518392907fddf252ad1be2c89b69c2b068fc378daa952ba7f163c4a11628f55a4df523b3ef908290a45050565b816001600160a01b0316836001600160a01b031603610c1a5760405162461bcd60e51b815260206004820152601960248201527f4552433732313a20617070726f766520746f2063616c6c65720000000000000060448201526064016103e8565b6001600160a01b03838116600081815260056020908152604080832094871680845294825291829020805460ff191686151590811790915591519182527f17307eab39ab6107e8899845ad3d59bd9653f200f220920489ca2b5937696c31910160405180910390a3505050565b610c928484846108db565b610c9e84848484610cba565b61068a5760405162461bcd60e51b81526004016103e8906112b8565b60006001600160a01b0384163b15610db057604051630a85bd0160e11b81526001600160a01b0385169063150b7a0290610cfe90339089908890889060040161130a565b6020604051808303816000875af1925050508015610d39575060408051601f3d908101601f19168201909252610d3691810190611347565b60015b610d96573d808015610d67576040519150601f19603f3d011682016040523d82523d6000602084013e610d6c565b606091505b508051600003610d8e5760405162461bcd60e51b81526004016103e8906112b8565b805181602001fd5b6001600160e01b031916630a85bd0160e11b1490506108d3565b506001949350505050565b6001600160e01b03198116811461080b57600080fd5b600060208284031215610de357600080fd5b8135610dee81610dbb565b9392505050565b6000815180845260005b81811015610e1b57602081850181015186830182015201610dff565b506000602082860101526020601f19601f83011685010191505092915050565b602081526000610dee6020830184610df5565b600060208284031215610e6057600080fd5b5035919050565b80356001600160a01b0381168114610e7e57600080fd5b919050565b60008060408385031215610e9657600080fd5b610e9f83610e67565b946020939093013593505050565b600080600060608486031215610ec257600080fd5b610ecb84610e67565b9250610ed960208501610e67565b9150604084013590509250925092565b600060208284031215610efb57600080fd5b610dee82610e67565b634e487b7160e01b600052604160045260246000fd5b600067ffffffffffffffff80841115610f3557610f35610f04565b604051601f8501601f19908116603f01168101908282118183101715610f5d57610f5d610f04565b81604052809350858152868686011115610f7657600080fd5b858560208301376000602087830101525050509392505050565b600080600060608486031215610fa557600080fd5b610fae84610e67565b925060208401359150604084013567ffffffffffffffff811115610fd157600080fd5b8401601f81018613610fe257600080fd5b610ff186823560208401610f1a565b9150509250925092565b6000806040838503121561100e57600080fd5b61101783610e67565b91506020830135801515811461102c57600080fd5b809150509250929050565b6000806000806080858703121561104d57600080fd5b61105685610e67565b935061106460208601610e67565b925060408501359150606085013567ffffffffffffffff81111561108757600080fd5b8501601f8101871361109857600080fd5b6110a787823560208401610f1a565b91505092959194509250565b600080604083850312156110c657600080fd5b6110cf83610e67565b91506110dd60208401610e67565b90509250929050565b600181811c908216806110fa57607f821691505b60208210810361111a57634e487b7160e01b600052602260045260246000fd5b50919050565b6020808252602e908201527f4552433732313a2063616c6c6572206973206e6f7420746f6b656e206f776e6560408201526d1c881b9bdc88185c1c1c9bdd995960921b606082015260800190565b601f82111561048957600081815260208120601f850160051c810160208610156111955750805b601f850160051c820191505b818110156111b4578281556001016111a1565b505050505050565b815167ffffffffffffffff8111156111d6576111d6610f04565b6111ea816111e484546110e6565b8461116e565b602080601f83116001811461121f57600084156112075750858301515b600019600386901b1c1916600185901b1785556111b4565b600085815260208120601f198616915b8281101561124e5788860151825594840194600190910190840161122f565b508582101561126c5787850151600019600388901b60f8161c191681555b5050505050600190811b01905550565b634e487b7160e01b600052601160045260246000fd5b818103818111156102b5576102b561127c565b808201808211156102b5576102b561127c565b60208082526032908201527f4552433732313a207472616e7366657220746f206e6f6e20455243373231526560408201527131b2b4bb32b91034b6b83632b6b2b73a32b960711b606082015260800190565b6001600160a01b038581168252841660208201526040810183905260806060820181905260009061133d90830184610df5565b9695505050505050565b60006020828403121561135957600080fd5b8151610dee81610dbb56fea264697066735822122055f4fe9c7020ee65c7d52ed763b157877567d434e4318c6b2c83905f9bcbf50864736f6c63430008120033",
  "linkReferences": {},
  "deployedLinkReferences": {}
}