{
  "_format": "hh-sol-artifact-1",
  "contractName": "MockERC721",
  "sourceName": "contracts/mock/MockERC721.sol",
  "abi": [
    {
      "inputs": [
        {
          "internalType": "string",
          "name": "name_",
          "type": "string"
        },
        {
          "internalType": "string",
          "name": "symbol_",
          "type": "string"
        }
      ],
      "stateMutability": "nonpayable",
      "type": "constructor"
    },
    {
      "anonymous": false,
      "inputs": [
        {
          "indexed": true,
          "internalType": "address",
          "name": "owner",
          "type": "address"
        },
        {
          "indexed": true,
          "internalType": "address",
          "name": "approved",
          "type": "address"
        },
        {
          "indexed": true,
          "internalType": "uint256",
          "name": "tokenId",
          "type": "uint256"
        }
      ],
      "name": "Approval",
      "type": "event"
    },
    {
      "anonymous": false,
      "inputs": [
        {
          "indexed": true,
          "internalType": "address",
          "name": "owner",
          "type": "address"
        },
        {
          "indexed": true,
          "internalType": "address",
          "name": "operator",
          "type": "address"
        },
        {
          "indexed": false,
          "internalType": "bool",
          "name": "approved",
          "type": "bool"
        }
      ],
      "name": "ApprovalForAll",
      "type": "event"
    },
    {
      "anonymous": false,
      "inputs": [
        {
          "indexed": true,
          "internalType": "address",
          "name": "from",
          "type": "address"
        },
        {
          "indexed": true,
          "internalType": "address",
          "name": "to",
          "type": "address"
        },
        {
          "indexed": true,
          "internalType": "uint256",
          "name": "tokenId",
          "type": "uint256"
        }
      ],
      "name": "Transfer",
      "type": "event"
    },
    {
      "inputs": [
        {
          "internalType": "address",
          "name": "to",
          "type": "address"
        },
        {
          "internalType": "uint256",
          "name": "tokenId",
          "type": "uint256"
        }
      ],
      "name": "approve",
      "outputs": [],
      "stateMutability": "nonpayable",
      "type": "function"
    },
    {
      "inputs": [
        {
          "internalType": "address",
          "name": "owner",
          "type": "address"
        }
      ],
      "name": "balanceOf",
      "outputs": [
        {
          "internalType": "uint256",
          "name": "",
          "type": "uint256"
        }
      ],
      "stateMutability": "view",
      "type": "function"
    },
    {
      "inputs": [
        {
          "internalType": "uint256",
          "name": "tokenId",
          "type": "uint256"
        }
      ],
      "name": "getApproved",
      "outputs": [
        {
          "internalType": "address",
          "name": "",
          "type": "address"
        }
      ],
      "stateMutability": "view",
      "type": "function"
    },
    {
      "inputs": [
        {
          "internalType": "address",
          "name": "owner",
          "type": "address"
        },
        {
          "internalType": "address",
          "name": "operator",
          "type": "address"
        }
      ],
      "name": "isApprovedForAll",
      "outputs": [
        {
          "internalType": "bool",
          "name": "",
          "type": "bool"
        }
      ],
      "stateMutability": "view",
      "type": "function"
    },
    {
      "inputs": [
        {
          "internalType": "address",
          "name": "to",
          "type": "address"
        },
        {
          "internalType": "uint256",
          "name": "tokenId",
          "type": "uint256"
        }
      ],
      "name": "mint",
      "outputs": [],
      "stateMutability": "nonpayable",
      "type": "function"
    },
    {
      "inputs": [
        {
          "internalType": "address",
          "name": "to",
          "type": "address"
        },
        {
          "internalType": "uint256",
          "name": "tokenId",
          "type": "uint256"
        },
        {
          "internalType": "string",
          "name": "_tokenURI",
          "type": "string"
        }
      ],
      "name": "mintURI",
      "outputs": [],
      "stateMutability": "nonpayable",
      "type": "function"
    },
    {
      "inputs": [],
      "name": "name",
      "outputs": [
        {
          "internalType": "string",
          "name": "",
          "type": "string"
        }
      ],
      "stateMutability": "view",
      "type": "function"
    },
    {
      "inputs": [
        {
          "internalType": "uint256",
          "name": "tokenId",
          "type": "uint256"
        }
      ],
      "name": "ownerOf",
      "outputs": [
        {
          "internalType": "address",
          "name": "",
          "type": "address"
        }
      ],
      "stateMutability": "view",
      "type": "function"
    },
    {
      "inputs": [
        {
          "internalType": "address",
          "name": "from",
          "type": "address"
        },
        {
          "internalType": "address",
          "name": "to",
          "type": "address"
        },
        {
          "internalType": "uint256",
          "name": "tokenId",
          "type": "uint256"
        }
      ],
      "name": "safeTransferFrom",
      "outputs": [],
      "stateMutability": "nonpayable",
      "type": "function"
    },
    {
      "inputs": [
        {
          "internalType": "address",
          "name": "from",
          "type": "address"
        },
        {
          "internalType": "address",
          "name": "to",
          "type": "address"
        },
        {
          "internalType": "uint256",
          "name": "tokenId",
          "type": "uint256"
        },
        {
          "internalType": "bytes",
          "name": "data",
          "type": "bytes"
        }
      ],
      "name": "safeTransferFrom",
      "outputs": [],
      "stateMutability": "nonpayable",
      "type": "function"
    },
    {
      "inputs": [
        {
          "internalType": "address",
          "name": "operator",
          "type": "address"
        },
        {
          "internalType": "bool",
          "name": "approved",
          "type": "bool"
        }
      ],
      "name": "setApprovalForAll",
      "outputs": [],
      "stateMutability": "nonpayable",
      "type": "function"
    },
    {
      "inputs": [
        {
          "internalType": "bytes4",
          "name": "interfaceId",
          "type": "bytes4"
        }
      ],
      "name": "supportsInterface",
      "outputs": [
        {
          "internalType": "bool",
          "name": "",
          "type": "bool"
        }
      ],
      "stateMutability": "view",
      "type": "function"
    },
    {
      "inputs": [],
      "name": "symbol",
      "outputs": [
        {
          "internalType": "string",
          "name": "",
          "type": "string"
        }
      ],
      "stateMutability": "view",
      "type": "function"
    },
    {
      "inputs": [
        {
          "internalType": "uint256",
          "name": "tokenId",
          "type": "uint256"
        }
      ],
      "name": "tokenURI",
      "outputs": [
        {
          "internalType": "string",
          "name": "",
          "type": "string"
        }
      ],
      "stateMutability": "view",
      "type": "function"
    },
    {
      "inputs": [
        {
          "internalType": "uint256",
          "name": "",
          "type": "uint256"
        }
      ],
      "name": "tokenURIs",
      "outputs": [
        {
          "internalType": "string",
          "name": "",
          "type": "string"
        }
      ],
      "stateMutability": "view",
      "type": "function"
    },
    {
      "inputs": [
        {
          "internalType": "address",
          "name": "from",
          "type": "address"
        },
        {
          "internalType": "address",
          "name": "to",
          "type": "address"
        },
        {
          "internalType": "uint256",
          "name": "tokenId",
          "type": "uint256"
        }
      ],
      "name": "transferFrom",
      "outputs": [],
      "stateMutability": "nonpayable",
      "type": "function"
    }
  ],
  "bytecode": "0x608060405234801562000010575f80fd5b506040516200162a3803806200162a83398101604081905262000033916200011d565b81815f6200004283826200020d565b5060016200005182826200020d565b5050505050620002d9565b634e487b7160e01b5f52604160045260245ffd5b5f82601f83011262000080575f80fd5b81516001600160401b03808211156200009d576200009d6200005c565b604051601f8301601f19908116603f01168101908282118183101715620000c857620000c86200005c565b8160405283815260209250866020858801011115620000e5575f80fd5b5f91505b83821015620001085785820183015181830184015290820190620000e9565b5f602085830101528094505050505092915050565b5f80604083850312156200012f575f80fd5b82516001600160401b038082111562000146575f80fd5b620001548683870162000070565b935060208501519150808211156200016a575f80fd5b50620001798582860162000070565b9150509250929050565b600181811c908216806200019857607f821691505b602082108103620001b757634e487b7160e01b5f52602260045260245ffd5b50919050565b601f8211156200020857805f5260205f20601f840160051c81016020851015620001e45750805b601f840160051c820191505b8181101562000205575f8155600101620001f0565b50505b505050565b81516001600160401b038111156200022957620002296200005c565b62000241816200023a845462000183565b84620001bd565b602080601f83116001811462000277575f84156200025f5750858301515b5f19600386901b1c1916600185901b178555620002d1565b5f85815260208120601f198616915b82811015620002a75788860151825594840194600190910190840162000286565b5085821015620002c557878501515f19600388901b60f8161c191681555b505060018460011b0185555b505050505050565b61134380620002e75f395ff3fe608060405234801561000f575f80fd5b50600436106100fb575f3560e01c80636c8b703f11610093578063a22cb46511610063578063a22cb46514610217578063b88d4fde1461022a578063c87b56dd1461023d578063e985e9c514610250575f80fd5b80636c8b703f146101c857806370a08231146101db5780637d59e4fd146101fc57806395d89b411461020f575f80fd5b806323b872dd116100ce57806323b872dd1461017c57806340c10f191461018f57806342842e0e146101a25780636352211e146101b5575f80fd5b806301ffc9a7146100ff57806306fdde0314610127578063081812fc1461013c578063095ea7b314610167575b5f80fd5b61011261010d366004610da8565b610263565b60405190151581526020015b60405180910390f35b61012f6102b4565b60405161011e9190610e0d565b61014f61014a366004610e1f565b610343565b6040516001600160a01b03909116815260200161011e565b61017a610175366004610e51565b610368565b005b61017a61018a366004610e79565b610481565b61017a61019d366004610e51565b6104b2565b61017a6101b0366004610e79565b6104c0565b61014f6101c3366004610e1f565b6104da565b61012f6101d6366004610e1f565b610539565b6101ee6101e9366004610eb2565b6105d0565b60405190815260200161011e565b61017a61020a366004610f52565b610654565b61012f61067b565b61017a610225366004610fb8565b61068a565b61017a610238366004610ff1565b610695565b61012f61024b366004610e1f565b6106c7565b61011261025e366004611068565b610766565b5f6001600160e01b031982166380ac58cd60e01b148061029357506001600160e01b03198216635b5e139f60e01b145b806102ae57506301ffc9a760e01b6001600160e01b03198316145b92915050565b60605f80546102c290611099565b80601f01602080910402602001604051908101604052809291908181526020018280546102ee90611099565b80156103395780601f1061031057610100808354040283529160200191610339565b820191905f5260205f20905b81548152906001019060200180831161031c57829003601f168201915b5050505050905090565b5f61034d82610793565b505f908152600460205260409020546001600160a01b031690565b5f610372826104da565b9050806001600160a01b0316836001600160a01b0316036103e45760405162461bcd60e51b815260206004820152602160248201527f4552433732313a20617070726f76616c20746f2063757272656e74206f776e656044820152603960f91b60648201526084015b60405180910390fd5b336001600160a01b038216148061040057506104008133610766565b6104725760405162461bcd60e51b815260206004820152603e60248201527f4552433732313a20617070726f76652063616c6c6572206973206e6f7420746f60448201527f6b656e206f776e6572206e6f7220617070726f76656420666f7220616c6c000060648201526084016103db565b61047c83836107f4565b505050565b61048b3382610861565b6104a75760405162461bcd60e51b81526004016103db906110d1565b61047c8383836108bf565b6104bc8282610a57565b5050565b61047c83838360405180602001604052805f815250610695565b5f818152600260205260408120546001600160a01b0316806102ae5760405162461bcd60e51b8152602060048201526018602482015277115490cdcc8c4e881a5b9d985b1a59081d1bdad95b88125160421b60448201526064016103db565b60066020525f90815260409020805461055190611099565b80601f016020809104026020016040519081016040528092919081815260200182805461057d90611099565b80156105c85780601f1061059f576101008083540402835291602001916105c8565b820191905f5260205f20905b8154815290600101906020018083116105ab57829003601f168201915b505050505081565b5f6001600160a01b0382166106395760405162461bcd60e51b815260206004820152602960248201527f4552433732313a2061646472657373207a65726f206973206e6f7420612076616044820152683634b21037bbb732b960b91b60648201526084016103db565b506001600160a01b03165f9081526003602052604090205490565b61065e8383610a57565b5f828152600660205260409020610675828261116a565b50505050565b6060600180546102c290611099565b6104bc338383610b96565b61069f3383610861565b6106bb5760405162461bcd60e51b81526004016103db906110d1565b61067584848484610c63565b5f8181526006602052604090208054606091906106e390611099565b80601f016020809104026020016040519081016040528092919081815260200182805461070f90611099565b801561075a5780601f106107315761010080835404028352916020019161075a565b820191905f5260205f20905b81548152906001019060200180831161073d57829003601f168201915b50505050509050919050565b6001600160a01b039182165f90815260056020908152604080832093909416825291909152205460ff1690565b5f818152600260205260409020546001600160a01b03166107f15760405162461bcd60e51b8152602060048201526018602482015277115490cdcc8c4e881a5b9d985b1a59081d1bdad95b88125160421b60448201526064016103db565b50565b5f81815260046020526040902080546001600160a01b0319166001600160a01b0384169081179091558190610828826104da565b6001600160a01b03167f8c5be1e5ebec7d5bd14f71427d1e84f3dd0314c0f7b2291e5b200ac8c7c3b92560405160405180910390a45050565b5f8061086c836104da565b9050806001600160a01b0316846001600160a01b0316148061089357506108938185610766565b806108b75750836001600160a01b03166108ac84610343565b6001600160a01b0316145b949350505050565b826001600160a01b03166108d2826104da565b6001600160a01b0316146109365760405162461bcd60e51b815260206004820152602560248201527f4552433732313a207472616e736665722066726f6d20696e636f72726563742060448201526437bbb732b960d91b60648201526084016103db565b6001600160a01b0382166109985760405162461bcd60e51b8152602060048201526024808201527f4552433732313a207472616e7366657220746f20746865207a65726f206164646044820152637265737360e01b60648201526084016103db565b6109a25f826107f4565b6001600160a01b0383165f9081526003602052604081208054600192906109ca90849061123e565b90915550506001600160a01b0382165f9081526003602052604081208054600192906109f7908490611251565b90915550505f8181526002602052604080822080546001600160a01b0319166001600160a01b0386811691821790925591518493918716917fddf252ad1be2c89b69c2b068fc378daa952ba7f163c4a11628f55a4df523b3ef91a4505050565b6001600160a01b038216610aad5760405162461bcd60e51b815260206004820181905260248201527f4552433732313a206d696e7420746f20746865207a65726f206164647265737360448201526064016103db565b5f818152600260205260409020546001600160a01b031615610b115760405162461bcd60e51b815260206004820152601c60248201527f4552433732313a20746f6b656e20616c7265616479206d696e7465640000000060448201526064016103db565b6001600160a01b0382165f908152600360205260408120805460019290610b39908490611251565b90915550505f8181526002602052604080822080546001600160a01b0319166001600160a01b03861690811790915590518392907fddf252ad1be2c89b69c2b068fc378daa952ba7f163c4a11628f55a4df523b3ef908290a45050565b816001600160a01b0316836001600160a01b031603610bf75760405162461bcd60e51b815260206004820152601960248201527f4552433732313a20617070726f766520746f2063616c6c65720000000000000060448201526064016103db565b6001600160a01b038381165f81815260056020908152604080832094871680845294825291829020805460ff191686151590811790915591519182527f17307eab39ab6107e8899845ad3d59bd9653f200f220920489ca2b5937696c31910160405180910390a3505050565b610c6e8484846108bf565b610c7a84848484610c96565b6106755760405162461bcd60e51b81526004016103db90611264565b5f6001600160a01b0384163b15610d8857604051630a85bd0160e11b81526001600160a01b0385169063150b7a0290610cd99033908990889088906004016112b6565b6020604051808303815f875af1925050508015610d13575060408051601f3d908101601f19168201909252610d10918101906112f2565b60015b610d6e573d808015610d40576040519150601f19603f3d011682016040523d82523d5f602084013e610d45565b606091505b5080515f03610d665760405162461bcd60e51b81526004016103db90611264565b805181602001fd5b6001600160e01b031916630a85bd0160e11b1490506108b7565b506001949350505050565b6001600160e01b0319811681146107f1575f80fd5b5f60208284031215610db8575f80fd5b8135610dc381610d93565b9392505050565b5f81518084525f5b81811015610dee57602081850181015186830182015201610dd2565b505f602082860101526020601f19601f83011685010191505092915050565b602081525f610dc36020830184610dca565b5f60208284031215610e2f575f80fd5b5035919050565b80356001600160a01b0381168114610e4c575f80fd5b919050565b5f8060408385031215610e62575f80fd5b610e6b83610e36565b946020939093013593505050565b5f805f60608486031215610e8b575f80fd5b610e9484610e36565b9250610ea260208501610e36565b9150604084013590509250925092565b5f60208284031215610ec2575f80fd5b610dc382610e36565b634e487b7160e01b5f52604160045260245ffd5b5f67ffffffffffffffff80841115610ef957610ef9610ecb565b604051601f8501601f19908116603f01168101908282118183101715610f2157610f21610ecb565b81604052809350858152868686011115610f39575f80fd5b858560208301375f602087830101525050509392505050565b5f805f60608486031215610f64575f80fd5b610f6d84610e36565b925060208401359150604084013567ffffffffffffffff811115610f8f575f80fd5b8401601f81018613610f9f575f80fd5b610fae86823560208401610edf565b9150509250925092565b5f8060408385031215610fc9575f80fd5b610fd283610e36565b915060208301358015158114610fe6575f80fd5b809150509250929050565b5f805f8060808587031215611004575f80fd5b61100d85610e36565b935061101b60208601610e36565b925060408501359150606085013567ffffffffffffffff81111561103d575f80fd5b8501601f8101871361104d575f80fd5b61105c87823560208401610edf565b91505092959194509250565b5f8060408385031215611079575f80fd5b61108283610e36565b915061109060208401610e36565b90509250929050565b600181811c908216806110ad57607f821691505b6020821081036110cb57634e487b7160e01b5f52602260045260245ffd5b50919050565b6020808252602e908201527f4552433732313a2063616c6c6572206973206e6f7420746f6b656e206f776e6560408201526d1c881b9bdc88185c1c1c9bdd995960921b606082015260800190565b601f82111561047c57805f5260205f20601f840160051c810160208510156111445750805b601f840160051c820191505b81811015611163575f8155600101611150565b5050505050565b815167ffffffffffffffff81111561118457611184610ecb565b611198816111928454611099565b8461111f565b602080601f8311600181146111cb575f84156111b45750858301515b5f19600386901b1c1916600185901b178555611222565b5f85815260208120601f198616915b828110156111f9578886015182559484019460019091019084016111da565b508582101561121657878501515f19600388901b60f8161c191681555b505060018460011b0185555b505050505050565b634e487b7160e01b5f52601160045260245ffd5b818103818111156102ae576102ae61122a565b808201808211156102ae576102ae61122a565b60208082526032908201527f4552433732313a207472616e7366657220746f206e6f6e20455243373231526560408201527131b2b4bb32b91034b6b83632b6b2b73a32b960711b606082015260800190565b6001600160a01b03858116825284166020820152604081018390526080606082018190525f906112e890830184610dca565b9695505050505050565b5f60208284031215611302575f80fd5b8151610dc381610d9356fea2646970667358221220adff910e5bb0b7d14f1053d6db3bcf93166aea3517415ab2ff017ac34897878d64736f6c63430008180033",
  "linkReferences": {},
  "deployedLinkReferences": {}
}