{
  "_format": "hh-sol-artifact-1",
  "contractName": "ERC721Insc",
  "sourceName": "contracts/erc721insc/ERC721Insc.sol",
  "abi": [
    {
      "inputs": [
        {
          "internalType": "string",
          "name": "p",
          "type": "string"
        },
        {
          "internalType": "string",
          "name": "op",
          "type": "string"
        },
        {
          "internalType": "string",
          "name": "tick",
          "type": "string"
        },
        {
          "internalType": "uint64",
          "name": "max",
          "type": "uint64"
        },
        {
          "internalType": "uint64",
          "name": "lim",
          "type": "uint64"
        }
      ],
      "stateMutability": "nonpayable",
      "type": "constructor"
    },
    {
      "anonymous": false,
      "inputs": [
        {
          "indexed": true,
          "internalType": "address",
          "name": "owner",
          "type": "address"
        },
        {
          "indexed": true,
          "internalType": "address",
          "name": "approved",
          "type": "address"
        },
        {
          "indexed": true,
          "internalType": "uint256",
          "name": "tokenId",
          "type": "uint256"
        }
      ],
      "name": "Approval",
      "type": "event"
    },
    {
      "anonymous": false,
      "inputs": [
        {
          "indexed": true,
          "internalType": "address",
          "name": "owner",
          "type": "address"
        },
        {
          "indexed": true,
          "internalType": "address",
          "name": "operator",
          "type": "address"
        },
        {
          "indexed": false,
          "internalType": "bool",
          "name": "approved",
          "type": "bool"
        }
      ],
      "name": "ApprovalForAll",
      "type": "event"
    },
    {
      "anonymous": false,
      "inputs": [
        {
          "indexed": true,
          "internalType": "address",
          "name": "from",
          "type": "address"
        },
        {
          "indexed": true,
          "internalType": "address",
          "name": "to",
          "type": "address"
        },
        {
          "indexed": false,
          "internalType": "string",
          "name": "data",
          "type": "string"
        }
      ],
      "name": "Inscribe",
      "type": "event"
    },
    {
      "anonymous": false,
      "inputs": [
        {
          "indexed": true,
          "internalType": "address",
          "name": "from",
          "type": "address"
        },
        {
          "indexed": true,
          "internalType": "address",
          "name": "to",
          "type": "address"
        },
        {
          "indexed": true,
          "internalType": "uint256",
          "name": "tokenId",
          "type": "uint256"
        }
      ],
      "name": "Transfer",
      "type": "event"
    },
    {
      "inputs": [
        {
          "internalType": "address",
          "name": "to",
          "type": "address"
        },
        {
          "internalType": "uint256",
          "name": "tokenId",
          "type": "uint256"
        }
      ],
      "name": "approve",
      "outputs": [],
      "stateMutability": "nonpayable",
      "type": "function"
    },
    {
      "inputs": [
        {
          "internalType": "address",
          "name": "owner",
          "type": "address"
        }
      ],
      "name": "balanceOf",
      "outputs": [
        {
          "internalType": "uint256",
          "name": "",
          "type": "uint256"
        }
      ],
      "stateMutability": "view",
      "type": "function"
    },
    {
      "inputs": [
        {
          "internalType": "uint256",
          "name": "tokenId",
          "type": "uint256"
        }
      ],
      "name": "getApproved",
      "outputs": [
        {
          "internalType": "address",
          "name": "",
          "type": "address"
        }
      ],
      "stateMutability": "view",
      "type": "function"
    },
    {
      "inputs": [
        {
          "internalType": "string",
          "name": "",
          "type": "string"
        }
      ],
      "name": "inscInfo",
      "outputs": [
        {
          "internalType": "bytes",
          "name": "",
          "type": "bytes"
        }
      ],
      "stateMutability": "view",
      "type": "function"
    },
    {
      "inputs": [
        {
          "internalType": "address",
          "name": "to",
          "type": "address"
        },
        {
          "internalType": "bytes",
          "name": "data",
          "type": "bytes"
        }
      ],
      "name": "inscribe",
      "outputs": [],
      "stateMutability": "nonpayable",
      "type": "function"
    },
    {
      "inputs": [
        {
          "internalType": "address",
          "name": "owner",
          "type": "address"
        },
        {
          "internalType": "address",
          "name": "operator",
          "type": "address"
        }
      ],
      "name": "isApprovedForAll",
      "outputs": [
        {
          "internalType": "bool",
          "name": "",
          "type": "bool"
        }
      ],
      "stateMutability": "view",
      "type": "function"
    },
    {
      "inputs": [],
      "name": "name",
      "outputs": [
        {
          "internalType": "string",
          "name": "",
          "type": "string"
        }
      ],
      "stateMutability": "view",
      "type": "function"
    },
    {
      "inputs": [
        {
          "internalType": "uint256",
          "name": "tokenId",
          "type": "uint256"
        }
      ],
      "name": "ownerOf",
      "outputs": [
        {
          "internalType": "address",
          "name": "",
          "type": "address"
        }
      ],
      "stateMutability": "view",
      "type": "function"
    },
    {
      "inputs": [
        {
          "internalType": "address",
          "name": "from",
          "type": "address"
        },
        {
          "internalType": "address",
          "name": "to",
          "type": "address"
        },
        {
          "internalType": "uint256",
          "name": "tokenId",
          "type": "uint256"
        }
      ],
      "name": "safeTransferFrom",
      "outputs": [],
      "stateMutability": "nonpayable",
      "type": "function"
    },
    {
      "inputs": [
        {
          "internalType": "address",
          "name": "from",
          "type": "address"
        },
        {
          "internalType": "address",
          "name": "to",
          "type": "address"
        },
        {
          "internalType": "uint256",
          "name": "tokenId",
          "type": "uint256"
        },
        {
          "internalType": "bytes",
          "name": "data",
          "type": "bytes"
        }
      ],
      "name": "safeTransferFrom",
      "outputs": [],
      "stateMutability": "nonpayable",
      "type": "function"
    },
    {
      "inputs": [
        {
          "internalType": "address",
          "name": "operator",
          "type": "address"
        },
        {
          "internalType": "bool",
          "name": "approved",
          "type": "bool"
        }
      ],
      "name": "setApprovalForAll",
      "outputs": [],
      "stateMutability": "nonpayable",
      "type": "function"
    },
    {
      "inputs": [
        {
          "internalType": "bytes4",
          "name": "interfaceId",
          "type": "bytes4"
        }
      ],
      "name": "supportsInterface",
      "outputs": [
        {
          "internalType": "bool",
          "name": "",
          "type": "bool"
        }
      ],
      "stateMutability": "view",
      "type": "function"
    },
    {
      "inputs": [],
      "name": "symbol",
      "outputs": [
        {
          "internalType": "string",
          "name": "",
          "type": "string"
        }
      ],
      "stateMutability": "view",
      "type": "function"
    },
    {
      "inputs": [
        {
          "internalType": "uint256",
          "name": "index",
          "type": "uint256"
        }
      ],
      "name": "tokenByIndex",
      "outputs": [
        {
          "internalType": "uint256",
          "name": "",
          "type": "uint256"
        }
      ],
      "stateMutability": "view",
      "type": "function"
    },
    {
      "inputs": [
        {
          "internalType": "address",
          "name": "owner",
          "type": "address"
        },
        {
          "internalType": "uint256",
          "name": "index",
          "type": "uint256"
        }
      ],
      "name": "tokenOfOwnerByIndex",
      "outputs": [
        {
          "internalType": "uint256",
          "name": "",
          "type": "uint256"
        }
      ],
      "stateMutability": "view",
      "type": "function"
    },
    {
      "inputs": [
        {
          "internalType": "uint256",
          "name": "tokenId",
          "type": "uint256"
        }
      ],
      "name": "tokenURI",
      "outputs": [
        {
          "internalType": "string",
          "name": "",
          "type": "string"
        }
      ],
      "stateMutability": "view",
      "type": "function"
    },
    {
      "inputs": [],
      "name": "totalSupply",
      "outputs": [
        {
          "internalType": "uint256",
          "name": "",
          "type": "uint256"
        }
      ],
      "stateMutability": "view",
      "type": "function"
    },
    {
      "inputs": [
        {
          "internalType": "address",
          "name": "from",
          "type": "address"
        },
        {
          "internalType": "address",
          "name": "to",
          "type": "address"
        },
        {
          "internalType": "uint256",
          "name": "tokenId",
          "type": "uint256"
        }
      ],
      "name": "transferFrom",
      "outputs": [],
      "stateMutability": "nonpayable",
      "type": "function"
    }
  ],
  "bytecode": "0x608060405234801562000010575f80fd5b5060405162002d0538038062002d058339810160408190526200003391620005cf565b84835f62000042838262000709565b50600162000051828262000709565b50505084604051602001620000679190620007d5565b604051602081830303815290604052600a6040516200008d90600760fc1b815260010190565b90815260200160405180910390209081620000a9919062000709565b5083604051602001620000bd9190620007d5565b604051602081830303815290604052600a604051620000e4906106f760f41b815260020190565b9081526020016040518091039020908162000100919062000709565b5082604051602001620001149190620007d5565b604051602081830303815290604052600a6040516200013d90637469636b60e01b815260040190565b9081526020016040518091039020908162000159919062000709565b506040516001600160c01b031960c084901b166020820152602801604051602081830303815290604052600a6040516200019c90620dac2f60eb1b815260030190565b90815260200160405180910390209081620001b8919062000709565b506040516001600160c01b031960c083901b166020820152602801604051602081830303815290604052600a604051620001fb90626c696d60e81b815260030190565b9081526020016040518091039020908162000217919062000709565b5084836200022e6001600160401b038416620003d1565b6040516020016200024293929190620007f2565b60408051601f1981840301815282825280516020918201209083015201604051602081830303815290604052600a6040516200028c90670dad2dce890c2e6d60c31b815260080190565b90815260200160405180910390209081620002a8919062000709565b508483620002bf6001600160401b038416620003d1565b604051602001620002d3939291906200089c565b60408051601f1981840301815282825280516020918201209083015201604051602081830303815290604052600a60405162000321906b0e8e4c2dce6cccae490c2e6d60a31b8152600c0190565b908152602001604051809103902090816200033d919062000709565b5030337f0e2c612cd3a6965782a48c7f571f155667c3c913eb3b6f0af0a004652b8fdc6d878787620003786001600160401b038916620003d1565b6200038c6001600160401b038916620003d1565b604051602001620003a295949392919062000948565b60408051601f1981840301815290829052620003be9162000a3b565b60405180910390a3505050505062000b24565b6060815f03620003f85750506040805180820190915260018152600360fc1b602082015290565b815f5b81156200042757806200040e8162000a83565b91506200041f9050600a8362000ab2565b9150620003fb565b5f816001600160401b03811115620004435762000443620004ed565b6040519080825280601f01601f1916602001820160405280156200046e576020820181803683370190505b5090505b8415620004e5576200048660018362000ac8565b915062000495600a8662000ae4565b620004a290603062000afa565b60f81b818381518110620004ba57620004ba62000b10565b60200101906001600160f81b03191690815f1a905350620004dd600a8662000ab2565b945062000472565b949350505050565b634e487b7160e01b5f52604160045260245ffd5b5f5b838110156200051d57818101518382015260200162000503565b50505f910152565b5f82601f83011262000535575f80fd5b81516001600160401b0380821115620005525762000552620004ed565b604051601f8301601f19908116603f011681019082821181831017156200057d576200057d620004ed565b8160405283815286602085880101111562000596575f80fd5b620005a984602083016020890162000501565b9695505050505050565b80516001600160401b0381168114620005ca575f80fd5b919050565b5f805f805f60a08688031215620005e4575f80fd5b85516001600160401b0380821115620005fb575f80fd5b6200060989838a0162000525565b965060208801519150808211156200061f575f80fd5b6200062d89838a0162000525565b9550604088015191508082111562000643575f80fd5b50620006528882890162000525565b9350506200066360608701620005b3565b91506200067360808701620005b3565b90509295509295909350565b600181811c908216806200069457607f821691505b602082108103620006b357634e487b7160e01b5f52602260045260245ffd5b50919050565b601f8211156200070457805f5260205f20601f840160051c81016020851015620006e05750805b601f840160051c820191505b8181101562000701575f8155600101620006ec565b50505b505050565b81516001600160401b03811115620007255762000725620004ed565b6200073d816200073684546200067f565b84620006b9565b602080601f83116001811462000773575f84156200075b5750858301515b5f19600386901b1c1916600185901b178555620007cd565b5f85815260208120601f198616915b82811015620007a35788860151825594840194600190910190840162000782565b5085821015620007c157878501515f19600388901b60f8161c191681555b505060018460011b0185555b505050505050565b5f8251620007e881846020870162000501565b9190910192915050565b653d9138111d1160d11b815283515f906200081581600685016020890162000501565b7f222c226f70223a226d696e74222c227469636b223a220000000000000000000060069184019182015284516200085481601c84016020890162000501565b6811161130b6ba111d1160b91b601c929091019182015283516200088081602584016020880162000501565b61227d60f01b6025929091019182015260270195945050505050565b653d9138111d1160d11b815283515f90620008bf81600685016020890162000501565b80830190507f222c226f70223a227472616e73666572222c227469636b223a2200000000000060068201528451620008ff81602084016020890162000501565b8082019150506811161130b6ba111d1160b91b602082015283516200092c81602984016020880162000501565b61227d60f01b60299290910191820152602b0195945050505050565b653d9138111d1160d11b815285515f906200096b816006850160208b0162000501565b6711161137b8111d1160c11b60069184019182015286516200099581600e840160208b0162000501565b691116113a34b1b5911d1160b11b600e92909101918201528551620009c2816018840160208a0162000501565b6811161136b0bc111d1160b91b601892909101918201528451620009ee81602184016020890162000501565b681116113634b6911d1160b91b60219290910191820152835162000a1a81602a84016020880162000501565b0162000a2d602a820161227d60f01b9052565b602c01979650505050505050565b602081525f825180602084015262000a5b81604085016020870162000501565b601f01601f19169190910160400192915050565b634e487b7160e01b5f52601160045260245ffd5b5f6001820162000a975762000a9762000a6f565b5060010190565b634e487b7160e01b5f52601260045260245ffd5b5f8262000ac35762000ac362000a9e565b500490565b8181038181111562000ade5762000ade62000a6f565b92915050565b5f8262000af55762000af562000a9e565b500690565b8082018082111562000ade5762000ade62000a6f565b634e487b7160e01b5f52603260045260245ffd5b6121d38062000b325f395ff3fe608060405234801561000f575f80fd5b5060043610610111575f3560e01c806358bf77ac1161009e578063a22cb4651161006e578063a22cb46514610231578063b53a04d214610244578063b88d4fde14610257578063c87b56dd1461026a578063e985e9c51461027d575f80fd5b806358bf77ac146101f05780636352211e1461020357806370a082311461021657806395d89b4114610229575f80fd5b806318160ddd116100e457806318160ddd1461019257806323b872dd146101a45780632f745c59146101b757806342842e0e146101ca5780634f6ccce7146101dd575f80fd5b806301ffc9a71461011557806306fdde031461013d578063081812fc14610152578063095ea7b31461017d575b5f80fd5b6101286101233660046116a9565b6102b8565b60405190151581526020015b60405180910390f35b6101456102e2565b6040516101349190611718565b61016561016036600461172a565b610371565b6040516001600160a01b039091168152602001610134565b61019061018b36600461175c565b610396565b005b6008545b604051908152602001610134565b6101906101b2366004611784565b6104af565b6101966101c536600461175c565b6104e0565b6101906101d8366004611784565b610574565b6101966101eb36600461172a565b61058e565b6101906101fe3660046117bd565b61061e565b61016561021136600461172a565b610853565b610196610224366004611839565b6108b2565b610145610936565b61019061023f366004611852565b610945565b610145610252366004611912565b610954565b610190610265366004611957565b6109f7565b61014561027836600461172a565b610a2f565b61012861028b3660046119ce565b6001600160a01b039182165f90815260056020908152604080832093909416825291909152205460ff1690565b5f6001600160e01b0319821663780e9d6360e01b14806102dc57506102dc82610b93565b92915050565b60605f80546102f0906119ff565b80601f016020809104026020016040519081016040528092919081815260200182805461031c906119ff565b80156103675780601f1061033e57610100808354040283529160200191610367565b820191905f5260205f20905b81548152906001019060200180831161034a57829003601f168201915b5050505050905090565b5f61037b82610be2565b505f908152600460205260409020546001600160a01b031690565b5f6103a082610853565b9050806001600160a01b0316836001600160a01b0316036104125760405162461bcd60e51b815260206004820152602160248201527f4552433732313a20617070726f76616c20746f2063757272656e74206f776e656044820152603960f91b60648201526084015b60405180910390fd5b336001600160a01b038216148061042e575061042e813361028b565b6104a05760405162461bcd60e51b815260206004820152603e60248201527f4552433732313a20617070726f76652063616c6c6572206973206e6f7420746f60448201527f6b656e206f776e6572206e6f7220617070726f76656420666f7220616c6c00006064820152608401610409565b6104aa8383610c43565b505050565b6104b93382610cb0565b6104d55760405162461bcd60e51b815260040161040990611a37565b6104aa838383610d2d565b5f6104ea836108b2565b821061054c5760405162461bcd60e51b815260206004820152602b60248201527f455243373231456e756d657261626c653a206f776e657220696e646578206f7560448201526a74206f6620626f756e647360a81b6064820152608401610409565b506001600160a01b03919091165f908152600660209081526040808320938352929052205490565b6104aa83838360405180602001604052805f8152506109f7565b5f61059860085490565b82106105fb5760405162461bcd60e51b815260206004820152602c60248201527f455243373231456e756d657261626c653a20676c6f62616c20696e646578206f60448201526b7574206f6620626f756e647360a01b6064820152608401610409565b6008828154811061060e5761060e611a85565b905f5260205f2001549050919050565b604051670dad2dce890c2e6d60c31b8152600a90600801908152602001604051809103902061064c90611a99565b828260405161065c929190611ad6565b604051809103902003610754576106868361067660085490565b610681906001611af9565b610ed0565b604051626c696d60e81b8152600a9060030190815260200160405180910390206106af90611b0c565b60c01c600a6040516106ca90620dac2f60eb1b815260030190565b90815260200160405180910390206106e190611b0c565b60c01c6106ee9190611b6f565b67ffffffffffffffff1661070160085490565b111561074f5760405162461bcd60e51b815260206004820152601f60248201527f455243373231496e73633a206578636565646564206d617820737570706c79006044820152606401610409565b610801565b6040516b0e8e4c2dce6cccae490c2e6d60a31b8152600a90600c01908152602001604051809103902061078690611a99565b8282604051610796929190611ad6565b6040518091039020036107c1575f6107ae335f6104e0565b90506107bb3385836104af565b50610801565b60405162461bcd60e51b81526020600482015260156024820152740455243373231496e73633a20756e6b6e6f77206f7605c1b6044820152606401610409565b826001600160a01b0316336001600160a01b03167f0e2c612cd3a6965782a48c7f571f155667c3c913eb3b6f0af0a004652b8fdc6d8484604051610846929190611b95565b60405180910390a3505050565b5f818152600260205260408120546001600160a01b0316806102dc5760405162461bcd60e51b8152602060048201526018602482015277115490cdcc8c4e881a5b9d985b1a59081d1bdad95b88125160421b6044820152606401610409565b5f6001600160a01b03821661091b5760405162461bcd60e51b815260206004820152602960248201527f4552433732313a2061646472657373207a65726f206973206e6f7420612076616044820152683634b21037bbb732b960b91b6064820152608401610409565b506001600160a01b03165f9081526003602052604090205490565b6060600180546102f0906119ff565b61095033838361101a565b5050565b8051602081830181018051600a8252928201919093012091528054610978906119ff565b80601f01602080910402602001604051908101604052809291908181526020018280546109a4906119ff565b80156109ef5780601f106109c6576101008083540402835291602001916109ef565b820191905f5260205f20905b8154815290600101906020018083116109d257829003601f168201915b505050505081565b610a013383610cb0565b610a1d5760405162461bcd60e51b815260040161040990611a37565b610a29848484846110df565b50505050565b5f818152600260205260409020546060906001600160a01b0316610a955760405162461bcd60e51b815260206004820152601860248201527f4552433732313a20746f6b656e206e6f742065786973747300000000000000006044820152606401610409565b5f600a604051610aac90600760fc1b815260010190565b908152604051908190036020018120637469636b60e01b825290600a906004019081526020016040518091039020610b14600a604051610af590626c696d60e81b815260030190565b9081526020016040518091039020610b0c90611b0c565b60c01c611112565b604051602001610b2693929190611c4d565b60405160208183030381529060405290505f610b68610b448361120f565b604051602001610b549190611eff565b60405160208183030381529060405261120f565b905080604051602001610b7b9190611ff4565b60405160208183030381529060405292505050919050565b5f6001600160e01b031982166380ac58cd60e01b1480610bc357506001600160e01b03198216635b5e139f60e01b145b806102dc57506301ffc9a760e01b6001600160e01b03198316146102dc565b5f818152600260205260409020546001600160a01b0316610c405760405162461bcd60e51b8152602060048201526018602482015277115490cdcc8c4e881a5b9d985b1a59081d1bdad95b88125160421b6044820152606401610409565b50565b5f81815260046020526040902080546001600160a01b0319166001600160a01b0384169081179091558190610c7782610853565b6001600160a01b03167f8c5be1e5ebec7d5bd14f71427d1e84f3dd0314c0f7b2291e5b200ac8c7c3b92560405160405180910390a45050565b5f80610cbb83610853565b9050806001600160a01b0316846001600160a01b03161480610d0157506001600160a01b038082165f9081526005602090815260408083209388168352929052205460ff165b80610d255750836001600160a01b0316610d1a84610371565b6001600160a01b0316145b949350505050565b826001600160a01b0316610d4082610853565b6001600160a01b031614610da45760405162461bcd60e51b815260206004820152602560248201527f4552433732313a207472616e736665722066726f6d20696e636f72726563742060448201526437bbb732b960d91b6064820152608401610409565b6001600160a01b038216610e065760405162461bcd60e51b8152602060048201526024808201527f4552433732313a207472616e7366657220746f20746865207a65726f206164646044820152637265737360e01b6064820152608401610409565b610e1183838361135e565b610e1b5f82610c43565b6001600160a01b0383165f908152600360205260408120805460019290610e43908490612038565b90915550506001600160a01b0382165f908152600360205260408120805460019290610e70908490611af9565b90915550505f8181526002602052604080822080546001600160a01b0319166001600160a01b0386811691821790925591518493918716917fddf252ad1be2c89b69c2b068fc378daa952ba7f163c4a11628f55a4df523b3ef91a4505050565b6001600160a01b038216610f265760405162461bcd60e51b815260206004820181905260248201527f4552433732313a206d696e7420746f20746865207a65726f20616464726573736044820152606401610409565b5f818152600260205260409020546001600160a01b031615610f8a5760405162461bcd60e51b815260206004820152601c60248201527f4552433732313a20746f6b656e20616c7265616479206d696e746564000000006044820152606401610409565b610f955f838361135e565b6001600160a01b0382165f908152600360205260408120805460019290610fbd908490611af9565b90915550505f8181526002602052604080822080546001600160a01b0319166001600160a01b03861690811790915590518392907fddf252ad1be2c89b69c2b068fc378daa952ba7f163c4a11628f55a4df523b3ef908290a45050565b816001600160a01b0316836001600160a01b03160361107b5760405162461bcd60e51b815260206004820152601960248201527f4552433732313a20617070726f766520746f2063616c6c6572000000000000006044820152606401610409565b6001600160a01b038381165f81815260056020908152604080832094871680845294825291829020805460ff191686151590811790915591519182527f17307eab39ab6107e8899845ad3d59bd9653f200f220920489ca2b5937696c319101610846565b6110ea848484610d2d565b6110f684848484611415565b610a295760405162461bcd60e51b81526004016104099061204b565b6060815f036111385750506040805180820190915260018152600360fc1b602082015290565b815f5b8115611161578061114b8161209d565b915061115a9050600a836120b5565b915061113b565b5f8167ffffffffffffffff81111561117b5761117b61188b565b6040519080825280601f01601f1916602001820160405280156111a5576020820181803683370190505b5090505b8415610d25576111ba600183612038565b91506111c7600a866120c8565b6111d2906030611af9565b60f81b8183815181106111e7576111e7611a85565b60200101906001600160f81b03191690815f1a905350611208600a866120b5565b94506111a9565b606081515f0361122c57505060408051602081019091525f815290565b5f60405180606001604052806040815260200161215e6040913990505f6003845160026112599190611af9565b61126391906120b5565b61126e9060046120db565b67ffffffffffffffff8111156112865761128661188b565b6040519080825280601f01601f1916602001820160405280156112b0576020820181803683370190505b509050600182016020820185865187015b8082101561131c576003820191508151603f8160121c168501518453600184019350603f81600c1c168501518453600184019350603f8160061c168501518453600184019350603f81168501518453506001830192506112c1565b5050600386510660018114611338576002811461134b57611353565b603d6001830353603d6002830353611353565b603d60018303535b509195945050505050565b6001600160a01b0383166113b8576113b381600880545f838152600960205260408120829055600182018355919091527ff3f7a9fe364faab93b216da50a3214154f22a0a2b415b23a84c8169e8b636ee30155565b6113db565b816001600160a01b0316836001600160a01b0316146113db576113db8382611512565b6001600160a01b0382166113f2576104aa816115ab565b826001600160a01b0316826001600160a01b0316146104aa576104aa8282611652565b5f6001600160a01b0384163b1561150757604051630a85bd0160e11b81526001600160a01b0385169063150b7a02906114589033908990889088906004016120f2565b6020604051808303815f875af1925050508015611492575060408051601f3d908101601f1916820190925261148f9181019061212e565b60015b6114ed573d8080156114bf576040519150601f19603f3d011682016040523d82523d5f602084013e6114c4565b606091505b5080515f036114e55760405162461bcd60e51b81526004016104099061204b565b805181602001fd5b6001600160e01b031916630a85bd0160e11b149050610d25565b506001949350505050565b5f600161151e846108b2565b6115289190612038565b5f83815260076020526040902054909150808214611579576001600160a01b0384165f9081526006602090815260408083208584528252808320548484528184208190558352600790915290208190555b505f9182526007602090815260408084208490556001600160a01b039094168352600681528383209183525290812055565b6008545f906115bc90600190612038565b5f83815260096020526040812054600880549394509092849081106115e3576115e3611a85565b905f5260205f2001549050806008838154811061160257611602611a85565b5f91825260208083209091019290925582815260099091526040808220849055858252812055600880548061163957611639612149565b600190038181905f5260205f20015f9055905550505050565b5f61165c836108b2565b6001600160a01b039093165f908152600660209081526040808320868452825280832085905593825260079052919091209190915550565b6001600160e01b031981168114610c40575f80fd5b5f602082840312156116b9575f80fd5b81356116c481611694565b9392505050565b5f5b838110156116e55781810151838201526020016116cd565b50505f910152565b5f81518084526117048160208601602086016116cb565b601f01601f19169290920160200192915050565b602081525f6116c460208301846116ed565b5f6020828403121561173a575f80fd5b5035919050565b80356001600160a01b0381168114611757575f80fd5b919050565b5f806040838503121561176d575f80fd5b61177683611741565b946020939093013593505050565b5f805f60608486031215611796575f80fd5b61179f84611741565b92506117ad60208501611741565b9150604084013590509250925092565b5f805f604084860312156117cf575f80fd5b6117d884611741565b9250602084013567ffffffffffffffff808211156117f4575f80fd5b818601915086601f830112611807575f80fd5b813581811115611815575f80fd5b876020828501011115611826575f80fd5b6020830194508093505050509250925092565b5f60208284031215611849575f80fd5b6116c482611741565b5f8060408385031215611863575f80fd5b61186c83611741565b915060208301358015158114611880575f80fd5b809150509250929050565b634e487b7160e01b5f52604160045260245ffd5b5f67ffffffffffffffff808411156118b9576118b961188b565b604051601f8501601f19908116603f011681019082821181831017156118e1576118e161188b565b816040528093508581528686860111156118f9575f80fd5b858560208301375f602087830101525050509392505050565b5f60208284031215611922575f80fd5b813567ffffffffffffffff811115611938575f80fd5b8201601f81018413611948575f80fd5b610d258482356020840161189f565b5f805f806080858703121561196a575f80fd5b61197385611741565b935061198160208601611741565b925060408501359150606085013567ffffffffffffffff8111156119a3575f80fd5b8501601f810187136119b3575f80fd5b6119c28782356020840161189f565b91505092959194509250565b5f80604083850312156119df575f80fd5b6119e883611741565b91506119f660208401611741565b90509250929050565b600181811c90821680611a1357607f821691505b602082108103611a3157634e487b7160e01b5f52602260045260245ffd5b50919050565b6020808252602e908201527f4552433732313a2063616c6c6572206973206e6f7420746f6b656e206f776e6560408201526d1c881b9bdc88185c1c1c9bdd995960921b606082015260800190565b634e487b7160e01b5f52603260045260245ffd5b5f611aa482546119ff565b82601f821115611ab857835f5260205f2090505b5491506020811015611a31575f1960209190910360031b1b16919050565b818382375f9101908152919050565b634e487b7160e01b5f52601160045260245ffd5b808201808211156102dc576102dc611ae5565b5f611b1782546119ff565b82601f821115611b2b57835f5260205f2090505b546001600160c01b031980821693506008831015611b535780818460080360031b1b83161693505b505050919050565b634e487b7160e01b5f52601260045260245ffd5b5f67ffffffffffffffff80841680611b8957611b89611b5b565b92169190910492915050565b60208152816020820152818360408301375f818301604090810191909152601f909201601f19160101919050565b5f8154611bcf816119ff565b60018281168015611be75760018114611bfc57611c28565b60ff1984168752821515830287019450611c28565b855f526020805f205f5b85811015611c1f5781548a820152908401908201611c06565b50505082870194505b5050505092915050565b5f8151611c438185602086016116cb565b9290920192915050565b7f3c73766720786d6c6e733d22687474703a2f2f7777772e77332e6f72672f323081527f30302f73766722207072657365727665417370656374526174696f3d22784d6960208201527f6e594d696e206d656574222076696577426f783d22302030203335302033353060408201527f223e3c7374796c653e2e626173657b66696c6c3a677265656e3b666f6e742d6660608201527f616d696c793a4d6f6e6f73706163653b666f6e742d73697a653a313870783b7d60808201527f3c2f7374796c653e3c726563742077696474683d22313030252220686569676860a08201527f743d2231303025222066696c6c3d22626c61636b222f3e3c7465787420783d2260c08201527f36302220793d223130302220636c6173733d2262617365223e7b3c2f7465787460e08201527f3e3c7465787420783d2239302220793d223133302220636c6173733d226261736101008201526732911f1138111d1160c11b6101208201525f611ef6611ea7611ea1611e5d611e57611dd161012888018b611bc3565b7f222c3c2f746578743e3c7465787420783d2239302220793d223136302220636c81527f6173733d2262617365223e226f70223a226d696e74222c3c2f746578743e3c7460208201527f65787420783d2239302220793d223139302220636c6173733d2262617365223e604082015267113a34b1b5911d1160c11b606082015260680190565b88611bc3565b7f222c3c2f746578743e3c7465787420783d2239302220793d223232302220636c81527130b9b99e913130b9b2911f1130b6ba111d1160711b602082015260320190565b85611c32565b7f223c2f746578743e3c7465787420783d2236302220793d223235302220636c6181527f73733d2262617365223e7d3c2f746578743e3c2f7376673e0000000000000000602082015260380190565b95945050505050565b7f7b226465736372697074696f6e223a22455243373231496e736320697320616e81527f20696d706c656d656e74206f6620696e736372697074696f6e20696e2045564d60208201527f2c20616c736f20612070726f746f636f6c207374616e64617264206f6620617360408201527f736574732c206265747765656e20455243323020616e64204552433732312e2260608201527f2c22696d616765223a22646174613a696d6167652f7376672b786d6c3b626173608082015263194d8d0b60e21b60a08201525f8251611fdb8160a48501602087016116cb565b61227d60f01b60a493909101928301525060a601919050565b7f646174613a6170706c69636174696f6e2f6a736f6e3b6261736536342c00000081525f825161202b81601d8501602087016116cb565b91909101601d0192915050565b818103818111156102dc576102dc611ae5565b60208082526032908201527f4552433732313a207472616e7366657220746f206e6f6e20455243373231526560408201527131b2b4bb32b91034b6b83632b6b2b73a32b960711b606082015260800190565b5f600182016120ae576120ae611ae5565b5060010190565b5f826120c3576120c3611b5b565b500490565b5f826120d6576120d6611b5b565b500690565b80820281158282048414176102dc576102dc611ae5565b6001600160a01b03858116825284166020820152604081018390526080606082018190525f90612124908301846116ed565b9695505050505050565b5f6020828403121561213e575f80fd5b81516116c481611694565b634e487b7160e01b5f52603160045260245ffdfe4142434445464748494a4b4c4d4e4f505152535455565758595a6162636465666768696a6b6c6d6e6f707172737475767778797a303132333435363738392b2fa2646970667358221220a02d291739e00d6176d94b391eb4675277585ef540cc818f4ec7b151d193b4bb64736f6c63430008180033",
  "linkReferences": {},
  "deployedLinkReferences": {}
}