{
  "_format": "hh-sol-artifact-1",
  "contractName": "Pool",
  "sourceName": "contracts/innovation/trade/Pool.sol",
  "abi": [
    {
      "inputs": [
        {
          "internalType": "address",
          "name": "v3PoolAddr",
          "type": "address"
        },
        {
          "internalType": "address",
          "name": "stableTokenAddr",
          "type": "address"
        }
      ],
      "stateMutability": "nonpayable",
      "type": "constructor"
    },
    {
      "anonymous": false,
      "inputs": [
        {
          "indexed": true,
          "internalType": "address",
          "name": "wallet",
          "type": "address"
        },
        {
          "indexed": false,
          "internalType": "uint256",
          "name": "amount",
          "type": "uint256"
        },
        {
          "indexed": true,
          "internalType": "address",
          "name": "to",
          "type": "address"
        }
      ],
      "name": "Harvest",
      "type": "event"
    },
    {
      "anonymous": false,
      "inputs": [
        {
          "indexed": true,
          "internalType": "address",
          "name": "wallet",
          "type": "address"
        },
        {
          "indexed": false,
          "internalType": "uint256",
          "name": "share",
          "type": "uint256"
        }
      ],
      "name": "SetUser",
      "type": "event"
    },
    {
      "inputs": [
        {
          "internalType": "uint256",
          "name": "amount",
          "type": "uint256"
        }
      ],
      "name": "deposit",
      "outputs": [],
      "stateMutability": "nonpayable",
      "type": "function"
    },
    {
      "inputs": [
        {
          "internalType": "address",
          "name": "_to",
          "type": "address"
        }
      ],
      "name": "harvest",
      "outputs": [],
      "stateMutability": "nonpayable",
      "type": "function"
    },
    {
      "inputs": [
        {
          "internalType": "address",
          "name": "_wallet",
          "type": "address"
        }
      ],
      "name": "pendingReward",
      "outputs": [
        {
          "internalType": "uint256",
          "name": "",
          "type": "uint256"
        }
      ],
      "stateMutability": "view",
      "type": "function"
    },
    {
      "inputs": [],
      "name": "rewardToken",
      "outputs": [
        {
          "internalType": "contract IERC20",
          "name": "",
          "type": "address"
        }
      ],
      "stateMutability": "view",
      "type": "function"
    },
    {
      "inputs": [],
      "name": "stableToken",
      "outputs": [
        {
          "internalType": "contract IERC20",
          "name": "",
          "type": "address"
        }
      ],
      "stateMutability": "view",
      "type": "function"
    },
    {
      "inputs": [],
      "name": "totalShare",
      "outputs": [
        {
          "internalType": "uint256",
          "name": "",
          "type": "uint256"
        }
      ],
      "stateMutability": "view",
      "type": "function"
    },
    {
      "inputs": [
        {
          "internalType": "address",
          "name": "",
          "type": "address"
        }
      ],
      "name": "userInfo",
      "outputs": [
        {
          "internalType": "uint256",
          "name": "rewardDebt",
          "type": "uint256"
        },
        {
          "internalType": "uint256",
          "name": "share",
          "type": "uint256"
        }
      ],
      "stateMutability": "view",
      "type": "function"
    },
    {
      "inputs": [],
      "name": "v3Pool",
      "outputs": [
        {
          "internalType": "contract IUniswapV3Pool",
          "name": "",
          "type": "address"
        }
      ],
      "stateMutability": "view",
      "type": "function"
    },
    {
      "inputs": [
        {
          "internalType": "uint256",
          "name": "amount",
          "type": "uint256"
        }
      ],
      "name": "withdraw",
      "outputs": [],
      "stateMutability": "nonpayable",
      "type": "function"
    }
  ],
  "bytecode": "0x608060405234801562000010575f80fd5b5060405162000ea438038062000ea48339810160408190526200003391620001e1565b600480546001600160a01b03199081166001600160a01b0384811691821784556006805490931690861690811790925560408051630dfe168160e01b815290519193630dfe16819282820192602092908290030181865afa1580156200009b573d5f803e3d5ffd5b505050506040513d601f19601f82011682018060405250810190620000c1919062000217565b6001600160a01b031614806200014d57506006546040805163d21220a760e01b815290516001600160a01b0380851693169163d21220a79160048083019260209291908290030181865afa1580156200011c573d5f803e3d5ffd5b505050506040513d601f19601f8201168201806040525081019062000142919062000217565b6001600160a01b0316145b6200019e5760405162461bcd60e51b815260206004820152601560248201527f737461626c65546f6b656e41646472206572726f720000000000000000000000604482015260640160405180910390fd5b600780546001600160a01b0319166001600160a01b0392909216919091179055506200023a565b80516001600160a01b0381168114620001dc575f80fd5b919050565b5f8060408385031215620001f3575f80fd5b620001fe83620001c5565b91506200020e60208401620001c5565b90509250929050565b5f6020828403121562000228575f80fd5b6200023382620001c5565b9392505050565b610c5c80620002485f395ff3fe608060405234801561000f575f80fd5b5060043610610090575f3560e01c80633a924d5b116100635780633a924d5b14610113578063a9d75b2b1461013e578063b6b55f2514610151578063f40f0f5214610164578063f7c618c114610177575f80fd5b8063026c4207146100945780630e5c011e146100b05780631959a002146100c55780632e1a7d4d14610100575b5f80fd5b61009d60015481565b6040519081526020015b60405180910390f35b6100c36100be366004610ace565b61018a565b005b6100eb6100d3366004610ace565b5f602081905290815260409020805460019091015482565b604080519283526020830191909152016100a7565b6100c361010e366004610af4565b610197565b600654610126906001600160a01b031681565b6040516001600160a01b0390911681526020016100a7565b600754610126906001600160a01b031681565b6100c361015f366004610af4565b6102e7565b61009d610172366004610ace565b610321565b600454610126906001600160a01b031681565b6101943382610443565b50565b335f908152602081905260409020600101548111156101f15760405162461bcd60e51b81526020600482015260116024820152700eed2e8d0c8e4c2ee40e8dede40daeac6d607b1b60448201526064015b60405180910390fd5b6007546040516370a0823160e01b815230600482015282916001600160a01b0316906370a0823190602401602060405180830381865afa158015610237573d5f803e3d5ffd5b505050506040513d601f19601f8201168201806040525081019061025b9190610b0b565b10156102a95760405162461bcd60e51b815260206004820152601d60248201527f77616974696e6720706f6f6c20676f7420656e6f75676820746f6b656e00000060448201526064016101e8565b6007546102c0906001600160a01b03163383610525565b335f8181526020819052604090206001015461019491906102e2908490610b36565b61058d565b6007546102ff906001600160a01b031633308461076b565b335f8181526020819052604090206001015461019491906102e2908490610b4f565b6001600160a01b038181165f908152602081815260408083208151808301835281548152600190910154928101929092526004805491516370a0823160e01b8152309181019190915292939192849291909116906370a0823190602401602060405180830381865afa158015610399573d5f803e3d5ffd5b505050506040513d601f19601f820116820180604052508101906103bd9190610b0b565b90505f600354826002546103d19190610b4f565b6103db9190610b36565b90505f6001548264e8d4a510006103f29190610b62565b6103fc9190610b79565b6005546104099190610b4f565b9050835f015164e8d4a510008286602001516104259190610b62565b61042f9190610b79565b6104399190610b36565b9695505050505050565b6001600160a01b0382165f908152602081905260408120600181015490910361046b57505050565b6104736107a3565b5f61047d84610321565b9050801561051f5764e8d4a51000600554836001015461049d9190610b62565b6104a79190610b79565b82556002546104b7908290610b4f565b6002556004546104d1906001600160a01b03168483610525565b826001600160a01b0316846001600160a01b03167f49e6aa9a971bb7d18b2ede509ae7267a8861aae4e7c444a27af1d3037d7391178360405161051691815260200190565b60405180910390a35b50505050565b6040516001600160a01b03831660248201526044810182905261058890849063a9059cbb60e01b906064015b60408051601f198184030181529190526020810180516001600160e01b03166001600160e01b03199093169290921790915261087f565b505050565b6001600160a01b0382165f9081526020819052604081209082900361062a576105b68384610443565b80600101546001546105c89190610b36565b60019081556001600160a01b0384165f818152602081905260408082208281559093015590517f43e834d13414d47036ba1acadf69f7135b912cfd4d053ca9fdfc8b0f0839bfe49061061d9085815260200190565b60405180910390a2505050565b80600101545f036106df5761063d6107a3565b8160015461064b9190610b4f565b6001556005545f9064e8d4a51000906106649085610b62565b61066e9190610b79565b60408051808201825282815260208082018781526001600160a01b0389165f8181528084528590209351845590516001909301929092559151868152929350917f43e834d13414d47036ba1acadf69f7135b912cfd4d053ca9fdfc8b0f0839bfe4910160405180910390a250505050565b6106e98384610443565b8060010154826001546106fc9190610b4f565b6107069190610b36565b6001908155810182905560055464e8d4a51000906107249084610b62565b61072e9190610b79565b81556040518281526001600160a01b038416907f43e834d13414d47036ba1acadf69f7135b912cfd4d053ca9fdfc8b0f0839bfe49060200161061d565b6040516001600160a01b038085166024830152831660448201526064810182905261051f9085906323b872dd60e01b90608401610551565b6001545f036107ae57565b600480546040516370a0823160e01b815230928101929092525f916001600160a01b03909116906370a0823190602401602060405180830381865afa1580156107f9573d5f803e3d5ffd5b505050506040513d601f19601f8201168201806040525081019061081d9190610b0b565b90505f600354826002546108319190610b4f565b61083b9190610b36565b6001549091506108508264e8d4a51000610b62565b61085a9190610b79565b6005546108679190610b4f565b600555600254610878908390610b4f565b6003555050565b5f6108d3826040518060400160405280602081526020017f5361666545524332303a206c6f772d6c6576656c2063616c6c206661696c6564815250856001600160a01b03166109509092919063ffffffff16565b80519091501561058857808060200190518101906108f19190610b98565b6105885760405162461bcd60e51b815260206004820152602a60248201527f5361666545524332303a204552433230206f7065726174696f6e20646964206e6044820152691bdd081cdd58d8d9595960b21b60648201526084016101e8565b606061095e84845f85610968565b90505b9392505050565b6060824710156109c95760405162461bcd60e51b815260206004820152602660248201527f416464726573733a20696e73756666696369656e742062616c616e636520666f6044820152651c8818d85b1b60d21b60648201526084016101e8565b6001600160a01b0385163b610a205760405162461bcd60e51b815260206004820152601d60248201527f416464726573733a2063616c6c20746f206e6f6e2d636f6e747261637400000060448201526064016101e8565b5f80866001600160a01b03168587604051610a3b9190610bd9565b5f6040518083038185875af1925050503d805f8114610a75576040519150601f19603f3d011682016040523d82523d5f602084013e610a7a565b606091505b5091509150610a8a828286610a95565b979650505050505050565b60608315610aa4575081610961565b825115610ab45782518084602001fd5b8160405162461bcd60e51b81526004016101e89190610bf4565b5f60208284031215610ade575f80fd5b81356001600160a01b0381168114610961575f80fd5b5f60208284031215610b04575f80fd5b5035919050565b5f60208284031215610b1b575f80fd5b5051919050565b634e487b7160e01b5f52601160045260245ffd5b81810381811115610b4957610b49610b22565b92915050565b80820180821115610b4957610b49610b22565b8082028115828204841417610b4957610b49610b22565b5f82610b9357634e487b7160e01b5f52601260045260245ffd5b500490565b5f60208284031215610ba8575f80fd5b81518015158114610961575f80fd5b5f5b83811015610bd1578181015183820152602001610bb9565b50505f910152565b5f8251610bea818460208701610bb7565b9190910192915050565b602081525f8251806020840152610c12816040850160208701610bb7565b601f01601f1916919091016040019291505056fea26469706673582212200a63bf8954aaf66b3e27812cfe3934cf3e0294d015a1759369b426557207207164736f6c63430008180033",
  "linkReferences": {},
  "deployedLinkReferences": {}
}