{
  "_format": "hh-sol-artifact-1",
  "contractName": "Deployer",
  "sourceName": "contracts/wallet/Deployer.sol",
  "abi": [
    {
      "inputs": [
        {
          "internalType": "address[]",
          "name": "guardians",
          "type": "address[]"
        },
        {
          "internalType": "uint8",
          "name": "needGuardiansNum",
          "type": "uint8"
        }
      ],
      "stateMutability": "nonpayable",
      "type": "constructor"
    },
    {
      "inputs": [],
      "name": "bundlerAddr",
      "outputs": [
        {
          "internalType": "address",
          "name": "",
          "type": "address"
        }
      ],
      "stateMutability": "view",
      "type": "function"
    },
    {
      "inputs": [],
      "name": "bundlerManagerAddr",
      "outputs": [
        {
          "internalType": "address",
          "name": "",
          "type": "address"
        }
      ],
      "stateMutability": "view",
      "type": "function"
    },
    {
      "inputs": [],
      "name": "multicallAddr",
      "outputs": [
        {
          "internalType": "address",
          "name": "",
          "type": "address"
        }
      ],
      "stateMutability": "view",
      "type": "function"
    },
    {
      "inputs": [],
      "name": "publicSocialRecoveryAddr",
      "outputs": [
        {
          "internalType": "address",
          "name": "",
          "type": "address"
        }
      ],
      "stateMutability": "view",
      "type": "function"
    },
    {
      "inputs": [],
      "name": "walletFactoryAddr",
      "outputs": [
        {
          "internalType": "address",
          "name": "",
          "type": "address"
        }
      ],
      "stateMutability": "view",
      "type": "function"
    }
  ],
  "bytecode": "0x61012060405234801561001157600080fd5b50604051615869380380615869833981016040819052610030916102c1565b60405161003c9061024a565b604051809103906000f080158015610058573d6000803e3d6000fd5b506001600160a01b031660805260405160009061007490610257565b604051809103906000f080158015610090573d6000803e3d6000fd5b506001600160a01b03811660a0819052608051604051633c69640f60e01b81529293509091633c69640f916100cb9187908790600401610397565b600060405180830381600087803b1580156100e557600080fd5b505af11580156100f9573d6000803e3d6000fd5b505060405163a6f9dae160e01b81523360048201526001600160a01b038416925063a6f9dae19150602401600060405180830381600087803b15801561013e57600080fd5b505af1158015610152573d6000803e3d6000fd5b50505050806001600160a01b031663ad0ffd8b6040518163ffffffff1660e01b8152600401602060405180830381865afa158015610194573d6000803e3d6000fd5b505050506040513d601f19601f820116820180604052508101906101b891906103ff565b6001600160a01b031660c08190526040516101d290610264565b6001600160a01b039091168152602001604051809103906000f0801580156101fe573d6000803e3d6000fd5b506001600160a01b031660e05260405161021790610271565b604051809103906000f080158015610233573d6000803e3d6000fd5b506001600160a01b03166101005250610421915050565b61132a806105d283390190565b611d1b806118fc83390190565b611c438061361783390190565b61060f8061525a83390190565b634e487b7160e01b600052604160045260246000fd5b80516001600160a01b03811681146102ab57600080fd5b919050565b805160ff811681146102ab57600080fd5b600080604083850312156102d457600080fd5b82516001600160401b03808211156102eb57600080fd5b818501915085601f8301126102ff57600080fd5b81516020828211156103135761031361027e565b8160051b604051601f19603f830116810181811086821117156103385761033861027e565b60405292835281830193508481018201928984111561035657600080fd5b948201945b8386101561037b5761036c86610294565b8552948201949382019361035b565b965061038a90508782016102b0565b9450505050509250929050565b6001600160a01b038481168252606060208084018290528551918401829052600092868201929091906080860190855b818110156103e55785518516835294830194918301916001016103c7565b50508094505050505060ff83166040830152949350505050565b60006020828403121561041157600080fd5b61041a82610294565b9392505050565b60805160a05160c05160e05161010051610171610461600039600060f2015260006101190152600060a40152600060610152600060cb01526101716000f3fe608060405234801561001057600080fd5b50600436106100575760003560e01c8063223c4ce51461005c57806342ac5fa81461009f578063717174d0146100c6578063cd375c9b146100ed578063d7ff20f814610114575b600080fd5b6100837f000000000000000000000000000000000000000000000000000000000000000081565b6040516001600160a01b03909116815260200160405180910390f35b6100837f000000000000000000000000000000000000000000000000000000000000000081565b6100837f000000000000000000000000000000000000000000000000000000000000000081565b6100837f000000000000000000000000000000000000000000000000000000000000000081565b6100837f00000000000000000000000000000000000000000000000000000000000000008156fea26469706673582212203f6398ef6bc402eb2f628e6d364fc226ae24eacf9d976d5b48db7cb82a8ea59764736f6c63430008120033608060405234801561001057600080fd5b5061130a806100206000396000f3fe608060405234801561001057600080fd5b506004361061004c5760003560e01c8063266dd7fe1461005157806353adce211461006657806363d5e44d1461008f57806369576c3d14610103575b600080fd5b61006461005f36600461106f565b610116565b005b610079610074366004611117565b610325565b604051610086919061117d565b60405180910390f35b6100d561009d366004611117565b60006020819052908152604090208054600282015460058301546006909301546001600160a01b039092169260ff9182169290911684565b604080516001600160a01b03909516855260ff90931660208501529183015215156060820152608001610086565b61006461011136600461121d565b6104d8565b3360009081526020819052604090206006015460ff161561017e5760405162461bcd60e51b815260206004820152601d60248201527f73657447726f75703a2067726f757020616c726561647920657869737400000060448201526064015b60405180910390fd5b60008160ff16118015610194575060ff81168210155b6101e05760405162461bcd60e51b815260206004820181905260248201527f73657447726f75703a206e656564477561726469616e734e756d206572726f726044820152606401610175565b6040518060e00160405280336001600160a01b03168152602001848480806020026020016040519081016040528093929190818152602001838360200280828437600092018290525093855250505060ff84166020808401919091526040805183815280830182528185015280518381528083018252606085015260808401839052600160a0909401849052338352828252909120835181546001600160a01b0319166001600160a01b0390911617815583820151805191936102a99390850192910190610ff5565b50604082015160028201805460ff191660ff909216919091179055606082015180516102df916003840191602090910190610ff5565b50608082015180516102fb916004840191602090910190610ff5565b5060a0820151600582015560c0909101516006909101805460ff1916911515919091179055505050565b6040805160e0810182526000808252606060208301819052928201819052828201839052608082019290925260a0810182905260c08101919091526001600160a01b0380831660009081526020818152604091829020825160e081018452815490941684526001810180548451818502810185019095528085529193858401939092908301828280156103e157602002820191906000526020600020905b81546001600160a01b031681526001909101906020018083116103c3575b5050509183525050600282015460ff16602080830191909152600383018054604080518285028101850182528281529401939283018282801561044d57602002820191906000526020600020905b81546001600160a01b0316815260019091019060200180831161042f575b50505050508152602001600482018054806020026020016040519081016040528092919081815260200182805480156104af57602002820191906000526020600020905b81546001600160a01b03168152600190910190602001808311610491575b50505091835250506005820154602082015260069091015460ff16151560409091015292915050565b6001600160a01b038216600090815260208190526040812090805b600183015460ff8216101561055757336001600160a01b0316836001018260ff168154811061052457610524611247565b6000918252602090912001546001600160a01b0316036105475760019150610557565b61055081611273565b90506104f3565b50806105a55760405162461bcd60e51b815260206004820181905260248201527f70726f706f73653a20796f75277265206e6f742074686520477561726469616e6044820152606401610175565b60005b600383015460ff8216101561064357336001600160a01b0316836003018260ff16815481106105d9576105d9611247565b6000918252602090912001546001600160a01b0316036106335760405162461bcd60e51b81526020600482015260156024820152741c1c9bdc1bdcd94e88191bdb89dd081c995c19585d605a1b6044820152606401610175565b61063c81611273565b90506105a8565b5060005b600483015460ff821610156106e257336001600160a01b0316836004018260ff168154811061067857610678611247565b6000918252602090912001546001600160a01b0316036106d25760405162461bcd60e51b81526020600482015260156024820152741c1c9bdc1bdcd94e88191bdb89dd081c995c19585d605a1b6044820152606401610175565b6106db81611273565b9050610647565b831580156106f257506005830154155b1561074d5760405162461bcd60e51b815260206004820152602560248201527f70726f706f73653a206e65772070726f706f73616c2063616e6e6f7420626520604482015264656d70747960d81b6064820152608401610175565b600283015460ff166001036107b6576005830184905561076c83610a97565b60408051338152602081018690526001600160a01b038716917f584def074676d98fcd7c6e1558d732527eed8f7277baf503f32971f9ab00075991015b60405180910390a2610a90565b60058301541580156107c757508315155b1561083e5760038301805460018101825560009182526020918290200180546001600160a01b0319163390811790915560058501869055604080519182529181018690526001600160a01b038716917f584def074676d98fcd7c6e1558d732527eed8f7277baf503f32971f9ab00075991016107a9565b83836005015414801561086957506002830154600384015460ff90911690610867906001611292565b105b156108d95760038301805460018101825560009182526020918290200180546001600160a01b03191633908117909155604080519182529181018690526001600160a01b038716917f9789ee15c281b0de031a41f8bf94352fb97a0e6ba93f31f98fbc917ce80f680a91016107a9565b83836005015414801561090557506002830154600384015460ff90911690610902906001611292565b10155b156109185761091383610a97565b610a90565b8383600501541415801561095157506002830154600184015461093e9160ff16906112ab565b600484015461094e906001611292565b11155b156109c15760048301805460018101825560009182526020918290200180546001600160a01b03191633908117909155604080519182529181018690526001600160a01b038716917fbb16c373393394a9be1d5d21d52448c97c88c59de0fed7ba8056715e385e9b7491016107a9565b838360050154141580156109f95750600283015460018401546109e79160ff16906112ab565b60048401546109f7906001611292565b115b15610a4857610a0783610c85565b60408051338152602081018690526001600160a01b038716917fd02b3861b428925478f8964763ebd50f1cf1fe0f9bc3b50ce2dbb617a3a14f3991016107a9565b60405162461bcd60e51b815260206004820152601860248201527f70726f706f73653a20736f6d657468696e672077726f6e6700000000000000006044820152606401610175565b5050505050565b6005810154610aa582610c85565b60a081901c600103610b1257610abb8282610ce5565b610ac482610c85565b8154604080516001600160a01b03848116825260208201859052909216917ff95a23a6c3d745c5e9a253c4f1694de843f6127147eb80cb0475515529beb1af91015b60405180910390a25050565b60a081901c600203610b7757610b288282610dcf565b610b3182610c85565b8154604080516001600160a01b03848116825260208201859052909216917fed8c99bcb8759623f908a16a9134f2cc1210313c51aa874c636ef8085c6b7c399101610b06565b60a081901c600303610bdd57610b8d8282610f6f565b610b9682610c85565b81546040805160ff84168152602081018490526001600160a01b03909216917f4a411c5aff76472e2f2fd71f0db7fc0bc59ae8f79d1bf2f1b46daa2b83e071ff9101610b06565b81546040516312a307c360e11b8152600481018390526001600160a01b03909116906325460f8690602401600060405180830381600087803b158015610c2257600080fd5b505af1158015610c36573d6000803e3d6000fd5b5050835460408051338152602081018690526001600160a01b0390921693507f545c32afa46184ca6e9763de43f75fe97ff16e785175f3e7259795f9a66614a692500160405180910390a25050565b600381015415610cb0576040805160008152602081019182905251610cae916003840191610ff5565b505b600481015415610cdb576040805160008152602081019182905251610cd9916004840191610ff5565b505b6000600590910155565b60005b600183015460ff82161015610d4357816001600160a01b0316836001018260ff1681548110610d1957610d19611247565b6000918252602090912001546001600160a01b031614610d4357610d3c81611273565b9050610ce8565b600183015460ff821603610d87576001808401805491820181556000908152602090200180546001600160a01b0384166001600160a01b0319909116179055505050565b60405162461bcd60e51b815260206004820152601a60248201527f616464477561726469616e3a20616c72656164792065786973740000000000006044820152606401610175565b60005b600183015460ff82161015610e2d57816001600160a01b0316836001018260ff1681548110610e0357610e03611247565b6000918252602090912001546001600160a01b031614610e2d57610e2681611273565b9050610dd2565b600183015460ff82161015610f2757600180840180549091610e4e916112ab565b81548110610e5e57610e5e611247565b6000918252602090912001546001840180546001600160a01b039092169160ff8416908110610e8f57610e8f611247565b9060005260206000200160006101000a8154816001600160a01b0302191690836001600160a01b0316021790555082600101805480610ed057610ed06112be565b600082815260209020810160001990810180546001600160a01b03191690550190556002830154600184015460ff9091161115610f2257600183015460028401805460ff191660ff9092169190911790555b505050565b60405162461bcd60e51b815260206004820152601960248201527f72656d6f7665477561726469616e3a206e6f74206578697374000000000000006044820152606401610175565b60008160ff16118015610f895750600182015460ff821611155b15610fa35760028201805460ff191660ff83161790555050565b60405162461bcd60e51b815260206004820152602160248201527f7570646174654e656564477561726469616e734e756d3a206e756d206572726f6044820152603960f91b6064820152608401610175565b82805482825590600052602060002090810192821561104a579160200282015b8281111561104a57825182546001600160a01b0319166001600160a01b03909116178255602090920191600190910190611015565b5061105692915061105a565b5090565b5b80821115611056576000815560010161105b565b60008060006040848603121561108457600080fd5b833567ffffffffffffffff8082111561109c57600080fd5b818601915086601f8301126110b057600080fd5b8135818111156110bf57600080fd5b8760208260051b85010111156110d457600080fd5b6020928301955093505084013560ff811681146110f057600080fd5b809150509250925092565b80356001600160a01b038116811461111257600080fd5b919050565b60006020828403121561112957600080fd5b611132826110fb565b9392505050565b600081518084526020808501945080840160005b838110156111725781516001600160a01b03168752958201959082019060010161114d565b509495945050505050565b602080825282516001600160a01b03168282015282015160e060408301526000906111ac610100840182611139565b905060ff60408501511660608401526060840151601f19808584030160808601526111d78383611139565b925060808601519150808584030160a0860152506111f58282611139565b91505060a084015160c084015260c084015161121560e085018215159052565b509392505050565b6000806040838503121561123057600080fd5b611239836110fb565b946020939093013593505050565b634e487b7160e01b600052603260045260246000fd5b634e487b7160e01b600052601160045260246000fd5b600060ff821660ff81036112895761128961125d565b60010192915050565b808201808211156112a5576112a561125d565b92915050565b818103818111156112a5576112a561125d565b634e487b7160e01b600052603160045260246000fdfea26469706673582212206b317b33ef5dd2fc9d5fd8f6f21ff3b93dafcb7d846abf567217de6535fe97ea64736f6c6343000812003360a060405234801561001057600080fd5b50600080546001600160a01b0319163317905560405161002f9061005d565b604051809103906000f08015801561004b573d6000803e3d6000fd5b506001600160a01b031660805261006a565b6114ca8061085183390190565b6080516107c561008c6000396000818161012a015261019201526107c56000f3fe608060405234801561001057600080fd5b506004361061007d5760003560e01c80633c69640f1161005b5780633c69640f146100ec5780638da5cb5b146100ff578063a6f9dae114610112578063ad0ffd8b1461012557600080fd5b806313839897146100825780631427c292146100b257806325460f86146100d7575b600080fd5b600154610095906001600160a01b031681565b6040516001600160a01b0390911681526020015b60405180910390f35b6100c56100c0366004610556565b61014c565b60405160ff90911681526020016100a9565b6100ea6100e5366004610598565b61029f565b005b6100ea6100fa3660046105cd565b61036a565b600054610095906001600160a01b031681565b6100ea610120366004610639565b610472565b6100957f000000000000000000000000000000000000000000000000000000000000000081565b600080546001600160a01b031633146101805760405162461bcd60e51b81526004016101779061065b565b60405180910390fd5b60005b60ff81168311156102985760007f00000000000000000000000000000000000000000000000000000000000000006001600160a01b0316600086868560ff168181106101d1576101d161069d565b90506020028101906101e391906106b3565b6040516101f19291906106fa565b60006040518083038185875af1925050503d806000811461022e576040519150601f19603f3d011682016040523d82523d6000602084013e610233565b606091505b50509050806102775760405160ff831681527ff0ba958cc7ac886093917f79596c8c582249d6b1c730fcb84c76a76d0f636e4e9060200160405180910390a1610285565b826102818161070a565b9350505b50806102908161070a565b915050610183565b5092915050565b6001546001600160a01b0316331461030a5760405162461bcd60e51b815260206004820152602860248201527f6f6e6c794f726967696e616c3a2063616c6c6572206973206e6f7420746865206044820152671bdc9a59da5b985b60c21b6064820152608401610177565b60a081901c6004036103225761031f816104a1565b50565b60405162461bcd60e51b815260206004820152601a60248201527f61646f707450726f706f73616c3a20756e737570706f727465640000000000006044820152606401610177565b6000546001600160a01b031633146103945760405162461bcd60e51b81526004016101779061065b565b6001546001600160a01b0316156103f75760405162461bcd60e51b815260206004820152602160248201527f696e6974536f6369616c5265636f766572793a20616c726561647920657869736044820152601d60fa1b6064820152608401610177565b600180546001600160a01b0319166001600160a01b038616908117909155604051631336ebff60e11b815263266dd7fe9061043a90869086908690600401610737565b600060405180830381600087803b15801561045457600080fd5b505af1158015610468573d6000803e3d6000fd5b5050505050505050565b6000546001600160a01b0316331461049c5760405162461bcd60e51b81526004016101779061065b565b61031f815b600054604080516001600160a01b03928316815291831660208301527fb532073b38c83145e3e5135377a08bf9aab55bc0fd7c1179cd4fb995d2a5159c910160405180910390a1600080546001600160a01b0319166001600160a01b0392909216919091179055565b60008083601f84011261051c57600080fd5b50813567ffffffffffffffff81111561053457600080fd5b6020830191508360208260051b850101111561054f57600080fd5b9250929050565b6000806020838503121561056957600080fd5b823567ffffffffffffffff81111561058057600080fd5b61058c8582860161050a565b90969095509350505050565b6000602082840312156105aa57600080fd5b5035919050565b80356001600160a01b03811681146105c857600080fd5b919050565b600080600080606085870312156105e357600080fd5b6105ec856105b1565b9350602085013567ffffffffffffffff81111561060857600080fd5b6106148782880161050a565b909450925050604085013560ff8116811461062e57600080fd5b939692955090935050565b60006020828403121561064b57600080fd5b610654826105b1565b9392505050565b60208082526022908201527f6f6e6c794f776e65723a2063616c6c6572206973206e6f7420746865206f776e60408201526132b960f11b606082015260800190565b634e487b7160e01b600052603260045260246000fd5b6000808335601e198436030181126106ca57600080fd5b83018035915067ffffffffffffffff8211156106e557600080fd5b60200191503681900382131561054f57600080fd5b8183823760009101908152919050565b600060ff821660ff810361072e57634e487b7160e01b600052601160045260246000fd5b60010192915050565b6040808252810183905260008460608301825b86811015610778576001600160a01b03610763846105b1565b1682526020928301929091019060010161074a565b50809250505060ff8316602083015294935050505056fea26469706673582212204fabdf8d50562291f9290af384c1047d5aca58c590dcefe2c51a636b6c0e6fc664736f6c6343000812003360c060405234801561001057600080fd5b503360a0523060805260805160a05161145b61006f6000396000818161012a01528181610366015281816103a201528181610778015281816107b401528181610941015261097d0152600081816102670152610892015261145b6000f3fe60806040526004361061008a5760003560e01c8063a7ca92c111610059578063a7ca92c114610118578063e41e100314610168578063e4703a9d14610188578063e9cbafb0146101a8578063f31cc894146101c857600080fd5b806319417f5a14610096578063376d1c75146100b857806356e7b7aa146100d8578063797de9c2146100f857600080fd5b3661009157005b600080fd5b3480156100a257600080fd5b506100b66100b1366004610e3b565b6101e8565b005b3480156100c457600080fd5b506100b66100d3366004610e97565b61022d565b3480156100e457600080fd5b506100b66100f3366004610ed9565b610265565b34801561010457600080fd5b506100b6610113366004610e97565b610364565b34801561012457600080fd5b5061014c7f000000000000000000000000000000000000000000000000000000000000000081565b6040516001600160a01b03909116815260200160405180910390f35b34801561017457600080fd5b506100b6610183366004610f2e565b610449565b34801561019457600080fd5b506100b66101a3366004610fde565b610776565b3480156101b457600080fd5b506100b66101c3366004611048565b61090b565b3480156101d457600080fd5b506100b66101e3366004610ed9565b61093f565b6000546001600160a01b0316331461021b5760405162461bcd60e51b815260040161021290611083565b60405180910390fd5b61022784848484610a61565b50505050565b6000546001600160a01b031633146102575760405162461bcd60e51b815260040161021290611083565b6102618282610adb565b5050565b7f00000000000000000000000000000000000000000000000000000000000000006001600160a01b031633146102ee5760405162461bcd60e51b815260206004820152602860248201527f6f6e6c794f726967696e616c3a2063616c6c6572206973206e6f7420746865206044820152671bdc9a59da5b985b60c21b6064820152608401610212565b600080846001600160a01b0316848460405161030b9291906110c8565b600060405180830381855af49150503d8060008114610346576040519150601f19603f3d011682016040523d82523d6000602084013e61034b565b606091505b50915091508161035d57805160208201fd5b5050505050565b7f00000000000000000000000000000000000000000000000000000000000000006001600160a01b031633148061042d5750336001600160a01b03167f00000000000000000000000000000000000000000000000000000000000000006001600160a01b0316638da5cb5b6040518163ffffffff1660e01b8152600401602060405180830381865afa1580156103fe573d6000803e3d6000fd5b505050506040513d601f19601f8201168201806040525081019061042291906110d8565b6001600160a01b0316145b6102575760405162461bcd60e51b8152600401610212906110f5565b60005a60408051602081019091526000808252919250905b60ff81168411156105b6576000858560ff84168181106104835761048361115c565b90506020020160208101906104989190611172565b6001600160a01b0316036104e157816104ba896001600160a01b031631610bd6565b6040516020016104cb9291906111b3565b60405160208183030381529060405291506105a4565b8161058186868460ff168181106104fa576104fa61115c565b905060200201602081019061050f9190611172565b6040516370a0823160e01b81526001600160a01b038c8116600483015291909116906370a08231906024015b602060405180830381865afa158015610558573d6000803e3d6000fd5b505050506040513d601f19601f8201168201806040525081019061057c91906111e2565b610bd6565b6040516020016105929291906111b3565b60405160208183030381529060405291505b806105ae81611211565b915050610461565b60005a600080546001600160a01b0319166001600160a01b038c1690811782559192506105e591908a8a610a61565b600080546001600160a01b03191681555a6106009083611230565b6040805160208101909152600080825294509091505b60ff8416871115610729576000888860ff87168181106106385761063861115c565b905060200201602081019061064d9190611172565b6001600160a01b031603610696578061066f8c6001600160a01b031631610bd6565b6040516020016106809291906111b3565b6040516020818303038152906040529050610717565b806106f489898760ff168181106106af576106af61115c565b90506020020160208101906106c49190611172565b6040516370a0823160e01b81526001600160a01b038f8116600483015291909116906370a082319060240161053b565b6040516020016107059291906111b3565b60405160208183030381529060405290505b8361072181611211565b945050610616565b848161073488610bd6565b61073d85610bd6565b6040516020016107509493929190611243565b60408051601f198184030181529082905262461bcd60e51b8252610212916004016112b9565b7f00000000000000000000000000000000000000000000000000000000000000006001600160a01b031633148061083f5750336001600160a01b03167f00000000000000000000000000000000000000000000000000000000000000006001600160a01b0316638da5cb5b6040518163ffffffff1660e01b8152600401602060405180830381865afa158015610810573d6000803e3d6000fd5b505050506040513d601f19601f8201168201806040525081019061083491906110d8565b6001600160a01b0316145b61085b5760405162461bcd60e51b8152600401610212906110f5565b600080546001600160a01b0319166001600160a01b0387169081179091556040516312439b2f60e21b815263490e6cbc906108c2907f00000000000000000000000000000000000000000000000000000000000000009088908890889088906004016112ec565b600060405180830381600087803b1580156108dc57600080fd5b505af11580156108f0573d6000803e3d6000fd5b5050600080546001600160a01b031916905550505050505050565b6000546001600160a01b031633146109355760405162461bcd60e51b815260040161021290611083565b6102278282610adb565b7f00000000000000000000000000000000000000000000000000000000000000006001600160a01b0316331480610a085750336001600160a01b03167f00000000000000000000000000000000000000000000000000000000000000006001600160a01b0316638da5cb5b6040518163ffffffff1660e01b8152600401602060405180830381865afa1580156109d9573d6000803e3d6000fd5b505050506040513d601f19601f820116820180604052508101906109fd91906110d8565b6001600160a01b0316145b610a245760405162461bcd60e51b8152600401610212906110f5565b600080546001600160a01b0319166001600160a01b0385169081178255610a4c918484610a61565b5050600080546001600160a01b031916905550565b600080856001600160a01b0316858585604051610a7f9291906110c8565b60006040518083038185875af1925050503d8060008114610abc576040519150601f19603f3d011682016040523d82523d6000602084013e610ac1565b606091505b509150915081610ad357805160208201fd5b505050505050565b60005b81811015610bd1576000838284610af6826014611338565b92610b039392919061134b565b610b0c91611375565b60601c905060008484610b20856014611338565b90610b2c866034611338565b92610b399392919061134b565b610b42916113aa565b905060008585610b53866034611338565b90610b5f876054611338565b92610b6c9392919061134b565b610b75916113aa565b9050610bb283838888610b89896054611338565b9086610b968b6054611338565b610ba09190611338565b92610bad9392919061134b565b610a61565b610bbd816054611338565b610bc79085611338565b9350505050610ade565b505050565b606081600003610c005750506040805180820190915260048152630307830360e41b602082015290565b8160005b8115610c235780610c14816113c8565b915050600882901c9150610c04565b610c2d8482610c35565b949350505050565b60606000610c448360026113e1565b610c4f906002611338565b67ffffffffffffffff811115610c6757610c676113f8565b6040519080825280601f01601f191660200182016040528015610c91576020820181803683370190505b509050600360fc1b81600081518110610cac57610cac61115c565b60200101906001600160f81b031916908160001a905350600f60fb1b81600181518110610cdb57610cdb61115c565b60200101906001600160f81b031916908160001a9053506000610cff8460026113e1565b610d0a906001611338565b90505b6001811115610d82576f181899199a1a9b1b9c1cb0b131b232b360811b85600f1660108110610d3e57610d3e61115c565b1a60f81b828281518110610d5457610d5461115c565b60200101906001600160f81b031916908160001a90535060049490941c93610d7b8161140e565b9050610d0d565b508315610dd15760405162461bcd60e51b815260206004820181905260248201527f537472696e67733a20686578206c656e67746820696e73756666696369656e746044820152606401610212565b90505b92915050565b6001600160a01b0381168114610def57600080fd5b50565b60008083601f840112610e0457600080fd5b50813567ffffffffffffffff811115610e1c57600080fd5b602083019150836020828501011115610e3457600080fd5b9250929050565b60008060008060608587031215610e5157600080fd5b8435610e5c81610dda565b935060208501359250604085013567ffffffffffffffff811115610e7f57600080fd5b610e8b87828801610df2565b95989497509550505050565b60008060208385031215610eaa57600080fd5b823567ffffffffffffffff811115610ec157600080fd5b610ecd85828601610df2565b90969095509350505050565b600080600060408486031215610eee57600080fd5b8335610ef981610dda565b9250602084013567ffffffffffffffff811115610f1557600080fd5b610f2186828701610df2565b9497909650939450505050565b600080600080600060608688031215610f4657600080fd5b8535610f5181610dda565b9450602086013567ffffffffffffffff80821115610f6e57600080fd5b610f7a89838a01610df2565b90965094506040880135915080821115610f9357600080fd5b818801915088601f830112610fa757600080fd5b813581811115610fb657600080fd5b8960208260051b8501011115610fcb57600080fd5b9699959850939650602001949392505050565b600080600080600060808688031215610ff657600080fd5b853561100181610dda565b94506020860135935060408601359250606086013567ffffffffffffffff81111561102b57600080fd5b61103788828901610df2565b969995985093965092949392505050565b6000806000806060858703121561105e57600080fd5b8435935060208501359250604085013567ffffffffffffffff811115610e7f57600080fd5b60208082526025908201527f6f6e6c7943616c6c546f3a2063616c6c6572206973206e6f7420746865205f63604082015264616c6c546f60d81b606082015260800190565b8183823760009101908152919050565b6000602082840312156110ea57600080fd5b8151610dd181610dda565b60208082526041908201527f6f6e6c7942756e646c65724d616e616765723a2063616c6c6572206973206e6f60408201527f74207468652042756e646c65724d616e61676572206f7220697473206f776e656060820152603960f91b608082015260a00190565b634e487b7160e01b600052603260045260246000fd5b60006020828403121561118457600080fd5b8135610dd181610dda565b60005b838110156111aa578181015183820152602001611192565b50506000910152565b600083516111c581846020880161118f565b8351908301906111d981836020880161118f565b01949350505050565b6000602082840312156111f457600080fd5b5051919050565b634e487b7160e01b600052601160045260246000fd5b600060ff821660ff8103611227576112276111fb565b60010192915050565b81810381811115610dd457610dd46111fb565b695468654368616e67657360b01b81526000855161126881600a850160208a0161118f565b85519083019061127f81600a840160208a0161118f565b855191019061129581600a84016020890161118f565b84519101906112ab81600a84016020880161118f565b01600a019695505050505050565b60208152600082518060208401526112d881604085016020870161118f565b601f01601f19169190910160400192915050565b60018060a01b038616815284602082015283604082015260806060820152816080820152818360a0830137600081830160a090810191909152601f909201601f19160101949350505050565b80820180821115610dd457610dd46111fb565b6000808585111561135b57600080fd5b8386111561136857600080fd5b5050820193919092039150565b6bffffffffffffffffffffffff1981358181169160148510156113a25780818660140360031b1b83161692505b505092915050565b80356020831015610dd457600019602084900360031b1b1692915050565b6000600182016113da576113da6111fb565b5060010190565b8082028115828204841417610dd457610dd46111fb565b634e487b7160e01b600052604160045260246000fd5b60008161141d5761141d6111fb565b50600019019056fea264697066735822122089de6bfb0bc19ed166af7ccf2ff12f27237be0f8b1da3653443ac75a63857bf464736f6c6343000812003360a060405234801561001057600080fd5b50604051611c43380380611c4383398101604081905261002f91610040565b6001600160a01b0316608052610070565b60006020828403121561005257600080fd5b81516001600160a01b038116811461006957600080fd5b9392505050565b608051611bb361009060003960008181608e015260f20152611bb36000f3fe608060405234801561001057600080fd5b506004361061004c5760003560e01c806389b08f11146100515780638da5cb5b14610089578063ac35b1d4146100c8578063ef32a249146100db575b600080fd5b61007461005f36600461033b565b60006020819052908152604090205460ff1681565b60405190151581526020015b60405180910390f35b6100b07f000000000000000000000000000000000000000000000000000000000000000081565b6040516001600160a01b039091168152602001610080565b6100b06100d636600461035d565b6100ee565b6100b06100e9366004610399565b610277565b60007f00000000000000000000000000000000000000000000000000000000000000006001600160a01b031633146101775760405162461bcd60e51b815260206004820152602260248201527f6f6e6c794f776e65723a2063616c6c6572206973206e6f7420746865206f776e60448201526132b960f11b606482015260840160405180910390fd5b60008460405161018690610312565b8190604051809103906000f59050801580156101a6573d6000803e3d6000fd5b5060405163784d200b60e11b81526001600160a01b03868116600483015285811660248301529192509082169063f09a401690604401600060405180830381600087803b1580156101f657600080fd5b505af115801561020a573d6000803e3d6000fd5b505050506001600160a01b0381811660008181526020818152604091829020805460ff19166001179055815188851681529387169084015290917fca0b7dde26052d34217ef1a0cee48085a07ca32da0a918609937a307d496bbf5910160405180910390a2949350505050565b60008060ff60f81b30846040518060200161029190610312565b6020820181038252601f19601f82011660405250805190602001206040516020016102f394939291906001600160f81b031994909416845260609290921b6bffffffffffffffffffffffff191660018401526015830152603582015260550190565b60408051601f1981840301815291905280516020909101209392505050565b6117cb806103b383390190565b80356001600160a01b038116811461033657600080fd5b919050565b60006020828403121561034d57600080fd5b6103568261031f565b9392505050565b60008060006060848603121561037257600080fd5b833592506103826020850161031f565b91506103906040850161031f565b90509250925092565b6000602082840312156103ab57600080fd5b503591905056fe60a06040526000805464ffffffff00191661010017905534801561002257600080fd5b5030608052608051611766610065600039600081816106ac015281816107d3015281816108ed01528181610ad501528181610b420152610c6a01526117666000f3fe6080604052600436106101025760003560e01c80638da5cb5b11610095578063b75814e511610064578063b75814e5146102ad578063c1991219146102ed578063e52903b414610324578063ebaf3eb514610344578063f09a40161461035957600080fd5b80638da5cb5b14610222578063a6f9dae114610249578063ad0ffd8b14610269578063afd2d31a1461028957600080fd5b806356e7b7aa116100d157806356e7b7aa146101ad578063797de9c2146101cd5780637e4a1196146101ed578063801013721461020d57600080fd5b8063138398971461010e578063142d328d1461014b57806325460f861461016d5780633c69640f1461018d57600080fd5b3661010957005b600080fd5b34801561011a57600080fd5b5060035461012e906001600160a01b031681565b6040516001600160a01b0390911681526020015b60405180910390f35b34801561015757600080fd5b5061016b6101663660046112e2565b610379565b005b34801561017957600080fd5b5061016b610188366004611370565b6105a1565b34801561019957600080fd5b5061016b6101a83660046113a5565b61068f565b3480156101b957600080fd5b5061016b6101c8366004611444565b6107d1565b3480156101d957600080fd5b5061016b6101e8366004611497565b6108d0565b3480156101f957600080fd5b5060025461012e906001600160a01b031681565b34801561021957600080fd5b5061016b61096c565b34801561022e57600080fd5b5060005461012e90600160281b90046001600160a01b031681565b34801561025557600080fd5b5061016b6102643660046114d9565b610ab8565b34801561027557600080fd5b5060015461012e906001600160a01b031681565b34801561029557600080fd5b5061029f60045481565b604051908152602001610142565b3480156102b957600080fd5b506102dd6102c8366004611370565b60056020526000908152604090205460ff1681565b6040519015158152602001610142565b3480156102f957600080fd5b5060005461030f90610100900463ffffffff1681565b60405163ffffffff9091168152602001610142565b34801561033057600080fd5b5061016b61033f3660046114d9565b610b25565b34801561035057600080fd5b5061016b610c4d565b34801561036557600080fd5b5061016b6103743660046114fb565b610cce565b6001546001600160a01b031633146103ac5760405162461bcd60e51b81526004016103a39061152e565b60405180910390fd5b428363ffffffff1610156103fa5760405162461bcd60e51b8152602060048201526015602482015274185d1bdb54da59db90d85b1b0e88115e1c1a5c9959605a1b60448201526064016103a3565b6000808036602061040b868361158a565b610415919061158a565b926104229392919061159d565b60005460405161045093929146913060601b91610100900460e01b6001600160e01b031916906020016115c7565b60408051601f1981840301815291815281516020928301206000818152600590935291205490915060ff16156104c85760405162461bcd60e51b815260206004820152601a60248201527f61746f6d5369676e43616c6c3a2055736564206d73674861736800000000000060448201526064016103a3565b61051383838080601f01602080910402602001604051908101604052809392919081815260200183838082843760009201919091525061050d9250859150610d609050565b90610db3565b600054600160281b90046001600160a01b039081169116146105775760405162461bcd60e51b815260206004820152601f60248201527f61746f6d5369676e43616c6c3a20496e76616c6964205369676e61747572650060448201526064016103a3565b6105818686610dd9565b6000908152600560205260409020805460ff191660011790555050505050565b6003546001600160a01b0316331461062f5760405162461bcd60e51b8152602060048201526044602482018190527f6f6e6c795075626c6963536f6369616c5265636f766572793a2063616c6c6572908201527f206973206e6f7420746865206f6e6c795075626c6963536f6369616c5265636f6064820152637665727960e01b608482015260a4016103a3565b60a081901c6004036106475761064481610f3c565b50565b60405162461bcd60e51b815260206004820152601a60248201527f61646f707450726f706f73616c3a20756e737570706f7274656400000000000060448201526064016103a3565b600054600160281b90046001600160a01b03163314806106d757507f00000000000000000000000000000000000000000000000000000000000000006001600160a01b031633145b6106f35760405162461bcd60e51b81526004016103a3906115ff565b6003546001600160a01b0316156107565760405162461bcd60e51b815260206004820152602160248201527f696e6974536f6369616c5265636f766572793a20616c726561647920657869736044820152601d60fa1b60648201526084016103a3565b600380546001600160a01b0319166001600160a01b038616908117909155604051631336ebff60e11b815263266dd7fe906107999086908690869060040161164c565b600060405180830381600087803b1580156107b357600080fd5b505af11580156107c7573d6000803e3d6000fd5b5050505050505050565b7f00000000000000000000000000000000000000000000000000000000000000006001600160a01b0316331461085a5760405162461bcd60e51b815260206004820152602860248201527f6f6e6c794f726967696e616c3a2063616c6c6572206973206e6f7420746865206044820152671bdc9a59da5b985b60c21b60648201526084016103a3565b600080846001600160a01b031684846040516108779291906116a4565b600060405180830381855af49150503d80600081146108b2576040519150601f19603f3d011682016040523d82523d6000602084013e6108b7565b606091505b5091509150816108c957805160208201fd5b5050505050565b600054600160281b90046001600160a01b031633148061091857507f00000000000000000000000000000000000000000000000000000000000000006001600160a01b031633145b6109345760405162461bcd60e51b81526004016103a3906115ff565b6001546001600160a01b0316331461095e5760405162461bcd60e51b81526004016103a39061152e565b6109688282610dd9565b5050565b6002546001600160a01b031633146109e35760405162461bcd60e51b815260206004820152603460248201527f6f6e6c7950656e64696e6742756e646c65723a2063616c6c6572206973206e6f6044820152733a103a3432903832b73234b733a13ab7323632b960611b60648201526084016103a3565b6004546109f39062093a806116b4565b4211610a4c5760405162461bcd60e51b815260206004820152602260248201527f726573657442756e646c65723a206e65656473203720646179732070656e64696044820152616e6760f01b60648201526084016103a3565b60028054600180546001600160a01b0383166001600160a01b03199182168117909255909116909155600060048190556040805192835260208301919091527f81932e26d3d6b8d613dd60331202ebefe49c5008c05597954a66138b6c505b25910160405180910390a1565b600054600160281b90046001600160a01b0316331480610b0057507f00000000000000000000000000000000000000000000000000000000000000006001600160a01b031633145b610b1c5760405162461bcd60e51b81526004016103a3906115ff565b61064481610f3c565b600054600160281b90046001600160a01b0316331480610b6d57507f00000000000000000000000000000000000000000000000000000000000000006001600160a01b031633145b610b895760405162461bcd60e51b81526004016103a3906115ff565b610b91610c4d565b600280546001600160a01b0319166001600160a01b038316908117909155610c01576000600455600154604080516001600160a01b0390921680835260208301527f81932e26d3d6b8d613dd60331202ebefe49c5008c05597954a66138b6c505b2591015b60405180910390a150565b42600455600154600254604080516001600160a01b0393841681529290911660208301527fbd265fea90ed2756df9ac57b162d7d95b2bbd80e1720fca48d685e4a5a7e4c6c9101610bf6565b600054600160281b90046001600160a01b0316331480610c9557507f00000000000000000000000000000000000000000000000000000000000000006001600160a01b031633145b610cb15760405162461bcd60e51b81526004016103a3906115ff565b6000805464ffffffff001916610100434063ffffffff1602179055565b60005460ff1615610d195760405162461bcd60e51b8152602060048201526015602482015274696e697428292072756e73206f6e6c79206f6e636560581b60448201526064016103a3565b60008054600180546001600160a01b039485166001600160a01b031990911617815593909216600160281b0264ffffffff01600160c81b0319909216919091179091179055565b6040517f19457468657265756d205369676e6564204d6573736167653a0a3332000000006020820152603c8101829052600090605c01604051602081830303815290604052805190602001209050919050565b6000806000610dc28585610fb8565b91509150610dcf81610ffd565b5090505b92915050565b60005b81811015610f37576000838284610df48260146116b4565b92610e019392919061159d565b610e0a916116c7565b60601c905060008484610e1e8560146116b4565b90610e2a8660346116b4565b92610e379392919061159d565b610e40916116fc565b905060008585610e518660346116b4565b90610e5d8760546116b4565b92610e6a9392919061159d565b610e73916116fc565b90506000806001600160a01b038516848989610e908a60546116b4565b9087610e9d8c60546116b4565b610ea791906116b4565b92610eb49392919061159d565b604051610ec29291906116a4565b60006040518083038185875af1925050503d8060008114610eff576040519150601f19603f3d011682016040523d82523d6000602084013e610f04565b606091505b509150915081610f1657805160208201fd5b610f218360546116b4565b610f2b90876116b4565b95505050505050610ddc565b505050565b600054604080516001600160a01b03600160281b9093048316815291831660208301527fb532073b38c83145e3e5135377a08bf9aab55bc0fd7c1179cd4fb995d2a5159c910160405180910390a1600080546001600160a01b03909216600160281b0265010000000000600160c81b0319909216919091179055565b6000808251604103610fee5760208301516040840151606085015160001a610fe2878285856111b3565b94509450505050610ff6565b506000905060025b9250929050565b60008160048111156110115761101161171a565b036110195750565b600181600481111561102d5761102d61171a565b0361107a5760405162461bcd60e51b815260206004820152601860248201527f45434453413a20696e76616c6964207369676e6174757265000000000000000060448201526064016103a3565b600281600481111561108e5761108e61171a565b036110db5760405162461bcd60e51b815260206004820152601f60248201527f45434453413a20696e76616c6964207369676e6174757265206c656e6774680060448201526064016103a3565b60038160048111156110ef576110ef61171a565b036111475760405162461bcd60e51b815260206004820152602260248201527f45434453413a20696e76616c6964207369676e6174757265202773272076616c604482015261756560f01b60648201526084016103a3565b600481600481111561115b5761115b61171a565b036106445760405162461bcd60e51b815260206004820152602260248201527f45434453413a20696e76616c6964207369676e6174757265202776272076616c604482015261756560f01b60648201526084016103a3565b6000807f7fffffffffffffffffffffffffffffff5d576e7357a4501ddfe92f46681b20a08311156111ea5750600090506003611297565b8460ff16601b1415801561120257508460ff16601c14155b156112135750600090506004611297565b6040805160008082526020820180845289905260ff881692820192909252606081018690526080810185905260019060a0016020604051602081039080840390855afa158015611267573d6000803e3d6000fd5b5050604051601f1901519150506001600160a01b03811661129057600060019250925050611297565b9150600090505b94509492505050565b60008083601f8401126112b257600080fd5b50813567ffffffffffffffff8111156112ca57600080fd5b602083019150836020828501011115610ff657600080fd5b6000806000806000606086880312156112fa57600080fd5b853567ffffffffffffffff8082111561131257600080fd5b61131e89838a016112a0565b90975095506020880135915063ffffffff8216821461133c57600080fd5b9093506040870135908082111561135257600080fd5b5061135f888289016112a0565b969995985093965092949392505050565b60006020828403121561138257600080fd5b5035919050565b80356001600160a01b03811681146113a057600080fd5b919050565b600080600080606085870312156113bb57600080fd5b6113c485611389565b9350602085013567ffffffffffffffff808211156113e157600080fd5b818701915087601f8301126113f557600080fd5b81358181111561140457600080fd5b8860208260051b850101111561141957600080fd5b602083019550809450505050604085013560ff8116811461143957600080fd5b939692955090935050565b60008060006040848603121561145957600080fd5b61146284611389565b9250602084013567ffffffffffffffff81111561147e57600080fd5b61148a868287016112a0565b9497909650939450505050565b600080602083850312156114aa57600080fd5b823567ffffffffffffffff8111156114c157600080fd5b6114cd858286016112a0565b90969095509350505050565b6000602082840312156114eb57600080fd5b6114f482611389565b9392505050565b6000806040838503121561150e57600080fd5b61151783611389565b915061152560208401611389565b90509250929050565b60208082526026908201527f6f6e6c7942756e646c65723a2063616c6c6572206973206e6f742074686520626040820152653ab7323632b960d11b606082015260800190565b634e487b7160e01b600052601160045260246000fd5b81810381811115610dd357610dd3611574565b600080858511156115ad57600080fd5b838611156115ba57600080fd5b5050820193919092039150565b848682379093019182526bffffffffffffffffffffffff191660208201526001600160e01b0319919091166034820152603801919050565b6020808252602d908201527f6f6e6c794f776e6572416e644f726967696e616c3a2063616c6c65722069732060408201526c3737ba103a34329037bbb732b960991b606082015260800190565b6040808252810183905260008460608301825b8681101561168d576001600160a01b0361167884611389565b1682526020928301929091019060010161165f565b50809250505060ff83166020830152949350505050565b8183823760009101908152919050565b80820180821115610dd357610dd3611574565b6bffffffffffffffffffffffff1981358181169160148510156116f45780818660140360031b1b83161692505b505092915050565b80356020831015610dd357600019602084900360031b1b1692915050565b634e487b7160e01b600052602160045260246000fdfea26469706673582212207422aa84f16d1be2373d235fe3f2a3c365b0ef975fff4ec750a00e6b7b594ba064736f6c63430008120033a2646970667358221220f5ed3e8773ae93377566fe2ed757b45dd2028fb95320c1190b00b80ba529a77064736f6c63430008120033608060405234801561001057600080fd5b506105ef806100206000396000f3fe608060405234801561001057600080fd5b50600436106100935760003560e01c80633e64a696116100665780633e64a696146100dc5780634d2301cc146100e257806386d516e8146100fd578063a8b0574e14610103578063ee82ac5e1461011157600080fd5b80630f28c97d14610098578063252dba42146100ad57806327e86d6e146100ce5780633408e470146100d6575b600080fd5b425b6040519081526020015b60405180910390f35b6100c06100bb366004610300565b610123565b6040516100a4929190610482565b61009a610261565b4661009a565b4861009a565b61009a6100f0366004610504565b6001600160a01b03163190565b4561009a565b6040514181526020016100a4565b61009a61011f366004610526565b4090565b8051439060609067ffffffffffffffff81111561014257610142610274565b60405190808252806020026020018201604052801561017557816020015b60608152602001906001900390816101605790505b50905060005b835181101561025b576000808583815181106101995761019961053f565b6020026020010151600001516001600160a01b03168684815181106101c0576101c061053f565b6020026020010151602001516040516101d99190610555565b600060405180830381855afa9150503d8060008114610214576040519150601f19603f3d011682016040523d82523d6000602084013e610219565b606091505b50915091508161022857600080fd5b8084848151811061023b5761023b61053f565b60200260200101819052505050808061025390610587565b91505061017b565b50915091565b600061026e6001436105a0565b40905090565b634e487b7160e01b600052604160045260246000fd5b6040805190810167ffffffffffffffff811182821017156102ad576102ad610274565b60405290565b604051601f8201601f1916810167ffffffffffffffff811182821017156102dc576102dc610274565b604052919050565b80356001600160a01b03811681146102fb57600080fd5b919050565b6000602080838503121561031357600080fd5b823567ffffffffffffffff8082111561032b57600080fd5b818501915085601f83011261033f57600080fd5b81358181111561035157610351610274565b8060051b6103608582016102b3565b918252838101850191858101908984111561037a57600080fd5b86860192505b83831015610451578235858111156103985760008081fd5b86016040601f19828d0381018213156103b15760008081fd5b6103b961028a565b6103c48b85016102e4565b815282840135898111156103d85760008081fd5b8085019450508d603f8501126103ee5760008081fd5b8a8401358981111561040257610402610274565b6104128c84601f840116016102b3565b92508083528e848287010111156104295760008081fd5b808486018d85013760009083018c0152808b0191909152845250509186019190860190610380565b9998505050505050505050565b60005b83811015610479578181015183820152602001610461565b50506000910152565b600060408201848352602060408185015281855180845260608601915060608160051b870101935082870160005b828110156104f657878603605f19018452815180518088526104d781888a0189850161045e565b601f01601f1916969096018501955092840192908401906001016104b0565b509398975050505050505050565b60006020828403121561051657600080fd5b61051f826102e4565b9392505050565b60006020828403121561053857600080fd5b5035919050565b634e487b7160e01b600052603260045260246000fd5b6000825161056781846020870161045e565b9190910192915050565b634e487b7160e01b600052601160045260246000fd5b60006001820161059957610599610571565b5060010190565b818103818111156105b3576105b3610571565b9291505056fea26469706673582212202af40484009538c0b7a470985d7f81b0e324ffe2f7e84dba8e34c9dca4214c4864736f6c63430008120033",
  "linkReferences": {},
  "deployedLinkReferences": {}
}