{
  "_format": "hh-sol-artifact-1",
  "contractName": "Deployer",
  "sourceName": "contracts/wallet/Deployer.sol",
  "abi": [
    {
      "inputs": [
        {
          "internalType": "address[]",
          "name": "guardians",
          "type": "address[]"
        },
        {
          "internalType": "uint8",
          "name": "needGuardiansNum",
          "type": "uint8"
        }
      ],
      "stateMutability": "nonpayable",
      "type": "constructor"
    },
    {
      "inputs": [],
      "name": "bundlerAddr",
      "outputs": [
        {
          "internalType": "address",
          "name": "",
          "type": "address"
        }
      ],
      "stateMutability": "view",
      "type": "function"
    },
    {
      "inputs": [],
      "name": "bundlerManagerAddr",
      "outputs": [
        {
          "internalType": "address",
          "name": "",
          "type": "address"
        }
      ],
      "stateMutability": "view",
      "type": "function"
    },
    {
      "inputs": [],
      "name": "multicallAddr",
      "outputs": [
        {
          "internalType": "address",
          "name": "",
          "type": "address"
        }
      ],
      "stateMutability": "view",
      "type": "function"
    },
    {
      "inputs": [],
      "name": "publicSocialRecoveryAddr",
      "outputs": [
        {
          "internalType": "address",
          "name": "",
          "type": "address"
        }
      ],
      "stateMutability": "view",
      "type": "function"
    },
    {
      "inputs": [],
      "name": "walletFactoryAddr",
      "outputs": [
        {
          "internalType": "address",
          "name": "",
          "type": "address"
        }
      ],
      "stateMutability": "view",
      "type": "function"
    }
  ],
  "bytecode": "0x610120604052348015610010575f80fd5b506040516157a43803806157a483398101604081905261002f916102a3565b60405161003b90610230565b604051809103905ff080158015610054573d5f803e3d5ffd5b506001600160a01b03166080526040515f9061006f9061023d565b604051809103905ff080158015610088573d5f803e3d5ffd5b506001600160a01b03811660a0819052608051604051633c69640f60e01b81529293509091633c69640f916100c39187908790600401610374565b5f604051808303815f87803b1580156100da575f80fd5b505af11580156100ec573d5f803e3d5ffd5b505060405163a6f9dae160e01b81523360048201526001600160a01b038416925063a6f9dae191506024015f604051808303815f87803b15801561012e575f80fd5b505af1158015610140573d5f803e3d5ffd5b50505050806001600160a01b031663ad0ffd8b6040518163ffffffff1660e01b8152600401602060405180830381865afa158015610180573d5f803e3d5ffd5b505050506040513d601f19601f820116820180604052508101906101a491906103db565b6001600160a01b031660c08190526040516101be9061024a565b6001600160a01b039091168152602001604051809103905ff0801580156101e7573d5f803e3d5ffd5b506001600160a01b031660e05260405161020090610257565b604051809103905ff080158015610219573d5f803e3d5ffd5b506001600160a01b031661010052506103fb915050565b6112e2806105a283390190565b611c638061188483390190565b611d09806134e783390190565b6105b4806151f083390190565b634e487b7160e01b5f52604160045260245ffd5b80516001600160a01b038116811461028e575f80fd5b919050565b805160ff8116811461028e575f80fd5b5f80604083850312156102b4575f80fd5b82516001600160401b03808211156102ca575f80fd5b818501915085601f8301126102dd575f80fd5b81516020828211156102f1576102f1610264565b8160051b604051601f19603f8301168101818110868211171561031657610316610264565b604052928352818301935084810182019289841115610333575f80fd5b948201945b838610156103585761034986610278565b85529482019493820193610338565b96506103679050878201610293565b9450505050509250929050565b6001600160a01b0384811682526060602080840182905285519184018290525f92868201929091906080860190855b818110156103c15785518516835294830194918301916001016103a3565b50508094505050505060ff83166040830152949350505050565b5f602082840312156103eb575f80fd5b6103f482610278565b9392505050565b60805160a05160c05160e0516101005161016e6104345f395f60ef01525f61011601525f60a101525f605e01525f60c8015261016e5ff3fe608060405234801561000f575f80fd5b5060043610610055575f3560e01c8063223c4ce51461005957806342ac5fa81461009c578063717174d0146100c3578063cd375c9b146100ea578063d7ff20f814610111575b5f80fd5b6100807f000000000000000000000000000000000000000000000000000000000000000081565b6040516001600160a01b03909116815260200160405180910390f35b6100807f000000000000000000000000000000000000000000000000000000000000000081565b6100807f000000000000000000000000000000000000000000000000000000000000000081565b6100807f000000000000000000000000000000000000000000000000000000000000000081565b6100807f00000000000000000000000000000000000000000000000000000000000000008156fea2646970667358221220136197d9a34df577aa3ba67d01e0bb3877064bfdf9c3eed708fcf7ccb2e471d664736f6c63430008180033608060405234801561000f575f80fd5b506112c58061001d5f395ff3fe608060405234801561000f575f80fd5b506004361061004a575f3560e01c8063266dd7fe1461004e57806353adce211461006357806363d5e44d1461008c57806369576c3d146100ff575b5f80fd5b61006161005c366004611040565b610112565b005b6100766100713660046110df565b61031e565b6040516100839190611142565b60405180910390f35b6100d161009a3660046110df565b5f6020819052908152604090208054600282015460058301546006909301546001600160a01b039092169260ff9182169290911684565b604080516001600160a01b03909516855260ff90931660208501529183015215156060820152608001610083565b61006161010d3660046111e1565b6104c9565b335f9081526020819052604090206006015460ff16156101795760405162461bcd60e51b815260206004820152601d60248201527f73657447726f75703a2067726f757020616c726561647920657869737400000060448201526064015b60405180910390fd5b5f8160ff1611801561018e575060ff81168210155b6101da5760405162461bcd60e51b815260206004820181905260248201527f73657447726f75703a206e656564477561726469616e734e756d206572726f726044820152606401610170565b6040518060e00160405280336001600160a01b031681526020018484808060200260200160405190810160405280939291908181526020018383602002808284375f92018290525093855250505060ff84166020808401919091526040805183815280830182528185015280518381528083018252606085015260808401839052600160a0909401849052338352828252909120835181546001600160a01b0319166001600160a01b0390911617815583820151805191936102a29390850192910190610fc9565b50604082015160028201805460ff191660ff909216919091179055606082015180516102d8916003840191602090910190610fc9565b50608082015180516102f4916004840191602090910190610fc9565b5060a0820151600582015560c0909101516006909101805460ff1916911515919091179055505050565b6040805160e0810182525f808252606060208301819052928201819052828201839052608082019290925260a0810182905260c08101919091526001600160a01b038083165f9081526020818152604091829020825160e081018452815490941684526001810180548451818502810185019095528085529193858401939092908301828280156103d657602002820191905f5260205f20905b81546001600160a01b031681526001909101906020018083116103b8575b5050509183525050600282015460ff16602080830191909152600383018054604080518285028101850182528281529401939283018282801561044057602002820191905f5260205f20905b81546001600160a01b03168152600190910190602001808311610422575b50505050508152602001600482018054806020026020016040519081016040528092919081815260200182805480156104a057602002820191905f5260205f20905b81546001600160a01b03168152600190910190602001808311610482575b50505091835250506005820154602082015260069091015460ff16151560409091015292915050565b6001600160a01b0382165f90815260208190526040812090805b600183015460ff8216101561054657336001600160a01b0316836001018260ff168154811061051457610514611209565b5f918252602090912001546001600160a01b0316036105365760019150610546565b61053f81611231565b90506104e3565b50806105945760405162461bcd60e51b815260206004820181905260248201527f70726f706f73653a20796f75277265206e6f742074686520477561726469616e6044820152606401610170565b5f5b600383015460ff8216101561063057336001600160a01b0316836003018260ff16815481106105c7576105c7611209565b5f918252602090912001546001600160a01b0316036106205760405162461bcd60e51b81526020600482015260156024820152741c1c9bdc1bdcd94e88191bdb89dd081c995c19585d605a1b6044820152606401610170565b61062981611231565b9050610596565b505f5b600483015460ff821610156106cd57336001600160a01b0316836004018260ff168154811061066457610664611209565b5f918252602090912001546001600160a01b0316036106bd5760405162461bcd60e51b81526020600482015260156024820152741c1c9bdc1bdcd94e88191bdb89dd081c995c19585d605a1b6044820152606401610170565b6106c681611231565b9050610633565b831580156106dd57506005830154155b156107385760405162461bcd60e51b815260206004820152602560248201527f70726f706f73653a206e65772070726f706f73616c2063616e6e6f7420626520604482015264656d70747960d81b6064820152608401610170565b600283015460ff166001036107a1576005830184905561075783610a7f565b60408051338152602081018690526001600160a01b038716917f584def074676d98fcd7c6e1558d732527eed8f7277baf503f32971f9ab00075991015b60405180910390a2610a78565b60058301541580156107b257508315155b15610828576003830180546001810182555f9182526020918290200180546001600160a01b0319163390811790915560058501869055604080519182529181018690526001600160a01b038716917f584def074676d98fcd7c6e1558d732527eed8f7277baf503f32971f9ab0007599101610794565b83836005015414801561085357506002830154600384015460ff9091169061085190600161124f565b105b156108c2576003830180546001810182555f9182526020918290200180546001600160a01b03191633908117909155604080519182529181018690526001600160a01b038716917f9789ee15c281b0de031a41f8bf94352fb97a0e6ba93f31f98fbc917ce80f680a9101610794565b8383600501541480156108ee57506002830154600384015460ff909116906108eb90600161124f565b10155b15610901576108fc83610a7f565b610a78565b8383600501541415801561093a5750600283015460018401546109279160ff1690611268565b600484015461093790600161124f565b11155b156109a9576004830180546001810182555f9182526020918290200180546001600160a01b03191633908117909155604080519182529181018690526001600160a01b038716917fbb16c373393394a9be1d5d21d52448c97c88c59de0fed7ba8056715e385e9b749101610794565b838360050154141580156109e15750600283015460018401546109cf9160ff1690611268565b60048401546109df90600161124f565b115b15610a30576109ef83610c68565b60408051338152602081018690526001600160a01b038716917fd02b3861b428925478f8964763ebd50f1cf1fe0f9bc3b50ce2dbb617a3a14f399101610794565b60405162461bcd60e51b815260206004820152601860248201527f70726f706f73653a20736f6d657468696e672077726f6e6700000000000000006044820152606401610170565b5050505050565b6005810154610a8d82610c68565b60a081901c600103610afa57610aa38282610cc5565b610aac82610c68565b8154604080516001600160a01b03848116825260208201859052909216917ff95a23a6c3d745c5e9a253c4f1694de843f6127147eb80cb0475515529beb1af91015b60405180910390a25050565b60a081901c600203610b5f57610b108282610dac565b610b1982610c68565b8154604080516001600160a01b03848116825260208201859052909216917fed8c99bcb8759623f908a16a9134f2cc1210313c51aa874c636ef8085c6b7c399101610aee565b60a081901c600303610bc557610b758282610f44565b610b7e82610c68565b81546040805160ff84168152602081018490526001600160a01b03909216917f4a411c5aff76472e2f2fd71f0db7fc0bc59ae8f79d1bf2f1b46daa2b83e071ff9101610aee565b81546040516312a307c360e11b8152600481018390526001600160a01b03909116906325460f86906024015f604051808303815f87803b158015610c07575f80fd5b505af1158015610c19573d5f803e3d5ffd5b5050835460408051338152602081018690526001600160a01b0390921693507f545c32afa46184ca6e9763de43f75fe97ff16e785175f3e7259795f9a66614a692500160405180910390a25050565b600381015415610c9257604080515f8152602081019182905251610c90916003840191610fc9565b505b600481015415610cbc57604080515f8152602081019182905251610cba916004840191610fc9565b505b5f600590910155565b5f5b600183015460ff82161015610d2157816001600160a01b0316836001018260ff1681548110610cf857610cf8611209565b5f918252602090912001546001600160a01b031614610d2157610d1a81611231565b9050610cc7565b600183015460ff821603610d64576001808401805491820181555f908152602090200180546001600160a01b0384166001600160a01b0319909116179055505050565b60405162461bcd60e51b815260206004820152601a60248201527f616464477561726469616e3a20616c72656164792065786973740000000000006044820152606401610170565b5f5b600183015460ff82161015610e0857816001600160a01b0316836001018260ff1681548110610ddf57610ddf611209565b5f918252602090912001546001600160a01b031614610e0857610e0181611231565b9050610dae565b600183015460ff82161015610efc57600180840180549091610e2991611268565b81548110610e3957610e39611209565b5f918252602090912001546001840180546001600160a01b039092169160ff8416908110610e6957610e69611209565b905f5260205f20015f6101000a8154816001600160a01b0302191690836001600160a01b0316021790555082600101805480610ea757610ea761127b565b5f8281526020902081015f1990810180546001600160a01b03191690550190556002830154600184015460ff9091161115610ef757600183015460028401805460ff191660ff9092169190911790555b505050565b60405162461bcd60e51b815260206004820152601960248201527f72656d6f7665477561726469616e3a206e6f74206578697374000000000000006044820152606401610170565b5f8160ff16118015610f5d5750600182015460ff821611155b15610f775760028201805460ff191660ff83161790555050565b60405162461bcd60e51b815260206004820152602160248201527f7570646174654e656564477561726469616e734e756d3a206e756d206572726f6044820152603960f91b6064820152608401610170565b828054828255905f5260205f2090810192821561101c579160200282015b8281111561101c57825182546001600160a01b0319166001600160a01b03909116178255602090920191600190910190610fe7565b5061102892915061102c565b5090565b5b80821115611028575f815560010161102d565b5f805f60408486031215611052575f80fd5b833567ffffffffffffffff80821115611069575f80fd5b818601915086601f83011261107c575f80fd5b81358181111561108a575f80fd5b8760208260051b850101111561109e575f80fd5b6020928301955093505084013560ff811681146110b9575f80fd5b809150509250925092565b80356001600160a01b03811681146110da575f80fd5b919050565b5f602082840312156110ef575f80fd5b6110f8826110c4565b9392505050565b5f815180845260208085019450602084015f5b838110156111375781516001600160a01b031687529582019590820190600101611112565b509495945050505050565b602080825282516001600160a01b03168282015282015160e060408301525f906111706101008401826110ff565b905060ff60408501511660608401526060840151601f198085840301608086015261119b83836110ff565b925060808601519150808584030160a0860152506111b982826110ff565b91505060a084015160c084015260c08401516111d960e085018215159052565b509392505050565b5f80604083850312156111f2575f80fd5b6111fb836110c4565b946020939093013593505050565b634e487b7160e01b5f52603260045260245ffd5b634e487b7160e01b5f52601160045260245ffd5b5f60ff821660ff81036112465761124661121d565b60010192915050565b808201808211156112625761126261121d565b92915050565b818103818111156112625761126261121d565b634e487b7160e01b5f52603160045260245ffdfea2646970667358221220199c27251670f63272aa2ac44bdfa63b61a77a59730b79f3074cda10150ae3c964736f6c6343000818003360a060405234801561000f575f80fd5b505f80546001600160a01b0319163317905560405161002d90610058565b604051809103905ff080158015610046573d5f803e3d5ffd5b506001600160a01b0316608052610065565b61144b8061081883390190565b6080516107946100845f395f8181610125015261018a01526107945ff3fe608060405234801561000f575f80fd5b506004361061007a575f3560e01c80633c69640f116100585780633c69640f146100e85780638da5cb5b146100fb578063a6f9dae11461010d578063ad0ffd8b14610120575f80fd5b8063138398971461007e5780631427c292146100ae57806325460f86146100d3575b5f80fd5b600154610091906001600160a01b031681565b6040516001600160a01b0390911681526020015b60405180910390f35b6100c16100bc36600461053d565b610147565b60405160ff90911681526020016100a5565b6100e66100e136600461057c565b610293565b005b6100e66100f63660046105ae565b61035e565b5f54610091906001600160a01b031681565b6100e661011b366004610615565b610460565b6100917f000000000000000000000000000000000000000000000000000000000000000081565b5f80546001600160a01b0316331461017a5760405162461bcd60e51b815260040161017190610635565b60405180910390fd5b5f5b60ff811683111561028c575f7f00000000000000000000000000000000000000000000000000000000000000006001600160a01b03165f86868560ff168181106101c8576101c8610677565b90506020028101906101da919061068b565b6040516101e89291906106ce565b5f6040518083038185875af1925050503d805f8114610222576040519150601f19603f3d011682016040523d82523d5f602084013e610227565b606091505b505090508061026b5760405160ff831681527ff0ba958cc7ac886093917f79596c8c582249d6b1c730fcb84c76a76d0f636e4e9060200160405180910390a1610279565b82610275816106dd565b9350505b5080610284816106dd565b91505061017c565b5092915050565b6001546001600160a01b031633146102fe5760405162461bcd60e51b815260206004820152602860248201527f6f6e6c794f726967696e616c3a2063616c6c6572206973206e6f7420746865206044820152671bdc9a59da5b985b60c21b6064820152608401610171565b60a081901c600403610316576103138161048e565b50565b60405162461bcd60e51b815260206004820152601a60248201527f61646f707450726f706f73616c3a20756e737570706f727465640000000000006044820152606401610171565b5f546001600160a01b031633146103875760405162461bcd60e51b815260040161017190610635565b6001546001600160a01b0316156103ea5760405162461bcd60e51b815260206004820152602160248201527f696e6974536f6369616c5265636f766572793a20616c726561647920657869736044820152601d60fa1b6064820152608401610171565b600180546001600160a01b0319166001600160a01b038616908117909155604051631336ebff60e11b815263266dd7fe9061042d90869086908690600401610707565b5f604051808303815f87803b158015610444575f80fd5b505af1158015610456573d5f803e3d5ffd5b5050505050505050565b5f546001600160a01b031633146104895760405162461bcd60e51b815260040161017190610635565b610313815b5f54604080516001600160a01b03928316815291831660208301527fb532073b38c83145e3e5135377a08bf9aab55bc0fd7c1179cd4fb995d2a5159c910160405180910390a15f80546001600160a01b0319166001600160a01b0392909216919091179055565b5f8083601f840112610505575f80fd5b50813567ffffffffffffffff81111561051c575f80fd5b6020830191508360208260051b8501011115610536575f80fd5b9250929050565b5f806020838503121561054e575f80fd5b823567ffffffffffffffff811115610564575f80fd5b610570858286016104f5565b90969095509350505050565b5f6020828403121561058c575f80fd5b5035919050565b80356001600160a01b03811681146105a9575f80fd5b919050565b5f805f80606085870312156105c1575f80fd5b6105ca85610593565b9350602085013567ffffffffffffffff8111156105e5575f80fd5b6105f1878288016104f5565b909450925050604085013560ff8116811461060a575f80fd5b939692955090935050565b5f60208284031215610625575f80fd5b61062e82610593565b9392505050565b60208082526022908201527f6f6e6c794f776e65723a2063616c6c6572206973206e6f7420746865206f776e60408201526132b960f11b606082015260800190565b634e487b7160e01b5f52603260045260245ffd5b5f808335601e198436030181126106a0575f80fd5b83018035915067ffffffffffffffff8211156106ba575f80fd5b602001915036819003821315610536575f80fd5b818382375f9101908152919050565b5f60ff821660ff81036106fe57634e487b7160e01b5f52601160045260245ffd5b60010192915050565b604080825281018390525f8460608301825b86811015610747576001600160a01b0361073284610593565b16825260209283019290910190600101610719565b50809250505060ff8316602083015294935050505056fea2646970667358221220c07083f0a6c36374ae5cc8faaf1f5993afc6465dbac33ab806b967fc2e78d4f764736f6c6343000818003360c060405234801561000f575f80fd5b503360a0523060805260805160a0516113e161006a5f395f8181610121015281816103530152818161038f015281816107590152818161079501528181610918015261095401525f8181610258015261087001526113e15ff3fe608060405260043610610087575f3560e01c8063a7ca92c111610057578063a7ca92c114610110578063e41e10031461015f578063e4703a9d1461017e578063e9cbafb01461019d578063f31cc894146101bc575f80fd5b806319417f5a14610092578063376d1c75146100b357806356e7b7aa146100d2578063797de9c2146100f1575f80fd5b3661008e57005b5f80fd5b34801561009d575f80fd5b506100b16100ac366004610df9565b6101db565b005b3480156100be575f80fd5b506100b16100cd366004610e51565b61021f565b3480156100dd575f80fd5b506100b16100ec366004610e90565b610256565b3480156100fc575f80fd5b506100b161010b366004610e51565b610351565b34801561011b575f80fd5b506101437f000000000000000000000000000000000000000000000000000000000000000081565b6040516001600160a01b03909116815260200160405180910390f35b34801561016a575f80fd5b506100b1610179366004610ee1565b610434565b348015610189575f80fd5b506100b1610198366004610f88565b610757565b3480156101a8575f80fd5b506100b16101b7366004610fed565b6108e3565b3480156101c7575f80fd5b506100b16101d6366004610e90565b610916565b5f546001600160a01b0316331461020d5760405162461bcd60e51b815260040161020490611024565b60405180910390fd5b61021984848484610a34565b50505050565b5f546001600160a01b031633146102485760405162461bcd60e51b815260040161020490611024565b6102528282610aaa565b5050565b7f00000000000000000000000000000000000000000000000000000000000000006001600160a01b031633146102df5760405162461bcd60e51b815260206004820152602860248201527f6f6e6c794f726967696e616c3a2063616c6c6572206973206e6f7420746865206044820152671bdc9a59da5b985b60c21b6064820152608401610204565b5f80846001600160a01b031684846040516102fb929190611069565b5f60405180830381855af49150503d805f8114610333576040519150601f19603f3d011682016040523d82523d5f602084013e610338565b606091505b50915091508161034a57805160208201fd5b5050505050565b7f00000000000000000000000000000000000000000000000000000000000000006001600160a01b03163314806104185750336001600160a01b03167f00000000000000000000000000000000000000000000000000000000000000006001600160a01b0316638da5cb5b6040518163ffffffff1660e01b8152600401602060405180830381865afa1580156103e9573d5f803e3d5ffd5b505050506040513d601f19601f8201168201806040525081019061040d9190611078565b6001600160a01b0316145b6102485760405162461bcd60e51b815260040161020490611093565b5f5a60408051602081019091525f808252919250905b60ff811684111561059c575f858560ff841681811061046b5761046b6110fa565b9050602002016020810190610480919061110e565b6001600160a01b0316036104c957816104a2896001600160a01b031631610ba1565b6040516020016104b392919061114b565b604051602081830303815290604052915061058a565b8161056786868460ff168181106104e2576104e26110fa565b90506020020160208101906104f7919061110e565b6040516370a0823160e01b81526001600160a01b038c8116600483015291909116906370a08231906024015b602060405180830381865afa15801561053e573d5f803e3d5ffd5b505050506040513d601f19601f820116820180604052508101906105629190611179565b610ba1565b60405160200161057892919061114b565b60405160208183030381529060405291505b80610594816111a4565b91505061044a565b5f5a5f80546001600160a01b0319166001600160a01b038c1690811782559192506105c991908a8a610a34565b5f80546001600160a01b03191681555a6105e390836111c2565b60408051602081019091525f80825294509091505b60ff841687111561070a575f888860ff8716818110610619576106196110fa565b905060200201602081019061062e919061110e565b6001600160a01b03160361067757806106508c6001600160a01b031631610ba1565b60405160200161066192919061114b565b60405160208183030381529060405290506106f8565b806106d589898760ff16818110610690576106906110fa565b90506020020160208101906106a5919061110e565b6040516370a0823160e01b81526001600160a01b038f8116600483015291909116906370a0823190602401610523565b6040516020016106e692919061114b565b60405160208183030381529060405290505b83610702816111a4565b9450506105f8565b848161071588610ba1565b61071e85610ba1565b60405160200161073194939291906111d5565b60408051601f198184030181529082905262461bcd60e51b82526102049160040161124a565b7f00000000000000000000000000000000000000000000000000000000000000006001600160a01b031633148061081e5750336001600160a01b03167f00000000000000000000000000000000000000000000000000000000000000006001600160a01b0316638da5cb5b6040518163ffffffff1660e01b8152600401602060405180830381865afa1580156107ef573d5f803e3d5ffd5b505050506040513d601f19601f820116820180604052508101906108139190611078565b6001600160a01b0316145b61083a5760405162461bcd60e51b815260040161020490611093565b5f80546001600160a01b0319166001600160a01b0387169081179091556040516312439b2f60e21b815263490e6cbc906108a0907f000000000000000000000000000000000000000000000000000000000000000090889088908890889060040161127c565b5f604051808303815f87803b1580156108b7575f80fd5b505af11580156108c9573d5f803e3d5ffd5b50505f80546001600160a01b031916905550505050505050565b5f546001600160a01b0316331461090c5760405162461bcd60e51b815260040161020490611024565b6102198282610aaa565b7f00000000000000000000000000000000000000000000000000000000000000006001600160a01b03163314806109dd5750336001600160a01b03167f00000000000000000000000000000000000000000000000000000000000000006001600160a01b0316638da5cb5b6040518163ffffffff1660e01b8152600401602060405180830381865afa1580156109ae573d5f803e3d5ffd5b505050506040513d601f19601f820116820180604052508101906109d29190611078565b6001600160a01b0316145b6109f95760405162461bcd60e51b815260040161020490611093565b5f80546001600160a01b0319166001600160a01b0385169081178255610a20918484610a34565b50505f80546001600160a01b031916905550565b5f80856001600160a01b0316858585604051610a51929190611069565b5f6040518083038185875af1925050503d805f8114610a8b576040519150601f19603f3d011682016040523d82523d5f602084013e610a90565b606091505b509150915081610aa257805160208201fd5b505050505050565b5f5b81811015610b9c575f838284610ac38260146112c7565b92610ad0939291906112da565b610ad991611301565b60601c90505f8484610aec8560146112c7565b90610af88660346112c7565b92610b05939291906112da565b610b0e91611336565b90505f8585610b1e8660346112c7565b90610b2a8760546112c7565b92610b37939291906112da565b610b4091611336565b9050610b7d83838888610b548960546112c7565b9086610b618b60546112c7565b610b6b91906112c7565b92610b78939291906112da565b610a34565b610b888160546112c7565b610b9290856112c7565b9350505050610aac565b505050565b6060815f03610bca5750506040805180820190915260048152630307830360e41b602082015290565b815f5b8115610bec5780610bdd81611353565b915050600882901c9150610bcd565b610bf68482610bfe565b949350505050565b60605f610c0c83600261136b565b610c179060026112c7565b67ffffffffffffffff811115610c2f57610c2f611382565b6040519080825280601f01601f191660200182016040528015610c59576020820181803683370190505b509050600360fc1b815f81518110610c7357610c736110fa565b60200101906001600160f81b03191690815f1a905350600f60fb1b81600181518110610ca157610ca16110fa565b60200101906001600160f81b03191690815f1a9053505f610cc384600261136b565b610cce9060016112c7565b90505b6001811115610d45576f181899199a1a9b1b9c1cb0b131b232b360811b85600f1660108110610d0257610d026110fa565b1a60f81b828281518110610d1857610d186110fa565b60200101906001600160f81b03191690815f1a90535060049490941c93610d3e81611396565b9050610cd1565b508315610d945760405162461bcd60e51b815260206004820181905260248201527f537472696e67733a20686578206c656e67746820696e73756666696369656e746044820152606401610204565b90505b92915050565b6001600160a01b0381168114610db1575f80fd5b50565b5f8083601f840112610dc4575f80fd5b50813567ffffffffffffffff811115610ddb575f80fd5b602083019150836020828501011115610df2575f80fd5b9250929050565b5f805f8060608587031215610e0c575f80fd5b8435610e1781610d9d565b935060208501359250604085013567ffffffffffffffff811115610e39575f80fd5b610e4587828801610db4565b95989497509550505050565b5f8060208385031215610e62575f80fd5b823567ffffffffffffffff811115610e78575f80fd5b610e8485828601610db4565b90969095509350505050565b5f805f60408486031215610ea2575f80fd5b8335610ead81610d9d565b9250602084013567ffffffffffffffff811115610ec8575f80fd5b610ed486828701610db4565b9497909650939450505050565b5f805f805f60608688031215610ef5575f80fd5b8535610f0081610d9d565b9450602086013567ffffffffffffffff80821115610f1c575f80fd5b610f2889838a01610db4565b90965094506040880135915080821115610f40575f80fd5b818801915088601f830112610f53575f80fd5b813581811115610f61575f80fd5b8960208260051b8501011115610f75575f80fd5b9699959850939650602001949392505050565b5f805f805f60808688031215610f9c575f80fd5b8535610fa781610d9d565b94506020860135935060408601359250606086013567ffffffffffffffff811115610fd0575f80fd5b610fdc88828901610db4565b969995985093965092949392505050565b5f805f8060608587031215611000575f80fd5b8435935060208501359250604085013567ffffffffffffffff811115610e39575f80fd5b60208082526025908201527f6f6e6c7943616c6c546f3a2063616c6c6572206973206e6f7420746865205f63604082015264616c6c546f60d81b606082015260800190565b818382375f9101908152919050565b5f60208284031215611088575f80fd5b8151610d9481610d9d565b60208082526041908201527f6f6e6c7942756e646c65724d616e616765723a2063616c6c6572206973206e6f60408201527f74207468652042756e646c65724d616e61676572206f7220697473206f776e656060820152603960f91b608082015260a00190565b634e487b7160e01b5f52603260045260245ffd5b5f6020828403121561111e575f80fd5b8135610d9481610d9d565b5f5b8381101561114357818101518382015260200161112b565b50505f910152565b5f835161115c818460208801611129565b835190830190611170818360208801611129565b01949350505050565b5f60208284031215611189575f80fd5b5051919050565b634e487b7160e01b5f52601160045260245ffd5b5f60ff821660ff81036111b9576111b9611190565b60010192915050565b81810381811115610d9757610d97611190565b695468654368616e67657360b01b81525f85516111f981600a850160208a01611129565b85519083019061121081600a840160208a01611129565b855191019061122681600a840160208901611129565b845191019061123c81600a840160208801611129565b01600a019695505050505050565b602081525f8251806020840152611268816040850160208701611129565b601f01601f19169190910160400192915050565b60018060a01b038616815284602082015283604082015260806060820152816080820152818360a08301375f81830160a090810191909152601f909201601f19160101949350505050565b80820180821115610d9757610d97611190565b5f80858511156112e8575f80fd5b838611156112f4575f80fd5b5050820193919092039150565b6bffffffffffffffffffffffff19813581811691601485101561132e5780818660140360031b1b83161692505b505092915050565b80356020831015610d97575f19602084900360031b1b1692915050565b5f6001820161136457611364611190565b5060010190565b8082028115828204841417610d9757610d97611190565b634e487b7160e01b5f52604160045260245ffd5b5f816113a4576113a4611190565b505f19019056fea26469706673582212206fa4acf477091da455ccac8f871bb80ae8dd0c3d2fbdda314e80a8e5b30abf8d64736f6c6343000818003360a060405234801561000f575f80fd5b50604051611d09380380611d0983398101604081905261002e9161003f565b6001600160a01b031660805261006c565b5f6020828403121561004f575f80fd5b81516001600160a01b0381168114610065575f80fd5b9392505050565b608051611c806100895f395f8181608a015260ed0152611c805ff3fe608060405234801561000f575f80fd5b506004361061004a575f3560e01c806389b08f111461004e5780638da5cb5b14610085578063ac35b1d4146100c4578063ef32a249146100d7575b5f80fd5b61007061005c36600461032a565b5f6020819052908152604090205460ff1681565b60405190151581526020015b60405180910390f35b6100ac7f000000000000000000000000000000000000000000000000000000000000000081565b6040516001600160a01b03909116815260200161007c565b6100ac6100d236600461034a565b6100ea565b6100ac6100e5366004610383565b610268565b5f7f00000000000000000000000000000000000000000000000000000000000000006001600160a01b031633146101725760405162461bcd60e51b815260206004820152602260248201527f6f6e6c794f776e65723a2063616c6c6572206973206e6f7420746865206f776e60448201526132b960f11b606482015260840160405180910390fd5b5f8460405161018090610302565b8190604051809103905ff590508015801561019d573d5f803e3d5ffd5b5060405163784d200b60e11b81526001600160a01b03868116600483015285811660248301529192509082169063f09a4016906044015f604051808303815f87803b1580156101ea575f80fd5b505af11580156101fc573d5f803e3d5ffd5b505050506001600160a01b038181165f8181526020818152604091829020805460ff19166001179055815188851681529387169084015290917fca0b7dde26052d34217ef1a0cee48085a07ca32da0a918609937a307d496bbf5910160405180910390a2949350505050565b5f8060ff60f81b30846040518060200161028190610302565b6020820181038252601f19601f82011660405250805190602001206040516020016102e394939291906001600160f81b031994909416845260609290921b6bffffffffffffffffffffffff191660018401526015830152603582015260550190565b60408051601f1981840301815291905280516020909101209392505050565b6118b08061039b83390190565b80356001600160a01b0381168114610325575f80fd5b919050565b5f6020828403121561033a575f80fd5b6103438261030f565b9392505050565b5f805f6060848603121561035c575f80fd5b8335925061036c6020850161030f565b915061037a6040850161030f565b90509250925092565b5f60208284031215610393575f80fd5b503591905056fe60a06040525f805464ffffffff001916610100179055348015610020575f80fd5b50306080526080516118506100605f395f818161068b015281816107ad015281816108c201528181610aa801528181610b140152610c3a01526118505ff3fe6080604052600436106100fd575f3560e01c80638da5cb5b11610092578063b75814e511610062578063b75814e51461029a578063c1991219146102d8578063e52903b41461030d578063ebaf3eb51461032c578063f09a401614610340575f80fd5b80638da5cb5b14610214578063a6f9dae114610239578063ad0ffd8b14610258578063afd2d31a14610277575f80fd5b806356e7b7aa116100cd57806356e7b7aa146101a3578063797de9c2146101c25780637e4a1196146101e15780638010137214610200575f80fd5b80631383989714610108578063142d328d1461014457806325460f86146101655780633c69640f14610184575f80fd5b3661010457005b5f80fd5b348015610113575f80fd5b50600354610127906001600160a01b031681565b6040516001600160a01b0390911681526020015b60405180910390f35b34801561014f575f80fd5b5061016361015e3660046113c5565b61035f565b005b348015610170575f80fd5b5061016361017f36600461144c565b610581565b34801561018f575f80fd5b5061016361019e36600461147e565b61066f565b3480156101ae575f80fd5b506101636101bd366004611515565b6107ab565b3480156101cd575f80fd5b506101636101dc366004611564565b6108a6565b3480156101ec575f80fd5b50600254610127906001600160a01b031681565b34801561020b575f80fd5b50610163610941565b34801561021f575f80fd5b505f5461012790600160281b90046001600160a01b031681565b348015610244575f80fd5b506101636102533660046115a3565b610a8c565b348015610263575f80fd5b50600154610127906001600160a01b031681565b348015610282575f80fd5b5061028c60045481565b60405190815260200161013b565b3480156102a5575f80fd5b506102c86102b436600461144c565b60056020525f908152604090205460ff1681565b604051901515815260200161013b565b3480156102e3575f80fd5b505f546102f890610100900463ffffffff1681565b60405163ffffffff909116815260200161013b565b348015610318575f80fd5b506101636103273660046115a3565b610af8565b348015610337575f80fd5b50610163610c1e565b34801561034b575f80fd5b5061016361035a3660046115c3565b610c9d565b6001546001600160a01b031633146103925760405162461bcd60e51b8152600401610389906115f4565b60405180910390fd5b428363ffffffff1610156103e05760405162461bcd60e51b8152602060048201526015602482015274185d1bdb54da59db90d85b1b0e88115e1c1a5c9959605a1b6044820152606401610389565b5f80803660206103f0868361164e565b6103fa919061164e565b9261040793929190611661565b5f5460405161043493929146913060601b91610100900460e01b6001600160e01b03191690602001611688565b60408051601f1981840301815291815281516020928301205f818152600590935291205490915060ff16156104ab5760405162461bcd60e51b815260206004820152601a60248201527f61746f6d5369676e43616c6c3a2055736564206d7367486173680000000000006044820152606401610389565b6104f583838080601f0160208091040260200160405190810160405280939291908181526020018383808284375f920191909152506104ef9250859150610d2d9050565b90610d7f565b5f54600160281b90046001600160a01b039081169116146105585760405162461bcd60e51b815260206004820152601f60248201527f61746f6d5369676e43616c6c3a20496e76616c6964205369676e6174757265006044820152606401610389565b6105628686610da3565b5f908152600560205260409020805460ff191660011790555050505050565b6003546001600160a01b0316331461060f5760405162461bcd60e51b8152602060048201526044602482018190527f6f6e6c795075626c6963536f6369616c5265636f766572793a2063616c6c6572908201527f206973206e6f7420746865206f6e6c795075626c6963536f6369616c5265636f6064820152637665727960e01b608482015260a401610389565b60a081901c6004036106275761062481611031565b50565b60405162461bcd60e51b815260206004820152601a60248201527f61646f707450726f706f73616c3a20756e737570706f727465640000000000006044820152606401610389565b5f54600160281b90046001600160a01b03163314806106b657507f00000000000000000000000000000000000000000000000000000000000000006001600160a01b031633145b6106d25760405162461bcd60e51b8152600401610389906116c0565b6003546001600160a01b0316156107355760405162461bcd60e51b815260206004820152602160248201527f696e6974536f6369616c5265636f766572793a20616c726561647920657869736044820152601d60fa1b6064820152608401610389565b600380546001600160a01b0319166001600160a01b038616908117909155604051631336ebff60e11b815263266dd7fe906107789086908690869060040161170d565b5f604051808303815f87803b15801561078f575f80fd5b505af11580156107a1573d5f803e3d5ffd5b5050505050505050565b7f00000000000000000000000000000000000000000000000000000000000000006001600160a01b031633146108345760405162461bcd60e51b815260206004820152602860248201527f6f6e6c794f726967696e616c3a2063616c6c6572206973206e6f7420746865206044820152671bdc9a59da5b985b60c21b6064820152608401610389565b5f80846001600160a01b03168484604051610850929190611764565b5f60405180830381855af49150503d805f8114610888576040519150601f19603f3d011682016040523d82523d5f602084013e61088d565b606091505b50915091508161089f57805160208201fd5b5050505050565b5f54600160281b90046001600160a01b03163314806108ed57507f00000000000000000000000000000000000000000000000000000000000000006001600160a01b031633145b6109095760405162461bcd60e51b8152600401610389906116c0565b6001546001600160a01b031633146109335760405162461bcd60e51b8152600401610389906115f4565b61093d8282610da3565b5050565b6002546001600160a01b031633146109b85760405162461bcd60e51b815260206004820152603460248201527f6f6e6c7950656e64696e6742756e646c65723a2063616c6c6572206973206e6f6044820152733a103a3432903832b73234b733a13ab7323632b960611b6064820152608401610389565b6004546109c89062093a80611773565b4211610a215760405162461bcd60e51b815260206004820152602260248201527f726573657442756e646c65723a206e65656473203720646179732070656e64696044820152616e6760f01b6064820152608401610389565b60028054600180546001600160a01b0383166001600160a01b031991821681179092559091169091555f60048190556040805192835260208301919091527f81932e26d3d6b8d613dd60331202ebefe49c5008c05597954a66138b6c505b25910160405180910390a1565b5f54600160281b90046001600160a01b0316331480610ad357507f00000000000000000000000000000000000000000000000000000000000000006001600160a01b031633145b610aef5760405162461bcd60e51b8152600401610389906116c0565b61062481611031565b5f54600160281b90046001600160a01b0316331480610b3f57507f00000000000000000000000000000000000000000000000000000000000000006001600160a01b031633145b610b5b5760405162461bcd60e51b8152600401610389906116c0565b610b63610c1e565b600280546001600160a01b0319166001600160a01b038316908117909155610bd2575f600455600154604080516001600160a01b0390921680835260208301527f81932e26d3d6b8d613dd60331202ebefe49c5008c05597954a66138b6c505b2591015b60405180910390a150565b42600455600154600254604080516001600160a01b0393841681529290911660208301527fbd265fea90ed2756df9ac57b162d7d95b2bbd80e1720fca48d685e4a5a7e4c6c9101610bc7565b5f54600160281b90046001600160a01b0316331480610c6557507f00000000000000000000000000000000000000000000000000000000000000006001600160a01b031633145b610c815760405162461bcd60e51b8152600401610389906116c0565b5f805464ffffffff001916610100434063ffffffff1602179055565b5f5460ff1615610ce75760405162461bcd60e51b8152602060048201526015602482015274696e697428292072756e73206f6e6c79206f6e636560581b6044820152606401610389565b5f8054600180546001600160a01b039485166001600160a01b031990911617815593909216600160281b0264ffffffff01600160c81b0319909216919091179091179055565b6040517f19457468657265756d205369676e6564204d6573736167653a0a3332000000006020820152603c81018290525f90605c01604051602081830303815290604052805190602001209050919050565b5f805f610d8c85856110ab565b91509150610d99816110ed565b5090505b92915050565b5f5b8181101561102c575f838284610dbc826014611773565b92610dc993929190611661565b610dd291611786565b60601c90505f8484610de5856014611773565b90610df1866015611773565b92610dfe93929190611661565b610e07916117bb565b6001600160f81b0319161580159150610f3b575f8585610e28866015611773565b90610e34876035611773565b92610e4193929190611661565b610e4a916117e9565b90505f8686610e5a876035611773565b90610e66886055611773565b92610e7393929190611661565b610e7c916117e9565b90505f806001600160a01b038616848a8a610e988b6055611773565b9087610ea58d6055611773565b610eaf9190611773565b92610ebc93929190611661565b604051610eca929190611764565b5f6040518083038185875af1925050503d805f8114610f04576040519150601f19603f3d011682016040523d82523d5f602084013e610f09565b606091505b509150915081610f1b57805160208201fd5b610f26836055611773565b610f309088611773565b965050505050611025565b5f8585610f49866015611773565b90610f55876035611773565b92610f6293929190611661565b610f6b916117e9565b90505f806001600160a01b038516818989610f878a6035611773565b9087610f948c6035611773565b610f9e9190611773565b92610fab93929190611661565b604051610fb9929190611764565b5f6040518083038185875af1925050503d805f8114610ff3576040519150601f19603f3d011682016040523d82523d5f602084013e610ff8565b606091505b50915091508161100a57805160208201fd5b611015836035611773565b61101f9087611773565b95505050505b5050610da5565b505050565b5f54604080516001600160a01b03600160281b9093048316815291831660208301527fb532073b38c83145e3e5135377a08bf9aab55bc0fd7c1179cd4fb995d2a5159c910160405180910390a15f80546001600160a01b03909216600160281b0265010000000000600160c81b0319909216919091179055565b5f8082516041036110df576020830151604084015160608501515f1a6110d3878285856112a2565b945094505050506110e6565b505f905060025b9250929050565b5f81600481111561110057611100611806565b036111085750565b600181600481111561111c5761111c611806565b036111695760405162461bcd60e51b815260206004820152601860248201527f45434453413a20696e76616c6964207369676e617475726500000000000000006044820152606401610389565b600281600481111561117d5761117d611806565b036111ca5760405162461bcd60e51b815260206004820152601f60248201527f45434453413a20696e76616c6964207369676e6174757265206c656e677468006044820152606401610389565b60038160048111156111de576111de611806565b036112365760405162461bcd60e51b815260206004820152602260248201527f45434453413a20696e76616c6964207369676e6174757265202773272076616c604482015261756560f01b6064820152608401610389565b600481600481111561124a5761124a611806565b036106245760405162461bcd60e51b815260206004820152602260248201527f45434453413a20696e76616c6964207369676e6174757265202776272076616c604482015261756560f01b6064820152608401610389565b5f807f7fffffffffffffffffffffffffffffff5d576e7357a4501ddfe92f46681b20a08311156112d757505f9050600361137e565b8460ff16601b141580156112ef57508460ff16601c14155b156112ff57505f9050600461137e565b604080515f8082526020820180845289905260ff881692820192909252606081018690526080810185905260019060a0016020604051602081039080840390855afa158015611350573d5f803e3d5ffd5b5050604051601f1901519150506001600160a01b038116611378575f6001925092505061137e565b91505f90505b94509492505050565b5f8083601f840112611397575f80fd5b50813567ffffffffffffffff8111156113ae575f80fd5b6020830191508360208285010111156110e6575f80fd5b5f805f805f606086880312156113d9575f80fd5b853567ffffffffffffffff808211156113f0575f80fd5b6113fc89838a01611387565b90975095506020880135915063ffffffff82168214611419575f80fd5b9093506040870135908082111561142e575f80fd5b5061143b88828901611387565b969995985093965092949392505050565b5f6020828403121561145c575f80fd5b5035919050565b80356001600160a01b0381168114611479575f80fd5b919050565b5f805f8060608587031215611491575f80fd5b61149a85611463565b9350602085013567ffffffffffffffff808211156114b6575f80fd5b818701915087601f8301126114c9575f80fd5b8135818111156114d7575f80fd5b8860208260051b85010111156114eb575f80fd5b602083019550809450505050604085013560ff8116811461150a575f80fd5b939692955090935050565b5f805f60408486031215611527575f80fd5b61153084611463565b9250602084013567ffffffffffffffff81111561154b575f80fd5b61155786828701611387565b9497909650939450505050565b5f8060208385031215611575575f80fd5b823567ffffffffffffffff81111561158b575f80fd5b61159785828601611387565b90969095509350505050565b5f602082840312156115b3575f80fd5b6115bc82611463565b9392505050565b5f80604083850312156115d4575f80fd5b6115dd83611463565b91506115eb60208401611463565b90509250929050565b60208082526026908201527f6f6e6c7942756e646c65723a2063616c6c6572206973206e6f742074686520626040820152653ab7323632b960d11b606082015260800190565b634e487b7160e01b5f52601160045260245ffd5b81810381811115610d9d57610d9d61163a565b5f808585111561166f575f80fd5b8386111561167b575f80fd5b5050820193919092039150565b848682379093019182526bffffffffffffffffffffffff191660208201526001600160e01b0319919091166034820152603801919050565b6020808252602d908201527f6f6e6c794f776e6572416e644f726967696e616c3a2063616c6c65722069732060408201526c3737ba103a34329037bbb732b960991b606082015260800190565b604080825281018390525f8460608301825b8681101561174d576001600160a01b0361173884611463565b1682526020928301929091019060010161171f565b50809250505060ff83166020830152949350505050565b818382375f9101908152919050565b80820180821115610d9d57610d9d61163a565b6bffffffffffffffffffffffff1981358181169160148510156117b35780818660140360031b1b83161692505b505092915050565b6001600160f81b031981358181169160018510156117b35760019490940360031b84901b1690921692915050565b80356020831015610d9d575f19602084900360031b1b1692915050565b634e487b7160e01b5f52602160045260245ffdfea2646970667358221220004f8b2c4312771e732b51479c7e1ecc19bd32d4427e02b8f00a79cd5078ca2f64736f6c63430008180033a264697066735822122069c66c27d82afb5299019c2de0fe4fd7245da1ae36807a51b6ec7da99720faf364736f6c63430008180033608060405234801561000f575f80fd5b506105978061001d5f395ff3fe608060405234801561000f575f80fd5b5060043610610090575f3560e01c80633e64a696116100635780633e64a696146100d85780634d2301cc146100de57806386d516e8146100f9578063a8b0574e146100ff578063ee82ac5e1461010d575f80fd5b80630f28c97d14610094578063252dba42146100a957806327e86d6e146100ca5780633408e470146100d2575b5f80fd5b425b6040519081526020015b60405180910390f35b6100bc6100b73660046102e6565b61011f565b6040516100a0929190610456565b61009661024b565b46610096565b48610096565b6100966100ec3660046104d6565b6001600160a01b03163190565b45610096565b6040514181526020016100a0565b61009661011b3660046104f6565b4090565b8051439060609067ffffffffffffffff81111561013e5761013e61025d565b60405190808252806020026020018201604052801561017157816020015b606081526020019060019003908161015c5790505b5090505f5b8351811015610245575f808583815181106101935761019361050d565b60200260200101515f01516001600160a01b03168684815181106101b9576101b961050d565b6020026020010151602001516040516101d29190610521565b5f60405180830381855afa9150503d805f811461020a576040519150601f19603f3d011682016040523d82523d5f602084013e61020f565b606091505b50915091508161021d575f80fd5b808484815181106102305761023061050d565b60209081029190910101525050600101610176565b50915091565b5f61025760014361053c565b40905090565b634e487b7160e01b5f52604160045260245ffd5b6040805190810167ffffffffffffffff811182821017156102945761029461025d565b60405290565b604051601f8201601f1916810167ffffffffffffffff811182821017156102c3576102c361025d565b604052919050565b80356001600160a01b03811681146102e1575f80fd5b919050565b5f60208083850312156102f7575f80fd5b823567ffffffffffffffff8082111561030e575f80fd5b818501915085601f830112610321575f80fd5b8135818111156103335761033361025d565b8060051b61034285820161029a565b918252838101850191858101908984111561035b575f80fd5b86860192505b8383101561042757823585811115610377575f80fd5b86016040601f19828d03810182131561038e575f80fd5b610396610271565b6103a18b85016102cb565b815282840135898111156103b3575f80fd5b8085019450508d603f8501126103c7575f80fd5b8a840135898111156103db576103db61025d565b6103eb8c84601f8401160161029a565b92508083528e84828701011115610400575f80fd5b808486018d8501375f9083018c0152808b0191909152845250509186019190860190610361565b9998505050505050505050565b5f5b8381101561044e578181015183820152602001610436565b50505f910152565b5f60408201848352602060408185015281855180845260608601915060608160051b87010193508287015f5b828110156104c857878603605f19018452815180518088526104a981888a01898501610434565b601f01601f191696909601850195509284019290840190600101610482565b509398975050505050505050565b5f602082840312156104e6575f80fd5b6104ef826102cb565b9392505050565b5f60208284031215610506575f80fd5b5035919050565b634e487b7160e01b5f52603260045260245ffd5b5f8251610532818460208701610434565b9190910192915050565b8181038181111561055b57634e487b7160e01b5f52601160045260245ffd5b9291505056fea2646970667358221220101c177cc720aff252fbf0e3ff37ed2c1e4db318cb16e2242d36ce271a3e6f6564736f6c63430008180033",
  "linkReferences": {},
  "deployedLinkReferences": {}
}