{
  "_format": "hh-sol-artifact-1",
  "contractName": "BridgeExample",
  "sourceName": "contracts/innovation/cross/BridgeExample.sol",
  "abi": [
    {
      "inputs": [
        {
          "internalType": "address",
          "name": "sendPortAddr",
          "type": "address"
        }
      ],
      "stateMutability": "nonpayable",
      "type": "constructor"
    },
    {
      "anonymous": false,
      "inputs": [
        {
          "indexed": true,
          "internalType": "address",
          "name": "previousOwner",
          "type": "address"
        },
        {
          "indexed": true,
          "internalType": "address",
          "name": "newOwner",
          "type": "address"
        }
      ],
      "name": "OwnershipTransferred",
      "type": "event"
    },
    {
      "anonymous": false,
      "inputs": [
        {
          "indexed": true,
          "internalType": "uint256",
          "name": "fromChainId",
          "type": "uint256"
        },
        {
          "indexed": true,
          "internalType": "uint256",
          "name": "packageIndex",
          "type": "uint256"
        },
        {
          "indexed": false,
          "internalType": "bytes32",
          "name": "root",
          "type": "bytes32"
        }
      ],
      "name": "PackageReceived",
      "type": "event"
    },
    {
      "inputs": [
        {
          "internalType": "address",
          "name": "",
          "type": "address"
        }
      ],
      "name": "crossPairs",
      "outputs": [
        {
          "internalType": "address",
          "name": "",
          "type": "address"
        }
      ],
      "stateMutability": "view",
      "type": "function"
    },
    {
      "inputs": [
        {
          "internalType": "uint256",
          "name": "packageIndex",
          "type": "uint256"
        },
        {
          "internalType": "uint256",
          "name": "start",
          "type": "uint256"
        },
        {
          "internalType": "uint256",
          "name": "num",
          "type": "uint256"
        }
      ],
      "name": "getLeaves",
      "outputs": [
        {
          "internalType": "bytes32[]",
          "name": "",
          "type": "bytes32[]"
        }
      ],
      "stateMutability": "view",
      "type": "function"
    },
    {
      "inputs": [
        {
          "internalType": "uint256",
          "name": "fromChainId",
          "type": "uint256"
        },
        {
          "internalType": "uint256",
          "name": "packageIndex",
          "type": "uint256"
        }
      ],
      "name": "getRoot",
      "outputs": [
        {
          "internalType": "bytes32",
          "name": "",
          "type": "bytes32"
        }
      ],
      "stateMutability": "view",
      "type": "function"
    },
    {
      "inputs": [],
      "name": "owner",
      "outputs": [
        {
          "internalType": "address",
          "name": "",
          "type": "address"
        }
      ],
      "stateMutability": "view",
      "type": "function"
    },
    {
      "inputs": [
        {
          "components": [
            {
              "internalType": "uint256",
              "name": "fromChainId",
              "type": "uint256"
            },
            {
              "internalType": "uint256",
              "name": "packageIndex",
              "type": "uint256"
            },
            {
              "internalType": "bytes32",
              "name": "root",
              "type": "bytes32"
            }
          ],
          "internalType": "struct IReceivePort.Package[]",
          "name": "packages",
          "type": "tuple[]"
        }
      ],
      "name": "receivePackages",
      "outputs": [],
      "stateMutability": "nonpayable",
      "type": "function"
    },
    {
      "inputs": [],
      "name": "renounceOwnership",
      "outputs": [],
      "stateMutability": "nonpayable",
      "type": "function"
    },
    {
      "inputs": [
        {
          "internalType": "uint256",
          "name": "",
          "type": "uint256"
        },
        {
          "internalType": "uint256",
          "name": "",
          "type": "uint256"
        }
      ],
      "name": "roots",
      "outputs": [
        {
          "internalType": "bytes32",
          "name": "",
          "type": "bytes32"
        }
      ],
      "stateMutability": "view",
      "type": "function"
    },
    {
      "inputs": [],
      "name": "sendPort",
      "outputs": [
        {
          "internalType": "contract ISendPort",
          "name": "",
          "type": "address"
        }
      ],
      "stateMutability": "view",
      "type": "function"
    },
    {
      "inputs": [
        {
          "internalType": "address",
          "name": "fromTokenAddr",
          "type": "address"
        },
        {
          "internalType": "address",
          "name": "toTokenAddr",
          "type": "address"
        }
      ],
      "name": "setCrossPair",
      "outputs": [],
      "stateMutability": "nonpayable",
      "type": "function"
    },
    {
      "inputs": [
        {
          "internalType": "uint256",
          "name": "chainId",
          "type": "uint256"
        },
        {
          "internalType": "address",
          "name": "bridge",
          "type": "address"
        }
      ],
      "name": "setTrustBridge",
      "outputs": [],
      "stateMutability": "nonpayable",
      "type": "function"
    },
    {
      "inputs": [
        {
          "internalType": "uint256",
          "name": "fromChainId",
          "type": "uint256"
        },
        {
          "internalType": "uint256",
          "name": "packageIndex",
          "type": "uint256"
        },
        {
          "internalType": "bytes32[]",
          "name": "proof",
          "type": "bytes32[]"
        },
        {
          "internalType": "address",
          "name": "fromTokenAddr",
          "type": "address"
        },
        {
          "internalType": "uint256",
          "name": "amount",
          "type": "uint256"
        },
        {
          "internalType": "address",
          "name": "receiver",
          "type": "address"
        }
      ],
      "name": "transferFrom",
      "outputs": [],
      "stateMutability": "nonpayable",
      "type": "function"
    },
    {
      "inputs": [
        {
          "internalType": "address",
          "name": "newOwner",
          "type": "address"
        }
      ],
      "name": "transferOwnership",
      "outputs": [],
      "stateMutability": "nonpayable",
      "type": "function"
    },
    {
      "inputs": [
        {
          "internalType": "uint256",
          "name": "toChainId",
          "type": "uint256"
        },
        {
          "internalType": "address",
          "name": "fromTokenAddr",
          "type": "address"
        },
        {
          "internalType": "uint256",
          "name": "amount",
          "type": "uint256"
        },
        {
          "internalType": "address",
          "name": "receiver",
          "type": "address"
        }
      ],
      "name": "transferTo",
      "outputs": [],
      "stateMutability": "nonpayable",
      "type": "function"
    },
    {
      "inputs": [
        {
          "internalType": "uint256",
          "name": "",
          "type": "uint256"
        }
      ],
      "name": "trustBridges",
      "outputs": [
        {
          "internalType": "address",
          "name": "",
          "type": "address"
        }
      ],
      "stateMutability": "view",
      "type": "function"
    },
    {
      "inputs": [
        {
          "internalType": "bytes32",
          "name": "",
          "type": "bytes32"
        }
      ],
      "name": "usedMsgHashes",
      "outputs": [
        {
          "internalType": "bool",
          "name": "",
          "type": "bool"
        }
      ],
      "stateMutability": "view",
      "type": "function"
    },
    {
      "inputs": [
        {
          "internalType": "uint256",
          "name": "fromChainId",
          "type": "uint256"
        },
        {
          "internalType": "uint256",
          "name": "packageIndex",
          "type": "uint256"
        },
        {
          "internalType": "bytes32[]",
          "name": "proof",
          "type": "bytes32[]"
        },
        {
          "internalType": "bytes32",
          "name": "msgHash",
          "type": "bytes32"
        },
        {
          "internalType": "address",
          "name": "sender",
          "type": "address"
        }
      ],
      "name": "verify",
      "outputs": [
        {
          "internalType": "bool",
          "name": "",
          "type": "bool"
        }
      ],
      "stateMutability": "view",
      "type": "function"
    }
  ],
  "bytecode": "0x608060405234801561000f575f80fd5b506040516113cd3803806113cd83398101604081905261002e916100ab565b6100373361005c565b600280546001600160a01b0319166001600160a01b03929092169190911790556100d8565b5f80546001600160a01b038381166001600160a01b0319831681178455604051919092169283917f8be0079c531659141344cd1fd0a4f28419497f9722a3daafe3b4186f6b6457e09190a35050565b5f602082840312156100bb575f80fd5b81516001600160a01b03811681146100d1575f80fd5b9392505050565b6112e8806100e55f395ff3fe608060405234801561000f575f80fd5b50600436106100fb575f3560e01c8063b751076211610093578063cde5636c11610063578063cde5636c1461026f578063d4be793514610282578063e6ec409b14610295578063f2fde38b146102a8575f80fd5b8063b7510762146101ff578063b75814e514610227578063bcbd397714610249578063c5c3c2af1461025c575f80fd5b8063715018a6116100ce578063715018a6146101bf5780637f9cbb43146101c95780638da5cb5b146101dc578063adb824de146101ec575f80fd5b80630ebf4321146100ff5780630fc3cec0146101275780631b59ab431461015f57806356d7d9701461017f575b5f80fd5b61011261010d366004610e1f565b6102bb565b60405190151581526020015b60405180910390f35b610151610135366004610e85565b600160209081525f928352604080842090915290825290205481565b60405190815260200161011e565b61017261016d366004610ea5565b610333565b60405161011e9190610ece565b6101a761018d366004610f11565b60056020525f90815260409020546001600160a01b031681565b6040516001600160a01b03909116815260200161011e565b6101c7610469565b005b6101c76101d7366004610f2a565b61047c565b5f546001600160a01b03166101a7565b6101c76101fa366004610f99565b6105a2565b6101a761020d366004610fca565b60046020525f90815260409020546001600160a01b031681565b610112610235366004610fca565b60036020525f908152604090205460ff1681565b6101c7610257366004610fe1565b6105d7565b6101c761026a366004611056565b61078c565b6002546101a7906001600160a01b031681565b610151610290366004610e85565b610838565b6101c76102a3366004611099565b610858565b6101c76102b6366004610f11565b61088d565b60408051602081018490526bffffffffffffffffffffffff19606084901b16918101919091524660548201525f90819060740160408051601f1981840301815291815281516020928301205f8a8152600184528281208a82529093529120549091506103278683610906565b14979650505050505050565b600254604051631733bfc360e31b8152600481018590526060915f916001600160a01b039091169063b99dfe18906024015f60405180830381865afa15801561037e573d5f803e3d5ffd5b505050506040513d5f823e601f3d908101601f191682016040526103a591908101906110ba565b90505f8367ffffffffffffffff8111156103c1576103c1610d07565b6040519080825280602002602001820160405280156103ea578160200160208202803683370190505b5090505f5b8260400151518110801561040257508481105b1561045d57604083015161041687836111b1565b81518110610426576104266111c4565b6020026020010151828281518110610440576104406111c4565b602090810291909101015280610455816111d8565b9150506103ef565b509150505b9392505050565b610471610948565b61047a5f6109a1565b565b610484610948565b5f5b8181101561059d57368383838181106104a1576104a16111c4565b6060029190910180355f9081526001602090815260408083208285013584529091529020549092501590506105395760405162461bcd60e51b815260206004820152603360248201527f52656365697665506f72743a3a726563656976655061636b616765733a20706160448201527218dad859d948185b1c9958591e48195e1a5cdd606a1b60648201526084015b60405180910390fd5b80355f8181526001602090815260408083208286013580855290835292819020818601359081905590519081529192917f1b2b4ca4bece9c5f40f112685d26e58ab3703093f3cf18d0113bf2992fa1a971910160405180910390a350600101610486565b505050565b6105aa610948565b6001600160a01b039182165f90815260056020526040902080546001600160a01b03191691909216179055565b5f468484846040516020016105ef94939291906111f0565b60408051601f1981840301815291815281516020928301205f818152600390935291205490915060ff16156106665760405162461bcd60e51b815260206004820152601a60248201527f7472616e7366657246726f6d3a2055736564206d7367486173680000000000006044820152606401610530565b5f8781526004602052604090205461068e9088908890889085906001600160a01b03166102bb565b6106da5760405162461bcd60e51b815260206004820152601b60248201527f7472616e7366657246726f6d3a20766572696679206661696c656400000000006044820152606401610530565b5f818152600360209081526040808320805460ff191660011790556001600160a01b038088168452600590925290912054168061076e5760405162461bcd60e51b815260206004820152602c60248201527f7472616e7366657246726f6d3a2066726f6d546f6b656e41646472206973206e60448201526b37ba1031b937b9b9a830b4b960a11b6064820152608401610530565b6107826001600160a01b03821684866109f0565b5050505050505050565b5f848484846040516020016107a494939291906111f0565b60408051808303601f1901815290829052805160209091012060025463011b963d60e31b835260048301829052602483018890529092506001600160a01b0316906308dcb1e8906044015f604051808303815f87803b158015610805575f80fd5b505af1158015610817573d5f803e3d5ffd5b50610831925050506001600160a01b038516333086610a53565b5050505050565b5f8281526001602090815260408083208484529091529020545b92915050565b610860610948565b5f9182526004602052604090912080546001600160a01b0319166001600160a01b03909216919091179055565b610895610948565b6001600160a01b0381166108fa5760405162461bcd60e51b815260206004820152602660248201527f4f776e61626c653a206e6577206f776e657220697320746865207a65726f206160448201526564647265737360d01b6064820152608401610530565b610903816109a1565b50565b5f81815b84518110156109405761093682868381518110610929576109296111c4565b6020026020010151610a91565b915060010161090a565b509392505050565b5f546001600160a01b0316331461047a5760405162461bcd60e51b815260206004820181905260248201527f4f776e61626c653a2063616c6c6572206973206e6f7420746865206f776e65726044820152606401610530565b5f80546001600160a01b038381166001600160a01b0319831681178455604051919092169283917f8be0079c531659141344cd1fd0a4f28419497f9722a3daafe3b4186f6b6457e09190a35050565b6040516001600160a01b03831660248201526044810182905261059d90849063a9059cbb60e01b906064015b60408051601f198184030181529190526020810180516001600160e01b03166001600160e01b031990931692909217909152610aba565b6040516001600160a01b0380851660248301528316604482015260648101829052610a8b9085906323b872dd60e01b90608401610a1c565b50505050565b5f818310610aab575f828152602084905260409020610462565b505f9182526020526040902090565b5f610b0e826040518060400160405280602081526020017f5361666545524332303a206c6f772d6c6576656c2063616c6c206661696c6564815250856001600160a01b0316610b8b9092919063ffffffff16565b80519091501561059d5780806020019051810190610b2c9190611224565b61059d5760405162461bcd60e51b815260206004820152602a60248201527f5361666545524332303a204552433230206f7065726174696f6e20646964206e6044820152691bdd081cdd58d8d9595960b21b6064820152608401610530565b6060610b9984845f85610ba1565b949350505050565b606082471015610c025760405162461bcd60e51b815260206004820152602660248201527f416464726573733a20696e73756666696369656e742062616c616e636520666f6044820152651c8818d85b1b60d21b6064820152608401610530565b6001600160a01b0385163b610c595760405162461bcd60e51b815260206004820152601d60248201527f416464726573733a2063616c6c20746f206e6f6e2d636f6e74726163740000006044820152606401610530565b5f80866001600160a01b03168587604051610c749190611265565b5f6040518083038185875af1925050503d805f8114610cae576040519150601f19603f3d011682016040523d82523d5f602084013e610cb3565b606091505b5091509150610cc3828286610cce565b979650505050505050565b60608315610cdd575081610462565b825115610ced5782518084602001fd5b8160405162461bcd60e51b81526004016105309190611280565b634e487b7160e01b5f52604160045260245ffd5b60405160a0810167ffffffffffffffff81118282101715610d3e57610d3e610d07565b60405290565b604051601f8201601f1916810167ffffffffffffffff81118282101715610d6d57610d6d610d07565b604052919050565b5f67ffffffffffffffff821115610d8e57610d8e610d07565b5060051b60200190565b5f82601f830112610da7575f80fd5b81356020610dbc610db783610d75565b610d44565b8083825260208201915060208460051b870101935086841115610ddd575f80fd5b602086015b84811015610df95780358352918301918301610de2565b509695505050505050565b80356001600160a01b0381168114610e1a575f80fd5b919050565b5f805f805f60a08688031215610e33575f80fd5b8535945060208601359350604086013567ffffffffffffffff811115610e57575f80fd5b610e6388828901610d98565b93505060608601359150610e7960808701610e04565b90509295509295909350565b5f8060408385031215610e96575f80fd5b50508035926020909101359150565b5f805f60608486031215610eb7575f80fd5b505081359360208301359350604090920135919050565b602080825282518282018190525f9190848201906040850190845b81811015610f0557835183529284019291840191600101610ee9565b50909695505050505050565b5f60208284031215610f21575f80fd5b61046282610e04565b5f8060208385031215610f3b575f80fd5b823567ffffffffffffffff80821115610f52575f80fd5b818501915085601f830112610f65575f80fd5b813581811115610f73575f80fd5b866020606083028501011115610f87575f80fd5b60209290920196919550909350505050565b5f8060408385031215610faa575f80fd5b610fb383610e04565b9150610fc160208401610e04565b90509250929050565b5f60208284031215610fda575f80fd5b5035919050565b5f805f805f8060c08789031215610ff6575f80fd5b8635955060208701359450604087013567ffffffffffffffff81111561101a575f80fd5b61102689828a01610d98565b94505061103560608801610e04565b92506080870135915061104a60a08801610e04565b90509295509295509295565b5f805f8060808587031215611069575f80fd5b8435935061107960208601610e04565b92506040850135915061108e60608601610e04565b905092959194509250565b5f80604083850312156110aa575f80fd5b82359150610fc160208401610e04565b5f60208083850312156110cb575f80fd5b825167ffffffffffffffff808211156110e2575f80fd5b9084019060a082870312156110f5575f80fd5b6110fd610d1b565b82518152838301518482015260408301518281111561111a575f80fd5b83019150601f8201871361112c575f80fd5b815161113a610db782610d75565b81815260059190911b83018501908581019089831115611158575f80fd5b938601935b828510156111765784518252938601939086019061115d565b60408401525050606083810151908201526080928301519281019290925250949350505050565b634e487b7160e01b5f52601160045260245ffd5b808201808211156108525761085261119d565b634e487b7160e01b5f52603260045260245ffd5b5f600182016111e9576111e961119d565b5060010190565b9384526bffffffffffffffffffffffff19606093841b81166020860152603485019290925290911b16605482015260680190565b5f60208284031215611234575f80fd5b81518015158114610462575f80fd5b5f5b8381101561125d578181015183820152602001611245565b50505f910152565b5f8251611276818460208701611243565b9190910192915050565b602081525f825180602084015261129e816040850160208701611243565b601f01601f1916919091016040019291505056fea264697066735822122015c132234c47256c0929b9e52d3b79402b2bf7dd50e19294059863603dc1073364736f6c63430008180033",
  "linkReferences": {},
  "deployedLinkReferences": {}
}