{
  "_format": "hh-sol-artifact-1",
  "contractName": "BridgeExample",
  "sourceName": "contracts/innovation/cross/BridgeExample.sol",
  "abi": [
    {
      "inputs": [
        {
          "internalType": "address",
          "name": "sendPortAddr",
          "type": "address"
        }
      ],
      "stateMutability": "nonpayable",
      "type": "constructor"
    },
    {
      "anonymous": false,
      "inputs": [
        {
          "indexed": true,
          "internalType": "address",
          "name": "previousOwner",
          "type": "address"
        },
        {
          "indexed": true,
          "internalType": "address",
          "name": "newOwner",
          "type": "address"
        }
      ],
      "name": "OwnershipTransferred",
      "type": "event"
    },
    {
      "anonymous": false,
      "inputs": [
        {
          "indexed": true,
          "internalType": "uint256",
          "name": "fromChainId",
          "type": "uint256"
        },
        {
          "indexed": true,
          "internalType": "uint256",
          "name": "packageIndex",
          "type": "uint256"
        },
        {
          "indexed": false,
          "internalType": "bytes32",
          "name": "root",
          "type": "bytes32"
        }
      ],
      "name": "PackageReceived",
      "type": "event"
    },
    {
      "inputs": [
        {
          "internalType": "address",
          "name": "",
          "type": "address"
        }
      ],
      "name": "crossPairs",
      "outputs": [
        {
          "internalType": "address",
          "name": "",
          "type": "address"
        }
      ],
      "stateMutability": "view",
      "type": "function"
    },
    {
      "inputs": [
        {
          "internalType": "uint256",
          "name": "packageIndex",
          "type": "uint256"
        },
        {
          "internalType": "uint256",
          "name": "start",
          "type": "uint256"
        },
        {
          "internalType": "uint256",
          "name": "num",
          "type": "uint256"
        }
      ],
      "name": "getLeaves",
      "outputs": [
        {
          "internalType": "bytes32[]",
          "name": "",
          "type": "bytes32[]"
        }
      ],
      "stateMutability": "view",
      "type": "function"
    },
    {
      "inputs": [
        {
          "internalType": "uint256",
          "name": "fromChainId",
          "type": "uint256"
        },
        {
          "internalType": "uint256",
          "name": "packageIndex",
          "type": "uint256"
        }
      ],
      "name": "getRoot",
      "outputs": [
        {
          "internalType": "bytes32",
          "name": "",
          "type": "bytes32"
        }
      ],
      "stateMutability": "view",
      "type": "function"
    },
    {
      "inputs": [],
      "name": "owner",
      "outputs": [
        {
          "internalType": "address",
          "name": "",
          "type": "address"
        }
      ],
      "stateMutability": "view",
      "type": "function"
    },
    {
      "inputs": [
        {
          "components": [
            {
              "internalType": "uint256",
              "name": "fromChainId",
              "type": "uint256"
            },
            {
              "internalType": "uint256",
              "name": "packageIndex",
              "type": "uint256"
            },
            {
              "internalType": "bytes32",
              "name": "root",
              "type": "bytes32"
            }
          ],
          "internalType": "struct IReceivePort.Package[]",
          "name": "packages",
          "type": "tuple[]"
        }
      ],
      "name": "receivePackages",
      "outputs": [],
      "stateMutability": "nonpayable",
      "type": "function"
    },
    {
      "inputs": [],
      "name": "renounceOwnership",
      "outputs": [],
      "stateMutability": "nonpayable",
      "type": "function"
    },
    {
      "inputs": [
        {
          "internalType": "uint256",
          "name": "",
          "type": "uint256"
        },
        {
          "internalType": "uint256",
          "name": "",
          "type": "uint256"
        }
      ],
      "name": "roots",
      "outputs": [
        {
          "internalType": "bytes32",
          "name": "",
          "type": "bytes32"
        }
      ],
      "stateMutability": "view",
      "type": "function"
    },
    {
      "inputs": [],
      "name": "sendPort",
      "outputs": [
        {
          "internalType": "contract ISendPort",
          "name": "",
          "type": "address"
        }
      ],
      "stateMutability": "view",
      "type": "function"
    },
    {
      "inputs": [
        {
          "internalType": "address",
          "name": "fromTokenAddr",
          "type": "address"
        },
        {
          "internalType": "address",
          "name": "toTokenAddr",
          "type": "address"
        }
      ],
      "name": "setCrossPair",
      "outputs": [],
      "stateMutability": "nonpayable",
      "type": "function"
    },
    {
      "inputs": [
        {
          "internalType": "uint256",
          "name": "chainId",
          "type": "uint256"
        },
        {
          "internalType": "address",
          "name": "bridge",
          "type": "address"
        }
      ],
      "name": "setTrustBridge",
      "outputs": [],
      "stateMutability": "nonpayable",
      "type": "function"
    },
    {
      "inputs": [
        {
          "internalType": "uint256",
          "name": "fromChainId",
          "type": "uint256"
        },
        {
          "internalType": "uint256",
          "name": "packageIndex",
          "type": "uint256"
        },
        {
          "internalType": "bytes32[]",
          "name": "proof",
          "type": "bytes32[]"
        },
        {
          "internalType": "address",
          "name": "fromTokenAddr",
          "type": "address"
        },
        {
          "internalType": "uint256",
          "name": "amount",
          "type": "uint256"
        },
        {
          "internalType": "address",
          "name": "receiver",
          "type": "address"
        }
      ],
      "name": "transferFrom",
      "outputs": [],
      "stateMutability": "nonpayable",
      "type": "function"
    },
    {
      "inputs": [
        {
          "internalType": "address",
          "name": "newOwner",
          "type": "address"
        }
      ],
      "name": "transferOwnership",
      "outputs": [],
      "stateMutability": "nonpayable",
      "type": "function"
    },
    {
      "inputs": [
        {
          "internalType": "uint256",
          "name": "toChainId",
          "type": "uint256"
        },
        {
          "internalType": "address",
          "name": "fromTokenAddr",
          "type": "address"
        },
        {
          "internalType": "uint256",
          "name": "amount",
          "type": "uint256"
        },
        {
          "internalType": "address",
          "name": "receiver",
          "type": "address"
        }
      ],
      "name": "transferTo",
      "outputs": [],
      "stateMutability": "nonpayable",
      "type": "function"
    },
    {
      "inputs": [
        {
          "internalType": "uint256",
          "name": "",
          "type": "uint256"
        }
      ],
      "name": "trustBridges",
      "outputs": [
        {
          "internalType": "address",
          "name": "",
          "type": "address"
        }
      ],
      "stateMutability": "view",
      "type": "function"
    },
    {
      "inputs": [
        {
          "internalType": "bytes32",
          "name": "",
          "type": "bytes32"
        }
      ],
      "name": "usedMsgHashes",
      "outputs": [
        {
          "internalType": "bool",
          "name": "",
          "type": "bool"
        }
      ],
      "stateMutability": "view",
      "type": "function"
    },
    {
      "inputs": [
        {
          "internalType": "uint256",
          "name": "fromChainId",
          "type": "uint256"
        },
        {
          "internalType": "uint256",
          "name": "packageIndex",
          "type": "uint256"
        },
        {
          "internalType": "bytes32[]",
          "name": "proof",
          "type": "bytes32[]"
        },
        {
          "internalType": "bytes32",
          "name": "msgHash",
          "type": "bytes32"
        },
        {
          "internalType": "address",
          "name": "sender",
          "type": "address"
        }
      ],
      "name": "verify",
      "outputs": [
        {
          "internalType": "bool",
          "name": "",
          "type": "bool"
        }
      ],
      "stateMutability": "view",
      "type": "function"
    }
  ],
  "bytecode": "0x608060405234801561001057600080fd5b5060405161145038038061145083398101604081905261002f916100ad565b6100383361005d565b600280546001600160a01b0319166001600160a01b03929092169190911790556100dd565b600080546001600160a01b038381166001600160a01b0319831681178455604051919092169283917f8be0079c531659141344cd1fd0a4f28419497f9722a3daafe3b4186f6b6457e09190a35050565b6000602082840312156100bf57600080fd5b81516001600160a01b03811681146100d657600080fd5b9392505050565b611364806100ec6000396000f3fe608060405234801561001057600080fd5b50600436106101005760003560e01c8063b751076211610097578063cde5636c11610066578063cde5636c1461027a578063d4be79351461028d578063e6ec409b146102a0578063f2fde38b146102b357600080fd5b8063b751076214610208578063b75814e514610231578063bcbd397714610254578063c5c3c2af1461026757600080fd5b8063715018a6116100d3578063715018a6146101c75780637f9cbb43146101d15780638da5cb5b146101e4578063adb824de146101f557600080fd5b80630ebf4321146101055780630fc3cec01461012d5780631b59ab431461016657806356d7d97014610186575b600080fd5b610118610113366004610e67565b6102c6565b60405190151581526020015b60405180910390f35b61015861013b366004610ed2565b600160209081526000928352604080842090915290825290205481565b604051908152602001610124565b610179610174366004610ef4565b610340565b6040516101249190610f20565b6101af610194366004610f64565b6005602052600090815260409020546001600160a01b031681565b6040516001600160a01b039091168152602001610124565b6101cf61047d565b005b6101cf6101df366004610f7f565b610491565b6000546001600160a01b03166101af565b6101cf610203366004610ff4565b6105c4565b6101af610216366004611027565b6004602052600090815260409020546001600160a01b031681565b61011861023f366004611027565b60036020526000908152604090205460ff1681565b6101cf610262366004611040565b6105fa565b6101cf6102753660046110ba565b6107b3565b6002546101af906001600160a01b031681565b61015861029b366004610ed2565b610865565b6101cf6102ae366004611100565b610886565b6101cf6102c1366004610f64565b6108bc565b60408051602081018490526bffffffffffffffffffffffff19606084901b1691810191909152466054820152600090819060740160408051601f19818403018152918152815160209283012060008a8152600184528281208a82529093529120549091506103348683610935565b14979650505050505050565b600254604051631733bfc360e31b8152600481018590526060916000916001600160a01b039091169063b99dfe1890602401600060405180830381865afa15801561038f573d6000803e3d6000fd5b505050506040513d6000823e601f3d908101601f191682016040526103b79190810190611123565b905060008367ffffffffffffffff8111156103d4576103d4610d4c565b6040519080825280602002602001820160405280156103fd578160200160208202803683370190505b50905060005b8260400151518110801561041657508481105b1561047157604083015161042a8783611223565b8151811061043a5761043a611236565b602002602001015182828151811061045457610454611236565b6020908102919091010152806104698161124c565b915050610403565b509150505b9392505050565b610485610982565b61048f60006109dc565b565b610499610982565b60005b818110156105bf57368383838181106104b7576104b7611236565b60600291909101803560009081526001602090815260408083208285013584529091529020549092501590506105505760405162461bcd60e51b815260206004820152603360248201527f52656365697665506f72743a3a726563656976655061636b616765733a20706160448201527218dad859d948185b1c9958591e48195e1a5cdd606a1b60648201526084015b60405180910390fd5b803560008181526001602090815260408083208286013580855290835292819020818601359081905590519081529192917f1b2b4ca4bece9c5f40f112685d26e58ab3703093f3cf18d0113bf2992fa1a971910160405180910390a350806105b78161124c565b91505061049c565b505050565b6105cc610982565b6001600160a01b03918216600090815260056020526040902080546001600160a01b03191691909216179055565b6000468484846040516020016106139493929190611265565b60408051601f1981840301815291815281516020928301206000818152600390935291205490915060ff161561068b5760405162461bcd60e51b815260206004820152601a60248201527f7472616e7366657246726f6d3a2055736564206d7367486173680000000000006044820152606401610547565b6000878152600460205260409020546106b49088908890889085906001600160a01b03166102c6565b6107005760405162461bcd60e51b815260206004820152601b60248201527f7472616e7366657246726f6d3a20766572696679206661696c656400000000006044820152606401610547565b6000818152600360209081526040808320805460ff191660011790556001600160a01b03808816845260059092529091205416806107955760405162461bcd60e51b815260206004820152602c60248201527f7472616e7366657246726f6d3a2066726f6d546f6b656e41646472206973206e60448201526b37ba1031b937b9b9a830b4b960a11b6064820152608401610547565b6107a96001600160a01b0382168486610a2c565b5050505050505050565b6000848484846040516020016107cc9493929190611265565b60408051808303601f1901815290829052805160209091012060025463011b963d60e31b835260048301829052602483018890529092506001600160a01b0316906308dcb1e890604401600060405180830381600087803b15801561083057600080fd5b505af1158015610844573d6000803e3d6000fd5b5061085e925050506001600160a01b038516333086610a8f565b5050505050565b60008281526001602090815260408083208484529091529020545b92915050565b61088e610982565b60009182526004602052604090912080546001600160a01b0319166001600160a01b03909216919091179055565b6108c4610982565b6001600160a01b0381166109295760405162461bcd60e51b815260206004820152602660248201527f4f776e61626c653a206e6577206f776e657220697320746865207a65726f206160448201526564647265737360d01b6064820152608401610547565b610932816109dc565b50565b600081815b845181101561097a576109668286838151811061095957610959611236565b6020026020010151610acd565b9150806109728161124c565b91505061093a565b509392505050565b6000546001600160a01b0316331461048f5760405162461bcd60e51b815260206004820181905260248201527f4f776e61626c653a2063616c6c6572206973206e6f7420746865206f776e65726044820152606401610547565b600080546001600160a01b038381166001600160a01b0319831681178455604051919092169283917f8be0079c531659141344cd1fd0a4f28419497f9722a3daafe3b4186f6b6457e09190a35050565b6040516001600160a01b0383166024820152604481018290526105bf90849063a9059cbb60e01b906064015b60408051601f198184030181529190526020810180516001600160e01b03166001600160e01b031990931692909217909152610af9565b6040516001600160a01b0380851660248301528316604482015260648101829052610ac79085906323b872dd60e01b90608401610a58565b50505050565b6000818310610ae9576000828152602084905260409020610476565b5060009182526020526040902090565b6000610b4e826040518060400160405280602081526020017f5361666545524332303a206c6f772d6c6576656c2063616c6c206661696c6564815250856001600160a01b0316610bcb9092919063ffffffff16565b8051909150156105bf5780806020019051810190610b6c9190611299565b6105bf5760405162461bcd60e51b815260206004820152602a60248201527f5361666545524332303a204552433230206f7065726174696f6e20646964206e6044820152691bdd081cdd58d8d9595960b21b6064820152608401610547565b6060610bda8484600085610be2565b949350505050565b606082471015610c435760405162461bcd60e51b815260206004820152602660248201527f416464726573733a20696e73756666696369656e742062616c616e636520666f6044820152651c8818d85b1b60d21b6064820152608401610547565b6001600160a01b0385163b610c9a5760405162461bcd60e51b815260206004820152601d60248201527f416464726573733a2063616c6c20746f206e6f6e2d636f6e74726163740000006044820152606401610547565b600080866001600160a01b03168587604051610cb691906112df565b60006040518083038185875af1925050503d8060008114610cf3576040519150601f19603f3d011682016040523d82523d6000602084013e610cf8565b606091505b5091509150610d08828286610d13565b979650505050505050565b60608315610d22575081610476565b825115610d325782518084602001fd5b8160405162461bcd60e51b815260040161054791906112fb565b634e487b7160e01b600052604160045260246000fd5b60405160a0810167ffffffffffffffff81118282101715610d8557610d85610d4c565b60405290565b604051601f8201601f1916810167ffffffffffffffff81118282101715610db457610db4610d4c565b604052919050565b600067ffffffffffffffff821115610dd657610dd6610d4c565b5060051b60200190565b600082601f830112610df157600080fd5b81356020610e06610e0183610dbc565b610d8b565b82815260059290921b84018101918181019086841115610e2557600080fd5b8286015b84811015610e405780358352918301918301610e29565b509695505050505050565b80356001600160a01b0381168114610e6257600080fd5b919050565b600080600080600060a08688031215610e7f57600080fd5b8535945060208601359350604086013567ffffffffffffffff811115610ea457600080fd5b610eb088828901610de0565b93505060608601359150610ec660808701610e4b565b90509295509295909350565b60008060408385031215610ee557600080fd5b50508035926020909101359150565b600080600060608486031215610f0957600080fd5b505081359360208301359350604090920135919050565b6020808252825182820181905260009190848201906040850190845b81811015610f5857835183529284019291840191600101610f3c565b50909695505050505050565b600060208284031215610f7657600080fd5b61047682610e4b565b60008060208385031215610f9257600080fd5b823567ffffffffffffffff80821115610faa57600080fd5b818501915085601f830112610fbe57600080fd5b813581811115610fcd57600080fd5b866020606083028501011115610fe257600080fd5b60209290920196919550909350505050565b6000806040838503121561100757600080fd5b61101083610e4b565b915061101e60208401610e4b565b90509250929050565b60006020828403121561103957600080fd5b5035919050565b60008060008060008060c0878903121561105957600080fd5b8635955060208701359450604087013567ffffffffffffffff81111561107e57600080fd5b61108a89828a01610de0565b94505061109960608801610e4b565b9250608087013591506110ae60a08801610e4b565b90509295509295509295565b600080600080608085870312156110d057600080fd5b843593506110e060208601610e4b565b9250604085013591506110f560608601610e4b565b905092959194509250565b6000806040838503121561111357600080fd5b8235915061101e60208401610e4b565b6000602080838503121561113657600080fd5b825167ffffffffffffffff8082111561114e57600080fd5b9084019060a0828703121561116257600080fd5b61116a610d62565b82518152838301518482015260408301518281111561118857600080fd5b83019150601f8201871361119b57600080fd5b81516111a9610e0182610dbc565b81815260059190911b830185019085810190898311156111c857600080fd5b938601935b828510156111e6578451825293860193908601906111cd565b60408401525050606083810151908201526080928301519281019290925250949350505050565b634e487b7160e01b600052601160045260246000fd5b808201808211156108805761088061120d565b634e487b7160e01b600052603260045260246000fd5b60006001820161125e5761125e61120d565b5060010190565b9384526bffffffffffffffffffffffff19606093841b81166020860152603485019290925290911b16605482015260680190565b6000602082840312156112ab57600080fd5b8151801515811461047657600080fd5b60005b838110156112d65781810151838201526020016112be565b50506000910152565b600082516112f18184602087016112bb565b9190910192915050565b602081526000825180602084015261131a8160408501602087016112bb565b601f01601f1916919091016040019291505056fea2646970667358221220defa4a0eb720adacdac281df040ace7fca70c53d3be59e6913d6583dc2b6db6c64736f6c63430008120033",
  "linkReferences": {},
  "deployedLinkReferences": {}
}