{
  "_format": "hh-sol-artifact-1",
  "contractName": "TEST",
  "sourceName": "contracts/aa20/TEST.sol",
  "abi": [
    {
      "inputs": [
        {
          "internalType": "string",
          "name": "tick",
          "type": "string"
        },
        {
          "internalType": "uint64",
          "name": "maxSupply_",
          "type": "uint64"
        },
        {
          "internalType": "uint64",
          "name": "mintLimit_",
          "type": "uint64"
        },
        {
          "internalType": "address",
          "name": "proxy_",
          "type": "address"
        }
      ],
      "stateMutability": "nonpayable",
      "type": "constructor"
    },
    {
      "anonymous": false,
      "inputs": [
        {
          "indexed": true,
          "internalType": "address",
          "name": "owner",
          "type": "address"
        },
        {
          "indexed": true,
          "internalType": "address",
          "name": "approved",
          "type": "address"
        },
        {
          "indexed": true,
          "internalType": "uint256",
          "name": "tokenIdOrAmount",
          "type": "uint256"
        }
      ],
      "name": "Approval",
      "type": "event"
    },
    {
      "anonymous": false,
      "inputs": [
        {
          "indexed": true,
          "internalType": "address",
          "name": "owner",
          "type": "address"
        },
        {
          "indexed": true,
          "internalType": "address",
          "name": "operator",
          "type": "address"
        },
        {
          "indexed": false,
          "internalType": "bool",
          "name": "approved",
          "type": "bool"
        }
      ],
      "name": "ApprovalForAll",
      "type": "event"
    },
    {
      "anonymous": false,
      "inputs": [
        {
          "indexed": true,
          "internalType": "address",
          "name": "from",
          "type": "address"
        },
        {
          "indexed": true,
          "internalType": "address",
          "name": "to",
          "type": "address"
        },
        {
          "indexed": false,
          "internalType": "string",
          "name": "data",
          "type": "string"
        }
      ],
      "name": "Inscribe",
      "type": "event"
    },
    {
      "anonymous": false,
      "inputs": [
        {
          "indexed": true,
          "internalType": "address",
          "name": "from",
          "type": "address"
        },
        {
          "indexed": true,
          "internalType": "address",
          "name": "to",
          "type": "address"
        },
        {
          "indexed": true,
          "internalType": "uint256",
          "name": "tokenIdOrAmount",
          "type": "uint256"
        }
      ],
      "name": "Transfer",
      "type": "event"
    },
    {
      "inputs": [
        {
          "internalType": "address",
          "name": "owner",
          "type": "address"
        },
        {
          "internalType": "address",
          "name": "spender",
          "type": "address"
        }
      ],
      "name": "allowance",
      "outputs": [
        {
          "internalType": "uint256",
          "name": "",
          "type": "uint256"
        }
      ],
      "stateMutability": "view",
      "type": "function"
    },
    {
      "inputs": [
        {
          "internalType": "address",
          "name": "spender",
          "type": "address"
        },
        {
          "internalType": "uint256",
          "name": "amountOrTokenID",
          "type": "uint256"
        }
      ],
      "name": "approve",
      "outputs": [],
      "stateMutability": "nonpayable",
      "type": "function"
    },
    {
      "inputs": [
        {
          "internalType": "address",
          "name": "owner",
          "type": "address"
        }
      ],
      "name": "balanceOf",
      "outputs": [
        {
          "internalType": "uint256",
          "name": "",
          "type": "uint256"
        }
      ],
      "stateMutability": "view",
      "type": "function"
    },
    {
      "inputs": [],
      "name": "decimals",
      "outputs": [
        {
          "internalType": "uint8",
          "name": "",
          "type": "uint8"
        }
      ],
      "stateMutability": "view",
      "type": "function"
    },
    {
      "inputs": [
        {
          "internalType": "uint256",
          "name": "tokenId",
          "type": "uint256"
        }
      ],
      "name": "getApproved",
      "outputs": [
        {
          "internalType": "address",
          "name": "",
          "type": "address"
        }
      ],
      "stateMutability": "view",
      "type": "function"
    },
    {
      "inputs": [],
      "name": "hash",
      "outputs": [
        {
          "internalType": "bytes32",
          "name": "",
          "type": "bytes32"
        }
      ],
      "stateMutability": "view",
      "type": "function"
    },
    {
      "inputs": [
        {
          "internalType": "bytes",
          "name": "data",
          "type": "bytes"
        }
      ],
      "name": "inscribe",
      "outputs": [],
      "stateMutability": "nonpayable",
      "type": "function"
    },
    {
      "inputs": [
        {
          "internalType": "address",
          "name": "owner",
          "type": "address"
        },
        {
          "internalType": "address",
          "name": "operator",
          "type": "address"
        }
      ],
      "name": "isApprovedForAll",
      "outputs": [
        {
          "internalType": "bool",
          "name": "",
          "type": "bool"
        }
      ],
      "stateMutability": "view",
      "type": "function"
    },
    {
      "inputs": [],
      "name": "lastBlock",
      "outputs": [
        {
          "internalType": "uint64",
          "name": "",
          "type": "uint64"
        }
      ],
      "stateMutability": "view",
      "type": "function"
    },
    {
      "inputs": [],
      "name": "maxSupply",
      "outputs": [
        {
          "internalType": "uint64",
          "name": "",
          "type": "uint64"
        }
      ],
      "stateMutability": "view",
      "type": "function"
    },
    {
      "inputs": [],
      "name": "mintLimit",
      "outputs": [
        {
          "internalType": "uint64",
          "name": "",
          "type": "uint64"
        }
      ],
      "stateMutability": "view",
      "type": "function"
    },
    {
      "inputs": [],
      "name": "mintedPer",
      "outputs": [
        {
          "internalType": "uint64",
          "name": "",
          "type": "uint64"
        }
      ],
      "stateMutability": "view",
      "type": "function"
    },
    {
      "inputs": [],
      "name": "name",
      "outputs": [
        {
          "internalType": "string",
          "name": "",
          "type": "string"
        }
      ],
      "stateMutability": "view",
      "type": "function"
    },
    {
      "inputs": [],
      "name": "nft2ft",
      "outputs": [
        {
          "internalType": "bool",
          "name": "",
          "type": "bool"
        }
      ],
      "stateMutability": "view",
      "type": "function"
    },
    {
      "inputs": [
        {
          "internalType": "uint256",
          "name": "tokenId",
          "type": "uint256"
        }
      ],
      "name": "ownerOf",
      "outputs": [
        {
          "internalType": "address",
          "name": "",
          "type": "address"
        }
      ],
      "stateMutability": "view",
      "type": "function"
    },
    {
      "inputs": [],
      "name": "proxy",
      "outputs": [
        {
          "internalType": "address",
          "name": "",
          "type": "address"
        }
      ],
      "stateMutability": "view",
      "type": "function"
    },
    {
      "inputs": [
        {
          "internalType": "address",
          "name": "from",
          "type": "address"
        },
        {
          "internalType": "address",
          "name": "to",
          "type": "address"
        },
        {
          "internalType": "uint256",
          "name": "tokenId",
          "type": "uint256"
        }
      ],
      "name": "safeTransferFrom",
      "outputs": [],
      "stateMutability": "nonpayable",
      "type": "function"
    },
    {
      "inputs": [
        {
          "internalType": "address",
          "name": "from",
          "type": "address"
        },
        {
          "internalType": "address",
          "name": "to",
          "type": "address"
        },
        {
          "internalType": "uint256",
          "name": "tokenId",
          "type": "uint256"
        },
        {
          "internalType": "bytes",
          "name": "data",
          "type": "bytes"
        }
      ],
      "name": "safeTransferFrom",
      "outputs": [],
      "stateMutability": "nonpayable",
      "type": "function"
    },
    {
      "inputs": [
        {
          "internalType": "address",
          "name": "operator",
          "type": "address"
        },
        {
          "internalType": "bool",
          "name": "approved",
          "type": "bool"
        }
      ],
      "name": "setApprovalForAll",
      "outputs": [],
      "stateMutability": "nonpayable",
      "type": "function"
    },
    {
      "inputs": [
        {
          "internalType": "bytes4",
          "name": "interfaceId",
          "type": "bytes4"
        }
      ],
      "name": "supportsInterface",
      "outputs": [
        {
          "internalType": "bool",
          "name": "",
          "type": "bool"
        }
      ],
      "stateMutability": "view",
      "type": "function"
    },
    {
      "inputs": [],
      "name": "symbol",
      "outputs": [
        {
          "internalType": "string",
          "name": "",
          "type": "string"
        }
      ],
      "stateMutability": "view",
      "type": "function"
    },
    {
      "inputs": [],
      "name": "tickNumber",
      "outputs": [
        {
          "internalType": "uint128",
          "name": "",
          "type": "uint128"
        }
      ],
      "stateMutability": "view",
      "type": "function"
    },
    {
      "inputs": [],
      "name": "toFT",
      "outputs": [],
      "stateMutability": "nonpayable",
      "type": "function"
    },
    {
      "inputs": [
        {
          "internalType": "uint256",
          "name": "tokenID",
          "type": "uint256"
        }
      ],
      "name": "tokenURI",
      "outputs": [
        {
          "internalType": "string",
          "name": "",
          "type": "string"
        }
      ],
      "stateMutability": "view",
      "type": "function"
    },
    {
      "inputs": [],
      "name": "totalSupply",
      "outputs": [
        {
          "internalType": "uint256",
          "name": "",
          "type": "uint256"
        }
      ],
      "stateMutability": "view",
      "type": "function"
    },
    {
      "inputs": [
        {
          "internalType": "address",
          "name": "to",
          "type": "address"
        },
        {
          "internalType": "uint256",
          "name": "amount",
          "type": "uint256"
        }
      ],
      "name": "transfer",
      "outputs": [
        {
          "internalType": "bool",
          "name": "",
          "type": "bool"
        }
      ],
      "stateMutability": "nonpayable",
      "type": "function"
    },
    {
      "inputs": [
        {
          "internalType": "address",
          "name": "from",
          "type": "address"
        },
        {
          "internalType": "address",
          "name": "to",
          "type": "address"
        },
        {
          "internalType": "uint256",
          "name": "tokenIdOrAmount",
          "type": "uint256"
        }
      ],
      "name": "transferFrom",
      "outputs": [
        {
          "internalType": "bool",
          "name": "",
          "type": "bool"
        }
      ],
      "stateMutability": "nonpayable",
      "type": "function"
    }
  ],
  "bytecode": "0x60a060405234801562000010575f80fd5b50604051620029fe380380620029fe833981016040819052620000339162000178565b60408051808201909152600a81526905445535420494e5332360b41b6020820152845f620000628382620002ee565b506001620000718282620002ee565b50600c91506200008490508582620002ee565b5083604051602001620000989190620003ba565b60408051808303601f190181529190528051602090910120608052600580546001600160401b039485166001600160801b031990911617680100000000000000009390941692909202929092179055600880546001600160a01b0319166001600160a01b039092169190911790555062000424565b634e487b7160e01b5f52604160045260245ffd5b5f5b838110156200013d57818101518382015260200162000123565b50505f910152565b80516001600160401b03811681146200015c575f80fd5b919050565b80516001600160a01b03811681146200015c575f80fd5b5f805f80608085870312156200018c575f80fd5b84516001600160401b0380821115620001a3575f80fd5b818701915087601f830112620001b7575f80fd5b815181811115620001cc57620001cc6200010d565b604051601f8201601f19908116603f01168101908382118183101715620001f757620001f76200010d565b816040528281528a602084870101111562000210575f80fd5b6200022383602083016020880162000121565b8098505050505050620002396020860162000145565b9250620002496040860162000145565b9150620002596060860162000161565b905092959194509250565b600181811c908216806200027957607f821691505b6020821081036200029857634e487b7160e01b5f52602260045260245ffd5b50919050565b601f821115620002e957805f5260205f20601f840160051c81016020851015620002c55750805b601f840160051c820191505b81811015620002e6575f8155600101620002d1565b50505b505050565b81516001600160401b038111156200030a576200030a6200010d565b62000322816200031b845462000264565b846200029e565b602080601f83116001811462000358575f8415620003405750858301515b5f19600386901b1c1916600185901b178555620003b2565b5f85815260208120601f198616915b82811015620003885788860151825594840194600190910190840162000367565b5085821015620003a657878501515f19600388901b60f8161c191681555b505060018460011b0185555b505050505050565b7f7b2270223a22696e732d3230222c226f70223a226d696e74222c227469636b228152611d1160f11b60208201525f8251620003fe81602285016020870162000121565b6e222c22616d74223a2231303030227d60881b6022939091019283015250603101919050565b6080516125ba620004445f395f818161022701526106ed01526125ba5ff3fe608060405234801561000f575f80fd5b50600436106101a1575f3560e01c806370a08231116100f3578063aa32ddcc11610093578063d5abeb011161006e578063d5abeb01146103d5578063dd62ed3e146103e8578063e985e9c514610420578063ec5568891461045b575f80fd5b8063aa32ddcc146103a7578063b88d4fde146103af578063c87b56dd146103c2575f80fd5b806395d89b41116100ce57806395d89b411461035f578063996517cf14610367578063a22cb46514610381578063a9059cbb14610394575f80fd5b806370a0823114610302578063806b984f1461031557806389da5a991461032f575f80fd5b806323b872dd1161015e57806331a462da1161013957806331a462da146102bc57806342842e0e146102c9578063449b2cf6146102dc5780636352211e146102ef575f80fd5b806323b872dd146102685780632910b20a1461027b578063313ce567146102ad575f80fd5b806301ffc9a7146101a557806306fdde03146101cd578063081812fc146101e2578063095ea7b31461020d57806309bd5a601461022257806318160ddd14610257575b5f80fd5b6101b86101b3366004611a7f565b61046e565b60405190151581526020015b60405180910390f35b6101d56104a4565b6040516101c49190611aee565b6101f56101f0366004611b00565b610533565b6040516001600160a01b0390911681526020016101c4565b61022061021b366004611b32565b610558565b005b6102497f000000000000000000000000000000000000000000000000000000000000000081565b6040519081526020016101c4565b6007546001600160801b0316610249565b6101b8610276366004611b5a565b610581565b60055461029590600160c01b90046001600160401b031681565b6040516001600160401b0390911681526020016101c4565b604051600181526020016101c4565b6006546101b89060ff1681565b6102206102d7366004611b5a565b6106ae565b6102206102ea366004611b93565b6106eb565b6101f56102fd366004611b00565b610a01565b610249610310366004611bfe565b610a60565b60055461029590600160801b90046001600160401b031681565b6006546103479061010090046001600160801b031681565b6040516001600160801b0390911681526020016101c4565b6101d5610b0a565b60055461029590600160401b90046001600160401b031681565b61022061038f366004611c17565b610b19565b6101b86103a2366004611b32565b610b2d565b610220610bb4565b6102206103bd366004611c64565b610c17565b6101d56103d0366004611b00565b610c98565b600554610295906001600160401b031681565b6102496103f6366004611d38565b6001600160a01b039182165f908152600b6020908152604080832093909416825291909152205490565b6101b861042e366004611d38565b6001600160a01b039182165f90815260046020908152604080832093909416825291909152205460ff1690565b6008546101f5906001600160a01b031681565b5f6001600160e01b031982166380ac58cd60e01b148061049e57506301ffc9a760e01b6001600160e01b03198316145b92915050565b60605f80546104b290611d69565b80601f01602080910402602001604051908101604052809291908181526020018280546104de90611d69565b80156105295780601f1061050057610100808354040283529160200191610529565b820191905f5260205f20905b81548152906001019060200180831161050c57829003601f168201915b5050505050905090565b5f61053d82610daf565b505f908152600360205260409020546001600160a01b031690565b60065460ff166105705761056c8282610e10565b5050565b3361057c818484610f1f565b505050565b5f6001600160a01b0384166105eb5760405162461bcd60e51b815260206004820152602560248201527f494e5332303a207472616e736665722066726f6d20746865207a65726f206164604482015264647265737360d81b60648201526084015b60405180910390fd5b6001600160a01b03831661064d5760405162461bcd60e51b815260206004820152602360248201527f494e5332303a207472616e7366657220746f20746865207a65726f206164647260448201526265737360e81b60648201526084016105e2565b60065460ff1661068e57610662335b8361105a565b61067e5760405162461bcd60e51b81526004016105e290611da1565b6106898484846110d7565b6106a4565b61069984338461119e565b6106a4848484611228565b5060019392505050565b60065460ff16156106d15760405162461bcd60e51b81526004016105e290611def565b61057c83838360405180602001604052805f815250610c17565b7f0000000000000000000000000000000000000000000000000000000000000000828260405161071c929190611e26565b6040518091039020146107715760405162461bcd60e51b815260206004820152601760248201527f496e73637269626520646174612069732077726f6e672e00000000000000000060448201526064016105e2565b3332036107b75760405162461bcd60e51b81526020600482015260146024820152731153d05cc8185c99481b9bdd08185b1b1bddd95960621b60448201526064016105e2565b600554600160801b90046001600160401b03164311156107ff57600580546001600160801b0316600160801b436001600160401b0316026001600160c01b03161790556108bf565b600554600a600160c01b9091046001600160401b0316106108925760405162461bcd60e51b815260206004820152604160248201527f4f6e6c79203130207469636b732070657220626c6f636b2e205573696e67204660448201527f6c617368626f74732063616e2070726576656e74206661696c656420747865736064820152601760f91b608482015260a4016105e2565b6005805460016001600160401b03600160c01b80840482169290920116026001600160c01b039091161790555b6005546103e890600160401b90046001600160401b031681111561091b5760405162461bcd60e51b8152602060048201526013602482015272115e18d959591959081b5a5b9d081b1a5b5a5d606a1b60448201526064016105e2565b6005546007546001600160401b03909116906109419083906001600160801b0316611e49565b106109845760405162461bcd60e51b81526020600482015260136024820152724578636565646564206d617820737570706c7960681b60448201526064016105e2565b6006546109a190339061010090046001600160801b0316836113cd565b60405133905f907f0e2c612cd3a6965782a48c7f571f155667c3c913eb3b6f0af0a004652b8fdc6d906109da9087908790602001611e5c565b60408051601f19818403018152908290526109f491611aee565b60405180910390a3505050565b5f818152600260205260408120546001600160a01b03168061049e5760405162461bcd60e51b8152602060048201526018602482015277115490cdcc8c4e881a5b9d985b1a59081d1bdad95b88125160421b60448201526064016105e2565b5f6001600160a01b038216610ac85760405162461bcd60e51b815260206004820152602860248201527f45524332303a2061646472657373207a65726f206973206e6f7420612076616c60448201526734b21037bbb732b960c11b60648201526084016105e2565b60065460ff16610aef576001600160a01b0382165f908152600a602052604090205461049e565b506001600160a01b03165f9081526009602052604090205490565b6060600c80546104b290611d69565b60065460ff1661056c5761056c82826114d7565b6006545f9060ff1615610ba7576001600160a01b038316610b9c5760405162461bcd60e51b815260206004820152602360248201527f45524332303a207472616e7366657220746f20746865207a65726f206164647260448201526265737360e81b60648201526084016105e2565b610ba7338484611228565b5060065460ff1692915050565b60065460ff16158015610bd157506008546001600160a01b031633145b610c085760405162461bcd60e51b815260206004820152600860248201526748617320646f6e6560c01b60448201526064016105e2565b6006805460ff19166001179055565b60065460ff1615610c3a5760405162461bcd60e51b81526004016105e290611def565b610c433361065c565b610c5f5760405162461bcd60e51b81526004016105e290611da1565b610c6a8484846110d7565b610c76848484846114e2565b610c925760405162461bcd60e51b81526004016105e290611e94565b50505050565b60065460609060ff1615610cbe5760405162461bcd60e51b81526004016105e290611def565b5f604051806101a0016040528061016881526020016123dd61016891399050606081600d5f8681526020019081526020015f205f01604051602001610d04929190611ee6565b60408051601f198184030181529181525f868152600d60205220600101549091508190610d30906115df565b604051602001610d41929190611ff4565b60405160208183030381529060405290505f610d83610d5f836116db565b604051602001610d6f9190612070565b6040516020818303038152906040526116db565b905080604051602001610d9691906120e6565b60408051601f1981840301815291905295945050505050565b5f818152600260205260409020546001600160a01b0316610e0d5760405162461bcd60e51b8152602060048201526018602482015277115490cdcc8c4e881a5b9d985b1a59081d1bdad95b88125160421b60448201526064016105e2565b50565b5f610e1a82610a01565b9050806001600160a01b0316836001600160a01b031603610e875760405162461bcd60e51b815260206004820152602160248201527f4552433732313a20617070726f76616c20746f2063757272656e74206f776e656044820152603960f91b60648201526084016105e2565b336001600160a01b0382161480610ea35750610ea3813361042e565b610f155760405162461bcd60e51b815260206004820152603e60248201527f4552433732313a20617070726f76652063616c6c6572206973206e6f7420746f60448201527f6b656e206f776e6572206e6f7220617070726f76656420666f7220616c6c000060648201526084016105e2565b61057c838361183d565b6001600160a01b038316610f815760405162461bcd60e51b8152602060048201526024808201527f45524332303a20617070726f76652066726f6d20746865207a65726f206164646044820152637265737360e01b60648201526084016105e2565b6001600160a01b038216610fe25760405162461bcd60e51b815260206004820152602260248201527f45524332303a20617070726f766520746f20746865207a65726f206164647265604482015261737360f01b60648201526084016105e2565b6001600160a01b038084165f908152600b6020908152604080832093861683529290522081905560065460ff161561057c5780826001600160a01b0316846001600160a01b03167f8c5be1e5ebec7d5bd14f71427d1e84f3dd0314c0f7b2291e5b200ac8c7c3b92560405160405180910390a4505050565b5f8061106583610a01565b9050806001600160a01b0316846001600160a01b031614806110ab57506001600160a01b038082165f9081526004602090815260408083209388168352929052205460ff165b806110cf5750836001600160a01b03166110c484610533565b6001600160a01b0316145b949350505050565b6110e28383836118aa565b5f818152600d60205260409020600101546111009084908490611228565b6001600160a01b0383165f908152600a6020526040812080546001929061112890849061212a565b90915550506001600160a01b0382165f908152600a60205260408120805460019290611155908490611e49565b909155505060405181906001600160a01b0380851691908616907fddf252ad1be2c89b69c2b068fc378daa952ba7f163c4a11628f55a4df523b3ef905f90a461057c5f8261183d565b6001600160a01b038381165f908152600b60209081526040808320938616835292905220545f198114610c92578181101561121b5760405162461bcd60e51b815260206004820152601d60248201527f45524332303a20696e73756666696369656e7420616c6c6f77616e636500000060448201526064016105e2565b610c928484848403610f1f565b61123383838361194f565b6001600160a01b0383165f90815260096020526040902054818110156112aa5760405162461bcd60e51b815260206004820152602660248201527f45524332303a207472616e7366657220616d6f756e7420657863656564732062604482015265616c616e636560d01b60648201526084016105e2565b6001600160a01b038085165f908152600960205260408082208585039055918516815290812080548492906112e0908490611e49565b909155505f90506112f0836115df565b604051602001611300919061213d565b6040516020818303038152906040529050836001600160a01b0316856001600160a01b03167f0e2c612cd3a6965782a48c7f571f155667c3c913eb3b6f0af0a004652b8fdc6d8360405160200161135791906121a9565b60408051601f198184030181529082905261137191611aee565b60405180910390a360065460ff16156113c65782846001600160a01b0316866001600160a01b03167fddf252ad1be2c89b69c2b068fc378daa952ba7f163c4a11628f55a4df523b3ef60405160405180910390a45b5050505050565b6113d85f848461194f565b600780546001600160801b038082168401166fffffffffffffffffffffffffffffffff199091161790556001600160a01b0383165f818152600960209081526040808320805486019055338352600a8252808320805460010190558583526002825280832080546001600160a01b03191690941790935582516080810184526004818501908152631b5a5b9d60e21b60608301528152808201859052858352600d9091529190208151819061148d9082612224565b506020919091015160019091015560405182906001600160a01b038516905f907fddf252ad1be2c89b69c2b068fc378daa952ba7f163c4a11628f55a4df523b3ef908290a4505050565b61056c3383836119a5565b5f6001600160a01b0384163b156115d457604051630a85bd0160e11b81526001600160a01b0385169063150b7a02906115259033908990889088906004016122e3565b6020604051808303815f875af192505050801561155f575060408051601f3d908101601f1916820190925261155c9181019061231f565b60015b6115ba573d80801561158c576040519150601f19603f3d011682016040523d82523d5f602084013e611591565b606091505b5080515f036115b25760405162461bcd60e51b81526004016105e290611e94565b805181602001fd5b6001600160e01b031916630a85bd0160e11b1490506110cf565b506001949350505050565b6060815f036116055750506040805180820190915260018152600360fc1b602082015290565b815f5b811561162e57806116188161233a565b91506116279050600a83612366565b9150611608565b5f816001600160401b0381111561164757611647611c50565b6040519080825280601f01601f191660200182016040528015611671576020820181803683370190505b5090505b84156110cf5761168660018361212a565b9150611693600a86612379565b61169e906030611e49565b60f81b8183815181106116b3576116b361238c565b60200101906001600160f81b03191690815f1a9053506116d4600a86612366565b9450611675565b80516060905f8190036116fd57505060408051602081019091525f8152919050565b5f600361170b836002611e49565b6117159190612366565b6117209060046123a0565b90505f61172e826020611e49565b6001600160401b0381111561174557611745611c50565b6040519080825280601f01601f19166020018201604052801561176f576020820181803683370190505b5090505f60405180606001604052806040815260200161254560409139905060018101602083015f5b868110156117f9576003818a01810151603f601282901c8116860151600c83901c8216870151600684901c831688015192909316870151600891821b60ff94851601821b92841692909201901b91160160e01b835260049092019101611798565b50600386066001811461181357600281146118245761182f565b613d3d60f01b60011983015261182f565b603d60f81b5f198301525b505050918152949350505050565b5f81815260036020526040902080546001600160a01b0319166001600160a01b038416908117909155819061187182610a01565b6001600160a01b03167f8c5be1e5ebec7d5bd14f71427d1e84f3dd0314c0f7b2291e5b200ac8c7c3b92560405160405180910390a45050565b826001600160a01b03166118bd82610a01565b6001600160a01b0316146119215760405162461bcd60e51b815260206004820152602560248201527f4552433732313a207472616e736665722066726f6d20696e636f72726563742060448201526437bbb732b960d91b60648201526084016105e2565b5f90815260026020526040902080546001600160a01b0319166001600160a01b039290921691909117905550565b6001600160a01b03831661057c576006805461010090046001600160801b031690600161197b836123b7565b91906101000a8154816001600160801b0302191690836001600160801b0316021790555050505050565b816001600160a01b0316836001600160a01b031603611a065760405162461bcd60e51b815260206004820152601960248201527f4552433732313a20617070726f766520746f2063616c6c65720000000000000060448201526064016105e2565b6001600160a01b038381165f81815260046020908152604080832094871680845294825291829020805460ff191686151590811790915591519182527f17307eab39ab6107e8899845ad3d59bd9653f200f220920489ca2b5937696c3191016109f4565b6001600160e01b031981168114610e0d575f80fd5b5f60208284031215611a8f575f80fd5b8135611a9a81611a6a565b9392505050565b5f5b83811015611abb578181015183820152602001611aa3565b50505f910152565b5f8151808452611ada816020860160208601611aa1565b601f01601f19169290920160200192915050565b602081525f611a9a6020830184611ac3565b5f60208284031215611b10575f80fd5b5035919050565b80356001600160a01b0381168114611b2d575f80fd5b919050565b5f8060408385031215611b43575f80fd5b611b4c83611b17565b946020939093013593505050565b5f805f60608486031215611b6c575f80fd5b611b7584611b17565b9250611b8360208501611b17565b9150604084013590509250925092565b5f8060208385031215611ba4575f80fd5b82356001600160401b0380821115611bba575f80fd5b818501915085601f830112611bcd575f80fd5b813581811115611bdb575f80fd5b866020828501011115611bec575f80fd5b60209290920196919550909350505050565b5f60208284031215611c0e575f80fd5b611a9a82611b17565b5f8060408385031215611c28575f80fd5b611c3183611b17565b915060208301358015158114611c45575f80fd5b809150509250929050565b634e487b7160e01b5f52604160045260245ffd5b5f805f8060808587031215611c77575f80fd5b611c8085611b17565b9350611c8e60208601611b17565b92506040850135915060608501356001600160401b0380821115611cb0575f80fd5b818701915087601f830112611cc3575f80fd5b813581811115611cd557611cd5611c50565b604051601f8201601f19908116603f01168101908382118183101715611cfd57611cfd611c50565b816040528281528a6020848701011115611d15575f80fd5b826020860160208301375f60208483010152809550505050505092959194509250565b5f8060408385031215611d49575f80fd5b611d5283611b17565b9150611d6060208401611b17565b90509250929050565b600181811c90821680611d7d57607f821691505b602082108103611d9b57634e487b7160e01b5f52602260045260245ffd5b50919050565b6020808252602e908201527f4552433732313a2063616c6c6572206973206e6f7420746f6b656e206f776e6560408201526d1c881b9bdc88185c1c1c9bdd995960921b606082015260800190565b6020808252601c908201527f4e6f7420737570706f72742045524337323120616e79206d6f72652e00000000604082015260600190565b818382375f9101908152919050565b634e487b7160e01b5f52601160045260245ffd5b8082018082111561049e5761049e611e35565b7f646174613a746578742f706c61696e3b636861727365743d7574662d3800000081528183601d8301375f9101601d01908152919050565b60208082526032908201527f4552433732313a207472616e7366657220746f206e6f6e20455243373231526560408201527131b2b4bb32b91034b6b83632b6b2b73a32b960711b606082015260800190565b5f83516020611ef9828560208901611aa1565b81840191505f8554611f0a81611d69565b60018281168015611f225760018114611f3757611f61565b60ff1984168752821515830287019450611f61565b895f5260205f205f5b84811015611f5957815489820152908301908701611f40565b505082870194505b50507f222c3c2f746578743e3c7465787420783d223133302220793d22313930222063835250507f6c6173733d2262617365223e227469636b223a2254455354222c3c2f7465787460208201527f3e3c7465787420783d223133302220793d223232302220636c6173733d22626160408201526939b2911f1130b6ba111d60b11b6060820152606a019695505050505050565b5f8351612005818460208801611aa1565b835190830190612019818360208801611aa1565b7f3c2f746578743e3c7465787420783d223130302220793d223235302220636c6191019081527f73733d2262617365223e7d3c2f746578743e3c2f7376673e00000000000000006020820152603801949350505050565b7f7b226465736372697074696f6e223a202254455354494e472e222c2022696d6181527f6765223a2022646174613a696d6167652f7376672b786d6c3b6261736536342c60208201525f82516120cd816040850160208701611aa1565b61227d60f01b6040939091019283015250604201919050565b7f646174613a6170706c69636174696f6e2f6a736f6e3b6261736536342c00000081525f825161211d81601d850160208701611aa1565b91909101601d0192915050565b8181038181111561049e5761049e611e35565b7f7b2270223a22696e732d3230222c226f70223a227472616e73666572222c227481527234b1b5911d112a22a9aa11161130b6ba111d1160691b60208201525f8251612190816033850160208701611aa1565b61227d60f01b6033939091019283015250603501919050565b7f646174613a746578742f706c61696e3b636861727365743d7574662d3800000081525f825161211d81601d850160208701611aa1565b601f82111561057c57805f5260205f20601f840160051c810160208510156122055750805b601f840160051c820191505b818110156113c6575f8155600101612211565b81516001600160401b0381111561223d5761223d611c50565b6122518161224b8454611d69565b846121e0565b602080601f831160018114612284575f841561226d5750858301515b5f19600386901b1c1916600185901b1785556122db565b5f85815260208120601f198616915b828110156122b257888601518255948401946001909101908401612293565b50858210156122cf57878501515f19600388901b60f8161c191681555b505060018460011b0185555b505050505050565b6001600160a01b03858116825284166020820152604081018390526080606082018190525f9061231590830184611ac3565b9695505050505050565b5f6020828403121561232f575f80fd5b8151611a9a81611a6a565b5f6001820161234b5761234b611e35565b5060010190565b634e487b7160e01b5f52601260045260245ffd5b5f8261237457612374612352565b500490565b5f8261238757612387612352565b500690565b634e487b7160e01b5f52603260045260245ffd5b808202811582820484141761049e5761049e611e35565b5f6001600160801b038083168181036123d2576123d2611e35565b600101939250505056fe3c73766720786d6c6e733d22687474703a2f2f7777772e77332e6f72672f323030302f73766722207072657365727665417370656374526174696f3d22784d696e594d696e206d656574222076696577426f783d223020302033353020333530223e203c7374796c653e2e62617365207b2066696c6c3a2077686974653b20666f6e742d66616d696c793a2073657269663b20666f6e742d73697a653a20313470783b207d3c2f7374796c653e3c726563742077696474683d223130302522206865696768743d2231303025222066696c6c3d22626c61636b22202f3e3c7465787420783d223130302220793d223130302220636c6173733d2262617365223e7b3c2f746578743e3c7465787420783d223133302220793d223133302220636c6173733d2262617365223e2270223a22696e732d3230222c3c2f746578743e3c7465787420783d223133302220793d223136302220636c6173733d2262617365223e226f70223a224142434445464748494a4b4c4d4e4f505152535455565758595a6162636465666768696a6b6c6d6e6f707172737475767778797a303132333435363738392b2fa2646970667358221220cc4f1a18534d1d2a1998780ab8c6a715edc9fca7960587d1d1c80039deb75bcc64736f6c63430008180033",
  "linkReferences": {},
  "deployedLinkReferences": {}
}