{
  "_format": "hh-sol-artifact-1",
  "contractName": "TokenNFTBridge",
  "sourceName": "contracts/token-nft/TokenNFTBridge.sol",
  "abi": [
    {
      "inputs": [
        {
          "internalType": "address",
          "name": "tokenAddr",
          "type": "address"
        },
        {
          "internalType": "address",
          "name": "nftAddr",
          "type": "address"
        },
        {
          "internalType": "uint256",
          "name": "_price",
          "type": "uint256"
        }
      ],
      "stateMutability": "nonpayable",
      "type": "constructor"
    },
    {
      "inputs": [
        {
          "internalType": "uint256[]",
          "name": "tokenIds",
          "type": "uint256[]"
        }
      ],
      "name": "NFTsToToken",
      "outputs": [],
      "stateMutability": "nonpayable",
      "type": "function"
    },
    {
      "inputs": [],
      "name": "nft",
      "outputs": [
        {
          "internalType": "contract IERC721",
          "name": "",
          "type": "address"
        }
      ],
      "stateMutability": "view",
      "type": "function"
    },
    {
      "inputs": [],
      "name": "price",
      "outputs": [
        {
          "internalType": "uint256",
          "name": "",
          "type": "uint256"
        }
      ],
      "stateMutability": "view",
      "type": "function"
    },
    {
      "inputs": [],
      "name": "token",
      "outputs": [
        {
          "internalType": "contract IERC20",
          "name": "",
          "type": "address"
        }
      ],
      "stateMutability": "view",
      "type": "function"
    },
    {
      "inputs": [
        {
          "internalType": "uint256[]",
          "name": "tokenIds",
          "type": "uint256[]"
        }
      ],
      "name": "tokenToNFTs",
      "outputs": [],
      "stateMutability": "nonpayable",
      "type": "function"
    }
  ],
  "bytecode": "0x60e060405234801561000f575f80fd5b5060405161062438038061062483398101604081905261002e91610064565b6001600160a01b03928316608052911660a05260c05261009d565b80516001600160a01b038116811461005f575f80fd5b919050565b5f805f60608486031215610076575f80fd5b61007f84610049565b925061008d60208501610049565b9150604084015190509250925092565b60805160a05160c0516105366100ee5f395f818160ca0152818161020f01526102db01525f8181605e0152818161017501526103ca01525f818160ff015281816101e401526102af01526105365ff3fe608060405234801561000f575f80fd5b5060043610610055575f3560e01c806347ccca021461005957806357af3fd61461009d57806362c8d70b146100b2578063a035b1fe146100c5578063fc0c546a146100fa575b5f80fd5b6100807f000000000000000000000000000000000000000000000000000000000000000081565b6040516001600160a01b0390911681526020015b60405180910390f35b6100b06100ab36600461042e565b610121565b005b6100b06100c036600461042e565b6102a5565b6100ec7f000000000000000000000000000000000000000000000000000000000000000081565b604051908152602001610094565b6100807f000000000000000000000000000000000000000000000000000000000000000081565b5f5b818110156101d9575f83838381811061013e5761013e61049d565b6040516323b872dd60e01b815233600482015230602482015260209091029290920135604483018190529250506001600160a01b037f000000000000000000000000000000000000000000000000000000000000000016906323b872dd906064015f604051808303815f87803b1580156101b6575f80fd5b505af11580156101c8573d5f803e3d5ffd5b505060019093019250610123915050565b506001600160a01b037f00000000000000000000000000000000000000000000000000000000000000001663a9059cbb336102347f0000000000000000000000000000000000000000000000000000000000000000856104b1565b6040516001600160e01b031960e085901b1681526001600160a01b03909216600483015260248201526044016020604051808303815f875af115801561027c573d5f803e3d5ffd5b505050506040513d601f19601f820116820180604052508101906102a091906104da565b505050565b6001600160a01b037f0000000000000000000000000000000000000000000000000000000000000000166323b872dd33306103007f0000000000000000000000000000000000000000000000000000000000000000866104b1565b6040516001600160e01b031960e086901b1681526001600160a01b03938416600482015292909116602483015260448201526064016020604051808303815f875af1158015610351573d5f803e3d5ffd5b505050506040513d601f19601f8201168201806040525081019061037591906104da565b505f5b818110156102a0575f8383838181106103935761039361049d565b6040516323b872dd60e01b815230600482015233602482015260209091029290920135604483018190529250506001600160a01b037f000000000000000000000000000000000000000000000000000000000000000016906323b872dd906064015f604051808303815f87803b15801561040b575f80fd5b505af115801561041d573d5f803e3d5ffd5b505060019093019250610378915050565b5f806020838503121561043f575f80fd5b823567ffffffffffffffff80821115610456575f80fd5b818501915085601f830112610469575f80fd5b813581811115610477575f80fd5b8660208260051b850101111561048b575f80fd5b60209290920196919550909350505050565b634e487b7160e01b5f52603260045260245ffd5b80820281158282048414176104d457634e487b7160e01b5f52601160045260245ffd5b92915050565b5f602082840312156104ea575f80fd5b815180151581146104f9575f80fd5b939250505056fea2646970667358221220c996993433b0d3bf0f3c5d0b48c69932edd40994292b2c39da7ba3017d4bd8eb64736f6c63430008180033",
  "linkReferences": {},
  "deployedLinkReferences": {}
}