{
  "_format": "hh-sol-artifact-1",
  "contractName": "PublicSocialRecovery",
  "sourceName": "contracts/wallet/PublicSocialRecovery.sol",
  "abi": [
    {
      "inputs": [],
      "stateMutability": "nonpayable",
      "type": "constructor"
    },
    {
      "anonymous": false,
      "inputs": [
        {
          "indexed": true,
          "internalType": "address",
          "name": "smartWallet",
          "type": "address"
        },
        {
          "indexed": false,
          "internalType": "address",
          "name": "approver",
          "type": "address"
        },
        {
          "indexed": false,
          "internalType": "bytes32",
          "name": "proposal",
          "type": "bytes32"
        }
      ],
      "name": "AddApprove",
      "type": "event"
    },
    {
      "anonymous": false,
      "inputs": [
        {
          "indexed": true,
          "internalType": "address",
          "name": "smartWallet",
          "type": "address"
        },
        {
          "indexed": false,
          "internalType": "address",
          "name": "guardian",
          "type": "address"
        },
        {
          "indexed": false,
          "internalType": "bytes32",
          "name": "proposal",
          "type": "bytes32"
        }
      ],
      "name": "AddGuardian",
      "type": "event"
    },
    {
      "anonymous": false,
      "inputs": [
        {
          "indexed": true,
          "internalType": "address",
          "name": "smartWallet",
          "type": "address"
        },
        {
          "indexed": false,
          "internalType": "address",
          "name": "rejecter",
          "type": "address"
        },
        {
          "indexed": false,
          "internalType": "bytes32",
          "name": "proposal",
          "type": "bytes32"
        }
      ],
      "name": "AddReject",
      "type": "event"
    },
    {
      "anonymous": false,
      "inputs": [
        {
          "indexed": true,
          "internalType": "address",
          "name": "smartWallet",
          "type": "address"
        },
        {
          "indexed": false,
          "internalType": "address",
          "name": "executor",
          "type": "address"
        },
        {
          "indexed": false,
          "internalType": "bytes32",
          "name": "proposal",
          "type": "bytes32"
        }
      ],
      "name": "AdoptProposal",
      "type": "event"
    },
    {
      "anonymous": false,
      "inputs": [
        {
          "indexed": true,
          "internalType": "address",
          "name": "smartWallet",
          "type": "address"
        },
        {
          "indexed": false,
          "internalType": "address",
          "name": "proposer",
          "type": "address"
        },
        {
          "indexed": false,
          "internalType": "bytes32",
          "name": "proposal",
          "type": "bytes32"
        }
      ],
      "name": "NewProposal",
      "type": "event"
    },
    {
      "anonymous": false,
      "inputs": [
        {
          "indexed": true,
          "internalType": "address",
          "name": "smartWallet",
          "type": "address"
        },
        {
          "indexed": false,
          "internalType": "address",
          "name": "executor",
          "type": "address"
        },
        {
          "indexed": false,
          "internalType": "bytes32",
          "name": "proposal",
          "type": "bytes32"
        }
      ],
      "name": "RejectProposal",
      "type": "event"
    },
    {
      "anonymous": false,
      "inputs": [
        {
          "indexed": true,
          "internalType": "address",
          "name": "smartWallet",
          "type": "address"
        },
        {
          "indexed": false,
          "internalType": "address",
          "name": "guardian",
          "type": "address"
        },
        {
          "indexed": false,
          "internalType": "bytes32",
          "name": "proposal",
          "type": "bytes32"
        }
      ],
      "name": "RemoveGuardian",
      "type": "event"
    },
    {
      "anonymous": false,
      "inputs": [
        {
          "indexed": true,
          "internalType": "address",
          "name": "smartWallet",
          "type": "address"
        },
        {
          "indexed": false,
          "internalType": "uint8",
          "name": "num",
          "type": "uint8"
        },
        {
          "indexed": false,
          "internalType": "bytes32",
          "name": "proposal",
          "type": "bytes32"
        }
      ],
      "name": "UpdateNeedGuardiansNum",
      "type": "event"
    },
    {
      "inputs": [
        {
          "internalType": "address",
          "name": "smartWallet",
          "type": "address"
        }
      ],
      "name": "getGroup",
      "outputs": [
        {
          "components": [
            {
              "internalType": "address",
              "name": "smartWallet",
              "type": "address"
            },
            {
              "internalType": "address[]",
              "name": "guardians",
              "type": "address[]"
            },
            {
              "internalType": "uint8",
              "name": "needGuardiansNum",
              "type": "uint8"
            },
            {
              "internalType": "address[]",
              "name": "approvedGuardians",
              "type": "address[]"
            },
            {
              "internalType": "address[]",
              "name": "rejectedGuardians",
              "type": "address[]"
            },
            {
              "internalType": "bytes32",
              "name": "proposal",
              "type": "bytes32"
            },
            {
              "internalType": "bool",
              "name": "exist",
              "type": "bool"
            }
          ],
          "internalType": "struct PublicSocialRecovery.Group",
          "name": "",
          "type": "tuple"
        }
      ],
      "stateMutability": "view",
      "type": "function"
    },
    {
      "inputs": [
        {
          "internalType": "address",
          "name": "",
          "type": "address"
        }
      ],
      "name": "groups",
      "outputs": [
        {
          "internalType": "address",
          "name": "smartWallet",
          "type": "address"
        },
        {
          "internalType": "uint8",
          "name": "needGuardiansNum",
          "type": "uint8"
        },
        {
          "internalType": "bytes32",
          "name": "proposal",
          "type": "bytes32"
        },
        {
          "internalType": "bool",
          "name": "exist",
          "type": "bool"
        }
      ],
      "stateMutability": "view",
      "type": "function"
    },
    {
      "inputs": [
        {
          "internalType": "address",
          "name": "smartWallet",
          "type": "address"
        },
        {
          "internalType": "bytes32",
          "name": "proposal",
          "type": "bytes32"
        }
      ],
      "name": "propose",
      "outputs": [],
      "stateMutability": "nonpayable",
      "type": "function"
    },
    {
      "inputs": [
        {
          "internalType": "address[]",
          "name": "guardians",
          "type": "address[]"
        },
        {
          "internalType": "uint8",
          "name": "needGuardiansNum",
          "type": "uint8"
        }
      ],
      "name": "setGroup",
      "outputs": [],
      "stateMutability": "nonpayable",
      "type": "function"
    }
  ],
  "bytecode": "0x608060405234801561000f575f80fd5b506112c58061001d5f395ff3fe608060405234801561000f575f80fd5b506004361061004a575f3560e01c8063266dd7fe1461004e57806353adce211461006357806363d5e44d1461008c57806369576c3d146100ff575b5f80fd5b61006161005c366004611040565b610112565b005b6100766100713660046110df565b61031e565b6040516100839190611142565b60405180910390f35b6100d161009a3660046110df565b5f6020819052908152604090208054600282015460058301546006909301546001600160a01b039092169260ff9182169290911684565b604080516001600160a01b03909516855260ff90931660208501529183015215156060820152608001610083565b61006161010d3660046111e1565b6104c9565b335f9081526020819052604090206006015460ff16156101795760405162461bcd60e51b815260206004820152601d60248201527f73657447726f75703a2067726f757020616c726561647920657869737400000060448201526064015b60405180910390fd5b5f8160ff1611801561018e575060ff81168210155b6101da5760405162461bcd60e51b815260206004820181905260248201527f73657447726f75703a206e656564477561726469616e734e756d206572726f726044820152606401610170565b6040518060e00160405280336001600160a01b031681526020018484808060200260200160405190810160405280939291908181526020018383602002808284375f92018290525093855250505060ff84166020808401919091526040805183815280830182528185015280518381528083018252606085015260808401839052600160a0909401849052338352828252909120835181546001600160a01b0319166001600160a01b0390911617815583820151805191936102a29390850192910190610fc9565b50604082015160028201805460ff191660ff909216919091179055606082015180516102d8916003840191602090910190610fc9565b50608082015180516102f4916004840191602090910190610fc9565b5060a0820151600582015560c0909101516006909101805460ff1916911515919091179055505050565b6040805160e0810182525f808252606060208301819052928201819052828201839052608082019290925260a0810182905260c08101919091526001600160a01b038083165f9081526020818152604091829020825160e081018452815490941684526001810180548451818502810185019095528085529193858401939092908301828280156103d657602002820191905f5260205f20905b81546001600160a01b031681526001909101906020018083116103b8575b5050509183525050600282015460ff16602080830191909152600383018054604080518285028101850182528281529401939283018282801561044057602002820191905f5260205f20905b81546001600160a01b03168152600190910190602001808311610422575b50505050508152602001600482018054806020026020016040519081016040528092919081815260200182805480156104a057602002820191905f5260205f20905b81546001600160a01b03168152600190910190602001808311610482575b50505091835250506005820154602082015260069091015460ff16151560409091015292915050565b6001600160a01b0382165f90815260208190526040812090805b600183015460ff8216101561054657336001600160a01b0316836001018260ff168154811061051457610514611209565b5f918252602090912001546001600160a01b0316036105365760019150610546565b61053f81611231565b90506104e3565b50806105945760405162461bcd60e51b815260206004820181905260248201527f70726f706f73653a20796f75277265206e6f742074686520477561726469616e6044820152606401610170565b5f5b600383015460ff8216101561063057336001600160a01b0316836003018260ff16815481106105c7576105c7611209565b5f918252602090912001546001600160a01b0316036106205760405162461bcd60e51b81526020600482015260156024820152741c1c9bdc1bdcd94e88191bdb89dd081c995c19585d605a1b6044820152606401610170565b61062981611231565b9050610596565b505f5b600483015460ff821610156106cd57336001600160a01b0316836004018260ff168154811061066457610664611209565b5f918252602090912001546001600160a01b0316036106bd5760405162461bcd60e51b81526020600482015260156024820152741c1c9bdc1bdcd94e88191bdb89dd081c995c19585d605a1b6044820152606401610170565b6106c681611231565b9050610633565b831580156106dd57506005830154155b156107385760405162461bcd60e51b815260206004820152602560248201527f70726f706f73653a206e65772070726f706f73616c2063616e6e6f7420626520604482015264656d70747960d81b6064820152608401610170565b600283015460ff166001036107a1576005830184905561075783610a7f565b60408051338152602081018690526001600160a01b038716917f584def074676d98fcd7c6e1558d732527eed8f7277baf503f32971f9ab00075991015b60405180910390a2610a78565b60058301541580156107b257508315155b15610828576003830180546001810182555f9182526020918290200180546001600160a01b0319163390811790915560058501869055604080519182529181018690526001600160a01b038716917f584def074676d98fcd7c6e1558d732527eed8f7277baf503f32971f9ab0007599101610794565b83836005015414801561085357506002830154600384015460ff9091169061085190600161124f565b105b156108c2576003830180546001810182555f9182526020918290200180546001600160a01b03191633908117909155604080519182529181018690526001600160a01b038716917f9789ee15c281b0de031a41f8bf94352fb97a0e6ba93f31f98fbc917ce80f680a9101610794565b8383600501541480156108ee57506002830154600384015460ff909116906108eb90600161124f565b10155b15610901576108fc83610a7f565b610a78565b8383600501541415801561093a5750600283015460018401546109279160ff1690611268565b600484015461093790600161124f565b11155b156109a9576004830180546001810182555f9182526020918290200180546001600160a01b03191633908117909155604080519182529181018690526001600160a01b038716917fbb16c373393394a9be1d5d21d52448c97c88c59de0fed7ba8056715e385e9b749101610794565b838360050154141580156109e15750600283015460018401546109cf9160ff1690611268565b60048401546109df90600161124f565b115b15610a30576109ef83610c68565b60408051338152602081018690526001600160a01b038716917fd02b3861b428925478f8964763ebd50f1cf1fe0f9bc3b50ce2dbb617a3a14f399101610794565b60405162461bcd60e51b815260206004820152601860248201527f70726f706f73653a20736f6d657468696e672077726f6e6700000000000000006044820152606401610170565b5050505050565b6005810154610a8d82610c68565b60a081901c600103610afa57610aa38282610cc5565b610aac82610c68565b8154604080516001600160a01b03848116825260208201859052909216917ff95a23a6c3d745c5e9a253c4f1694de843f6127147eb80cb0475515529beb1af91015b60405180910390a25050565b60a081901c600203610b5f57610b108282610dac565b610b1982610c68565b8154604080516001600160a01b03848116825260208201859052909216917fed8c99bcb8759623f908a16a9134f2cc1210313c51aa874c636ef8085c6b7c399101610aee565b60a081901c600303610bc557610b758282610f44565b610b7e82610c68565b81546040805160ff84168152602081018490526001600160a01b03909216917f4a411c5aff76472e2f2fd71f0db7fc0bc59ae8f79d1bf2f1b46daa2b83e071ff9101610aee565b81546040516312a307c360e11b8152600481018390526001600160a01b03909116906325460f86906024015f604051808303815f87803b158015610c07575f80fd5b505af1158015610c19573d5f803e3d5ffd5b5050835460408051338152602081018690526001600160a01b0390921693507f545c32afa46184ca6e9763de43f75fe97ff16e785175f3e7259795f9a66614a692500160405180910390a25050565b600381015415610c9257604080515f8152602081019182905251610c90916003840191610fc9565b505b600481015415610cbc57604080515f8152602081019182905251610cba916004840191610fc9565b505b5f600590910155565b5f5b600183015460ff82161015610d2157816001600160a01b0316836001018260ff1681548110610cf857610cf8611209565b5f918252602090912001546001600160a01b031614610d2157610d1a81611231565b9050610cc7565b600183015460ff821603610d64576001808401805491820181555f908152602090200180546001600160a01b0384166001600160a01b0319909116179055505050565b60405162461bcd60e51b815260206004820152601a60248201527f616464477561726469616e3a20616c72656164792065786973740000000000006044820152606401610170565b5f5b600183015460ff82161015610e0857816001600160a01b0316836001018260ff1681548110610ddf57610ddf611209565b5f918252602090912001546001600160a01b031614610e0857610e0181611231565b9050610dae565b600183015460ff82161015610efc57600180840180549091610e2991611268565b81548110610e3957610e39611209565b5f918252602090912001546001840180546001600160a01b039092169160ff8416908110610e6957610e69611209565b905f5260205f20015f6101000a8154816001600160a01b0302191690836001600160a01b0316021790555082600101805480610ea757610ea761127b565b5f8281526020902081015f1990810180546001600160a01b03191690550190556002830154600184015460ff9091161115610ef757600183015460028401805460ff191660ff9092169190911790555b505050565b60405162461bcd60e51b815260206004820152601960248201527f72656d6f7665477561726469616e3a206e6f74206578697374000000000000006044820152606401610170565b5f8160ff16118015610f5d5750600182015460ff821611155b15610f775760028201805460ff191660ff83161790555050565b60405162461bcd60e51b815260206004820152602160248201527f7570646174654e656564477561726469616e734e756d3a206e756d206572726f6044820152603960f91b6064820152608401610170565b828054828255905f5260205f2090810192821561101c579160200282015b8281111561101c57825182546001600160a01b0319166001600160a01b03909116178255602090920191600190910190610fe7565b5061102892915061102c565b5090565b5b80821115611028575f815560010161102d565b5f805f60408486031215611052575f80fd5b833567ffffffffffffffff80821115611069575f80fd5b818601915086601f83011261107c575f80fd5b81358181111561108a575f80fd5b8760208260051b850101111561109e575f80fd5b6020928301955093505084013560ff811681146110b9575f80fd5b809150509250925092565b80356001600160a01b03811681146110da575f80fd5b919050565b5f602082840312156110ef575f80fd5b6110f8826110c4565b9392505050565b5f815180845260208085019450602084015f5b838110156111375781516001600160a01b031687529582019590820190600101611112565b509495945050505050565b602080825282516001600160a01b03168282015282015160e060408301525f906111706101008401826110ff565b905060ff60408501511660608401526060840151601f198085840301608086015261119b83836110ff565b925060808601519150808584030160a0860152506111b982826110ff565b91505060a084015160c084015260c08401516111d960e085018215159052565b509392505050565b5f80604083850312156111f2575f80fd5b6111fb836110c4565b946020939093013593505050565b634e487b7160e01b5f52603260045260245ffd5b634e487b7160e01b5f52601160045260245ffd5b5f60ff821660ff81036112465761124661121d565b60010192915050565b808201808211156112625761126261121d565b92915050565b818103818111156112625761126261121d565b634e487b7160e01b5f52603160045260245ffdfea2646970667358221220199c27251670f63272aa2ac44bdfa63b61a77a59730b79f3074cda10150ae3c964736f6c63430008180033",
  "linkReferences": {},
  "deployedLinkReferences": {}
}