{
  "_format": "hh-sol-artifact-1",
  "contractName": "PublicSocialRecovery",
  "sourceName": "contracts/wallet/PublicSocialRecovery.sol",
  "abi": [
    {
      "inputs": [],
      "stateMutability": "nonpayable",
      "type": "constructor"
    },
    {
      "anonymous": false,
      "inputs": [
        {
          "indexed": true,
          "internalType": "address",
          "name": "smartWallet",
          "type": "address"
        },
        {
          "indexed": false,
          "internalType": "address",
          "name": "approver",
          "type": "address"
        },
        {
          "indexed": false,
          "internalType": "bytes32",
          "name": "proposal",
          "type": "bytes32"
        }
      ],
      "name": "AddApprove",
      "type": "event"
    },
    {
      "anonymous": false,
      "inputs": [
        {
          "indexed": true,
          "internalType": "address",
          "name": "smartWallet",
          "type": "address"
        },
        {
          "indexed": false,
          "internalType": "address",
          "name": "guardian",
          "type": "address"
        },
        {
          "indexed": false,
          "internalType": "bytes32",
          "name": "proposal",
          "type": "bytes32"
        }
      ],
      "name": "AddGuardian",
      "type": "event"
    },
    {
      "anonymous": false,
      "inputs": [
        {
          "indexed": true,
          "internalType": "address",
          "name": "smartWallet",
          "type": "address"
        },
        {
          "indexed": false,
          "internalType": "address",
          "name": "rejecter",
          "type": "address"
        },
        {
          "indexed": false,
          "internalType": "bytes32",
          "name": "proposal",
          "type": "bytes32"
        }
      ],
      "name": "AddReject",
      "type": "event"
    },
    {
      "anonymous": false,
      "inputs": [
        {
          "indexed": true,
          "internalType": "address",
          "name": "smartWallet",
          "type": "address"
        },
        {
          "indexed": false,
          "internalType": "address",
          "name": "executor",
          "type": "address"
        },
        {
          "indexed": false,
          "internalType": "bytes32",
          "name": "proposal",
          "type": "bytes32"
        }
      ],
      "name": "AdoptProposal",
      "type": "event"
    },
    {
      "anonymous": false,
      "inputs": [
        {
          "indexed": true,
          "internalType": "address",
          "name": "smartWallet",
          "type": "address"
        },
        {
          "indexed": false,
          "internalType": "address",
          "name": "proposer",
          "type": "address"
        },
        {
          "indexed": false,
          "internalType": "bytes32",
          "name": "proposal",
          "type": "bytes32"
        }
      ],
      "name": "NewProposal",
      "type": "event"
    },
    {
      "anonymous": false,
      "inputs": [
        {
          "indexed": true,
          "internalType": "address",
          "name": "smartWallet",
          "type": "address"
        },
        {
          "indexed": false,
          "internalType": "address",
          "name": "executor",
          "type": "address"
        },
        {
          "indexed": false,
          "internalType": "bytes32",
          "name": "proposal",
          "type": "bytes32"
        }
      ],
      "name": "RejectProposal",
      "type": "event"
    },
    {
      "anonymous": false,
      "inputs": [
        {
          "indexed": true,
          "internalType": "address",
          "name": "smartWallet",
          "type": "address"
        },
        {
          "indexed": false,
          "internalType": "address",
          "name": "guardian",
          "type": "address"
        },
        {
          "indexed": false,
          "internalType": "bytes32",
          "name": "proposal",
          "type": "bytes32"
        }
      ],
      "name": "RemoveGuardian",
      "type": "event"
    },
    {
      "anonymous": false,
      "inputs": [
        {
          "indexed": true,
          "internalType": "address",
          "name": "smartWallet",
          "type": "address"
        },
        {
          "indexed": false,
          "internalType": "uint8",
          "name": "num",
          "type": "uint8"
        },
        {
          "indexed": false,
          "internalType": "bytes32",
          "name": "proposal",
          "type": "bytes32"
        }
      ],
      "name": "UpdateNeedGuardiansNum",
      "type": "event"
    },
    {
      "inputs": [
        {
          "internalType": "address",
          "name": "smartWallet",
          "type": "address"
        }
      ],
      "name": "getGroup",
      "outputs": [
        {
          "components": [
            {
              "internalType": "address",
              "name": "smartWallet",
              "type": "address"
            },
            {
              "internalType": "address[]",
              "name": "guardians",
              "type": "address[]"
            },
            {
              "internalType": "uint8",
              "name": "needGuardiansNum",
              "type": "uint8"
            },
            {
              "internalType": "address[]",
              "name": "approvedGuardians",
              "type": "address[]"
            },
            {
              "internalType": "address[]",
              "name": "rejectedGuardians",
              "type": "address[]"
            },
            {
              "internalType": "bytes32",
              "name": "proposal",
              "type": "bytes32"
            },
            {
              "internalType": "bool",
              "name": "exist",
              "type": "bool"
            }
          ],
          "internalType": "struct PublicSocialRecovery.Group",
          "name": "",
          "type": "tuple"
        }
      ],
      "stateMutability": "view",
      "type": "function"
    },
    {
      "inputs": [
        {
          "internalType": "address",
          "name": "",
          "type": "address"
        }
      ],
      "name": "groups",
      "outputs": [
        {
          "internalType": "address",
          "name": "smartWallet",
          "type": "address"
        },
        {
          "internalType": "uint8",
          "name": "needGuardiansNum",
          "type": "uint8"
        },
        {
          "internalType": "bytes32",
          "name": "proposal",
          "type": "bytes32"
        },
        {
          "internalType": "bool",
          "name": "exist",
          "type": "bool"
        }
      ],
      "stateMutability": "view",
      "type": "function"
    },
    {
      "inputs": [
        {
          "internalType": "address",
          "name": "smartWallet",
          "type": "address"
        },
        {
          "internalType": "bytes32",
          "name": "proposal",
          "type": "bytes32"
        }
      ],
      "name": "propose",
      "outputs": [],
      "stateMutability": "nonpayable",
      "type": "function"
    },
    {
      "inputs": [
        {
          "internalType": "address[]",
          "name": "guardians",
          "type": "address[]"
        },
        {
          "internalType": "uint8",
          "name": "needGuardiansNum",
          "type": "uint8"
        }
      ],
      "name": "setGroup",
      "outputs": [],
      "stateMutability": "nonpayable",
      "type": "function"
    }
  ],
  "bytecode": "0x608060405234801561001057600080fd5b5061130a806100206000396000f3fe608060405234801561001057600080fd5b506004361061004c5760003560e01c8063266dd7fe1461005157806353adce211461006657806363d5e44d1461008f57806369576c3d14610103575b600080fd5b61006461005f36600461106f565b610116565b005b610079610074366004611117565b610325565b604051610086919061117d565b60405180910390f35b6100d561009d366004611117565b60006020819052908152604090208054600282015460058301546006909301546001600160a01b039092169260ff9182169290911684565b604080516001600160a01b03909516855260ff90931660208501529183015215156060820152608001610086565b61006461011136600461121d565b6104d8565b3360009081526020819052604090206006015460ff161561017e5760405162461bcd60e51b815260206004820152601d60248201527f73657447726f75703a2067726f757020616c726561647920657869737400000060448201526064015b60405180910390fd5b60008160ff16118015610194575060ff81168210155b6101e05760405162461bcd60e51b815260206004820181905260248201527f73657447726f75703a206e656564477561726469616e734e756d206572726f726044820152606401610175565b6040518060e00160405280336001600160a01b03168152602001848480806020026020016040519081016040528093929190818152602001838360200280828437600092018290525093855250505060ff84166020808401919091526040805183815280830182528185015280518381528083018252606085015260808401839052600160a0909401849052338352828252909120835181546001600160a01b0319166001600160a01b0390911617815583820151805191936102a99390850192910190610ff5565b50604082015160028201805460ff191660ff909216919091179055606082015180516102df916003840191602090910190610ff5565b50608082015180516102fb916004840191602090910190610ff5565b5060a0820151600582015560c0909101516006909101805460ff1916911515919091179055505050565b6040805160e0810182526000808252606060208301819052928201819052828201839052608082019290925260a0810182905260c08101919091526001600160a01b0380831660009081526020818152604091829020825160e081018452815490941684526001810180548451818502810185019095528085529193858401939092908301828280156103e157602002820191906000526020600020905b81546001600160a01b031681526001909101906020018083116103c3575b5050509183525050600282015460ff16602080830191909152600383018054604080518285028101850182528281529401939283018282801561044d57602002820191906000526020600020905b81546001600160a01b0316815260019091019060200180831161042f575b50505050508152602001600482018054806020026020016040519081016040528092919081815260200182805480156104af57602002820191906000526020600020905b81546001600160a01b03168152600190910190602001808311610491575b50505091835250506005820154602082015260069091015460ff16151560409091015292915050565b6001600160a01b038216600090815260208190526040812090805b600183015460ff8216101561055757336001600160a01b0316836001018260ff168154811061052457610524611247565b6000918252602090912001546001600160a01b0316036105475760019150610557565b61055081611273565b90506104f3565b50806105a55760405162461bcd60e51b815260206004820181905260248201527f70726f706f73653a20796f75277265206e6f742074686520477561726469616e6044820152606401610175565b60005b600383015460ff8216101561064357336001600160a01b0316836003018260ff16815481106105d9576105d9611247565b6000918252602090912001546001600160a01b0316036106335760405162461bcd60e51b81526020600482015260156024820152741c1c9bdc1bdcd94e88191bdb89dd081c995c19585d605a1b6044820152606401610175565b61063c81611273565b90506105a8565b5060005b600483015460ff821610156106e257336001600160a01b0316836004018260ff168154811061067857610678611247565b6000918252602090912001546001600160a01b0316036106d25760405162461bcd60e51b81526020600482015260156024820152741c1c9bdc1bdcd94e88191bdb89dd081c995c19585d605a1b6044820152606401610175565b6106db81611273565b9050610647565b831580156106f257506005830154155b1561074d5760405162461bcd60e51b815260206004820152602560248201527f70726f706f73653a206e65772070726f706f73616c2063616e6e6f7420626520604482015264656d70747960d81b6064820152608401610175565b600283015460ff166001036107b6576005830184905561076c83610a97565b60408051338152602081018690526001600160a01b038716917f584def074676d98fcd7c6e1558d732527eed8f7277baf503f32971f9ab00075991015b60405180910390a2610a90565b60058301541580156107c757508315155b1561083e5760038301805460018101825560009182526020918290200180546001600160a01b0319163390811790915560058501869055604080519182529181018690526001600160a01b038716917f584def074676d98fcd7c6e1558d732527eed8f7277baf503f32971f9ab00075991016107a9565b83836005015414801561086957506002830154600384015460ff90911690610867906001611292565b105b156108d95760038301805460018101825560009182526020918290200180546001600160a01b03191633908117909155604080519182529181018690526001600160a01b038716917f9789ee15c281b0de031a41f8bf94352fb97a0e6ba93f31f98fbc917ce80f680a91016107a9565b83836005015414801561090557506002830154600384015460ff90911690610902906001611292565b10155b156109185761091383610a97565b610a90565b8383600501541415801561095157506002830154600184015461093e9160ff16906112ab565b600484015461094e906001611292565b11155b156109c15760048301805460018101825560009182526020918290200180546001600160a01b03191633908117909155604080519182529181018690526001600160a01b038716917fbb16c373393394a9be1d5d21d52448c97c88c59de0fed7ba8056715e385e9b7491016107a9565b838360050154141580156109f95750600283015460018401546109e79160ff16906112ab565b60048401546109f7906001611292565b115b15610a4857610a0783610c85565b60408051338152602081018690526001600160a01b038716917fd02b3861b428925478f8964763ebd50f1cf1fe0f9bc3b50ce2dbb617a3a14f3991016107a9565b60405162461bcd60e51b815260206004820152601860248201527f70726f706f73653a20736f6d657468696e672077726f6e6700000000000000006044820152606401610175565b5050505050565b6005810154610aa582610c85565b60a081901c600103610b1257610abb8282610ce5565b610ac482610c85565b8154604080516001600160a01b03848116825260208201859052909216917ff95a23a6c3d745c5e9a253c4f1694de843f6127147eb80cb0475515529beb1af91015b60405180910390a25050565b60a081901c600203610b7757610b288282610dcf565b610b3182610c85565b8154604080516001600160a01b03848116825260208201859052909216917fed8c99bcb8759623f908a16a9134f2cc1210313c51aa874c636ef8085c6b7c399101610b06565b60a081901c600303610bdd57610b8d8282610f6f565b610b9682610c85565b81546040805160ff84168152602081018490526001600160a01b03909216917f4a411c5aff76472e2f2fd71f0db7fc0bc59ae8f79d1bf2f1b46daa2b83e071ff9101610b06565b81546040516312a307c360e11b8152600481018390526001600160a01b03909116906325460f8690602401600060405180830381600087803b158015610c2257600080fd5b505af1158015610c36573d6000803e3d6000fd5b5050835460408051338152602081018690526001600160a01b0390921693507f545c32afa46184ca6e9763de43f75fe97ff16e785175f3e7259795f9a66614a692500160405180910390a25050565b600381015415610cb0576040805160008152602081019182905251610cae916003840191610ff5565b505b600481015415610cdb576040805160008152602081019182905251610cd9916004840191610ff5565b505b6000600590910155565b60005b600183015460ff82161015610d4357816001600160a01b0316836001018260ff1681548110610d1957610d19611247565b6000918252602090912001546001600160a01b031614610d4357610d3c81611273565b9050610ce8565b600183015460ff821603610d87576001808401805491820181556000908152602090200180546001600160a01b0384166001600160a01b0319909116179055505050565b60405162461bcd60e51b815260206004820152601a60248201527f616464477561726469616e3a20616c72656164792065786973740000000000006044820152606401610175565b60005b600183015460ff82161015610e2d57816001600160a01b0316836001018260ff1681548110610e0357610e03611247565b6000918252602090912001546001600160a01b031614610e2d57610e2681611273565b9050610dd2565b600183015460ff82161015610f2757600180840180549091610e4e916112ab565b81548110610e5e57610e5e611247565b6000918252602090912001546001840180546001600160a01b039092169160ff8416908110610e8f57610e8f611247565b9060005260206000200160006101000a8154816001600160a01b0302191690836001600160a01b0316021790555082600101805480610ed057610ed06112be565b600082815260209020810160001990810180546001600160a01b03191690550190556002830154600184015460ff9091161115610f2257600183015460028401805460ff191660ff9092169190911790555b505050565b60405162461bcd60e51b815260206004820152601960248201527f72656d6f7665477561726469616e3a206e6f74206578697374000000000000006044820152606401610175565b60008160ff16118015610f895750600182015460ff821611155b15610fa35760028201805460ff191660ff83161790555050565b60405162461bcd60e51b815260206004820152602160248201527f7570646174654e656564477561726469616e734e756d3a206e756d206572726f6044820152603960f91b6064820152608401610175565b82805482825590600052602060002090810192821561104a579160200282015b8281111561104a57825182546001600160a01b0319166001600160a01b03909116178255602090920191600190910190611015565b5061105692915061105a565b5090565b5b80821115611056576000815560010161105b565b60008060006040848603121561108457600080fd5b833567ffffffffffffffff8082111561109c57600080fd5b818601915086601f8301126110b057600080fd5b8135818111156110bf57600080fd5b8760208260051b85010111156110d457600080fd5b6020928301955093505084013560ff811681146110f057600080fd5b809150509250925092565b80356001600160a01b038116811461111257600080fd5b919050565b60006020828403121561112957600080fd5b611132826110fb565b9392505050565b600081518084526020808501945080840160005b838110156111725781516001600160a01b03168752958201959082019060010161114d565b509495945050505050565b602080825282516001600160a01b03168282015282015160e060408301526000906111ac610100840182611139565b905060ff60408501511660608401526060840151601f19808584030160808601526111d78383611139565b925060808601519150808584030160a0860152506111f58282611139565b91505060a084015160c084015260c084015161121560e085018215159052565b509392505050565b6000806040838503121561123057600080fd5b611239836110fb565b946020939093013593505050565b634e487b7160e01b600052603260045260246000fd5b634e487b7160e01b600052601160045260246000fd5b600060ff821660ff81036112895761128961125d565b60010192915050565b808201808211156112a5576112a561125d565b92915050565b818103818111156112a5576112a561125d565b634e487b7160e01b600052603160045260246000fdfea26469706673582212206b317b33ef5dd2fc9d5fd8f6f21ff3b93dafcb7d846abf567217de6535fe97ea64736f6c63430008120033",
  "linkReferences": {},
  "deployedLinkReferences": {}
}