{
  "_format": "hh-sol-artifact-1",
  "contractName": "AssetsCheck",
  "sourceName": "contracts/wallet/help/AssetsCheck.sol",
  "abi": [
    {
      "inputs": [],
      "stateMutability": "nonpayable",
      "type": "constructor"
    },
    {
      "inputs": [
        {
          "internalType": "address",
          "name": "wallet",
          "type": "address"
        },
        {
          "internalType": "uint256",
          "name": "value",
          "type": "uint256"
        }
      ],
      "name": "checkETHDecreaseEqualTo",
      "outputs": [],
      "stateMutability": "nonpayable",
      "type": "function"
    },
    {
      "inputs": [
        {
          "internalType": "address",
          "name": "wallet",
          "type": "address"
        },
        {
          "internalType": "uint256",
          "name": "value",
          "type": "uint256"
        }
      ],
      "name": "checkETHDecreaseGreaterEqualTo",
      "outputs": [],
      "stateMutability": "nonpayable",
      "type": "function"
    },
    {
      "inputs": [
        {
          "internalType": "address",
          "name": "wallet",
          "type": "address"
        },
        {
          "internalType": "uint256",
          "name": "value",
          "type": "uint256"
        }
      ],
      "name": "checkETHDecreaseLessEqualTo",
      "outputs": [],
      "stateMutability": "nonpayable",
      "type": "function"
    },
    {
      "inputs": [
        {
          "internalType": "address",
          "name": "wallet",
          "type": "address"
        },
        {
          "internalType": "uint256",
          "name": "value",
          "type": "uint256"
        }
      ],
      "name": "checkETHEqualTo",
      "outputs": [],
      "stateMutability": "view",
      "type": "function"
    },
    {
      "inputs": [
        {
          "internalType": "address",
          "name": "wallet",
          "type": "address"
        },
        {
          "internalType": "uint256",
          "name": "value",
          "type": "uint256"
        }
      ],
      "name": "checkETHGreaterEqualTo",
      "outputs": [],
      "stateMutability": "view",
      "type": "function"
    },
    {
      "inputs": [
        {
          "internalType": "address",
          "name": "wallet",
          "type": "address"
        },
        {
          "internalType": "uint256",
          "name": "value",
          "type": "uint256"
        }
      ],
      "name": "checkETHIncreaseEqualTo",
      "outputs": [],
      "stateMutability": "nonpayable",
      "type": "function"
    },
    {
      "inputs": [
        {
          "internalType": "address",
          "name": "wallet",
          "type": "address"
        },
        {
          "internalType": "uint256",
          "name": "value",
          "type": "uint256"
        }
      ],
      "name": "checkETHIncreaseGreaterEqualTo",
      "outputs": [],
      "stateMutability": "nonpayable",
      "type": "function"
    },
    {
      "inputs": [
        {
          "internalType": "address",
          "name": "wallet",
          "type": "address"
        },
        {
          "internalType": "uint256",
          "name": "value",
          "type": "uint256"
        }
      ],
      "name": "checkETHIncreaseLessEqualTo",
      "outputs": [],
      "stateMutability": "nonpayable",
      "type": "function"
    },
    {
      "inputs": [
        {
          "internalType": "address",
          "name": "wallet",
          "type": "address"
        },
        {
          "internalType": "uint256",
          "name": "value",
          "type": "uint256"
        }
      ],
      "name": "checkETHLessEqualTo",
      "outputs": [],
      "stateMutability": "view",
      "type": "function"
    },
    {
      "inputs": [
        {
          "internalType": "address",
          "name": "wallet",
          "type": "address"
        },
        {
          "internalType": "address",
          "name": "nftAddr",
          "type": "address"
        },
        {
          "internalType": "uint256",
          "name": "tokenId",
          "type": "uint256"
        }
      ],
      "name": "checkNotOwnNFT",
      "outputs": [],
      "stateMutability": "view",
      "type": "function"
    },
    {
      "inputs": [
        {
          "internalType": "address",
          "name": "wallet",
          "type": "address"
        },
        {
          "internalType": "address",
          "name": "nftAddr",
          "type": "address"
        },
        {
          "internalType": "uint256",
          "name": "tokenId",
          "type": "uint256"
        }
      ],
      "name": "checkOwnNFT",
      "outputs": [],
      "stateMutability": "view",
      "type": "function"
    },
    {
      "inputs": [
        {
          "internalType": "address",
          "name": "wallet",
          "type": "address"
        },
        {
          "internalType": "address",
          "name": "tokenAddr",
          "type": "address"
        },
        {
          "internalType": "uint256",
          "name": "value",
          "type": "uint256"
        }
      ],
      "name": "checkTokenDecreaseEqualTo",
      "outputs": [],
      "stateMutability": "nonpayable",
      "type": "function"
    },
    {
      "inputs": [
        {
          "internalType": "address",
          "name": "wallet",
          "type": "address"
        },
        {
          "internalType": "address",
          "name": "tokenAddr",
          "type": "address"
        },
        {
          "internalType": "uint256",
          "name": "value",
          "type": "uint256"
        }
      ],
      "name": "checkTokenDecreaseGreaterEqualTo",
      "outputs": [],
      "stateMutability": "nonpayable",
      "type": "function"
    },
    {
      "inputs": [
        {
          "internalType": "address",
          "name": "wallet",
          "type": "address"
        },
        {
          "internalType": "address",
          "name": "tokenAddr",
          "type": "address"
        },
        {
          "internalType": "uint256",
          "name": "value",
          "type": "uint256"
        }
      ],
      "name": "checkTokenDecreaseLessEqualTo",
      "outputs": [],
      "stateMutability": "nonpayable",
      "type": "function"
    },
    {
      "inputs": [
        {
          "internalType": "address",
          "name": "wallet",
          "type": "address"
        },
        {
          "internalType": "address",
          "name": "tokenAddr",
          "type": "address"
        },
        {
          "internalType": "uint256",
          "name": "value",
          "type": "uint256"
        }
      ],
      "name": "checkTokenEqualTo",
      "outputs": [],
      "stateMutability": "view",
      "type": "function"
    },
    {
      "inputs": [
        {
          "internalType": "address",
          "name": "wallet",
          "type": "address"
        },
        {
          "internalType": "address",
          "name": "tokenAddr",
          "type": "address"
        },
        {
          "internalType": "uint256",
          "name": "value",
          "type": "uint256"
        }
      ],
      "name": "checkTokenGreaterEqualTo",
      "outputs": [],
      "stateMutability": "view",
      "type": "function"
    },
    {
      "inputs": [
        {
          "internalType": "address",
          "name": "wallet",
          "type": "address"
        },
        {
          "internalType": "address",
          "name": "tokenAddr",
          "type": "address"
        },
        {
          "internalType": "uint256",
          "name": "value",
          "type": "uint256"
        }
      ],
      "name": "checkTokenIncreaseEqualTo",
      "outputs": [],
      "stateMutability": "nonpayable",
      "type": "function"
    },
    {
      "inputs": [
        {
          "internalType": "address",
          "name": "wallet",
          "type": "address"
        },
        {
          "internalType": "address",
          "name": "tokenAddr",
          "type": "address"
        },
        {
          "internalType": "uint256",
          "name": "value",
          "type": "uint256"
        }
      ],
      "name": "checkTokenIncreaseGreaterEqualTo",
      "outputs": [],
      "stateMutability": "nonpayable",
      "type": "function"
    },
    {
      "inputs": [
        {
          "internalType": "address",
          "name": "wallet",
          "type": "address"
        },
        {
          "internalType": "address",
          "name": "tokenAddr",
          "type": "address"
        },
        {
          "internalType": "uint256",
          "name": "value",
          "type": "uint256"
        }
      ],
      "name": "checkTokenIncreaseLessEqualTo",
      "outputs": [],
      "stateMutability": "nonpayable",
      "type": "function"
    },
    {
      "inputs": [
        {
          "internalType": "address",
          "name": "wallet",
          "type": "address"
        },
        {
          "internalType": "address",
          "name": "tokenAddr",
          "type": "address"
        },
        {
          "internalType": "uint256",
          "name": "value",
          "type": "uint256"
        }
      ],
      "name": "checkTokenLessEqualTo",
      "outputs": [],
      "stateMutability": "view",
      "type": "function"
    },
    {
      "inputs": [
        {
          "internalType": "address",
          "name": "wallet",
          "type": "address"
        }
      ],
      "name": "snapETH",
      "outputs": [],
      "stateMutability": "nonpayable",
      "type": "function"
    },
    {
      "inputs": [
        {
          "internalType": "address",
          "name": "wallet",
          "type": "address"
        },
        {
          "internalType": "address",
          "name": "tokenAddr",
          "type": "address"
        }
      ],
      "name": "snapToken",
      "outputs": [],
      "stateMutability": "nonpayable",
      "type": "function"
    },
    {
      "inputs": [
        {
          "internalType": "address",
          "name": "",
          "type": "address"
        }
      ],
      "name": "snappedETH",
      "outputs": [
        {
          "internalType": "uint256",
          "name": "",
          "type": "uint256"
        }
      ],
      "stateMutability": "view",
      "type": "function"
    },
    {
      "inputs": [
        {
          "internalType": "address",
          "name": "",
          "type": "address"
        },
        {
          "internalType": "uint256",
          "name": "",
          "type": "uint256"
        },
        {
          "internalType": "address",
          "name": "",
          "type": "address"
        }
      ],
      "name": "snappedNFT1155Balance",
      "outputs": [
        {
          "internalType": "uint256",
          "name": "",
          "type": "uint256"
        }
      ],
      "stateMutability": "view",
      "type": "function"
    },
    {
      "inputs": [
        {
          "internalType": "address",
          "name": "",
          "type": "address"
        },
        {
          "internalType": "address",
          "name": "",
          "type": "address"
        }
      ],
      "name": "snappedToken",
      "outputs": [
        {
          "internalType": "uint256",
          "name": "",
          "type": "uint256"
        }
      ],
      "stateMutability": "view",
      "type": "function"
    }
  ],
  "bytecode": "0x608060405234801561001057600080fd5b506116c6806100206000396000f3fe608060405234801561001057600080fd5b50600436106101735760003560e01c8063a1a855ff116100de578063cd8c432911610097578063f7277b5211610071578063f7277b521461035e578063f9448ec914610389578063fd26a7e91461039c578063fdacdcf5146103af57600080fd5b8063cd8c43291461030d578063da3fabbd14610320578063e331ad1c1461033357600080fd5b8063a1a855ff1461027d578063ac99f1d614610290578063bc984ef6146102c1578063c325046c146102d4578063c43e582d146102e7578063c828b8fd146102fa57600080fd5b80635893835311610130578063589383531461020b5780635f2099e91461021e5780637d7ba82e146102315780638a751a29146102445780639e978777146102575780639e9c834e1461026a57600080fd5b80630bf6a6be146101785780631e612cb81461018d57806332cb8c70146101a05780633aac4429146101b3578063435ce88c146101e55780634e3b4bb4146101f8575b600080fd5b61018b6101863660046114e3565b6103c2565b005b61018b61019b3660046114e3565b61049b565b61018b6101ae3660046114e3565b6104f9565b6101d36101c136600461150f565b60006020819052908152604090205481565b60405190815260200160405180910390f35b61018b6101f33660046114e3565b610549565b61018b610206366004611533565b6105a3565b61018b610219366004611533565b61065f565b61018b61022c366004611533565b61071a565b61018b61023f366004611533565b610876565b61018b6102523660046114e3565b610929565b61018b610265366004611533565b6109dc565b61018b6102783660046114e3565b610b12565b61018b61028b3660046114e3565b610bc5565b6101d361029e366004611574565b600260209081526000938452604080852082529284528284209052825290205481565b61018b6102cf366004611533565b610c85565b61018b6102e23660046115b6565b610dbe565b61018b6102f5366004611533565b610e53565b61018b6103083660046114e3565b610f8d565b61018b61031b3660046114e3565b611044565b61018b61032e366004611533565b6110ef565b61018b61034136600461150f565b6001600160a01b0316600081815260208190526040902090319055565b6101d361036c3660046115b6565b600160209081526000928352604080842090915290825290205481565b61018b610397366004611533565b6111a9565b61018b6103aa366004611533565b611264565b61018b6103bd366004611533565b61138e565b6001600160a01b03821660009081526020819052604090205482906104025760405162461bcd60e51b81526004016103f9906115ef565b60405180910390fd5b6001600160a01b03831660009081526020819052604090205461042690839061162e565b836001600160a01b031631111561047f5760405162461bcd60e51b815260206004820181905260248201527f636865636b455448496e6372656173654c657373457175616c546f206661696c60448201526064016103f9565b6001600160a01b03166000908152602081905260408120555050565b80826001600160a01b03163111156104f55760405162461bcd60e51b815260206004820152601860248201527f636865636b4554484c657373457175616c546f206661696c000000000000000060448201526064016103f9565b5050565b80826001600160a01b031631146104f55760405162461bcd60e51b815260206004820152601460248201527318da1958dad15512115c5d585b151bc819985a5b60621b60448201526064016103f9565b80826001600160a01b03163110156104f55760405162461bcd60e51b815260206004820152601b60248201527f636865636b45544847726561746572457175616c546f206661696c000000000060448201526064016103f9565b6040516331a9108f60e11b8152600481018290526001600160a01b038085169190841690636352211e90602401602060405180830381865afa1580156105ed573d6000803e3d6000fd5b505050506040513d601f19601f820116820180604052508101906106119190611647565b6001600160a01b03161461065a5760405162461bcd60e51b815260206004820152601060248201526f18da1958dad3dddb9391950819985a5b60821b60448201526064016103f9565b505050565b6040516370a0823160e01b81526001600160a01b0384811660048301528291908416906370a0823190602401602060405180830381865afa1580156106a8573d6000803e3d6000fd5b505050506040513d601f19601f820116820180604052508101906106cc9190611664565b111561065a5760405162461bcd60e51b815260206004820152601a60248201527f636865636b546f6b656e4c657373457175616c546f206661696c00000000000060448201526064016103f9565b6001600160a01b03808316600090815260016020908152604080832093871683529290522054839083906107605760405162461bcd60e51b81526004016103f9906115ef565b6001600160a01b0380851660009081526001602090815260408083209389168352929052205461079190849061162e565b6040516370a0823160e01b81526001600160a01b0387811660048301528616906370a0823190602401602060405180830381865afa1580156107d7573d6000803e3d6000fd5b505050506040513d601f19601f820116820180604052508101906107fb9190611664565b146108485760405162461bcd60e51b815260206004820152601e60248201527f636865636b546f6b656e496e637265617365457175616c546f206661696c000060448201526064016103f9565b6001600160a01b03908116600090815260016020908152604080832094909316825292909252812055505050565b6040516370a0823160e01b81526001600160a01b0384811660048301528291908416906370a0823190602401602060405180830381865afa1580156108bf573d6000803e3d6000fd5b505050506040513d601f19601f820116820180604052508101906108e39190611664565b1461065a5760405162461bcd60e51b815260206004820152601660248201527518da1958dad51bdad95b915c5d585b151bc819985a5b60521b60448201526064016103f9565b6001600160a01b03821660009081526020819052604090205482906109605760405162461bcd60e51b81526004016103f9906115ef565b6001600160a01b03831660009081526020819052604090205461098490839061167d565b836001600160a01b0316311461047f5760405162461bcd60e51b815260206004820152601c60248201527f636865636b4554484465637265617365457175616c546f206661696c0000000060448201526064016103f9565b6001600160a01b0380831660009081526001602090815260408083209387168352929052205483908390610a225760405162461bcd60e51b81526004016103f9906115ef565b6001600160a01b038481166000818152600160209081526040808320948a1680845294909152908190205490516370a0823160e01b81526004810193909352918591906370a0823190602401602060405180830381865afa158015610a8b573d6000803e3d6000fd5b505050506040513d601f19601f82011682018060405250810190610aaf9190611664565b610ab9919061162e565b10156108485760405162461bcd60e51b815260206004820152602260248201527f636865636b546f6b656e44656372656173654c657373457175616c546f2066616044820152611a5b60f21b60648201526084016103f9565b6001600160a01b0382166000908152602081905260409020548290610b495760405162461bcd60e51b81526004016103f9906115ef565b6001600160a01b038316600090815260208190526040902054610b6d90839061162e565b836001600160a01b0316311461047f5760405162461bcd60e51b815260206004820152601c60248201527f636865636b455448496e637265617365457175616c546f206661696c0000000060448201526064016103f9565b6001600160a01b0382166000908152602081905260409020548290610bfc5760405162461bcd60e51b81526004016103f9906115ef565b6001600160a01b038316600090815260208190526040902054610c2090839061162e565b836001600160a01b031631101561047f5760405162461bcd60e51b815260206004820152602360248201527f636865636b455448496e63726561736547726561746572457175616c546f2066604482015262185a5b60ea1b60648201526084016103f9565b6001600160a01b0380831660009081526001602090815260408083209387168352929052205483908390610ccb5760405162461bcd60e51b81526004016103f9906115ef565b6001600160a01b038481166000818152600160209081526040808320948a1680845294909152908190205490516370a0823160e01b81526004810193909352918591906370a0823190602401602060405180830381865afa158015610d34573d6000803e3d6000fd5b505050506040513d601f19601f82011682018060405250810190610d589190611664565b610d62919061162e565b11156108485760405162461bcd60e51b815260206004820152602560248201527f636865636b546f6b656e446563726561736547726561746572457175616c546f6044820152640819985a5b60da1b60648201526084016103f9565b6040516370a0823160e01b81526001600160a01b0383811660048301528216906370a0823190602401602060405180830381865afa158015610e04573d6000803e3d6000fd5b505050506040513d601f19601f82011682018060405250810190610e289190611664565b6001600160a01b03918216600090815260016020908152604080832095909416825293909352912055565b6001600160a01b0380831660009081526001602090815260408083209387168352929052205483908390610e995760405162461bcd60e51b81526004016103f9906115ef565b6001600160a01b03808516600090815260016020908152604080832093891683529290522054610eca90849061162e565b6040516370a0823160e01b81526001600160a01b0387811660048301528616906370a0823190602401602060405180830381865afa158015610f10573d6000803e3d6000fd5b505050506040513d601f19601f82011682018060405250810190610f349190611664565b11156108485760405162461bcd60e51b815260206004820152602260248201527f636865636b546f6b656e496e6372656173654c657373457175616c546f2066616044820152611a5b60f21b60648201526084016103f9565b6001600160a01b0382166000908152602081905260409020548290610fc45760405162461bcd60e51b81526004016103f9906115ef565b6001600160a01b03831660008181526020819052604090205490610fea9084903161162e565b111561047f5760405162461bcd60e51b815260206004820152602360248201527f636865636b455448446563726561736547726561746572457175616c546f2066604482015262185a5b60ea1b60648201526084016103f9565b6001600160a01b038216600090815260208190526040902054829061107b5760405162461bcd60e51b81526004016103f9906115ef565b6001600160a01b038316600081815260208190526040902054906110a19084903161162e565b101561047f5760405162461bcd60e51b815260206004820181905260248201527f636865636b45544844656372656173654c657373457175616c546f206661696c60448201526064016103f9565b6040516331a9108f60e11b8152600481018290526001600160a01b038085169190841690636352211e90602401602060405180830381865afa158015611139573d6000803e3d6000fd5b505050506040513d601f19601f8201168201806040525081019061115d9190611647565b6001600160a01b03160361065a5760405162461bcd60e51b815260206004820152601360248201527218da1958dad39bdd13dddb9391950819985a5b606a1b60448201526064016103f9565b6040516370a0823160e01b81526001600160a01b0384811660048301528291908416906370a0823190602401602060405180830381865afa1580156111f2573d6000803e3d6000fd5b505050506040513d601f19601f820116820180604052508101906112169190611664565b101561065a5760405162461bcd60e51b815260206004820152601d60248201527f636865636b546f6b656e47726561746572457175616c546f206661696c00000060448201526064016103f9565b6001600160a01b03808316600090815260016020908152604080832093871683529290522054839083906112aa5760405162461bcd60e51b81526004016103f9906115ef565b6001600160a01b038481166000818152600160209081526040808320948a1680845294909152908190205490516370a0823160e01b81526004810193909352918591906370a0823190602401602060405180830381865afa158015611313573d6000803e3d6000fd5b505050506040513d601f19601f820116820180604052508101906113379190611664565b611341919061162e565b146108485760405162461bcd60e51b815260206004820152601e60248201527f636865636b546f6b656e4465637265617365457175616c546f206661696c000060448201526064016103f9565b6001600160a01b03808316600090815260016020908152604080832093871683529290522054839083906113d45760405162461bcd60e51b81526004016103f9906115ef565b6001600160a01b0380851660009081526001602090815260408083209389168352929052205461140590849061162e565b6040516370a0823160e01b81526001600160a01b0387811660048301528616906370a0823190602401602060405180830381865afa15801561144b573d6000803e3d6000fd5b505050506040513d601f19601f8201168201806040525081019061146f9190611664565b10156108485760405162461bcd60e51b815260206004820152602560248201527f636865636b546f6b656e496e63726561736547726561746572457175616c546f6044820152640819985a5b60da1b60648201526084016103f9565b6001600160a01b03811681146114e057600080fd5b50565b600080604083850312156114f657600080fd5b8235611501816114cb565b946020939093013593505050565b60006020828403121561152157600080fd5b813561152c816114cb565b9392505050565b60008060006060848603121561154857600080fd5b8335611553816114cb565b92506020840135611563816114cb565b929592945050506040919091013590565b60008060006060848603121561158957600080fd5b8335611594816114cb565b92506020840135915060408401356115ab816114cb565b809150509250925092565b600080604083850312156115c957600080fd5b82356115d4816114cb565b915060208301356115e4816114cb565b809150509250929050565b6020808252600f908201526e1a185d995b89dd081cdb985c1c1959608a1b604082015260600190565b634e487b7160e01b600052601160045260246000fd5b8082018082111561164157611641611618565b92915050565b60006020828403121561165957600080fd5b815161152c816114cb565b60006020828403121561167657600080fd5b5051919050565b818103818111156116415761164161161856fea2646970667358221220389e61f37f2cf6889f445740e8948f1b097026c84122316284ba96c8343279ef64736f6c63430008120033",
  "linkReferences": {},
  "deployedLinkReferences": {}
}