{
  "_format": "hh-sol-artifact-1",
  "contractName": "AssetsCheck",
  "sourceName": "contracts/wallet/help/AssetsCheck.sol",
  "abi": [
    {
      "inputs": [],
      "stateMutability": "nonpayable",
      "type": "constructor"
    },
    {
      "inputs": [
        {
          "internalType": "address",
          "name": "wallet",
          "type": "address"
        },
        {
          "internalType": "uint256",
          "name": "value",
          "type": "uint256"
        }
      ],
      "name": "checkETHDecreaseEqualTo",
      "outputs": [],
      "stateMutability": "nonpayable",
      "type": "function"
    },
    {
      "inputs": [
        {
          "internalType": "address",
          "name": "wallet",
          "type": "address"
        },
        {
          "internalType": "uint256",
          "name": "value",
          "type": "uint256"
        }
      ],
      "name": "checkETHDecreaseGreaterEqualTo",
      "outputs": [],
      "stateMutability": "nonpayable",
      "type": "function"
    },
    {
      "inputs": [
        {
          "internalType": "address",
          "name": "wallet",
          "type": "address"
        },
        {
          "internalType": "uint256",
          "name": "value",
          "type": "uint256"
        }
      ],
      "name": "checkETHDecreaseLessEqualTo",
      "outputs": [],
      "stateMutability": "nonpayable",
      "type": "function"
    },
    {
      "inputs": [
        {
          "internalType": "address",
          "name": "wallet",
          "type": "address"
        },
        {
          "internalType": "uint256",
          "name": "value",
          "type": "uint256"
        }
      ],
      "name": "checkETHEqualTo",
      "outputs": [],
      "stateMutability": "view",
      "type": "function"
    },
    {
      "inputs": [
        {
          "internalType": "address",
          "name": "wallet",
          "type": "address"
        },
        {
          "internalType": "uint256",
          "name": "value",
          "type": "uint256"
        }
      ],
      "name": "checkETHGreaterEqualTo",
      "outputs": [],
      "stateMutability": "view",
      "type": "function"
    },
    {
      "inputs": [
        {
          "internalType": "address",
          "name": "wallet",
          "type": "address"
        },
        {
          "internalType": "uint256",
          "name": "value",
          "type": "uint256"
        }
      ],
      "name": "checkETHIncreaseEqualTo",
      "outputs": [],
      "stateMutability": "nonpayable",
      "type": "function"
    },
    {
      "inputs": [
        {
          "internalType": "address",
          "name": "wallet",
          "type": "address"
        },
        {
          "internalType": "uint256",
          "name": "value",
          "type": "uint256"
        }
      ],
      "name": "checkETHIncreaseGreaterEqualTo",
      "outputs": [],
      "stateMutability": "nonpayable",
      "type": "function"
    },
    {
      "inputs": [
        {
          "internalType": "address",
          "name": "wallet",
          "type": "address"
        },
        {
          "internalType": "uint256",
          "name": "value",
          "type": "uint256"
        }
      ],
      "name": "checkETHIncreaseLessEqualTo",
      "outputs": [],
      "stateMutability": "nonpayable",
      "type": "function"
    },
    {
      "inputs": [
        {
          "internalType": "address",
          "name": "wallet",
          "type": "address"
        },
        {
          "internalType": "uint256",
          "name": "value",
          "type": "uint256"
        }
      ],
      "name": "checkETHLessEqualTo",
      "outputs": [],
      "stateMutability": "view",
      "type": "function"
    },
    {
      "inputs": [
        {
          "internalType": "address",
          "name": "wallet",
          "type": "address"
        },
        {
          "internalType": "address",
          "name": "nftAddr",
          "type": "address"
        },
        {
          "internalType": "uint256",
          "name": "tokenId",
          "type": "uint256"
        }
      ],
      "name": "checkNotOwnNFT",
      "outputs": [],
      "stateMutability": "view",
      "type": "function"
    },
    {
      "inputs": [
        {
          "internalType": "address",
          "name": "wallet",
          "type": "address"
        },
        {
          "internalType": "address",
          "name": "nftAddr",
          "type": "address"
        },
        {
          "internalType": "uint256",
          "name": "tokenId",
          "type": "uint256"
        }
      ],
      "name": "checkOwnNFT",
      "outputs": [],
      "stateMutability": "view",
      "type": "function"
    },
    {
      "inputs": [
        {
          "internalType": "address",
          "name": "wallet",
          "type": "address"
        },
        {
          "internalType": "address",
          "name": "tokenAddr",
          "type": "address"
        },
        {
          "internalType": "uint256",
          "name": "value",
          "type": "uint256"
        }
      ],
      "name": "checkTokenDecreaseEqualTo",
      "outputs": [],
      "stateMutability": "nonpayable",
      "type": "function"
    },
    {
      "inputs": [
        {
          "internalType": "address",
          "name": "wallet",
          "type": "address"
        },
        {
          "internalType": "address",
          "name": "tokenAddr",
          "type": "address"
        },
        {
          "internalType": "uint256",
          "name": "value",
          "type": "uint256"
        }
      ],
      "name": "checkTokenDecreaseGreaterEqualTo",
      "outputs": [],
      "stateMutability": "nonpayable",
      "type": "function"
    },
    {
      "inputs": [
        {
          "internalType": "address",
          "name": "wallet",
          "type": "address"
        },
        {
          "internalType": "address",
          "name": "tokenAddr",
          "type": "address"
        },
        {
          "internalType": "uint256",
          "name": "value",
          "type": "uint256"
        }
      ],
      "name": "checkTokenDecreaseLessEqualTo",
      "outputs": [],
      "stateMutability": "nonpayable",
      "type": "function"
    },
    {
      "inputs": [
        {
          "internalType": "address",
          "name": "wallet",
          "type": "address"
        },
        {
          "internalType": "address",
          "name": "tokenAddr",
          "type": "address"
        },
        {
          "internalType": "uint256",
          "name": "value",
          "type": "uint256"
        }
      ],
      "name": "checkTokenEqualTo",
      "outputs": [],
      "stateMutability": "view",
      "type": "function"
    },
    {
      "inputs": [
        {
          "internalType": "address",
          "name": "wallet",
          "type": "address"
        },
        {
          "internalType": "address",
          "name": "tokenAddr",
          "type": "address"
        },
        {
          "internalType": "uint256",
          "name": "value",
          "type": "uint256"
        }
      ],
      "name": "checkTokenGreaterEqualTo",
      "outputs": [],
      "stateMutability": "view",
      "type": "function"
    },
    {
      "inputs": [
        {
          "internalType": "address",
          "name": "wallet",
          "type": "address"
        },
        {
          "internalType": "address",
          "name": "tokenAddr",
          "type": "address"
        },
        {
          "internalType": "uint256",
          "name": "value",
          "type": "uint256"
        }
      ],
      "name": "checkTokenIncreaseEqualTo",
      "outputs": [],
      "stateMutability": "nonpayable",
      "type": "function"
    },
    {
      "inputs": [
        {
          "internalType": "address",
          "name": "wallet",
          "type": "address"
        },
        {
          "internalType": "address",
          "name": "tokenAddr",
          "type": "address"
        },
        {
          "internalType": "uint256",
          "name": "value",
          "type": "uint256"
        }
      ],
      "name": "checkTokenIncreaseGreaterEqualTo",
      "outputs": [],
      "stateMutability": "nonpayable",
      "type": "function"
    },
    {
      "inputs": [
        {
          "internalType": "address",
          "name": "wallet",
          "type": "address"
        },
        {
          "internalType": "address",
          "name": "tokenAddr",
          "type": "address"
        },
        {
          "internalType": "uint256",
          "name": "value",
          "type": "uint256"
        }
      ],
      "name": "checkTokenIncreaseLessEqualTo",
      "outputs": [],
      "stateMutability": "nonpayable",
      "type": "function"
    },
    {
      "inputs": [
        {
          "internalType": "address",
          "name": "wallet",
          "type": "address"
        },
        {
          "internalType": "address",
          "name": "tokenAddr",
          "type": "address"
        },
        {
          "internalType": "uint256",
          "name": "value",
          "type": "uint256"
        }
      ],
      "name": "checkTokenLessEqualTo",
      "outputs": [],
      "stateMutability": "view",
      "type": "function"
    },
    {
      "inputs": [
        {
          "internalType": "address",
          "name": "wallet",
          "type": "address"
        }
      ],
      "name": "snapETH",
      "outputs": [],
      "stateMutability": "nonpayable",
      "type": "function"
    },
    {
      "inputs": [
        {
          "internalType": "address",
          "name": "wallet",
          "type": "address"
        },
        {
          "internalType": "address",
          "name": "tokenAddr",
          "type": "address"
        }
      ],
      "name": "snapToken",
      "outputs": [],
      "stateMutability": "nonpayable",
      "type": "function"
    },
    {
      "inputs": [
        {
          "internalType": "address",
          "name": "",
          "type": "address"
        }
      ],
      "name": "snappedETH",
      "outputs": [
        {
          "internalType": "uint256",
          "name": "",
          "type": "uint256"
        }
      ],
      "stateMutability": "view",
      "type": "function"
    },
    {
      "inputs": [
        {
          "internalType": "address",
          "name": "",
          "type": "address"
        },
        {
          "internalType": "uint256",
          "name": "",
          "type": "uint256"
        },
        {
          "internalType": "address",
          "name": "",
          "type": "address"
        }
      ],
      "name": "snappedNFT1155Balance",
      "outputs": [
        {
          "internalType": "uint256",
          "name": "",
          "type": "uint256"
        }
      ],
      "stateMutability": "view",
      "type": "function"
    },
    {
      "inputs": [
        {
          "internalType": "address",
          "name": "",
          "type": "address"
        },
        {
          "internalType": "address",
          "name": "",
          "type": "address"
        }
      ],
      "name": "snappedToken",
      "outputs": [
        {
          "internalType": "uint256",
          "name": "",
          "type": "uint256"
        }
      ],
      "stateMutability": "view",
      "type": "function"
    }
  ],
  "bytecode": "0x608060405234801561000f575f80fd5b506116758061001d5f395ff3fe608060405234801561000f575f80fd5b506004361061016d575f3560e01c8063a1a855ff116100d9578063cd8c432911610093578063f7277b521161006e578063f7277b5214610354578063f9448ec91461037e578063fd26a7e914610391578063fdacdcf5146103a4575f80fd5b8063cd8c432914610304578063da3fabbd14610317578063e331ad1c1461032a575f80fd5b8063a1a855ff14610275578063ac99f1d614610288578063bc984ef6146102b8578063c325046c146102cb578063c43e582d146102de578063c828b8fd146102f1575f80fd5b8063589383531161012a57806358938353146102035780635f2099e9146102165780637d7ba82e146102295780638a751a291461023c5780639e9787771461024f5780639e9c834e14610262575f80fd5b80630bf6a6be146101715780631e612cb81461018657806332cb8c70146101995780633aac4429146101ac578063435ce88c146101dd5780634e3b4bb4146101f0575b5f80fd5b61018461017f3660046114a4565b6103b7565b005b6101846101943660046114a4565b61048d565b6101846101a73660046114a4565b6104eb565b6101cb6101ba3660046114ce565b5f6020819052908152604090205481565b60405190815260200160405180910390f35b6101846101eb3660046114a4565b61053b565b6101846101fe3660046114f0565b610595565b6101846102113660046114f0565b61064f565b6101846102243660046114f0565b610708565b6101846102373660046114f0565b61085f565b61018461024a3660046114a4565b610910565b61018461025d3660046114f0565b6109c1565b6101846102703660046114a4565b610af3565b6101846102833660046114a4565b610ba4565b6101cb61029636600461152e565b600260209081525f938452604080852082529284528284209052825290205481565b6101846102c63660046114f0565b610c62565b6101846102d936600461156d565b610d97565b6101846102ec3660046114f0565b610e29565b6101846102ff3660046114a4565b610f5f565b6101846103123660046114a4565b611014565b6101846103253660046114f0565b6110bd565b6101846103383660046114ce565b6001600160a01b03165f81815260208190526040902090319055565b6101cb61036236600461156d565b600160209081525f928352604080842090915290825290205481565b61018461038c3660046114f0565b611175565b61018461039f3660046114f0565b61122e565b6101846103b23660046114f0565b611354565b6001600160a01b0382165f9081526020819052604090205482906103f65760405162461bcd60e51b81526004016103ed906115a4565b60405180910390fd5b6001600160a01b0383165f908152602081905260409020546104199083906115e1565b836001600160a01b03163111156104725760405162461bcd60e51b815260206004820181905260248201527f636865636b455448496e6372656173654c657373457175616c546f206661696c60448201526064016103ed565b6001600160a01b03165f908152602081905260408120555050565b80826001600160a01b03163111156104e75760405162461bcd60e51b815260206004820152601860248201527f636865636b4554484c657373457175616c546f206661696c000000000000000060448201526064016103ed565b5050565b80826001600160a01b031631146104e75760405162461bcd60e51b815260206004820152601460248201527318da1958dad15512115c5d585b151bc819985a5b60621b60448201526064016103ed565b80826001600160a01b03163110156104e75760405162461bcd60e51b815260206004820152601b60248201527f636865636b45544847726561746572457175616c546f206661696c000000000060448201526064016103ed565b6040516331a9108f60e11b8152600481018290526001600160a01b038085169190841690636352211e90602401602060405180830381865afa1580156105dd573d5f803e3d5ffd5b505050506040513d601f19601f8201168201806040525081019061060191906115fa565b6001600160a01b03161461064a5760405162461bcd60e51b815260206004820152601060248201526f18da1958dad3dddb9391950819985a5b60821b60448201526064016103ed565b505050565b6040516370a0823160e01b81526001600160a01b0384811660048301528291908416906370a0823190602401602060405180830381865afa158015610696573d5f803e3d5ffd5b505050506040513d601f19601f820116820180604052508101906106ba9190611615565b111561064a5760405162461bcd60e51b815260206004820152601a60248201527f636865636b546f6b656e4c657373457175616c546f206661696c00000000000060448201526064016103ed565b6001600160a01b038083165f908152600160209081526040808320938716835292905220548390839061074d5760405162461bcd60e51b81526004016103ed906115a4565b6001600160a01b038085165f9081526001602090815260408083209389168352929052205461077d9084906115e1565b6040516370a0823160e01b81526001600160a01b0387811660048301528616906370a0823190602401602060405180830381865afa1580156107c1573d5f803e3d5ffd5b505050506040513d601f19601f820116820180604052508101906107e59190611615565b146108325760405162461bcd60e51b815260206004820152601e60248201527f636865636b546f6b656e496e637265617365457175616c546f206661696c000060448201526064016103ed565b6001600160a01b039081165f90815260016020908152604080832094909316825292909252812055505050565b6040516370a0823160e01b81526001600160a01b0384811660048301528291908416906370a0823190602401602060405180830381865afa1580156108a6573d5f803e3d5ffd5b505050506040513d601f19601f820116820180604052508101906108ca9190611615565b1461064a5760405162461bcd60e51b815260206004820152601660248201527518da1958dad51bdad95b915c5d585b151bc819985a5b60521b60448201526064016103ed565b6001600160a01b0382165f9081526020819052604090205482906109465760405162461bcd60e51b81526004016103ed906115a4565b6001600160a01b0383165f9081526020819052604090205461096990839061162c565b836001600160a01b031631146104725760405162461bcd60e51b815260206004820152601c60248201527f636865636b4554484465637265617365457175616c546f206661696c0000000060448201526064016103ed565b6001600160a01b038083165f9081526001602090815260408083209387168352929052205483908390610a065760405162461bcd60e51b81526004016103ed906115a4565b6001600160a01b038481165f818152600160209081526040808320948a1680845294909152908190205490516370a0823160e01b81526004810193909352918591906370a0823190602401602060405180830381865afa158015610a6c573d5f803e3d5ffd5b505050506040513d601f19601f82011682018060405250810190610a909190611615565b610a9a91906115e1565b10156108325760405162461bcd60e51b815260206004820152602260248201527f636865636b546f6b656e44656372656173654c657373457175616c546f2066616044820152611a5b60f21b60648201526084016103ed565b6001600160a01b0382165f908152602081905260409020548290610b295760405162461bcd60e51b81526004016103ed906115a4565b6001600160a01b0383165f90815260208190526040902054610b4c9083906115e1565b836001600160a01b031631146104725760405162461bcd60e51b815260206004820152601c60248201527f636865636b455448496e637265617365457175616c546f206661696c0000000060448201526064016103ed565b6001600160a01b0382165f908152602081905260409020548290610bda5760405162461bcd60e51b81526004016103ed906115a4565b6001600160a01b0383165f90815260208190526040902054610bfd9083906115e1565b836001600160a01b03163110156104725760405162461bcd60e51b815260206004820152602360248201527f636865636b455448496e63726561736547726561746572457175616c546f2066604482015262185a5b60ea1b60648201526084016103ed565b6001600160a01b038083165f9081526001602090815260408083209387168352929052205483908390610ca75760405162461bcd60e51b81526004016103ed906115a4565b6001600160a01b038481165f818152600160209081526040808320948a1680845294909152908190205490516370a0823160e01b81526004810193909352918591906370a0823190602401602060405180830381865afa158015610d0d573d5f803e3d5ffd5b505050506040513d601f19601f82011682018060405250810190610d319190611615565b610d3b91906115e1565b11156108325760405162461bcd60e51b815260206004820152602560248201527f636865636b546f6b656e446563726561736547726561746572457175616c546f6044820152640819985a5b60da1b60648201526084016103ed565b6040516370a0823160e01b81526001600160a01b0383811660048301528216906370a0823190602401602060405180830381865afa158015610ddb573d5f803e3d5ffd5b505050506040513d601f19601f82011682018060405250810190610dff9190611615565b6001600160a01b039182165f90815260016020908152604080832095909416825293909352912055565b6001600160a01b038083165f9081526001602090815260408083209387168352929052205483908390610e6e5760405162461bcd60e51b81526004016103ed906115a4565b6001600160a01b038085165f90815260016020908152604080832093891683529290522054610e9e9084906115e1565b6040516370a0823160e01b81526001600160a01b0387811660048301528616906370a0823190602401602060405180830381865afa158015610ee2573d5f803e3d5ffd5b505050506040513d601f19601f82011682018060405250810190610f069190611615565b11156108325760405162461bcd60e51b815260206004820152602260248201527f636865636b546f6b656e496e6372656173654c657373457175616c546f2066616044820152611a5b60f21b60648201526084016103ed565b6001600160a01b0382165f908152602081905260409020548290610f955760405162461bcd60e51b81526004016103ed906115a4565b6001600160a01b0383165f8181526020819052604090205490610fba908490316115e1565b11156104725760405162461bcd60e51b815260206004820152602360248201527f636865636b455448446563726561736547726561746572457175616c546f2066604482015262185a5b60ea1b60648201526084016103ed565b6001600160a01b0382165f90815260208190526040902054829061104a5760405162461bcd60e51b81526004016103ed906115a4565b6001600160a01b0383165f818152602081905260409020549061106f908490316115e1565b10156104725760405162461bcd60e51b815260206004820181905260248201527f636865636b45544844656372656173654c657373457175616c546f206661696c60448201526064016103ed565b6040516331a9108f60e11b8152600481018290526001600160a01b038085169190841690636352211e90602401602060405180830381865afa158015611105573d5f803e3d5ffd5b505050506040513d601f19601f8201168201806040525081019061112991906115fa565b6001600160a01b03160361064a5760405162461bcd60e51b815260206004820152601360248201527218da1958dad39bdd13dddb9391950819985a5b606a1b60448201526064016103ed565b6040516370a0823160e01b81526001600160a01b0384811660048301528291908416906370a0823190602401602060405180830381865afa1580156111bc573d5f803e3d5ffd5b505050506040513d601f19601f820116820180604052508101906111e09190611615565b101561064a5760405162461bcd60e51b815260206004820152601d60248201527f636865636b546f6b656e47726561746572457175616c546f206661696c00000060448201526064016103ed565b6001600160a01b038083165f90815260016020908152604080832093871683529290522054839083906112735760405162461bcd60e51b81526004016103ed906115a4565b6001600160a01b038481165f818152600160209081526040808320948a1680845294909152908190205490516370a0823160e01b81526004810193909352918591906370a0823190602401602060405180830381865afa1580156112d9573d5f803e3d5ffd5b505050506040513d601f19601f820116820180604052508101906112fd9190611615565b61130791906115e1565b146108325760405162461bcd60e51b815260206004820152601e60248201527f636865636b546f6b656e4465637265617365457175616c546f206661696c000060448201526064016103ed565b6001600160a01b038083165f90815260016020908152604080832093871683529290522054839083906113995760405162461bcd60e51b81526004016103ed906115a4565b6001600160a01b038085165f908152600160209081526040808320938916835292905220546113c99084906115e1565b6040516370a0823160e01b81526001600160a01b0387811660048301528616906370a0823190602401602060405180830381865afa15801561140d573d5f803e3d5ffd5b505050506040513d601f19601f820116820180604052508101906114319190611615565b10156108325760405162461bcd60e51b815260206004820152602560248201527f636865636b546f6b656e496e63726561736547726561746572457175616c546f6044820152640819985a5b60da1b60648201526084016103ed565b6001600160a01b03811681146114a1575f80fd5b50565b5f80604083850312156114b5575f80fd5b82356114c08161148d565b946020939093013593505050565b5f602082840312156114de575f80fd5b81356114e98161148d565b9392505050565b5f805f60608486031215611502575f80fd5b833561150d8161148d565b9250602084013561151d8161148d565b929592945050506040919091013590565b5f805f60608486031215611540575f80fd5b833561154b8161148d565b92506020840135915060408401356115628161148d565b809150509250925092565b5f806040838503121561157e575f80fd5b82356115898161148d565b915060208301356115998161148d565b809150509250929050565b6020808252600f908201526e1a185d995b89dd081cdb985c1c1959608a1b604082015260600190565b634e487b7160e01b5f52601160045260245ffd5b808201808211156115f4576115f46115cd565b92915050565b5f6020828403121561160a575f80fd5b81516114e98161148d565b5f60208284031215611625575f80fd5b5051919050565b818103818111156115f4576115f46115cd56fea2646970667358221220cc206a005cd96866823632e8989bb10d9939478a42ef3db83dc38fa163258b6464736f6c63430008180033",
  "linkReferences": {},
  "deployedLinkReferences": {}
}